:100000000C94E9000C9411010C9411010C94110151
:100010000C9411010C9411010C9411010C94110118
:100020000C9411010C9411010C94710B0C94E30BC2
:100030000C9411010C9411010C9411010C941101F8
:100040000C949F0F0C94130E0C9411010C9411013D
:100050000C9411010C9411010C9411010C9495163F
:100060000C9411010C9411010C9411010C941101C8
:100070000C9411010C9411010C9411010C941101B8
:100080000C9411010C9411010C9411010C941101A8
:100090000C9464140C9411010C9411010C94110132
:1000A0000C9411010C9411010C941101BE15C11591
:1000B000B015B415BA15E215E215E215C515C91546
:1000C000CD15D315D715E215DD150706050401007A
:1000D000080A0B0C0D09080B0002020201000904BA
:1000E00000000102020000052400100105240101A6
:1000F00001042402060524060001070581031000FF
:100100004009040100020A00000007050202400045
:1001100000070583024000000403090412010002E5
:10012000EF0201404F1B03920001010203015370D3
:1001300061726B46756E00537061726B46756E200E
:1001400050726F204D6963726F0000000000230041
:10015000260029002C002F000404040404030405D5
:100160000202020204030202020206060606060654
:10017000040402020204040408020110408040103A
:1001800020408040800802040180402010020110BD
:1001900080102040402000000000240027002A009A
:1001A0002D00300000000000250028002B002E004C
:1001B00031000000000200090F0000030401000CE0
:1001C000000000000000000000000000000000002F
:1001D000251F11241FBECFEFDAE0DEBFCDBF15E033
:1001E000A0E0B1E0E6EAF5E402C005900D92AC387B
:1001F000B107D9F727E0ACE8B5E001C01D92A33BF9
:10020000B207E1F710E0C9EED0E004C02197FE018B
:100210000E94B11FC83ED107C9F70E94DF160C9497
:10022000D1220C940000DC01ED91FC91119761E06A
:100230001F962D913C915097232B09F060E000848C
:10024000F185E02D41E00994DC01ED91FC911197DD
:1002500016966C9121E062270084F185E02D41E043
:10026000099480E00895FC0181E0672B09F480E0A7
:10027000818B882319F08681978102C080859185C2
:10028000958B848B84899589938B828B178A168AA8
:10029000128E118E0895FC01818990E0089580E00E
:1002A0000895DC01ED91FC91119751966C9121E03C
:1002B00062270084F185E02D40E00994FC0166236B
:1002C00019F091E094279783468308959C0121506B
:1002D000310927313105A0F4880F991FFC01E1573E
:1002E000FA4F80819181DC01ED91FC9121E0672B37
:1002F00009F420E00084F185E02D40E0622F0994AC
:10030000089580E090E00895089580E008950895AC
:10031000089508950895089508950C9408220C9462
:1003200008220C9408220C940822FC01818988235D
:1003300019F08BEA92E002C084EB92E00C94391140
:10034000FC018289882319F08BEA92E002C084EBD9
:1003500092E00C943911CF93DF93EC018BEB92E098
:100360000E9439118B819C810E943B1188E092E0B0
:100370000E94391187ED92E00E9439116AE070E025
:100380008F810E94321285ED92E00E9439116AE05D
:1003900070E088850E94321288E092E0DF91CF9170
:1003A0000C943911CF93DF93EC0188EE92E00E9418
:1003B00039116AE070E08A810E94321286EF92E081
:1003C0000E943911888599850E943B1182E093E053
:1003D0000E9439118E819F810E943B118DE093E034
:1003E0000E9439118B819C810E943B1188E193E02E
:1003F0000E9439118A859B850E943B1181E293E01E
:100400000E9439118D859E850E943B1184E393E003
:100410000E9439118F8598890E943B1187E493E0EF
:100420000E9439116AE070E08C850E94321288E0E7
:1004300092E0DF91CF910C943911CF93DF93EC01CF
:1004400085E593E00E9439116AE070E08A810E949C
:10045000321284E693E00E9439118E819F810E94BE
:100460003B118DE093E00E9439118B819C810E94A9
:100470003B1183E793E00E943911888599850E949A
:100480003B1181E293E00E9439118A859B850E948D
:100490003B1184E393E00E9439118C859D85DF91A7
:1004A000CF910C943B11CF93DF93EC018FE793E056
:1004B0000E9439116AE070E08A810E94321286EF50
:1004C00092E00E943911888599850E943B1182E053
:1004D00093E00E9439118E819F810E943B118DE033
:1004E00093E00E9439118B819C810E943B1188E12D
:1004F00093E00E9439118A859B850E943B1181E21D
:1005000093E00E9439118D859E850E943B1184E302
:1005100093E00E9439118F8598890E943B1187E4EE
:1005200093E00E9439116AE070E08C850E943212DB
:1005300088E092E0DF91CF910C9439110F931F93D3
:10054000CF93DF93FC0127853089232B51F1EC01F8
:100550000E9489160B851C852D853E85AB01BC014B
:10056000401B510B620B730B89859A85A0E0B0E0AC
:1005700084179507A607B707B0F48A89882341F046
:100580008F859889019721F4888561E070E003C028
:100590008F8160E070E090E00E946601188A1F86FB
:1005A00002C080E001C081E0DF91CF911F910F91E7
:1005B00008950F931F93CF93DF93EC01298962175E
:1005C00059F18F859889892B39F5E62FF0E030E0D5
:1005D00091E02E173F070CF090E0042F162F9A8B16
:1005E000992341F081E090E0988B8F878F8161E0C3
:1005F00070E007C081E090E0988B8F87888560E08D
:1006000070E090E00E9466010111198B0E9489162A
:100610006B877C878D879E87DF91CF911F910F918C
:1006200008951F93CF93DF93EC01162F88858111D6
:1006300011E08DE893E00E9439116AE070E08A8150
:100640000E94321289E993E00E943911888590E076
:100650000E946D1288E092E00E943911612F8A8118
:10066000DF91CF911F910C94E3150F931F93CF93BC
:10067000DF931F92CDB7DEB78C01DC0117968C910A
:1006800017978823B9F019968C911997662321F052
:100690008F5F19968C9303C08150F8018187D80130
:1006A00019968C911997181624F019961C9260E0EF
:1006B00001C061E085EA93E069830E943911F80185
:1006C0008185082E000C990B0E946D126981D8015A
:1006D00016966C931697ED91FC910284F385E02DAC
:1006E000C8010F90DF91CF911F910F910994CF9383
:1006F000DF93EC018DE893E00E9439116AE070E02D
:100700008A810E9432128BEA93E00E943911888517
:1007100090E00E946D1288E092E0DF91CF910C94FE
:100720003911CF93DF93EC0187EB93E00E943911ED
:100730006AE070E08A810E94321282EC93E00E94AB
:1007400039118B819C810E943B1187EC93E00E94C0
:1007500039118A8590E00E946D1282EC93E00E942C
:100760003911888599850E943B1188E092E0DF91DC
:10077000CF910C943911EF92FF920F931F93CF9367
:10078000DF9300D0CDB7DEB78C018BED93E06A83A9
:1007900079830E943911C8010E943B118DE093E0DA
:1007A0000E943911C801880F991F9C0121573A4FA7
:1007B0007901D901ED91FC91838194810E943B11D3
:1007C0008BEE93E00E9439116A81862F7981972FF1
:1007D0000E9427116A81012B79F0D701ED91FC91DC
:1007E000838194810F900F90DF91CF911F910F9192
:1007F000FF90EF900C94A3100F900F90DF91CF918A
:100800001F910F91FF90EF9008950F931F93CF9337
:10081000DF93FC014685578560897189452B462BFE
:10082000472B09F440C0EC010E9489160E851F85F4
:1008300028893989AB01BC01401B510B620B730B3A
:1008400088859985A0E0B0E084179507A607B707CB
:1008500060F584EF93E00E94D1131E861F86188AEC
:10086000198A60E08A810E94E31560E08E810E940F
:10087000E3151A898A859B8511110BC061E070E030
:100880000E94BB0360E070E08C859D850E94BB03E5
:100890000DC060E070E00E94BB0361E070E08C85F9
:1008A0009D850E94BB0310E001C011E0812FDF9104
:1008B000CF911F910F9108951F93CF93DF93EC0178
:1008C000162F2A898A859B85211107C061E070E077
:1008D0000E94BB0360E070E006C060E070E00E9430
:1008E000BB0361E070E08C859D850E94BB031A8B81
:1008F0000E9489166E877F87888B998B61E08A8139
:100900000E94131661E08E810E9413168FEF93E010
:100910000E94391160E0112369F08E810E94E31575
:1009200061E08A810E94E3158A81DF91CF911F9156
:100930000C941F128A810E94E31561E08E810E944F
:10094000E3158E819F81DF91CF911F910C94271128
:10095000CF93DF93EC01298D3A8D8D859E852130D3
:10096000310519F460E070E005C02989211107C044
:1009700061E070E00E94BB0360E070E006C060E0F0
:1009800070E00E94BB0361E070E08F859889DF9181
:10099000CF910C94BB031F93CF93DF93EC01162FE1
:1009A000662319F08E819F8102C0888599859D8B71
:1009B0008C8B4C895D892A893B898A859B85421766
:1009C000530718F49195819591099F8B8E8B8C8597
:1009D00061E070E090E00E946601CE010E94A804F0
:1009E000198B81E090E09A8F898FDF91CF911F91D1
:1009F00008950F931F93CF93DF93EC012A81222355
:100A000009F130E0F901EE54FE4F8491F901E95803
:100A1000FE4F0491F901E85AFE4F1491112379F029
:100A200081110E94A615E12FF0E0EE0FFF1FE65B9B
:100A3000FE4FA591B491EC91E02381E009F480E0B0
:100A400081708E836E818F81681719F18B819C81F3
:100A50000E94A3108A85882339F06E8181E068277F
:100A6000888599850E94A31088E094E00E9439113E
:100A70006AE070E08A810E94321283E194E00E9471
:100A800039118E8190E00E946D128E818F8381E0FA
:100A900001C080E0DF91CF911F910F910895EF92F7
:100AA000FF920F931F93CF93DF93EC01E98CFA8CA5
:100AB00082E0E816F10419F12A893B898C899D8925
:100AC0002817390719F0281B390B02C020E030E045
:100AD0008E899F8997FF03C0919581959109281769
:100AE000390778F482E090E09A8F898F8C8560E0F6
:100AF00070E090E00E946601CE010E94A80480E0B0
:100B000066C0888D8F5F888F91E0E916F10409F047
:100B100050C08B3F08F44BC080E294E00E94391132
:100B20000E891F898A899B89080F191F1B8B0A8BC5
:100B30006A81EB8DFC8D808191E09093F905809323
:100B40001B061092FA0510921C0684E0689FB00103
:100B500011246A5F7F4F83EC96E00E947D1380E052
:100B600090E00E94241480E090E00E942414C801C8
:100B70000E942414812F90E00E94241481E00E949E
:100B800077128A899B890E943B1188E092E00E943B
:100B90003911188E8E899F89892B49F42C893D89BA
:100BA0008A899B892817390711F4FF8AEE8A81E028
:100BB0000EC0EF2809F0A3CF8B3F08F4A0CF8AE244
:100BC00094E00E94391181E090E09A8F898FDF9143
:100BD000CF911F910F91FF90EF9008950F931F9366
:100BE000CF93DF938C01EB0186E394E00E943911EF
:100BF000F801808191810E943B1181E197E20E947E
:100C00006D1280E090E00E94A022282F30E039830E
:100C1000288381E197E2F80191838083888199811B
:100C20000E943B118FE7DF91CF911F910F910895A3
:100C30000F931F93CF93DF938C01EB0181E494E03A
:100C40000E9439118091CC058823F1F001311742BF
:100C5000A9F480E090E00E94A02290E0C817D90794
:100C600081F41092CC058CE594E00E9439110C942B
:100C70000000DF91CF911F910F91089582E794E0DA
:100C800005C080E894E002C087E994E0DF91CF914D
:100C90001F910F910C943911EF92FF920F931F93B4
:100CA000CF93DF937C018B0180E090E00E94A02233
:100CB000C82FD0E0F701808191810E943B11F8019B
:100CC000808191810E943B11CE010E943B11F7016E
:100CD0008081918181319742D1F4F80180819181A5
:100CE0008C179D0741F481E08093CC058AEA94E05B
:100CF0000E9439110AC0019651F480E090E00E94F0
:100D0000A02290E0F801918380838FE703C01092C6
:100D1000CC058FEFDF91CF911F910F91FF90EF9056
:100D20000895BF92CF92DF92EF92FF920F931F939D
:100D3000CF93DF936C01062FB42E8CEC94E00E94CD
:100D40003911C6010E943B11E091CF06F091D00607
:100D50000190F081E02D6AE38FEC96E00995B110E7
:100D600003C084EB92E002C08EEB94E00E94391144
:100D70008DED94E00E943911011103C088EC94E0DC
:100D800002C085EC94E00E94D113CFE8D5E08BE25D
:100D9000E82E80E0F82E10E0A881B98113968D919D
:100DA0009C9114978C159D05B9F5ED91FC911197C7
:100DB00041E0011101C040E061E0B11001C060E01C
:100DC0000084F185E02DCD01099588819981DC01B0
:100DD000ED91FC910488F589E02D0995BC01C701CE
:100DE0000E94BC2281EE94E00E9439116AE070E01A
:100DF000812F0E94321281EF94E00E943911888184
:100E00009981DC01ED91FC910684F785E02D09952F
:100E100088E092E00E9439111F5F2296B4E1EB0E48
:100E2000F11C183109F0B8CFDF91CF911F910F91CC
:100E3000FF90EF90DF90CF90BF90089580329105A2
:100E400010F4019708959C0120523109C9016AE00C
:100E500070E00E947B1F44E1649FC0011124AC013B
:100E6000415E5F4FC9017AE0679F801991091124A3
:100E7000880F991F840F951F0895EF92FF920F938B
:100E80001F93CF93DF932091CC05222309F455C003
:100E9000052F142FEB017C0187EF94E00E9439119C
:100EA000C7010E943B1184ED92E00E943911CE01EE
:100EB0000E943B1184ED92E00E94391184ED92E092
:100EC0000E943911812F902F0E943B118EE095E0F6
:100ED0000E94391181E1E81687E2F80651F5C03425
:100EE00081E0D80760F5CE010E941E077C010E94B8
:100EF0003B11C032D10510F082E001C081E06AE010
:100F000070E00E9432126AE070E0812F0E9432127B
:100F1000C70180509040C032D10598F0612F702FEA
:100F20000E94BC22CE010E9413140E943B118FE745
:100F30000CC081E195E00E9439118FEF06C081E07D
:100F400004C0612F0E94AE22EDCFDF91CF911F919F
:100F50000F91FF90EF900895089508952EE731E0E6
:100F6000FC013183208381E295E00C943911CF9309
:100F7000DF93EC010E94AE07CE01DF91CF910C947C
:100F8000082224E631E0FC01318320838DE295E0E4
:100F90000C943911CF93DF93EC010E94C107CE016D
:100FA000DF91CF910C94082228E931E0FC013183D4
:100FB00020830C94AE07CF93DF93EC010E94D407FB
:100FC000CE01DF91CF910C9408220895ECECF0E073
:100FD000E49120917B00E3FB882780F990E035E0E5
:100FE000880F991F3A95E1F7922F9F7D892B809367
:100FF0007B00E770E064E0937C0080917A0080647D
:1010000080937A0080917A0086FDFCCF6091780011
:101010008091790070E0782B80E090E00E94582069
:101020002AE137E64CE950E40E94E62020E030E077
:1010300040E551E40E94E6200E942920CB0108955A
:101040009F92AF92BF92CF92DF92EF92FF920F9357
:101050001F93CF93DF9300D0CDB7DEB76C017B0138
:10106000890186E495E00E943911C6010E943B1176
:1010700084ED92E00E943911C7010E943B1184ED7A
:1010800092E00E94391184ED92E00E943911F8013A
:10109000808191810E943B118EE095E00E94391180
:1010A0008091CC05882309F43BC1F1E1CF16F7E22A
:1010B000DF0609F032C145E0E416F10419F488E1D5
:1010C00090E01FC1F0E4EF16F1E0FF0600F5C70164
:1010D0000E941314F801918380838CE595E00E94AF
:1010E0003911C7010E941E07805090400E943B1199
:1010F0008EE695E00E943911F801808191810E946D
:101100003B1188E092E00E9439118FE710C1FAEF9D
:10111000EF16F3E0FF0609F048C00E94E8110E94B4
:10112000D31161E084E40E94981168EE73E080E0DE
:1011300090E00E944F160E94E8110E94D31160E0D7
:101140008EEB0E949811E3ECEE2EE5E0FE2EF9E026
:101150009F2E9E0C78E0A72EB12CCC24C394D12CCA
:101160000E9441118111DC28CC0C41E0A41AB10885
:10117000B9F7F701D1927F019E12ECCF8091C4059F
:1011800090E0982F88272091C305822B2091C705D6
:10119000207611F4887FB5C0203211F48C7FB1C065
:1011A000203409F0AEC08E7FACC0FBEFEF16F3E049
:1011B000FF0659F480911D0690E0982F8827F801CA
:1011C0009183808320911E060FC0FCEFEF16F3E0A1
:1011D000FF0661F480911F0690E0982F8827F801A0
:1011E0009183808320912006822B8CC0FDEFEF1627
:1011F000F3E0FF0659F48091210690E0982F8827AC
:10120000F8019183808320912206EECFFEEFEF1646
:10121000F3E0FF0659F48091230690E0982F882789
:10122000F8019183808320912406DECFFFEFEF1633
:10123000F3E0FF0619F480E496E963C0E114F4E0FA
:10124000FF0681F48091AF079091B007009711F4E9
:1012500083EB97E09E012F5F3F4FA901481B590B7D
:10126000CA014FC0F1E0EF16F4E0FF0629F48091C7
:101270008C0590918D0545C0F2E0EF16F4E0FF0675
:1012800029F48091B3079091B4073BC0F3E0EF16C7
:10129000F4E0FF0619F48DB79EB733C0C701845040
:1012A0009440059790F5F6E0EF16F4E0FF06D9F0CC
:1012B00030F455E0E51654E0F50681F00AC087E009
:1012C000E81684E0F806A1F0E8E0EE16E4E0FE0699
:1012D000A1F08091B9069091BA0613C08091BB0627
:1012E0009091BC060EC08091BD069091BE0609C0CB
:1012F0008091BF069091C00604C08091C106909174
:10130000C206F8019183808300CFFAE0EF16F4E083
:10131000FF0661F40E94E607F4CF8CE795E002C077
:1013200087E994E00E9439118FEF01C081E00F90AE
:101330000F90DF91CF911F910F91FF90EF90DF9071
:10134000CF90BF90AF909F90089508954091CF05A2
:101350005091D0052091CD053091CE05421753070D
:10136000B4F49091E8009570E1F39091E80092FD5B
:1013700019C08093F1008091CF059091D00501961E
:101380008F739927892B19F48EEF8093E800809151
:10139000CF059091D00501969093D0058093CF050D
:1013A00081E0089580E00895DF92EF92FF920F931D
:1013B0001F93CF93DF93D82E8A017B01E40EF51E95
:1013C000EB01CE15DF0571F0D7FE03C0FE0184915D
:1013D00001C088810E94A60921968111F2CF8FEF6A
:1013E0009FEF01C0C801DF91CF911F910F91FF9036
:1013F000EF90DF900895615030F02091F100FC01F2
:1014000020830196F8CF289884E6809358070895A2
:10141000CF92DF92EF92FF920F931F93CF93DF93C0
:101420006C017A018B01C0E0D0E0CE15DF0589F0B8
:10143000D8016D918D01D601ED91FC910190F08163
:10144000E02DC6010995892B11F47E0102C0219679
:10145000ECCFC701DF91CF911F910F91FF90EF90DB
:10146000DF90CF900895CF93DF931F92CDB7DEB773
:101470006983DC01ED91FC910280F381E02D41E074
:1014800050E0BE016F5F7F4F09950F90DF91CF91C4
:10149000089583E08093E9008091F200882319F099
:1014A0008AE38093E8000895FC018485958597FD83
:1014B0000BC09FB7F89482E08093E9008091F2001E
:1014C0009FBF90E0019608959FB7F89482E08093C3
:1014D000E9008091F2009FBF90E00895089580E0B8
:1014E00090E008950E9453210F931F93CF93DF93B1
:1014F0001F92CDB7DEB782E0898342E450E066ED0B
:1015000070E080E80E94D4090E949215DC011296D6
:101510000D911C9113970115110569F0D801ED91FA
:10152000FC910280F381E02DBE016F5F7F4FC80107
:10153000099597FF07C089810F90DF91CF911F9187
:101540000F910895F80100851185E5CF8F929F9244
:10155000AF92BF92CF92DF92EF92FF920F931F93C1
:10156000CF93DF935C016B017A018091070188239F
:1015700009F45BC080915907882309F456C0809113
:101580008D0580FF05C08091E00082608093E000BF
:10159000E70110E00AEF83E0882E9AE3992E209766
:1015A000D9F10E94531481110AC0015009F43DC0C1
:1015B00061E070E080E090E00E944F16F0CF282FAD
:1015C00030E0C217D3070CF48C2F4FB7F8948092F9
:1015D000E9009091E80095FF1DC0282F30E0C21B64
:1015E000D30BF601982F915020F081918093F10058
:1015F000FACFC20ED31E112319F09092E80009C051
:101600008091E80085FD06C09092E80011E02097E7
:1016100009F010E04FBFC3CF1111C3CF5D9884E62E
:101620008093D1051E141F0444F081E090E0F50181
:101630009383828380E090E001C0C701DF91CF9166
:101640001F910F91FF90EF90DF90CF90BF90AF90E0
:101650009F908F9008950E94531490E008950F93E7
:101660001F93CF93DF931F92CDB7DEB78C01FC01A0
:101670008485958597FF0EC0CE0101960E9429149E
:10168000019719F4298130E002C02FEF3FEFF801F4
:1016900035872487F801848595850F90DF91CF9158
:1016A0001F910F910895CF93DF931F92CDB7DEB7AF
:1016B000FC018485958597FD05C02FEF3FEF3587A9
:1016C00024870BC0CE0101960E942914019719F4BA
:1016D000898190E002C08FEF9FEF0F90DF91CF9153
:1016E00008951F920F920FB60F9211248F939F931C
:1016F0008091E1009091E100937F9093E10083FF5E
:101700000FC01092E90091E09093EB001092EC0072
:1017100092E39093ED001092590798E09093F000B7
:1017200082FF20C093E09093E9009091F20099230A
:1017300019F09AE39093E8009091D105992339F03C
:101740009091D10591509093D105992389F1909171
:101750005807992339F09091580791509093580762
:10176000992341F184FF10C08091E2008E7E816058
:101770008093E2008091E1008F7E8093E100809170
:101780008D058E7E806111C080FF16C08091E200C1
:101790008E7E80618093E2008091E1008E7E809356
:1017A000E10080918D058E7E816080938D0504C05F
:1017B0005D9ACDCF289AD6CF9F918F910F900FBE73
:1017C0000F901F9018951F920F920FB60F92112431
:1017D000CF92DF92EF92FF920F931F932F933F933D
:1017E0004F935F936F937F938F939F93AF93BF9329
:1017F000EF93FF93CF93DF93CDB7DEB76C97DEBF48
:10180000CDBF1092E9008091E80083FFEDC168E050
:10181000CE0145960E94FB0982EF8093E8008D89F6
:1018200087FF05C09091E80090FFFCCF03C09EEFBA
:101830009093E800982F907609F0C6C09E892F8972
:10184000188D91110CC0803829F480918E058093F9
:10185000F10002C01092F1001092F10048C1422F35
:1018600050E0512B913051F4811141C1413051056B
:1018700009F03DC180918E058D7F0BC0933061F4DE
:10188000811135C14130510509F031C180918E057A
:10189000826080938E052BC1953041F48091E800E1
:1018A00080FFFCCF20682093E30021C1963009F02F
:1018B0005FC0EB8CFC8C1092E9001092D005109266
:1018C000CF05123091F51092CE051092CD050E94F1
:1018D000740A99E0BE016F5F7F4FDB01E92F1D9213
:1018E000EA95E9F799831A8391E09E8390EA9887B5
:1018F0009AEF99872091CF053091D005275F3F4F10
:101900003C832B838D831092E9001092D0051092B6
:10191000CF05F092CE05E092CD0549E050E080E0A1
:101920000E94D4090E94740AE2C0F092CE05E092AF
:10193000CD050E949215DC011296ED90FC90139754
:10194000E114F10409F4C0C0D701ED91FC910480C9
:10195000F581E02DBE016B5E7F4FC70109950097B1
:1019600019F00CF0C4C0C7C0F701E084F184E8CFDF
:10197000973009F4C0C0983021F481E08093F100E1
:10198000B6C0993009F0B3C0837009F0B4C0E9EC77
:10199000F1E081E021E036E39081992361F08093CA
:1019A000E9002093EB0091919093EC003093ED00CF
:1019B0008F5F873089F78EE78093EA001092EA0004
:1019C0008F898093590793C08B8D9C8D1092E9006D
:1019D0001092D0051092CF059093CE058093CD053F
:1019E000898D811156C08E899D89913A59F4813231
:1019F00009F081C047E050E060E071E080E00E94C3
:101A0000D40975C0913209F076C0833289F4888D8B
:101A100090E0982F88272F89822BA0E0B0E0809358
:101A2000080190930901A0930A01B0930B015FC0D4
:101A3000803269F48091E80082FFFCCF67E080E0AB
:101A400091E00E94FB098BEF8093E80006C0823290
:101A500009F04DC08F898093070180918C05882300
:101A600019F0EEEFFAE002C0E0E0F8E0809100014A
:101A700090910101A0910201B0910301803B94403B
:101A8000A105B10509F07BC08091070180FF93C0DB
:101A900076C00E949215DC0112960D911C9113974D
:101AA0000115110541F1D801ED91FC910190F081F2
:101AB000E02DBE016B5E7F4FC8010995811117C0F3
:101AC000F80100851185ECCF113009F44EC01330B8
:101AD00091F48F89882309F445C0823081F440E86D
:101AE00062E187E391E00E94E81E882321F08EEFF7
:101AF0008093E80079C081E28093EB0075C081306B
:101B000029F440E868E08EE291E0EDCF833099F768
:101B10000E949215DC011296ED90FC9013978E01B5
:101B20000F5F1F4F6801E114F10479F0D701ED91C7
:101B3000FC910680F781E02DB801C7010995080FD7
:101B4000111DF701E084F184EECFD8011C92F6015B
:101B500001900020E9F73197BF016C197D0940E041
:101B6000C601C1CF68E171E002C06CE171E06115AE
:101B7000710509F2FB01449150E080E840CF0FB6B7
:101B8000F894A8958091600088618093600010921D
:101B900060000FBEA895EE3F2AE0F20739F0809171
:101BA000FE0A9091FF0A91838083A1CF1092FF0AD1
:101BB0001092FE0A9CCFEE3F8AE0F80731F0808158
:101BC00091819093FF0A8093FE0A87E797E79183BC
:101BD00080839BE088E10FB6F894A895809360001D
:101BE0000FBE9093600083CF6C960FB6F894DEBF63
:101BF0000FBECDBFDF91CF91FF91EF91BF91AF911C
:101C00009F918F917F916F915F914F913F912F9114
:101C10001F910F91FF90EF90DF90CF900F900FBE2C
:101C20000F901F9018951F920F920FB60F921124CC
:101C30002F933F934F935F936F937F938F939F93D4
:101C4000AF93BF93CF93DF93EF93FF9380912B06D6
:101C500090912C0680549C4F90932C0680932B06D9
:101C600080912B0690912C06909389008093880098
:101C7000809130068F5F80933006809131068430EA
:101C8000E1F580913006893078F48091270690E064
:101C900095958795809327064C9B3EC1809127069A
:101CA00080688093270638C1B59A80916F00806262
:101CB00080936F0080912506909126064C9909C06B
:101CC000FC01E957FF4F80819181019691838083C8
:101CD0000FC040912706FC01E058FF4F308121E002
:101CE000230F2083DC01A30FB11D4C9327FD10822D
:101CF0001092300681E08093310680913106833066
:101D000009F0B4C0E0912E06F0912F064081209199
:101D10002D0699B150E0022E02C0559547950A94C0
:101D2000E2F7892F90E034E0959587953A95E1F7B1
:101D30008427952780FD04C01092300682E094C06D
:101D4000809130068930F0F480912706308180FF41
:101D500009C081E090E001C0880F2A95EAF78095DC
:101D6000832307C081E090E001C0880F2A95EAF73D
:101D7000832B80838091270690E0959587958093AB
:101D8000270674C080913006893059F4308181E093
:101D900090E001C0880F2A95EAF78095832380831D
:101DA00065C0809132068F5F809332069091330632
:101DB000891748F510923006A0912906B0912A069D
:101DC00080913206A80FB11D8C9180932706308137
:101DD00081E090E001C0880F2A95EAF7832B808389
:101DE00080918400909185008A5A9C4F90932C0694
:101DF00080932B0680912B0690912C06909389005E
:101E00008093880033C081E080932806E091290602
:101E1000F0912A0640912506509126068081807611
:101E2000803611F4818105C08081807682958F7023
:101E30008E5F20E030E0DA01A058BF4F281788F409
:101E4000EF01C20FD31F78816C9191E0960F9C93A4
:101E5000EA01C60FD11D788397FD1C922F5F3F4F7B
:101E6000EDCF1092300681E08093310680913106EB
:101E70008230D1F580913006811111C0E0912E069B
:101E8000F0912F06208181E090E000902D0602C0A5
:101E9000880F991F0A94E2F7822B808325C08091D6
:101EA00030068F3008F1E0912E06F0912F06208148
:101EB00081E090E000902D0602C0880F991F0A94DF
:101EC000E2F78095822380831092300681E0809330
:101ED0003106E0912506F0912606E357FF4F8081F9
:101EE0009181019691838083809131068130A1F4A4
:101EF00080913006811105C0B59A80916F00806293
:101F000009C080913006883338F0109231068091F4
:101F10006F008D7F80936F00FF91EF91DF91CF91E4
:101F2000BF91AF919F918F917F916F915F914F91F1
:101F30003F912F910F900FBE0F901F9018951F92F9
:101F40000F920FB60F9211248F939F93EF93FF93ED
:101F5000EFE6F0E080818F7D808380918600909114
:101F6000870080569A4F90932C0680932B06809181
:101F70002B0690912C069093890080938800B19A4B
:101F800080818260808384E08093310610923006E5
:101F9000FF91EF919F918F910F900FBE0F901F9027
:101FA0001895CF93DF93FC0149E18EE261E070E088
:101FB000A3E051E090819076903611F4918105C0B4
:101FC0009081907692959F709E5F9093330690914A
:101FD00033069150109232062FEF309132063917A6
:101FE00068F430913206EF01C30FD11D38812327E9
:101FF000309132063F5F30933206EFCFEF01C90FC9
:10200000D11D2883F89490913106913059F4909124
:102010003006981738F01092310690916F009D7F2E
:1020200090936F00789490913106913039F49091AB
:102030003006943108F4BECF50E0BCCF9091310609
:10204000911163C0F89490916F009F7D90936F0001
:10205000B59B07C090916F00906290936F00789449
:1020600054C0C0912E06D0912F0698819B010090FC
:102070002D0602C0220F331F0A94E2F7292B288372
:1020800020918400309185002A5A3C4F30932C06D1
:1020900020932B0620912B0630912C06309389003B
:1020A000209388007894F0932A06E09329061092F2
:1020B000320610922806908190932706A09331064D
:1020C00010923006B19A90916F00926090936F00D9
:1020D000909131069330E1F390912806992371F0A5
:1020E000E0912506F0912606E757FF4F8081918108
:1020F00001969183808383E090E022C09091310625
:10210000923031F025E030E005C022E030E002C03E
:1021100024E030E02230310511F451114ACF8B31E7
:1021200008F08150415009F044CF8091BF06909152
:10213000C00601969093C0068093BF0686E090E0AB
:10214000DF91CF910895CF93DF93CDB7DEB760973E
:102150000FB6F894DEBF0FBECDBFAC0141505109A0
:10216000852F8F709A01369527952F7740FD02C0F5
:10217000806401C080666111806192EB99832A833B
:102180008B83CE0101960E94D10F60960FB6F89412
:10219000DEBF0FBECDBFDF91CF910895BC01009788
:1021A00091F0FC0101900020E9F73197AF01481B45
:1021B000590BE091CF06F091D0060280F381E02D1B
:1021C0008FEC96E0099480E090E008958F929F92C2
:1021D000AF92BF920F931F93CF93DF93CDB7DEB72C
:1021E000A1970FB6F894DEBF0FBECDBF19A2423043
:1021F00008F44AE08E010F5D1F4F842E912CA12C14
:10220000B12CA50194010E948F1FE62FB901CA01CC
:1022100001501109EA3014F4E05D01C0E95CD80115
:10222000EC93232B242B252B61F7C8010E94CE10A1
:10223000A1960FB6F894DEBF0FBECDBFDF91CF9150
:102240001F910F91BF90AF909F908F900895CF9363
:10225000DF93BC0180E090E04AE00E94E610EC01D0
:1022600087E092E00E94CE108C0F9D1FDF91CF91EE
:1022700008950C94CE10BC0180E090E04AE00C94EC
:10228000E61080911F07E0912007F0912107F89454
:102290009181982B91832281982F909529232283D5
:1022A000A7E0B0E01197F1F7218192239183A3E297
:1022B000B0E01197F1F790817894EFECF0E031976E
:1022C000F1F7982381E009F480E0089590911F07C9
:1022D000E0912007F0912107392F309580FF13C03E
:1022E000F8942281832F822382838181892B8183A9
:1022F000A3E2B0E01197F1F78281982B9283789452
:1023000087ED90E012C0F8942281832F822382838C
:102310008181892B8183AFEFB0E01197F1F7828142
:10232000982B928378948FE090E00197F1F70895CD
:10233000EF92FF920F931F93CF93DF931F92CDB72E
:10234000DEB7082F88E0E82EF12C11E081E0912F14
:10235000902309F480E069830E946611110F81E0E7
:10236000E81AF1086981E114F10481F7611113C0E1
:10237000F894E0912007F0912107918180911F0747
:10238000809598239183E0912007F0912107928115
:102390008923828378940F90DF91CF911F910F91C1
:1023A000FF90EF9008951F93CF93DF9360E085E552
:1023B0000E949811CDE1D6E01C2F185F60E0899152
:1023C0000E9498111C13FACFDF91CF911F910895AD
:1023D00090911F07E0912007F0912107F8948181E7
:1023E000292F20958223818378948DE743E050E064
:1023F000815021F1DA011197F1F730813923C1F3CE
:10240000F8948281822382838181892B81837894CD
:10241000ABE7B7E01197F1F7F89481812823218386
:10242000A3E1B1E01197F1F78081982381E009F0F1
:1024300080E07894E3E6F6E03197F1F70895CF93E2
:10244000DF93682F70E080E090E04AE00E94E610A1
:10245000EC0187E092E00E94CE108C0F9D1FDF916F
:10246000CF910895AB01672B59F4E091CF06F0911D
:10247000D0060190F081E02D682F8FEC96E0099452
:10248000682F70E080E090E00C94E610CF92DF922D
:10249000EF92FF92CF93DF936B017C01E091CF0627
:1024A000F091D0060190F081E02D6DE28FEC96E086
:1024B0000995EC0166277727CB016C197D098E09F8
:1024C0009F094AE00E94E6108C0F9D1FDF91CF917B
:1024D000FF90EF90DF90CF900895BC01990F880B8B
:1024E000990B97FD0C9446124AE00C94E610382F95
:1024F00020911C0690911B06213208F049C0809162
:10250000F8058111FCCF42E04093F8053093F705C0
:102510003FEF3093F6051092F5052093F405ABEFED
:10252000B5E044ED55E0FA013E2F341B321718F4A4
:102530003D913193F9CF1092D3052091D305990F96
:10254000922B9093D3059091D205913061F4109223
:10255000D2059091D3059093BB009091BC0093FD60
:10256000F8CF95EC01C095EE9093BC009091F805E2
:102570009230E1F39091F6059F3F79F08091F60556
:10258000803241F08091F605803331F084E005C05F
:1025900081E003C082E001C083E01092FA0510924E
:1025A0001C061092F9050895CF93C62F90912D0720
:1025B00021E02093F90590931B061092FA051092E2
:1025C0001C06682F83EC96E00E947D136C2F83EC31
:1025D00096E00E947D1381E0CF910C94771285EDF7
:1025E0008093BC008091BC0084FDFCCF1092F80564
:1025F000089540918907262F30E0240F311D2132A4
:102600003105DCF42091F8052430C9F4FC0180E0A8
:1026100090E0861758F4309189072191DC01A9597F
:10262000B84FA30FB11D2C930196F3CF809189076A
:10263000680F6093890780E0089581E0089582E043
:1026400008950895E091570780915607E81730F4F0
:10265000F0E0EA5CF84F808190E008958FEF9FEF03
:1026600008959091570780915607981750F4E92FD5
:10267000F0E0EA5CF84F208130E09F5F90935707CD
:1026800002C02FEF3FEFC90108958091560790E0F7
:1026900020915707821B91090895CF92DF92EF9204
:1026A000FF920F931F93CF93DF937C01262F972FD9
:1026B0008A018091F905882391F0C62FD72F6E01EA
:1026C000C40ED51ECC15DD0571F06991D701ED91D1
:1026D000FC910190F081E02DC7010995F3CF642FA3
:1026E000822F0E94F912C801DF91CF911F910F91A3
:1026F000FF90EF90DF90CF900895CF93DF931F92DC
:10270000CDB7DEB769832091F9052223D1F020915E
:102710001C06203240F021E030E0FC0133832283AC
:1027200080E090E015C08091FA05E82FF0E0E550D8
:10273000FA4F998190838F5F8093FA0580931C06EE
:1027400005C061E0CE0101960E94F91281E090E09F
:102750000F90DF91CF9108953FB7F89480913207A1
:1027600090913307A0913407B091350726B5A89B07
:1027700005C02F3F19F00196A11DB11D3FBFBA2F13
:10278000A92F982F8827820F911DA11DB11DBC0173
:10279000CD0142E0660F771F881F991F4A95D1F738
:1027A0000895CF93DF930E94CE10EC0187E092E072
:1027B0000E94CE108C0F9D1FDF91CF910895EF9254
:1027C0000F931F93FC0185EE80838FE0818385E06A
:1027D0008283613029F489E483838BE4848302C09B
:1027E000638314828FE18583168250874783328703
:1027F000218714870387E586DF011796AF01425FC3
:102800005F4F91E08C9187FF05C02681292B26839D
:102810008F778C93990F1196A417B50799F71F918D
:102820000F91EF9008958032910530F00E941E07BD
:10283000805090400C94A8220E941E078050904027
:102840000E94A02290E00895682F83EC96E00C94FB
:102850007D13FC0180915907811103C08FEF9FEF19
:1028600008959FB7F89482E08093E9002091F200E8
:1028700030E01216130614F421E030E02115310582
:1028800059F0289884E6809358078091F10080835E
:102890008091F200882319F09FBFC90108958BE64B
:1028A0008093E800F9CF2FB7F89483E08093E90094
:1028B0009091E800892F807295FF04C09091F200FA
:1028C00080E4891B2FBF08951F920F920FB60F92BD
:1028D00011242F933F934F935F936F937F938F9325
:1028E0009F93AF93BF93EF93FF938091B900887F3D
:1028F000803609F49CC068F5883209F45BC090F416
:10290000803109F454C038F4882309F4F6C08830C3
:1029100009F44DC0F6C0883109F44CC0803209F486
:102920005DC0EFC0803409F468C048F4803309F416
:1029300055C0883309F0E5C08093F605D8C08035CE
:1029400009F44FC0883509F45DC0883409F0D9C056
:10295000D6C0883909F4C7C0A8F4883709F467C01D
:1029600038F4883609F463C0803709F460C0C9C000
:10297000883809F4B8C0803909F45FC0803809F09C
:10298000C0C05BC0803B09F486C038F4803A09F4CB
:1029900066C0883A09F47FC0B4C0803C09F4A7C07F
:1029A000883C09F4A4C0883B09F48AC0AAC080917D
:1029B000D30510C09091F5058091F405981770F536
:1029C000E091F50581E08E0F8093F505F0E0EC5283
:1029D000FA4F80818093BB0085EC86C08093F6051A
:1029E0008EC0E091F50581E08E0F8093F505809112
:1029F000BB00F0E0EC52FA4F80839091F505809196
:102A0000F4056EC0E091F50581E08E0F8093F50529
:102A10008091BB00F0E0EC52FA4F80838091F70583
:102A200081116DC081E08093D20584EA61C083E0AA
:102A30008093F8051092AD07CFCF8091AD0780321B
:102A400008F051C0E091AD0781E08E0F8093AD0793
:102A50008091BB00F0E0E357F84F8083BDCF85EC59
:102A60008093BC001092F8058091AD07803230F45D
:102A7000E091AD07F0E0E357F84F10826091AD07A9
:102A800070E0E0918B07F0918C078DE897E0099555
:102A90001092AD0736C084E08093F80510928A0743
:102AA00010928907E0918707F09188070995809136
:102AB0008907811105C081E080938907109267071B
:102AC000E0918A0781E08E0F80938A07F0E0E95950
:102AD000F84F80818093BB0090918A07809189078D
:102AE000981708F479CF85E88093BC000AC085EC7C
:102AF0008093BC001092F80504C01092F6050E9465
:102B0000EF12FF91EF91BF91AF919F918F917F91C4
:102B10006F915F914F913F912F910F900FBE0F904A
:102B20001F90189580915F0781110DC082E08093FE
:102B30005B0784E080935C0710925E0710925D074C
:102B400081E080935F078BE597E0089590E0FC01BA
:102B50003197EF30F105B0F5EA5AFF4F0C94B11FF1
:102B6000809180008F7703C0809180008F7D80935B
:102B70008000089580918000877FF9CF84B58F779A
:102B800002C084B58F7D84BD0895809190008F77B9
:102B900007C0809190008F7D03C080919000877F57
:102BA0008093900008958091C0008F7703C080913A
:102BB000C0008F7D8093C00008958091C200877F00
:102BC0008093C20008951F93CF93DF93282F30E0A6
:102BD000F901EE54FE4F8491F901E958FE4FD4916A
:102BE000F901E85AFE4FC491CC23C9F0162F811188
:102BF0000E94A615EC2FF0E0EE0FFF1FEC55FE4FE4
:102C0000A591B4918FB7F894111105C09C91ED2F47
:102C1000E095E92302C0EC91ED2BEC938FBFDF919F
:102C2000CF911F910895CF93DF9390E0FC01E95875
:102C3000FE4F2491FC01E85AFE4F8491882361F1F4
:102C400090E0880F991FFC01EA56FE4FC591D49180
:102C5000FC01EC55FE4FA591B491611109C09FB7DD
:102C6000F8948881209582238883EC912E230BC0D1
:102C7000623061F49FB7F8943881822F8095832366
:102C80008883EC912E2B2C939FBF06C08FB7F894AE
:102C9000E8812E2B28838FBFDF91CF9108958F92EB
:102CA0009F92AF92BF92CF92DF92EF92FF926B0111
:102CB0007C010E94AC134B015C01C114D104E104FE
:102CC000F104F1F00E94AC13DC01CB0188199909E1
:102CD000AA09BB09883E9340A105B10570F321E024
:102CE000C21AD108E108F10888EE880E83E0981E28
:102CF000A11CB11CC114D104E104F10419F7DDCF0A
:102D0000FF90EF90DF90CF90BF90AF909F908F900B
:102D100008952FB7F89460912E0770912F07809136
:102D20003007909131072FBF08951F920F920FB671
:102D30000F9211242F933F938F939F93AF93BF9341
:102D400080912E0790912F07A0913007B091310705
:102D50003091AE0723E0230F2D3720F40196A11DFB
:102D6000B11D05C026E8230F0296A11DB11D2093B9
:102D7000AE0780932E0790932F07A0933007B09350
:102D800031078091320790913307A0913407B091B9
:102D900035070196A11DB11D80933207909333072B
:102DA000A0933407B0933507BF91AF919F918F9156
:102DB0003F912F910F900FBE0F901F901895CF93BA
:102DC000DF93CDB7DEB767970FB6F894DEBF0FBEBF
:102DD000CDBF789484B5826084BD84B5816084BDA4
:102DE00085B5826085BD85B5816085BD80916E00A9
:102DF000816080936E0010928100809181008260DA
:102E00008093810080918100816080938100809116
:102E10008000816080938000809191008260809327
:102E20009100809191008160809391008091900049
:102E30008160809390008091C10084608093C10084
:102E40008091C10082608093C1008091C100816047
:102E50008093C1008091C30081608093C300809102
:102E6000C00082608093C0008091C2008160809326
:102E7000C20080917A00846080937A0080917A0009
:102E8000826080937A0080917A00816080937A00DA
:102E900080917A00806880937A001092590710928E
:102EA0008E0510928D058091D70081608093D700A8
:102EB00080EA8093D80089B5806189BD89B5826038
:102EC00089BD09B400FEFDCF61E070E080E090E0D4
:102ED0000E944F168091D8008F7C80618093D8002B
:102EE0008091E000807F8093E0008091E1008E7E01
:102EF0008093E1008DE08093E200559A209AEEEFF6
:102F0000FFE7859194918B3F9C4D19F481E080936C
:102F10008C058FEF9FEF9093DC068093DB0610917A
:102F200007016AE070E080E090E00E944F161123F4
:102F3000B1F383EF91E00E9439114AE060E476E951
:102F400081E090E00E94E61087E092E00E94CE10BF
:102F50008AE092E00E94391180E090E00E94A02275
:102F60000E941F128FE8E4E3F6E0DF011D928A95CC
:102F7000E9F761E085E00E941316ECE7F1E02491A7
:102F8000EDE5F1E0E491F0E0EE0FFF1FEC55FE4FB0
:102F90004591549180E091E031E0291741F08F5F35
:102FA000932F082E01C0990F0A94EAF7F6CF509399
:102FB0002F0640932E0680932D0684E396E090938F
:102FC0002606809325065498E0912E06F0912F0650
:102FD000208181E090E000902D0602C0880F991FAB
:102FE0000A94E2F78095822380831092800081E02A
:102FF0008093810010923106B59A80916F008062B3
:1030000080936F0080918100887F81608093810030
:103010008BE192E00E9439114AE068E170E080E0C3
:1030200090E00E94E61087E092E00E94CE1085E0DA
:1030300090E00E94A0228093C105F12C8091C105EF
:10304000F81608F053C2CF2CD12CC601885F9F4FD1
:103050000E94A022282FB4E1BC9D8001BD9D100DCF
:103060001124C801815E9F4F2F8B0E94A822E82E59
:10307000C8018F5D9F4F0E94A8221C012F89822FBB
:103080000E941F12F601EE0FFF1FFA8BE98B2F89AA
:10309000233009F426C108F070C0213009F4E5C0DE
:1030A000223009F0FAC1C8018D5D9F4F0E94A8220D
:1030B0003C01C8018B5D9F4F0E94A8229C01C80162
:1030C000895D9F4F2F8B3E8B0E94A8224C01C80127
:1030D000835D9F4F0E94A8222C01C801815D9F4FF4
:1030E0000E94A8225C01C8018F5C9F4F0E94A82209
:1030F000482F8BE190E04D8B0E9473216C01DC0125
:103100001596FC9215971296EC92129714963C9293
:103110002E921397EEE7F1E01196FC93EE93199639
:103120007C926E9218972F893E8917963C932E9326
:1031300016971B969C928E921A974D891C964C93CB
:103140001C9753967C926E92529755967C926E92F3
:1031500054971E965C924E921D975096BC92AE92DA
:103160001F9757961C921E92569758961C925897E6
:103170005A961C921E92599780C1253009F40CC1B1
:1031800008F4E4C0263609F088C1C8018D5D9F4F60
:103190000E94A8223C01C8018B5D9F4F0E94A8227B
:1031A0009C8B8B8BC801895D9F4F0E94A8224C018C
:1031B000C801835D9F4F0E94A8222C01C801815D38
:1031C0009F4F0E94A8225C01C8018F5C9F4F0E9404
:1031D000A822282F8DE190E02F8B0E9473216C0193
:1031E000FC01F582E28234822382938682862F89D3
:1031F0002487738A628A758A648A56864586B08A6D
:10320000A786178A168A108E128E118E28E931E051
:10321000318320838DE297E0948F838FB30180E028
:1032200090E00E9458202FE335E342E850E40E94EA
:10323000B71F0E942920D60119967C936E93189788
:10324000EB89FC89BF0180E090E00E9458202FE3C9
:1032500035E342E850E40E94B71F0E942920D601BE
:1032600017967C936E93169708C1C8018D5D9F4F8A
:103270000E94A8228170D82EC8018B5D9F4F0E94AA
:10328000A8228C018BE090E00E9473215C01DC019C
:103290001596FC9215971296EC92129714963C9202
:1032A0002E921397E6E1F1E01196FC93EE93FFEF77
:1032B000EF1203C02EEF12962C9362E0D501129606
:1032C0008C910E941316F501168281E08783D286C5
:1032D00011870087E989FA89E157FA4FB182A08204
:1032E000EFC0C8018D5D9F4F0E94A822D82E8AE0B2
:1032F00090E00E9473218C01DC011596FC921597D9
:103300001296EC92129714963C922E921397E0E349
:10331000F1E0ED93FC9361E08E2D0E941316D8012D
:1033200016961C9260E0C8010E9411038D2D8170D9
:10333000F80187831186D1FADD24D0F8D086E98997
:10334000FA89E157FA4F11830083BAC0C8018D5D35
:103350009F4F0E94A822C82EC8018B5D9F4F0E94DC
:10336000A822D82EC801895D9F4F0E94A8228C01F7
:1033700083E190E00E947321FC01F582E2823482B5
:1033800023822AE431E031832083C782D0861287EA
:103390000187108A17868EC0C8018D5D9F4F0E94DD
:1033A000A8222C01C8018B5D9F4F0E94A8223C01DE
:1033B000C801875D9F4F0E94A8224C01C801855D0E
:1033C0009F4F0E94A8225C0183E190E00E9473213C
:1033D0006C01DC011596FC9215971296EC921297EF
:1033E00014963C922E921397E4E6F1E01196FC932A
:1033F000EE9317965C924E92169719967C926E9267
:1034000018971B969C928E921A971D96BC92AE921C
:103410001C9761E08E2D0E94131661E0D60116966E
:103420008C910E9413168AE292E00E9439116AE0A0
:1034300070E0F60182810E94321284ED92E00E94D7
:103440003911D60116968D919C9117970E942711DC
:10345000E989FA89E157FA4FD182C082C801895DB2
:103460009F4F0E94A822D601ED91FC910288F3891A
:10347000E02DBC01C601099523C0E989FA89E1570D
:10348000FA4FD182C082C801855D9F4F0E94A82259
:10349000BC01C6010E94330113C086E090E00E9487
:1034A0007321FC0122EB31E031832083F582E2823B
:1034B00034822382A989BA89A157BA4FED93FC932C
:1034C00080E492E00E9439118F2D0E941F12E98939
:1034D000FA89E157FA4F80819181DC01ED91FC91ED
:1034E0000480F581E02D0995F394A8CD80912C07F7
:1034F000811168C00E94E811882309F463C060E06C
:1035000080EF0E94981101E0F12CE12C11E00E9463
:1035100041118D8B0E9441119D89913019F48130A8
:10352000C1F435C02F2D30E098131DC080912A07BB
:10353000181738F4F901E15EF84F8381802349F4CC
:1035400002C0181731F090E0193060F410932B0787
:1035500009C0EF2DF0E0E15EF84F8381802B83837B
:1035600091E009C0E12EF901E15EF84F2381802F3F
:10357000809582238383892F0E9466111F5F000F2D
:1035800011F4F39401E0B7E0BF1508F0C0CF113497
:10359000C8F0E0922A07E11003C081E080932C0775
:1035A00080912207882371F0A2E2B7E08DE1E82E36
:1035B00086E0F82EF7018D91819326E0E532F2073F
:1035C000D1F717C010922A0710922C0710922B07E0
:1035D000EAE2F7E0129237E0E232F307D9F7EDE1E1
:1035E000F6E087E08E0F11928E13FDCF86E492E015
:1035F00016C088E992E00E94391110E06AE070E09C
:10360000812F0E94321260E170E0D7018D917D011F
:103610000E9432121F5F173089F78CE892E00E94F7
:10362000D11310925707109256071092FA05109274
:103630001C061092F80511E01093F7051092D205C0
:1036400061E082E00E94E31561E083E00E94E315FF
:103650008091B9008E7F8093B9008091B9008D7FF1
:103660008093B90088E48093B80085E48093BC001F
:1036700060E080E00E94D41280912D071093F9053C
:1036800080931B061092FA0510921C0660E083ECF2
:1036900096E00E947D1381E00E94771280912D07B1
:1036A0009091F8059111FCCF91E09093F8059093DB
:1036B000F7052FEF2093F6051092F5051092F4050B
:1036C0009093D3059091D305880F892B8093D305D0
:1036D0008091D205813061F41092D2058091D3059A
:1036E0008093BB008091BC0083FDF8CF85EC01C0C6
:1036F00085EE8093BC008091F8058130E1F38091E4
:10370000F505811103C08091F50501C081E0A4EDAC
:10371000B5E026E337E0F9019E2F921B981718F4C5
:103720009D919193F9CF109257078093560783ECA0
:1037300096E00E943113182F682F6F76606180E049
:103740000E94D41260E68EEF0E94D412612F80E0B6
:103750000E94D41265E070E080E090E00E944F1675
:10376000612F616A80E00E94D41260E084E10E94CF
:1037700013168FE592E00E9439110E94E6070E941D
:10378000271160E0462E60E0562E70E0A72E70E014
:10379000B72EE0E08E2EE0E09E2EF0E06F2EF0E0FF
:1037A0007F2EFF24FA9450E0252E50E0352E109203
:1037B000C20510E08091C105181708F04AC0E12F3A
:1037C000F0E0EE0FFF1FE157FA4F80819181DC019D
:1037D000ED91FC910088F189E02D09951F5FEACFFA
:1037E000E82FF0E0EC5CF94F108117FF3BC090919F
:1037F000B606981751F02091BB063091BC062F5F9A
:103800003F4F3093BC062093BB068093B606F092E0
:10381000B706812F8076803619F182958F708E5F82
:103820008093B8068111C2C19091B5069F5F9093B5
:10383000B5068091B606392F381B97FD1092B50654
:103840009091B8062091B706391799F01227109376
:10385000B7068091B5069091B4068913C1CF2BC0ED
:1038600080E0DECF8091B8068111DECF1093B806DC
:103870009DC121130EC090E08C5C994F4091B90618
:103880005091BA064F5F5F4F5093BA064093B90606
:103890000BC08091BB069091BC0601969093BC062C
:1038A0008093BB0680E090E03091B5063093B60679
:1038B000009761F202C080E090E09093C005809391
:1038C000BF05892B09F46AC18CE892E00E94391186
:1038D000E091BF05F091C00521816281962F9F7014
:1038E00030E8939FA0011124422B3081323BE9F054
:1038F000DA011196313B09F442C040F4333841F10A
:10390000303BB1F1323809F0C6C029C03C3B09F464
:103910004EC020F4343B09F4BBC0BDC03D3B09F4AC
:103920003DC1303D09F44EC0B6C065FD03C081E025
:1039300090E002C082E090E04114510409F42EC1ED
:10394000440F551F6071840F951F0E94000026C10F
:1039500080E090E0892B09F421C181E006C080E07D
:1039600090E0892B09F41AC180E00E94000016C182
:10397000462F40726071CD010E9491060FC166FF13
:103980000BC08114910409F409C1462F4072607183
:10399000CD010E94000002C1A114B10409F4FEC0CF
:1039A000462F40716072CD010E940000F7C0611483
:1039B000710409F4F3C0462F40726071CD010E947A
:1039C0000000ECC0822F8076803219F1803619F029
:1039D0008111E4C01EC080E090E0892B09F4DEC0B4
:1039E000E3808E2D807D803109F0D8C0D48011E035
:1039F00001E041E0802F8E2109F040E0202F2D21B1
:103A0000000F612F80E80E9400001F5F153089F7CA
:103A1000C5C02114310409F4C1C0A22FAF7140E820
:103A2000A49FD0011124A60FB11D25FB222720F948
:103A300011968381448150E08D3729F0E0E88E9F14
:103A4000400D511D1124992381F0923081F0943062
:103A500081F0963081F0983081F09A3081F09C307E
:103A600081F09E3081F0692F0FC061E40DC062E4E7
:103A70000BC063E409C064E407C065E405C066E404
:103A800003C067E401C068E4CD010E94000086C065
:103A90002C3309F483C08EE992E00E9439118091A1
:103AA000BF059091C0050E946D120091BF05109155
:103AB000C00584EA92E00E9439116AE070E0F801E2
:103AC00080810E94321285ED92E00E94391160E1FE
:103AD00070E0D80111968C910E94321285ED92E02F
:103AE0000E94391160E170E0F80182810E94321277
:103AF00085ED92E00E94391160E170E0D8011396E3
:103B00008C910E94321285ED92E00E94391160E1A1
:103B100070E0F80184810E94321285ED92E00E94EB
:103B2000391160E170E0D80115968C910E94321233
:103B300085ED92E00E94391160E170E0F801868124
:103B40000E94321285ED92E00E9439116801F7E07F
:103B5000CF0ED11C015F1F4F60E170E0D6018D9147
:103B60006D010E94321285ED92E00E943911C0165B
:103B7000D10691F788E092E00E94CE10C090BF0578
:103B8000D090C005F6018081853E09F458C08D3E75
:103B900009F455C08EE892E00E94391180E090E06F
:103BA000892B09F404CE0E940000FBCD2091B606BB
:103BB0008091B80690E0820F911D813891050CF438
:103BC00033CE30E8C32EC21AF8944091B4068091E7
:103BD000B506841730F48091B606B42FB81B8B2F2E
:103BE00002C08C2D840F8093B40678948091B50622
:103BF000481780F4D12C50E064E376E0C6018C5C79
:103C0000994F0E9458216091B60670E06C5C794F24
:103C1000A60107C06091B606461B50E070E06C5CE0
:103C2000794F84E396E00E9458218091B5069091E7
:103C3000B606891B8093B5061092B606F5CD85E7CA
:103C400092E00E94D113D60111968C9111978F307A
:103C500009F0A0CF13968C911397853009F09ACF75
:103C600014968C911497811195CF16966C91F6014C
:103C70003796A601425F5F4F21E0CF01322F3623F6
:103C800019F0308130683083220F3196E417F50740
:103C9000A9F7F60116822581203209F482C021326B
:103CA00009F078CF0780F085E02DEF3F2FEFF20786
:103CB000F9F4D60119962D913C911A97232BC1F452
:103CC0001B962D913C911C972F3F3F4F89F4B601D5
:103CD000655F7F4F0E94EE058F3709F05BCFF601DD
:103CE0000385148547815085E12C20E030E01FC01A
:103CF000D6011D962C911D9721111FC01B964D9129
:103D00005C911C9719966D917C911A979601255F8D
:103D10003F4FCF010E9420088F3709F04BC0F601BA
:103D2000038514852185328547815085E12C628188
:103D3000CE0101960E94DF1346C027FF21C026FD59
:103D40001FC0B601655F7F4F0E944C068F37C1F4DC
:103D5000F601038514854781508590E8E92E20E01F
:103D600030E06281CE0101960E94DF136AE070E0CC
:103D700080E090E00E944F16CE0101960E94D10F84
:103D8000D6011D968C911D9786FF04CF1B966D91D1
:103D90007C911C9717968D919C9118970E941806FC
:103DA000F9CEF601438554856185728587819085BA
:103DB0000E943D0787FDEECED6019C919F7724EBB4
:103DC00029839A838B83CE0101960E94D10FE2CE84
:103DD000CF92DF92EF92FF920F931F93CF93DF93D7
:103DE0001F92CDB7DEB7182F062FE42E862F880F2F
:103DF0008E5F99830E94A60983E00E94A609F12E96
:103E0000C12E9981D92E8C2D8F19801798F4F60127
:103E1000E7FE02C0849101C080810E94A609182F8C
:103E200080E00E94A6098123FFEFCF1ADF0A8111EB
:103E3000EACF01C081E00F90DF91CF911F910F91E8
:103E4000FF90EF90DF90CF9008951092C6061092E9
:103E5000C50688EE93E0A0E0B0E08093C70690939B
:103E6000C806A093C906B093CA0623ED31E030938B
:103E7000C4062093C3061092D2061092D1068093F6
:103E8000D3069093D406A093D506B093D60685EEBC
:103E900091E09093D0068093CF068FEF9FEF9093A1
:103EA000DC068093DB0680E480932D0760E085E1EB
:103EB0000E941316ECE8F1E0E491E0931F07EDE6B1
:103EC000F1E0E491F0E0EE0FFF1FE65BFE4F85911D
:103ED0009491909321078093200710922A071092C3
:103EE0002C0710922B07EAE2F7E0129287E0E23209
:103EF000F807D9F70895AA1BBB1B51E107C0AA1FF9
:103F0000BB1FA617B70710F0A61BB70B881F991F7A
:103F10005A95A9F780959095BC01CD010895A1E22D
:103F20001A2EAA1BBB1BFD010DC0AA1FBB1FEE1F33
:103F3000FF1FA217B307E407F50720F0A21BB30B7E
:103F4000E40BF50B661F771F881F991F1A9469F7FA
:103F500060957095809590959B01AC01BD01CF0156
:103F60000895EE0FFF1F0590F491E02D09940E9433
:103F7000CB1F0C94AC200E94A52058F00E949E20DC
:103F800040F029F45F3F29F00C94952051110C94D6
:103F9000E0200C949B200E94BD2068F39923B1F38C
:103FA000552391F3951B550BBB27AA27621773075F
:103FB000840738F09F5F5F4F220F331F441FAA1FF3
:103FC000A9F335D00E2E3AF0E0E832D091505040AF
:103FD000E695001CCAF72BD0FE2F29D0660F771F5D
:103FE000881FBB1F261737074807AB07B0E809F043
:103FF000BB0B802DBF01FF2793585F4F3AF09E3FC8
:10400000510578F00C9495200C94E0205F3FE4F388
:10401000983ED4F3869577956795B795F7959F5F0A
:10402000C9F7880F911D9695879597F90895E1E056
:10403000660F771F881FBB1F621773078407BA07B5
:1040400020F0621B730B840BBA0BEE1F88F7E09510
:1040500008950E94C52088F09F5798F0B92F99279E
:10406000B751B0F0E1F0660F771F881F991F1AF063
:10407000BA95C9F714C0B13091F00E94DF20B1E0C9
:1040800008950C94DF20672F782F8827B85F39F0C8
:10409000B93FCCF3869577956795B395D9F73EF4FC
:1040A00090958095709561957F4F8F4F9F4F0895A4
:1040B000E89409C097FB3EF49095809570956195C2
:1040C0007F4F8F4F9F4F9923A9F0F92F96E9BB2778
:1040D0009395F695879577956795B795F111F8CFF4
:1040E000FAF4BB0F11F460FF1BC06F5F7F4F8F4F5F
:1040F0009F4F16C0882311F096E911C0772321F055
:104100009EE8872F762F05C0662371F096E8862FEC
:1041100070E060E02AF09A95660F771F881FDAF743
:10412000880F9695879597F9089597F99F6780E886
:1041300070E060E008959FEF80EC089500240A94F9
:104140001616170618060906089500240A94121672
:104150001306140605060895092E0394000C11F4A5
:10416000882352F0BB0F40F4BF2B11F460FF04C052
:104170006F5F7F4F8F4F9F4F089557FD9058440FAB
:10418000551F59F05F3F71F04795880F97FB991FB6
:1041900061F09F3F79F08795089512161306140673
:1041A000551FF2CF4695F1DF08C016161706180600
:1041B000991FF1CF86957105610508940895E894DB
:1041C000BB2766277727CB0197F908950E94F9202E
:1041D0000C94AC200E949E2038F00E94A52020F074
:1041E000952311F00C9495200C949B2011240C9491
:1041F000E0200E94BD2070F3959FC1F3950F50E021
:10420000551F629FF001729FBB27F00DB11D639F88
:10421000AA27F00DB11DAA1F649F6627B00DA11D2E
:10422000661F829F2227B00DA11D621F739FB00DD4
:10423000A11D621F839FA00D611D221F749F332744
:10424000A00D611D231F849F600D211D822F762FDD
:104250006A2F11249F5750409AF0F1F088234AF0BA
:10426000EE0FFF1FBB1F661F771F881F9150504026
:10427000A9F79E3F510580F00C9495200C94E02006
:104280005F3FE4F3983ED4F3869577956795B795AD
:10429000F795E7959F5FC1F7FE2B880F911D9695C7
:1042A000879597F9089581E090E0F8940C94D122D5
:1042B0006817790768F4FB01DC01E40FF51FA40F10
:1042C000B51F02C002900E9241505040D8F7089599
:1042D0000C946A21FB01DC0102C001900D92415057
:1042E0005040D8F70895CF93DF938230910510F4B2
:1042F00082E090E0E091B107F091B20720E030E079
:10430000C0E0D0E0309711F1408151814817590742
:10431000C0F04817590761F482819381209719F002
:104320009B838A832BC09093B2078093B10726C0EA
:104330002115310519F04217530718F49A01BE01EF
:10434000DF01EF010280F381E02DDCCF2115310583
:1043500009F1281B390B2430310590F412968D9108
:104360009C9113976115710521F0FB019383828362
:1043700004C09093B2078093B107FD01329644C008
:10438000FD01E20FF31F81939193225031092D9388
:104390003C933AC02091AF073091B007232B41F4F2
:1043A00020910E0130910F013093B0072093AF0799
:1043B00020910C0130910D012115310541F42DB7EB
:1043C0003EB74091100150911101241B350BE09133
:1043D000AF07F091B007E217F307A0F42E1B3F0BD5
:1043E0002817390778F0AC014E5F5F4F2417350767
:1043F00048F04E0F5F1F5093B0074093AF07819373
:10440000919302C0E0E0F0E0CF01DF91CF910895F9
:104410000F931F93CF93DF93009709F48CC0FC0197
:104420003297138212820091B1071091B2070115E1
:10443000110581F420813181820F931F2091AF07F4
:104440003091B0072817390779F5F093B007E0935A
:10445000AF0771C0D80140E050E0AE17BF0750F47D
:1044600012962D913C911397AD012115310509F15B
:10447000D901F3CF9D01DA013383228360817181F9
:10448000860F971F8217930769F4EC012881398101
:10449000260F371F2E5F3F4F318320838A819B81F8
:1044A00093838283452B29F4F093B207E093B107FD
:1044B00042C01396FC93EE931297ED0149915991E6
:1044C0009E01240F351FE217F30771F4808191815B
:1044D000840F951F029611969C938E9382819381EF
:1044E00013969C938E931297E0E0F0E0D801129619
:1044F0008D919C911397009719F0F8018C01F6CFDC
:104500008D919C9198012E5F3F4F820F931F2091B8
:10451000AF073091B0072817390769F4309729F4AD
:104520001092B2071092B10702C013821282109348
:10453000B0070093AF07DF91CF911F910F910895BE
:10454000F999FECF92BD81BDF89A992780B508955B
:10455000A8E1B0E042E050E00C94C322262FF99984
:10456000FECF1FBA92BD81BD20BD0FB6F894FA9A56
:10457000F99A0FBE019608950E94AE22272F0C943F
:10458000AF22DC01CB01FC01F999FECF06C0F2BDE0
:10459000E1BDF89A319600B40D9241505040B8F701
:0645A0000895F894FFCF1E
:1045A60000E1000000000000FFFFFFFF0000B3076E
:1045B600800000000000AC078F0191038B015E01B3
:1045C600890188018701F904840181010000000046
:1045D600E507930177032401350311038801870159
:1045E60031018401810100000000AD079101AB019A
:1045F6001301D9028901880187019E028401810184
:1046060000000000C107CA071D028B015C04890176
:104616008801A00105048401810100000000AE07A5
:10462600B707D2015101CB048901880195014F01D9
:1046360033014B0100000000D407DB075302510190
:10464600CB048901880195014F0533014B01000018
:104656000000A5098D018C018B018A018901880161
:10466600870185018401810100C18081000000006D
:104676000000007D134D136F0A21134513311322D9
:104686001300000000330AA60A2B0B490A540A53EA
:104696000B2F0B556E6976657273616C20646563CA
:1046A6006F6465722076000D0A004D6F64756C6547
:1046B60020616464726573733A20004D617820232B
:1046C600206F662070696E733A0053657474696E64
:1046D600672070696E4D6F646573206F663A2000BF
:1046E60050696E2023004E6F206473313873323068
:1046F60020666F756E6420666F72205549440050BF
:104706006F77657220766F6C7461676520696E20BD
:104716006D563A2000506F737369626C7920612080
:104726004C4E4356206D6573736167652E00456E6A
:1047360064204C6F6F700A005549443A20004C6F54
:104746006F70200020504B543A20005374726169F8
:10475600676874005468726F776E004475616C20E8
:10476600616374696F6E20736C6F742C206164646E
:10477600726573732C200054726967676572696E7F
:104786006720736C6F74730041726475696E6F2075
:1047960050696E3A20002053747261696768743AF2
:1047A6002000205475726E6F75743A2000204164A3
:1047B60064726573733A20002053706565643A200D
:1047C6000020466565646261636B20736C6F7420BC
:1047D600313A200020466565646261636B20736C24
:1047E6006F7420323A200020506F77657220736C08
:1047F6006F743A2000537472616967687420506957
:104806006E3A2000205475726E6F75742050696E72
:104816003A2000204475726174696F6E3A20005028
:104826004341393638352050696E3A20004F757449
:104836007075742070696E200020746F2073746127
:1048460074653A20004163633A200020666F726304
:10485600655F6F6E3A2000496E7075742070696EE0
:104866002000206F6E2000207265706F7274696E72
:104876006720696E766572736520005265706F7287
:1048860074696E6720736C6F7420002053746174B2
:10489600653A20004465656E657267697A6500450C
:1048A6006E657267697A6500537461746520706914
:1048B6006E2000206368616E67656420746F200057
:1048C6004D6F76696E6720746F004174746163681A
:1048D600656420210A00446973636F7665723A2025
:1048E600006E6F746966794C4E435670726F6772CC
:1048F600616D6D696E6753746F702000456E64203C
:1049060050726F6772616D696E67204D6F64652EB8
:104916000A0057726F6E67204172746E722E0A001B
:1049260057726F6E67204D6F64756C6520416464C5
:10493600726573732E0A0049676E6F72696E67201F
:10494600526571756573742E0A0050726F677261D5
:104956006D6D696E67207374617274656400436C73
:104966006F736564004F6E004F6666005377697417
:10497600636820526571756573743A2000202D2096
:10498600005468726F776E207377697463683A2093
:104996000020746F203A00456E746572206E6F7445
:1049A6006966794C4E435677726974652800290A00
:1049B600004172746E7220496E76616C69642E0ACB
:1049C6000044657374727563746F7221004D61677C
:1049D6006E65742073776974636820646573747296
:1049E6007563746F7200456E746572206E6F7469BC
:1049F60066794C4E43567265616428000A456570B7
:104A0600726F6D20616464726573733A2000204C86
:104A16004E43562056616C75653A20004172744EBD
:0C4A26007220696E76616C69642E0A00D3
:00000001FF
