:100000000C94E9000C9411010C9411010C94110151
:100010000C9411010C9411010C9411010C94110118
:100020000C9411010C9411010C942F030C94A10356
:100030000C9411010C9411010C9411010C941101F8
:100040000C945D070C94D1050C9411010C941101D2
:100050000C9411010C9411010C9411010C946D126B
:100060000C9411010C9411010C9411010C941101C8
:100070000C9411010C9411010C9411010C941101B8
:100080000C9411010C9411010C9411010C941101A8
:100090000C94180B0C9411010C9411010C94110187
:1000A0000C9411010C9411010C941101C611C91189
:1000B000B811BC11C211EA11EA11EA11CD11D11126
:1000C000D511DB11DF11EA11E511080B0002020264
:1000D00001000904000001020200000524001001D3
:1000E0000524010101042402060524060001070578
:1000F000810310004009040100020A000000070506
:1001000002024000000705830240000004030904C6
:1001100012010002EF0201404F1B03920001010295
:100120000301537061726B46756E00537061726BA0
:1001300046756E2050726F204D6963726F0000002B
:100140000000250028002B002E00310000000002D6
:1001500000090F0000030401000C00000000000073
:10016000000000000000000000000000000023006C
:10017000260029002C002F000404040404030405B5
:100180000202020204030202020206060606060634
:10019000040402020204040408020110408040101A
:1001A000204080408008020401804020100201109D
:1001B000801020404020070605040100080A0B0CAF
:1001C0000D0900000000240027002A002D00300047
:1001D000381A11241FBECFEFDAE0DEBFCDBF12E028
:1001E000A0E0B1E0E4E3FCE302C005900D92A6328A
:1001F000B107D9F724E0A6E2B2E001C01D92AD3408
:10020000B207E1F710E0C9EED0E004C02197FE018B
:100210000E94F81AC83ED107C9F70E94B7120C9481
:10022000181E0C94000040915F02509160022091D2
:100230005D0230915E0242175307B4F49091E800DA
:100240009570E1F39091E80092FD19C08093F10060
:1002500080915F029091600201968F739927892B9C
:1002600019F48EEF8093E80080915F029091600214
:1002700001969093600280935F0281E0089580E090
:100280000895DF92EF92FF920F931F93CF93DF9326
:10029000D82E8A017B01E40EF51EEB01CE15DF0599
:1002A00071F0D7FE03C0FE01849101C088810E94D5
:1002B000130121968111F2CF8FEF9FEF01C0C8018A
:1002C000DF91CF911F910F91FF90EF90DF900895F4
:1002D000615030F02091F100FC0120830196F8CFAD
:1002E000289884E6809384020895CF92DF92EF925B
:1002F000FF920F931F93CF93DF936C017A018B01D1
:10030000C0E0D0E0CE15DF0589F0D8016D918D01F8
:10031000D601ED91FC910190F081E02DC601099587
:10032000892B11F47E0102C02196ECCFC701DF9129
:10033000CF911F910F91FF90EF90DF90CF90089594
:10034000CF93DF931F92CDB7DEB76983DC01ED91C8
:10035000FC910280F381E02D41E050E0BE016F5F2F
:100360007F4F09950F90DF91CF91089583E080939F
:10037000E9008091F200882319F08AE38093E80075
:100380000895FC018485958597FD0BC09FB7F8946F
:1003900082E08093E9008091F2009FBF90E0019697
:1003A00008959FB7F89482E08093E9008091F2006D
:1003B0009FBF90E00895089580E090E00895DC01EB
:1003C000ED91FC91119761E01F962D913C91509712
:1003D000232B09F060E00084F185E02D41E00994D1
:1003E00008950E949A1C0F931F93CF93DF931F923F
:1003F000CDB7DEB782E0898342E450E06AEC70E07A
:1004000080E80E9441010E94460CDC0112960D9189
:100410001C9113970115110569F0D801ED91FC911C
:100420000280F381E02DBE016F5F7F4FC801099507
:1004300097FF07C089810F90DF91CF911F910F9196
:100440000895F80100851185E5CF8F929F92AF92B4
:10045000BF92CF92DF92EF92FF920F931F93CF93B1
:10046000DF935C016B017A0180910B01882309F411
:100470005BC080918502882309F456C080912702D1
:1004800080FF05C08091E00082608093E000E7017A
:1004900010E00AEF83E0882E9AE3992E2097D9F195
:1004A0000E94070B81110AC0015009F43DC061E0B0
:1004B00070E080E090E00E942712F0CF282F30E01B
:1004C000C217D3070CF48C2F4FB7F8948092E90031
:1004D0009091E80095FF1DC0282F30E0C21BD30B80
:1004E000F601982F915020F081918093F100FACF7E
:1004F000C20ED31E112319F09092E80009C080911A
:10050000E80085FD06C09092E80011E0209709F010
:1005100010E04FBFC3CF1111C3CF5D9884E6809325
:1005200061021E141F0444F081E090E0F501938302
:10053000828380E090E001C0C701DF91CF911F91DD
:100540000F91FF90EF90DF90CF90BF90AF909F9072
:100550008F9008950E94070B90E008950F931F93CA
:10056000CF93DF931F92CDB7DEB78C01FC0184855A
:10057000958597FF0EC0CE0101960E94DD0A019776
:1005800019F4298130E002C02FEF3FEFF8013587E1
:100590002487F801848595850F90DF91CF911F9175
:1005A0000F910895CF93DF931F92CDB7DEB7FC0173
:1005B0008485958597FD05C02FEF3FEF358724870C
:1005C0000BC0CE0101960E94DD0A019719F48981C2
:1005D00090E002C08FEF9FEF0F90DF91CF910895D1
:1005E0000C944F1D0C944F1D0F931F93CF93DF93CB
:1005F000FC0127853089232B51F1EC010E94611207
:100600000B851C852D853E85AB01BC01401B510B24
:10061000620B730B89859A85A0E0B0E0841795077B
:10062000A607B707B0F48A89882341F08F85988997
:10063000019721F4888561E070E003C08F8160E05C
:1006400070E090E00E94000F188A1F8602C080E0D0
:1006500001C081E0DF91CF911F910F9108951F920A
:100660000F920FB60F9211248F939F938091E10008
:100670009091E100937F9093E10083FF0FC010926F
:10068000E90091E09093EB001092EC0092E39093DC
:10069000ED001092850298E09093F00082FF20C058
:1006A00093E09093E9009091F200992319F09AE376
:1006B0009093E80090916102992339F09091610242
:1006C000915090936102992389F19091840299232A
:1006D00039F090918402915090938402992341F1D2
:1006E00084FF10C08091E2008E7E81608093E200E2
:1006F0008091E1008F7E8093E100809127028E7EC1
:10070000806111C080FF16C08091E2008E7E806102
:100710008093E2008091E1008E7E8093E1008091E1
:1007200027028E7E81608093270204C05D9ACDCF20
:10073000289AD6CF9F918F910F900FBE0F901F9048
:1007400018951F920F920FB60F921124CF92DF923D
:10075000EF92FF920F931F932F933F934F935F93CB
:100760006F937F938F939F93AF93BF93EF93FF9379
:10077000CF93DF93CDB7DEB76C97DEBFCDBF1092BE
:10078000E9008091E80083FFEDC168E0CE01459665
:100790000E94680182EF8093E8008D8987FF05C081
:1007A0009091E80090FFFCCF03C09EEF9093E8008B
:1007B000982F907609F0C6C09E892F89188D9111C7
:1007C0000CC0803829F4809128028093F10002C087
:1007D0001092F1001092F10048C1422F50E0512BCD
:1007E000913051F4811141C14130510509F03DC1B1
:1007F000809128028D7F0BC0933061F4811135C147
:100800004130510509F031C1809128028260809306
:1008100028022BC1953041F48091E80080FFFCCF85
:1008200020682093E30021C1963009F05FC0EB8C73
:10083000FC8C1092E9001092600210925F0212305C
:1008400091F510925E0210925D020E94F30199E010
:10085000BE016F5F7F4FDB01E92F1D92EA95E9F73B
:1008600099831A8391E09E8390EA98879AEF9987FB
:1008700020915F0230916002275F3F4F3C832B83C2
:100880008D831092E9001092600210925F02F09244
:100890005E02E0925D0249E050E080E00E9441018A
:1008A0000E94F301E2C0F0925E02E0925D020E94BB
:1008B000460CDC011296ED90FC901397E114F104C4
:1008C00009F4C0C0D701ED91FC910480F581E02DC1
:1008D000BE016B5E7F4FC7010995009719F00CF0C0
:1008E000C4C0C7C0F701E084F184E8CF973009F4B1
:1008F000C0C0983021F481E08093F100B6C09930F7
:1009000009F0B3C0837009F0B4C0E9ECF1E081E014
:1009100021E036E39081992361F08093E9002093F0
:10092000EB0091919093EC003093ED008F5F873056
:1009300089F78EE78093EA001092EA008F8980930E
:10094000850293C08B8D9C8D1092E90010926002FD
:1009500010925F0290935E0280935D02898D8111F7
:1009600056C08E899D89913A59F4813209F081C02F
:1009700047E050E064E071E080E00E94410175C012
:10098000913209F076C0833289F4888D90E0982FF7
:1009900088272F89822BA0E0B0E0809300019093FC
:1009A0000101A0930201B09303015FC0803269F49A
:1009B0008091E80082FFFCCF67E084E091E00E9434
:1009C00068018BEF8093E80006C0823209F04DC0C9
:1009D0008F8980930B0180912602882319F0EEEF16
:1009E000FAE002C0E0E0F8E0809104019091050196
:1009F000A0910601B0910701803B9440A105B1058B
:100A000009F07BC080910B0180FF93C076C00E94EB
:100A1000460CDC0112960D911C91139701151105DE
:100A200041F1D801ED91FC910190F081E02DBE01E2
:100A30006B5E7F4FC8010995811117C0F8010085D1
:100A40001185ECCF113009F44EC0133091F48F8929
:100A5000882309F445C0823081F440E862E18BE2EA
:100A600091E00E94FB19882321F08EEF8093E8002B
:100A700079C081E28093EB0075C0813029F440E8B1
:100A800068E082E291E0EDCF833099F70E94460C56
:100A9000DC011296ED90FC9013978E010F5F1F4FB3
:100AA0006801E114F10479F0D701ED91FC91068021
:100AB000F781E02DB801C7010995080F111DF70155
:100AC000E084F184EECFD8011C92F6010190002061
:100AD000E9F73197BF016C197D0940E0C601C1CF2C
:100AE0006CE071E002C060E171E06115710509F22E
:100AF000FB01449150E080E840CF0FB6F894A895F0
:100B000080916000886180936000109260000FBE49
:100B1000A895EE3F2AE0F20739F08091FE0A909105
:100B2000FF0A91838083A1CF1092FF0A1092FE0AE0
:100B30009CCFEE3F8AE0F80731F08081918190935D
:100B4000FF0A8093FE0A87E797E7918380839BE003
:100B500088E10FB6F894A895809360000FBE90933B
:100B6000600083CF6C960FB6F894DEBF0FBECDBF8A
:100B7000DF91CF91FF91EF91BF91AF919F918F91B5
:100B80007F916F915F914F913F912F911F910F91A5
:100B9000FF90EF90DF90CF900F900FBE0F901F90BF
:100BA00018951F920F920FB60F9211242F933F9317
:100BB0004F935F936F937F938F939F93AF93BF9365
:100BC000CF93DF93EF93FF938091C0029091C10286
:100BD00080549C4F9093C1028093C0028091C002C8
:100BE0009091C10290938900809388008091C50202
:100BF0008F5F8093C5028091C6028430E1F58091B9
:100C0000C502893078F48091BC0290E09595879573
:100C10008093BC024C9B3EC18091BC028068809353
:100C2000BC0238C1B59A80916F00806280936F00DA
:100C30008091BA029091BB024C9909C0FC01E9571E
:100C4000FF4F808191810196918380830FC04091F5
:100C5000BC02FC01E058FF4F308121E0230F2083CC
:100C6000DC01A30FB11D4C9327FD10821092C50229
:100C700081E08093C6028091C602833009F0B4C03F
:100C8000E091C302F091C40240812091C20299B167
:100C900050E0022E02C0559547950A94E2F7892F3D
:100CA00090E034E0959587953A95E1F7842795276C
:100CB00080FD04C01092C50282E094C08091C502FC
:100CC0008930F0F48091BC02308180FF09C081E05E
:100CD00090E001C0880F2A95EAF78095832307C02A
:100CE00081E090E001C0880F2A95EAF7832B80838A
:100CF0008091BC0290E0959587958093BC0274C06A
:100D00008091C502893059F4308181E090E001C0C2
:100D1000880F2A95EAF780958323808365C08091A8
:100D2000C7028F5F8093C7029091C802891748F568
:100D30001092C502A091BE02B091BF028091C7027D
:100D4000A80FB11D8C918093BC02308181E090E0AE
:100D500001C0880F2A95EAF7832B80838091840055
:100D6000909185008A5A9C4F9093C1028093C00253
:100D70008091C0029091C102909389008093880075
:100D800033C081E08093BD02E091BE02F091BF02CA
:100D90004091BA025091BB0280818076803611F476
:100DA000818105C08081807682958F708E5F20E082
:100DB00030E0DA01A058BF4F281788F4EF01C20FC6
:100DC000D31F78816C9191E0960F9C93EA01C60F36
:100DD000D11D788397FD1C922F5F3F4FEDCF10926E
:100DE000C50281E08093C6028091C6028230D1F5AF
:100DF0008091C502811111C0E091C302F091C4023B
:100E0000208181E090E00090C20202C0880F991F0B
:100E10000A94E2F7822B808325C08091C5028F302F
:100E200008F1E091C302F091C402208181E090E0DA
:100E30000090C20202C0880F991F0A94E2F78095C1
:100E4000822380831092C50281E08093C602E091E4
:100E5000BA02F091BB02E357FF4F80819181019666
:100E6000918380838091C6028130A1F48091C50274
:100E7000811105C0B59A80916F00806209C0809190
:100E8000C502883338F01092C60280916F008D7FC2
:100E900080936F00FF91EF91DF91CF91BF91AF9160
:100EA0009F918F917F916F915F914F913F912F9182
:100EB0000F900FBE0F901F9018951F920F920FB6B4
:100EC0000F9211248F939F93EF93FF93EFE6F0E03F
:100ED00080818F7D808380918600909187008056ED
:100EE0009A4F9093C1028093C0028091C00290916A
:100EF000C1029093890080938800B19A80818260BA
:100F0000808384E08093C6021092C502FF91EF9126
:100F10009F918F910F900FBE0F901F901895803268
:100F2000910510F4019708959C0120523109C901DF
:100F30006AE070E00E94C21A44E1649FC00111247B
:100F4000AC01415E5F4FC9017AE0679F801991094A
:100F50001124880F991F840F951F089508950895EF
:100F600085ED8093BC008091BC0084FDFCCF109285
:100F7000AC0208954091F103262F30E0240F311D7B
:100F800021323105DCF42091AC022430C9F4FC019B
:100F900080E090E0861758F43091F1032191DC0154
:100FA000A153BC4FA30FB11D2C930196F3CF809199
:100FB000F103680F6093F10380E0089581E00895E4
:100FC00082E008950895E091830280918202E817FB
:100FD00030F4F0E0EE59FD4F808190E008958FEFFE
:100FE0009FEF08959091830280918202981750F4A8
:100FF000E92FF0E0EE59FD4F208130E09F5F9093A4
:10100000830202C02FEF3FEFC90108958091820251
:1010100090E020918302821B91090895CF92DF9284
:10102000EF92FF920F931F93CF93DF937C01262FB4
:10103000972F8A018091AD02882391F0C62FD72F78
:101040006E01C40ED51ECC15DD0571F06991D70176
:10105000ED91FC910190F081E02DC7010995F3CF4E
:10106000642F822F0E94BA07C801DF91CF911F9190
:101070000F91FF90EF90DF90CF900895CF93DF9383
:101080001F92CDB7DEB769832091AD022223D1F044
:101090002091B002203240F021E030E0FC013383A7
:1010A000228380E090E015C08091AE02E82FF0E04E
:1010B000EA5EFB4F998190838F5F8093AE028093AD
:1010C000B00205C061E0CE0101960E94BA0781E03E
:1010D00090E00F90DF91CF910895CF93DF93FC01C3
:1010E00049E18EE261E070E0A3E051E0908190760A
:1010F000903611F4918105C09081907692959F7001
:101100009E5F9093C8029091C80291501092C702BE
:101110002FEF3091C702391768F43091C702EF0101
:10112000C30FD11D388123273091C7023F5F309311
:10113000C702EFCFEF01C90FD11D2883F89490911A
:10114000C602913059F49091C502981738F0109268
:10115000C60290916F009D7F90936F00789490915C
:10116000C602913039F49091C502943108F4BECF93
:1011700050E0BCCF9091C602911163C0F894909159
:101180006F009F7D90936F00B59B07C090916F009B
:10119000906290936F00789454C0C091C302D09134
:1011A000C40298819B010090C20202C0220F331F2B
:1011B0000A94E2F7292B288320918400309185003E
:1011C0002A5A3C4F3093C1022093C0022091C002A2
:1011D0003091C10230938900209388007894F09375
:1011E000BF02E093BE021092C7021092BD0290812E
:1011F0009093BC02A093C6021092C502B19A90913E
:101200006F00926090936F009091C6029330E1F36B
:101210009091BD02992371F0E091BA02F091BB0266
:10122000E757FF4F8081918101969183808383E00E
:1012300090E022C09091C602923031F025E030E07B
:1012400005C022E030E002C024E030E02230310569
:1012500011F451114ACF8B3108F08150415009F0FF
:1012600044CF809154039091550301969093550378
:101270008093540386E090E0DF91CF910895CF935F
:10128000DF93CDB7DEB760970FB6F894DEBF0FBE21
:10129000CDBFAC0141505109852F8F709A01369511
:1012A00027952F7740FD02C0806401C080666111E0
:1012B000806192EB99832A838B83CE0101960E94F1
:1012C0006D0860960FB6F894DEBF0FBECDBFDF91FC
:1012D000CF9108958091B403E091B503F091B603E6
:1012E000F8949181982B91832281982F90952923AE
:1012F0002283A7E0B0E01197F1F721819223918337
:10130000A3E2B0E01197F1F790817894EFECF0E070
:101310003197F1F7982381E009F480E008959091E6
:10132000B403E091B503F091B603392F309580FFF7
:1013300013C0F8942281832F822382838181892B99
:101340008183A3E2B0E01197F1F78281982B928319
:10135000789487ED90E012C0F8942281832F822345
:1013600082838181892B8183AFEFB0E01197F1F700
:101370008281982B928378948FE090E00197F1F727
:101380000895EF92FF920F931F93CF93DF931F92D5
:10139000CDB7DEB7082F88E0E82EF12C11E081E010
:1013A000912F902309F480E069830E948F09110F27
:1013B00081E0E81AF1086981E114F10481F7611113
:1013C00013C0F894E091B503F091B6039181809138
:1013D000B403809598239183E091B503F091B6030F
:1013E00092818923828378940F90DF91CF911F910E
:1013F0000F91FF90EF9008951F93CF93DF9360E0DC
:1014000085E50E94C109C1EBD2E01C2F185F60E0A6
:1014100089910E94C1091C13FACFDF91CF911F91CE
:1014200008959091B403E091B503F091B603F89458
:101430008181292F20958223818378948DE743E051
:1014400050E0815021F1DA011197F1F73081392311
:10145000C1F3F8948281822382838181892B8183E5
:101460007894ABE7B7E01197F1F7F89481812823DE
:101470002183A3E1B1E01197F1F78081982381E006
:1014800009F080E07894E3E6F6E03197F1F708950B
:10149000BC01009791F0FC0101900020E9F7319721
:1014A000AF01481B590BE0916403F0916503028082
:1014B000F381E02D84E693E0099480E090E00895C4
:1014C000382F2091B0029091AF02213208F049C02C
:1014D0008091AC028111FCCF42E04093AC0230938A
:1014E000AB023FEF3093AA021092A9022093A80208
:1014F000A6E1B4E048E852E0FA013E2F341B32176F
:1015000018F43D913193F9CF109287022091870210
:10151000990F922B9093870290918602913061F4FB
:1015200010928602909187029093BB009091BC002C
:1015300093FDF8CF95EC01C095EE9093BC0090918F
:10154000AC029230E1F39091AA029F3F79F0809132
:10155000AA02803241F08091AA02803331F084E007
:1015600005C081E003C082E001C083E01092AE02BA
:101570001092B0021092AD020895CF93C62F9091B1
:10158000C20321E02093AD029093AF021092AE020D
:101590001092B002682F88E593E00E943E086C2FFD
:1015A00088E593E00E943E0881E0CF910C94600AA8
:1015B000682F88E593E00C943E08FC018091850239
:1015C000811103C08FEF9FEF08959FB7F89482E0D9
:1015D0008093E9002091F20030E01216130614F413
:1015E00021E030E02115310559F0289884E68093F8
:1015F00084028091F10080838091F200882319F0A9
:101600009FBFC90108958BE68093E800F9CF2FB7FB
:10161000F89483E08093E9009091E800892F80722C
:1016200095FF04C09091F20080E4891B2FBF0895BC
:101630001F920F920FB60F9211242F933F934F9347
:101640005F936F937F938F939F93AF93BF93EF932A
:10165000FF938091B900887F803609F49CC068F5BB
:10166000883209F45BC090F4803109F454C038F436
:10167000882309F4F6C0883009F44DC0F6C08831DB
:1016800009F44CC0803209F45DC0EFC0803409F425
:1016900068C048F4803309F455C0883309F0E5C0C8
:1016A0008093AA02D8C0803509F44FC0883509F468
:1016B0005DC0883409F0D9C0D6C0883909F4C7C0E4
:1016C000A8F4883709F467C038F4883609F463C091
:1016D000803709F460C0C9C0883809F4B8C08039BF
:1016E00009F45FC0803809F0C0C05BC0803B09F4DA
:1016F00086C038F4803A09F466C0883A09F47FC09D
:10170000B4C0803C09F4A7C0883C09F4A4C0883B5D
:1017100009F48AC0AAC08091870210C09091A902E2
:101720008091A802981770F5E091A90281E08E0FD0
:101730008093A902F0E0E857FD4F80818093BB00C1
:1017400085EC86C08093AA028EC0E091A90281E058
:101750008E0F8093A9028091BB00F0E0E857FD4F07
:1017600080839091A9028091A8026EC0E091A902A5
:1017700081E08E0F8093A9028091BB00F0E0E857D2
:10178000FD4F80838091AB0281116DC081E0809319
:10179000860284EA61C083E08093AC021092150453
:1017A000CFCF80911504803208F051C0E09115042C
:1017B00081E08E0F809315048091BB00F0E0EB5028
:1017C000FC4F8083BDCF85EC8093BC001092AC02AF
:1017D00080911504803230F4E0911504F0E0EB5074
:1017E000FC4F10826091150470E0E091F303F091DA
:1017F000F40385EF93E009951092150436C084E058
:101800008093AC021092F2031092F103E091EF0387
:10181000F091F00309958091F103811105C081E0F9
:101820008093F1031092CF03E091F20381E08E0FD9
:101830008093F203F0E0E153FC4F80818093BB0082
:101840009091F2038091F103981708F479CF85E81D
:101850008093BC000AC085EC8093BC001092AC025F
:1018600004C01092AA020E94B007FF91EF91BF91AD
:10187000AF919F918F917F916F915F914F913F9128
:101880002F910F900FBE0F901F9018958091C70356
:1018900081110DC082E08093C30384E08093C40370
:1018A0001092C6031092C50381E08093C70383ECB6
:1018B00093E008951F93CF93DF93282F30E0F90131
:1018C000E45BFE4F8491F901E956FE4FD491F90192
:1018D000E858FE4FC491CC23C9F0162F81110E9405
:1018E000AE11EC2FF0E0EE0FFF1FE25CFE4FA59172
:1018F000B4918FB7F894111105C09C91ED2FE0952C
:10190000E92302C0EC91ED2BEC938FBFDF91CF91D7
:101910001F910895DC01ED91FC91119716966C9141
:1019200021E062270084F185E02D41E00994DC018B
:1019300017968C9117978823B1F019968C91199767
:10194000662311F08F5F01C0815019968C9319970F
:1019500019968C91199718162CF019961C921997B4
:1019600060E001C061E016966C931697ED91FC91D2
:1019700011970284F385E02DCD01099480E008954C
:101980000895FC0181E0672B09F480E0818B8823B6
:1019900019F08681978102C080859185958B848B13
:1019A00084899589938B828B178A168A128E118E61
:1019B0000895FC01818990E008950895089580E0DC
:1019C0000895DC01ED91FC91119751966C9121E005
:1019D00062270084F185E02D40E009940895089580
:1019E000FC01662319F091E09427978346830895BC
:1019F0000895089580E090E00895089580E00895A6
:101A0000089508950895089508950895FC01208586
:101A1000211161E0FC0182810C945A0C0C944F1D41
:101A20000C944F1D0C944F1D0C944F1D0C944F1D86
:101A3000009761F0880F991FFC01E75DFD4F019051
:101A4000F081E02D838194810C943F0908950F93D8
:101A50001F93CF93DF93FC01468557856089718979
:101A6000452B462B472BE1F1EC010E9461120E85BC
:101A70001F8528893989AB01BC01401B510B620BC2
:101A8000730B88859985A0E0B0E084179507A607B9
:101A9000B70740F51E861F86188A198A60E08A817A
:101AA0000E945A0C60E08E810E945A0C1A898A8525
:101AB0009B8511110BC061E070E00E94180D60E081
:101AC00070E08C859D850E94180D0DC060E070E06F
:101AD0000E94180D61E070E08C859D850E94180DB4
:101AE00010E001C011E0812FDF91CF911F910F9184
:101AF00008951F93CF93DF93EC01162F2A898A85CF
:101B00009B85211107C061E070E00E94180D60E024
:101B100070E006C060E070E00E94180D61E070E0C7
:101B20008C859D850E94180D1A8B0E9461126E870C
:101B30007F87888B998B61E08A810E94EB1161E03D
:101B40008E810E94EB1160E0112331F08E810E94A2
:101B50005A0C61E08A8105C08A810E945A0C61E0BA
:101B60008E81DF91CF911F910C945A0CCF93DF930C
:101B7000EC01298D3A8D8D859E852130310519F432
:101B800060E070E005C02989211107C061E070E0C4
:101B90000E94180D60E070E006C060E070E00E94F6
:101BA000180D61E070E08F859889DF91CF910C94DA
:101BB000180D0F931F93CF93DF93EC012A812223FB
:101BC00009F130E0F901E45BFE4F8491F901E95637
:101BD000FE4F0491F901E858FE4F1491112379F05A
:101BE00081110E94AE11E12FF0E0EE0FFF1FE659C8
:101BF000FE4FA591B491EC91E02381E009F480E0DF
:101C000081708E836E818F81681791F08B819C81AA
:101C10000E943F098A85882339F06E8181E0682718
:101C2000888599850E943F098E818F8381E001C05C
:101C300080E0DF91CF911F910F9108950F931F9333
:101C4000CF93DF93EC018B0180E090E00E94E71DD1
:101C5000282F30E0F8013183208381E197E29983D6
:101C600088838FE7DF91CF911F910F910895CF93D4
:101C7000DF9320913F04222381F08131974269F460
:101C8000EB0180E090E00E94E71D90E0C817D907C3
:101C900021F410923F040C940000DF91CF9108953D
:101CA0000F931F93CF93DF938C01EB0180E090E0C3
:101CB0000E94E71D282F30E0F80180819181813159
:101CC000974279F4888199818217930721F481E002
:101CD00080933F0404C0019621F4398328838FE761
:101CE00003C010923F048FEFDF91CF911F910F91AE
:101CF0000895CF92DF92EF92FF920F931F93CF93AD
:101D0000DF937C01D62EC42EC9E2D2E000E010E0C1
:101D1000A881B98113968D919C9114978E159F057A
:101D200041F5ED91FC91119741E0D11001C040E0E7
:101D300061E0C11001C060E00084F185E02DCD01BB
:101D4000099588819981DC01ED91FC910488F589E0
:101D5000E02D0995BC01C801855D9F4F0E94031EBF
:101D600088819981DC01ED91FC910684F785E02D55
:101D7000099522960C5E1F4F003EB1E01B0741F60D
:101D8000DF91CF911F910F91FF90EF90DF90CF9057
:101D90000895CF93DF9300D0CDB7DEB79B0160915C
:101DA0003F046623B9F081319742A1F4203481E0E9
:101DB000380790F4BA01C9012032310578F04A831E
:101DC00079830E948F076A817981805090400E94B8
:101DD000031E0CC08FEF0BC081E009C04A830E9434
:101DE0008F076A81805090400E94F51D8FE70F9009
:101DF0000F90DF91CF910895089508950895089563
:101E00009C012150310927313105A0F4880F991F19
:101E1000FC01E75DFD4F80819181DC01ED91FC913A
:101E200021E0672B09F420E00084F185E02D40E0FB
:101E3000622F099408950F931F93CF93DF93EC01C2
:101E40002989621759F18F859889892B39F5E62FF1
:101E5000F0E030E091E02E173F070CF090E0042F07
:101E6000162F9A8B992341F081E090E0988B8F8711
:101E70008F8161E070E007C081E090E0988B8F87F0
:101E8000888560E070E090E00E94000F0111198BDE
:101E90000E9461126B877C878D879E87DF91CF912F
:101EA0001F910F9108951F93CF93DF93EC01162F8D
:101EB000662319F08E819F8102C0888599859D8B4C
:101EC0008C8B4C895D892A893B898A859B85421741
:101ED000530718F49195819591099F8B8E8B8C8572
:101EE00061E070E090E00E94000FCE010E94B60D0C
:101EF000198B81E090E09A8F898FDF91CF911F91AC
:101F00000895EF92FF920F931F93CF93DF93EC010D
:101F1000E98CFA8C82E0E816F10431F10A891B8918
:101F20008C899D890817190721F0A801481B590BB6
:101F300002C040E050E02E893F89C90137FF04C04C
:101F400088279927821B930B4817590778F482E05A
:101F500090E09A8F898F8C8560E070E090E00E941D
:101F6000000FCE010E94B60D80E051C0888D8F5FBA
:101F7000888F91E0E916F10409F03FC08B3FD8F15A
:101F8000020F131F1B8B0A8B6A81EB8DFC8D8081E6
:101F900091E09093AD028093AF021092AE02109246
:101FA000B00284E0689FB00111246A5F7F4F88E52A
:101FB00093E00E943E0880E090E00E94D80A80E012
:101FC00090E00E94D80AC8010E94D80A812F90E0B0
:101FD0000E94D80A81E00E94600A188E8E899F892B
:101FE000892B49F42C893D898A899B8928173907CF
:101FF00011F4FF8AEE8A81E00AC0EF2809F0B4CF1D
:102000008B3F08F4B1CF81E090E09A8F898FDF9108
:10201000CF911F910F91FF90EF900895E8EBF1E0C1
:10202000E49120917B00E3FB882780F990E035E084
:10203000880F991F3A95E1F7922F9F7D892B809306
:102040007B00E770E064E0937C0080917A0080641C
:1020500080937A0080917A0086FDFCCF60917800B1
:102060008091790070E0782B80E090E00E949F1BC7
:102070002AE137E64CE950E40E942D1C20E030E0D4
:1020800040E551E40E942D1C0E94701BCB01089575
:102090009F92AF92BF92CF92DF92EF92FF920F93F7
:1020A0001F93CF93DF9300D0CDB7DEB740913F04AD
:1020B000442309F413C18131974209F00FC16530FF
:1020C000710521F488E190E0F90111C08901CB018B
:1020D0006034F1E07F0778F46032710508F402C1E2
:1020E0000E948F07805090400E94EF1DF80191835D
:1020F00080838FE7FFC06A3FF3E07F0709F048C0A5
:102100000E94110A0E94FC0961E084E40E94C10956
:1021100068EE73E080E090E00E9427120E94110AAE
:102120000E94FC0960E08EEB0E94C109E6E3EE2EFE
:10213000E4E0FE2EF9E09F2E9E0C78E0A72EB12C55
:10214000CC24C394D12C0E946A098111DC28CC0CC8
:1021500021E0A21AB108B9F7F701D1927F019E12CE
:10216000ECCF8091370490E0982F88272091360497
:10217000822B20913A04207611F4887FB7CF203249
:1021800011F48C7FB3CF203409F0B0CF8E7FAECF67
:102190006B3FF3E07F0759F48091B10290E0982FF4
:1021A0008827F901918380832091B2022CC06C3F73
:1021B000F3E07F0759F48091B30290E0982F8827CD
:1021C000F901918380832091B4021DC06D3FF3E03B
:1021D0007F0759F48091B50290E0982F8827F80185
:1021E000918380832091B6020EC06E3FF3E07F079B
:1021F00061F48091B70290E0982F8827F8019183CD
:1022000080832091B802822B72CF6F3FF3E07F076B
:1022100019F480E496E96ACF6115F4E07F0781F450
:102220008091490490914A04009711F48DE494E060
:102230009E012F5F3F4FA901481B590BCA0156CF82
:102240006130F4E07F0729F4809126029091270203
:102250004DCF6230F4E07F0729F480914D049091D6
:102260004E0444CF6330F4E07F0719F48DB79EB776
:102270003DCF9B01245034402530310548F5663070
:10228000F4E07F07B1F020F46530744069F007C0D6
:10229000673054E0750791F068307440A1F0809188
:1022A0004E0390914F0322CF8091500390915103A0
:1022B0001DCF809152039091530318CF8091540306
:1022C0009091550313CF80915603909157030ECFF1
:1022D0006A30744029F40E940E1008CF8FEF0AC0B4
:1022E00081E008C00E948F07805090400E94E71D47
:1022F00090E0FCCE0F900F90DF91CF911F910F9146
:10230000FF90EF90DF90CF90BF90AF909F90089597
:1023100008953FB7F8948091450490914604A091A8
:102320004704B091480426B5A89B05C02F3F19F07B
:102330000196A11DB11D3FBFBA2FA92F982F882745
:10234000820F911DA11DB11DBC01CD0142E0660FA0
:10235000771F881F991F4A95D1F7089590E0FC01D7
:102360003197EF30F105B0F5EA5AFF4F0C94F81AA7
:10237000809180008F7703C0809180008F7D809353
:102380008000089580918000877FF9CF84B58F7792
:1023900002C084B58F7D84BD0895809190008F77B1
:1023A00007C0809190008F7D03C080919000877F4F
:1023B0008093900008958091C0008F7703C0809132
:1023C000C0008F7D8093C00008958091C200877FF8
:1023D0008093C2000895CF93DF9390E0FC01E9560B
:1023E000FE4F2491FC01E858FE4F8491882361F14F
:1023F00090E0880F991FFC01EE53FE4FC591D491D8
:10240000FC01E25CFE4FA591B491611109C09FB738
:10241000F8948881209582238883EC912E230BC029
:10242000623061F49FB7F8943881822F80958323BE
:102430008883EC912E2B2C939FBF06C08FB7F89406
:10244000E8812E2B28838FBFDF91CF9108958F9243
:102450009F92AF92BF92CF92DF92EF92FF926B0169
:102460007C010E9489114B015C01C114D104E1047B
:10247000F104F1F00E948911DC01CB01881999095E
:10248000AA09BB09883E9340A105B10570F321E07C
:10249000C21AD108E108F10888EE880E83E0981E80
:1024A000A11CB11CC114D104E104F10419F7DDCF62
:1024B000FF90EF90DF90CF90BF90AF909F908F9064
:1024C00008952FB7F894609141047091420480916F
:1024D0004304909144042FBF08951F920F920FB6AA
:1024E0000F9211242F933F938F939F93AF93BF939A
:1024F0008091410490914204A0914304B09144041E
:102500003091400423E0230F2D3720F40196A11DC4
:10251000B11D05C026E8230F0296A11DB11D209311
:1025200040048093410490934204A0934304B093E9
:1025300044048091450490914604A0914704B091D1
:1025400048040196A11DB11D809345049093460453
:10255000A0934704B0934804BF91AF919F918F918E
:102560003F912F910F900FBE0F901F901895CF9312
:10257000DF93CDB7DEB7A8970FB6F894DEBF0FBED6
:10258000CDBF789484B5826084BD84B5816084BDFC
:1025900085B5826085BD85B5816085BD80916E0001
:1025A000816080936E001092810080918100826032
:1025B000809381008091810081608093810080916F
:1025C0008000816080938000809191008260809380
:1025D00091008091910081608093910080919000A2
:1025E0008160809390008091C10084608093C100DD
:1025F0008091C10082608093C1008091C1008160A0
:102600008093C1008091C30081608093C30080915A
:10261000C00082608093C0008091C200816080937E
:10262000C20080917A00846080937A0080917A0061
:10263000826080937A0080917A00816080937A0032
:1026400080917A00806880937A00109285021092BF
:102650002802109227028091D70081608093D700D2
:1026600080EA8093D80089B5806189BD89B5826090
:1026700089BD09B400FEFDCF61E070E080E090E02C
:102680000E9427128091D8008F7C80618093D800AF
:102690008091E000807F8093E0008091E1008E7E59
:1026A0008093E1008DE08093E200559A209AEEEF4E
:1026B000FFE7859194918B3F9C4D19F481E08093C5
:1026C00026028FE8E9ECF2E0DF011D928A95E9F736
:1026D00061E085E00E94EB11ECE9F1E02491EDE787
:1026E000F1E0E491F0E0EE0FFF1FE25CFE4F459158
:1026F000549180E091E031E0291741F08F5F932FF2
:10270000082E01C0990F0A94EAF7F6CF5093C4023D
:102710004093C3028093C20289EC92E09093BB0283
:102720008093BA025498E091C302F091C4022081D0
:1027300081E090E00090C20202C0880F991F0A94C5
:10274000E2F78095822380831092800081E080935D
:1027500081001092C602B59A80916F0080628093CA
:102760006F0080918100887F81608093810085E087
:1027700090E00E94E71D80935B02F12C80915B0248
:10278000F81608F033C2CF2CD12CC601885F9F4FBA
:102790000E94E71D282FB4E1BC9D8001BD9D100D56
:1027A0001124C801815E9F4F28A70E94EF1DE82ECB
:1027B000C8018F5D9F4F0E94EF1D1C01F601EE0FB7
:1027C000FF1FFBA3EAA328A5233009F426C108F0C4
:1027D00070C0213009F4E5C0223009F0E5C1C8011C
:1027E0008D5D9F4F0E94EF1D3C01C8018B5D9F4F87
:1027F0000E94EF1D9C01C801895D9F4F28A73FA340
:102800000E94EF1D4C01C801835D9F4F0E94EF1D88
:102810002C01C801815D9F4F0E94EF1D5C01C80122
:102820008F5C9F4F0E94EF1D482F8BE190E04EA3DD
:102830000E94BA1C6C01DC011596FC921597129649
:10284000EC92129714963C922E921397EEE7F1E0D9
:102850001196FC93EE9319967C926E92189728A588
:102860003FA117963C932E9316971B969C928E929F
:102870001A974EA11C964C931C9753967C926E927D
:10288000529755967C926E9254971E965C924E92F9
:102890001D975096BC92AE921F9757961C921E920F
:1028A000569758961C9258975A961C921E92599772
:1028B0006BC1253009F40CC108F4E4C0263609F0D8
:1028C00073C1C8018D5D9F4F0E94EF1D3C01C8017F
:1028D0008B5D9F4F0E94EF1D9DA38CA3C801895D56
:1028E0009F4F0E94EF1D4C01C801835D9F4F0E94C6
:1028F000EF1D2C01C801815D9F4F0E94EF1D5C01FF
:10290000C8018F5C9F4F0E94EF1D282F8DE190E042
:1029100028A70E94BA1C6C01FC01F582E282348275
:1029200023829386828628A52487738A628A758A81
:10293000648A56864586B08AA786178A168A108EBC
:10294000128E118E28E931E03183208382EC93E0EE
:10295000948F838FB30180E090E00E949F1B2FE350
:1029600035E342E850E40E94FE1A0E94701BD60133
:1029700019967C936E931897ECA1FDA1BF0180E09E
:1029800090E00E949F1B2FE335E342E850E40E9451
:10299000FE1A0E94701BD60117967C936E931697B1
:1029A000F3C0C8018D5D9F4F0E94EF1D8170D82E2E
:1029B000C8018B5D9F4F0E94EF1D8C018BE090E062
:1029C0000E94BA1C5C01DC011596FC9215971296C8
:1029D000EC92129714963C922E921397E6E1F1E056
:1029E0001196FC93EE93FFEFEF1203C02EEF1296B9
:1029F0002C9362E0D50112968C910E94EB11F501A7
:102A0000168281E08783D28611870087EAA1FBA125
:102A1000E75DFD4FB182A082DAC0C8018D5D9F4F96
:102A20000E94EF1DD82E8AE090E00E94BA1C8C0113
:102A3000DC011596FC9215971296EC92129714965B
:102A40003C922E921397E0E3F1E0ED93FC9361E06A
:102A50008E2D0E94EB11D80116961C9260E0C801E1
:102A60000E94060D8D2D8170F80187831186D1FAA1
:102A7000DD24D0F8D086EAA1FBA1E75DFD4F1183EC
:102A80000083A5C0C8018D5D9F4F0E94EF1DC82E19
:102A9000C8018B5D9F4F0E94EF1DD82EC801895D34
:102AA0009F4F0E94EF1D8C0183E190E00E94BA1CB1
:102AB000FC01F582E282348223822AE431E0318310
:102AC0002083C782D08612870187108A178679C033
:102AD000C8018D5D9F4F0E94EF1D2C01C8018B5DC9
:102AE0009F4F0E94EF1D3C01C801875D9F4F0E94D0
:102AF000EF1D4C01C801855D9F4F0E94EF1D5C01D9
:102B000083E190E00E94BA1C6C01DC011596FC92F6
:102B100015971296EC92129714963C922E92139758
:102B2000E4E6F1E01196FC93EE9317965C924E92D8
:102B3000169719967C926E9218971B969C928E927D
:102B40001A971D96BC92AE921C9761E08E2D0E9442
:102B5000EB1161E0D60116968C910E94EB11EAA16F
:102B6000FBA1E75DFD4FD182C082C801895D9F4F07
:102B70000E94EF1DD601ED91FC910288F389E02DB2
:102B8000BC01C601099523C0EAA1FBA1E75DFD4F89
:102B9000D182C082C801855D9F4F0E94EF1DBC019C
:102BA000C6010E94C10C13C086E090E00E94BA1CCE
:102BB000FC0122EB31E031832083F582E282348212
:102BC0002382AAA1BBA1A75DBD4FED93FC93EAA10F
:102BD000FBA1E75DFD4F80819181DC01ED91FC91CE
:102BE0000480F581E02D0995F394C8CD8091C1034F
:102BF0008111DBC20E94110A882309F4D6C260E069
:102C000080EF0E94C10901E0F12CE12C11E00E944B
:102C10006A098EA30E946A099EA1913019F481303D
:102C2000C1F435C02F2D30E098131DC08091BF0333
:102C3000181738F4F901EC54FC4F8381802349F4D0
:102C400002C0181731F090E0193060F41093C003FF
:102C500009C0EF2DF0E0EC54FC4F8381802B83837F
:102C600091E009C0E12EF901EC54FC4F2381802F43
:102C7000809582238383892F0E948F091F5F000F15
:102C800011F4F39401E0B7E0BF1508F0C0CF1134A0
:102C900008F48BC2E092BF03E11003C081E080938F
:102CA000C1038091B703882309F47FC2A7EBB3E087
:102CB000E1EBF2E08D91819322E0E93BF207D1F75D
:102CC00010928302109282021092AE021092B00211
:102CD0001092AC0211E01093AB021092860261E0F8
:102CE00082E00E945A0C61E083E00E945A0C8091BD
:102CF000B9008E7F8093B9008091B9008D7F809359
:102D0000B90088E48093B80085E48093BC0060E05B
:102D100080E00E94BD0A8091C2031093AD028093AF
:102D2000AF021092AE021092B00260E088E593E02C
:102D30000E943E0881E00E94600A8091C203909147
:102D4000AC029111FCCF91E09093AC029093AB0256
:102D50002FEF2093AA021092A9021092A80290933A
:102D6000870290918702880F892B80938702809138
:102D70008602813061F410928602809187028093EE
:102D8000BB008091BC0083FDF8CF85EC01C085EECF
:102D90008093BC008091AC028130E1F38091A90264
:102DA000811103C08091A90201C081E0A8E8B2E0CE
:102DB00022E632E0F9019E2F921B981718F49D919C
:102DC0009193F9CF109283028093820288E593E079
:102DD0000E94F207182F682F6F76606180E00E94D2
:102DE000BD0A60E68EEF0E94BD0A612F80E00E945E
:102DF000BD0A65E070E080E090E00E942712612F3C
:102E0000616A80E00E94BD0A60E084E10E94EB11EB
:102E100083EF91E00E94480A0E940E109C0140E05E
:102E200050E019A28E010F5D1F4FAAE0CA2ED12CCF
:102E3000E12CF12CCA01B901A70196010E94D61A12
:102E4000605DD8016E938D01211531054105510555
:102E500089F7CD010E94480A89E092E00E94480A61
:102E600060E0462E60E0562E70E0A72E70E0B72E90
:102E7000E0E08E2EE0E09E2EF1E16F2EF7E27F2E55
:102E8000FF24FA9450E0252E50E0352E10925C027B
:102E900010E080915B02181708F04AC0E12FF0E0C3
:102EA000EE0FFF1FE75DFD4F80819181DC01ED9109
:102EB000FC910088F189E02D09951F5FEACFE82F8A
:102EC000F0E0E753FD4F108117FF3BC090914B039B
:102ED000981751F020915003309151032F5F3F4FCD
:102EE000309351032093500380934B03F0924C0393
:102EF000812F8076803619F182958F708E5F809356
:102F00004D03811167C180914A038F5F80934A030B
:102F1000C0904B03282F2C1987FD10924A039091E3
:102F20004D0380914C03291799F0182710934C03F7
:102F300080914A03909149038913C1CF2FC080E04B
:102F4000DECF80914D038111DECF10934D0342C13E
:102F5000811310C02C2D30E0A90147535D4F209103
:102F60004E0330914F032F5F3F4F30934F03209319
:102F70004E030CC020915003309151032F5F3F4FFF
:102F8000309351032093500340E050E090914A0366
:102F900090934B034115510541F203C0C12CD12C34
:102FA00001C06A01D0925A02C0925902C114D104E0
:102FB00009F4F3C0F60121816281962F9F7030E8F9
:102FC000939FF0011124E22BD6013C91323BE1F0BA
:102FD0003196313B09F442C040F4333841F1303B83
:102FE000B1F1323809F0C9C029C03C3B09F44EC0E8
:102FF00020F4343B09F4D1C0C0C03D3B09F4CDC03E
:10300000303D09F44EC0B9C065FD03C081E090E0D9
:1030100002C082E090E04114510409F4BEC0EE0FFA
:10302000FF1F60718E0F9F1F0E940000B6C080E0DE
:1030300090E0892B09F4B1C081E006C080E090E007
:10304000892B09F4AAC080E00E940000A6C0462F88
:1030500040726071CF010E94790E9FC066FF0BC065
:103060008114910409F499C0462F40726071CF0118
:103070000E94000092C0A114B10409F48EC0462F32
:1030800040716072CF010E94000087C0211431049A
:1030900009F483C0462F40726071CF010E94000086
:1030A0007CC0822F8076803221F1803619F0811128
:1030B00074C01FC080E090E0892B09F46EC0F60157
:1030C000E3808E2D807D803109F067C0D48011E0CF
:1030D00001E041E0802F8E2109F040E0202F2D21DA
:1030E000000F612F80E80E9400001F5F153089F7F4
:1030F00054C040E050E0452B09F44FC0E22FEF717F
:1031000030E8E39FF0011124E60FF11D25FB222793
:1031100020F93196D60113968C91139714964C9101
:1031200050E08D3729F0B0E88B9F400D511D1124E0
:10313000992381F0923081F0943081F0963081F0C3
:10314000983081F09A3081F09C3081F09E3081F08F
:10315000692F0FC061E40DC062E40BC063E409C0D5
:1031600064E407C065E405C066E403C067E401C029
:1031700068E4CF010E94000010C0353E09F037C15D
:103180008CE092E00E94480A89E092E00E94480A9E
:10319000F60181818F3009F466C080E090E0892BD0
:1031A00009F474CE0E9400006BCE1092BF031092FF
:1031B000C1031092C003EFEBF3E0129233E0E73B60
:1031C000F307D9F7E1EBF2E087E08E0F11928E134F
:1031D000FDCF76CD20914B0380914D0390E0820F7F
:1031E000911D813891050CF48ECE30E8C32EC21AA1
:1031F000F8944091490380914A03841730F48091F8
:103200004B03B42FB81B8B2F02C08C2D840F8093DF
:103210004903789480914A03481780F4D12C50E0F8
:1032200069EC72E0C60187539D4F0E949F1C60911C
:103230004B0370E067537D4FA60107C060914B03BD
:10324000461B50E070E067537D4F89EC92E00E948E
:103250009F1C80914A0390914B03891B80934A03E2
:1032600010924B0350CE8381853009F096CF848134
:10327000811193CF66813796C6010E9621E05E2FAD
:103280004F2F322F362319F0308130683083220FD0
:103290003196E817F907A9F7D60116961C921697EA
:1032A00015962C911597203209F484C0213209F02B
:1032B00074CF17968D919C9118978F3FBFEF9B0706
:1032C000F9F4F60121853285232BD1F42385348549
:1032D0002F3F3F4FA9F480E090E00E94E71D082FA8
:1032E00010E0D6011C961C930E931B9718967C92A7
:1032F0006E921797E12C20E030E041E157E21EC0CA
:10330000F6012585211121C043855485618572858B
:103310009601255F3F4F0E9448108F3709F059C032
:10332000D6011B960D911C911C9719962D913C91DD
:103330001A9717964D915C911897E12C12966C9103
:10334000CE0101960E948E1A4DC027FF28C026FD8F
:1033500026C0B601655F7F4F852F942F0E94500EC7
:103360008F37E9F4D6011B960D911C911C97179687
:103370004D915C91189780E8E82E20E030E012969D
:103380006C91CE0101960E948E1A6AE070E080E096
:1033900090E00E942712CE0101960E946D08F6016E
:1033A000858586FFFACE63857485878190850E9426
:1033B000370EF3CED6011B964D915C911C97199652
:1033C0006D917C911A9717968D919C9118970E94F8
:1033D000C90E87FDE2CEF60190819F7724EB298309
:1033E0009A838B83CE0101960E946D08D6CE3D3E16
:1033F00009F4C6CED2CECF92DF92EF92FF920F9316
:103400001F93CF93DF931F92CDB7DEB7182F062FF0
:10341000E42E862F880F8E5F99830E94130183E02C
:103420000E941301F12EC12E9981D92E8C2D8F1956
:10343000801798F4F601E7FE02C0849101C08081F4
:103440000E941301182F80E00E9413018123FFEFD7
:10345000CF1ADF0A8111EACF01C081E00F90DF911E
:10346000CF911F910F91FF90EF90DF90CF90089533
:1034700010925B0310925A0388EE93E0A0E0B0E054
:1034800080935C0390935D03A0935E03B0935F030E
:1034900023ED31E0309359032093580310926703D2
:1034A000109266038093680390936903A0936A0364
:1034B000B0936B0385EE91E0909365038093640372
:1034C0008FEF9FEF909371038093700380E480935C
:1034D000C20360E085E10E94EB11ECEAF1E0E491C7
:1034E000E093B403EDE8F1E0E491F0E0EE0FFF1FAC
:1034F000E659FE4F859194919093B6038093B5035E
:103500001092BF031092C1031092C003EFEBF3E0DF
:10351000129283E0E73BF807D9F70895EF920F93F3
:103520001F93FC0185EE80838FE0818385E0828399
:10353000613029F489E483838BE4848302C063834C
:1035400014828FE1858316825087478332872187D3
:1035500014870387E586DF011796AF01425F5F4F4F
:1035600091E08C9187FF05C02681292B26838F77D8
:103570008C93990F1196A417B50799F71F910F9186
:10358000EF900895AA1BBB1B51E107C0AA1FBB1FE8
:10359000A617B70710F0A61BB70B881F991F5A95DF
:1035A000A9F780959095BC01CD010895A1E21A2E4E
:1035B000AA1BBB1BFD010DC0AA1FBB1FEE1FFF1FD7
:1035C000A217B307E407F50720F0A21BB30BE40B27
:1035D000F50B661F771F881F991F1A9469F760956E
:1035E0007095809590959B01AC01BD01CF01089528
:1035F000EE0FFF1F0590F491E02D09940E94121B1D
:103600000C94F31B0E94EC1B58F00E94E51B40F049
:1036100029F45F3F29F00C94DC1B51110C94271CFA
:103620000C94E21B0E94041C68F39923B1F3552308
:1036300091F3951B550BBB27AA27621773078407C5
:1036400038F09F5F5F4F220F331F441FAA1FA9F35B
:1036500035D00E2E3AF0E0E832D091505040E69549
:10366000001CCAF72BD0FE2F29D0660F771F881FAA
:10367000BB1F261737074807AB07B0E809F0BB0B9D
:10368000802DBF01FF2793585F4F3AF09E3F5105B1
:1036900078F00C94DC1B0C94271C5F3FE4F3983EFD
:1036A000D4F3869577956795B795F7959F5FC9F79A
:1036B000880F911D9695879597F90895E1E0660F1B
:1036C000771F881FBB1F621773078407BA0720F094
:1036D000621B730B840BBA0BEE1F88F7E0950895FD
:1036E0000E940C1C88F09F5798F0B92F9927B7516A
:1036F000B0F0E1F0660F771F881F991F1AF0BA9596
:10370000C9F714C0B13091F00E94261CB1E00895B1
:103710000C94261C672F782F8827B85F39F0B93FA3
:10372000CCF3869577956795B395D9F73EF4909548
:103730008095709561957F4F8F4F9F4F0895E894C6
:1037400009C097FB3EF490958095709561957F4FE9
:103750008F4F9F4F9923A9F0F92F96E9BB27939597
:10376000F695879577956795B795F111F8CFFAF4A7
:10377000BB0F11F460FF1BC06F5F7F4F8F4F9F4FD8
:1037800016C0882311F096E911C0772321F09EE836
:10379000872F762F05C0662371F096E8862F70E09C
:1037A00060E02AF09A95660F771F881FDAF7880F76
:1037B0009695879597F9089597F99F6780E870E047
:1037C00060E008959FEF80EC089500240A94161697
:1037D000170618060906089500240A9412161306FF
:1037E000140605060895092E0394000C11F488238D
:1037F00052F0BB0F40F4BF2B11F460FF04C06F5FA9
:103800007F4F8F4F9F4F089557FD9058440F551F7E
:1038100059F05F3F71F04795880F97FB991F61F052
:103820009F3F79F087950895121613061406551FC9
:10383000F2CF4695F1DF08C0161617061806991F35
:10384000F1CF86957105610508940895E894BB272A
:1038500066277727CB0197F908950E94401C0C94A6
:10386000F31B0E94E51B38F00E94EC1B20F095230F
:1038700011F00C94DC1B0C94E21B11240C94271CFB
:103880000E94041C70F3959FC1F3950F50E0551FE3
:10389000629FF001729FBB27F00DB11D639FAA27A5
:1038A000F00DB11DAA1F649F6627B00DA11D661FF4
:1038B000829F2227B00DA11D621F739FB00DA11D15
:1038C000621F839FA00D611D221F749F3327A00DCF
:1038D000611D231F849F600D211D822F762F6A2F6B
:1038E00011249F5750409AF0F1F088234AF0EE0FD0
:1038F000FF1FBB1F661F771F881F91505040A9F7FD
:103900009E3F510580F00C94DC1B0C94271C5F3FFC
:10391000E4F3983ED4F3869577956795B795F79538
:10392000E7959F5FC1F7FE2B880F911D96958795B0
:1039300097F9089581E090E0F8940C94181E6817A8
:10394000790768F4FB01DC01E40FF51FA40FB51F34
:1039500002C002900E9241505040D8F708950C9446
:10396000B11CFB01DC0102C001900D92415050409E
:10397000D8F70895CF93DF938230910510F482E059
:1039800090E0E0914B04F0914C0420E030E0C0E086
:10399000D0E0309711F14081518148175907C0F0AC
:1039A0004817590761F482819381209719F09B830E
:1039B0008A832BC090934C0480934B0426C021151E
:1039C000310519F04217530718F49A01BE01DF01BF
:1039D000EF010280F381E02DDCCF2115310509F1E3
:1039E000281B390B2430310590F412968D919C914F
:1039F00013976115710521F0FB019383828304C045
:103A000090934C0480934B04FD01329644C0FD0119
:103A1000E20FF31F81939193225031092D933C9330
:103A20003AC02091490430914A04232B41F420915B
:103A30000E0130910F0130934A04209349042091E4
:103A40000C0130910D012115310541F42DB73EB720
:103A50004091100150911101241B350BE091490454
:103A6000F0914A04E217F307A0F42E1B3F0B28172E
:103A7000390778F0AC014E5F5F4F2417350748F0E7
:103A80004E0F5F1F50934A044093490481939193D2
:103A900002C0E0E0F0E0CF01DF91CF9108950F93F5
:103AA0001F93CF93DF93009709F48CC0FC013297EA
:103AB0001382128200914B0410914C0401151105E0
:103AC00081F420813181820F931F2091490430912C
:103AD0004A042817390779F5F0934A04E09349041A
:103AE00071C0D80140E050E0AE17BF0750F4129605
:103AF0002D913C911397AD012115310509F1D901A3
:103B0000F3CF9D01DA013383228360817181860FB7
:103B1000971F8217930769F4EC0128813981260FDA
:103B2000371F2E5F3F4F318320838A819B81938390
:103B30008283452B29F4F0934C04E0934B0442C05C
:103B40001396FC93EE931297ED01499159919E01C2
:103B5000240F351FE217F30771F480819181840FE0
:103B6000951F029611969C938E9382819381139652
:103B70009C938E931297E0E0F0E0D80112968D911D
:103B80009C911397009719F0F8018C01F6CF8D9155
:103B90009C9198012E5F3F4F820F931F2091490403
:103BA00030914A042817390769F4309729F41092A4
:103BB0004C0410924B0402C01382128210934A04E8
:103BC00000934904DF91CF911F910F910895F999C6
:103BD000FECF92BD81BDF89A992780B50895A8E1DE
:103BE000B0E042E050E00C940A1E262FF999FECF77
:103BF0001FBA92BD81BD20BD0FB6F894FA9AF99A0A
:103C00000FBE019608950E94F51D272F0C94F61DF6
:103C1000DC01CB01FC01F999FECF06C0F2BDE1BD8C
:103C2000F89A319600B40D9241505040B8F708957B
:043C3000F894FFCF36
:103C3400FFFFFFFF00E100000000000000004D0452
:103C4400800000000000AE07F002F80C040DF00C38
:103C5400020D010D000DD90DFD0CFA0C0000000041
:103C6400FF0E160DC00C8A0C970C060D010D000DED
:103C7400BE0CFD0CFA0C00000000AF07F202F001CC
:103C8400DF011B0F020D010D000DF402FD0CFA0CF7
:103C940000000000FD0E120DEF0C040D790D020D55
:103CA400010DEE0C270DFD0CFA0C00000000FC0EBB
:103CB400100DDE0CE10C530F020D010DDD0CDF0CB9
:103CC400C10CD90C00000000FE0E140DF90CE10C1F
:103CD400530F020D010DDD0C810FC10CD90C000036
:103CE400000088110E0D050D040D030D020D010DCC
:103CF400000DFE0CFD0CFA0C00C1808100000000D8
:103D04000000003E080E08DC01E2070608F207E3A3
:103D14000700000000A0012502AA02B601C101D2D9
:103D240002AE02506F77657220766F6C74616765BE
:103D340020696E206D563A20000D0A00506F73738F
:103D440069626C792061204C4E4356206D65737313
:063D54006167652E00000E
:00000001FF
