:100000000C94EC000C9414010C9414010C94140145
:100010000C9414010C9414010C9414010C9414010C
:100020000C9414010C9414010C94960E0C94080F6B
:100030000C9414010C9414010C9414010C941401EC
:100040000C94210D0C94950B0C9414010C94140138
:100050000C9414010C9414010C9414010C944B0B8B
:100060000C9414010C9414010C9414010C941401BC
:100070000C9414010C9414010C9414010C941401AC
:100080000C94AC050C9414010C9414010C94140100
:100090000C9414010C9414010C9414010C9414018C
:1000A0000C9414010C9414010C941401F009F3093C
:1000B000E209E609EC09140A140A140AF709FB0913
:1000C000FF09050A090A140A0F0A000000002500AA
:1000D00028002B002E00310004040404040304054E
:1000E00002020202040302020202060606060606D5
:1000F00004040202020404040802011040804010BB
:10010000204080408008020401804020100201103D
:10011000801020404020000000002300260029001D
:100120002C002F0000000000240027002A002D00D2
:1001300030000000000200090F0000030401000C61
:1001400000000000000000000000000000000000AF
:10015000080B000202020100090400000102020073
:1001600000052400100105240101010424020605F4
:100170002406000107058103100040090401000264
:100180000A00000007050202400000070583024044
:10019000000004030904537061726B46756E0053CE
:1001A0007061726B46756E2050726F204D6963727C
:1001B0006F0012010002000000404F1B0692000178
:1001C0000102030112010002EF0201404F1B0692DF
:1001D000000101020301A61911241FBECFEFDAE0CE
:1001E000DEBFCDBF14E0A0E0B1E0EEEAF7E302C06D
:1001F00005900D92A639B107D9F726E0A6E9B4E03B
:1002000001C01D92AB30B207E1F710E0CCEED0E0B8
:1002100004C02197FE010E94F619CB3ED107C9F711
:100220000E947A130C94D51B0C940000DC01ED9114
:10023000FC91119751966C9121E062270084F18521
:10024000E02D40E00994FC01662319F091E0942729
:1002500097834683089580E090E00895089580E0B4
:100260000895089508950895089508950895CF93E1
:10027000DF93EC0188E292E00E945D116AE070E099
:100280008A810E94E31280EF91E0DF91CF910C947C
:100290005D11CF93DF93EC0183E392E00E945D1147
:1002A0006AE070E08A810E94E31281E492E00E9499
:1002B0005D11888599850E94A0118DE492E00E94CD
:1002C0005D118E819F810E94A01182EE92E00E94BA
:1002D0005D118B819C810E94A01188E592E00E94B3
:1002E0005D118A859B850E94A01181E692E00E94A3
:1002F0005D118D859E850E94A01184E792E00E9489
:100300005D118F8598890E94A01187E892E00E9474
:100310005D116AE070E08C850E94E31280EF91E04D
:10032000DF91CF910C945D110F931F93CF93DF93C7
:10033000EC012A81222309F130E0F901EE5CFE4F45
:100340008491F901E950FF4F0491F901E852FF4F00
:100350001491112379F081110E94D809E12FF0E066
:10036000EE0FFF1FEA5EFE4FA591B491EC91E023E2
:1003700081E009F480E081708E836E818F8168173F
:10038000D9F08B819C810E94781285E992E00E94CD
:100390005D116AE070E08A810E94E31280EA92E0D7
:1003A0000E945D116E8170E080E090E00E94A312D7
:1003B0008E818F8381E001C080E0DF91CF911F911A
:1003C0000F9108950C94B11A0C94B11A0C94B11AAF
:1003D0000F931F93CF93DF93EC018B018DEA92E093
:1003E0000E945D11CE010E94A01182EE92E00E9457
:1003F0005D11CC0FDD1FC154DB4FE881F981838192
:1004000094810E94A0118DEB92E00E945D11B801D1
:1004100080E090E04AE00E945F118FEE91E00E9440
:100420004511E881F981602F83819481DF91CF911B
:100430001F910F910C947812CF93DF93EC012C8DC8
:100440003D8D8D859E852130310519F460E070E089
:1004500005C02989211107C061E070E00E94E80110
:1004600060E070E006C060E070E00E94E80161E0DA
:1004700070E08F859889DF91CF910C94E801CF933C
:10048000DF93EC0186EC92E00E945D116AE070E07F
:100490008D850E94E31283ED92E00E945D118B85B1
:1004A0009C850E94A0118FED92E00E945D116B81EE
:1004B0007C8180E090E04AE00E945F118FEE91E045
:1004C000DF91CF910C944511AF92BF92CF92DF9202
:1004D000EF92FF920F931F93CF93DF93FC0123853D
:1004E00034859585C185D285892F90E0EA81FB818D
:1004F00078E17E9FA0017F9F500D11244817590776
:1005000098F0880F991FE881F981E80FF91F629F21
:10051000C001639F900D1124811520E1920710F016
:100520008FEF9FE09183808360E08E810E94150AA7
:100530008A819B8128E1289F8001299F100D112429
:10054000680181E0C81AD10801501048000F111F3E
:10055000AA24A394B12CD7FC2CC08BE0E82EF12C5C
:1005600060E08C810E94150AE881F981E00FF11F9B
:100570008081918195010E2C02C0220F331F0A94B5
:10058000E2F782239323892B11F061E001C060E040
:100590008D810E94150A61E08C810E94150A21E07C
:1005A000E21AF108E8F621E0C21AD1080250110956
:1005B000D2CF60E08C810E94150A61E08E810E949A
:1005C000150A60E08E81DF91CF911F910F91FF900E
:1005D000EF90DF90CF90BF90AF900C94150A0F93DF
:1005E0001F93CF93DF938C01EB018DEE92E00E947D
:1005F0005D11F801808191810E94A01161E177E293
:1006000080E090E00E94A31280E090E00E94491BED
:10061000282F30E03983288381E197E2F801918324
:100620008083888199810E94A0118FE7DF91CF910B
:100630001F910F9108950F931F93CF93DF938C0118
:10064000EB0188EF92E00E945D118091BE04882347
:10065000F1F001311742A9F480E090E00E94491BBB
:1006600090E0C817D90781F41092BE0483E193E0AB
:100670000E945D110C940000DF91CF911F910F91AA
:10068000089589E293E005C087E393E002C08EE419
:1006900093E0DF91CF911F910F910C945D11EF9238
:1006A000FF920F931F93CF93DF937C018B0180E028
:1006B00090E00E94491BC82FD0E0F7018081918112
:1006C0000E94A011F801808191810E94A011CE01A9
:1006D0000E94A011F7018081918181319742D1F46C
:1006E000F801808191818C179D0741F481E080930E
:1006F000BE0481E693E00E945D110AC0019651F4A8
:1007000080E090E00E94491B90E0F8019183808393
:100710008FE703C01092BE048FEFDF91CF911F913E
:100720000F91FF90EF900895CF92DF92EF92FF929A
:100730000F931F93CF93DF9300D0CDB7DEB76C013B
:100740008B01790185E793E00E945D11C6010E944B
:10075000A01187E694E00E945D11C8010E94A011DB
:1007600087E694E00E945D1187E694E00E945D11A7
:10077000F701808191810E94A0118BE893E00E9493
:100780005D118091BE04882309F498C0F1E1CF1671
:10079000F7E2DF0609F08FC00530110519F488E192
:1007A00090E080C00034F1E01F0700F5C8010E940E
:1007B0002B13F701918380838EE893E00E945D11F3
:1007C000C8010E94530D805090400E94A01180EA01
:1007D00093E00E945D11F701808191810E94A01138
:1007E00080EF91E00E945D118FE76FC00F3FF3E053
:1007F0001F0719F488ED97E255C00115F4E01F07B3
:1008000081F48091070690910806009711F48BE01F
:1008100096E09E012F5F3F4FA901481B590BCA016B
:1008200041C00130F4E01F0729F4809196049091B3
:10083000970438C00230F4E01F0729F480910B06BA
:1008400090910C062FC00330F4E01F0719F48DB708
:100850009EB728C0C801845094400597A8F506307B
:10086000F4E01F07B1F020F40530144069F007C030
:10087000073084E0180791F008301440B9F08091F7
:100880009A0590919B050EC080919C0590919D05C5
:1008900009C080919E0590919F0504C08091A0059C
:1008A0009091A105F701918380839ECF8091A2054D
:1008B0009091A305F7CF8EEA93E002C08EE493E017
:1008C0000E945D118FEF01C081E00F900F90DF91CA
:1008D000CF911F910F91FF90EF90DF90CF900895EF
:1008E000CF92DF92EF92FF920F931F93CF93DF93FC
:1008F0002091BE04222309F48FC0052F142FEB0191
:100900007C018EEB93E00E945D11C7010E94A01153
:1009100087E694E00E945D11CE010E94A01187E657
:1009200094E00E945D1187E694E00E945D11812FA2
:10093000902F0E94A0118BE893E00E945D1181E14D
:10094000E81687E2F80609F063C0C034A1E0DA07D0
:1009500008F064C0CE010E94530D7C010E94A011DA
:10096000C032D10510F082E001C081E06AE070E0A1
:100970000E94E3126AE070E0812F0E94E312C70137
:1009800080509040C032D10508F44AC0612F702FCA
:100990000E94651BCE010E942B130E94A011A097FC
:1009A000CE016AE070E00E94E2196B0180EF91E0F5
:1009B0000E945D1185ED93E00E945D116AE070E098
:1009C0008C2D0E94E3128CED93E00E945D11760164
:1009D000FF24BAE0CB9EC019D1091124CE010E9498
:1009E000A01180EF91E00E945D11F701EE0FFF1F53
:1009F000E154FB4F80819181DC01ED91FC910484F5
:100A0000F585E02D412F502FBE0109958FE70CC0D1
:100A100086EE93E00E945D118FEF06C081E004C076
:100A2000612F0E94571BB6CFDF91CF911F910F917D
:100A3000FF90EF90DF90CF900895BF92CF92DF921A
:100A4000EF92FF920F931F93CF93DF936C01062FCA
:100A5000B42E8BE094E00E945D11C6010E94A011AB
:100A6000E091A405F091A5050190F081E02D6AE3E5
:100A700084EA95E00995B11003C08DEF93E002C0C0
:100A800086EF93E00E945D118CE194E00E945D117D
:100A9000011103C087E094E002C084E094E00E946A
:100AA000D512CFEBD4E08BE2E82E80E0F82E10E0F8
:100AB000A881B98113968D919C9114978C159D05F1
:100AC000B9F5ED91FC91119741E0011101C040E0B1
:100AD00061E0B11001C060E00084F185E02DCD013E
:100AE000099588819981DC01ED91FC910488F58953
:100AF000E02D0995BC01C7010E94651B80E294E0CE
:100B00000E945D116AE070E0812F0E94E31280E391
:100B100094E00E945D1188819981DC01ED91FC9146
:100B20000684F785E02D099580EF91E00E945D1124
:100B30001F5F2296B4E1EB0EF11C183109F0B8CF1B
:100B4000DF91CF911F910F91FF90EF90DF90CF90A9
:100B5000BF900895089508951F920F920FB60F92B7
:100B600011242F933F934F935F936F937F938F93B2
:100B70009F93AF93BF93EF93FF938091F30487FF0D
:100B800005C010929500109294001BC02091F304B0
:100B9000022E000C330B8091BD0490E0281739071A
:100BA00084F48091F304082E000C990BFC01EE0FE5
:100BB000FF1F8E0F9F1FFC01E756FB4F808186FDB4
:100BC00015C08091F3048F5F8093F3042091F304A8
:100BD000022E000C330B8091BD0490E028173907DA
:100BE000C4F48091F3048C3064F113C08091F30459
:100BF000082E000C990BFC01EE0FFF1F8E0F9F1F9C
:100C0000FC01E756FB4F808160E08F730E94150A5C
:100C1000D8CF8091940090919500049680349C499F
:100C200018F480E49CE905C08091940090919500AF
:100C3000049690939900809398008FEF8093F3042B
:100C40003BC020919400309195008091F304082ED0
:100C5000000C990BFC01EE0FFF1F8E0F9F1FFC0174
:100C6000E756FB4F81819281820F931F90939900E9
:100C7000809398008091F304082E000C990BFC01DE
:100C8000EE0FFF1F8E0F9F1FFC01E756FB4F808169
:100C900086FF12C08091F304082E000C990BFC0112
:100CA000EE0FFF1F8E0F9F1FFC01E756FB4F808149
:100CB00061E08F730E94150AFF91EF91BF91AF9190
:100CC0009F918F917F916F915F914F913F912F9164
:100CD0000F900FBE0F901F90189588319105A0F4CA
:100CE000880F991FFC01E154FB4F80819181DC0149
:100CF000ED91FC9121E0672B09F420E00084F1855F
:100D0000E02D40E0622F099408951F93CF93DF9365
:100D1000EC016C8D7D8D6230710531F12D893E893C
:100D20008F89988D2817390721F0F901E81BF90BF5
:100D300002C0E0E0F0E0498D5A8DCA0157FF04C0BF
:100D400088279927841B950BE817F90778F482E028
:100D500090E09D8F8C8F8C8560E070E090E00E9429
:100D60006D06CE010E941C0280E0B0C08B8D8F5FAB
:100D70008B8F6130710509F04BC08B3F10F481E01F
:100D8000A5C0420F531F5E8B4D8B2A892C3070F506
:100D90003B8988E890E0831B910937FD9395880F84
:100DA000991F880F991F481759077CF03C8988E5DF
:100DB00092E0831B910937FD9395880F991F880F47
:100DC000991F481759070CF4CA010297880F991FF9
:100DD0004FB7F89430E0F901EE0FFF1F2E0F3F1FC1
:100DE000F901E756FB4F928381834FBF1B8E898D9C
:100DF0009A8D892B21F62F89388D8D899E89281708
:100E0000390709F0BCCF81E090E09A8F898F5EC0EE
:100E1000672B09F0A9CF8B3F08F4A6CF1A818A89E6
:100E20008C3008F04BC061E0812F0E94490A8A890A
:100E3000E82FF0E09F01220F331FE20FF31FE75668
:100E4000FB4F1F739081907C192B10831B8A1C8A87
:100E50006CE00E94D6199CE0899FB001112440E00B
:100E600050E09A01260F371FF901EE0FFF1F2E0FDA
:100E70003F1FF901E756FB4F908196FD13C04F5F6E
:100E80005F4F4C30510569F781110CC010929000F2
:100E900082E080939100109295001092940088BB9C
:100EA00080937100EA89F0E0CF01880F991FE80F65
:100EB000F91FE756FB4F80818064808386E394E0CE
:100EC0000E945D1181E090E09D8F8C8FDF91CF912A
:100ED0001F9108951F93CF93DF93EC01162F662384
:100EE00019F08E819F8102C088859985988F8F8B9C
:100EF0004F89588D2D893E898A859B8542175307D6
:100F000018F49195819591099A8F898F8C8561E06C
:100F100070E090E00E946D06CE010E941C02198BC9
:100F200081E090E09D8F8C8FDF91CF911F9108958C
:100F30000895CF93DF931F92CDB7DEB76983DC01AD
:100F4000ED91FC910280F381E02D41E050E0BE0183
:100F50006F5F7F4F09950F90DF91CF91089583E0E8
:100F60008093E9008091F200882319F08AE380934E
:100F7000E8000895FC018485958597FD0BC09FB717
:100F8000F89482E08093E9008091F2009FBF90E0A6
:100F9000019608959FB7F89482E08093E9008091CC
:100FA000F2009FBF90E008953FB7F8948091F90454
:100FB0009091FA04A091FB04B091FC0426B5A89B83
:100FC00005C02F3F19F00196A11DB11D3FBFBA2FDB
:100FD000A92F982F8827820F911DA11DB11DBC013B
:100FE000CD0142E0660F771F881F991F4A95D1F700
:100FF0000895DC01ED91FC91119761E01F962D9110
:101000003C915097232B09F060E00084F185E02D9E
:1010100041E00994DC01ED91FC91119716966C91D9
:1010200021E062270084F185E02D41E0099480E011
:101030000895FC0181E0672B09F480E0818B88230F
:1010400019F08681978102C080859185908F878B6A
:101050008789908D968B858B128E118E158E148EAE
:101060000895FC01818990E008950F931F93CF9319
:10107000DF931F92CDB7DEB78C01FC018485958587
:1010800097FF0EC0CE0101960E943C13019719F400
:10109000298130E002C02FEF3FEFF8013587248728
:1010A000F801848595850F90DF91CF911F910F9165
:1010B0000895CF93DF931F92CDB7DEB7FC018485EF
:1010C000958597FD05C02FEF3FEF358724870BC02F
:1010D000CE0101960E943C13019719F4898190E09A
:1010E00002C08FEF9FEF0F90DF91CF9108950C9486
:1010F000B11A0C94B11ACF93DF93EC0182E494E01F
:101100000E945D116AE070E08A810E94E31280EF24
:1011100091E0DF91CF910C945D11CF93DF93EC01BF
:101120008EE494E00E945D118B819C810E94A0114D
:1011300080EF91E00E945D118AE694E00E945D11CB
:101140006AE070E08F810E94E31288E694E00E94DA
:101150005D116AE070E088850E94E31280EF91E003
:10116000DF91CF910C945D11CF93DF93EC018F85CC
:101170009889892B81F18FB7F8944091F5045091AB
:10118000F6046091F7047091F8048FBF8B859C85FD
:10119000AD85BE85481B590B6A0B7B0B89859A85EB
:1011A000A0E0B0E084179507A607B707B0F48A89D6
:1011B000882341F08F859889019721F4888561E023
:1011C00070E003C08F8160E070E090E00E946D06E7
:1011D000188A1F8602C080E001C081E0DF91CF91B4
:1011E00008950F931F93CF93DF93EC012989621722
:1011F000A1F18F859889892B81F5E62FF0E030E009
:1012000091E02E173F070CF090E0042F162F9A8BD9
:10121000992341F081E090E0988B8F878F8161E086
:1012200070E007C081E090E0988B8F87888560E050
:1012300070E090E00E946D060111198B2FB7F894B1
:101240008091F5049091F604A091F704B091F80410
:101250002FBF8B879C87AD87BE87DF91CF911F9172
:101260000F9108951F93CF93DF93EC01162F8F8179
:10127000882371F08885662311F08F5F01C081504B
:101280008887888518161CF0188610E001C011E0C8
:101290008BE794E00E945D116885062E000C770BA9
:1012A000880B990B0E94A3121E83E881F9810284A6
:1012B000F385E02D612FCE01DF91CF911F9109942D
:1012C0008F929F92AF92BF92CF92DF92EF92FF9256
:1012D000CF93DF93EC018989882319F081E894E0AA
:1012E00002C08DEF93E00E945D118C8928E532E009
:1012F0006901C81AD10887FDD394CC0CDD1CCC0C35
:10130000DD1C0D2C000CEE08FF088B8928E830E06E
:101310004901881A910887FD9394880C991C880CC0
:10132000991C092C000CAA08BB088A898F3FC1F0C0
:1013300090E0FC01EE0FFF1F8E0F9F1FFC01E75690
:10134000FB4F2181328143E0220F331F4A95E1F7A1
:1013500054E0369527955A95E1F72E5F3F4F02C02E
:1013600020E030E02F5F3F4FC901330FAA0BBB0BCA
:101370009C01AD01281939094A095B09A4EBB0E0C9
:101380000E94991BA7019601281939094A095B098E
:101390000E947A1BCA01B901DF91CF91FF90EF90B3
:1013A000DF90CF90BF90AF909F908F900C94A3123E
:1013B00090E0FC013197EF30F105B0F5EA5AFF4FAC
:1013C0000C94F619809180008F7703C08091800083
:1013D0008F7D80938000089580918000877FF9CF72
:1013E00084B58F7702C084B58F7D84BD08958091C8
:1013F00090008F7707C0809190008F7D03C080910F
:101400009000877F8093900008958091C0008F772F
:1014100003C08091C0008F7D8093C00008958091AB
:10142000C200877F8093C20008951F93CF93DF93FC
:10143000282F30E0F901EE5CFE4F8491F901E9506C
:10144000FF4FD491F901E852FF4FC491CC23C9F06A
:10145000162F81110E94D809EC2FF0E0EE0FFF1F2C
:10146000E653FF4FA591B4918FB7F894111105C0C1
:101470009C91ED2FE095E92302C0EC91ED2BEC93CC
:101480008FBFDF91CF911F910895FC0182810C9451
:10149000150ACF93DF9390E0FC01E950FF4F2491B0
:1014A000FC01E852FF4F8491882361F190E0880F9E
:1014B000991FFC01EC5DFE4FC591D491FC01E653F0
:1014C000FF4FA591B491611109C09FB7F89488812D
:1014D000209582238883EC912E230BC0623061F427
:1014E0009FB7F8943881822F809583238883EC916D
:1014F0002E2B2C939FBF06C08FB7F894E8812E2B1C
:1015000028838FBFDF91CF9108958F929F92AF92E2
:10151000BF92CF92DF92EF92FF926B017C010E940B
:10152000D4074B015C01C114D104E104F104F1F0D2
:101530000E94D407DC01CB0188199909AA09BB09CB
:10154000883E9340A105B10570F321E0C21AD1088D
:10155000E108F10888EE880E83E0981EA11CB11CFA
:10156000C114D104E104F10419F7DDCFFF90EF902D
:10157000DF90CF90BF90AF909F908F9008958F9203
:101580009F92AF92BF92CF92DF92EF92FF920F9312
:101590001F93CF93DF935C016B018A018091070158
:1015A000882309F45EC080910405882309F459C09A
:1015B0008091970480FF05C08091E0008260809355
:1015C000E000E8018AEFF82E93E0E92E2FE3822E67
:1015D0003AE3932E209709F43DC08FB7F894E09238
:1015E000E9009091E80095FF06C09091F200282D47
:1015F000291B922F01C090E08FBF91110AC0FA946D
:10160000FF2079F161E070E080E090E00E94850ABF
:10161000E1CF292F30E0C217D3070CF49C2F8FB7EE
:10162000F894E092E9002091E80025FF11C0292FED
:1016300030E0C21BD30BF601915020F04191409352
:10164000F100FACFC20ED31E9091E80095FF13C0AF
:101650008FBFC0CF5D9884E68093FD0410161106FD
:1016600044F081E090E0F5019383828380E090E094
:1016700005C0C80103C09092E800EACFDF91CF9186
:101680001F910F91FF90EF90DF90CF90BF90AF90A0
:101690009F908F9008951F920F920FB60F92112472
:1016A0002F933F938F939F93AF93BF938091F504B4
:1016B0009091F604A091F704B091F8043091F404ED
:1016C00023E0230F2D3720F40196A11DB11D05C085
:1016D00026E8230F0296A11DB11D2093F4048093E8
:1016E000F5049093F604A093F704B093F804809166
:1016F000F9049091FA04A091FB04B091FC040196C6
:10170000A11DB11D8093F9049093FA04A093FB04EA
:10171000B093FC04BF91AF919F918F913F912F9116
:101720000F900FBE0F901F9018951F920F920FB63B
:101730000F9211242F933F934F935F936F937F9357
:101740008F939F93AF93BF93CF93DF93EF93FF93C9
:1017500080910C0590910D0580549C4F90930D0540
:1017600080930C0580910C0590910D059093890054
:1017700080938800809111058F5F8093110580917F
:1017800012058430E1F580911105893078F480915B
:10179000080590E095958795809308054C9B3EC180
:1017A0008091080580688093080538C1B59A8091BA
:1017B0006F00806280936F0080910605909107050D
:1017C0004C9909C0FC01E957FF4F80819181019636
:1017D000918380830FC040910805FC01E058FF4FC2
:1017E000308121E0230F2083DC01A30FB11D4C9336
:1017F00027FD10821092110581E0809312058091DF
:101800001205833009F0B4C0E0910F05F091100586
:10181000408120910E0599B150E0022E02C05595ED
:1018200047950A94E2F7892F90E034E095958795E3
:101830003A95E1F78427952780FD04C010921105A1
:1018400082E094C0809111058930F0F48091080500
:10185000308180FF09C081E090E001C0880F2A95A7
:10186000EAF78095832307C081E090E001C0880FEC
:101870002A95EAF7832B80838091080590E095955F
:1018800087958093080574C080911105893059F4BB
:10189000308181E090E001C0880F2A95EAF78095B9
:1018A0008323808365C0809113058F5F8093130528
:1018B00090911405891748F510921105A0910A0519
:1018C000B0910B0580911305A80FB11D8C918093E9
:1018D0000805308181E090E001C0880F2A95EAF781
:1018E000832B808380918400909185008A5A9C4F3D
:1018F00090930D0580930C0580910C0590910D053A
:10190000909389008093880033C081E0809309051B
:10191000E0910A05F0910B054091060550910705ED
:1019200080818076803611F4818105C08081807647
:1019300082958F708E5F20E030E0DA01A058BF4FB3
:10194000281788F4EF01C20FD31F78816C9191E0C2
:10195000960F9C93EA01C60FD11D788397FD1C92C8
:101960002F5F3F4FEDCF1092110581E0809312055C
:10197000809112058230D1F580911105811111C03D
:10198000E0910F05F0911005208181E090E000903A
:101990000E0502C0880F991F0A94E2F7822B8083FC
:1019A00025C0809111058F3008F1E0910F05F0916D
:1019B0001005208181E090E000900E0502C0880FA4
:1019C000991F0A94E2F78095822380831092110573
:1019D00081E080931205E0910605F0910705E35739
:1019E000FF4F8081918101969183808380911205C0
:1019F0008130A1F480911105811105C0B59A8091C3
:101A00006F00806209C080911105883338F0109210
:101A1000120580916F008D7F80936F00FF91EF9191
:101A2000DF91CF91BF91AF919F918F917F916F91F6
:101A30005F914F913F912F910F900FBE0F901F908C
:101A400018951F920F920FB60F9211248F939F93A8
:101A5000EF93FF93EFE6F0E080818F7D80838091AC
:101A600086009091870080569A4F90930D05809341
:101A70000C0580910C0590910D0590938900809341
:101A80008800B19A80818260808384E0809312050F
:101A900010921105FF91EF919F918F910F900FBEC2
:101AA0000F901F9018958032910510F401970895BA
:101AB0009C0120523109C9016AE070E00E94E219DC
:101AC00044E1649FC0011124AC01415E5F4FC90134
:101AD0007AE0679F801991091124880F991F840F5C
:101AE000951F089508950895CF93DF93EC018AE13F
:101AF00091E0998388838AE894E00E945D11EA89E5
:101B0000F0E0CF01880F991FE80FF91FE756FB4F50
:101B100080818F7B8083DF91CF910895CF93DF9376
:101B2000EC010E94740DCE01DF91CF910C94B11A9B
:101B300040910105509102052091FF04309100056C
:101B400042175307B4F49091E8009570E1F3909137
:101B5000E80092FD19C08093F100809101059091F9
:101B6000020501968F739927892B19F48EEF8093C4
:101B7000E80080910105909102050196909302057D
:101B80008093010581E0089580E00895CF92DF926F
:101B9000EF92FF920F931F93CF93DF931F92CDB7D6
:101BA000DEB7182F062FE42E862F880F8E5F9983BD
:101BB0000E94980D83E00E94980DF12EC12E99810C
:101BC000D92E8C2D8F19801798F4F601E7FE02C0EC
:101BD000849101C080810E94980D182F80E00E949E
:101BE000980D8123FFEFCF1ADF0A8111EACF01C0E0
:101BF00081E00F90DF91CF911F910F91FF90EF90B7
:101C0000DF90CF900895DF92EF92FF920F931F9392
:101C1000CF93DF93D82E8A017B01E40EF51EEB01F2
:101C2000CE15DF0571F0D7FE03C0FE01849101C01F
:101C300088810E94980D21968111F2CF8FEF9FEF3E
:101C400001C0C801DF91CF911F910F91FF90EF90DC
:101C5000DF900895615030F02091F100FC01208365
:101C60000196F8CF289884E6809303050895CF92D3
:101C7000DF92EF92FF920F931F93CF93DF936C014C
:101C80007A018B01C0E0D0E0CE15DF0589F0D801E4
:101C90006D918D01D601ED91FC910190F081E02DC7
:101CA000C6010995892B11F47E0102C02196ECCF63
:101CB000C701DF91CF911F910F91FF90EF90DF90BF
:101CC000CF9008950E94FC190F931F93CF93DF9339
:101CD0001F92CDB7DEB782E0898342E450E060E531
:101CE00071E080E80E94030E0E946613DC011296E8
:101CF0000D911C9113970115110569F0D801ED9113
:101D0000FC910280F381E02DBE016F5F7F4FC8011F
:101D1000099597FF07C089810F90DF91CF911F919F
:101D20000F910895F80100851185E5CF1F920F925C
:101D30000FB60F9211248F939F938091E1009091A1
:101D4000E100937F9093E10083FF0FC01092E900C0
:101D500091E09093EB001092EC0092E39093ED00F1
:101D60001092040598E09093F00082FF20C093E069
:101D70009093E9009091F200992319F09AE39093DF
:101D8000E8009091FD04992339F09091FD04915061
:101D90009093FD04992389F190910305992339F0DB
:101DA00090910305915090930305992341F184FF8D
:101DB00010C08091E2008E7E81608093E20080916D
:101DC000E1008F7E8093E100809197048E7E806198
:101DD00011C080FF16C08091E2008E7E80618093EA
:101DE000E2008091E1008E7E8093E1008091970473
:101DF0008E7E81608093970404C05D9ACDCF289A2F
:101E0000D6CF9F918F910F900FBE0F901F90189576
:101E10001F920F920FB60F921124CF92DF92EF9282
:101E2000FF920F931F932F933F934F935F936F9363
:101E30007F938F939F93AF93BF93EF93FF93CF9332
:101E4000DF93CDB7DEB76C97DEBFCDBF1092E90050
:101E50008091E80083FFFAC168E0CE0145960E94B8
:101E60002A0E82EF8093E8008D8987FF05C090914C
:101E7000E80090FFFCCF03C09EEF9093E800982FFE
:101E8000907609F0C6C09E892F89188D91110CC0DB
:101E9000803829F4809198048093F10002C0109258
:101EA000F1001092F10047C1422F50E0512B9130C8
:101EB00051F4811140C14130510509F03CC180917C
:101EC00098048D7F0BC0933061F4811134C141308F
:101ED000510509F030C18091980482608093980484
:101EE0002AC1953041F48091E80080FFFCCF206842
:101EF0002093E30020C1963009F05FC0EB8CFC8C8E
:101F00001092E9001092020510920105123091F52D
:101F1000109200051092FF040E94640E99E0BE0129
:101F20006F5F7F4FDB01E92F1D92EA95E9F79983F7
:101F30001A8391E09E8390EA98879AEF998720917F
:101F4000010530910205275F3F4F3C832B838D8332
:101F50001092E9001092020510920105F09200051E
:101F6000E092FF0449E050E080E00E94030E0E94EE
:101F7000640EE1C0F0920005E092FF040E94661337
:101F8000DC011296ED90FC901397E114F10409F432
:101F9000C0C0D701ED91FC910480F581E02DBE0118
:101FA0006B5E7F4FC7010995009719F00CF0C3C015
:101FB000C6C0F701E084F184E8CF973009F4BFC0D0
:101FC000983021F481E08093F100B5C0993009F098
:101FD000B2C0837009F0B3C0E3EBF1E081E021E02F
:101FE00036E39081992361F08093E9002093EB0020
:101FF00091919093EC003093ED008F5F873089F7DB
:102000008EE78093EA001092EA008F89809304059E
:1020100092C08B8D9C8D1092E90010920205109257
:102020000105909300058093FF04898D811156C0AE
:102030008E899D89913A59F4813209F080C047E038
:1020400050E060E071E080E00E94030E74C09132C5
:1020500009F075C0833289F4888D90E0982F882725
:102060002F89822BA0E0B0E08093080190930901B2
:10207000A0930A01B0930B015EC0803269F4809195
:10208000E80082FFFCCF67E080E091E00E942A0E2A
:102090008BEF8093E80006C0823209F04CC08F8934
:1020A0008093070180919604882319F0EEEFFAE0FF
:1020B00002C0E0E0F8E08091000190910101A09160
:1020C0000201B0910301803B9440A105B10509F0E4
:1020D00088C08091070180FFA0C083C00E94661362
:1020E000DC0112960D911C9113970115110539F120
:1020F000D801ED91FC910190F081E02DBE016B5E65
:102100007F4FC8010995811116C0F801008511851E
:10211000ECCF1130C1F0133091F48F89882309F48A
:1021200055C08230E9F440E862E18FE991E00E9415
:10213000C60D882321F08EEF8093E80087C081E2EE
:102140008093EB0083C08B8D9C8D089711F41093C6
:10215000FE048091FE04811136C062EB71E038C04C
:10216000813029F440E868E086E991E0E0CF8330EF
:1021700031F70E946613DC011296ED90FC901397E4
:102180008E010F5F1F4F6801E114F10479F0D70150
:10219000ED91FC910680F781E02DB801C70109950A
:1021A000080F111DF701E084F184EECFD8011C92D5
:1021B000F60101900020E9F73197BF016C197D0904
:1021C00040E0C601B4CF64EC71E002C062E971E0A6
:1021D0006115710509F4B3CFFB01449150E080E82B
:1021E00033CF0FB6F894A8958091600088618093F2
:1021F0006000109260000FBEA895EE3F2AE0F20743
:1022000039F08091FE0A9091FF0A9183808393CFE9
:102210001092FF0A1092FE0A8ECFEE3F8AE0F80776
:1022200031F0808191819093FF0A8093FE0A87E7C5
:1022300097E7918380839BE088E10FB6F894A89597
:10224000809360000FBE9093600075CF6C960FB6C0
:10225000F894DEBF0FBECDBFDF91CF91FF91EF911C
:10226000BF91AF919F918F917F916F915F914F91AE
:102270003F912F911F910F91FF90EF90DF90CF90A2
:102280000F900FBE0F901F901895BC01009791F012
:10229000FC0101900020E9F73197AF01481B590B71
:1022A000E091A405F091A5050280F381E02D84EA78
:1022B00095E0099480E090E008950C9445118F9288
:1022C0009F92AF92BF920F931F93CF93DF93CDB79F
:1022D000DEB7A1970FB6F894DEBF0FBECDBF19A22F
:1022E000423008F44AE08E010F5D1F4F842E912C7E
:1022F000A12CB12CA50194010E94A41BE62FB901C9
:10230000CA0101501109EA3014F4E05D01C0E95C32
:10231000D801EC93232B242B252B61F7C8010E94B5
:102320004511A1960FB6F894DEBF0FBECDBFDF9169
:10233000CF911F910F91BF90AF909F908F90089574
:10234000BC0180E090E04AE00C945F11CF93DF93F2
:10235000FC0149E18EE261E070E0A3E051E0908190
:102360009076903611F4918105C090819076929587
:102370009F709E5F90931405909114059150109258
:1023800013052FEF30911305391768F430911305B9
:10239000EF01C30FD11D38812327309113053F5F13
:1023A00030931305EFCFEF01C90FD11D2883F894A7
:1023B00090911205913059F490911105981738F0C9
:1023C0001092120590916F009D7F90936F0078940A
:1023D00090911205913039F490911105943108F4DF
:1023E000BECF50E0BCCF90911205911163C0F8941C
:1023F00090916F009F7D90936F00B59B07C0909167
:102400006F00906290936F00789454C0C0910F0554
:10241000D091100598819B0100900E0502C0220FFB
:10242000331F0A94E2F7292B2883209184003091EE
:1024300085002A5A3C4F30930D0520930C052091BE
:102440000C0530910D053093890020938800789415
:10245000F0930B05E0930A051092130510920905FD
:10246000908190930805A093120510921105B19ADE
:1024700090916F00926090936F009091120593304D
:10248000E1F390910905992371F0E0910605F0912F
:102490000705E757FF4F80819181019691838083E3
:1024A00083E090E022C090911205923031F025E057
:1024B00030E005C022E030E002C024E030E022300D
:1024C000310511F451114ACF8B3108F08150415040
:1024D00009F044CF8091A0059091A10501969093B9
:1024E000A1058093A00586E090E0DF91CF9108954B
:1024F000CF93DF93CDB7DEB760970FB6F894DEBF0A
:102500000FBECDBFAC0141505109852F8F709A018C
:10251000369527952F7740FD02C0806401C0806604
:102520006111806192EB99832A838B83CE0101969E
:102530000E94A61160960FB6F894DEBF0FBECDBF05
:10254000DF91CF910895CF92DF92EF92FF92CF93D8
:10255000DF9397FF21C06B017C01E091A405F0910E
:10256000A5050190F081E02D6DE284EA95E00995E2
:10257000EC0166277727CB016C197D098E099F092D
:102580004AE00E945F118C0F9D1FDF91CF91FF9059
:10259000EF90DF90CF9008954AE0DF91CF91FF90C8
:1025A000EF90DF90CF900C945F11CF93DF930E9458
:1025B0004511EC018FEE91E00E9445118C0F9D1F9B
:1025C000DF91CF910895AB01672B59F4E091A405F9
:1025D000F091A5050190F081E02D682F84EA95E047
:1025E0000994682F70E080E090E00C945F11EF9206
:1025F0000F931F93FC0185EE80838FE0818385E03C
:102600008283613029F489E483838BE4848302C06C
:10261000638314828FE185831682508747833287D4
:10262000218714870387E586DF011796AF01425F94
:102630005F4F91E08C9187FF05C02681292B26836F
:102640008F778C93990F1196A417B50799F71F915F
:102650000F91EF9008958032910530F00E94530D54
:10266000805090400C94511B0E94530D805090401C
:102670000E94491B90E00895FC018091040581119E
:1026800003C08FEF9FEF08959FB7F89482E0809387
:10269000E9002091F20030E01216130614F421E054
:1026A00030E02115310559F0289884E68093030520
:1026B0008091F10080838091F200882319F09FBF00
:1026C000C90108958BE68093E800F9CF8091FF055A
:1026D00081110DC082E08093FB0584E08093FC05AE
:1026E0001092FE051092FD0581E08093FF058BEFAF
:1026F00095E00895CF93DF93CDB7DEB768970FB617
:10270000F894DEBF0FBECDBF789484B5826084BDDF
:1027100084B5816084BD85B5826085BD85B58160E5
:1027200085BD80916E00816080936E001092810063
:10273000809181008260809381008091810081601E
:1027400080938100809180008160809380008091DF
:1027500091008260809391008091910081608093CC
:102760009100809190008160809390008091C100E1
:1027700084608093C1008091C10082608093C10019
:102780008091C10081608093C1008091C30081600D
:102790008093C3008091C00082608093C0008091CC
:1027A000C20081608093C20080917A00846080932F
:1027B0007A0080917A00826080937A0080917A001A
:1027C000816080937A0080917A00806880937A009B
:1027D0001092040510929804109297048091D700EB
:1027E00081608093D70080EA8093D80089B58061AA
:1027F00089BD89B5826089BD09B400FEFDCF61E065
:1028000070E080E090E00E94850A8091D8008F7C83
:1028100080618093D8008091E000807F8093E00009
:102820008091E1008E7E8093E1008DE08093E20054
:10283000559A209AEEEFFFE7859194918B3F9C4D3E
:1028400019F481E0809396048FEF9FEF9093B10588
:102850008093B005109107016AE070E080E090E09D
:102860000E94850A1123B1F389EC91E00E94D512F0
:102870008FE8E5E1F5E0DF011D928A95E9F761E077
:1028800085E00E94490AECEFF0E02491EDEDF0E0E4
:10289000E491F0E0EE0FFF1FE653FF4F4591549196
:1028A00080E091E031E0291741F08F5F932F082EEF
:1028B00001C0990F0A94EAF7F6CF509310054093A0
:1028C0000F0580930E0585E195E0909307058093B1
:1028D00006055498E0910F05F0911005208181E0E4
:1028E00090E000900E0502C0880F991F0A94E2F74D
:1028F0008095822380831092800081E08093810004
:1029000010921205B59A80916F00806280936F00DB
:1029100080918100887F81608093810080EE91E0CA
:102920000E945D1168E170E080E090E00E94A312D7
:102930008FEE91E00E94451185E090E00E94491BD6
:102940008093F104F12C18E6412E11E0512E809174
:10295000F104F81608F0B3C16F2C712CC301885F25
:102960009F4F0E94491B282FB4E1B69D8001B79D5F
:10297000100D1124C801815E9F4F288F0E94511BAA
:10298000E82EC8018F5D9F4F0E94511B4C015301DF
:10299000AA0CBB1C288D233009F40CC138F421305B
:1029A00009F4E2C0223009F446C05AC1243009F4C7
:1029B00031C1253609F054C1C8018D5D9F4F0E9479
:1029C000511BD82E8EE090E00E941C1A8C01DC0175
:1029D0001596FC9215971296EC92129714969C926B
:1029E0008E9213974D925C9261E08E2D0E94490A5F
:1029F000F801168260E0C8010E94450A8D2D8170A1
:102A0000D80117968C93179718961C921897E2E89E
:102A1000F1E01196FC93EE9324EF35E01A963C9387
:102A20002E93199788EE93E01C969C938E931B9798
:102A30001D96EC92E9C0C8018D5D9F4F0E94511B0D
:102A40001C01C8018B5D9F4F0E94511B9A8B898B83
:102A5000C801895D9F4F0E94511B9C01C801835D85
:102A60009F4F288F3F8B0E94511BBC01C801815D85
:102A70009F4F6D8B7E8B0E94511B9C8B8B8BC80153
:102A80008F5C9F4F0E94511B182F8EE190E00E9497
:102A90001C1A6C01FC01F582E282948283828AE135
:102AA00091E0918380834091BD04288D3F896D8999
:102AB0007E894C3098F481E0840F8093BD04428B72
:102AC00050E0CA01880F991F480F591FFA01E756B5
:102AD000FB4FA8EBBBE0B283A18303C04FEFF6012D
:102AE000428BD60119963C922E921897E989FA8961
:102AF0001796FC93EE9316971B963C932E931A977A
:102B00001C961C931C9756963C922E92559758965D
:102B10003C922E9257971E967C936E931D972B890D
:102B20003C8950963C932E931F975A961C921E9266
:102B300059975B961C925B975D961C921E925C97D0
:102B4000F501E154FB4FD182C08234E1369DC001D2
:102B5000379D900D1124855D9F4F0E94511BBC0134
:102B6000C6010E9419088EC088E090E00E941C1ADD
:102B70008C01DC011596FC9215971296EC92129737
:102B800014969C928E921397E4E3F1E01196FC93D5
:102B9000EE93FFE0FE1518F42FE012962C9362E0FE
:102BA000D80112968C910E94490AF801168281E0A0
:102BB00087832AC0C8018D5D9F4F0E94511BD82E6C
:102BC00089E090E00E941C1A8C01DC011596FC92B1
:102BD00015971296EC92129714969C928E921397D8
:102BE0004D925C9261E08E2D0E94490AF801168296
:102BF00060E0C8010E94450A8D2D8170D8011796AA
:102C00008C93179718961C92F501E154FB4F118392
:102C1000008338C0C8018D5D9F4F0E94511BC82E94
:102C2000C8018B5D9F4F0E94511BD82EC801895D42
:102C30009F4F0E94511B8C0183E190E00E941C1A5F
:102C4000FC01F582E282948283822EE431E03183BA
:102C50002083C782D08612870187108A17860DC00D
:102C600086E090E00E941C1AFC01ACE9B1E0B1835F
:102C7000A083F582E28294828382D501A154BB4F66
:102C8000ED93FC9382EF91E00E945D116F2D70E057
:102C900080E090E04AE00E945F118FEE91E00E9498
:102CA0004511F501E154FB4F80819181DC01ED91EB
:102CB000FC910480F581E02D0995F39448CE809134
:102CC000F4059091F505892BA1F061E08091F8055C
:102CD0000E94490A61E08091F9050E94490A61E079
:102CE0008091FA050E94490A60E08091FA050E94ED
:102CF000150A1092BE0460E0462E60E0562E70E089
:102D0000A72E70E0B72EE0E08E2EE0E09E2EF0E0E1
:102D10006F2EF0E07F2EFF24FA9450E0252E50E035
:102D2000352E1092F20410E08091F104181708F08B
:102D30004AC0E12FF0E0EE0FFF1FE154FB4F80810E
:102D40009181DC01ED91FC910088F189E02D0995DC
:102D50001F5FEACFE82FF0E0EB5EFA4F108117FF1C
:102D60003BC090919705981751F020919C053091A8
:102D70009D052F5F3F4F30939D0520939C058093C9
:102D80009705F0929805812F8076803619F182950B
:102D90008F708E5F809399058111C6C190919605C1
:102DA0009F5F9093960580919705392F381B97FD6B
:102DB000109296059091990520919805391799F0F0
:102DC0001227109398058091960590919505891387
:102DD000C1CF2BC080E0DECF809199058111DECF7D
:102DE00010939905A1C121130EC090E08B5E9A4FFC
:102DF00040919A0550919B054F5F5F4F50939B0503
:102E000040939A050BC080919C0590919D05019679
:102E100090939D0580939C0580E090E0309196050D
:102E200030939705009761F202C080E090E09093A4
:102E3000F0048093EF04892B09F46EC18FE092E0D7
:102E40000E945D11E091EF04F091F0042181628114
:102E5000962F9F7030E8939FA0011124422B308160
:102E6000323BE9F0DA011196313B09F442C040F4FB
:102E7000333841F1303BB1F1323809F0C6C029C0D6
:102E80003C3B09F44EC020F4343B09F4BBC0BDC048
:102E90003D3B09F441C1303D09F44EC0B6C065FD6B
:102EA00003C081E090E002C082E090E04114510450
:102EB00009F432C1440F551F6071840F951F0E94A1
:102EC00000002AC180E090E0892B09F425C181E04F
:102ED00006C080E090E0892B09F41EC180E00E94CA
:102EE00000001AC1462F40726071CD010E941D057D
:102EF00013C166FF0BC08114910409F40DC1462F64
:102F000040726071CD010E94000006C1A114B1049D
:102F100009F402C1462F40716072CD010E94000089
:102F2000FBC06114710409F4F7C0462F4072607150
:102F3000CD010E940000F0C0822F8076803219F10E
:102F4000803619F08111E8C01EC080E090E0892B26
:102F500009F4E2C0E3808E2D807D803109F0DCC071
:102F6000D48011E001E041E0802F8E2109F040E0A3
:102F7000202F2D21000F612F80E80E9400001F5F8D
:102F8000153089F7C9C02114310409F4C5C0A22F36
:102F9000AF7140E8A49FD0011124A60FB11D25FBFD
:102FA000222720F911968381448150E08D3729F042
:102FB000E0E88E9F400D511D1124992381F092303D
:102FC00081F0943081F0963081F0983081F09A3021
:102FD00081F09C3081F09E3081F0692F0FC061E458
:102FE0000DC062E40BC063E409C064E407C065E49B
:102FF00005C066E403C067E401C068E4CD010E9437
:1030000000008AC02C3309F487C08BE192E00E9453
:103010005D116091EF047091F004072E000C880B95
:10302000990B0E94A3120091EF041091F00481E229
:1030300092E00E945D116AE070E0F80180810E94D8
:10304000E31288E694E00E945D1160E170E0D8012F
:1030500011968C910E94E31288E694E00E945D1123
:1030600060E170E0F80182810E94E31288E694E05A
:103070000E945D1160E170E0D80113968C910E946E
:10308000E31288E694E00E945D1160E170E0F801CF
:1030900084810E94E31288E694E00E945D1160E161
:1030A00070E0D80115968C910E94E31288E694E0B6
:1030B0000E945D1160E170E0F80186810E94E312D8
:1030C00088E694E00E945D116801F7E0CF0ED11C04
:1030D000015F1F4F60E170E0D6018D916D010E948C
:1030E000E31288E694E00E945D11C016D10691F7C4
:1030F00080EF91E00E944511C090EF04D090F00461
:10310000F6018081853E09F458C08D3E09F455C012
:1031100081E192E00E945D1180E090E0892B09F44A
:1031200000CE0E940000F7CD20919705809199056F
:1031300090E0820F911D813891050CF42FCE30E87C
:10314000C32EC21AF8944091950580919605841774
:1031500030F480919705B42FB81B8B2F02C08C2DB3
:10316000840F80939505789480919605481780F494
:10317000D12C50E065E175E0C6018B5E9A4F0E944C
:10318000011A6091970570E06B5E7A4FA60107C047
:1031900060919705461B50E070E06B5E7A4F85E1C9
:1031A00095E00E94011A8091960590919705891BE0
:1031B0008093960510929705F1CD88EF91E00E94DB
:1031C000D512D60111968C9111978F3009F0A0CFAE
:1031D00013968C911397853009F09ACF14968C91A1
:1031E0001497811195CF16966C91F6013796A6012A
:1031F000425F5F4F21E0CF01322F362319F030813B
:1032000030683083220F3196E417F507A9F7F601ED
:1032100016822581203209F482C0213209F078CF4C
:103220000780F085E02DEF3F2FEFF207F9F4D6018C
:1032300019962D913C911A97232BC1F41B962D9131
:103240003C911C972F3F3F4F89F4B601655F7F4F3C
:103250000E94EF028F3709F05BCFF60103851485DA
:1032600047815085E12C20E030E01FC0D6011D963B
:103270002C911D9721111FC01B964D915C911C979D
:1032800019966D917C911A979601255F3F4FCF015A
:103290000E9494038F3709F04BC0F6010385148513
:1032A0002185328547815085E12C6281CE010196CE
:1032B0000E94F71246C027FF21C026FD1FC0B6019D
:1032C000655F7F4F0E944F038F37C1F4F60103857E
:1032D00014854781508580E8E82E20E030E0628147
:1032E000CE0101960E94F7126AE070E080E090E063
:1032F0000E94850ACE0101960E94A611D6011D9654
:103300008C911D9786FF04CF1B966D917C911C9725
:1033100017968D919C9118970E941B03F9CEF60188
:103320004385548561857285878190850E947004EC
:1033300087FDEECED6019C919F7724EB29839A835B
:103340008B83CE0101960E94A611E2CECF93DF932C
:10335000E4EAF5E01382128288EE93E0A0E0B0E0A8
:1033600084839583A683B7838DEB91E091838083DB
:103370008FEF9FEF95878487C4EFD5E081E090E0E1
:103380009B838A8380E18C838AE08D838EE08E83A9
:1033900080E390E00E941C1A9983888320E3FC015B
:1033A00011922A95E9F7DF91CF910895991B79E061
:1033B00004C0991F961708F0961B881F7A95C9F7C5
:1033C00080950895AA1BBB1B51E107C0AA1FBB1F14
:1033D000A617B70710F0A61BB70B881F991F5A95A1
:1033E000A9F780959095BC01CD010895EE0FFF1FC0
:1033F0000590F491E02D099481E090E0F8940C940C
:10340000D51B6817790768F4FB01DC01E40FF51F91
:10341000A40FB51F02C002900E9241505040D8F741
:1034200008950C94131AFB01DC0102C001900D9267
:1034300041505040D8F70895CF93DF9382309105E3
:1034400010F482E090E0E0910906F0910A0620E095
:1034500030E0C0E0D0E0309711F140815181481751
:103460005907C0F04817590761F48281938120976A
:1034700019F09B838A832BC090930A0680930906D8
:1034800026C02115310519F04217530718F49A0187
:10349000BE01DF01EF010280F381E02DDCCF2115B9
:1034A000310509F1281B390B2430310590F41296AF
:1034B0008D919C9113976115710521F0FB01938308
:1034C000828304C090930A0680930906FD01329618
:1034D00044C0FD01E20FF31F819391932250310903
:1034E0002D933C933AC02091070630910806232B78
:1034F00041F420910E0130910F0130930806209382
:10350000070620910C0130910D012115310541F480
:103510002DB73EB74091100150911101241B350B7E
:10352000E0910706F0910806E217F307A0F42E1BBE
:103530003F0B2817390778F0AC014E5F5F4F241717
:10354000350748F04E0F5F1F50930806409307065B
:103550008193919302C0E0E0F0E0CF01DF91CF9141
:1035600008950F931F93CF93DF93009709F48CC0B6
:10357000FC013297138212820091090610910A060B
:103580000115110581F420813181820F931F209153
:103590000706309108062817390779F5F0930806D1
:1035A000E093070671C0D80140E050E0AE17BF07B6
:1035B00050F412962D913C911397AD0121153105D0
:1035C00009F1D901F3CF9D01DA01338322836081B0
:1035D0007181860F971F8217930769F4EC01288188
:1035E0003981260F371F2E5F3F4F318320838A8119
:1035F0009B8193838283452B29F4F0930A06E09301
:10360000090642C01396FC93EE931297ED0149917F
:1036100059919E01240F351FE217F30771F4808141
:103620009181840F951F029611969C938E938281AF
:10363000938113969C938E931297E0E0F0E0D8016B
:1036400012968D919C911397009719F0F8018C01B7
:10365000F6CF8D919C9198012E5F3F4F820F931F63
:1036600020910706309108062817390769F430972A
:1036700029F410920A061092090602C013821282DF
:103680001093080600930706DF91CF911F910F91C9
:103690000895F999FECF92BD81BDF89A992780B51A
:1036A0000895A8E1B0E042E050E00C946C1B262F96
:1036B000F999FECF1FBA92BD81BD20BD0FB6F89417
:1036C000FA9AF99A0FBE019608950E94571B272F68
:1036D0000C94581BDC01CB01FC01F999FECF06C00C
:1036E000F2BDE1BDF89A319600B40D9241505040C0
:1036F000B8F70895052E97FB1EF400940E94911BC5
:1037000057FD07D00E94A41B07FC03D04EF40C9475
:10371000911B50954095309521953F4F4F4F5F4FEE
:10372000089590958095709561957F4F8F4F9F4F2D
:1037300008950E94C61BA59F900DB49F900DA49F55
:10374000800D911D11240895A1E21A2EAA1BBB1B06
:10375000FD010DC0AA1FBB1FEE1FFF1FA217B3075D
:10376000E407F50720F0A21BB30BE40BF50B661F73
:10377000771F881F991F1A9469F760957095809537
:1037800090959B01AC01BD01CF010895A29FB001AE
:10379000B39FC001A39F700D811D1124911DB29F85
:0E37A000700D811D1124911D0895F894FFCF26
:1037AE0000E1000000000000FFFFFFFF00000B061D
:1037BE0080000100000000000000740D8E0D490114
:1037CE0016016A07330132016009850619083108AE
:1037DE0000000000720D7708370135012301330117
:1037EE003201310194012E012B0100000000730DF6
:1037FE0079088D08F907F108330132013101B40857
:10380E002E012B0100000000AB05E4017B080A0825
:10381E003209450A3201310117082E012B01000031
:10382E000000AA05E2013F020A08320964023201D1
:10383E00310117082E012B01000000009807E60148
:10384E003601350134013301320131012F012E01D0
:10385E002B0100C18081000000000000009907BF0D
:10386E000ABA0759083508AF07556E69766572733F
:10387E00616C206465636F6465722076302E300053
:10388E004D61782023206F662070696E733A000DAB
:10389E000A0050696E202300506F737369626C7951
:1038AE002061204C4E4356206D6573736167652E03
:1038BE0000456E64204C6F6F700A004C6F6F702065
:1038CE000020504B543A2000496E70757420706978
:1038DE006E200041726475696E6F2050696E3A20D9
:1038EE00002053747261696768743A200020547521
:1038FE00726E6F75743A20002053706565643A20BD
:10390E000020466565646261636B20736C6F742082
:10391E00313A200020466565646261636B20736CEA
:10392E006F7420323A200020506F77657220736CCE
:10393E006F743A200053746174652070696E2000B4
:10394E00206368616E67656420746F200052657035
:10395E006F7274696E6720736C6F742000205374DD
:10396E006174653A2000544C433539343720706900
:10397E006E200020696E74656E7369747920002064
:10398E004C4E20416464726573733A20004469732F
:10399E00636F7665723A20006E6F746966794C4E6D
:1039AE00435670726F6772616D6D696E6753746F97
:1039BE00702000456E642050726F6772616D696E83
:1039CE0067204D6F64652E0A0057726F6E67204137
:1039DE0072746E722E0A0057726F6E67204D6F648E
:1039EE00756C6520416464726573732E0A004967B5
:1039FE006E6F72696E6720526571756573742E0AEB
:103A0E000050726F6772616D6D696E6720737461BD
:103A1E007274656400456E746572206E6F746966AB
:103A2E00794C4E4356726561642800290A000A4596
:103A3E006570726F6D20616464726573733A2000F5
:103A4E00204C4E43562056616C75653A20004172EB
:103A5E00744E7220696E76616C69642E0A00456E32
:103A6E00746572206E6F746966794C4E4356777228
:103A7E006974652800536C6F743A200020536C6F84
:103A8E007443563A20004172746E7220496E76610C
:103A9E006C69642E0A00436C6F736564005468721F
:103AAE006F776E004F6E004F6666005377697463D2
:103ABE006820526571756573743A2000202D2000C0
:103ACE005468726F776E207377697463683A20005A
:103ADE0020746F203A00417474616368656420211C
:103AEE000A004F75747075742070696E20004475ED
:103AFE00616C20616374696F6E20736C6F742C201F
:103B0E00616464726573732C200054726967676513
:103B1E0072696E6720736C6F7473004163633A2031
:103B2E0000537472616967687400446573747275CA
:063B3E0063746F722100A8
:00000001FF
