:100000000C94EC000C9414010C9414010C94140145
:100010000C9414010C9414010C9414010C9414010C
:100020000C9414010C9414010C949A0E0C940C0F63
:100030000C9414010C9414010C9414010C941401EC
:100040000C94250D0C94990B0C9414010C94140130
:100050000C9414010C9414010C9414010C944F0B87
:100060000C9414010C9414010C9414010C941401BC
:100070000C9414010C9414010C9414010C941401AC
:100080000C9465050C9414010C9414010C94140147
:100090000C9414010C9414010C9414010C9414018C
:1000A0000C9414010C9414010C941401F409F70934
:1000B000E609EA09F009180A180A180AFB09FF09F3
:1000C000030A090A0D0A180A130A00000000250095
:1000D00028002B002E00310004040404040304054E
:1000E00002020202040302020202060606060606D5
:1000F00004040202020404040802011040804010BB
:10010000204080408008020401804020100201103D
:10011000801020404020000000002300260029001D
:100120002C002F0000000000240027002A002D00D2
:1001300030000000000200090F0000030401000C61
:1001400000000000000000000000000000000000AF
:10015000080B000202020100090400000102020073
:1001600000052400100105240101010424020605F4
:100170002406000107058103100040090401000264
:100180000A00000007050202400000070583024044
:10019000000004030904537061726B46756E0053CE
:1001A0007061726B46756E2050726F204D6963727C
:1001B0006F0012010002000000404F1B0692000178
:1001C0000102030112010002EF0201404F1B0692DF
:1001D000000101020301BB1911241FBECFEFDAE0B9
:1001E000DEBFCDBF14E0A0E0B1E0E8EDF7E302C070
:1001F00005900D92A43AB107D9F726E0A4EAB4E03D
:1002000001C01D92A931B207E1F710E0CCEED0E0B9
:1002100004C02197FE010E940B1ACB3ED107C9F7FB
:100220000E9470130C94EA1B0C940000DC01ED9109
:10023000FC91119751966C9121E062270084F18521
:10024000E02D40E00994FC01662319F091E0942729
:1002500097834683089580E090E00895089580E0B4
:100260000895089508950895089508950895CF93E1
:10027000DF93EC0186E392E00E9461116AE070E096
:100280008A810E94D9128EED91E0DF91CF910C947A
:1002900061110F931F93CF93DF93EC012A812223E7
:1002A00009F130E0F901EE5CFE4F8491F901E9506B
:1002B000FF4F0491F901E852FF4F1491112379F097
:1002C00081110E94DC09E12FF0E0EE0FFF1FEA5ED2
:1002D000FE4FA591B491EC91E02381E009F480E018
:1002E00081708E836E818F816817D9F08B819C819C
:1002F0000E947C1281E492E00E9461116AE070E049
:100300008A810E94D9128CE492E00E9461116E8170
:1003100070E080E090E00E94A7128E818F8381E0E0
:1003200001C080E0DF91CF911F910F9108950C944F
:10033000C61A0C94C61A0C94C61A0F931F93CF9327
:10034000DF93EC018B0189E592E00E946111CE01FF
:100350000E94A4118EE892E00E946111CC0FDD1F73
:10036000C453DB4FE881F981838194810E94A411F9
:1003700089E692E00E946111B80180E090E04AE0D5
:100380000E9463118DED91E00E944911E881F9818D
:10039000602F83819481DF91CF911F910F910C94F5
:1003A0007C12CF93DF93EC012C8D3D8D8D859E8546
:1003B0002130310519F460E070E005C02989211170
:1003C00007C061E070E00E949D0160E070E006C03F
:1003D00060E070E00E949D0161E070E08F85988987
:1003E000DF91CF910C949D01CF93DF93EC0182E7D5
:1003F00092E00E9461116AE070E08D850E94D9123E
:100400008FE792E00E9461118B859C850E94A41168
:100410008BE892E00E9461116B817C8180E090E02A
:100420004AE00E9463118DED91E0DF91CF910C9431
:100430004911AF92BF92CF92DF92EF92FF920F934A
:100440001F93CF93DF93FC01238534859585C18568
:10045000D285892F90E0EA81FB8178E17E9FA0011F
:100460007F9F500D11244817590798F0880F991F46
:10047000E881F981E80FF91F629FC001639F900D29
:100480001124811520E1920710F08FEF9FE09183F6
:10049000808360E08E810E94190A8A819B8128E115
:1004A000289F8001299F100D1124680181E0C81A3E
:1004B000D10801501048000F111FAA24A394B12C99
:1004C000D7FC2CC08BE0E82EF12C60E08C810E94E0
:1004D000190AE881F981E00FF11F8081918195016E
:1004E0000E2C02C0220F331F0A94E2F782239323BB
:1004F000892B11F061E001C060E08D810E94190A32
:1005000061E08C810E94190A21E0E21AF108E8F604
:1005100021E0C21AD10802501109D2CF60E08C81CB
:100520000E94190A61E08E810E94190A60E08E81A2
:10053000DF91CF911F910F91FF90EF90DF90CF90BF
:10054000BF90AF900C94190A0F931F93CF93DF9332
:100550008C01EB0189E992E00E946111F801808130
:1005600091810E94A41161E177E280E090E00E9415
:10057000A71280E090E00E945E1B282F30E03983B4
:10058000288381E197E2F8019183808388819981B2
:100590000E94A4118FE7DF91CF911F910F910895D1
:1005A0000F931F93CF93DF938C01EB0184EA92E0CA
:1005B0000E946111809100058823F1F001311742FA
:1005C000A9F480E090E00E945E1B90E0C817D90774
:1005D00081F4109200058FEB92E00E9461110C945F
:1005E0000000DF91CF911F910F91089585ED92E06A
:1005F00005C083EE92E002C08AEF92E0DF91CF91D6
:100600001F910F910C946111EF92FF920F931F9322
:10061000CF93DF937C018B0180E090E00E945E1B12
:10062000C82FD0E0F701808191810E94A411F801C8
:10063000808191810E94A411CE010E94A411F70132
:100640008081918181319742D1F4F801808191813B
:100650008C179D0741F481E0809300058DE093E0C5
:100660000E9461110AC0019651F480E090E00E945E
:100670005E1B90E0F801918380838FE703C01092A6
:1006800000058FEFDF91CF911F910F91FF90EF90B9
:100690000895CF92DF92EF92FF920F931F93CF9323
:1006A000DF9300D0CDB7DEB76C018B01790181E219
:1006B00093E00E946111C6010E94A41183E194E0BD
:1006C0000E946111C8010E94A41183E194E00E947C
:1006D000611183E194E00E946111F70180819181B1
:1006E0000E94A41187E393E00E94611180910005AC
:1006F000882309F498C0F1E1CF16F7E2DF0609F08C
:100700008FC00530110519F488E190E080C00034F5
:10071000F1E01F0700F5C8010E942113F701918342
:1007200080838AE393E00E946111C8010E94570D03
:10073000805090400E94A4118CE493E00E946111CB
:10074000F701808191810E94A4118EED91E00E94B9
:1007500061118FE76FC00F3FF3E01F0719F488EDB9
:1007600097E255C00115F4E01F0781F4809115064A
:1007700090911606009711F489E196E09E012F5F93
:100780003F4FA901481B590BCA0141C00130F4E099
:100790001F0729F48091A4049091A50438C0023069
:1007A000F4E01F0729F48091190690911A062FC0D2
:1007B0000330F4E01F0719F48DB79EB728C0C801B5
:1007C000845094400597A8F50630F4E01F07B1F077
:1007D00020F40530144069F007C0073084E01807A2
:1007E00091F008301440B9F08091A8059091A905C6
:1007F0000EC08091AA059091AB0509C08091AC050F
:100800009091AD0504C08091AE059091AF05F701C0
:10081000918380839ECF8091B0059091B105F7CFF1
:100820008AE593E002C08AEF92E00E9461118FEFA7
:1008300001C081E00F900F90DF91CF911F910F9138
:10084000FF90EF90DF90CF900895BF92CF92DF920C
:10085000EF92FF920F931F93CF93DF936C01062FBC
:10086000B42E8FE793E00E946111C6010E94A4118B
:10087000E091B205F091B3050190F081E02D6AE3BB
:1008800082EB95E00995B11003C081E793E002C0C7
:100890008AE693E00E94611180E993E00E94611171
:1008A000011103C08BE793E002C088E793E00E9448
:1008B00049118DED91E00E944911CCECD4E08BE21E
:1008C000E82E80E0F82E10E0A881B98113968D9172
:1008D0009C9114978C159D05B9F5ED91FC9111979C
:1008E00041E0011101C040E061E0B11001C060E0F1
:1008F0000084F185E02DCD01099588819981DC0185
:10090000ED91FC910488F589E02D0995BC01C701A2
:100910000E947A1B84E993E00E9461116AE070E012
:10092000812F0E94D91284EA93E00E94611188818C
:100930009981DC01ED91FC910684F785E02D099504
:100940008EED91E00E9461111F5F2296B4E1EB0EE3
:10095000F11C183109F0B8CFDF91CF911F910F91A1
:10096000FF90EF90DF90CF90BF900895CF92DF92ED
:10097000EF92FF920F931F93CF93DF932091000587
:10098000222309F48FC0052F142FEB017C018AEA82
:1009900093E00E946111C7010E94A41183E194E0D9
:1009A0000E946111CE010E94A41183E194E00E9493
:1009B000611183E194E00E946111812F902F0E94C8
:1009C000A41187E393E00E94611181E1E81687E2B8
:1009D000F80609F063C0C034A1E0DA0708F064C08B
:1009E000CE010E94570D7C010E94A411C032D10596
:1009F00010F082E001C081E06AE070E00E94D9124C
:100A00006AE070E0812F0E94D912C70180509040A7
:100A1000C032D10508F44AC0612F702F0E947A1BA2
:100A2000CE010E9421130E94A411A097CE016AE07A
:100A300070E00E94F7196B018EED91E00E94611148
:100A400081EC93E00E9461116AE070E08C2D0E94BD
:100A5000D91288EC93E00E9461117601FF24BAE07C
:100A6000CB9EC019D1091124CE010E94A4118EED94
:100A700091E00E946111F701EE0FFF1FE453FB4F5D
:100A800080819181DC01ED91FC910484F585E02D5C
:100A9000412F502FBE0109958FE70CC082ED93E0E6
:100AA0000E9461118FEF06C081E004C0612F0E9497
:100AB0006C1BB6CFDF91CF911F910F91FF90EF90FC
:100AC000DF90CF900895089508951F920F920FB66A
:100AD0000F9211242F933F934F935F936F937F93C4
:100AE0008F939F93AF93BF93EF93FF9380910105F3
:100AF00087FF05C010929500109294001BC02091B2
:100B00000105022E000C330B8091CB0490E02817D6
:100B1000390784F480910105082E000C990BFC0123
:100B2000EE0FFF1F8E0F9F1FFC01E955FB4F8081C9
:100B300086FD15C0809101058F5F8093010520918E
:100B40000105022E000C330B8091CB0490E0281796
:100B50003907C4F4809101058C3064F113C0809191
:100B60000105082E000C990BFC01EE0FFF1F8E0FE4
:100B70009F1FFC01E955FB4F808160E08F730E944D
:100B8000190AD8CF809194009091950004968034F2
:100B90009C4918F480E49CE905C0809194009091F0
:100BA0009500049690939900809398008FEF80931E
:100BB00001053BC020919400309195008091010582
:100BC000082E000C990BFC01EE0FFF1F8E0F9F1FCC
:100BD000FC01E955FB4F81819281820F931F909315
:100BE00099008093980080910105082E000C990BC4
:100BF000FC01EE0FFF1F8E0F9F1FFC01E955FB4FFD
:100C0000808186FF12C080910105082E000C990B8F
:100C1000FC01EE0FFF1F8E0F9F1FFC01E955FB4FDC
:100C2000808161E08F730E94190AFF91EF91BF915B
:100C3000AF919F918F917F916F915F914F913F9174
:100C40002F910F900FBE0F901F901895883191052E
:100C5000A0F4880F991FFC01E453FB4F8081918120
:100C6000DC01ED91FC9121E0672B09F420E0008488
:100C7000F185E02D40E0622F099408951F93CF93F2
:100C8000DF93EC016C8D7D8D6230710531F12D8922
:100C90003E898F89988D2817390721F0F901E81BC3
:100CA000F90B02C0E0E0F0E0498D5A8DCA0157FF10
:100CB00004C088279927841B950BE817F90778F457
:100CC00082E090E09D8F8C8F8C8560E070E090E0FA
:100CD0000E942606CE010E94D10180E0B0C08B8D1B
:100CE0008F5F8B8F6130710509F04BC08B3F10F423
:100CF00081E0A5C0420F531F5E8B4D8B2A892C309B
:100D000070F53B8988E890E0831B910937FD939546
:100D1000880F991F880F991F481759077CF03C8945
:100D200088E592E0831B910937FD9395880F991F01
:100D3000880F991F481759070CF4CA010297880FAA
:100D4000991F4FB7F89430E0F901EE0FFF1F2E0FF7
:100D50003F1FF901E955FB4F928381834FBF1B8EE3
:100D6000898D9A8D892B21F62F89388D8D899E89C1
:100D70002817390709F0BCCF81E090E09A8F898F5E
:100D80005EC0672B09F0A9CF8B3F08F4A6CF1A816C
:100D90008A898C3008F04BC061E0812F0E944D0A97
:100DA0008A89E82FF0E09F01220F331FE20FF31F23
:100DB000E955FB4F1F739081907C192B10831B8A80
:100DC0001C8A6CE00E94EB199CE0899FB001112401
:100DD00040E050E09A01260F371FF901EE0FFF1F88
:100DE0002E0F3F1FF901E955FB4F908196FD13C06F
:100DF0004F5F5F4F4C30510569F781110CC0109265
:100E0000900082E0809391001092950010929400DF
:100E100088BB80937100EA89F0E0CF01880F991FA9
:100E2000E80FF91FE955FB4F80818064808382EED3
:100E300093E00E94611181E090E09D8F8C8FDF91A3
:100E4000CF911F9108951F93CF93DF93EC01162F3D
:100E5000662319F08E819F8102C088859985988FBD
:100E60008F8B4F89588D2D893E898A859B854217A6
:100E7000530718F49195819591099A8F898F8C85E4
:100E800061E070E090E00E942606CE010E94D10150
:100E9000198B81E090E09D8F8C8FDF91CF911F9116
:100EA00008950895CF93DF931F92CDB7DEB769837E
:100EB000DC01ED91FC910280F381E02D41E050E0F6
:100EC000BE016F5F7F4F09950F90DF91CF9108951D
:100ED00083E08093E9008091F200882319F08AE38F
:100EE0008093E8000895FC018485958597FD0BC0EB
:100EF0009FB7F89482E08093E9008091F2009FBF51
:100F000090E0019608959FB7F89482E08093E900FD
:100F10008091F2009FBF90E008953FB7F8948091D0
:100F2000070590910805A0910905B0910A0526B51D
:100F3000A89B05C02F3F19F00196A11DB11D3FBF11
:100F4000BA2FA92F982F8827820F911DA11DB11D9F
:100F5000BC01CD0142E0660F771F881F991F4A959B
:100F6000D1F70895DC01ED91FC91119761E01F9696
:100F70002D913C915097232B09F060E00084F1857E
:100F8000E02D41E00994DC01ED91FC91119716965A
:100F90006C9121E062270084F185E02D41E0099405
:100FA00080E00895FC0181E0672B09F480E0818BEB
:100FB000882319F08681978102C080859185908F62
:100FC000878B8789908D968B858B128E118E158ECF
:100FD000148E0895FC01818990E008950F931F936A
:100FE000CF93DF931F92CDB7DEB78C01FC018485D0
:100FF000958597FF0EC0CE0101960E94321301978E
:1010000019F4298130E002C02FEF3FEFF801358756
:101010002487F801848595850F90DF91CF911F91EA
:101020000F910895CF93DF931F92CDB7DEB7FC01E8
:101030008485958597FD05C02FEF3FEF3587248781
:101040000BC0CE0101960E943213019719F48981D9
:1010500090E002C08FEF9FEF0F90DF91CF91089546
:101060000C94C61A0C94C61ACF93DF93EC018EEE43
:1010700093E00E9461116AE070E08A810E94D912B7
:101080008EED91E0DF91CF910C946111CF93DF93BE
:10109000EC018AEF93E00E9461118B819C810E9498
:1010A000A4118EED91E00E94611186E194E00E940E
:1010B00061116AE070E08F810E94D91284E194E0AE
:1010C0000E9461116AE070E088850E94D9128EED5D
:1010D00091E0DF91CF910C946111CF93DF93EC01FC
:1010E00087E294E00E9461116AE070E08A810E94C8
:1010F000D91285E394E00E946111888599850E9448
:10110000A41181E494E00E9461118E819F810E946C
:10111000A4118EE892E00E9461118B819C810E9453
:10112000A4118CE494E00E9461118A859B850E9441
:10113000A41185E594E00E9461118D859E850E9431
:10114000A41188E694E00E9461118F8598890E941D
:10115000A4118BE794E00E9461116AE070E08C8535
:101160000E94D9128EED91E0DF91CF910C94611124
:10117000CF93DF93EC018F859889892B81F18FB70D
:10118000F894409103055091040560910505709114
:1011900006058FBF8B859C85AD85BE85481B590B89
:1011A0006A0B7B0B89859A85A0E0B0E084179507D0
:1011B000A607B707B0F48A89882341F08F859889FC
:1011C000019721F4888561E070E003C08F8160E0C1
:1011D00070E090E00E942606188A1F8602C080E018
:1011E00001C081E0DF91CF9108950F931F93CF93BA
:1011F000DF93EC0129896217A1F18F859889892BEA
:1012000081F5E62FF0E030E091E02E173F070CF07B
:1012100090E0042F162F9A8B992341F081E090E003
:10122000988B8F878F8161E070E007C081E090E04C
:10123000988B8F87888560E070E090E00E9426069A
:101240000111198B2FB7F894809103059091040533
:10125000A0910505B09106052FBF8B879C87AD87B0
:10126000BE87DF91CF911F910F9108951F93CF9368
:10127000DF93EC01162F8F81882371F08885662318
:1012800011F08F5F01C081508887888518161CF087
:10129000188610E001C011E089E894E00E94611115
:1012A0006885062E000C770B880B990B0E94A712FD
:1012B0001E83E881F9810284F385E02D612FCE0140
:1012C000DF91CF911F9109948F929F92AF92BF921D
:1012D000CF92DF92EF92FF92CF93DF93EC01898957
:1012E000882319F08FE894E002C081E793E00E9420
:1012F00061118C8928E532E06901C81AD10887FD9F
:10130000D394CC0CDD1CCC0CDD1C0D2C000CEE0899
:10131000FF088B8928E830E04901881A910887FD89
:101320009394880C991C880C991C092C000CAA0811
:10133000BB088A898F3FC1F090E0FC01EE0FFF1FD0
:101340008E0F9F1FFC01E955FB4F2181328143E045
:10135000220F331F4A95E1F754E0369527955A95A9
:10136000E1F72E5F3F4F02C020E030E02F5F3F4F9C
:10137000C901330FAA0BBB0B9C01AD012819390918
:101380004A095B09A4EBB0E00E94AE1BA7019601DD
:10139000281939094A095B090E948F1BCA01B90142
:1013A000DF91CF91FF90EF90DF90CF90BF90AF9003
:1013B0009F908F900C94A71290E0FC013197EF3032
:1013C000F105B0F5EA5AFF4F0C940B1A809180009A
:1013D0008F7703C0809180008F7D80938000089577
:1013E00080918000877FF9CF84B58F7702C084B564
:1013F0008F7D84BD0895809190008F7707C0809184
:1014000090008F7D03C080919000877F8093900033
:1014100008958091C0008F7703C08091C0008F7DB8
:101420008093C00008958091C200877F8093C2009E
:1014300008951F93CF93DF93282F30E0F901EE5CDE
:10144000FE4F8491F901E950FF4FD491F901E85220
:10145000FF4FC491CC23C9F0162F81110E94DC09E3
:10146000EC2FF0E0EE0FFF1FE653FF4FA591B49174
:101470008FB7F894111105C09C91ED2FE095E923E9
:1014800002C0EC91ED2BEC938FBFDF91CF911F91B8
:101490000895FC0182810C94190ACF93DF9390E0A8
:1014A000FC01E950FF4F2491FC01E852FF4F849169
:1014B000882361F190E0880F991FFC01EC5DFE4FDD
:1014C000C591D491FC01E653FF4FA591B4916111F0
:1014D00009C09FB7F8948881209582238883EC9176
:1014E0002E230BC0623061F49FB7F8943881822FAD
:1014F000809583238883EC912E2B2C939FBF06C06D
:101500008FB7F894E8812E2B28838FBFDF91CF917E
:1015100008958F929F92AF92BF92CF92DF92EF92F7
:10152000FF926B017C010E948D074B015C01C1148D
:10153000D104E104F104F1F00E948D07DC01CB013C
:1015400088199909AA09BB09883E9340A105B105EC
:1015500070F321E0C21AD108E108F10888EE880E84
:1015600083E0981EA11CB11CC114D104E104F10454
:1015700019F7DDCFFF90EF90DF90CF90BF90AF9045
:101580009F908F9008958F929F92AF92BF92CF922B
:10159000DF92EF92FF920F931F93CF93DF935C0143
:1015A0006B018A0180910701882309F45EC0809154
:1015B0001205882309F459C08091A50480FF05C055
:1015C0008091E00082608093E000E8018AEFF82ECD
:1015D00093E0E92E2FE3822E3AE3932E209709F42D
:1015E0003DC08FB7F894E092E9009091E80095FF34
:1015F00006C09091F200282D291B922F01C090E087
:101600008FBF91110AC0FA94FF2079F161E070E078
:1016100080E090E00E94890AE1CF292F30E0C217D4
:10162000D3070CF49C2F8FB7F894E092E900209137
:10163000E80025FF11C0292F30E0C21BD30BF601B3
:10164000915020F041914093F100FACFC20ED31E89
:101650009091E80095FF13C08FBFC0CF5D9884E6DE
:1016600080930B051016110644F081E090E0F5011F
:101670009383828380E090E005C0C80103C090920C
:10168000E800EACFDF91CF911F910F91FF90EF908B
:10169000DF90CF90BF90AF909F908F9008951F9252
:1016A0000F920FB60F9211242F933F938F939F9316
:1016B000AF93BF938091030590910405A091050518
:1016C000B09106053091020523E0230F2D3720F459
:1016D0000196A11DB11D05C026E8230F0296A11D8C
:1016E000B11D209302058093030590930405A093F8
:1016F0000505B09306058091070590910805A09116
:101700000905B0910A050196A11DB11D8093070539
:1017100090930805A0930905B0930A05BF91AF9176
:101720009F918F913F912F910F900FBE0F901F901F
:1017300018951F920F920FB60F9211242F933F937B
:101740004F935F936F937F938F939F93AF93BF93C9
:10175000CF93DF93EF93FF9380911A0590911B0530
:1017600080549C4F90931B0580931A0580911A0515
:1017700090911B05909389008093880080911F05AC
:101780008F5F80931F05809120058430E1F5809163
:101790001F05893078F48091160590E0959587951E
:1017A000809316054C9B3EC18091160580688093FE
:1017B000160538C1B59A80916F00806280936F00E2
:1017C00080911405909115054C9909C0FC01E957C9
:1017D000FF4F808191810196918380830FC040915A
:1017E0001605FC01E058FF4F308121E0230F2083D4
:1017F000DC01A30FB11D4C9327FD108210921F0531
:1018000081E08093200580912005833009F0B4C0E9
:10181000E0911D05F0911E05408120911C0599B1B4
:1018200050E0022E02C0559547950A94E2F7892FA1
:1018300090E034E0959587953A95E1F784279527D0
:1018400080FD04C010921F0582E094C080911F05A6
:101850008930F0F480911605308180FF09C081E065
:1018600090E001C0880F2A95EAF78095832307C08E
:1018700081E090E001C0880F2A95EAF7832B8083EE
:101880008091160590E0959587958093160574C014
:1018900080911F05893059F4308181E090E001C0CA
:1018A000880F2A95EAF780958323808365C080910D
:1018B00021058F5F8093210590912205891748F5B6
:1018C00010921F05A0911805B0911905809121056E
:1018D000A80FB11D8C9180931605308181E090E0B6
:1018E00001C0880F2A95EAF7832B808380918400BA
:1018F000909185008A5A9C4F90931B0580931A05FE
:1019000080911A0590911B0590938900809388001F
:1019100033C081E080931705E0911805F091190517
:10192000409114055091150580818076803611F420
:10193000818105C08081807682958F708E5F20E0E6
:1019400030E0DA01A058BF4F281788F4EF01C20F2A
:10195000D31F78816C9191E0960F9C93EA01C60F9A
:10196000D11D788397FD1C922F5F3F4FEDCF1092D2
:101970001F0581E080932005809120058230D1F5FC
:1019800080911F05811111C0E0911D05F0911E0588
:10199000208181E090E000901C0502C0880F991F13
:1019A0000A94E2F7822B808325C080911F058F3037
:1019B00008F1E0911D05F0911E05208181E090E085
:1019C00000901C0502C0880F991F0A94E2F78095C9
:1019D0008223808310921F0581E080932005E0918F
:1019E0001405F0911505E357FF4F80819181019611
:1019F00091838083809120058130A1F480911F051F
:101A0000811105C0B59A80916F00806209C08091F4
:101A10001F05883338F01092200580916F008D7F6C
:101A200080936F00FF91EF91DF91CF91BF91AF91C4
:101A30009F918F917F916F915F914F913F912F91E6
:101A40000F900FBE0F901F9018951F920F920FB618
:101A50000F9211248F939F93EF93FF93EFE6F0E0A3
:101A600080818F7D80838091860090918700805651
:101A70009A4F90931B0580931A0580911A059091B7
:101A80001B059093890080938800B19A80818260C1
:101A9000808384E08093200510921F05FF91EF91D1
:101AA0009F918F910F900FBE0F901F9018958032CD
:101AB000910510F4019708959C0120523109C90144
:101AC0006AE070E00E94F71944E1649FC0011124AC
:101AD000AC01415E5F4FC9017AE0679F80199109AF
:101AE0001124880F991F840F951F08950895089554
:101AF000CF93DF93EC018AE191E09983888388E9B1
:101B000094E00E946111EA89F0E0CF01880F991FEB
:101B1000E80FF91FE955FB4F80818F7B8083DF91B0
:101B2000CF910895CF93DF93EC010E94780DCE0101
:101B3000DF91CF910C94C61A40910F05509110057A
:101B400020910D0530910E0542175307B4F4909182
:101B5000E8009570E1F39091E80092FD19C0809340
:101B6000F10080910F059091100501968F739927D0
:101B7000892B19F48EEF8093E80080910F059091E6
:101B8000100501969093100580930F0581E008954C
:101B900080E00895CF92DF92EF92FF920F931F9310
:101BA000CF93DF931F92CDB7DEB7182F062FE42E09
:101BB000862F880F8E5F99830E949C0D83E00E9480
:101BC0009C0DF12EC12E9981D92E8C2D8F19801745
:101BD00098F4F601E7FE02C0849101C080810E9462
:101BE0009C0D182F80E00E949C0D8123FFEFCF1ADF
:101BF000DF0A8111EACF01C081E00F90DF91CF9120
:101C00001F910F91FF90EF90DF90CF900895DF929A
:101C1000EF92FF920F931F93CF93DF93D82E8A01F9
:101C20007B01E40EF51EEB01CE15DF0571F0D7FE4A
:101C300003C0FE01849101C088810E949C0D219601
:101C40008111F2CF8FEF9FEF01C0C801DF91CF91DB
:101C50001F910F91FF90EF90DF900895615030F049
:101C60002091F100FC0120830196F8CF289884E6AA
:101C7000809311050895CF92DF92EF92FF920F9318
:101C80001F93CF93DF936C017A018B01C0E0D0E00A
:101C9000CE15DF0589F0D8016D918D01D601ED914A
:101CA000FC910190F081E02DC6010995892B11F47A
:101CB0007E0102C02196ECCFC701DF91CF911F9129
:101CC0000F91FF90EF90DF90CF9008950E94111A2E
:101CD0000F931F93CF93DF931F92CDB7DEB782E0B0
:101CE000898342E450E060E571E080E80E94070EDD
:101CF0000E945C13DC0112960D911C911397011543
:101D0000110569F0D801ED91FC910280F381E02D7D
:101D1000BE016F5F7F4FC801099597FF07C089819A
:101D20000F90DF91CF911F910F910895F8010085D9
:101D30001185E5CF1F920F920FB60F9211248F934A
:101D40009F938091E1009091E100937F9093E10057
:101D500083FF0FC01092E90091E09093EB00109286
:101D6000EC0092E39093ED001092120598E09093AE
:101D7000F00082FF20C093E09093E9009091F20080
:101D8000992319F09AE39093E80090910B05992319
:101D900039F090910B05915090930B05992389F19F
:101DA00090911105992339F09091110591509093DC
:101DB0001105992341F184FF10C08091E2008E7ECD
:101DC00081608093E2008091E1008F7E8093E1004A
:101DD0008091A5048E7E806111C080FF16C0809125
:101DE000E2008E7E80618093E2008091E1008E7E31
:101DF0008093E1008091A5048E7E81608093A5048C
:101E000004C05D9ACDCF289AD6CF9F918F910F9025
:101E10000FBE0F901F9018951F920F920FB60F9242
:101E20001124CF92DF92EF92FF920F931F932F9383
:101E30003F934F935F936F937F938F939F93AF9352
:101E4000BF93EF93FF93CF93DF93CDB7DEB76C973C
:101E5000DEBFCDBF1092E9008091E80083FFFAC198
:101E600068E0CE0145960E942E0E82EF8093E80036
:101E70008D8987FF05C09091E80090FFFCCF03C0DB
:101E80009EEF9093E800982F907609F0C6C09E8947
:101E90002F89188D91110CC0803829F48091A604E7
:101EA0008093F10002C01092F1001092F10047C13E
:101EB000422F50E0512B913051F4811140C14130FB
:101EC000510509F03CC18091A6048D7F0BC0933071
:101ED00061F4811134C14130510509F030C1809164
:101EE000A60482608093A6042AC1953041F48091B3
:101EF000E80080FFFCCF20682093E30020C19630EB
:101F000009F05FC0EB8CFC8C1092E9001092100578
:101F100010920F05123091F510920E0510920D05DA
:101F20000E94680E99E0BE016F5F7F4FDB01E92FD1
:101F30001D92EA95E9F799831A8391E09E8390EACE
:101F400098879AEF998720910F0530911005275FA8
:101F50003F4F3C832B838D831092E9001092100534
:101F600010920F05F0920E05E0920D0549E050E049
:101F700080E00E94070E0E94680EE1C0F0920E05FC
:101F8000E0920D050E945C13DC011296ED90FC902E
:101F90001397E114F10409F4C0C0D701ED91FC914D
:101FA0000480F581E02DBE016B5E7F4FC70109956E
:101FB000009719F00CF0C3C0C6C0F701E084F184AB
:101FC000E8CF973009F4BFC0983021F481E08093C6
:101FD000F100B5C0993009F0B2C0837009F0B3C008
:101FE000E3EBF1E081E021E036E39081992361F0B9
:101FF0008093E9002093EB0091919093EC00309353
:10200000ED008F5F873089F78EE78093EA001092AA
:10201000EA008F898093120592C08B8D9C8D10925F
:10202000E9001092100510920F0590930E05809311
:102030000D05898D811156C08E899D89913A59F47B
:10204000813209F080C047E050E060E071E080E05C
:102050000E94070E74C0913209F075C0833289F472
:10206000888D90E0982F88272F89822BA0E0B0E000
:102070008093080190930901A0930A01B0930B018A
:102080005EC0803269F48091E80082FFFCCF67E097
:1020900080E091E00E942E0E8BEF8093E80006C056
:1020A000823209F04CC08F89809307018091A4048B
:1020B000882319F0EEEFFAE002C0E0E0F8E080914A
:1020C000000190910101A0910201B0910301803BB8
:1020D0009440A105B10509F088C08091070180FFF7
:1020E000A0C083C00E945C13DC0112960D911C916C
:1020F00013970115110539F1D801ED91FC9101906B
:10210000F081E02DBE016B5E7F4FC8010995811102
:1021100016C0F80100851185ECCF1130C1F01330E5
:1021200091F48F89882309F455C08230E9F440E89E
:1021300062E18FE991E00E94CA0D882321F08EEFC1
:102140008093E80087C081E28093EB0083C08B8D91
:102150009C8D089711F410930C0580910C0581114A
:1021600036C062EB71E038C0813029F440E868E0A5
:1021700086E991E0E0CF833031F70E945C13DC0107
:102180001296ED90FC9013978E010F5F1F4F680120
:10219000E114F10479F0D701ED91FC910680F7810B
:1021A000E02DB801C7010995080F111DF701E08462
:1021B000F184EECFD8011C92F60101900020E9F7DE
:1021C0003197BF016C197D0940E0C601B4CF64ECC2
:1021D00071E002C062E971E06115710509F4B3CFE5
:1021E000FB01449150E080E833CF0FB6F894A895F6
:1021F00080916000886180936000109260000FBE43
:10220000A895EE3F2AE0F20739F08091FE0A9091FE
:10221000FF0A9183808393CF1092FF0A1092FE0AE7
:102220008ECFEE3F8AE0F80731F080819181909364
:10223000FF0A8093FE0A87E797E7918380839BE0FC
:1022400088E10FB6F894A895809360000FBE909334
:10225000600075CF6C960FB6F894DEBF0FBECDBF91
:10226000DF91CF91FF91EF91BF91AF919F918F91AE
:102270007F916F915F914F913F912F911F910F919E
:10228000FF90EF90DF90CF900F900FBE0F901F90B8
:102290001895BC01009791F0FC0101900020E9F72E
:1022A0003197AF01481B590BE091B205F091B3058E
:1022B0000280F381E02D82EB95E0099480E090E0CC
:1022C00008950C9449118F929F92AF92BF920F93F1
:1022D0001F93CF93DF93CDB7DEB7A1970FB6F894D6
:1022E000DEBF0FBECDBF19A2423008F44AE08E0116
:1022F0000F5D1F4F842E912CA12CB12CA5019401B0
:102300000E94B91BE62FB901CA0101501109EA3038
:1023100014F4E05D01C0E95CD801EC93232B242B7D
:10232000252B61F7C8010E944911A1960FB6F894B8
:10233000DEBF0FBECDBFDF91CF911F910F91BF9038
:10234000AF909F908F900895BC0180E090E04AE0AC
:102350000C946311CF93DF93FC0149E18EE261E0BD
:1023600070E0A3E051E090819076903611F4918175
:1023700005C09081907692959F709E5F9093220504
:10238000909122059150109221052FEF3091210557
:10239000391768F430912105EF01C30FD11D388141
:1023A0002327309121053F5F30932105EFCFEF01C7
:1023B000C90FD11D2883F89490912005913059F4CC
:1023C00090911F05981738F01092200590916F009A
:1023D0009D7F90936F00789490912005913039F40F
:1023E00090911F05943108F4BECF50E0BCCF90917E
:1023F0002005911163C0F89490916F009F7D909398
:102400006F00B59B07C090916F00906290936F0032
:10241000789454C0C0911D05D0911E0598819B01F0
:1024200000901C0502C0220F331F0A94E2F7292BEB
:10243000288320918400309185002A5A3C4F3093A4
:102440001B0520931A0520911A0530911B05309326
:102450008900209388007894F0931905E09318057B
:102460001092210510921705908190931605A09364
:10247000200510921F05B19A90916F009260909381
:102480006F00909120059330E1F390911705992307
:1024900071F0E0911405F0911505E757FF4F808129
:1024A000918101969183808383E090E022C0909196
:1024B0002005923031F025E030E005C022E030E028
:1024C00002C024E030E02230310511F451114ACF2E
:1024D0008B3108F08150415009F044CF8091AE0516
:1024E0009091AF0501969093AF058093AE0586E07D
:1024F00090E0DF91CF910895CF93DF93CDB7DEB712
:1025000060970FB6F894DEBF0FBECDBFAC0141504F
:102510005109852F8F709A01369527952F7740FDA9
:1025200002C0806401C080666111806192EB998372
:102530002A838B83CE0101960E94AA1160960FB662
:10254000F894DEBF0FBECDBFDF91CF910895CF923B
:10255000DF92EF92FF92CF93DF9397FF21C06B0141
:102560007C01E091B205F091B3050190F081E02D7E
:102570006DE282EB95E00995EC0166277727CB01A8
:102580006C197D098E099F094AE00E9463118C0F26
:102590009D1FDF91CF91FF90EF90DF90CF90089536
:1025A0004AE0DF91CF91FF90EF90DF90CF900C94B5
:1025B0006311AB01672B59F4E091B205F091B305BB
:1025C0000190F081E02D682F82EB95E00994682F4F
:1025D00070E080E090E00C946311EF920F931F93F2
:1025E000FC0185EE80838FE0818385E0828361300A
:1025F00029F489E483838BE4848302C06383148297
:102600008FE185831682508747833287218714871D
:102610000387E586DF011796AF01425F5F4F91E0C8
:102620008C9187FF05C02681292B26838F778C9379
:10263000990F1196A417B50799F71F910F91EF9075
:1026400008958032910530F00E94570D80509040DF
:102650000C94661B0E94570D805090400E945E1B98
:1026600090E00895FC0180911205811103C08FEF65
:102670009FEF08959FB7F89482E08093E90020913E
:10268000F20030E01216130614F421E030E02115B8
:10269000310559F0289884E6809311058091F10066
:1026A00080838091F200882319F09FBFC9010895AB
:1026B0008BE68093E800F9CF80910D0681110DC063
:1026C00082E08093090684E080930A0610920C064B
:1026D00010920B0681E080930D0689E096E0089544
:1026E000CF93DF93CDB7DEB768970FB6F894DEBF10
:1026F0000FBECDBF789484B5826084BD84B58160FF
:1027000084BD85B5826085BD85B5816085BD8091BC
:102710006E00816080936E00109281008091810034
:10272000826080938100809181008160809381002C
:102730008091800081608093800080919100826010
:1027400080939100809191008160809391008091AD
:1027500090008160809390008091C100846080939C
:10276000C1008091C10082608093C1008091C1004E
:1027700081608093C1008091C30081608093C30019
:102780008091C00082608093C0008091C20081600F
:102790008093C20080917A00846080937A00809157
:1027A0007A00826080937A0080917A0081608093C1
:1027B0007A0080917A00806880937A0010921205E6
:1027C0001092A6041092A5048091D7008160809396
:1027D000D70080EA8093D80089B5806189BD89B52A
:1027E000826089BD09B400FEFDCF61E070E080E049
:1027F00090E00E94890A8091D8008F7C806180934C
:10280000D8008091E000807F8093E0008091E1001B
:102810008E7E8093E1008DE08093E200559A209AAD
:10282000EEEFFFE7859194918B3F9C4D19F481E089
:102830008093A4048FEF9FEF9093BF058093BE0514
:10284000109107016AE070E080E090E00E94890A40
:102850001123B1F389EC91E00E94611168ED77E2F8
:1028600080E090E00E94A7128DED91E00E94491156
:1028700080EE91E00E94611180E090E00E945E1B7A
:10288000682F70E080E090E04AE00E9463118DEDD7
:1028900091E00E9449118FE8E3E2F5E0DF011D922B
:1028A0008A95E9F761E085E00E944D0AECEFF0E0DF
:1028B0002491EDEDF0E0E491F0E0EE0FFF1FE65320
:1028C000FF4F4591549180E091E031E0291741F0AC
:1028D0008F5F932F082E01C0990F0A94EAF7F6CF65
:1028E00050931E0540931D0580931C0583E295E0DF
:1028F00090931505809314055498E0911D05F0916F
:102900001E05208181E090E000901C0502C0880F28
:10291000991F0A94E2F780958223808310928000A9
:1029200081E08093810010922005B59A80916F001C
:10293000806280936F0080918100887F81608093A6
:10294000810081EF91E00E94611168E170E080E018
:1029500090E00E94A7128DED91E00E94491185E060
:1029600090E00E945E1B8093FE04F12C18E6412E3D
:1029700011E0512E8091FE04F81608F0B3C16F2CBF
:10298000712CC301885F9F4F0E945E1B282FB4E10A
:10299000B69D8001B79D100D1124C801815E9F4F27
:1029A000288F0E94661BE82EC8018F5D9F4F0E94F2
:1029B000661B4C015301AA0CBB1C288D233009F463
:1029C0000CC138F4213009F4E2C0223009F446C0C9
:1029D0005AC1243009F431C1253609F054C1C80167
:1029E0008D5D9F4F0E94661BD82E8EE090E00E9466
:1029F000311A8C01DC011596FC9215971296EC9217
:102A0000129714969C928E9213974D925C9261E06D
:102A10008E2D0E944D0AF801168260E0C8010E94C6
:102A2000490A8D2D8170D80117968C9317971896A7
:102A30001C921897E2E8F1E01196FC93EE9322E0E5
:102A400036E01A963C932E93199788EE93E01C96E5
:102A50009C938E931B971D96EC92E9C0C8018D5DE7
:102A60009F4F0E94661B1C01C8018B5D9F4F0E94F7
:102A7000661B9A8B898BC801895D9F4F0E94661BDC
:102A80009C01C801835D9F4F288F3F8B0E94661B6E
:102A9000BC01C801815D9F4F6D8B7E8B0E94661BC0
:102AA0009C8B8B8BC8018F5C9F4F0E94661B182FDD
:102AB0008EE190E00E94311A6C01FC01F582E28205
:102AC000948283828AE191E0918380834091CB0458
:102AD000288D3F896D897E894C3098F481E0840F80
:102AE0008093CB04428B50E0CA01880F991F480F96
:102AF000591FFA01E955FB4FA8EBBBE0B283A18354
:102B000003C04FEFF601428BD60119963C922E92EC
:102B10001897E989FA891796FC93EE9316971B96F6
:102B20003C932E931A971C961C931C9756963C9296
:102B30002E92559758963C922E9257971E967C93BC
:102B40006E931D972B893C8950963C932E931F972B
:102B50005A961C921E9259975B961C925B975D96B3
:102B60001C921E925C97F501E453FB4FD182C08208
:102B700034E1369DC001379D900D1124855D9F4F36
:102B80000E94661BBC01C6010E94D2078EC088E06D
:102B900090E00E94311A8C01DC011596FC92159789
:102BA0001296EC92129714969C928E921397E4E3ED
:102BB000F1E01196FC93EE93FFE0FE1518F42FE080
:102BC00012962C9362E0D80112968C910E944D0AC5
:102BD000F801168281E087832AC0C8018D5D9F4F6E
:102BE0000E94661BD82E89E090E00E94311A8C0169
:102BF000DC011596FC9215971296EC92129714969A
:102C00009C928E9213974D925C9261E08E2D0E9461
:102C10004D0AF801168260E0C8010E94490A8D2D14
:102C20008170D80117968C93179718961C92F5010E
:102C3000E453FB4F1183008338C0C8018D5D9F4F63
:102C40000E94661BC82EC8018B5D9F4F0E94661BA9
:102C5000D82EC801895D9F4F0E94661B8C0183E1BD
:102C600090E00E94311AFC01F582E2829482838214
:102C70002EE431E031832083C782D086128701871A
:102C8000108A17860DC086E090E00E94311AFC0180
:102C9000ACE9B1E0B183A083F582E28294828382C1
:102CA000D501A453BB4FED93FC9380E092E00E94CA
:102CB00061116F2D70E080E090E04AE00E946311A6
:102CC0008DED91E00E944911F501E453FB4F8081A5
:102CD0009181DC01ED91FC910480F581E02D099555
:102CE000F39448CE8091020690910306892BA1F0BF
:102CF00061E0809106060E944D0A61E0809107061E
:102D00000E944D0A61E0809108060E944D0A60E031
:102D1000809108060E94190A60E0462E60E0562E57
:102D200070E0A72E70E0B72EE0E08E2EE0E09E2E41
:102D3000F0E06F2EF0E07F2EFF24FA9450E0252E75
:102D400050E0352E1092FF0410E08091FE04181719
:102D500008F04AC0E12FF0E0EE0FFF1FE453FB4FF5
:102D600080819181DC01ED91FC910088F189E02D59
:102D700009951F5FEACFE82FF0E0ED5DFA4F108173
:102D800017FF3BC09091A505981751F02091AA0517
:102D90003091AB052F5F3F4F3093AB052093AA05D1
:102DA0008093A505F092A605812F8076803619F1D3
:102DB00082958F708E5F8093A7058111C6C1909117
:102DC000A4059F5F9093A4058091A505392F381B1A
:102DD00097FD1092A4059091A7052091A60539179B
:102DE00099F012271093A6058091A4059091A30550
:102DF0008913C1CF2BC080E0DECF8091A705811160
:102E0000DECF1093A705A1C121130EC090E08D5D08
:102E10009A4F4091A8055091A9054F5F5F4F50937D
:102E2000A9054093A8050BC08091AA059091AB0518
:102E300001969093AB058093AA0580E090E03091D5
:102E4000A4053093A505009761F202C080E090E0F0
:102E50009093FD048093FC04892B09F46EC18DE1ED
:102E600092E00E946111E091FC04F091FD04218147
:102E70006281962F9F7030E8939FA0011124422B0E
:102E80003081323BE9F0DA011196313B09F442C05E
:102E900040F4333841F1303BB1F1323809F0C6C06B
:102EA00029C03C3B09F44EC020F4343B09F4BBC0BC
:102EB000BDC03D3B09F441C1303D09F44EC0B6C030
:102EC00065FD03C081E090E002C082E090E0411423
:102ED000510409F432C1440F551F6071840F951FCE
:102EE0000E9400002AC180E090E0892B09F425C1EE
:102EF00081E006C080E090E0892B09F41EC180E0EB
:102F00000E9400001AC1462F40726071CD010E94DC
:102F1000250413C166FF0BC08114910409F40DC18F
:102F2000462F40726071CD010E94000006C1A114BD
:102F3000B10409F402C1462F40716072CD010E94B4
:102F40000000FBC06114710409F4F7C0462F407201
:102F50006071CD010E940000F0C0822F8076803227
:102F600019F1803619F08111E8C01EC080E090E0B0
:102F7000892B09F4E2C0E3808E2D807D803109F039
:102F8000DCC0D48011E001E041E0802F8E2109F007
:102F900040E0202F2D21000F612F80E80E940000CB
:102FA0001F5F153089F7C9C02114310409F4C5C069
:102FB000A22FAF7140E8A49FD0011124A60FB11D2C
:102FC00025FB222720F911968381448150E08D371B
:102FD00029F0E0E88E9F400D511D1124992381F0C6
:102FE000923081F0943081F0963081F0983081F009
:102FF0009A3081F09C3081F09E3081F0692F0FC0B3
:1030000061E40DC062E40BC063E409C064E407C07E
:1030100065E405C066E403C067E401C068E4CD016F
:103020000E9400008AC02C3309F487C089E292E034
:103030000E9461116091FC047091FD04072E000C48
:10304000880B990B0E94A7120091FC041091FD04BB
:103050008FE292E00E9461116AE070E0F8018081E5
:103060000E94D91284E194E00E94611160E170E055
:10307000D80111968C910E94D91284E194E00E94AB
:10308000611160E170E0F80182810E94D91284E14F
:1030900094E00E94611160E170E0D80113968C9178
:1030A0000E94D91284E194E00E94611160E170E015
:1030B000F80184810E94D91284E194E00E94611198
:1030C00060E170E0D80115968C910E94D91284E1DC
:1030D00094E00E94611160E170E0F80186810E9435
:1030E000D91284E194E00E9461116801F7E0CF0EEB
:1030F000D11C015F1F4F60E170E0D6018D916D0121
:103100000E94D91284E194E00E946111C016D10698
:1031100091F78EED91E00E944911C090FC04D0908F
:10312000FD04F6018081853E09F458C08D3E09F406
:1031300055C08FE192E00E94611180E090E0892B00
:1031400009F400CE0E940000F7CD2091A5058091E2
:10315000A70590E0820F911D813891050CF42FCEC8
:1031600030E8C32EC21AF8944091A3058091A405BB
:10317000841730F48091A505B42FB81B8B2F02C0A3
:103180008C2D840F8093A30578948091A405481713
:1031900080F4D12C50E063E275E0C6018D5D9A4F5A
:1031A0000E94161A6091A50570E06D5D7A4FA60128
:1031B00007C06091A505461B50E070E06D5D7A4F39
:1031C00083E295E00E94161A8091A4059091A505CE
:1031D000891B8093A4051092A505F1CD86E092E0AD
:1031E0000E9449118DED91E00E944911D60111967E
:1031F0008C9111978F3009F09CCF13968C91139777
:10320000853009F096CF14968C911497811191CF47
:1032100016966C91F6013796A601425F5F4F21E04A
:10322000CF01322F362319F0308130683083220FDE
:103230003196E417F507A9F7F601168225812032A9
:1032400009F482C0213209F074CF0780F085E02DA7
:10325000EF3F2FEFF207F9F4D60119962D913C912B
:103260001A97232BC1F41B962D913C911C972F3F4D
:103270003F4F89F4B601655F7F4F0E94A4028F37EC
:1032800009F057CFF6010385148547815085E12C5D
:1032900020E030E01FC0D6011D962C911D97211112
:1032A0001FC01B964D915C911C9719966D917C9156
:1032B0001A979601255F3F4FCF010E9449038F3730
:1032C00009F04BC0F60103851485218532854781BD
:1032D0005085E12C6281CE0101960E94ED1246C01C
:1032E00027FF21C026FD1FC0B601655F7F4F0E94EA
:1032F00004038F37C1F4F601038514854781508597
:1033000080E8E82E20E030E06281CE0101960E9444
:10331000ED126AE070E080E090E00E94890ACE0140
:1033200001960E94AA11D6011D968C911D9786FFC9
:1033300000CF1B966D917C911C9717968D919C9157
:1033400018970E94D002F5CEF60143855485618519
:103350007285878190850E94B60487FDEACED601EA
:103360009C919F7724EB29839A838B83CE010196CE
:103370000E94AA11DECECF93DF93E2EBF5E0138239
:10338000128288EE93E0A0E0B0E084839583A68368
:10339000B7838DEB91E0918380838FEF9FEF9587CB
:1033A0008487C2E0D6E081E090E09B838A8380E15D
:1033B0008C838AE08D838EE08E8380E390E00E9490
:1033C000311A9983888320E3FC0111922A95E9F749
:1033D000DF91CF910895991B79E004C0991F96174A
:1033E00008F0961B881F7A95C9F780950895AA1B47
:1033F000BB1B51E107C0AA1FBB1FA617B70710F0E0
:10340000A61BB70B881F991F5A95A9F78095909511
:10341000BC01CD010895EE0FFF1F0590F491E02D42
:10342000099481E090E0F8940C94EA1B68177907FE
:1034300068F4FB01DC01E40FF51FA40FB51F02C007
:1034400002900E9241505040D8F708950C94281ADB
:10345000FB01DC0102C001900D9241505040D8F7B1
:103460000895CF93DF938230910510F482E090E0CD
:10347000E0911706F091180620E030E0C0E0D0E0BF
:10348000309711F14081518148175907C0F0481712
:10349000590761F482819381209719F09B838A8375
:1034A0002BC0909318068093170626C0211531056E
:1034B00019F04217530718F49A01BE01DF01EF011A
:1034C0000280F381E02DDCCF2115310509F1281BA5
:1034D000390B2430310590F412968D919C911397FD
:1034E0006115710521F0FB019383828304C09093E1
:1034F000180680931706FD01329644C0FD01E20FC5
:10350000F31F81939193225031092D933C933AC03C
:103510002091150630911606232B41F420910E01BF
:1035200030910F01309316062093150620910C015F
:1035300030910D012115310541F42DB73EB7409171
:10354000100150911101241B350BE0911506F091EB
:103550001606E217F307A0F42E1B3F0B28173907B6
:1035600078F0AC014E5F5F4F2417350748F04E0FDF
:103570005F1F50931606409315068193919302C0E6
:10358000E0E0F0E0CF01DF91CF9108950F931F931A
:10359000CF93DF93009709F48CC0FC01329713821C
:1035A000128200911706109118060115110581F479
:1035B00020813181820F931F2091150630911606CC
:1035C0002817390779F5F0931606E093150671C0B0
:1035D000D80140E050E0AE17BF0750F412962D918D
:1035E0003C911397AD012115310509F1D901F3CFB4
:1035F0009D01DA013383228360817181860F971FD9
:103600008217930769F4EC0128813981260F371F4F
:103610002E5F3F4F318320838A819B8193838283F6
:10362000452B29F4F0931806E093170642C0139631
:10363000FC93EE931297ED01499159919E01240F4D
:10364000351FE217F30771F480819181840F951F74
:10365000029611969C938E938281938113969C93EC
:103660008E931297E0E0F0E0D80112968D919C9134
:103670001397009719F0F8018C01F6CF8D919C916A
:1036800098012E5F3F4F820F931F209115063091B6
:1036900016062817390769F4309729F4109218068E
:1036A0001092170602C0138212821093160600931E
:1036B0001506DF91CF911F910F910895F999FECFD3
:1036C00092BD81BDF89A992780B50895A8E1B0E030
:1036D00042E050E00C94811B262FF999FECF1FBACF
:1036E00092BD81BD20BD0FB6F894FA9AF99A0FBE2B
:1036F000019608950E946C1B272F0C946D1BDC0112
:10370000CB01FC01F999FECF06C0F2BDE1BDF89AEC
:10371000319600B40D9241505040B8F70895052EEF
:1037200097FB1EF400940E94A61B57FD07D00E9431
:10373000B91B07FC03D04EF40C94A61B5095409582
:10374000309521953F4F4F4F5F4F0895909580954D
:10375000709561957F4F8F4F9F4F08950E94DB1B9F
:10376000A59F900DB49F900DA49F800D911D1124D5
:103770000895A1E21A2EAA1BBB1BFD010DC0AA1FB2
:10378000BB1FEE1FFF1FA217B307E407F50720F0CA
:10379000A21BB30BE40BF50B661F771F881F991F45
:1037A0001A9469F760957095809590959B01AC018E
:1037B000BD01CF010895A29FB001B39FC001A39F97
:1037C000700D811D1124911DB29F700D811D11245A
:0837D000911D0895F894FFCF4C
:1037D80000E1000000000000FFFFFFFF00001906E5
:1037E80080000100000000000000780D920D6D08B7
:1037F800160123073301320164093E06D207EA079E
:1038080000000000760D300837013501230133012F
:103818003201310149012E012B0100000000770D12
:1038280032084608B207F508330132013101B808F9
:103838002E012B0100000000640599013408C3071C
:103848003609490A32013101D0072E012B01000047
:10385800000063059701F401C30736091902320114
:103868003101D0072E012B010000000051079B01F8
:103878003601350134013301320131012F012E01A6
:103888002B0100C18081000000000000005207C326
:103898000A73071208EE076807556E697665727332
:1038A800616C206465636F6465722076000D0A00A0
:1038B8004D6F64756C6520616464726573733A203A
:1038C800004D61782023206F662070696E733A007E
:1038D80050696E202300506F737369626C792061A0
:1038E800204C4E4356206D6573736167652E004505
:1038F8006E64204C6F6F700A004C6F6F7020002050
:10390800504B543A2000496E7075742070696E20CF
:103918000053746174652070696E200020636861CB
:103928006E67656420746F20005265706F727469E9
:103938006E6720736C6F7420002053746174653A4D
:103948002000544C43353934372070696E200020EC
:10395800696E74656E736974792000204C4E20413D
:103968006464726573733A2000446973636F7665A3
:10397800723A20006E6F746966794C4E43567072C5
:103988006F6772616D6D696E6753746F7020004563
:103998006E642050726F6772616D696E67204D6F3B
:1039A80064652E0A0057726F6E67204172746E72DA
:1039B8002E0A0057726F6E67204D6F64756C652014
:1039C800416464726573732E0A0049676E6F726989
:1039D8006E6720526571756573742E0A0050726F98
:1039E8006772616D6D696E67207374617274656466
:1039F80000456E746572206E6F746966794C4E432B
:103A080056726561642800290A000A456570726F5C
:103A18006D20616464726573733A2000204C4E43D4
:103A2800562056616C75653A20004172744E7220BA
:103A3800696E76616C69642E0A00436C6F73656405
:103A4800005468726F776E004F6E004F66660053C1
:103A5800776974636820526571756573743A2000DC
:103A6800202D20005468726F776E20737769746315
:103A7800683A200020746F203A00456E7465722001
:103A88006E6F746966794C4E43567772697465280F
:103A980000536C6F743A200020536C6F7443563A8D
:103AA80020004172746E7220496E76616C69642ED2
:103AB8000A00417474616368656420210A004F75C7
:103AC800747075742070696E20004475616C206193
:103AD8006374696F6E20736C6F742C2061646472F8
:103AE8006573732C200054726967676572696E6725
:103AF80020736C6F74730041726475696E6F205027
:103B0800696E3A20002053747261696768743A20BC
:103B180000205475726E6F75743A200020537065DA
:103B280065643A200020466565646261636B2073B2
:103B38006C6F7420313A20002046656564626163C9
:103B48006B20736C6F7420323A200020506F7765B9
:103B58007220736C6F743A20004163633A200053FB
:103B6800747261696768740044657374727563740C
:043B78006F72210047
:00000001FF
