:100000000C94E3000C940B010C940B010C940B0169
:100010000C940B010C940B010C940B010C940B0130
:100020000C940B010C940B010C940F040C948104A0
:100030000C940B010C940B010C940B010C940B0110
:100040000C94C60F0C943A0E0C940B010C940B01FB
:100050000C940B010C940B010C940B010C94791172
:100060000C940B010C940B010C940B010C940B01E0
:100070000C940B010C940B010C940B010C940B01D0
:100080000C940B010C940B010C940B010C940B01C0
:100090000C94230A0C940B010C940B010C940B018F
:1000A0000C940B010C940B010C940B01DE10E1106D
:1000B000D010D410DA10021102110211E510E9106B
:1000C000ED10F310F7100211FD10080B00020202F0
:1000D00001000904000001020200000524001001D3
:1000E0000524010101042402060524060001070578
:1000F000810310004009040100020A000000070506
:1001000002024000000705830240000004030904C6
:1001100012010002EF0201404F1B03920001010295
:100120000301537061726B46756E00537061726BA0
:1001300046756E2050726F204D6963726F0000002B
:100140000000250028002B002E00310000000002D6
:1001500000090F0000030401000C00000000000073
:10016000000000000000000000000000000023006C
:10017000260029002C002F000404040404030405B5
:100180000202020204030202020206060606060634
:10019000040402020204040408020110408040101A
:1001A000204080408008020401804020100201109D
:1001B00080102040402000000000240027002A007A
:1001C0002D003000CC1811241FBECFEFDAE0DEBFC7
:1001D000CDBF11E0A0E0B1E0EEE3F8E302C005908E
:1001E0000D92A63FB107D9F724E0A6EFB1E001C018
:1001F0001D92AD31B207E1F710E0C3EED0E004C0CC
:100200002197FE010E946A19C23ED107C9F70E94D8
:10021000C3110C941D1C0C94000040912F025091AE
:10022000300220912D0230912E0242175307B4F470
:100230009091E8009570E1F39091E80092FD19C06B
:100240008093F10080912F029091300201968F737C
:100250009927892B19F48EEF8093E80080912F0263
:100260009091300201969093300280932F0281E0AA
:10027000089580E00895DF92EF92FF920F931F930D
:10028000CF93DF93D82E8A017B01E40EF51EEB019C
:10029000CE15DF0571F0D7FE03C0FE01849101C0C9
:1002A00088810E940D0121968111F2CF8FEF9FEF7F
:1002B00001C0C801DF91CF911F910F91FF90EF9086
:1002C000DF900895615030F02091F100FC0120830F
:1002D0000196F8CF289884E6809354020895CF922F
:1002E000DF92EF92FF920F931F93CF93DF936C01F6
:1002F0007A018B01C0E0D0E0CE15DF0589F0D8018E
:100300006D918D01D601ED91FC910190F081E02D70
:10031000C6010995892B11F47E0102C02196ECCF0C
:10032000C701DF91CF911F910F91FF90EF90DF9068
:10033000CF900895CF93DF931F92CDB7DEB7698337
:10034000DC01ED91FC910280F381E02D41E050E071
:10035000BE016F5F7F4F09950F90DF91CF91089598
:1003600083E08093E9008091F200882319F08AE30A
:100370008093E8000895FC018485958597FD0BC066
:100380009FB7F89482E08093E9008091F2009FBFCC
:1003900090E0019608959FB7F89482E08093E90079
:1003A0008091F2009FBF90E00895089580E090E072
:1003B0000895DC01ED91FC91119761E01F962D915C
:1003C0003C915097232B09F060E00084F185E02DEB
:1003D00041E009940895DC01ED91FC911197169686
:1003E0006C9121E062270084F185E02D41E00994C1
:1003F000DC0117968C9117978823B1F019968C9190
:100400001997662311F08F5F01C0815019968C9364
:10041000199719968C91199718162CF019961C9209
:10042000199760E001C061E016966C931697ED9104
:10043000FC9111970284F385E02DCD01099480E0B1
:1004400008950895FC0181E0672B09F480E0818B19
:10045000882319F08681978102C080859185958BCC
:10046000848B84899589938B828B178A168A128E46
:10047000118E0895FC01818990E0089508950895F2
:100480000895DC01ED91FC91119751966C9121E05A
:1004900062270084F185E02D40E00994FC01662389
:1004A00019F091E094279783468308950E949F1A3C
:1004B0000F931F93CF93DF931F92CDB7DEB782E0E8
:1004C000898342E450E06AEC70E080E80E943B01DE
:1004D0000E94510BDC0112960D911C91139701158E
:1004E000110569F0D801ED91FC910280F381E02DB6
:1004F000BE016F5F7F4FC801099597FF07C08981D3
:100500000F90DF91CF911F910F910895F801008511
:100510001185E5CF8F929F92AF92BF92CF92DF92DB
:10052000EF92FF920F931F93CF93DF935C016B01C8
:100530007A0180910B01882309F45BC080915502F8
:10054000882309F456C08091F70180FF05C080918F
:10055000E00082608093E000E70110E00AEF83E0B2
:10056000882E9AE3992E2097D9F10E94120A8111C0
:100570000AC0015009F43DC061E070E080E090E005
:100580000E943F11F0CF282F30E0C217D3070CF4A0
:100590008C2F4FB7F8948092E9009091E80095FF76
:1005A0001DC0282F30E0C21BD30BF601982F9150AD
:1005B00020F081918093F100FACFC20ED31E112357
:1005C00019F09092E80009C08091E80085FD06C00E
:1005D0009092E80011E0209709F010E04FBFC3CFE0
:1005E0001111C3CF5D9884E6809331021E141F045D
:1005F00044F081E090E0F5019383828380E090E015
:1006000001C0C701DF91CF911F910F91FF90EF9033
:10061000DF90CF90BF90AF909F908F9008950E94F1
:10062000120A90E00895CF93DF931F92CDB7DEB703
:10063000FC018485958597FD05C02FEF3FEF358739
:1006400024870BC0CE0101960E94E809019719F496
:10065000898190E002C08FEF9FEF0F90DF91CF91E3
:1006600008950F931F93CF93DF931F92CDB7DEB7FB
:100670008C01FC018485958597FF0EC0CE01019603
:100680000E94E809019719F4298130E002C02FEF98
:100690003FEFF80135872487F801848595850F9011
:1006A000DF91CF911F910F9108950C94541B0C94DE
:1006B000541B0C94541BCF93DF93EC018F859889C6
:1006C000892B81F18FB7F894409110045091110457
:1006D00060911204709113048FBF8B859C85AD854A
:1006E000BE85481B590B6A0B7B0B89859A85A0E058
:1006F000B0E084179507A607B707B0F48A89882366
:1007000041F08F859889019721F4888561E070E038
:1007100003C08F8160E070E090E00E94F80F188ABB
:100720001F8602C080E001C081E0DF91CF91089573
:100730000F931F93CF93DF93EC0129896217A1F1E7
:100740008F859889892B81F5E62FF0E030E091E0E4
:100750002E173F070CF090E0042F162F9A8B992349
:1007600041F081E090E0988B8F878F8161E070E0AD
:1007700007C081E090E0988B8F87888560E070E00B
:1007800090E00E94F80F0111198B2FB7F894809117
:10079000100490911104A0911204B09113042FBF82
:1007A0008B879C87AD87BE87DF91CF911F910F917B
:1007B0000895FC012085211161E0FC0182810C94E7
:1007C000650B1F93CF93DF93EC01162F662319F06F
:1007D0008E819F8102C0888599859D8B8C8B4C89E9
:1007E0005D892A893B898A859B854217530718F4BE
:1007F0009195819591099F8B8E8B8C8561E070E03E
:1008000090E00E94F80FCE010E94150E198B81E036
:1008100090E09A8F898FDF91CF911F9108951F9259
:100820000F920FB60F9211248F939F938091E10046
:100830009091E100937F9093E10083FF0FC01092AD
:10084000E90091E09093EB001092EC0092E390931A
:10085000ED001092550298E09093F00082FF20C0C6
:1008600093E09093E9009091F200992319F09AE3B4
:100870009093E80090913102992339F090913102E0
:10088000915090933102992389F1909154029923C8
:1008900039F090915402915090935402992341F170
:1008A00084FF10C08091E2008E7E81608093E20020
:1008B0008091E1008F7E8093E1008091F7018E7E30
:1008C000806111C080FF16C08091E2008E7E806141
:1008D0008093E2008091E1008E7E8093E100809120
:1008E000F7018E7E81608093F70104C05D9ACDCFC1
:1008F000289AD6CF9F918F910F900FBE0F901F9087
:1009000018951F920F920FB60F921124CF92DF927B
:10091000EF92FF920F931F932F933F934F935F9309
:100920006F937F938F939F93AF93BF93EF93FF93B7
:10093000CF93DF93CDB7DEB76C97DEBFCDBF1092FC
:10094000E9008091E80083FFEDC168E0CE014596A3
:100950000E94620182EF8093E8008D8987FF05C0C5
:100960009091E80090FFFCCF03C09EEF9093E800C9
:10097000982F907609F0C6C09E892F89188D911105
:100980000CC0803829F48091F8018093F10002C0F6
:100990001092F1001092F10048C1422F50E0512B0B
:1009A000913051F4811141C14130510509F03DC1EF
:1009B0008091F8018D7F0BC0933061F4811135C1B6
:1009C0004130510509F031C18091F8018260809376
:1009D000F8012BC1953041F48091E80080FFFCCFF5
:1009E00020682093E30021C1963009F05FC0EB8CB2
:1009F000FC8C1092E9001092300210922F021230FB
:100A000091F510922E0210922D020E94580299E048
:100A1000BE016F5F7F4FDB01E92F1D92EA95E9F779
:100A200099831A8391E09E8390EA98879AEF998739
:100A300020912F0230913002275F3F4F3C832B8360
:100A40008D831092E9001092300210922F02F092E2
:100A50002E02E0922D0249E050E080E00E943B012E
:100A60000E945802E2C0F0922E02E0922D020E94F3
:100A7000510BDC011296ED90FC901397E114F104F8
:100A800009F4C0C0D701ED91FC910480F581E02DFF
:100A9000BE016B5E7F4FC7010995009719F00CF0FE
:100AA000C4C0C7C0F701E084F184E8CF973009F4EF
:100AB000C0C0983021F481E08093F100B6C0993035
:100AC00009F0B3C0837009F0B4C0EFEAF1E081E04F
:100AD00021E036E39081992361F08093E90020932F
:100AE000EB0091919093EC003093ED008F5F873095
:100AF00089F78EE78093EA001092EA008F8980934D
:100B0000550293C08B8D9C8D1092E900109230029B
:100B100010922F0290932E0280932D02898D8111C5
:100B200056C08E899D89913A59F4813209F081C06D
:100B300047E050E064E071E080E00E943B0175C056
:100B4000913209F076C0833289F4888D90E0982F35
:100B500088272F89822BA0E0B0E08093000190933A
:100B60000101A0930201B09303015FC0803269F4D8
:100B70008091E80082FFFCCF67E084E091E00E9472
:100B800062018BEF8093E80006C0823209F04DC00D
:100B90008F8980930B018091F601882319F0EEEF85
:100BA000FAE002C0E0E0F8E08091040190910501D4
:100BB000A0910601B0910701803B9440A105B105C9
:100BC00009F07BC080910B0180FF93C076C00E942A
:100BD000510BDC0112960D911C9113970115110513
:100BE00041F1D801ED91FC910190F081E02DBE0121
:100BF0006B5E7F4FC8010995811117C0F801008510
:100C00001185ECCF113009F44EC0133091F48F8967
:100C1000882309F445C0823081F440E862E18BE228
:100C200091E00E948F18882321F08EEF8093E800D6
:100C300079C081E28093EB0075C0813029F440E8EF
:100C400068E082E291E0EDCF833099F70E94510B8A
:100C5000DC011296ED90FC9013978E010F5F1F4FF1
:100C60006801E114F10479F0D701ED91FC9106805F
:100C7000F781E02DB801C7010995080F111DF70193
:100C8000E084F184EECFD8011C92F601019000209F
:100C9000E9F73197BF016C197D0940E0C601C1CF6A
:100CA0006CE071E002C060E171E06115710509F26C
:100CB000FB01449150E080E840CF0FB6F894A8952E
:100CC00080916000886180936000109260000FBE88
:100CD000A895EE3F2AE0F20739F08091FE0A909144
:100CE000FF0A91838083A1CF1092FF0A1092FE0A1F
:100CF0009CCFEE3F8AE0F80731F08081918190939C
:100D0000FF0A8093FE0A87E797E7918380839BE041
:100D100088E10FB6F894A895809360000FBE909379
:100D2000600083CF6C960FB6F894DEBF0FBECDBFC8
:100D3000DF91CF91FF91EF91BF91AF919F918F91F3
:100D40007F916F915F914F913F912F911F910F91E3
:100D5000FF90EF90DF90CF900F900FBE0F901F90FD
:100D600018958032910510F4019708959C01205246
:100D70003109C9016AE070E00E94561944E1649F9C
:100D8000C0011124AC01415E5F4FC9017AE0679F49
:100D9000801991091124880F991F840F951F0895B8
:100DA00008950895089585ED8093BC008091BC005E
:100DB00084FDFCCF10927C0208954091C103262F40
:100DC00030E0240F311D21323105DCF420917C020A
:100DD0002430C9F4FC0180E090E0861758F430918B
:100DE000C1032191DC01A156BC4FA30FB11D2C936F
:100DF0000196F3CF8091C103680F6093C10380E037
:100E0000089581E0089582E008950895E0915302E5
:100E100080915202E81730F4F0E0EE5CFD4F8081E3
:100E200090E008958FEF9FEF089590915302809185
:100E30005202981750F4E92FF0E0EE5CFD4F20814C
:100E400030E09F5F9093530202C02FEF3FEFC90144
:100E500008958091520290E020915302821B9109E3
:100E60000895CF92DF92EF92FF920F931F93CF934B
:100E7000DF937C01262F972F8A0180917D028823A2
:100E800091F0C62FD72F6E01C40ED51ECC15DD05EF
:100E900071F06991D701ED91FC910190F081E02D05
:100EA000C7010995F3CF642F822F0E94DD06C80188
:100EB000DF91CF911F910F91FF90EF90DF90CF9036
:100EC0000895CF93DF931F92CDB7DEB7698320914A
:100ED0007D022223D1F020918002203240F021E0D7
:100EE00030E0FC013383228380E090E015C08091E4
:100EF0007E02E82FF0E0EA51FC4F998190838F5FEA
:100F000080937E028093800205C061E0CE0101964D
:100F10000E94DD0681E090E00F90DF91CF9108956F
:100F2000CF93DF93FC0149E18EE261E070E0A3E042
:100F300051E090819076903611F4918105C09081B6
:100F4000907692959F709E5F9093980290919802F0
:100F50009150109297022FEF30919702391768F451
:100F600030919702EF01C30FD11D388123273091B3
:100F700097023F5F30939702EFCFEF01C90FD11D6A
:100F80002883F89490919602913059F490919502AB
:100F9000981738F01092960290916F009D7F909371
:100FA0006F00789490919602913039F49091950267
:100FB000943108F4BECF50E0BCCF909196029111CD
:100FC00063C0F89490916F009F7D90936F00B59BE4
:100FD00007C090916F00906290936F00789454C016
:100FE000C0919302D091940298819B01009092024B
:100FF00002C0220F331F0A94E2F7292B2883209185
:101000008400309185002A5A3C4F309391022093FE
:1010100090022091900230919102309389002093A8
:1010200088007894F0938F02E0938E0210929702DA
:1010300010928D02908190938C02A0939602109250
:101040009502B19A90916F00926090936F00909189
:1010500096029330E1F390918D02992371F0E09123
:101060008A02F0918B02E757FF4F808191810196B0
:101070009183808383E090E022C090919602923029
:1010800031F025E030E005C022E030E002C024E08D
:1010900030E02230310511F451114ACF8B3108F084
:1010A0008150415009F044CF809124039091250351
:1010B0000196909325038093240386E090E0DF91CE
:1010C000CF910895CF93DF93CDB7DEB760970FB67A
:1010D000F894DEBF0FBECDBFAC0141505109852F42
:1010E0008F709A01369527952F7740FD02C0806456
:1010F00001C080666111806192EB99832A838B83A2
:10110000CE0101960E94900760960FB6F894DEBF5C
:101110000FBECDBFDF91CF91089580918403E09100
:101120008503F0918603F8949181982B9183228115
:10113000982F909529232283A7E0B0E01197F1F72B
:10114000218192239183A3E2B0E01197F1F790817E
:101150007894EFECF0E03197F1F7982381E009F40F
:1011600080E0089590918403E0918503F0918603D7
:10117000392F309580FF13C0F8942281832F82236A
:1011800082838181892B8183A3E2B0E01197F1F7FB
:101190008281982B9283789487ED90E012C0F89426
:1011A0002281832F822382838181892B8183AFEFE8
:1011B000B0E01197F1F78281982B928378948FE0B9
:1011C00090E00197F1F70895EF92FF920F931F932C
:1011D000CF93DF931F92CDB7DEB7082F88E0E82EBC
:1011E000F12C11E081E0912F902309F480E06983D4
:1011F0000E94B208110F81E0E81AF1086981E11438
:10120000F10481F7611113C0F894E0918503F09126
:101210008603918180918403809598239183E09146
:101220008503F091860392818923828378940F90BD
:10123000DF91CF911F910F91FF90EF9008951F9331
:10124000CF93DF9360E085E50E94E408C1E8D2E037
:101250001C2F185F60E089910E94E4081C13FACFEC
:10126000DF91CF911F91089590918403E0918503C0
:10127000F0918603F8948181292F20958223818320
:1012800078948DE743E050E0815021F1DA01119725
:10129000F1F730813923C1F3F8948281822382836C
:1012A0008181892B81837894ABE7B7E01197F1F7BF
:1012B000F894818128232183A3E1B1E01197F1F70C
:1012C0008081982381E009F080E07894E3E6F6E0FD
:1012D0003197F1F70895382F2091800290917F0285
:1012E000213208F049C080917C028111FCCF42E09C
:1012F00040937C0230937B023FEF30937A0210924E
:10130000790220937802A6EEB3E048E552E0FA01B4
:101310003E2F341B321718F43D913193F9CF1092C0
:10132000570220915702990F922B90935702909158
:101330005602913061F410925602909157029093A8
:10134000BB009091BC0093FDF8CF95EC01C095EEE9
:101350009093BC0090917C029230E1F390917A02DC
:101360009F3F79F080917A02803241F080917A0239
:10137000803331F084E005C081E003C082E001C029
:1013800083E010927E021092800210927D020895F6
:10139000CF93C62F9091920321E020937D029093EA
:1013A0007F0210927E0210928002682F88E293E002
:1013B0000E9461076C2F88E293E00E94610781E040
:1013C000CF910C946B09682F88E293E00C9461072D
:1013D000FC0180915502811103C08FEF9FEF0895AA
:1013E0009FB7F89482E08093E9002091F20030E00A
:1013F0001216130614F421E030E02115310559F0DE
:10140000289884E6809354028091F1008083809133
:10141000F200882319F09FBFC90108958BE68093DD
:10142000E800F9CF2FB7F89483E08093E90090911A
:10143000E800892F807295FF04C09091F20080E44B
:10144000891B2FBF08951F920F920FB60F92112480
:101450002F933F934F935F936F937F938F939F93BC
:10146000AF93BF93EF93FF938091B900887F80364D
:1014700009F49CC068F5883209F45BC090F48031AF
:1014800009F454C038F4882309F4F6C0883009F40C
:101490004DC0F6C0883109F44CC0803209F45DC0FB
:1014A000EFC0803409F468C048F4803309F455C0B3
:1014B000883309F0E5C080937A02D8C0803509F4FA
:1014C0004FC0883509F45DC0883409F0D9C0D6C052
:1014D000883909F4C7C0A8F4883709F467C038F41C
:1014E000883609F463C0803709F460C0C9C0883801
:1014F00009F4B8C0803909F45FC0803809F0C0C071
:101500005BC0803B09F486C038F4803A09F466C0B9
:10151000883A09F47FC0B4C0803C09F4A7C0883C75
:1015200009F4A4C0883B09F48AC0AAC0809157027C
:1015300010C09091790280917802981770F5E0912F
:10154000790281E08E0F80937902F0E0E85AFD4F36
:1015500080818093BB0085EC86C080937A028EC028
:10156000E091790281E08E0F809379028091BB0037
:10157000F0E0E85AFD4F80839091790280917802E3
:101580006EC0E091790281E08E0F809379028091A4
:10159000BB00F0E0E85AFD4F808380917B0281110F
:1015A0006DC081E08093560284EA61C083E080933D
:1015B0007C021092E503CFCF8091E503803208F0E2
:1015C00051C0E091E50381E08E0F8093E5038091A7
:1015D000BB00F0E0EB53FC4F8083BDCF85EC8093E4
:1015E000BC0010927C028091E503803230F4E091DF
:1015F000E503F0E0EB53FC4F10826091E50370E0EF
:10160000E091C303F091C40385EC93E00995109237
:10161000E50336C084E080937C021092C2031092EE
:10162000C103E091BF03F091C00309958091C1030C
:10163000811105C081E08093C10310929F03E09166
:10164000C20381E08E0F8093C203F0E0E156FC4FAD
:1016500080818093BB009091C2038091C103981751
:1016600008F479CF85E88093BC000AC085EC8093AC
:10167000BC0010927C0204C010927A020E94D30631
:10168000FF91EF91BF91AF919F918F917F916F915A
:101690005F914F913F912F910F900FBE0F901F9030
:1016A00018958091970381110DC082E08093930378
:1016B00084E080939403109296031092950381E046
:1016C0008093970383E993E008951F93CF93DF936B
:1016D000282F30E0F901E45BFE4F8491F901E956CF
:1016E000FE4FD491F901E858FE4FC491CC23C9F0C4
:1016F000162F81110E94C610EC2FF0E0EE0FFF1F95
:10170000E25CFE4FA591B4918FB7F894111105C01A
:101710009C91ED2FE095E92302C0EC91ED2BEC9329
:101720008FBFDF91CF911F9108950895089580E0B4
:1017300090E00895089580E008950895089508952B
:10174000089508950895009761F0880F991FFC018E
:10175000E750FE4F0190F081E02D838194810C943D
:10176000620808950F931F93CF93DF93EC012A81B2
:10177000222309F130E0F901E45BFE4F8491F90185
:10178000E956FE4F0491F901E858FE4F14911123D8
:1017900079F081110E94C610E12FF0E0EE0FFF1FDB
:1017A000E659FE4FA591B491EC91E02381E009F454
:1017B00080E081708E836E818F81681791F08B81BC
:1017C0009C810E9462088A85882339F06E8181E0BD
:1017D0006827888599850E9462088E818F8381E0C1
:1017E00001C080E0DF91CF911F910F9108950C947B
:1017F000541B0C94541B0C94541B0F931F93CF93A6
:10180000DF93EC018B0180E090E00E94EC1B282F1D
:1018100030E0F8013183208381E197E29983888366
:101820008FE7DF91CF911F910F910895CF93DF93B1
:1018300020910F04222381F08131974269F4EB015A
:1018400080E090E00E94EC1B90E0C817D90721F4DB
:1018500010920F040C940000DF91CF9108950F9324
:101860001F93CF93DF938C01EB0180E090E00E9407
:10187000EC1B282F30E0F801808191818131974263
:1018800079F4888199818217930721F481E080930C
:101890000F0404C0019621F4398328838FE703C025
:1018A00010920F048FEFDF91CF911F910F91089548
:1018B000CF92DF92EF92FF920F931F93CF93DF931C
:1018C0007C01D62EC42EC9EFD1E000E010E0A88143
:1018D000B98113968D919C9114978E159F0541F5B2
:1018E000ED91FC91119741E0D11001C040E061E021
:1018F000C11001C060E00084F185E02DCD010995A3
:1019000088819981DC01ED91FC910488F589E02DB5
:101910000995BC01C801855D9F4F0E94081C888104
:101920009981DC01ED91FC910684F785E02D099504
:1019300022960C5E1F4F003EB1E01B0741F6DF917F
:10194000CF911F910F91FF90EF90DF90CF9008956E
:10195000CF93DF9300D0CDB7DEB79B0160910F042A
:101960006623B9F081319742A1F4203481E0380731
:1019700090F4BA01C9012032310578F04A837983A5
:101980000E94B1066A817981805090400E94081CB3
:101990000CC08FEF0BC081E009C04A830E94B106E2
:1019A0006A81805090400E94FA1B8FE70F900F9041
:1019B000DF91CF9108959F92AF92BF92CF92DF9225
:1019C000EF92FF920F931F93CF93DF9300D0CDB789
:1019D000DEB740910F04442309F40DC181319742D1
:1019E00009F009C16530710521F488E190E0F90141
:1019F00011C08901CB016034F1E07F0778F46032D7
:101A0000710508F4FCC00E94B106805090400E940D
:101A1000F41BF801918380838FE7F9C06A3FF3E0FC
:101A20007F0709F048C00E9434090E941F0961E045
:101A300084E40E94E40868EE73E080E090E00E9495
:101A40003F110E9434090E941F0960E08EEB0E9442
:101A5000E408E6E0EE2EE4E0FE2EF9E09F2E9E0C78
:101A600078E0A72EB12CCC24C394D12C0E948D08F1
:101A70008111DC28CC0C21E0A21AB108B9F7F701DA
:101A8000D1927F019E12ECCF8091070490E0982FB5
:101A9000882720910604822B20910A04207611F4D5
:101AA000887FB7CF203211F48C7FB3CF203409F078
:101AB000B0CF8E7FAECF6B3FF3E07F0759F48091BC
:101AC000810290E0982F8827F901918380832091EB
:101AD00082022CC06C3FF3E07F0759F480918302AF
:101AE00090E0982F8827F9019183808320918402C8
:101AF0001DC06D3FF3E07F0759F48091850290E0AF
:101B0000982F8827F80191838083209186020EC048
:101B10006E3FF3E07F0761F48091870290E0982F99
:101B20008827F8019183808320918802822B72CFCD
:101B30006F3FF3E07F0719F48EE398E26ACF6115F7
:101B4000F4E07F0781F48091190490911A040097C2
:101B500011F48DE194E09E012F5F3F4FA901481BD6
:101B6000590BCA0156CF6130F4E07F0729F4809108
:101B7000F6019091F7014DCF6230F4E07F0729F430
:101B800080911D0490911E0444CF6330F4E07F07E0
:101B900019F48DB79EB73DCF9B01245034402530BA
:101BA000310558F56630F4E07F07B1F020F4653078
:101BB000744069F007C0673054E0750791F06830F1
:101BC0007440A1F080911E0390911F0322CF809159
:101BD0002003909121031DCF809122039091230334
:101BE00018CF809124039091250313CF8091260371
:101BF000909127030ECF8FEF0AC081E008C00E94AA
:101C0000B106805090400E94EC1B90E002CF0F90F4
:101C10000F90DF91CF911F910F91FF90EF90DF9088
:101C2000CF90BF90AF909F900895CF93DF93EC013A
:101C3000298D3A8D8D859E852130310519F460E01E
:101C400070E005C02989211107C061E070E00E94A1
:101C5000A30B60E070E006C060E070E00E94A30BA0
:101C600061E070E08F859889DF91CF910C94A30B90
:101C7000089508951F920F920FB60F9211242F937B
:101C80003F934F935F936F937F938F939F93AF9304
:101C9000BF93CF93DF93EF93FF9380919002909146
:101CA000910280549C4F9093910280939002809176
:101CB0009002909191029093890080938800809186
:101CC00095028F5F80939502809196028430E1F5B2
:101CD00080919502893078F480918C0290E09595FE
:101CE000879580938C024C9B3EC180918C028068CA
:101CF00080938C0238C1B59A80916F008062809386
:101D00006F0080918A0290918B024C9909C0FC016E
:101D1000E957FF4F808191810196918380830FC0A5
:101D200040918C02FC01E058FF4F308121E0230FED
:101D30002083DC01A30FB11D4C9327FD108210926C
:101D4000950281E08093960280919602833009F09B
:101D5000B4C0E0919302F0919402408120919202EC
:101D600099B150E0022E02C0559547950A94E2F7CA
:101D7000892F90E034E0959587953A95E1F784278F
:101D8000952780FD04C01092950282E094C0809156
:101D900095028930F0F480918C02308180FF09C077
:101DA00081E090E001C0880F2A95EAF780958323AF
:101DB00007C081E090E001C0880F2A95EAF7832BE5
:101DC000808380918C0290E09595879580938C021A
:101DD00074C080919502893059F4308181E090E09F
:101DE00001C0880F2A95EAF780958323808365C018
:101DF000809197028F5F8093970290919802891744
:101E000048F510929502A0918E02B0918F028091B8
:101E10009702A80FB11D8C9180938C02308181E0D4
:101E200090E001C0880F2A95EAF7832B8083809188
:101E30008400909185008A5A9C4F909391028093E0
:101E400090028091900290919102909389008093EA
:101E5000880033C081E080938D02E0918E02F09182
:101E60008F0240918A0250918B0280818076803669
:101E700011F4818105C08081807682958F708E5F9C
:101E800020E030E0DA01A058BF4F281788F4EF01B6
:101E9000C20FD31F78816C9191E0960F9C93EA0159
:101EA000C60FD11D788397FD1C922F5F3F4FEDCF5A
:101EB0001092950281E08093960280919602823082
:101EC000D1F580919502811111C0E0919302F091BA
:101ED0009402208181E090E00090920202C0880F7D
:101EE000991F0A94E2F7822B808325C08091950286
:101EF0008F3008F1E0919302F0919402208181E00B
:101F000090E00090920202C0880F991F0A94E2F7B5
:101F10008095822380831092950281E080939602BF
:101F2000E0918A02F0918B02E357FF4F808191810B
:101F3000019691838083809196028130A1F48091F3
:101F40009502811105C0B59A80916F00806209C029
:101F500080919502883338F01092960280916F003C
:101F60008D7F80936F00FF91EF91DF91CF91BF91B3
:101F7000AF919F918F917F916F915F914F913F9121
:101F80002F910F900FBE0F901F9018951F920F92D8
:101F90000FB60F9211248F939F93EF93FF93EFE669
:101FA000F0E080818F7D8083809186009091870012
:101FB00080569A4F90939102809390028091900264
:101FC000909191029093890080938800B19A8081CA
:101FD0008260808384E08093960210929502FF9144
:101FE000EF919F918F910F900FBE0F901F901895BA
:101FF0009C012150310927313105A0F4880F991F28
:10200000FC01E750FE4F80819181DC01ED91FC9154
:1020100021E0672B09F420E00084F185E02D40E009
:10202000622F09940895EF92FF920F931F93CF931D
:10203000DF93EC01E98CFA8C82E0E816F10431F1CF
:102040000A891B898C899D890817190721F0A80125
:10205000481B590B02C040E050E02E893F89C9015E
:1020600037FF04C088279927821B930B481759070D
:1020700078F482E090E09A8F898F8C8560E070E040
:1020800090E00E94F80FCE010E94150E80E051C032
:10209000888D8F5F888F91E0E916F10409F03FC0C9
:1020A0008B3FD8F1020F131F1B8B0A8B6A81EB8DBC
:1020B000FC8D808191E090937D0280937F0210924D
:1020C0007E021092800284E0689FB00111246A5F52
:1020D0007F4F88E293E00E94610780E090E00E94D9
:1020E000E30980E090E00E94E309C8010E94E3094F
:1020F000812F90E00E94E30981E00E946B09188E15
:102100008E899F89892B49F42C893D898A899B89ED
:102110002817390711F4FF8AEE8A81E00AC0EF28F8
:1021200009F0B4CF8B3F08F4B1CF81E090E09A8FF3
:10213000898FDF91CF911F910F91FF90EF900895BC
:1021400008953FB7F8948091150490911604A091DA
:102150001704B091180426B5A89B05C02F3F19F0AD
:102160000196A11DB11D3FBFBA2FA92F982F882717
:10217000820F911DA11DB11DBC01CD0142E0660F72
:10218000771F881F991F4A95D1F7089590E0FC01A9
:102190003197EF30F105B0F5EA5AFF4F0C946A1908
:1021A000809180008F7703C0809180008F7D809325
:1021B0008000089580918000877FF9CF84B58F7764
:1021C00002C084B58F7D84BD0895809190008F7783
:1021D00007C0809190008F7D03C080919000877F21
:1021E0008093900008958091C0008F7703C0809104
:1021F000C0008F7D8093C00008958091C200877FCA
:102200008093C2000895CF93DF9390E0FC01E956DC
:10221000FE4F2491FC01E858FE4F8491882361F120
:1022200090E0880F991FFC01EA54FE4FC591D491AC
:10223000FC01E25CFE4FA591B491611109C09FB70A
:10224000F8948881209582238883EC912E230BC0FB
:10225000623061F49FB7F8943881822F8095832390
:102260008883EC912E2B2C939FBF06C08FB7F894D8
:10227000E8812E2B28838FBFDF91CF9108958F9215
:102280009F92AF92BF92CF92DF92EF92FF926B013B
:102290007C010E94A1104B015C01C114D104E10436
:1022A000F104F1F00E94A110DC01CB018819990919
:1022B000AA09BB09883E9340A105B10570F321E04E
:1022C000C21AD108E108F10888EE880E83E0981E52
:1022D000A11CB11CC114D104E104F10419F7DDCF34
:1022E000FF90EF90DF90CF90BF90AF909F908F9036
:1022F00008951F920F920FB60F9211242F933F93C0
:102300008F939F93AF93BF9380911004909111048A
:10231000A0911204B09113043091140423E0230F10
:102320002D3720F40196A11DB11D05C026E8230F0D
:102330000296A11DB11D2093140480931004909364
:102340001104A0931204B09313048091150490918A
:102350001604A0911704B09118040196A11DB11D97
:102360008093150490931604A0931704B093180457
:10237000BF91AF919F918F913F912F910F900FBE81
:102380000F901F901895CF93DF93CDB7DEB7679767
:102390000FB6F894DEBF0FBECDBF789484B58260CF
:1023A00084BD84B5816084BD85B5826085BD85B5F9
:1023B000816085BD80916E00816080936E00109277
:1023C00081008091810082608093810080918100F2
:1023D0008160809381008091800081608093800083
:1023E0008091910082608093910080919100816042
:1023F0008093910080919000816080939000809103
:10240000C10084608093C1008091C100826080938C
:10241000C1008091C10081608093C1008091C300A0
:1024200081608093C3008091C00082608093C0006F
:102430008091C20081608093C20080917A008460A4
:1024400080937A0080917A00826080937A008091F4
:102450007A00816080937A0080917A00806880930E
:102460007A00109255021092F8011092F7018091B3
:10247000D70081608093D70080EA8093D80089B527
:10248000806189BD89B5826089BD09B400FEFDCF38
:1024900061E070E080E090E00E943F118091D80000
:1024A0008F7C80618093D8008091E000807F809352
:1024B000E0008091E1008E7E8093E1008DE08093CA
:1024C000E200559A209AEEEFFFE7859194918B3FB9
:1024D0009C4D19F481E08093F6018FE8E9E9F2E080
:1024E000DF011D928A95E9F761E085E00E94031102
:1024F000ECE9F1E02491EDE7F1E0E491F0E0EE0F9A
:10250000FF1FE25CFE4F4591549180E091E031E085
:10251000291741F08F5F932F082E01C0990F0A945D
:10252000EAF7F6CF5093940240939302809392027D
:1025300089E992E090938B0280938A025498E0910B
:102540009302F0919402208181E090E00090920249
:1025500002C0880F991F0A94E2F780958223808336
:102560001092800081E08093810010929602B59ACB
:1025700080916F00806280936F0080918100887FDE
:1025800081608093810085E090E00E94EC1B809345
:102590002B02F12C80912B02F81608F0D3C1AF2C3E
:1025A000B12CC501885F9F4F0E94EC1B282FB4E11E
:1025B000BA9D8001BB9D100D1124C801815E9F4F03
:1025C0002F8B0E94F41BE82EC8018F5D9F4F0E9445
:1025D000F41B4C01AA0CBB1C2F89233009F429C120
:1025E00008F057C0213009F4E9C0223009F08AC14F
:1025F000C8018D5D9F4F0E94F41B2C01C8018B5DAB
:102600009F4F0E94F41B9C01C801895D9F4F2F8B37
:102610003E8B0E94F41BAC01C801835D9F4F4D8B24
:102620005C8B0E94F41B1C01C801815D9F4F0E94BE
:10263000F41B3C01C8018F5C9F4F0E94F41B682F64
:102640008BE190E06B8B0E94BF1A6C01FC01F5825C
:10265000E2829482838284E691E091838083518632
:1026600040862F893E89378326834D895C8953872D
:1026700042876B896487538A428A558A448A3686A0
:102680002586708A6786178A168A108E128E118E9A
:102690002AC1243009F401C1263609F033C1C8012A
:1026A0008D5D9F4F0E94F41B1C01C8018B5D9F4FE5
:1026B0000E94F41B9A8B898BC801895D9F4F0E94F1
:1026C000F41B2C01C801835D9F4F0E94F41B9C01E9
:1026D000C801815D9F4F2F8B3E8B0E94F41B3C01F4
:1026E000C8018F5C9F4F0E94F41B482F8DE190E042
:1026F0004D8B0E94BF1A6C01DC011596FC92159758
:102700001296EC92129714969C928E9213971B96A7
:102710005C924E921A974D891C964C931C97539637
:102720003C922E92529755963C922E9254972F8916
:102730003E891E963C932E931D9750967C926E92E6
:102740001F9757961C921E92569758961C92589710
:102750005A961C921E925997EEE7F1E01196FC935F
:10276000EE9322E933E05C963C932E935B97B101A4
:1027700080E090E00E94111A2FE335E342E850E434
:102780000E9470190E94E219D60119967C936E93EB
:102790001897E989FA89BF0180E090E00E94111A38
:1027A0002FE335E342E850E40E9470190E94E219D9
:1027B000D60117967C936E93169795C0C8018D5DD0
:1027C0009F4F0E94F41B8170D82EC8018B5D9F4FD4
:1027D0000E94F41B8C018BE090E00E94BF1A3C0128
:1027E000DC011596FC9215971296EC9212971496AE
:1027F0009C928E921397E6E1F1E01196FC93EE9392
:10280000FFEFEF1203C02EEF12962C9362E0D3017C
:1028100012968C910E940311F301168281E0878346
:10282000D28611870087F501E750FE4F71826082E2
:102830007BC0C8018D5D9F4F0E94F41BD82E8AE09B
:1028400090E00E94BF1A8C01DC011596FC9215974E
:102850001296EC92129714969C928E921397E0E344
:10286000F1E0ED93FC9361E08E2D0E940311D801FD
:1028700016961C9260E0C8010E94D9038D2D8170CC
:10288000F80187831186D1FADD24D0F8D086F501CE
:10289000E750FE4F1183008347C0C8018D5D9F4FF5
:1028A0000E94F41BC82EC8018B5D9F4F0E94F41B31
:1028B000D82EC801895D9F4F0E94F41B8C0183E1D3
:1028C00090E00E94BF1AFC01F582E282948283822A
:1028D0002AE431E031832083C782D08612870187C2
:1028E000108A17861CC0F501E750FE4FD182C082C6
:1028F000C801855D9F4F0E94F41BBC01C6010E9468
:10290000220212C086E090E00E94BF1AFC0128E972
:1029100031E031832083F582E28294828382D50183
:10292000A750BE4FED93FC93F501E750FE4F808119
:102930009181DC01ED91FC910480F581E02D0995F8
:10294000F39428CE809191038111C3C20E9434096F
:10295000882309F4BEC260E080EF0E94E40801E031
:10296000F12CE12C11E00E948D088B8B0E948D08C8
:102970009B89913019F48130C1F435C02F2D30E09E
:1029800098131DC080918F03181738F4F901EC5784
:10299000FC4F8381802349F402C0181731F090E086
:1029A000193060F41093900309C0EF2DF0E0EC575C
:1029B000FC4F8381802B838391E009C0E12EF901D4
:1029C000EC57FC4F2381802F809582238383892FAE
:1029D0000E94B2081F5F000F11F4F39401E0B7E00A
:1029E000BF1508F0C0CF113408F473C2E0928F0312
:1029F000E11003C081E080939103809187038823D5
:102A000009F467C2A7E8B3E0E1E8F2E08D918193B1
:102A100022E0E938F207D1F71092530210925202E5
:102A200010927E021092800210927C0211E01093AC
:102A30007B021092560261E082E00E94650B61E029
:102A400083E00E94650B8091B9008E7F8093B9006E
:102A50008091B9008D7F8093B90088E48093B8009D
:102A600085E48093BC0060E080E00E94C80980910A
:102A7000920310937D0280937F0210927E02109247
:102A8000800260E088E293E00E94610781E00E949A
:102A90006B098091920390917C029111FCCF91E09F
:102AA00090937C0290937B022FEF20937A021092F6
:102AB0007902109278029093570290915702880FF2
:102AC000892B8093570280915602813061F41092D5
:102AD0005602809157028093BB008091BC0083FD19
:102AE000F8CF85EC01C085EE8093BC0080917C021C
:102AF0008130E1F380917902811103C080917902E4
:102B000001C081E0A8E5B2E022E332E0F9019E2FA6
:102B1000921B981718F49D919193F9CF109253023C
:102B20008093520288E293E00E941507182F682FC5
:102B30006F76606180E00E94C80960E68EEF0E94B7
:102B4000C809612F80E00E94C80965E070E080E05C
:102B500090E00E943F11612F616A80E00E94C809E5
:102B600070E0A72E70E0B72EE0E08E2EE0E09E2E03
:102B7000F0E06F2EF0E07F2EFF24FA9451E1252E35
:102B800057E2352E60E0462E60E0562E10922C0261
:102B900010E080912B02181708F04AC0E12FF0E0F6
:102BA000EE0FFF1FE750FE4F80819181DC01ED9118
:102BB000FC910088F189E02D09951F5FEACFE82F8D
:102BC000F0E0E756FD4F108117FF3BC090911B03CB
:102BD000981751F020912003309121032F5F3F4F30
:102BE000309321032093200380931B03F0921C0356
:102BF000812F8076803619F182958F708E5F809359
:102C00001D0381117BC180911A038F5F80931A038A
:102C1000C0901B03282F2C1987FD10921A03909146
:102C20001D0380911C03291799F0182710931C038A
:102C300080911A03909119038913C1CF2FC080E0AE
:102C4000DECF80911D038111DECF10931D0356C18D
:102C5000811310C02C2D30E0A90147565D4F209103
:102C60001E0330911F032F5F3F4F30931F032093AC
:102C70001E030CC020912003309121032F5F3F4F92
:102C8000309321032093200340E050E090911A03F9
:102C900090931B034115510541F203C0C12CD12C67
:102CA00001C06A01D0922A02C0922902C114D10443
:102CB00009F407C1F60121816281962F9F7030E8E7
:102CC000939FF0011124E22BD6013C91323BE1F0BD
:102CD0003196313B09F442C040F4333841F1303B86
:102CE000B1F1323809F0C9C029C03C3B09F44EC0EB
:102CF00020F4343B09F4E5C0C0C03D3B09F4E1C019
:102D0000303D09F44EC0B9C065FD03C081E090E0DC
:102D100002C082E090E0A114B10409F4D2C0EE0F29
:102D2000FF1F60718E0F9F1F0E940000CAC080E0CD
:102D300090E0892B09F4C5C081E006C080E090E0F6
:102D4000892B09F4BEC080E00E940000BAC0462F63
:102D500040726071CF010E94580CB3C066FF0BC077
:102D60006114710409F4ADC0462F40726071CF0147
:102D70000E940000A6C08114910409F4A2C0462F4D
:102D800040716072CF010E9400009BC04114510449
:102D900009F497C0462F40726071CF010E94000075
:102DA00090C0822F8076803221F1803619F0811117
:102DB00088C01FC080E090E0892B09F482C0F60132
:102DC000E3808E2D807D803109F07BC0D48011E0BE
:102DD00001E041E0802F8E2109F040E0202F2D21DD
:102DE000000F612F80E80E9400001F5F153089F7F7
:102DF00068C040E050E0452B09F463C0E22FEF715A
:102E000030E8E39FF0011124E60FF11D25FB222796
:102E100020F93196D60113968C91139714964C9104
:102E200050E08D3729F0B0E88B9F400D511D1124E3
:102E3000992381F0923081F0943081F0963081F0C6
:102E4000983081F09A3081F09C3081F09E3081F092
:102E5000692F0FC061E40DC062E40BC063E409C0D8
:102E600064E407C065E405C066E403C067E401C02C
:102E700068E4CF010E94000024C0353E09F04BC138
:102E8000E0913403F09135030280F381E02D48E1B5
:102E900050E069ED71E084E393E00995E09134033B
:102EA000F09135030280F381E02D42E050E062EFC3
:102EB00071E084E393E00995F60181818F3009F494
:102EC00066C080E090E0892B09F460CE0E9400008B
:102ED00053CE10928F031092910310929003EFE85B
:102EE000F3E0129233E0E738F307D9F7E1E8F2E0D4
:102EF00087E08E0F11928E13FDCF8ECD20911B0394
:102F000080911D0390E0820F911D813891050CF492
:102F10007ACE30E8C32EC21AF894409119038091FA
:102F20001A03841730F480911B03B42FB81B8B2F26
:102F300002C08C2D840F80931903789480911A031A
:102F4000481780F4D12C50E069E972E0C601875639
:102F50009D4F0E94A41A60911B0370E067567D4F3D
:102F6000A60107C060911B03461B50E070E0675646
:102F70007D4F89E992E00E94A41A80911A039091F2
:102F80001B03891B80931A0310921B033CCE838181
:102F9000853009F096CF8481811193CF6681379671
:102FA000C6010E9621E05E2F4F2F322F362319F0E7
:102FB000308130683083220F3196E817F907A9F77E
:102FC000D60116961C92169715962C9115972032BD
:102FD00009F484C0213209F074CF17968D919C9129
:102FE00018978F3FBFEF9B07F9F4F60121853285D3
:102FF000232BD1F4238534852F3F3F4FA9F480E064
:1030000090E00E94EC1B082F10E0D6011C961C9348
:103010000E931B9718963C922E921797E12C20E066
:1030200030E041E157E21EC0F6012585211121C0A3
:1030300043855485618572859601255F3F4F0E94C7
:10304000DB0C8F3709F059C0D6011B960D911C91EE
:103050001C9719962D913C911A9717964D915C915A
:103060001897E12C12966C91CE0101960E942219BC
:103070004DC027FF28C026FD26C0B601655F7F4FE3
:10308000852F942F0E942F0C8F37E9F4D6011B96C1
:103090000D911C911C9717964D915C91189780E8A3
:1030A000E82E20E030E012966C91CE0101960E944D
:1030B00022196AE070E080E090E00E943F11CE01AA
:1030C00001960E949007F601858586FFFACE6385FA
:1030D0007485878190850E94160CF3CED6011B96CD
:1030E0004D915C911C9719966D917C911A9717964A
:1030F0008D919C9118970E94A80C87FDE2CEF60155
:1031000090819F7724EB29839A838B83CE0101964C
:103110000E949007D6CE3D3E09F4B2CED2CECF92D9
:10312000DF92EF92FF920F931F93CF93DF931F9243
:10313000CDB7DEB7182F062FE42E862F880F8E5FAF
:1031400099830E940D0183E00E940D01F12EC12E92
:103150009981D92E8C2D8F19801798F4F601E7FEEE
:1031600002C0849101C080810E940D01182F80E06F
:103170000E940D018123FFEFCF1ADF0A8111EACFF0
:1031800001C081E00F90DF91CF911F910F91FF90CF
:10319000EF90DF90CF90089510922B0310922A03A6
:1031A00088EE93E0A0E0B0E080932C0390932D0391
:1031B000A0932E03B0932F0329EB31E03093290322
:1031C000209328031092370310923603809338031C
:1031D00090933903A0933A03B0933B038BEC91E0B7
:1031E00090933503809334038FEF9FEF90934103C7
:1031F0008093400380E48093920360E085E10E9425
:103200000311ECEAF1E0E491E0938403EDE8F1E0EE
:10321000E491F0E0EE0FFF1FE659FE4F8591949187
:10322000909386038093850310928F0310929103ED
:1032300010929003EFE8F3E0129283E0E738F8078A
:10324000D9F70895EF920F931F93FC0185EE8083C9
:103250008FE0818385E08283613029F489E4838370
:103260008BE4848302C0638314828FE1858316829A
:10327000508747833287218714870387E586DF01DC
:103280001796AF01425F5F4F91E08C9187FF05C0B9
:103290002681292B26838F778C93990F1196A4175B
:1032A000B50799F71F910F91EF900895AA1BBB1BCB
:1032B00051E107C0AA1FBB1FA617B70710F0A61B36
:1032C000B70B881F991F5A95A9F780959095BC0157
:1032D000CD010895EE0FFF1F0590F491E02D0994A4
:1032E0000E9484190C94651A0E945E1A58F00E947C
:1032F000571A40F029F45F3F29F00C944E1A5111EF
:103300000C94991A0C94541A0E94761A68F3992313
:10331000B1F3552391F3951B550BBB27AA276217D1
:103320007307840738F09F5F5F4F220F331F441FDE
:10333000AA1FA9F335D00E2E3AF0E0E832D0915012
:103340005040E695001CCAF72BD0FE2F29D0660FFF
:10335000771F881FBB1F261737074807AB07B0E842
:1033600009F0BB0B802DBF01FF2793585F4F3AF048
:103370009E3F510578F00C944E1A0C94991A5F3FB9
:10338000E4F3983ED4F3869577956795B795F795CE
:103390009F5FC9F7880F911D9695879597F90895B6
:1033A000E1E0660F771F881FBB1F62177307840752
:1033B000BA0720F0621B730B840BBA0BEE1F88F761
:1033C000E09508950E947E1A88F09F5798F0B92FD3
:1033D0009927B751B0F0E1F0660F771F881F991F4A
:1033E0001AF0BA95C9F714C0B13091F00E94981A3A
:1033F000B1E008950C94981A672F782F8827B85F4A
:1034000039F0B93FCCF3869577956795B395D9F7A1
:103410003EF490958095709561957F4F8F4F9F4FAB
:103420000895E89409C097FB3EF4909580957095B7
:1034300061957F4F8F4F9F4F9923A9F0F92F96E900
:10344000BB279395F695879577956795B795F11175
:10345000F8CFFAF4BB0F11F460FF1BC06F5F7F4F12
:103460008F4F9F4F16C0882311F096E911C0772324
:1034700021F09EE8872F762F05C0662371F096E82D
:10348000862F70E060E02AF09A95660F771F881FFC
:10349000DAF7880F9695879597F9089597F99F67BA
:1034A00080E870E060E008959FEF80EC08950024CC
:1034B0000A941616170618060906089500240A9499
:1034C00012161306140605060895092E0394000C1F
:1034D00011F4882352F0BB0F40F4BF2B11F460FFAE
:1034E00004C06F5F7F4F8F4F9F4F089557FD9058D7
:1034F000440F551F59F05F3F71F04795880F97FBB8
:10350000991F61F09F3F79F0879508951216130671
:103510001406551FF2CF4695F1DF08C016161706A0
:103520001806991FF1CF86957105610508940895D5
:10353000E894BB2766277727CB0197F9089581E0A8
:1035400090E0F8940C941D1C6817790768F4FB014F
:10355000DC01E40FF51FA40FB51F02C002900E920C
:1035600041505040D8F708950C94B61AFB01DC0185
:1035700002C001900D9241505040D8F70895CF936A
:10358000DF938230910510F482E090E0E0911B041B
:10359000F0911C0420E030E0C0E0D0E0309711F161
:1035A0004081518148175907C0F04817590761F405
:1035B00082819381209719F09B838A832BC09093FB
:1035C0001C0480931B0426C02115310519F04217F5
:1035D000530718F49A01BE01DF01EF010280F38165
:1035E000E02DDCCF2115310509F1281B390B2430E2
:1035F000310590F412968D919C9113976115710588
:1036000021F0FB019383828304C090931C04809378
:103610001B04FD01329644C0FD01E20FF31F8193AC
:103620009193225031092D933C933AC02091190473
:1036300030911A04232B41F420910E0130910F0197
:1036400030931A042093190420910C0130910D013C
:103650002115310541F42DB73EB74091100150912D
:103660001101241B350BE0911904F0911A04E217A3
:10367000F307A0F42E1B3F0B2817390778F0AC0195
:103680004E5F5F4F2417350748F04E0F5F1F509372
:103690001A04409319048193919302C0E0E0F0E092
:1036A000CF01DF91CF9108950F931F93CF93DF93B5
:1036B000009709F48CC0FC013297138212820091AA
:1036C0001B0410911C040115110581F42081318126
:1036D000820F931F2091190430911A04281739077B
:1036E00079F5F0931A04E093190471C0D80140E011
:1036F00050E0AE17BF0750F412962D913C911397EE
:10370000AD012115310509F1D901F3CF9D01DA0190
:103710003383228360817181860F971F82179307FD
:1037200069F4EC0128813981260F371F2E5F3F4F46
:10373000318320838A819B8193838283452B29F463
:10374000F0931C04E0931B0442C01396FC93EE9389
:103750001297ED01499159919E01240F351FE217EF
:10376000F30771F480819181840F951F0296119661
:103770009C938E938281938113969C938E93129740
:10378000E0E0F0E0D80112968D919C91139700979C
:1037900019F0F8018C01F6CF8D919C9198012E5F64
:1037A0003F4F820F931F2091190430911A0428175C
:1037B000390769F4309729F410921C0410921B0405
:1037C00002C01382128210931A0400931904DF912D
:1037D000CF911F910F910895F999FECF92BD81BDB0
:1037E000F89A992780B50895A8E1B0E042E050E04A
:1037F0000C940F1C262FF999FECF1FBA92BD81BDE4
:1038000020BD0FB6F894FA9AF99A0FBE0196089562
:103810000E94FA1B272F0C94FB1BDC01CB01FC013F
:10382000F999FECF06C0F2BDE1BDF89A319600B419
:0E3830000D9241505040B8F70895F894FFCF24
:10383E00FFFFFFFF00E100000000000000001D047C
:10384E00800000000000D0065503950BA10B4E0220
:10385E009F0B9E0B9D0BB20B9A0B970B000000005B
:10386E00390EF70B2102EB01F801D9039E0B9D0BCC
:10387E001F029A0B970B00000000D1065703EA01B6
:10388E00D90198039F0B9E0B9D0B5B039A0B970B15
:10389E0000000000D20659033F024102E1039F0BD4
:1038AE009E0B3E02400222023A0200000000380E39
:1038BE00F90B960B4102E1039F0B9E0B3E02131078
:1038CE0022023A0200000000A010FB0BA20BA10B7B
:1038DE00A00B9F0B9E0B9D0B9B0B9A0B970B00C186
:1038EE0080810000000000000061073107D601054D
:1038FE0007290715070607000000009A018A020F24
:10390E0003B001BB0113033103506F737369626C13
:10391E00792061204C4E4356206D65737361676547
:06392E002E000D0A00004E
:00000001FF
