:100000000C94E3000C940B010C940B010C940B0169
:100010000C940B010C940B010C940B010C940B0130
:100020000C940B010C940B010C94690A0C94DB0AE0
:100030000C940B010C940B010C940B010C940B0110
:100040000C9455080C94C9060C940B010C940B01EC
:100050000C940B010C940B010C940B010C94B91330
:100060000C940B010C940B010C940B010C940B01E0
:100070000C940B010C940B010C940B010C940B01D0
:100080000C940B010C940B010C940B010C940B01C0
:100090000C94AB0E0C940B010C940B010C940B0103
:1000A0000C940B010C940B010C940B01051008101F
:1000B000F70FFB0F01102910291029100C10101038
:1000C00014101A101E1029102410080B000202022E
:1000D00001000904000001020200000524001001D3
:1000E0000524010101042402060524060001070578
:1000F000810310004009040100020A000000070506
:1001000002024000000705830240000004030904C6
:1001100012010002EF0201404F1B03920001010295
:100120000301537061726B46756E00537061726BA0
:1001300046756E2050726F204D6963726F0000002B
:100140000000240027002A002D00300000000000DD
:10015000250028002B002E003100000000020009BD
:100160000F0000030401000C00000000000000006C
:100170000000000000000000000000002300260036
:1001800029002C002F0004040404040304050202C7
:100190000202040302020202060606060606040420
:1001A00002020204040408020110408040102040B2
:1001B000804080080204018040201002011080105D
:1001C00020404020E81B11241FBECFEFDAE0DEBF45
:1001D000CDBF13E0A0E0B1E0E2E5FEE302C0059090
:1001E0000D92A43CB107D9F725E0A4ECB3E001C01F
:1001F0001D92AB3EB207E1F710E0C3EED0E004C0C1
:100200002197FE010E94741CC23ED107C9F70E94CB
:1002100003140C94271F0C940000DC01ED91FC9159
:10022000119716966C9121E062270084F185E02DEC
:1002300041E00994DC0117968C9117978823B1F05F
:1002400019968C911997662311F08F5F01C0815028
:1002500019968C93199719968C91199718162CF05A
:1002600019961C92199760E001C061E016966C9394
:100270001697ED91FC9111970284F385E02DCD0145
:10028000099480E008950895FC0181E0672B09F44A
:1002900080E0818B882319F08681978102C0808558
:1002A0009185958B848B84899589938B828B178A12
:1002B000168A128E118E0895FC01818990E00895AE
:1002C000089508950895DC01ED91FC9111975196E0
:1002D0006C9121E062270084F185E02D40E00994D3
:1002E000FC01662319F091E09427978346830895D3
:1002F000089508959C012150310927313105A0F45A
:10030000880F991FFC01E953FC4F80819181DC012A
:10031000ED91FC9121E0672B09F420E00084F18548
:10032000E02D40E0622F09940895CF93DF93EC0114
:100330008F859889892B81F18FB7F8944091E205D8
:100340005091E3056091E4057091E5058FBF8B85C1
:100350009C85AD85BE85481B590B6A0B7B0B898537
:100360009A85A0E0B0E084179507A607B707B0F418
:100370008A89882341F08F859889019721F488859F
:1003800061E070E003C08F8160E070E090E00E9467
:100390007A01188A1F8602C080E001C081E0DF91E7
:1003A000CF9108950F931F93CF93DF93EC01298989
:1003B0006217A1F18F859889892B81F5E62FF0E0EE
:1003C00030E091E02E173F070CF090E0042F162F3D
:1003D0009A8B992341F081E090E0988B8F878F81F1
:1003E00061E070E007C081E090E0988B8F8788859E
:1003F00060E070E090E00E947A010111198B2FB744
:10040000F8948091E2059091E305A091E405B09104
:10041000E5052FBF8B879C87AD87BE87DF91CF9186
:100420001F910F91089580E090E00895089580E075
:100430000895089508950895089508950895FC0174
:100440002085211161E0FC0182810C942A100C941A
:100450005E1E0C945E1E0C945E1E0C945E1E0F932A
:100460001F93CF93DF93EC012A81222309F130E01F
:10047000F901E65AFE4F8491F901EB55FE4F0491C4
:10048000F901EA57FE4F1491112379F081110E946E
:10049000ED0FE12FF0E0EE0FFF1FE858FE4FA591A2
:1004A000B491EC91E02381E009F480E081708E83C7
:1004B0006E818F81681791F08B819C810E94A211BF
:1004C0008A85882339F06E8181E06827888599853F
:1004D0000E94A2118E818F8381E001C080E0DF91B4
:1004E000CF911F910F9108950F931F93CF93DF9397
:1004F0008C01EB0185E692E00E94261280910404B3
:100500008823F1F001311742A9F480E090E00E94C5
:10051000F61E90E0C817D90781F41092040480E811
:1005200092E00E9426120C940000DF91CF911F915F
:100530000F91089586E992E005C084EA92E002C036
:100540008BEB92E0DF91CF911F910F910C942612CB
:10055000EF92FF920F931F93CF93DF937C018B0158
:1005600080E090E00E94F61EC82FD0E0F701808165
:1005700091810E942812F801808191810E942812A5
:10058000CE010E942812F70180819181813197422A
:10059000D1F4F801808191818C179D0741F481E0AD
:1005A000809304048EEC92E00E9426120AC0019609
:1005B00051F480E090E00E94F61E90E0F8019183F3
:1005C00080838FE703C0109204048FEFDF91CF91F7
:1005D0001F910F91FF90EF9008950F931F93CF936A
:1005E000DF938C01EB0182EE92E00E942612F8016B
:1005F000808191810E9428124AE061E177E280E0E7
:1006000090E00E94E51180E090E00E94F61E282F05
:1006100030E03983288381E197E2F8019183808378
:10062000888199810E9428128FE7DF91CF911F91D5
:100630000F910895EF92FF920F931F93CF93DF9343
:1006400020910404222309F45BC0052F142FEB0131
:100650007C018DEE92E00E942612C7010E942812B2
:1006600084E093E00E942612CE010E94281284E0CA
:1006700093E00E94261284E093E00E942612812FCC
:10068000902F0E94281287E093E00E94261281E1B9
:10069000E81687E2F80681F5C03481E0D80790F5C6
:1006A000CE010E940B0D7C010E942812C032D105A0
:1006B00010F062E001C061E070E080E090E04AE0AC
:1006C0000E94E511812F90E0A0E0B0E04AE0BC017B
:1006D000CD010E94E511C70180509040C032D10584
:1006E00098F0612F702F0E94121FCE010E945A0EA7
:1006F0000E9428128FE70CC08AE093E00E94261225
:100700008FEF06C081E004C0612F0E94041FEDCF6F
:10071000DF91CF911F910F91FF90EF9008959F92DD
:10072000AF92BF92CF92DF92EF92FF920F931F93FF
:10073000CF93DF9300D0CDB7DEB76C017B01890189
:100740008AE193E00E942612C6010E94281284E0EA
:1007500093E00E942612C7010E94281284E093E0D1
:100760000E94261284E093E00E942612F801808104
:1007700091810E94281287E093E00E9426128091C6
:100780000404882309F433C1F1E1CF16F7E2DF0650
:1007900009F02AC145E0E416F10419F488E190E07B
:1007A0001AC1F0E4EF16F1E0FF0600F5C7010E9460
:1007B0005A0EF8019183808380E393E00E94261211
:1007C000C7010E940B0D805090400E94281282E4C5
:1007D00093E00E942612F801808191810E942812E4
:1007E0008FEF91E00E9426128FE708C1FAEFEF1613
:1007F000F3E0FF0609F048C00E94D5120E94C01223
:1008000061E084E40E94851268EE73E080E090E08D
:100810000E9496100E94D5120E94C01260E08EEBDA
:100820000E948512EBEFEE2EE3E0FE2EF9E09F2E04
:100830009E0C78E0A72EB12CCC24C394D12C0E941E
:100840002E128111DC28CC0C41E0A41AB108B9F7B2
:10085000F701D1927F019E12ECCF8091FC0390E0D2
:10086000982F88272091FB03822B2091FF0320766D
:1008700011F4887FB0C0203211F48C7FACC02034DA
:1008800009F0A9C08E7FA7C0FBEFEF16F3E0FF06CB
:1008900059F48091D10490E0982F8827F801918332
:1008A00080832091D2040FC0FCEFEF16F3E0FF0627
:1008B00061F48091D30490E0982F8827F801918308
:1008C00080832091D404822B87C0FDEFEF16F3E0E4
:1008D000FF0659F48091D50490E0982F8827F801FD
:1008E000918380832091D604EECFFEEFEF16F3E0E4
:1008F000FF0659F48091D70490E0982F8827F801DB
:10090000918380832091D804DECFFFEFEF16F3E0D0
:10091000FF0619F48EE398E25EC0E114F4E0FF06EE
:1009200081F48091E7059091E805009711F48BEE32
:1009300095E09E012F5F3F4FA901481B590BCA014B
:100940004AC0F1E0EF16F4E0FF0629F48091C403F9
:100950009091C50340C0F2E0EF16F4E0FF0629F4E1
:100960008091EB059091EC0536C0F3E0EF16F4E0D2
:10097000FF0619F48DB79EB72EC0C701845094406E
:100980000597D8F5F6E0EF16F4E0FF06D9F030F45D
:1009900055E0E51654E0F50681F00AC087E0E81658
:1009A00084E0F806A1F0E8E0EE16E4E0FE06B9F017
:1009B00080916D0590916E050EC080916F059091AC
:1009C000700509C0809171059091720504C08091F5
:1009D000730590917405F8019183808305CF809110
:1009E000750590917605F7CF80E593E002C08BEB1B
:1009F00092E00E9426128FEF01C081E00F900F90CD
:100A0000DF91CF911F910F91FF90EF90DF90CF90EA
:100A1000BF90AF909F9008958F929F92AF92BF9298
:100A2000CF92DF92EF92FF920F931F93CF93DF93BA
:100A30005C01962E842E85E793E00E942612C50164
:100A40000E942812E0918305F09184050190F081C5
:100A5000E02D6AE383E895E00995811003C087E6FD
:100A600093E002C080E693E00E94261286E893E0BD
:100A70000E942612911003C081E793E002C08EE627
:100A800093E00E948413C7ECD3E00BE210E0C12C8A
:100A9000D12C7601A881B98113968D919C911497E0
:100AA0008A159B05B9F5ED91FC91119741E09110E4
:100AB00001C040E061E0811001C060E00084F18588
:100AC000E02DCD01099588819981DC01ED91FC91A2
:100AD0000488F589E02D0995BC01C8010E94121F08
:100AE0008AE893E00E9426124AE0C701B6010E94FC
:100AF000E5118AE993E00E94261288819981DC0140
:100B0000ED91FC910684F785E02D09958FEF91E03A
:100B10000E94261222960C5E1F4FBFEFCB1ADB0AF3
:100B2000EB0AFB0A88E1C816D104E104F10409F0DC
:100B3000B1CFDF91CF911F910F91FF90EF90DF9098
:100B4000CF90BF90AF909F908F900895EF92FF92BB
:100B50000F931F93CF93DF938C017B0180EA93E087
:100B60000E942612C8010E94281280EB93E00E9486
:100B70002612E801CC0FDD1FC953DC4FE881F98153
:100B8000838194810E9428128BEB93E00E942612AD
:100B9000B70180E090E04AE00E94E5118EEF91E01D
:100BA0000E94CD11012B69F0E881F9816E2D8381BE
:100BB0009481DF91CF911F910F91FF90EF900C9452
:100BC000A211DF91CF911F910F91FF90EF900895A7
:100BD000CF93DF93EC01298D3A8D8D859E85213051
:100BE000310519F460E070E005C02989211107C0C2
:100BF00061E070E00E94A60560E070E006C060E081
:100C000070E00E94A60561E070E08F859889DF9111
:100C1000CF910C94A6051F93CF93DF93EC01162F71
:100C2000662319F08E819F8102C0888599859D8BEE
:100C30008C8B4C895D892A893B898A859B854217E3
:100C4000530718F49195819591099F8B8E8B8C8514
:100C500061E070E090E00E947A01CE010E94E80518
:100C6000198B81E090E09A8F898FDF91CF911F914E
:100C70000895EF92FF920F931F93CF93DF93EC01B0
:100C8000E98CFA8C82E0E816F10431F10A891B89BB
:100C90008C899D890817190721F0A801481B590B59
:100CA00002C040E050E02E893F89C90137FF04C0EF
:100CB00088279927821B930B4817590778F482E0FD
:100CC00090E09A8F898F8C8560E070E090E00E94C0
:100CD0007A01CE010E94E80580E051C0888D8F5FC7
:100CE000888F91E0E916F10409F03FC08B3FD8F1FD
:100CF000020F131F1B8B0A8B6A81EB8DFC8D808189
:100D000091E09093AD048093CF041092AE041092C2
:100D1000D00484E0689FB00111246A5F7F4F87E7A9
:100D200095E00E94BA0D80E090E00E946B0E80E09A
:100D300090E00E946B0EC8010E946B0E812F90E024
:100D40000E946B0E81E00E940C13188E8E899F8981
:100D5000892B49F42C893D898A899B892817390771
:100D600011F4FF8AEE8A81E00AC0EF2809F0B4CFBF
:100D70008B3F08F4B1CF81E090E09A8F898FDF91AB
:100D8000CF911F910F91FF90EF90089508950895CE
:100D900008951F920F920FB60F9211242F933F9335
:100DA0004F935F936F937F938F939F93AF93BF9373
:100DB000CF93DF93EF93FF938091DF049091E00452
:100DC00080549C4F9093E0048093DF048091DF0473
:100DD0009091E00490938900809388008091E404CE
:100DE0008F5F8093E4048091E5048430E1F5809185
:100DF000E404893078F48091DB0490E09595879540
:100E00008093DB044C9B3EC18091DB04806880931F
:100E1000DB0438C1B59A80916F00806280936F00C7
:100E20008091D9049091DA044C9909C0FC01E957EA
:100E3000FF4F808191810196918380830FC0409103
:100E4000DB04FC01E058FF4F308121E0230F2083B9
:100E5000DC01A30FB11D4C9327FD10821092E40416
:100E600081E08093E5048091E504833009F0B4C00B
:100E7000E091E204F091E30440812091E10499B112
:100E800050E0022E02C0559547950A94E2F7892F4B
:100E900090E034E0959587953A95E1F7842795277A
:100EA00080FD04C01092E40482E094C08091E404C8
:100EB0008930F0F48091DB04308180FF09C081E04B
:100EC00090E001C0880F2A95EAF78095832307C038
:100ED00081E090E001C0880F2A95EAF7832B808398
:100EE0008091DB0490E0959587958093DB0474C036
:100EF0008091E404893059F4308181E090E001C0B0
:100F0000880F2A95EAF780958323808365C08091B6
:100F1000E6048F5F8093E6049091E704891748F513
:100F20001092E404A091DD04B091DE048091E60407
:100F3000A80FB11D8C918093DB04308181E090E09B
:100F400001C0880F2A95EAF7832B80838091840063
:100F5000909185008A5A9C4F9093E0048093DF041F
:100F60008091DF049091E004909389008093880041
:100F700033C081E08093DC04E091DD04F091DE0475
:100F80004091D9045091DA0480818076803611F442
:100F9000818105C08081807682958F708E5F20E090
:100FA00030E0DA01A058BF4F281788F4EF01C20FD4
:100FB000D31F78816C9191E0960F9C93EA01C60F44
:100FC000D11D788397FD1C922F5F3F4FEDCF10927C
:100FD000E40481E08093E5048091E5048230D1F55A
:100FE0008091E404811111C0E091E204F091E304E6
:100FF000208181E090E00090E10402C0880F991FF9
:101000000A94E2F7822B808325C08091E4048F301C
:1010100008F1E091E204F091E304208181E090E0A6
:101020000090E10402C0880F991F0A94E2F78095AE
:10103000822380831092E40481E08093E504E091B0
:10104000D904F091DA04E357FF4F80819181019632
:10105000918380838091E5048130A1F48091E40440
:10106000811105C0B59A80916F00806209C080919E
:10107000E404883338F01092E50480916F008D7F8E
:1010800080936F00FF91EF91DF91CF91BF91AF916E
:101090009F918F917F916F915F914F913F912F9190
:1010A0000F900FBE0F901F9018951F920F920FB6C2
:1010B0000F9211248F939F93EF93FF93EFE6F0E04D
:1010C00080818F7D808380918600909187008056FB
:1010D0009A4F9093E0048093DF048091DF04909115
:1010E000E0049093890080938800B19A80818260A7
:1010F000808384E08093E5041092E404FF91EF91F3
:101100009F918F910F900FBE0F901F90189508958B
:101110004091070450910804209105043091060481
:1011200042175307B4F49091E8009570E1F3909161
:10113000E80092FD19C08093F1008091070490911E
:10114000080401968F739927892B19F48EEF8093E9
:10115000E800809107049091080401969093080498
:101160008093070481E0089580E00895DF92EF9274
:10117000FF920F931F93CF93DF93D82E8A017B01A9
:10118000E40EF51EEB01CE15DF0571F0D7FE03C0AE
:10119000FE01849101C088810E94880821968111F6
:1011A000F2CF8FEF9FEF01C0C801DF91CF911F9168
:1011B0000F91FF90EF90DF900895615030F02091F3
:1011C000F100FC0120830196F8CF289884E68093F3
:1011D00030040895CF92DF92EF92FF920F931F9306
:1011E000CF93DF936C017A018B01C0E0D0E0CE1584
:1011F000DF0589F0D8016D918D01D601ED91FC914B
:101200000190F081E02DC6010995892B11F47E0132
:1012100002C02196ECCFC701DF91CF911F910F91B2
:10122000FF90EF90DF90CF900895CF93DF931F92C0
:10123000CDB7DEB76983DC01ED91FC910280F381CB
:10124000E02D41E050E0BE016F5F7F4F09950F90A8
:10125000DF91CF91089583E08093E9008091F200BF
:10126000882319F08AE38093E8000895FC018485BF
:10127000958597FD0BC09FB7F89482E08093E900B5
:101280008091F2009FBF90E0019608959FB7F89477
:1012900082E08093E9008091F2009FBF90E0089582
:1012A000089580E090E00895DC01ED91FC911197A4
:1012B00061E01F962D913C915097232B09F060E03F
:1012C0000084F185E02D41E0099408950E94A91D54
:1012D0000F931F93CF93DF931F92CDB7DEB782E0BA
:1012E000898342E450E06AEC70E080E80E94B6082E
:1012F0000E94D90FDC0112960D911C9113970115D4
:10130000110569F0D801ED91FC910280F381E02D87
:10131000BE016F5F7F4FC801099597FF07C08981A4
:101320000F90DF91CF911F910F910895F8010085E3
:101330001185E5CF8F929F92AF92BF92CF92DF92AD
:10134000EF92FF920F931F93CF93DF935C016B019A
:101350007A0180910701882309F45BC080913104F0
:10136000882309F456C08091C50380FF05C0809191
:10137000E00082608093E000E70110E00AEF83E084
:10138000882E9AE3992E2097D9F10E949A0E811106
:101390000AC0015009F43DC061E070E080E090E0D7
:1013A0000E949610F0CF282F30E0C217D3070CF41C
:1013B0008C2F4FB7F8948092E9009091E80095FF48
:1013C0001DC0282F30E0C21BD30BF601982F91507F
:1013D00020F081918093F100FACFC20ED31E112329
:1013E00019F09092E80009C08091E80085FD06C0E0
:1013F0009092E80011E0209709F010E04FBFC3CFB2
:101400001111C3CF5D9884E6809309041E141F0454
:1014100044F081E090E0F5019383828380E090E0E6
:1014200001C0C701DF91CF911F910F91FF90EF9005
:10143000DF90CF90BF90AF909F908F9008950E94C3
:101440009A0E90E00895CF93DF931F92CDB7DEB749
:10145000FC018485958597FD05C02FEF3FEF35870B
:1014600024870BC0CE0101960E94700E019719F4DB
:10147000898190E002C08FEF9FEF0F90DF91CF91B5
:1014800008950F931F93CF93DF931F92CDB7DEB7CD
:101490008C01FC018485958597FF0EC0CE010196D5
:1014A0000E94700E019719F4298130E002C02FEFDD
:1014B0003FEFF80135872487F801848595850F90E3
:1014C000DF91CF911F910F9108950C945E1E0C94A3
:1014D0005E1E1F920F920FB60F9211248F939F934F
:1014E0008091E1009091E100937F9093E10083FF70
:1014F0000FC01092E90091E09093EB001092EC0085
:1015000092E39093ED001092310498E09093F000F4
:1015100082FF20C093E09093E9009091F20099231C
:1015200019F09AE39093E80090910904992339F017
:1015300090910904915090930904992389F1909115
:101540003004992339F090913004915090933004F5
:10155000992341F184FF10C08091E2008E7E81606A
:101560008093E2008091E1008F7E8093E100809182
:10157000C5038E7E806111C080FF16C08091E2009D
:101580008E7E80618093E2008091E1008E7E809368
:10159000E1008091C5038E7E81608093C50304C005
:1015A0005D9ACDCF289AD6CF9F918F910F900FBE85
:1015B0000F901F9018951F920F920FB60F92112443
:1015C000CF92DF92EF92FF920F931F932F933F934F
:1015D0004F935F936F937F938F939F93AF93BF933B
:1015E000EF93FF93CF93DF93CDB7DEB76C97DEBF5A
:1015F000CDBF1092E9008091E80083FFEDC168E063
:10160000CE0145960E94DD0882EF8093E8008D8927
:1016100087FF05C09091E80090FFFCCF03C09EEFCC
:101620009093E800982F907609F0C6C09E892F8984
:10163000188D91110CC0803829F48091C6038093D5
:10164000F10002C01092F1001092F10048C1422F47
:1016500050E0512B913051F4811141C1413051057D
:1016600009F03DC18091C6038D7F0BC0933061F4BA
:10167000811135C14130510509F031C18091C60356
:1016800082608093C6032BC1953041F48091E800BD
:1016900080FFFCCF20682093E30021C1963009F041
:1016A0005FC0EB8CFC8C1092E90010920804109241
:1016B0000704123091F510920604109205040E945E
:1016C000680999E0BE016F5F7F4FDB01E92F1D9232
:1016D000EA95E9F799831A8391E09E8390EA9887C7
:1016E0009AEF99872091070430910804275F3F4FB4
:1016F0003C832B838D831092E90010920804109292
:101700000704F0920604E092050449E050E080E00E
:101710000E94B6080E946809E2C0F0920604E092B6
:1017200005040E94D90FDC011296ED90FC901397EE
:10173000E114F10409F4C0C0D701ED91FC910480DB
:10174000F581E02DBE016B5E7F4FC70109950097C3
:1017500019F00CF0C4C0C7C0F701E084F184E8CFF1
:10176000973009F4C0C0983021F481E08093F100F3
:10177000B6C0993009F0B3C0837009F0B4C0EFEA85
:10178000F1E081E021E036E39081992361F08093DC
:10179000E9002093EB0091919093EC003093ED00E1
:1017A0008F5F873089F78EE78093EA001092EA0016
:1017B0008F898093310493C08B8D9C8D1092E900AA
:1017C0001092080410920704909306048093050475
:1017D000898D811156C08E899D89913A59F4813243
:1017E00009F081C047E050E060E071E080E00E94D5
:1017F000B60875C0913209F076C0833289F4888DBD
:1018000090E0982F88272F89822BA0E0B0E080936A
:10181000080190930901A0930A01B0930B015FC0E6
:10182000803269F48091E80082FFFCCF67E080E0BD
:1018300091E00E94DD088BEF8093E80006C08232C1
:1018400009F04DC08F89809307018091C4038823DC
:1018500019F0EEEFFAE002C0E0E0F8E0809100015C
:1018600090910101A0910201B0910301803B94404D
:10187000A105B10509F07BC08091070180FF93C0ED
:1018800076C00E94D90FDC0112960D911C9113971E
:101890000115110541F1D801ED91FC910190F08104
:1018A000E02DBE016B5E7F4FC8010995811117C005
:1018B000F80100851185ECCF113009F44EC01330CA
:1018C00091F48F89882309F445C0823081F440E87F
:1018D00062E18BE291E00E94AB1B882321F08EEF46
:1018E0008093E80079C081E28093EB0075C081307D
:1018F00029F440E868E082E291E0EDCF833099F787
:101900000E94D90FDC011296ED90FC9013978E0186
:101910000F5F1F4F6801E114F10479F0D701ED91D9
:10192000FC910680F781E02DB801C7010995080FE9
:10193000111DF701E084F184EECFD8011C92F6016D
:1019400001900020E9F73197BF016C197D0940E053
:10195000C601C1CF6CE071E002C060E171E06115C9
:10196000710509F2FB01449150E080E840CF0FB6C9
:10197000F894A8958091600088618093600010922F
:1019800060000FBEA895EE3F2AE0F20739F0809183
:10199000FE0A9091FF0A91838083A1CF1092FF0AE3
:1019A0001092FE0A9CCFEE3F8AE0F80731F080816A
:1019B00091819093FF0A8093FE0A87E797E79183CE
:1019C00080839BE088E10FB6F894A895809360002F
:1019D0000FBE9093600083CF6C960FB6F894DEBF75
:1019E0000FBECDBFDF91CF91FF91EF91BF91AF912E
:1019F0009F918F917F916F915F914F913F912F9127
:101A00001F910F91FF90EF90DF90CF900F900FBE3E
:101A10000F901F9018958032910510F4019708954A
:101A20009C0120523109C9016AE070E00E943E1C0D
:101A300044E1649FC0011124AC01415E5F4FC901C4
:101A40007AE0679F801991091124880F991F840FEC
:101A5000951F08950895089585ED8093BC008091A9
:101A6000BC0084FDFCCF1092AC0408954091610449
:101A7000262F30E0240F311D21323105DCF4209176
:101A8000AC042430C9F4FC0180E090E0861758F4DF
:101A9000309161042191DC01A15CBB4FA30FB11D0A
:101AA0002C930196F3CF80916104680F60936104D9
:101AB00080E0089581E0089582E008950895E0911E
:101AC0002F0480912E04E81730F4F0E0E25FFB4F22
:101AD000808190E008958FEF9FEF089590912F04FB
:101AE00080912E04981750F4E92FF0E0E25FFB4F4D
:101AF000208130E09F5F90932F0402C02FEF3FEFD3
:101B0000C901089580912E0490E020912F04821B3A
:101B100091090895CF92DF92EF92FF920F931F9356
:101B2000CF93DF937C01262F972F8A018091AD04FC
:101B3000882391F0C62FD72F6E01C40ED51ECC1569
:101B4000DD0571F06991D701ED91FC910190F08173
:101B5000E02DC7010995F3CF642F822F0E94360D27
:101B6000C801DF91CF911F910F91FF90EF90DF900F
:101B7000CF900895CF93DF931F92CDB7DEB76983DF
:101B80002091AD042223D1F02091D004203240F0E6
:101B900021E030E0FC013383228380E090E015C037
:101BA0008091AE04E82FF0E0E155FB4F99819083DE
:101BB0008F5F8093AE048093D00405C061E0CE01B6
:101BC00001960E94360D81E090E00F90DF91CF9159
:101BD00008953FB7F89480910A0490910B04A09166
:101BE0000C04B0910D0426B5A89B05C02F3F19F039
:101BF0000196A11DB11D3FBFBA2FA92F982F88278D
:101C0000820F911DA11DB11DBC01CD0142E0660FE7
:101C1000771F881F991F4A95D1F70895CF93DF93B7
:101C2000BC01990F880B990B97FF03C00E94921378
:101C300003C04AE00E94E511EC018EEF91E00E94A2
:101C4000CD118C0F9D1FDF91CF910895EF920F93CF
:101C50001F93FC0185EE80838FE0818385E0828382
:101C6000613029F489E483838BE4848302C0638335
:101C700014828FE1858316825087478332872187BC
:101C800014870387E586DF011796AF01425F5F4F38
:101C900091E08C9187FF05C02681292B26838F77C1
:101CA0008C93990F1196A417B50799F71F910F916F
:101CB000EF9008958032910530F00E940B0D805016
:101CC00090400C94FE1E0E940B0D805090400E948C
:101CD000F61E90E00895682F87E795E00C94BA0D02
:101CE000FC0180913104811103C08FEF9FEF0895B3
:101CF0009FB7F89482E08093E9002091F20030E0F1
:101D00001216130614F421E030E02115310559F0C4
:101D1000289884E6809330048091F100808380913C
:101D2000F200882319F09FBFC90108958BE68093C4
:101D3000E800F9CF2FB7F89483E08093E900909101
:101D4000E800892F807295FF04C09091F20080E432
:101D5000891B2FBF08951F920F920FB60F92112467
:101D60002F933F934F935F936F937F938F939F93A3
:101D7000AF93BF93EF93FF938091B900887F803634
:101D800009F49CC068F5883209F45BC090F4803196
:101D900009F454C038F4882309F4F6C0883009F4F3
:101DA0004DC0F6C0883109F44CC0803209F45DC0E2
:101DB000EFC0803409F468C048F4803309F455C09A
:101DC000883309F0E5C08093AA04D8C0803509F4AF
:101DD0004FC0883509F45DC0883409F0D9C0D6C039
:101DE000883909F4C7C0A8F4883709F467C038F403
:101DF000883609F463C0803709F460C0C9C08838E8
:101E000009F4B8C0803909F45FC0803809F0C0C057
:101E10005BC0803B09F486C038F4803A09F466C0A0
:101E2000883A09F47FC0B4C0803C09F4A7C0883C5C
:101E300009F4A4C0883B09F48AC0AAC08091870431
:101E400010C09091A9048091A804981770F5E091B2
:101E5000A90481E08E0F8093A904F0E0E857FB4FBE
:101E600080818093BB0085EC86C08093AA048EC0DD
:101E7000E091A90481E08E0F8093A9048091BB00BA
:101E8000F0E0E857FB4F80839091A9048091A8046B
:101E90006EC0E091A90481E08E0F8093A904809127
:101EA000BB00F0E0E857FB4F80838091AB048111C9
:101EB0006DC081E08093860484EA61C083E08093F2
:101EC000AC0410928504CFCF80918504803208F055
:101ED00051C0E091850481E08E0F8093850480914C
:101EE000BB00F0E0EB59FB4F8083BDCF85EC8093C6
:101EF000BC001092AC0480918504803230F4E091F3
:101F00008504F0E0EB59FB4F10826091850470E08E
:101F1000E0916304F091640485E694E009951092E1
:101F2000850436C084E08093AC0410926204109261
:101F30006104E0915F04F09160040995809161046F
:101F4000811105C081E08093610410923F04E0910B
:101F5000620481E08E0F80936204F0E0E15CFB4F4D
:101F600080818093BB0090916204809161049817F6
:101F700008F479CF85E88093BC000AC085EC809393
:101F8000BC001092AC0404C01092AA040E942C0D54
:101F9000FF91EF91BF91AF919F918F917F916F9141
:101FA0005F914F913F912F910F900FBE0F901F9017
:101FB00018958091370481110DC082E0809333041D
:101FC00084E080933404109236041092350481E04A
:101FD0008093370483E394E0089590E0FC01319707
:101FE000EF30F105B0F5EA5AFF4F0C94741C809164
:101FF00080008F7703C0809180008F7D8093800068
:10200000089580918000877FF9CF84B58F7702C0D3
:1020100084B58F7D84BD0895809190008F7707C02F
:10202000809190008F7D03C080919000877F809386
:10203000900008958091C0008F7703C08091C00008
:102040008F7D8093C00008958091C200877F809328
:10205000C20008951F93CF93DF93282F30E0F9013A
:10206000E65AFE4F8491F901EB55FE4FD491F901E8
:10207000EA57FE4FC491CC23C9F0162F81110E945C
:10208000ED0FEC2FF0E0EE0FFF1FE45BFE4FA5918C
:10209000B4918FB7F894111105C09C91ED2FE09584
:1020A000E92302C0EC91ED2BEC938FBFDF91CF9130
:1020B0001F910895CF93DF9390E0FC01EB55FE4F05
:1020C0002491FC01EA57FE4F8491882361F190E04E
:1020D000880F991FFC01E25CFE4FC591D491FC0171
:1020E000E45BFE4FA591B491611109C09FB7F894CC
:1020F0008881209582238883EC912E230BC0623047
:1021000061F49FB7F8943881822F80958323888368
:10211000EC912E2B2C939FBF06C08FB7F894E881CB
:102120002E2B28838FBFDF91CF9108958F929F929E
:10213000AF92BF92CF92DF92EF92FF926B017C0140
:102140000E94E90D4B015C01C114D104E104F104CA
:10215000F1F00E94E90DDC01CB0188199909AA0967
:10216000BB09883E9340A105B10570F321E0C21A76
:10217000D108E108F10888EE880E83E0981EA11CC2
:10218000B11CC114D104E104F10419F7DDCFFF90B3
:10219000EF90DF90CF90BF90AF909F908F90089579
:1021A000CF93DF93FC0149E18EE261E070E0A3E0B0
:1021B00051E090819076903611F4918105C0908124
:1021C000907692959F709E5F9093E7049091E704BC
:1021D00091501092E6042FEF3091E604391768F41D
:1021E0003091E604EF01C30FD11D388123273091D0
:1021F000E6043F5F3093E604EFCFEF01C90FD11D36
:102200002883F8949091E504913059F49091E40476
:10221000981738F01092E50490916F009D7F90938D
:102220006F0078949091E504913039F49091E40432
:10223000943108F4BECF50E0BCCF9091E5049111E9
:1022400063C0F89490916F009F7D90936F00B59B51
:1022500007C090916F00906290936F00789454C083
:10226000C091E204D091E30498819B010090E104C5
:1022700002C0220F331F0A94E2F7292B28832091F2
:102280008400309185002A5A3C4F3093E00420931B
:10229000DF042091DF043091E00430938900209323
:1022A00088007894F093DE04E093DD041092E60455
:1022B0001092DC0490819093DB04A093E5041092CB
:1022C000E404B19A90916F00926090936F009091A6
:1022D000E5049330E1F39091DC04992371F0E091EF
:1022E000D904F091DA04E757FF4F8081918101967C
:1022F0009183808383E090E022C09091E504923046
:1023000031F025E030E005C022E030E002C024E0FA
:1023100030E02230310511F451114ACF8B3108F0F1
:102320008150415009F044CF80917305909174051C
:102330000196909374058093730586E090E0DF9199
:10234000CF910895CF93DF93CDB7DEB760970FB6E7
:10235000F894DEBF0FBECDBFAC0141505109852FAF
:102360008F709A01369527952F7740FD02C08064C3
:1023700001C080666111806192EB99832A838B830F
:10238000CE0101960E94D01060960FB6F894DEBF81
:102390000FBECDBFDF91CF910895BC01009791F0A2
:1023A000FC0101900020E9F73197AF01481B590B60
:1023B000E0918305F09184050280F381E02D83E8AC
:1023C00095E0099480E090E008958F929F92AF92FB
:1023D000BF920F931F93CF93DF93CDB7DEB7A19733
:1023E0000FB6F894DEBF0FBECDBF19A2423008F47D
:1023F0004AE08E010F5D1F4F842E912CA12CB12C31
:10240000A50194010E94521CE62FB901CA01015096
:102410001109EA3014F4E05D01C0E95CD801EC93E5
:10242000232B242B252B61F7C8010E94CD11A196E7
:102430000FB6F894DEBF0FBECDBFDF91CF911F91D5
:102440000F91BF90AF909F908F9008950C94CD11F5
:10245000BC0180E090E04AE00C94E5118091D30546
:10246000E091D405F091D505F8949181982B918352
:102470002281982F909529232283A7E0B0E011971D
:10248000F1F7218192239183A3E2B0E01197F1F754
:1024900090817894EFECF0E03197F1F7982381E0A8
:1024A00009F480E008959091D305E091D405F0916E
:1024B000D505392F309580FF13C0F8942281832FE2
:1024C000822382838181892B8183A3E2B0E01197EB
:1024D000F1F78281982B9283789487ED90E012C077
:1024E000F8942281832F822382838181892B8183A7
:1024F000AFEFB0E01197F1F78281982B9283789437
:102500008FE090E00197F1F70895EF92FF920F931B
:102510001F93CF93DF931F92CDB7DEB7082F88E0CC
:10252000E82EF12C11E081E0912F902309F480E056
:1025300069830E945312110F81E0E81AF108698142
:10254000E114F10481F7611113C0F894E091D4050E
:10255000F091D50591818091D30580959823918341
:10256000E091D405F091D5059281892382837894F6
:102570000F90DF91CF911F910F91FF90EF900895F1
:102580001F93CF93DF9360E085E50E948512C1ED34
:10259000D4E01C2F185F60E089910E9485121C1303
:1025A000FACFDF91CF911F9108959091D305E091DB
:1025B000D405F091D505F8948181292F20958223A7
:1025C000818378948DE743E050E0815021F1DA0176
:1025D0001197F1F730813923C1F3F8948281822376
:1025E00082838181892B81837894ABE7B7E011974F
:1025F000F1F7F894818128232183A3E1B1E01197B9
:10260000F1F78081982381E009F080E07894E3E697
:10261000F6E03197F1F70895382F2091D00490918A
:10262000CF04213208F049C08091AC048111FCCF65
:1026300042E04093AC043093AB043FEF3093AA04E4
:102640001092A9042093A804AFEAB4E048E854E04B
:10265000FA013E2F341B321718F43D913193F9CF14
:102660001092870420918704990F922B90938704EE
:1026700090918604913061F41092860490918704C1
:102680009093BB009091BC0093FDF8CF95EC01C0F6
:1026900095EE9093BC009091AC049230E1F3909150
:1026A000AA049F3F79F08091AA04803241F0809182
:1026B000AA04803331F084E005C081E003C082E0E9
:1026C00001C083E01092AE041092D0041092AD04C9
:1026D0000895CF93C62F9091E10521E02093AD049A
:1026E0009093CF041092AE041092D004682F87E725
:1026F00095E00E94BA0D6C2F87E795E00E94BA0D15
:1027000081E0CF910C940C13CF93DF930E94CD11F5
:10271000EC018EEF91E00E94CD118C0F9D1FDF9197
:10272000CF910895CF92DF92EF92FF92CF93DF93F4
:102730006B017C01E0918305F09184050190F081AB
:10274000E02D6DE283E895E00995EC016627772797
:10275000CB016C197D098E099F094AE00E94E511A1
:102760008C0F9D1FDF91CF91FF90EF90DF90CF9066
:1027700008951F920F920FB60F9211242F933F933B
:102780008F939F93AF93BF938091E2059091E30560
:10279000A091E405B091E5053091E60523E0230F13
:1027A0002D3720F40196A11DB11D05C026E8230F89
:1027B0000296A11DB11D2093E6058093E20590933A
:1027C000E305A093E405B093E50580910A04909198
:1027D0000B04A0910C04B0910D040196A11DB11D34
:1027E00080930A0490930B04A0930C04B0930D04FF
:1027F000BF91AF919F918F913F912F910F900FBEFD
:102800000F901F901895CF93DF93CDB7DEB76797E2
:102810000FB6F894DEBF0FBECDBF789484B582604A
:1028200084BD84B5816084BD85B5826085BD85B574
:10283000816085BD80916E00816080936E001092F2
:10284000810080918100826080938100809181006D
:1028500081608093810080918000816080938000FE
:1028600080919100826080939100809191008160BD
:10287000809391008091900081608093900080917E
:10288000C10084608093C1008091C1008260809308
:10289000C1008091C10081608093C1008091C3001C
:1028A00081608093C3008091C00082608093C000EB
:1028B0008091C20081608093C20080917A00846020
:1028C00080937A0080917A00826080937A00809170
:1028D0007A00816080937A0080917A00806880938A
:1028E0007A00109231041092C6031092C5038091B1
:1028F000D70081608093D70080EA8093D80089B5A3
:10290000806189BD89B5826089BD09B400FEFDCFB3
:1029100061E070E080E090E00E9496108091D80025
:102920008F7C80618093D8008091E000807F8093CD
:10293000E0008091E1008E7E8093E1008DE0809345
:10294000E200559A209AEEEFFFE7859194918B3F34
:102950009C4D19F481E08093C4038FEF9FEF909317
:10296000900580938F05109107016AE070E080E088
:1029700090E00E9496101123B1F389ED91E00E943E
:1029800026128EE398E20E940E0E8DEE91E00E94D8
:10299000261280E090E00E94F61E682F70E080E032
:1029A00090E04AE00E94E5118EEF91E00E94CD1187
:1029B0008FE8E8EEF4E0DF011D928A95E9F761E027
:1029C00085E00E945A10EAEAF1E02491EBE8F1E098
:1029D000E491F0E0EE0FFF1FE45BFE4F4591549150
:1029E00080E091E031E0291741F08F5F932F082EAE
:1029F00001C0990F0A94EAF7F6CF5093E30440938D
:102A0000E2048093E10488EE94E09093DA048093EA
:102A1000D9045498E091E204F091E304208181E02C
:102A200090E00090E10402C0880F991F0A94E2F739
:102A30008095822380831092800081E080938100C2
:102A40001092E504B59A80916F00806280936F00C8
:102A500080918100887F81608093810081E092E095
:102A60000E94261288E190E00E940E0E85E090E020
:102A70000E94F61E8093F903F12C8091F903F81659
:102A800008F0E2C1AF2CB12CC501885F9F4F0E94B6
:102A9000F61E282FB4E1BA9D8001BB9D100D1124B4
:102AA000C801815E9F4F2F8B0E94FE1EE82EC80139
:102AB0008F5D9F4F0E94FE1E4C01AA0CBB1C2F89EC
:102AC000233009F429C108F057C0213009F4E9C0C6
:102AD000223009F08AC1C8018D5D9F4F0E94FE1E01
:102AE0002C01C8018B5D9F4F0E94FE1E9C01C801F6
:102AF000895D9F4F2F8B3E8B0E94FE1EAC01C8014B
:102B0000835D9F4F4D8B5C8B0E94FE1E1C01C80194
:102B1000815D9F4F0E94FE1E3C01C8018F5C9F4F4C
:102B20000E94FE1E682F8BE190E06B8B0E94C91DF6
:102B30006C01FC01F582E2829482838284E691E05A
:102B400091838083518640862F893E8937832683EF
:102B50004D895C89538742876B896487538A428A8F
:102B6000558A448A36862586708A6786178A168A29
:102B7000108E128E118E2AC1243009F401C126361E
:102B800009F033C1C8018D5D9F4F0E94FE1E1C01DC
:102B9000C8018B5D9F4F0E94FE1E9A8B898BC801D6
:102BA000895D9F4F0E94FE1E2C01C801835D9F4FCF
:102BB0000E94FE1E9C01C801815D9F4F2F8B3E8BA2
:102BC0000E94FE1E3C01C8018F5C9F4F0E94FE1EAA
:102BD000482F8DE190E04D8B0E94C91D6C01DC01F6
:102BE0001596FC9215971296EC92129714969C9259
:102BF0008E9213971B965C924E921A974D891C9653
:102C00004C931C9753963C922E92529755963C9219
:102C10002E9254972F893E891E963C932E931D9792
:102C200050967C926E921F9757961C921E925697C2
:102C300058961C9258975A961C921E925997EEE7F6
:102C4000F1E01196FC93EE9321EE35E05C963C9317
:102C50002E935B97B10180E090E00E941B1D2FE353
:102C600035E342E850E40E947A1C0E94EC1CD60135
:102C700019967C936E931897E989FA89BF0180E0D1
:102C800090E00E941B1D2FE335E342E850E40E94D0
:102C90007A1C0E94EC1CD60117967C936E931697B3
:102CA00095C0C8018D5D9F4F0E94FE1E8170D82E79
:102CB000C8018B5D9F4F0E94FE1E8C018BE090E04F
:102CC0000E94C91D3C01DC011596FC9215971296D5
:102CD000EC92129714969C928E921397E6E1F1E093
:102CE0001196FC93EE93FFEFEF1203C02EEF1296B6
:102CF0002C9362E0D30112968C910E945A10F3013A
:102D0000168281E08783D28611870087F501E95317
:102D1000FC4F718260827BC0C8018D5D9F4F0E9415
:102D2000FE1ED82E8AE090E00E94C91D8C01DC01B5
:102D30001596FC9215971296EC92129714969C9207
:102D40008E921397E0E3F1E0ED93FC9361E08E2D1A
:102D50000E945A10D80116961C9260E0C8010E9489
:102D60001F028D2D8170F80187831186D1FADD2431
:102D7000D0F8D086F501E953FC4F1183008347C09A
:102D8000C8018D5D9F4F0E94FE1EC82EC8018B5D3D
:102D90009F4F0E94FE1ED82EC801895D9F4F0E9442
:102DA000FE1E8C0183E190E00E94C91DFC01F582AA
:102DB000E282948283822AE431E031832083C782D5
:102DC000D08612870187108A17861CC0F501E95347
:102DD000FC4FD182C082C801855D9F4F0E94FE1EBC
:102DE000BC01C6010E94440112C086E090E00E942E
:102DF000C91DFC0128E931E031832083F582E2829C
:102E000094828382D501A953BC4FED93FC9380E15A
:102E100092E00E9426126F2D70E080E090E04AE080
:102E20000E94E5118EEF91E00E94CD11F501E9536A
:102E3000FC4F80819181DC01ED91FC910480F58152
:102E4000E02D0995F39419CE8091E005811166C0BB
:102E50000E94D512882309F461C060E080EF0E94CF
:102E6000851201E0F12CE12C11E00E942E128B8BD7
:102E70000E942E129B89913019F48130C1F435C023
:102E80002F2D30E098131DC08091DE05181738F4FF
:102E9000F901ED52FA4F8381802349F402C01817DB
:102EA00031F090E0193060F41093DF0509C0EF2D88
:102EB000F0E0ED52FA4F8381802B838391E009C0CB
:102EC000E12EF901ED52FA4F2381802F8095822364
:102ED0008383892F0E9453121F5F000F11F4F39414
:102EE00001E0B7E0BF1508F0C0CF1134B8F0E092B0
:102EF000DE05E11003C081E08093E0058091D605F6
:102F0000882361F0A6EDB5E001ED14E0F8018D91A4
:102F1000819324E0E93DF207D1F717C01092DE0556
:102F20001092E0051092DF05EEEDF5E0129235E02B
:102F3000E63DF307D9F7E1EDF4E087E08E0F11925B
:102F40008E13FDCF86E192E022C089E592E00E94D7
:102F50002612C12CD12C76014AE0C701B6010E948D
:102F6000E511D8016D918D0170E080E090E040E1C5
:102F70000E94E511BFEFCB1ADB0AEB0AFB0AE7E080
:102F8000CE16D104E104F10439F78DE492E00E94F9
:102F9000841310922F0410922E041092AE041092FB
:102FA000D0041092AC0411E01093AB04109286048C
:102FB00061E082E00E942A1061E083E00E942A1012
:102FC0008091B9008E7F8093B9008091B9008D7F88
:102FD0008093B90088E48093B80085E48093BC00B6
:102FE00060E080E00E9469138091E1051093AD04D8
:102FF0008093CF041092AE041092D00460E087E773
:1030000095E00E94BA0D81E00E940C138091E105C9
:103010009091AC049111FCCF91E09093AC0490930B
:10302000AB042FEF2093AA041092A9041092A804D5
:103030009093870490918704880F892B809387044D
:1030400080918604813061F4109286048091870417
:103050008093BB008091BC0083FDF8CF85EC01C05C
:1030600085EE8093BC008091AC048130E1F38091C7
:10307000A904811103C08091A90401C081E0A8E8DE
:10308000B4E02EE034E0F9019E2F921B981718F45B
:103090009D919193F9CF10922F0480932E0487E78E
:1030A00095E00E946E0D182F682F6F76606180E0AA
:1030B0000E94691360E68EEF0E946913612F80E021
:1030C0000E94691365E070E080E090E00E94961035
:1030D000612F616A80E00E94691360E0462E60E023
:1030E000562E70E0A72E70E0B72EE0E08E2EE0E0C6
:1030F0009E2EF0E06F2EF0E07F2EFF24FA9450E039
:10310000252E50E0352E1092FA0310E08091F9033D
:10311000181708F04AC0E12FF0E0EE0FFF1FE95347
:10312000FC4F80819181DC01ED91FC910088F18957
:10313000E02D09951F5FEACFE82FF0E0E851FB4F43
:10314000108117FF3BC090916A05981751F02091AC
:103150006F05309170052F5F3F4F309370052093BE
:103160006F0580936A05F0926B05812F807680361B
:1031700019F182958F708E5F80936C058111D8C193
:10318000909169059F5F9093690580916A05392F39
:10319000381B97FD1092690590916C0520916B0585
:1031A000391799F0122710936B058091690590915A
:1031B00068058913C1CF2BC080E0DECF80916C05FC
:1031C0008111DECF10936C05B3C121130EC090E0C6
:1031D00088519B4F40916D0550916E054F5F5F4F39
:1031E00050936E0540936D050BC080916F059091D3
:1031F000700501969093700580936F0580E090E0D4
:103200003091690530936A05009761F202C080E051
:1032100090E09093F8038093F703892B09F480C121
:103220008DE492E00E942612E091F703F091F803FA
:1032300021816281962F9F7030E8939FA001112415
:10324000422B3081323BE9F0DA011196313B09F42F
:1032500042C040F4333841F1303BB1F1323809F02B
:10326000C6C029C03C3B09F44EC020F4343B09F4ED
:10327000BBC0BDC03D3B09F453C1303D09F44EC055
:10328000B6C065FD03C081E090E002C082E090E03E
:103290004114510409F444C1440F551F6071840F57
:1032A000951F0E9400003CC180E090E0892B09F44A
:1032B00037C181E006C080E090E0892B09F430C17D
:1032C00080E00E9400002CC1462F40726071CD0149
:1032D0000E940C0525C166FF0BC08114910409F4FE
:1032E0001FC1462F40726071CD010E94000018C1BD
:1032F000A114B10409F414C1462F40716072CD01CC
:103300000E9400000DC16114710409F409C1462F27
:1033100040726071CD010E94000002C1822F807650
:10332000803219F1803619F08111FAC01EC080E098
:1033300090E0892B09F4F4C0E3808E2D807D8031EC
:1033400009F0EEC0D48011E001E041E0802F8E2131
:1033500009F040E0202F2D21000F612F80E80E940E
:1033600000001F5F153089F7DBC02114310409F418
:10337000D7C0A22FAF7140E8A49FD0011124A60F9F
:10338000B11D25FB222720F911968381448150E04D
:103390008D3729F0E0E88E9F400D511D11249923AF
:1033A00081F0923081F0943081F0963081F0983045
:1033B00081F09A3081F09C3081F09E3081F0692F4D
:1033C0000FC061E40DC062E40BC063E409C064E4B3
:1033D00007C065E405C066E403C067E401C068E4B3
:1033E000CD010E9400009CC02C3309F499C08FE5E8
:1033F00092E00E9426126091F7037091F803072E65
:10340000000C880B990B97FFDCC00E94921300916F
:10341000F7031091F8038FE292E00E942612D80180
:103420006C9170E080E090E04AE00E94E51185E058
:1034300093E00E942612F801618170E080E090E044
:1034400040E10E94E51185E093E00E942612D80138
:1034500012966C9170E080E090E040E10E94E511EE
:1034600085E093E00E942612F801638170E080E01D
:1034700090E040E10E94E51185E093E00E94261271
:10348000D80114966C9170E080E090E040E10E94D9
:10349000E51185E093E00E942612F801658170E055
:1034A00080E090E040E10E94E51185E093E00E9419
:1034B0002612D80116966C9170E080E090E040E111
:1034C0000E94E51185E093E00E9426126801B7E0B2
:1034D000CB0ED11C015F1F4FF60161916F0170E0AF
:1034E00080E090E040E10E94E51185E093E00E94D9
:1034F0002612C016D10681F78FEF91E00E94CD1100
:10350000C090F703D090F803D6018C91853E09F462
:103510005CC08D3E09F459C08FE492E00E942612EF
:1035200080E090E0892B09F4EECD0E940000E5CD0B
:1035300020916A0580916C0590E0820F911D813881
:1035400091050CF41DCE30E8C32EC21AF8944091B8
:10355000680580916905841730F480916A05B42F5D
:10356000B81B8B2F02C08C2D840F80936805789434
:1035700080916905481780F4D12C50E068EE74E022
:10358000C60188519B4F0E94AE1D60916A0570E094
:1035900068517B4FA60107C060916A05461B50E049
:1035A00070E068517B4F88EE94E00E94AE1D8091E0
:1035B000690590916A05891B8093690510926A05D7
:1035C000DFCD4AE00E94E51122CF86E392E00E941F
:1035D0008413F60181818F3009F09ECF838185307D
:1035E00009F09ACF8481811197CF66813796A60121
:1035F000425F5F4F21E0CF01322F362319F0308137
:1036000030683083220F3196E417F507A9F7D60109
:1036100016961C92169715962C911597203209F440
:1036200083C0213209F078CF1796ED91FC9118975D
:10363000EF3FBFEFFB07F9F4D60119962D913C91AE
:103640001A97232BC1F41B962D913C911C972F3F69
:103650003F4F89F4B601655F7F4F0E94ED028F37BF
:1036600009F05ACFF6010385148547815085E12C76
:1036700020E030E01FC0D6011D962C911D9721112E
:103680001FC01B964D915C911C9719966D917C9172
:103690001A979601255F3F4FCF010E948F038F3706
:1036A00009F04BC0F60103851485218532854781D9
:1036B0005085E12C6281CE0101960E94260E46C003
:1036C00027FF21C026FD1FC0B601655F7F4F0E9406
:1036D000A8028F37C1F4F601038514854781508510
:1036E00080E8E82E20E030E06281CE0101960E9461
:1036F000260E6AE070E080E090E00E949610CE0115
:1037000001960E94D010D6011D968C911D9786FFC0
:1037100003CF1B966D917C911C9717968D919C9170
:1037200018970E947402F8CEF6014385548561858E
:103730007285878190850E941A0387FDEDCED601A0
:103740009C919F7724EB29839A838B83CE010196EA
:103750000E94D010E1CECF92DF92EF92FF920F93B2
:103760001F93CF93DF931F92CDB7DEB7182F062F8D
:10377000E42E862F880F8E5F99830E94880883E04D
:103780000E948808F12EC12E9981D92E8C2D8F1977
:10379000801798F4F601E7FE02C0849101C0808191
:1037A0000E948808182F80E00E9488088123FFEF7C
:1037B000CF1ADF0A8111EACF01C081E00F90DF91BB
:1037C000CF911F910F91FF90EF90DF90CF900895D0
:1037D00010927A051092790588EE93E0A0E0B0E0AF
:1037E00080937B0590937C05A0937D05B0937E0527
:1037F00029EB31E030937805209377051092860508
:10380000109285058093870590938805A09389057C
:10381000B0938A058BEC91E09093840580938305A7
:103820008FEF9FEF9093900580938F0580E48093B6
:10383000E10560E085E10E945A10EAEBF1E0E491D5
:10384000E093D305EBE9F1E0E491F0E0EE0FFF1F28
:10385000E858FE4F859194919093D5058093D405B7
:103860001092DE051092E0051092DF05EEEDF5E016
:10387000129285E0E63DF807D9F70895AA1BBB1B15
:1038800051E107C0AA1FBB1FA617B70710F0A61B60
:10389000B70B881F991F5A95A9F780959095BC0181
:1038A000CD010895A1E21A2EAA1BBB1BFD010DC07C
:1038B000AA1FBB1FEE1FFF1FA217B307E407F507E0
:1038C00020F0A21BB30BE40BF50B661F771F881FBC
:1038D000991F1A9469F760957095809590959B0152
:1038E000AC01BD01CF010895EE0FFF1F0590F491CB
:1038F000E02D09940E948E1C0C946F1D0E94681D7F
:1039000058F00E94611D40F029F45F3F29F00C94AB
:10391000581D51110C94A31D0C945E1D0E94801D16
:1039200068F39923B1F3552391F3951B550BBB27EE
:10393000AA2762177307840738F09F5F5F4F220F33
:10394000331F441FAA1FA9F335D00E2E3AF0E0E82A
:1039500032D091505040E695001CCAF72BD0FE2F74
:1039600029D0660F771F881FBB1F26173707480708
:10397000AB07B0E809F0BB0B802DBF01FF279358C0
:103980005F4F3AF09E3F510578F00C94581D0C940F
:10399000A31D5F3FE4F3983ED4F386957795679532
:1039A000B795F7959F5FC9F7880F911D96958795F5
:1039B00097F90895E1E0660F771F881FBB1F621714
:1039C00073078407BA0720F0621B730B840BBA0BD2
:1039D000EE1F88F7E09508950E94881D88F09F5794
:1039E00098F0B92F9927B751B0F0E1F0660F771F23
:1039F000881F991F1AF0BA95C9F714C0B13091F019
:103A00000E94A21DB1E008950C94A21D672F782F8B
:103A10008827B85F39F0B93FCCF3869577956795DD
:103A2000B395D9F73EF490958095709561957F4F49
:103A30008F4F9F4F0895E89409C097FB3EF49095EF
:103A40008095709561957F4F8F4F9F4F9923A9F077
:103A5000F92F96E9BB279395F69587957795679506
:103A6000B795F111F8CFFAF4BB0F11F460FF1BC04A
:103A70006F5F7F4F8F4F9F4F16C0882311F096E9DD
:103A800011C0772321F09EE8872F762F05C066238B
:103A900071F096E8862F70E060E02AF09A95660F44
:103AA000771F881FDAF7880F9695879597F90895FD
:103AB00097F99F6780E870E060E008959FEF80ECE1
:103AC000089500240A941616170618060906089584
:103AD00000240A9412161306140605060895092EEA
:103AE0000394000C11F4882352F0BB0F40F4BF2B59
:103AF00011F460FF04C06F5F7F4F8F4F9F4F089599
:103B000057FD9058440F551F59F05F3F71F047958E
:103B1000880F97FB991F61F09F3F79F08795089573
:103B2000121613061406551FF2CF4695F1DF08C092
:103B3000161617061806991FF1CF869571056105AF
:103B400008940895E894BB2766277727CB0197F957
:103B5000089581E090E0F8940C94271F6817790786
:103B600068F4FB01DC01E40FF51FA40FB51F02C0D0
:103B700002900E9241505040D8F708950C94C01D09
:103B8000FB01DC0102C001900D9241505040D8F77A
:103B90000895CF93DF938230910510F482E090E096
:103BA000E091E905F091EA0520E030E0C0E0D0E0E6
:103BB000309711F14081518148175907C0F04817DB
:103BC000590761F482819381209719F09B838A833E
:103BD0002BC09093EA058093E90526C02115310595
:103BE00019F04217530718F49A01BE01DF01EF01E3
:103BF0000280F381E02DDCCF2115310509F1281B6E
:103C0000390B2430310590F412968D919C911397C5
:103C10006115710521F0FB019383828304C09093A9
:103C2000EA058093E905FD01329644C0FD01E20FEB
:103C3000F31F81939193225031092D933C933AC005
:103C40002091E7053091E805232B41F420910E01E6
:103C500030910F013093E8052093E70520910C0186
:103C600030910D012115310541F42DB73EB740913A
:103C7000100150911101241B350BE091E705F091E3
:103C8000E805E217F307A0F42E1B3F0B28173907AE
:103C900078F0AC014E5F5F4F2417350748F04E0FA8
:103CA0005F1F5093E8054093E7058193919302C00D
:103CB000E0E0F0E0CF01DF91CF9108950F931F93E3
:103CC000CF93DF93009709F48CC0FC0132971382E5
:103CD00012820091E9051091EA050115110581F4A0
:103CE00020813181820F931F2091E7053091E805F3
:103CF0002817390779F5F093E805E093E70571C0D7
:103D0000D80140E050E0AE17BF0750F412962D9155
:103D10003C911397AD012115310509F1D901F3CF7C
:103D20009D01DA013383228360817181860F971FA1
:103D30008217930769F4EC0128813981260F371F18
:103D40002E5F3F4F318320838A819B8193838283BF
:103D5000452B29F4F093EA05E093E90542C0139658
:103D6000FC93EE931297ED01499159919E01240F16
:103D7000351FE217F30771F480819181840F951F3D
:103D8000029611969C938E938281938113969C93B5
:103D90008E931297E0E0F0E0D80112968D919C91FD
:103DA0001397009719F0F8018C01F6CF8D919C9133
:103DB00098012E5F3F4F820F931F2091E7053091AE
:103DC000E8052817390769F4309729F41092EA05B5
:103DD0001092E90502C0138212821093E805009345
:103DE000E705DF91CF911F910F910895F999FECFCB
:103DF00092BD81BDF89A992780B50895A8E1B0E0F9
:103E000042E050E00C94191F262FF999FECF1FBAFB
:103E100092BD81BD20BD0FB6F894FA9AF99A0FBEF3
:103E2000019608950E94041F272F0C94051FDC01A2
:103E3000CB01FC01F999FECF06C0F2BDE1BDF89AB5
:103E4000319600B40D9241505040B8F70895F8945F
:023E5000FFCFA2
:103E520000E1000000000000FFFFFFFF0000EB0593
:103E62008000000000002A0D650A78011D02700121
:103E72001B021A0219022F0216021302000000008E
:103E8200C8062D0243010D011A011F021A0219026E
:103E9200410116021302000000002B0D670A65099A
:103EA2005409D2011B021A021902950116021302C9
:103EB20000000000C6062902610163010B061B0215
:103EC2001A026001620144015C0100000000C706A1
:103ED2002B02790163010B061B021A0260013906EB
:103EE20044015C0100000000870827021E021D0237
:103EF2001C021B021A02190217021602130200C147
:103F0200808100000000000000BA0D8A0D51095E98
:103F12000D820D6E0D5F0D0000000015099A091F3C
:103F22000A2B093609230A410A556E6976657273AE
:103F3200616C206465636F6465722076004D6F6406
:103F4200756C6520616464726573733A20000D0AB2
:103F5200004D61782023206F662070696E733A00ED
:103F620050696E2023004E6F2064733138733230F3
:103F720020666F756E6420666F722055494400207A
:103F8200504B543A2000506F737369626C79206110
:103F9200204C4E4356206D6573736167652E004554
:103FA2006E64204C6F6F700A005549443A20004CF1
:103FB2006F6F7020006E6F746966794C4E43567055
:103FC200726F6772616D6D696E6753746F702000F6
:103FD200456E642050726F6772616D696E67204D25
:103FE2006F64652E0A0057726F6E67204172746E9D
:103FF200722E0A0057726F6E67204D6F64756C6582
:1040020020416464726573732E0A0049676E6F7291
:10401200696E6720526571756573742E0A0050725D
:104022006F6772616D6D696E67207374617274651A
:104032006400446973636F7665723A2000456E745A
:104042006572206E6F746966794C4E435677726959
:10405200746528002C2000290A004172746E7220B7
:10406200496E76616C69642E0A00456E7465722031
:104072006E6F746966794C4E4356726561642800AE
:104082000A456570726F6D20616464726573733A7C
:104092002000204C4E43562056616C75653A200034
:1040A2004172744E7220696E76616C69642E0A00E8
:1040B200436C6F736564005468726F776E004F6E65
:1040C200004F6666005377697463682052657175A4
:1040D2006573743A2000202D20005468726F776E49
:1040E200207377697463683A200020746F203A0065
:1040F2005265706F7274696E6720736C6F74200002
:1041020020416464726573733A20002053746174B1
:04411200653A2000EA
:00000001FF
