:100000000C94E3000C940B010C940B010C940B0169
:100010000C940B010C940B010C940B010C940B0130
:100020000C940B010C940B010C942C0A0C949E0A5A
:100030000C940B010C940B010C940B010C940B0110
:100040000C945A0E0C94CE0C0C940B010C940B01D6
:100050000C940B010C940B010C940B010C943715B0
:100060000C940B010C940B010C940B010C940B01E0
:100070000C940B010C940B010C940B010C940B01D0
:100080000C940B010C940B010C940B010C940B01C0
:100090000C9412130C940B010C940B010C940B0197
:1000A0000C940B010C940B010C940B016C146F1449
:1000B0005E146214681490149014901473147714DE
:1000C0007B148114851490148B14080B0002020217
:1000D00001000904000001020200000524001001D3
:1000E0000524010101042402060524060001070578
:1000F000810310004009040100020A000000070506
:1001000002024000000705830240000004030904C6
:1001100012010002EF0201404F1B03920001010295
:100120000301537061726B46756E00537061726BA0
:1001300046756E2050726F204D6963726F0000002B
:1001400000002300260029002C002F0004040404D2
:10015000040304050202020204030202020206066C
:100160000606060604040202020404040802011042
:1001700040804010204080408008020401804020E0
:1001800010020110801020404020000000002400D8
:1001900027002A002D003000000000002500280064
:1001A0002B002E0031000000000200090F000003A8
:1001B0000401000C0000000000000000000000002E
:1001C00000000000451D11241FBECFEFDAE0DEBFA6
:1001D000CDBF14E0A0E0B1E0ECE0F1E402C0059096
:1001E0000D92A03FB107D9F727E0A0EFB4E001C01E
:1001F0001D92A731B207E1F710E0C3EED0E004C0D2
:100200002197FE010E94D11DC23ED107C9F70E946D
:1002100081150C9484200C940000DC01ED91FC917C
:10022000119761E01F962D913C915097232B09F077
:1002300060E00084F185E02D41E00994DC01ED915E
:10024000FC91119716966C9121E062270084F1854C
:10025000E02D41E0099480E00895FC0181E0672BE6
:1002600009F480E0818B882319F08681978102C090
:1002700080859185958B848B84899589938B828BDE
:10028000178A168A128E118E0895FC01818990E0DA
:1002900008950895DC01ED91FC91119751966C91B0
:1002A00021E062270084F185E02D40E00994FC0103
:1002B000662319F091E094279783468308959C0163
:1002C0002150310927313105A0F4880F991FFC0115
:1002D000ED50FB4F80819181DC01ED91FC9121E09B
:1002E000672B09F420E00084F185E02D40E0622FC7
:1002F00009940895CF93DF93EC018F859889892B1A
:1003000081F18FB7F89440919506509196066091CF
:100310009706709198068FBF8B859C85AD85BE85AD
:10032000481B590B6A0B7B0B89859A85A0E0B0E0CE
:1003300084179507A607B707B0F48A89882341F088
:100340008F859889019721F4888561E070E003C06A
:100350008F8160E070E090E00E945F01188A1F8644
:1003600002C080E001C081E0DF91CF9108950F933A
:100370001F93CF93DF93EC0129896217A1F18F8539
:100380009889892B81F5E62FF0E030E091E02E1777
:100390003F070CF090E0042F162F9A8B992341F021
:1003A00081E090E0988B8F878F8161E070E007C0DB
:1003B00081E090E0988B8F87888560E070E090E026
:1003C0000E945F010111198B2FB7F8948091950657
:1003D00090919606A0919706B09198062FBF8B87B3
:1003E0009C87AD87BE87DF91CF911F910F910895B4
:1003F00080E090E00895089580E0089508950895BC
:1004000008950895089508950C94BB1F0C94BB1F84
:100410000C94BB1F0C94BB1FFC018189882319F02D
:1004200085E692E002C08EE692E00C940910CF932C
:10043000DF93EC0185E792E00E9409108B819C819B
:100440000E940B108FEF91E00E94091081E992E069
:100450000E9409106AE070E08F810E94F9108FE815
:1004600092E00E9409106AE070E088850E94F9100D
:100470008FEF91E0DF91CF910C940910CF93DF9330
:10048000EC0182EA92E00E9409106AE070E08A8141
:100490000E94F91080EB92E00E94091088859985EE
:1004A0000E940B108CEB92E00E9409108E819F81BC
:1004B0000E940B1087EC92E00E9409108B819C81B6
:1004C0000E940B1082ED92E00E9409108A859B85A4
:1004D0000E940B108BED92E00E9409108D859E8585
:1004E0000E940B108EEE92E00E9409108F85988971
:1004F0000E940B1081E093E00E9409106AE070E016
:100500008C850E94F9108FEF91E0DF91CF910C94D0
:100510000910CF93DF93EC018FE093E00E94091064
:100520006AE070E08A810E94F91080EB92E00E94FC
:100530000910888599850E940B108CEB92E00E942F
:1005400009108E819F810E940B1087EC92E00E941F
:1005500009108B819C810E940B1082ED92E00E9419
:1005600009108A859B850E940B108BED92E00E94FA
:1005700009108D859E850E940B108EEE92E00E94E0
:1005800009108F8598890E940B1081E093E00E94EA
:1005900009106AE070E08C850E94F9108FEF91E0FD
:1005A000DF91CF910C9409101F93CF93DF93EC014F
:1005B000162F8885811111E08DE193E00E940910CA
:1005C0006AE070E08A810E94F91089E293E00E945B
:1005D0000910888590E00E94EF108FEF91E00E9453
:1005E0000910612F8A81DF91CF911F910C94911492
:1005F0000F931F93CF93DF931F92CDB7DEB78C017C
:10060000DC0117968C9117978823B9F019968C9175
:100610001997662321F08F5F19968C9303C0815040
:10062000F8018187D80119968C911997181624F032
:1006300019961C9260E001C061E085E393E0698354
:100640000E940910F8018185082E000C990B0E9468
:10065000EF106981D80116966C931697ED91FC9175
:100660000284F385E02DC8010F90DF91CF911F9197
:100670000F910994CF93DF93EC018DE193E00E94F9
:1006800009106AE070E08A810E94F9108BE393E020
:100690000E940910888590E00E94EF108FEF91E092
:1006A000DF91CF910C940910CF93DF93EC0187E495
:1006B00093E00E9409106AE070E08A810E94F910BC
:1006C00082E593E00E9409108A8590E00E94EF1075
:1006D00086E693E00E940910888599850E940B1098
:1006E0008FEF91E0DF91CF910C9409100F931F933E
:1006F000CF93DF93EC012A81222309F130E0F90145
:10070000EA55FE4F8491F901E559FE4F0491F90134
:10071000E45BFE4F1491112379F081110E9454146F
:10072000E12FF0E0EE0FFF1FE25CFE4FA591B491C8
:10073000EC91E02381E009F480E081708E836E818A
:100740008F81681719F18B819C810E945E0F8A85C9
:10075000882339F06E8181E06827888599850E9419
:100760005E0F8BE693E00E9409106AE070E08A81D8
:100770000E94F91086E793E00E9409108E8190E0B4
:100780000E94EF108E818F8381E001C080E0DF91B5
:10079000CF911F910F9108950F931F93CF93DF93E4
:1007A0008C01EB0183E893E00E940910F80180813D
:1007B00091810E940B1081E197E20E94EF1080E08E
:1007C00090E00E945320282F30E03983288381E174
:1007D00097E2F80191838083888199810E940B10B0
:1007E0008FE7DF91CF911F910F9108950F931F9382
:1007F000CF93DF938C01EB018EE893E00E94091008
:10080000809130058823F1F001311742A9F480E08E
:1008100090E00E94532090E0C817D90781F410920D
:10082000300589EA93E00E9409100C940000DF91E2
:10083000CF911F910F9108958FEB93E005C08DEC40
:1008400093E002C084EE93E0DF91CF911F910F916E
:100850000C940910EF92FF920F931F93CF93DF93A5
:100860007C018B0180E090E00E945320C82FD0E0F3
:10087000F701808191810E940B10F80180819181A4
:100880000E940B10CE010E940B10F7018081918114
:1008900081319742D1F4F801808191818C179D07B5
:1008A00041F481E08093300587EF93E00E940910C6
:1008B0000AC0019651F480E090E00E94532090E03D
:1008C000F801918380838FE703C0109230058FEF8A
:1008D000DF91CF911F910F91FF90EF900895BF92FC
:1008E000CF92DF92EF92FF920F931F93CF93DF93FC
:1008F0006C01062FB42E89E194E00E940910C60114
:100900000E940B10E0913606F09137060190F081BD
:10091000E02D6AE386E396E00995B11003C08EE608
:1009200092E002C08BE094E00E9409108AE294E019
:100930000E940910011103C085E194E002C082E128
:1009400094E00E948511C3EFD4E08BE2E82E80E0B2
:10095000F82E10E0A881B98113968D919C9114977F
:100960008C159D05B9F5ED91FC91119741E00111B0
:1009700001C040E061E0B11001C060E00084F18599
:10098000E02DCD01099588819981DC01ED91FC91E3
:100990000488F589E02D0995BC01C7010E946F20EC
:1009A0008EE294E00E9409106AE070E0812F0E94BC
:1009B000F9108EE394E00E94091088819981DC018E
:1009C000ED91FC910684F785E02D09958FEF91E07C
:1009D0000E9409101F5F2296B4E1EB0EF11C183142
:1009E00009F0B8CFDF91CF911F910F91FF90EF9059
:1009F000DF90CF90BF900895EF92FF920F931F93D7
:100A0000CF93DF938C017B0184E494E00E94091072
:100A1000C8010E940B1087EC92E00E940910E801C7
:100A2000CC0FDD1FCD50DB4FE881F98183819481AC
:100A30000E940B1084E594E00E940910B70180E049
:100A400090E04AE00E94A10F8EEF91E00E94890F92
:100A5000012B69F0E881F9816E2D83819481DF910A
:100A6000CF911F910F91FF90EF900C945E0FDF914B
:100A7000CF911F910F91FF90EF900895CF93DF9347
:100A8000EC01298D3A8D8D859E852130310519F433
:100A900060E070E005C02989211107C061E070E0C5
:100AA0000E94FC0460E070E006C060E070E00E941C
:100AB000FC0461E070E08F859889DF91CF910C9400
:100AC000FC041F93CF93DF93EC01162F662319F0DC
:100AD0008E819F8102C0888599859D8B8C8B4C89E6
:100AE0005D892A893B898A859B854217530718F4BB
:100AF0009195819591099F8B8E8B8C8561E070E03B
:100B000090E00E945F01CE010E943E05198B81E0BA
:100B100090E09A8F898FDF91CF911F910895EF9286
:100B2000FF920F931F93CF93DF93EC01E98CFA8C24
:100B300082E0E816F10419F12A893B898C899D89A4
:100B40002817390719F0281B390B02C020E030E0C4
:100B50008E899F8997FF03C09195819591092817E8
:100B6000390778F482E090E09A8F898F8C8560E075
:100B700070E090E00E945F01CE010E943E0580E09F
:100B800066C0888D8F5F888F91E0E916F10409F0C7
:100B900050C08B3F08F44BC08DE594E00E940910D3
:100BA0000E891F898A899B89080F191F1B8B0A8B45
:100BB0006A81EB8DFC8D808191E09093600580933C
:100BC0008205109261051092830584E0689FB00150
:100BD00011246A5F7F4F8AE296E00E94BE1280E095
:100BE00090E00E94F01180E090E00E94F011C801B6
:100BF0000E94F011812F90E00E94F01181E00E948C
:100C00000D118A899B890E940B108FEF91E00E9441
:100C10000910188E8E899F89892B49F42C893D896A
:100C20008A899B892817390711F4FF8AEE8A81E0A7
:100C30000EC0EF2809F0A3CF8B3F08F4A0CF87E6C2
:100C400094E00E94091081E090E09A8F898FDF91F3
:100C5000CF911F910F91FF90EF90089580329105F1
:100C600010F4019708959C0120523109C9016AE0EE
:100C700070E00E949B1D44E1649FC0011124AC01FF
:100C8000415E5F4FC9017AE0679F80199109112485
:100C9000880F991F840F951F0895EF92FF920F936D
:100CA0001F93CF93DF9320913005222309F455C081
:100CB000052F142FEB017C0183E794E00E940910BB
:100CC000C7010E940B108EE892E00E940910CE012D
:100CD0000E940B108EE892E00E9409108EE892E0CC
:100CE0000E940910812F902F0E940B108AE894E037
:100CF0000E94091081E1E81687E2F80651F5C03438
:100D000081E0D80760F5CE010E942E067C010E948A
:100D10000B10C032D10510F082E001C081E06AE022
:100D200070E00E94F9106AE070E0812F0E94F910D3
:100D3000C70180509040C032D10598F0612F702FCC
:100D40000E946F20CE010E94DF110E940B108FE7DE
:100D50000CC08DE894E00E9409108FEF06C081E07E
:100D600004C0612F0E946120EDCFDF91CF911F91D0
:100D70000F91FF90EF9008959F92AF92BF92CF9204
:100D8000DF92EF92FF920F931F93CF93DF9300D0E8
:100D9000CDB7DEB76C017B0189018DE994E00E943B
:100DA0000910C6010E940B108EE892E00E94091003
:100DB000C7010E940B108EE892E00E9409108EE895
:100DC00092E00E940910F801808191810E940B102D
:100DD0008AE894E00E94091080913005882309F484
:100DE00033C1F1E1CF16F7E2DF0609F02AC145E091
:100DF000E416F10419F488E190E01AC1F0E4EF166A
:100E0000F1E0FF0600F5C7010E94DF11F8019183B0
:100E1000808383EB94E00E940910C7010E942E0694
:100E2000805090400E940B1085EC94E00E940910C5
:100E3000F801808191810E940B108FEF91E00E9458
:100E400009108FE708C1FAEFEF16F3E0FF0609F08B
:100E500048C00E94B8100E94A31061E084E40E9480
:100E6000681068EE73E080E090E00E94FD140E943C
:100E7000B8100E94A31060E08EEB0E946810E7E2B9
:100E8000EE2EE5E0FE2EF9E09F2E9E0C78E0A72ED8
:100E9000B12CCC24C394D12C0E9411108111DC28D8
:100EA000CC0C41E0A41AB108B9F7F701D1927F0147
:100EB0009E12ECCF8091280590E0982F88272091F2
:100EC0002705822B20912B05207611F4887FB0C056
:100ED000203211F48C7FACC0203409F0A9C08E7F81
:100EE000A7C0FBEFEF16F3E0FF0659F480918405ED
:100EF00090E0982F8827F8019183808320918505C1
:100F00000FC0FCEFEF16F3E0FF0661F48091860559
:100F100090E0982F8827F80191838083209187059E
:100F2000822B87C0FDEFEF16F3E0FF0659F48091A6
:100F3000880590E0982F8827F8019183808320917D
:100F40008905EECFFEEFEF16F3E0FF0659F480912E
:100F50008A0590E0982F8827F8019183808320915B
:100F60008B05DECFFFEFEF16F3E0FF0619F48EE3FB
:100F700098E25EC0E114F4E0FF0681F4809113076B
:100F800090911407009711F487E197E09E012F5F7D
:100F90003F4FA901481B590BCA014AC0F1E0EF16A7
:100FA000F4E0FF0629F48091F0049091F10440C030
:100FB000F2E0EF16F4E0FF0629F480911707909114
:100FC000180736C0F3E0EF16F4E0FF0619F48DB70A
:100FD0009EB72EC0C701845094400597D8F5F6E01F
:100FE000EF16F4E0FF06D9F030F455E0E51654E0D2
:100FF000F50681F00AC087E0E81684E0F806A1F063
:10100000E8E0EE16E4E0FE06B9F08091200690914B
:1010100021060EC0809122069091230609C080917E
:1010200024069091250604C08091260690912706FB
:10103000F8019183808305CF80912806909129063D
:10104000F7CF83ED94E002C084EE93E00E94091094
:101050008FEF01C081E00F900F90DF91CF911F9132
:101060000F91FF90EF90DF90CF90BF90AF909F9047
:1010700008950895089524E631E0FC01318320832A
:1010800083EE94E00C940910CF93DF93EC010E945F
:101090003B08CE01DF91CF910C94BB1F2EE731E0CE
:1010A000FC01318320830C943B08CF93DF93EC0148
:1010B0000E944E08CE01DF91CF910C94BB1F089582
:1010C00008954091330550913405209131053091B8
:1010D000320542175307B4F49091E8009570E1F39C
:1010E0009091E80092FD19C08093F1008091330542
:1010F0009091340501968F739927892B19F48EEFFF
:101100008093E80080913305909134050196909387
:1011100034058093330581E0089580E00895DF92DF
:10112000EF92FF920F931F93CF93DF93D82E8A01F4
:101130007B01E40EF51EEB01CE15DF0571F0D7FE45
:1011400003C0FE01849101C088810E94610821963C
:101150008111F2CF8FEF9FEF01C0C801DF91CF91D6
:101160001F910F91FF90EF90DF900895615030F044
:101170002091F100FC0120830196F8CF289884E6A5
:10118000809336050895CF92DF92EF92FF920F93EE
:101190001F93CF93DF936C017A018B01C0E0D0E005
:1011A000CE15DF0589F0D8016D918D01D601ED9145
:1011B000FC910190F081E02DC6010995892B11F475
:1011C0007E0102C02196ECCFC701DF91CF911F9124
:1011D0000F91FF90EF90DF90CF900895CF93DF9322
:1011E0001F92CDB7DEB76983DC01ED91FC910280DF
:1011F000F381E02D41E050E0BE016F5F7F4F099524
:101200000F90DF91CF91089583E08093E900809162
:10121000F200882319F08AE38093E8000895FC0126
:101220008485958597FD0BC09FB7F89482E08093E5
:10123000E9008091F2009FBF90E0019608959FB76A
:10124000F89482E08093E9008091F2009FBF90E0E3
:101250000895089580E090E008950E94061F0F937E
:101260001F93CF93DF931F92CDB7DEB782E08983C0
:1012700042E450E06AEC70E080E80E948F080E942F
:101280004014DC0112960D911C9113970115110564
:1012900069F0D801ED91FC910280F381E02DBE014F
:1012A0006F5F7F4FC801099597FF07C089810F9035
:1012B000DF91CF911F910F910895F801008511855D
:1012C000E5CF8F929F92AF92BF92CF92DF92EF9233
:1012D000FF920F931F93CF93DF935C016B017A0111
:1012E00080910701882309F45BC08091370588232A
:1012F00009F456C08091F10480FF05C08091E000A0
:1013000082608093E000E70110E00AEF83E0882E1E
:101310009AE3992E2097D9F10E941F1281110AC0D9
:10132000015009F43DC061E070E080E090E00E946F
:10133000FD14F0CF282F30E0C217D3070CF48C2F08
:101340004FB7F8948092E9009091E80095FF1DC096
:10135000282F30E0C21BD30BF601982F915020F0BC
:1013600081918093F100FACFC20ED31E112319F0A0
:101370009092E80009C08091E80085FD06C0909237
:10138000E80011E0209709F010E04FBFC3CF111122
:10139000C3CF5D9884E6809335051E141F0444F086
:1013A00081E090E0F5019383828380E090E001C0CA
:1013B000C701DF91CF911F910F91FF90EF90DF90C8
:1013C000CF90BF90AF909F908F9008950E941F1272
:1013D00090E00895CF93DF931F92CDB7DEB7FC0165
:1013E0008485958597FD05C02FEF3FEF35872487CE
:1013F0000BC0CE0101960E94F511019719F4898165
:1014000090E002C08FEF9FEF0F90DF91CF91089592
:101410000F931F93CF93DF931F92CDB7DEB78C014D
:10142000FC018485958597FF0EC0CE0101960E9430
:10143000F511019719F4298130E002C02FEF3FEF39
:10144000F80135872487F801848595850F90DF9111
:10145000CF911F910F9108951F920F920FB60F9287
:1014600011248F939F938091E1009091E100937FED
:101470009093E10083FF0FC01092E90091E09093F8
:10148000EB001092EC0092E39093ED001092370580
:1014900098E09093F00082FF20C093E09093E900E1
:1014A0009091F200992319F09AE39093E8009091BB
:1014B0003505992339F09091350591509093350574
:1014C000992389F190913605992339F09091360549
:1014D000915090933605992341F184FF10C080917B
:1014E000E2008E7E81608093E2008091E1008F7E39
:1014F0008093E1008091F1048E7E806111C080FFB5
:1015000016C08091E2008E7E80618093E20080911F
:10151000E1008E7E8093E1008091F1048E7E8160F7
:101520008093F10404C05D9ACDCF289AD6CF9F91C5
:101530008F910F900FBE0F901F9018951F920F92D2
:101540000FB60F921124CF92DF92EF92FF920F937A
:101550001F932F933F934F935F936F937F938F933B
:101560009F93AF93BF93EF93FF93CF93DF93CDB749
:10157000DEB76C97DEBFCDBF1092E9008091E80026
:1015800083FFEDC168E0CE0145960E94B60882EF68
:101590008093E8008D8987FF05C09091E80090FF57
:1015A000FCCF03C09EEF9093E800982F907609F04F
:1015B000C6C09E892F89188D91110CC0803829F4DE
:1015C0008091F2048093F10002C01092F100109219
:1015D000F10048C1422F50E0512B913051F481115C
:1015E00041C14130510509F03DC18091F2048D7F28
:1015F0000BC0933061F4811135C14130510509F0C0
:1016000031C18091F20482608093F2042BC1953045
:1016100041F48091E80080FFFCCF20682093E30034
:1016200021C1963009F05FC0EB8CFC8C1092E90070
:101630001092340510923305123091F51092320554
:10164000109231050E942F0999E0BE016F5F7F4F14
:10165000DB01E92F1D92EA95E9F799831A8391E05E
:101660009E8390EA98879AEF99872091330530916D
:101670003405275F3F4F3C832B838D831092E90015
:101680001092340510923305F0923205E092310544
:1016900049E050E080E00E948F080E942F09E2C0DC
:1016A000F0923205E09231050E944014DC0112965E
:1016B000ED90FC901397E114F10409F4C0C0D70138
:1016C000ED91FC910480F581E02DBE016B5E7F4FB2
:1016D000C7010995009719F00CF0C4C0C7C0F70105
:1016E000E084F184E8CF973009F4C0C0983021F449
:1016F00081E08093F100B6C0993009F0B3C08370E7
:1017000009F0B4C0EFEAF1E081E021E036E3908136
:10171000992361F08093E9002093EB0091919093DD
:10172000EC003093ED008F5F873089F78EE7809370
:10173000EA001092EA008F898093370593C08B8D61
:101740009C8D1092E900109234051092330590930D
:10175000320580933105898D811156C08E899D890E
:10176000913A59F4813209F081C047E050E060E0DD
:1017700071E080E00E948F0875C0913209F076C058
:10178000833289F4888D90E0982F88272F89822BC7
:10179000A0E0B0E08093080190930901A0930A01B2
:1017A000B0930B015FC0803269F48091E80082FF42
:1017B000FCCF67E080E091E00E94B6088BEF809359
:1017C000E80006C0823209F04DC08F89809307017E
:1017D0008091F004882319F0EEEFFAE002C0E0E017
:1017E000F8E08091000190910101A0910201B09177
:1017F0000301803B9440A105B10509F07BC08091B5
:10180000070180FF93C076C00E944014DC0112964D
:101810000D911C9113970115110541F1D801ED911E
:10182000FC910190F081E02DBE016B5E7F4FC801FD
:101830000995811117C0F80100851185ECCF113091
:1018400009F44EC0133091F48F89882309F445C000
:10185000823081F440E862E18BE291E00E94081D51
:10186000882321F08EEF8093E80079C081E2809395
:10187000EB0075C0813029F440E868E082E291E035
:10188000EDCF833099F70E944014DC011296ED9061
:10189000FC9013978E010F5F1F4F6801E114F10454
:1018A00079F0D701ED91FC910680F781E02DB80128
:1018B000C7010995080F111DF701E084F184EECFEF
:1018C000D8011C92F60101900020E9F73197BF0181
:1018D0006C197D0940E0C601C1CF6CE071E002C027
:1018E00060E171E06115710509F2FB01449150E07E
:1018F00080E840CF0FB6F894A89580916000886189
:1019000080936000109260000FBEA895EE3F2AE021
:10191000F20739F08091FE0A9091FF0A918380834B
:10192000A1CF1092FF0A1092FE0A9CCFEE3F8AE0F0
:10193000F80731F0808191819093FF0A8093FE0A2D
:1019400087E797E7918380839BE088E10FB6F8945F
:10195000A895809360000FBE9093600083CF6C9633
:101960000FB6F894DEBF0FBECDBFDF91CF91FF91D0
:10197000EF91BF91AF919F918F917F916F915F9107
:101980004F913F912F911F910F91FF90EF90DF901A
:10199000CF900F900FBE0F901F9018951F920F922F
:1019A0000FB60F9211242F933F934F935F936F9332
:1019B0007F938F939F93AF93BF93CF93DF93EF93D7
:1019C000FF93809192059091930580549C4F909342
:1019D0009305809392058091920590919305909341
:1019E000890080938800809197058F5F8093970589
:1019F000809198058430E1F580919705893078F4DD
:101A000080918E0590E09595879580938E054C9BEF
:101A10003EC180918E05806880938E0538C1B59A4D
:101A200080916F00806280936F0080918C0590910F
:101A30008D054C9909C0FC01E957FF4F80819181C8
:101A40000196918380830FC040918E05FC01E05880
:101A5000FF4F308121E0230F2083DC01A30FB11D54
:101A60004C9327FD10821092970581E08093980592
:101A700080919805833009F0B4C0E0919505F0910C
:101A8000960540812091940599B150E0022E02C044
:101A9000559547950A94E2F7892F90E034E09595A3
:101AA00087953A95E1F78427952780FD04C0109229
:101AB000970582E094C0809197058930F0F4809179
:101AC0008E05308180FF09C081E090E001C0880F61
:101AD0002A95EAF78095832307C081E090E001C052
:101AE000880F2A95EAF7832B808380918E0590E0FA
:101AF0009595879580938E0574C080919705893060
:101B000059F4308181E090E001C0880F2A95EAF70E
:101B100080958323808365C0809199058F5F809332
:101B2000990590919A05891748F510929705A0910B
:101B30009005B091910580919905A80FB11D8C91E8
:101B400080938E05308181E090E001C0880F2A9556
:101B5000EAF7832B808380918400909185008A5AD4
:101B60009C4F90939305809392058091920590915C
:101B70009305909389008093880033C081E080931F
:101B80008F05E0919005F091910540918C05509161
:101B90008D0580818076803611F4818105C0808139
:101BA000807682958F708E5F20E030E0DA01A05859
:101BB000BF4F281788F4EF01C20FD31F78816C91B3
:101BC00091E0960F9C93EA01C60FD11D788397FD93
:101BD0001C922F5F3F4FEDCF1092970581E08093CD
:101BE0009805809198058230D1F5809197058111F3
:101BF00011C0E0919505F0919605208181E090E07B
:101C00000090940502C0880F991F0A94E2F7822B76
:101C1000808325C0809197058F3008F1E09195056C
:101C2000F0919605208181E090E00090940502C03B
:101C3000880F991F0A94E2F780958223808310927F
:101C4000970581E080939805E0918C05F0918D05D2
:101C5000E357FF4F8081918101969183808380912A
:101C600098058130A1F480919705811105C0B59A3E
:101C700080916F00806209C080919705883338F0A9
:101C80001092980580916F008D7F80936F00FF9177
:101C9000EF91DF91CF91BF91AF919F918F917F9104
:101CA0006F915F914F913F912F910F900FBE0F90C9
:101CB0001F9018951F920F920FB60F9211248F93B9
:101CC0009F93EF93FF93EFE6F0E080818F7D808319
:101CD000809186009091870080569A4F909393054B
:101CE000809392058091920590919305909389003D
:101CF00080938800B19A80818260808384E08093A1
:101D0000980510929705FF91EF919F918F910F90F9
:101D10000FBE0F901F901895CF93DF93FC0149E100
:101D20008EE261E070E0A3E051E090819076903621
:101D300011F4918105C09081907692959F709E5F7D
:101D400090939A0590919A059150109299052FEFD2
:101D500030919905391768F430919905EF01C30F57
:101D6000D11D38812327309199053F5F3093990524
:101D7000EFCFEF01C90FD11D2883F89490919805FA
:101D8000913059F490919705981738F01092980572
:101D900090916F009D7F90936F007894909198053B
:101DA000913039F490919705943108F4BECF50E00A
:101DB000BCCF90919805911163C0F89490916F00F9
:101DC0009F7D90936F00B59B07C090916F009062CC
:101DD00090936F00789454C0C0919505D09196056A
:101DE00098819B010090940502C0220F331F0A9432
:101DF000E2F7292B288320918400309185002A5A0C
:101E00003C4F309393052093920520919205309199
:101E1000930530938900209388007894F09391057E
:101E2000E09390051092990510928F059081909300
:101E30008E05A093980510929705B19A90916F0026
:101E4000926090936F00909198059330E1F3909198
:101E50008F05992371F0E0918C05F0918D05E7577E
:101E6000FF4F8081918101969183808383E090E090
:101E700022C090919805923031F025E030E005C005
:101E800022E030E002C024E030E02230310511F4DD
:101E900051114ACF8B3108F08150415009F044CFA5
:101EA00080912606909127060196909327068093AD
:101EB000260686E090E0DF91CF910895CF93DF93DF
:101EC000CDB7DEB760970FB6F894DEBF0FBECDBFBB
:101ED000AC0141505109852F8F709A013695279595
:101EE0002F7740FD02C0806401C08066611180616F
:101EF00092EB99832A838B83CE0101960E948C0EEC
:101F000060960FB6F894DEBF0FBECDBFDF91CF91C4
:101F10000895BC01009791F0FC0101900020E9F7C1
:101F20003197AF01481B590BE0913606F091370607
:101F30000280F381E02D86E396E0099480E090E052
:101F400008958F929F92AF92BF920F931F93CF935A
:101F5000DF93CDB7DEB7A1970FB6F894DEBF0FBE03
:101F6000CDBF19A2423008F44AE08E010F5D1F4F29
:101F7000842E912CA12CB12CA50194010E94AF1D9F
:101F8000E62FB901CA0101501109EA3014F4E05DED
:101F900001C0E95CD801EC93232B242B252B61F79E
:101FA000C8010E94890FA1960FB6F894DEBF0FBE3C
:101FB000CDBFDF91CF911F910F91BF90AF909F90B8
:101FC0008F900895CF92DF92EF92FF92CF93DF939D
:101FD0006B017C01E0913606F09137060190F081AB
:101FE000E02D6DE286E396E00995EC016627772700
:101FF000CB016C197D098E099F094AE00E94A10F4F
:102000008C0F9D1FDF91CF91FF90EF90DF90CF90CD
:1020100008950C94890FBC0180E090E04AE00C9494
:10202000A10F80918606E0918706F0918806F894CA
:102030009181982B91832281982F90952923228337
:10204000A7E0B0E01197F1F7218192239183A3E2F9
:10205000B0E01197F1F790817894EFECF0E03197D0
:10206000F1F7982381E009F480E0089590918606C5
:10207000E0918706F0918806392F309580FF13C0D4
:10208000F8942281832F822382838181892B81830B
:10209000A3E2B0E01197F1F78281982B92837894B4
:1020A00087ED90E012C0F8942281832F82238283EF
:1020B0008181892B8183AFEFB0E01197F1F78281A5
:1020C000982B928378948FE090E00197F1F7089530
:1020D000EF92FF920F931F93CF93DF931F92CDB791
:1020E000DEB7082F88E0E82EF12C11E081E0912F77
:1020F000902309F480E069830E943610110F81E07B
:10210000E81AF1086981E114F10481F7611113C043
:10211000F894E0918706F091880691818091860677
:10212000809598239183E0918706F09188069281AB
:102130008923828378940F90DF91CF911F910F9123
:10214000FF90EF9008951F93CF93DF9360E085E5B4
:102150000E946810C4E8D5E01C2F185F60E08991E8
:102160000E9468101C13FACFDF91CF911F91089540
:1021700090918606E0918706F0918806F894818117
:10218000292F20958223818378948DE743E050E0C6
:10219000815021F1DA011197F1F730813923C1F330
:1021A000F8948281822382838181892B8183789430
:1021B000ABE7B7E01197F1F7F894818128232183E9
:1021C000A3E1B1E01197F1F78081982381E009F054
:1021D00080E07894E3E6F6E03197F1F70895BC01EA
:1021E000990F880B990B97FD0C94E20F4AE00C9421
:1021F000A10FAB01672B59F4E0913606F091370639
:102200000190F081E02D682F86E396E00994682F15
:1022100070E080E090E00C94A10F382F20918305AE
:1022200090918205213208F049C080915F058111AB
:10223000FCCF42E040935F0530935E053FEF309363
:102240005D0510925C0520935B05A2E6B5E04BE3CB
:1022500055E0FA013E2F341B321718F43D913193AB
:10226000F9CF10923A0520913A05990F922B90934D
:102270003A0590913905913061F4109239059091A9
:102280003A059093BB009091BC0093FDF8CF95EC7C
:1022900001C095EE9093BC0090915F059230E1F300
:1022A00090915D059F3F79F080915D05803241F00E
:1022B00080915D05803331F084E005C081E003C08A
:1022C00082E001C083E010926105109283051092B4
:1022D00060050895CF93C62F9091940621E0209336
:1022E0006005909382051092610510928305682F16
:1022F0008AE296E00E94BE126C2F8AE296E00E946B
:10230000BE1281E0CF910C940D11CF93DF930E9408
:10231000890FEC018EEF91E00E94890F8C0F9D1FB9
:10232000DF91CF910895CF93DF93BC01990F880B74
:10233000990B97FF03C00E94E20F03C04AE00E947E
:10234000A10FEC018EEF91E00E94890F8C0F9D1F71
:10235000DF91CF910895EF920F931F93FC0185EECB
:1023600080838FE0818385E08283613029F489E472
:1023700083838BE4848302C0638314828FE185832B
:102380001682508747833287218714870387E58623
:10239000DF011796AF01425F5F4F91E08C9187FF9D
:1023A00005C02681292B26838F778C93990F119650
:1023B000A417B50799F71F910F91EF9008958032F8
:1023C000910530F00E942E06805090400C945B20C6
:1023D0000E942E06805090400E94532090E0089565
:1023E000682F8AE296E00C94BE12FC0180913705BA
:1023F000811103C08FEF9FEF08959FB7F89482E09B
:102400008093E9002091F20030E01216130614F4D4
:1024100021E030E02115310559F0289884E68093B9
:1024200036058091F10080838091F200882319F0B5
:102430009FBFC90108958BE68093E800F9CF2FB7BD
:10244000F89483E08093E9009091E800892F8072EE
:1024500095FF04C09091F20080E4891B2FBF08957E
:1024600085ED8093BC008091BC0084FDFCCF109270
:102470005F0508954091EE06262F30E0240F311DB0
:1024800021323105DCF420915F052430C9F4FC01D0
:1024900080E090E0861758F43091EE062191DC013F
:1024A000A453B94FA30FB11D2C930196F3CF809184
:1024B000EE06680F6093EE0680E0089581E00895CF
:1024C00082E008950895E091BA068091B906E81770
:1024D00030F4F0E0E756F94F808190E008958FEFF7
:1024E0009FEF08959091BA068091B906981750F41D
:1024F000E92FF0E0E756F94F208130E09F5F90939D
:10250000BA0602C02FEF3FEFC90108958091B906C6
:1025100090E02091BA06821B91090895CF92DF9234
:10252000EF92FF920F931F93CF93DF937C01262F9F
:10253000972F8A0180916005882391F0C62FD72FAD
:102540006E01C40ED51ECC15DD0571F06991D70161
:10255000ED91FC910190F081E02DC7010995F3CF39
:10256000642F822F0E943A12C801DF91CF911F91F0
:102570000F91FF90EF90DF90CF900895CF93DF936E
:102580001F92CDB7DEB76983209160052223D1F079
:1025900020918305203240F021E030E0FC013383BC
:1025A000228380E090E015C080916105E82FF0E083
:1025B000EE59FA4F998190838F5F809361058093E4
:1025C000830505C061E0CE0101960E943A1281E0C8
:1025D00090E00F90DF91CF9108953FB7F8948091EC
:1025E000BC069091BD06A091BE06B091BF0626B56F
:1025F000A89B05C02F3F19F00196A11DB11D3FBF3B
:10260000BA2FA92F982F8827820F911DA11DB11DC8
:10261000BC01CD0142E0660F771F881F991F4A95C4
:10262000D1F708951F920F920FB60F9211242F9396
:102630003F934F935F936F937F938F939F93AF934A
:10264000BF93EF93FF938091B900887F803609F4A0
:102650009CC068F5883209F45BC090F4803109F4BD
:1026600054C038F4882309F4F6C0883009F44DC00A
:10267000F6C0883109F44CC0803209F45DC0EFC067
:10268000803409F468C048F4803309F455C08833B5
:1026900009F0E5C080935D05D8C0803509F44FC0CE
:1026A000883509F45DC0883409F0D9C0D6C08839AE
:1026B00009F4C7C0A8F4883709F467C038F488362D
:1026C00009F463C0803709F460C0C9C0883809F4D0
:1026D000B8C0803909F45FC0803809F0C0C05BC061
:1026E000803B09F486C038F4803A09F466C0883A21
:1026F00009F47FC0B4C0803C09F4A7C0883C09F449
:10270000A4C0883B09F48AC0AAC080913A0510C0D1
:1027100090915C0580915B05981770F5E0915C05E0
:1027200081E08E0F80935C05F0E0E55CFA4F8081DC
:102730008093BB0085EC86C080935D058EC0E091E0
:102740005C0581E08E0F80935C058091BB00F0E01A
:10275000E55CFA4F808390915C0580915B056EC0CB
:10276000E0915C0581E08E0F80935C058091BB0059
:10277000F0E0E55CFA4F808380915E0581116DC0C9
:1027800081E08093390584EA61C083E080935F052E
:1027900010921207CFCF80911207803208F051C0FB
:1027A000E091120781E08E0F809312078091BB00A9
:1027B000F0E0EE50F94F8083BDCF85EC8093BC00F4
:1027C00010925F0580911207803230F4E091120779
:1027D000F0E0EE50F94F10826091120770E0E09146
:1027E000F006F091F10682EF96E00995109212073B
:1027F00036C084E080935F051092EF061092EE06DB
:10280000E091EC06F091ED0609958091EE068111BC
:1028100005C081E08093EE061092CC06E091EF06B1
:1028200081E08E0F8093EF06F0E0E453F94F808152
:102830008093BB009091EF068091EE06981708F404
:1028400079CF85E88093BC000AC085EC8093BC00FA
:1028500010925F0504C010925D050E943012FF9136
:10286000EF91BF91AF919F918F917F916F915F9108
:102870004F913F912F910F900FBE0F901F90189581
:102880008091C40681110DC082E08093C00684E06F
:102890008093C1061092C3061092C20681E0809315
:1028A000C40680EC96E0089590E0FC013197EF308B
:1028B000F105B0F5EA5AFF4F0C94D11D80918000CC
:1028C0008F7703C0809180008F7D80938000089572
:1028D00080918000877FF9CF84B58F7702C084B55F
:1028E0008F7D84BD0895809190008F7707C080917F
:1028F00090008F7D03C080919000877F809390002F
:1029000008958091C0008F7703C08091C0008F7DB3
:102910008093C00008958091C200877F8093C20099
:1029200008951F93CF93DF93282F30E0F901EA55E4
:10293000FE4F8491F901E559FE4FD491F901E45B12
:10294000FE4FC491CC23C9F0162F81110E9454145C
:10295000EC2FF0E0EE0FFF1FE856FE4FA591B4916B
:102960008FB7F894111105C09C91ED2FE095E923E4
:1029700002C0EC91ED2BEC938FBFDF91CF911F91B3
:102980000895CF93DF9390E0FC01E559FE4F249129
:10299000FC01E45BFE4F8491882361F190E0880F95
:1029A000991FFC01E657FE4FC591D491FC01E856F2
:1029B000FE4FA591B491611109C09FB7F894888129
:1029C000209582238883EC912E230BC0623061F422
:1029D0009FB7F8943881822F809583238883EC9168
:1029E0002E2B2C939FBF06C08FB7F894E8812E2B17
:1029F00028838FBFDF91CF9108958F929F92AF92DE
:102A0000BF92CF92DF92EF92FF926B017C010E9406
:102A1000ED124B015C01C114D104E104F104F1F0A9
:102A20000E94ED12DC01CB0188199909AA09BB09A2
:102A3000883E9340A105B10570F321E0C21AD10888
:102A4000E108F10888EE880E83E0981EA11CB11CF5
:102A5000C114D104E104F10419F7DDCFFF90EF9028
:102A6000DF90CF90BF90AF909F908F9008951F926E
:102A70000F920FB60F9211242F933F938F939F9332
:102A8000AF93BF938091950690919606A09197067B
:102A9000B09198063091BB0623E0230F2D3720F428
:102AA0000196A11DB11D05C026E8230F0296A11DA8
:102AB000B11D2093BB068093950690939606A09334
:102AC0009706B09398068091BC069091BD06A091A0
:102AD000BE06B091BF060196A11DB11D8093BC0634
:102AE0009093BD06A093BE06B093BF06BF91AF9171
:102AF0009F918F913F912F910F900FBE0F901F903C
:102B00001895CF93DF93CDB7DEB767970FB6F894DC
:102B1000DEBF0FBECDBF789484B5826084BD84B51E
:102B2000816084BD85B5826085BD85B5816085BDC8
:102B300080916E00816080936E0010928100809180
:102B40008100826080938100809181008160809308
:102B5000810080918000816080938000809191004D
:102B600082608093910080919100816080939100B8
:102B7000809190008160809390008091C10084607A
:102B80008093C1008091C10082608093C1008091D8
:102B9000C10081608093C1008091C30081608093F7
:102BA000C3008091C00082608093C0008091C20009
:102BB00081608093C20080917A00846080937A0063
:102BC00080917A00826080937A0080917A0081609F
:102BD00080937A0080917A00806880937A001092C6
:102BE00037051092F2041092F1048091D7008160B1
:102BF0008093D70080EA8093D80089B5806189BD31
:102C000089B5826089BD09B400FEFDCF61E070E046
:102C100080E090E00E94FD148091D8008F7C80615C
:102C20008093D8008091E000807F8093E0008091C5
:102C3000E1008E7E8093E1008DE08093E200559A62
:102C4000209AEEEFFFE7859194918B3F9C4D19F40C
:102C500081E08093F0048FEF9FEF90934306809381
:102C60004206109107016AE070E080E090E00E9467
:102C7000FD141123B1F389ED91E00E9409108EE358
:102C800098E20E9493118DEE91E00E94091080E07D
:102C900090E00E945320682F70E080E090E04AE0CE
:102CA0000E94A10F8EEF91E00E94890F8FE8EBE95F
:102CB000F5E0DF011D928A95E9F761E085E00E9469
:102CC000C114E0E7F1E02491E1E5F1E0E491F0E006
:102CD000EE0FFF1FE856FE4F4591549180E091E0C2
:102CE00031E0291741F08F5F932F082E01C0990F13
:102CF0000A94EAF7F6CF5093960540939505809392
:102D000094058BE995E090938D0580938C055498FC
:102D1000E0919505F0919605208181E090E000908A
:102D2000940502C0880F991F0A94E2F780958223C8
:102D300080831092800081E080938100109298053A
:102D4000B59A80916F00806280936F0080918100BE
:102D5000887F81608093810081E092E00E94091069
:102D600088E190E00E94931185E090E00E9453205A
:102D700080932505F12C80912505F81608F0E2C115
:102D8000AF2CB12CC501885F9F4F0E945320282F84
:102D9000B4E1BA9D8001BB9D100D1124C801815E74
:102DA0009F4F2F8B0E945B20E82EC8018F5D9F4FA5
:102DB0000E945B204C01AA0CBB1C2F89233009F414
:102DC00029C108F057C0213009F4E9C0223009F0C8
:102DD0008AC1C8018D5D9F4F0E945B202C01C801F4
:102DE0008B5D9F4F0E945B209C01C801895D9F4FB6
:102DF0002F8B3E8B0E945B20AC01C801835D9F4FEF
:102E00004D8B5C8B0E945B201C01C801815D9F4F34
:102E10000E945B203C01C8018F5C9F4F0E945B2099
:102E2000682F8BE190E06B8B0E94261F6C01FC01E8
:102E3000F582E2829482838284E691E091838083AA
:102E4000518640862F893E89378326834D895C8948
:102E5000538742876B896487538A428A558A448A9A
:102E600036862586708A6786178A168A108E128E95
:102E7000118E2AC1243009F401C1263609F033C16C
:102E8000C8018D5D9F4F0E945B201C01C8018B5DB6
:102E90009F4F0E945B209A8B898BC801895D9F4F51
:102EA0000E945B202C01C801835D9F4F0E945B2024
:102EB0009C01C801815D9F4F2F8B3E8B0E945B2040
:102EC0003C01C8018F5C9F4F0E945B20482F8DE121
:102ED00090E04D8B0E94261F6C01DC011596FC9240
:102EE00015971296EC92129714969C928E921397C5
:102EF0001B965C924E921A974D891C964C931C9788
:102F000053963C922E92529755963C922E925497FD
:102F10002F893E891E963C932E931D9750967C9246
:102F20006E921F9757961C921E92569758961C9217
:102F300058975A961C921E925997EEE7F1E0119617
:102F4000FC93EE9324E936E05C963C932E935B97DA
:102F5000B10180E090E00E94781E2FE335E342E863
:102F600050E40E94D71D0E94491ED60119967C93F9
:102F70006E931897E989FA89BF0180E090E00E947A
:102F8000781E2FE335E342E850E40E94D71D0E94EB
:102F9000491ED60117967C936E93169795C0C8016B
:102FA0008D5D9F4F0E945B208170D82EC8018B5D84
:102FB0009F4F0E945B208C018BE090E00E94261FB7
:102FC0003C01DC011596FC9215971296EC92129733
:102FD00014969C928E921397E6E1F1E01196FC9381
:102FE000EE93FFEFEF1203C02EEF12962C9362E0E8
:102FF000D30112968C910E94C114F301168281E0D4
:103000008783D28611870087F501ED50FB4F7182CF
:1030100060827BC0C8018D5D9F4F0E945B20D82ECF
:103020008AE090E00E94261F8C01DC011596FC923C
:1030300015971296EC92129714969C928E92139773
:10304000E0E3F1E0ED93FC9361E08E2D0E94C1146A
:10305000D80116961C9260E0C8010E94D4028D2D02
:103060008170F80187831186D1FADD24D0F8D086EB
:10307000F501ED50FB4F1183008347C0C8018D5D02
:103080009F4F0E945B20C82EC8018B5D9F4F0E94FE
:103090005B20D82EC801895D9F4F0E945B208C0168
:1030A00083E190E00E94261FFC01F582E282948277
:1030B00083822AE431E031832083C782D08612875D
:1030C0000187108A17861CC0F501ED50FB4FD18295
:1030D000C082C801855D9F4F0E945B20BC01C60174
:1030E0000E942D0112C086E090E00E94261FFC0184
:1030F00028E931E031832083F582E2829482838261
:10310000D501AD50BB4FED93FC9380E192E00E945E
:1031100009106F2D70E080E090E04AE00E94A10F5E
:103120008EEF91E00E94890FF501ED50FB4F8081F9
:103130009181DC01ED91FC910480F581E02D0995F0
:10314000F39419CE80919306811168C00E94B81043
:10315000882309F463C060E080EF0E94681001E0FA
:10316000F12CE12C11E00E9411108B8B0E941110A8
:103170009B89913019F48130C1F435C02F2D30E096
:1031800098131DC080919106181738F4F901EA5779
:10319000F94F8381802349F402C0181731F090E081
:1031A000193060F41093920609C0EF2DF0E0EA5751
:1031B000F94F8381802B838391E009C0E12EF901CF
:1031C000EA57F94F2381802F809582238383892FAB
:1031D0000E9436101F5F000F11F4F39401E0B7E076
:1031E000BF1508F0C0CF1134C8F0E0929106E1108D
:1031F00003C081E08093930680918906882371F053
:10320000A9E8B6E084E8E82E85E0F82EF7018D9174
:10321000819325E0EC38F207D1F717C010929106A0
:103220001092930610929206E1E9F6E0129236E0CF
:10323000E938F307D9F7E4E8F5E087E08E0F11925B
:103240008E13FDCF86E192E016C082E592E00E94E7
:10325000091010E06AE070E0812F0E94F91060E12F
:1032600070E0D7018D917D010E94F9101F5F17302A
:1032700089F786E492E00E9485111092BA061092B6
:10328000B906109261051092830510925F0511E056
:1032900010935E051092390561E082E00E9491145E
:1032A00061E083E00E9491148091B9008E7F809349
:1032B000B9008091B9008D7F8093B90088E4809334
:1032C000B80085E48093BC0060E080E00E946A1151
:1032D0008091940610936005809382051092610599
:1032E0001092830560E08AE296E00E94BE1281E0BF
:1032F0000E940D118091940690915F059111FCCF71
:1033000091E090935F0590935E052FEF20935D050C
:1033100010925C0510925B0590933A0590913A05E6
:10332000880F892B80933A0580913905813061F4AB
:103330001092390580913A058093BB008091BC00C2
:1033400083FDF8CF85EC01C085EE8093BC008091B1
:103350005F058130E1F380915C05811103C08091AC
:103360005C0501C081E0ABE3B5E029E936E0F90195
:103370009E2F921B981718F49D919193F9CF10925C
:10338000BA068093B9068AE296E00E947212182F5C
:10339000682F6F76606180E00E946A1160E68EEFB0
:1033A0000E946A11612F80E00E946A1165E070E05E
:1033B00080E090E00E94FD14612F616A80E00E942D
:1033C0006A1160E0462E60E0562E70E0A72E70E095
:1033D000B72EE0E08E2EE0E09E2EF0E06F2EF0E0C3
:1033E0007F2EFF24FA9450E0252E50E0352E1092C7
:1033F000260510E080912505181708F04AC0E12F36
:10340000F0E0EE0FFF1FED50FB4F80819181DC015A
:10341000ED91FC910088F189E02D09951F5FEACFBD
:10342000E82FF0E0E556FA4F108117FF3BC090916E
:103430001D06981751F020912206309123062F5F28
:103440003F4F309323062093220680931D06F0926F
:103450001E06812F8076803619F182958F708E5FDF
:1034600080931F068111C2C190911C069F5F9093AB
:103470001C0680911D06392F381B97FD10921C06E3
:1034800090911F0620911E06391799F0122710936C
:103490001E0680911C0690911B068913C1CF2BC07C
:1034A00080E0DECF80911F068111DECF10931F06D2
:1034B0009DC121130EC090E085569A4F4091200681
:1034C000509121064F5F5F4F509321064093200695
:1034D0000BC08091220690912306019690932306BB
:1034E0008093220680E090E030911C0630931D0608
:1034F000009761F202C080E090E0909324058093F1
:103500002305892B09F46AC186E492E00E94091020
:10351000E0912305F091240521816281962F9F700F
:1035200030E8939FA0011124422B3081323BE9F017
:10353000DA011196313B09F442C040F4333841F1CD
:10354000303BB1F1323809F0C6C029C03C3B09F428
:103550004EC020F4343B09F4BBC0BDC03D3B09F470
:103560003DC1303D09F44EC0B6C065FD03C081E0E9
:1035700090E002C082E090E04114510409F42EC1B1
:10358000440F551F6071840F951F0E94000026C1D3
:1035900080E090E0892B09F421C181E006C080E041
:1035A00090E0892B09F41AC180E00E94000016C146
:1035B000462F40726071CD010E946F040FC166FFFB
:1035C0000BC08114910409F409C1462F4072607147
:1035D000CD010E94000002C1A114B10409F4FEC093
:1035E000462F40716072CD010E940000F7C0611447
:1035F000710409F4F3C0462F40726071CD010E943E
:103600000000ECC0822F8076803219F1803619F0EC
:103610008111E4C01EC080E090E0892B09F4DEC077
:10362000E3808E2D807D803109F0D8C0D48011E0F8
:1036300001E041E0802F8E2109F040E0202F2D2174
:10364000000F612F80E80E9400001F5F153089F78E
:10365000C5C02114310409F4C1C0A22FAF7140E8E4
:10366000A49FD0011124A60FB11D25FB222720F90C
:1036700011968381448150E08D3729F0E0E88E9FD8
:10368000400D511D1124992381F0923081F0943026
:1036900081F0963081F0983081F09A3081F09C3042
:1036A00081F09E3081F0692F0FC061E40DC062E4AB
:1036B0000BC063E409C064E407C065E405C066E4C8
:1036C00003C067E401C068E4CD010E94000086C029
:1036D0002C3309F483C088E592E00E9409108091A0
:1036E0002305909124050E94EF100091230510916D
:1036F00024058EE592E00E9409106AE070E0F8016E
:1037000080810E94F9108FE892E00E94091060E128
:1037100070E0D80111968C910E94F9108FE892E028
:103720000E94091060E170E0F80182810E94F910A6
:103730008FE892E00E94091060E170E0D8011396D2
:103740008C910E94F9108FE892E00E94091060E1CC
:1037500070E0F80184810E94F9108FE892E00E94E5
:10376000091060E170E0D80115968C910E94F91063
:103770008FE892E00E94091060E170E0F801868114
:103780000E94F9108FE892E00E9409106801F7E0AA
:10379000CF0ED11C015F1F4F60E170E0D6018D910B
:1037A0006D010E94F9108FE892E00E940910C01686
:1037B000D10691F78FEF91E00E94890FC090230509
:1037C000D0902405F6018081853E09F458C08D3ED5
:1037D00009F455C088E492E00E94091080E090E06E
:1037E000892B09F404CE0E940000FBCD20911D0618
:1037F00080911F0690E0820F911D813891050CF495
:1038000033CE30E8C32EC21AF89440911B06809143
:103810001C06841730F480911D06B42FB81B8B2F23
:1038200002C08C2D840F80931B06789480911C0617
:10383000481780F4D12C50E06BE975E0C60185563D
:103840009A4F0E940B1F60911D0670E065567A4FDB
:10385000A60107C060911D06461B50E070E065564A
:103860007A4F8BE995E00E940B1F80911C06909186
:103870001D06891B80931C0610921D06F5CD8FE254
:1038800092E00E948511D60111968C9111978F308C
:1038900009F0A0CF13968C911397853009F09ACF39
:1038A00014968C911497811195CF16966C91F60110
:1038B0003796A601425F5F4F21E0CF01322F3623BA
:1038C00019F0308130683083220F3196E417F50704
:1038D000A9F7F60116822581203209F482C021322F
:1038E00009F078CF0780F085E02DEF3F2FEFF2074A
:1038F000F9F4D60119962D913C911A97232BC1F416
:103900001B962D913C911C972F3F3F4F89F4B60198
:10391000655F7F4F0E94CC038F3709F05BCFF601C4
:103920000385148547815085E12C20E030E01FC0DD
:10393000D6011D962C911D9721111FC01B964D91EC
:103940005C911C9719966D917C911A979601255F51
:103950003F4FCF010E94BC068F3709F04BC0F601E4
:10396000038514852185328547815085E12C62814C
:10397000CE0101960E94AB1146C027FF21C026FD53
:103980001FC0B601655F7F4F0E942A048F37C1F4C4
:10399000F601038514854781508590E8E92E20E0E3
:1039A00030E06281CE0101960E94AB116AE070E0C6
:1039B00080E090E00E94FD14CE0101960E948C0EE2
:1039C000D6011D968C911D9786FF04CF1B966D9195
:1039D0007C911C9717968D919C9118970E94F603E5
:1039E000F9CEF6014385548561857285878190857E
:1039F0000E944D0687FDEECED6019C919F7724EB69
:103A000029839A838B83CE0101960E948C0EE2CE8D
:103A1000CF92DF92EF92FF920F931F93CF93DF939A
:103A20001F92CDB7DEB7182F062FE42E862F880FF2
:103A30008E5F99830E94610883E00E946108F12EE5
:103A4000C12E9981D92E8C2D8F19801798F4F601EB
:103A5000E7FE02C0849101C080810E946108182F96
:103A600080E00E9461088123FFEFCF1ADF0A8111F5
:103A7000EACF01C081E00F90DF91CF911F910F91AC
:103A8000FF90EF90DF90CF90089510922D06109246
:103A90002C0688EE93E0A0E0B0E080932E06909391
:103AA0002F06A0933006B093310629EB31E0309316
:103AB0002B0620932A06109239061092380680931E
:103AC0003A0690933B06A0933C06B0933D068BECE0
:103AD00091E090933706809336068FEF9FEF909397
:103AE00043068093420680E48093940660E085E17B
:103AF0000E94C114E0E8F1E0E491E0938606E1E67B
:103B0000F1E0E491F0E0EE0FFF1FE25CFE4F8591E3
:103B10009491909388068093870610929106109254
:103B2000930610929206E1E9F6E0129286E0E938F7
:103B3000F807D9F70895AA1BBB1B51E107C0AA1FBC
:103B4000BB1FA617B70710F0A61BB70B881F991F3E
:103B50005A95A9F780959095BC01CD010895A1E2F1
:103B60001A2EAA1BBB1BFD010DC0AA1FBB1FEE1FF7
:103B7000FF1FA217B307E407F50720F0A21BB30B42
:103B8000E40BF50B661F771F881F991F1A9469F7BE
:103B900060957095809590959B01AC01BD01CF011A
:103BA0000895EE0FFF1F0590F491E02D09940E94F7
:103BB000EB1D0C94CC1E0E94C51E58F00E94BE1E28
:103BC00040F029F45F3F29F00C94B51E51110C947C
:103BD000001F0C94BB1E0E94DD1E68F39923B1F3F5
:103BE000552391F3951B550BBB27AA276217730723
:103BF000840738F09F5F5F4F220F331F441FAA1FB7
:103C0000A9F335D00E2E3AF0E0E832D09150504072
:103C1000E695001CCAF72BD0FE2F29D0660F771F20
:103C2000881FBB1F261737074807AB07B0E809F006
:103C3000BB0B802DBF01FF2793585F4F3AF09E3F8B
:103C4000510578F00C94B51E0C94001F5F3FE4F30F
:103C5000983ED4F3869577956795B795F7959F5FCE
:103C6000C9F7880F911D9695879597F90895E1E01A
:103C7000660F771F881FBB1F621773078407BA0779
:103C800020F0621B730B840BBA0BEE1F88F7E095D4
:103C900008950E94E51E88F09F5798F0B92F992744
:103CA000B751B0F0E1F0660F771F881F991F1AF027
:103CB000BA95C9F714C0B13091F00E94FF1EB1E06F
:103CC00008950C94FF1E672F782F8827B85F39F06E
:103CD000B93FCCF3869577956795B395D9F73EF4C0
:103CE00090958095709561957F4F8F4F9F4F089568
:103CF000E89409C097FB3EF4909580957095619586
:103D00007F4F8F4F9F4F9923A9F0F92F96E9BB273B
:103D10009395F695879577956795B795F111F8CFB7
:103D2000FAF4BB0F11F460FF1BC06F5F7F4F8F4F22
:103D30009F4F16C0882311F096E911C0772321F018
:103D40009EE8872F762F05C0662371F096E8862FB0
:103D500070E060E02AF09A95660F771F881FDAF707
:103D6000880F9695879597F9089597F99F6780E84A
:103D700070E060E008959FEF80EC089500240A94BD
:103D80001616170618060906089500240A94121636
:103D90001306140605060895092E0394000C11F469
:103DA000882352F0BB0F40F4BF2B11F460FF04C016
:103DB0006F5F7F4F8F4F9F4F089557FD9058440F6F
:103DC000551F59F05F3F71F04795880F97FB991F7A
:103DD00061F09F3F79F08795089512161306140637
:103DE000551FF2CF4695F1DF08C0161617061806C4
:103DF000991FF1CF86957105610508940895E8949F
:103E0000BB2766277727CB0197F9089581E090E0DB
:103E1000F8940C9484206817790768F4FB01DC019E
:103E2000E40FF51FA40FB51F02C002900E9241507F
:103E30005040D8F708950C941D1FFB01DC0102C00F
:103E400001900D9241505040D8F70895CF93DF93E1
:103E50008230910510F482E090E0E0911507F09136
:103E6000160720E030E0C0E0D0E0309711F140814B
:103E7000518148175907C0F04817590761F48281EA
:103E80009381209719F09B838A832BC09093160708
:103E90008093150726C02115310519F042175307E5
:103EA00018F49A01BE01DF01EF010280F381E02DD9
:103EB000DCCF2115310509F1281B390B24303105E0
:103EC00090F412968D919C9113976115710521F0D4
:103ED000FB019383828304C0909316078093150798
:103EE000FD01329644C0FD01E20FF31F81939193CF
:103EF000225031092D933C933AC020911307309101
:103F00001407232B41F420910E0130910F013093BF
:103F100014072093130720910C0130910D012115F6
:103F2000310541F42DB73EB7409110015091110178
:103F3000241B350BE0911307F0911407E217F307E8
:103F4000A0F42E1B3F0B2817390778F0AC014E5F09
:103F50005F4F2417350748F04E0F5F1F509314072B
:103F6000409313078193919302C0E0E0F0E0CF010A
:103F7000DF91CF9108950F931F93CF93DF93009715
:103F800009F48CC0FC01329713821282009115074C
:103F9000109116070115110581F420813181820FDE
:103FA000931F20911307309114072817390779F5CB
:103FB000F0931407E093130771C0D80140E050E07C
:103FC000AE17BF0750F412962D913C911397AD0197
:103FD0002115310509F1D901F3CF9D01DA013383B0
:103FE000228360817181860F971F8217930769F47E
:103FF000EC0128813981260F371F2E5F3F4F318317
:1040000020838A819B8193838283452B29F4F093BB
:104010001607E093150742C01396FC93EE93129790
:10402000ED01499159919E01240F351FE217F307C5
:1040300071F480819181840F951F029611969C9353
:104040008E938281938113969C938E931297E0E0D6
:10405000F0E0D80112968D919C911397009719F07A
:10406000F8018C01F6CF8D919C9198012E5F3F4F06
:10407000820F931F209113073091140728173907D7
:1040800069F4309729F4109216071092150702C0B0
:10409000138212821093140700931307DF91CF91BC
:1040A0001F910F910895F999FECF92BD81BDF89AA5
:1040B000992780B50895A8E1B0E042E050E00C9463
:1040C0007620262FF999FECF1FBA92BD81BD20BD63
:1040D0000FB6F894FA9AF99A0FBE019608950E94C5
:1040E0006120272F0C946220DC01CB01FC01F9999F
:1040F000FECF06C0F2BDE1BDF89A319600B40D9234
:0C41000041505040B8F70895F894FFCFEC
:10410C0000E1000000000000FFFFFFFF00001707A8
:10411C008000000000003908060254030202570117
:10412C000002FF01FE017603FB01F8010000000014
:10413C005F080A023A031E01F802D402FF01FE01D5
:10414C002B01FB01F801000000003A0808021702DD
:10415C000D01B7010002FF01FE017A01FB01F8011C
:10416C00000000003B0844083E024A0161050002C1
:10417C00FF010C0249012D014501000000004E0811
:10418C00550889024A0161050002FF010C028F05E6
:10419C002D01450100000000600804020302020228
:1041AC0001020002FF01FE01FC01FB01F80100C14C
:1041BC00808100000000000000BE128E122A0962ED
:1041CC001286127212631200000000EE086109E6FA
:1041DC000904090F09EA09080A556E6976657273B4
:1041EC00616C206465636F6465722076004D6F644A
:1041FC00756C6520616464726573733A20000D0AF6
:10420C00004D61782023206F662070696E733A0030
:10421C0050696E2023004E6F206473313873323036
:10422C0020666F756E6420666F722055494400508D
:10423C006F737369626C792061204C4E4356206D0C
:10424C006573736167652E00456E64204C6F6F70EB
:10425C000A005549443A20004C6F6F7020002050E2
:10426C004B543A2000537472616967687400546847
:10427C00726F776E004475616C20616374696F6E48
:10428C0020736C6F742C20616464726573732C20C2
:10429C000054726967676572696E6720736C6F741E
:1042AC00730041726475696E6F2050696E3A20001C
:1042BC002053747261696768743A200020547572D7
:1042CC006E6F75743A200020416464726573733AA2
:1042DC0020002053706565643A20002046656564B3
:1042EC006261636B20736C6F7420313A200020463E
:1042FC006565646261636B20736C6F7420323A2065
:10430C000020506F77657220736C6F743A200050E8
:10431C004341393638352050696E3A20004F757458
:10432C007075742070696E200020746F2073746136
:10433C0074653A20004163633A200020666F726313
:10434C00655F6F6E3A2000496E7075742070696EEF
:10435C002000207265706F7274696E6720696E76CA
:10436C00657273652000206F6E2000537461746554
:10437C002070696E2000206368616E67656420742C
:10438C006F2000446973636F7665723A20006E6F1C
:10439C00746966794C4E435670726F6772616D6DBD
:1043AC00696E6753746F702000456E642050726F95
:1043BC006772616D696E67204D6F64652E0A0057D8
:1043CC00726F6E67204172746E722E0A0057726F94
:1043DC006E67204D6F64756C652041646472657303
:1043EC00732E0A0049676E6F72696E672052657191
:1043FC00756573742E0A0050726F6772616D6D690A
:10440C006E67207374617274656400436C6F7365BE
:10441C0064004F6E004F66660053776974636820C2
:10442C00526571756573743A2000202D2000546814
:10443C00726F776E207377697463683A200020740A
:10444C006F203A005265706F7274696E6720736CDE
:10445C006F7420002053746174653A20004D6F76A0
:10446C00696E6720746F00417474616368656420C1
:10447C00210A00456E746572206E6F746966794C02
:10448C004E435677726974652800290A004172748C
:10449C006E7220496E76616C69642E0A00456E74EA
:1044AC006572206E6F746966794C4E435672656105
:1044BC006428000A456570726F6D206164647265D2
:1044CC0073733A2000204C4E43562056616C756530
:1044DC003A20004172744E7220696E76616C696488
:1044EC002E0A0044657374727563746F7221000038
:00000001FF
