:100000000C94EC000C9414010C9414010C94140145
:100010000C9414010C9414010C9414010C9414010C
:100020000C9414010C9414010C948A0A0C94FC0A8C
:100030000C9414010C9414010C9414010C941401EC
:100040000C9400080C9474060C9414010C94140184
:100050000C9414010C9414010C9414010C942A06B1
:100060000C9414010C9414010C9414010C941401BC
:100070000C9414010C9414010C9414010C941401AC
:100080000C944F080C9414010C9414010C9414015A
:100090000C9414010C9414010C9414010C9414018C
:1000A0000C9414010C9414010C941401510D540D72
:1000B000430D470D4D0D750D750D750D580D5C0DEE
:1000C000600D660D6A0D750D700D000000002300B7
:1000D000260029002C002F00000000002500280029
:1000E0002B002E0031000404040404030405020262
:1000F00002020403020202020606060606060404C1
:100100000202020404040802011040804010204052
:1001100080408008020401804020100201108010FD
:100120002040402000000000240027002A002D006D
:1001300030000000000200090F0000030401000C61
:1001400000000000000000000000000000000000AF
:10015000080B000202020100090400000102020073
:1001600000052400100105240101010424020605F4
:100170002406000107058103100040090401000264
:100180000A00000007050202400000070583024044
:10019000000004030904537061726B46756E0053CE
:1001A0007061726B46756E2050726F204D6963727C
:1001B0006F0012010002000000404F1B0692000178
:1001C0000102030112010002EF0201404F1B0692DF
:1001D000000101020301B01511241FBECFEFDAE0C8
:1001E000DEBFCDBF11E0A0E0B1E0E2E0FFE202C07F
:1001F00005900D92A63EB107D9F723E0A6EEB1E037
:1002000001C01D92AB35B207E1F710E0CCEED0E0B3
:1002100004C02197FE010E940016CB3ED107C9F70A
:100220000E9417100C947F170C94000080329105E7
:1002300010F4019708959C0120523109C9016AE028
:1002400070E00E94EC1544E1649FC0011124AC01F0
:10025000415E5F4FC9017AE0679F801991091124BF
:10026000880F991F840F951F0895DC01ED91FC9173
:10027000119761E01F962D913C915097232B09F027
:1002800060E00084F185E02D41E009940895DC01EF
:10029000ED91FC91119716966C9121E062270084F4
:1002A000F185E02D41E00994DC0117968C911797B8
:1002B0008823B1F018968C911897662311F08F5F00
:1002C00001C0815018968C93189718968C911897A6
:1002D00018162CF018961C92189760E001C061E087
:1002E00016966C931697ED91FC9111970284F38505
:1002F000E02DCD01099480E008950895FC0181E08E
:10030000672B09F480E0818B882319F0868197811F
:1003100002C080859185908F878B8789908D968B81
:10032000858B128E118E158E148E0895FC01818995
:1003300090E0089508950895DC01ED91FC911197E6
:1003400051966C9121E062270084F185E02D40E018
:100350000994FC01662319F091E094279783468362
:1003600008950895089588319105A0F4880F991F84
:10037000FC01E75EFD4F80819181DC01ED91FC91F4
:1003800021E0672B09F420E00084F185E02D40E0B6
:10039000622F09940895CF93DF93EC018F8598899C
:1003A000892B81F18FB7F8944091E9015091EA01CE
:1003B0006091EB017091EC018FBF8B859C85AD85C1
:1003C000BE85481B590B6A0B7B0B89859A85A0E07B
:1003D000B0E084179507A607B707B0F48A89882389
:1003E00041F08F859889019721F4888561E070E05C
:1003F00003C08F8160E070E090E00E94B301188A32
:100400001F8602C080E001C081E0DF91CF91089596
:100410000F931F93CF93DF93EC0129896217A1F10A
:100420008F859889892B81F5E62FF0E030E091E007
:100430002E173F070CF090E0042F162F9A8B99236C
:1004400041F081E090E0988B8F878F8161E070E0D0
:1004500007C081E090E0988B8F87888560E070E02E
:1004600090E00E94B3010111198B2FB7F89480918D
:10047000E9019091EA01A091EB01B091EC012FBF4D
:100480008B879C87AD87BE87DF91CF911F910F919E
:10049000089580E090E00895089580E0089508951B
:1004A000089508950895089508950C94B6160C942F
:1004B000B6160C94B6160C94B6160C94B616FC012F
:1004C00082810C94760DAF92BF92CF92DF92EF9221
:1004D000FF920F931F93CF93DF93FC012385348505
:1004E0009585C185D285892F90E0EA81FB8178E1ED
:1004F0007E9FA0017F9F500D11244817590798F047
:10050000880F991FE881F981E80FF91F629FC001E8
:10051000639F900D1124811520E1920710F08FEF59
:100520009FE09183808360E08E810E94760D8A81B6
:100530009B8128E1289F8001299F100D11246801CB
:1005400081E0C81AD10801501048000F111FAA24D9
:10055000A394B12CD7FC2CC08BE0E82EF12C60E0EA
:100560008C810E94760DE881F981E00FF11F808176
:10057000918195010E2C02C0220F331F0A94E2F7DD
:1005800082239323892B11F061E001C060E08D810B
:100590000E94760D61E08C810E94760D21E0E21AC6
:1005A000F108E8F621E0C21AD10802501109D2CFB1
:1005B00060E08C810E94760D61E08E810E94760D54
:1005C00060E08E81DF91CF911F910F91FF90EF90AE
:1005D000DF90CF90BF90AF900C94760D880F991F4D
:1005E000FC01E75EFD4F0190F081E02D8381948155
:1005F0000C94AE0FCF93DF93EC012C8D3D8D8D8548
:100600009E852130310519F460E070E005C029892C
:10061000211107C061E070E00E94EE0260E070E02E
:1006200006C060E070E00E94EE0261E070E08F853D
:100630009889DF91CF910C94EE021F93CF93DF93B3
:10064000EC016C8D7D8D6230710531F12D893E8913
:100650008F89988D2817390721F0F901E81BF90BCC
:1006600002C0E0E0F0E0498D5A8DCA0157FF04C096
:1006700088279927841B950BE817F90778F482E0FF
:1006800090E09D8F8C8F8C8560E070E090E00E9400
:10069000B301CE010E94FA0280E0ACC08B8D8F5F67
:1006A0008B8F6130710509F04BC08B3F10F481E0F6
:1006B000A1C0420F531F5E8B4D8B2A892C3070F5E1
:1006C0003B8988E890E0831B910937FD9395880F5B
:1006D000991F880F991F481759077CF03C8988E5B6
:1006E00092E0831B910937FD9395880F991F880F1E
:1006F000991F481759070CF4CA010297880F991FD0
:100700004FB7F89430E0F901EE0FFF1F2E0F3F1F97
:10071000F901EC50FE4F928381834FBF1B8E898D70
:100720009A8D892B21F62F89388D8D899E892817DE
:10073000390709F0BCCF81E090E09A8F898F5AC0C9
:10074000672B09F0A9CF8B3F08F4A6CF1A818A89BD
:100750008C3008F04BC061E0812F0E94A60D8A8981
:10076000E82FF0E09F01220F331FE20FF31FEC5040
:10077000FE4F1F739081907C192B10831B8A1C8A5B
:100780006CE00E94E0159CE0899FB001112440E0DC
:1007900050E09A01260F371FF901EE0FFF1F2E0FB1
:1007A0003F1FF901EC50FE4F908196FD13C04F5F43
:1007B0005F4F4C30510569F781110CC010929000C9
:1007C00082E080939100109295001092940088BB73
:1007D00080937100EA89F0E0CF01880F991FE80F3C
:1007E000F91FEC50FE4F80818064808381E090E0AF
:1007F0009D8F8C8FDF91CF911F9108951F93CF9381
:10080000DF93EC01162F662319F08E819F8102C0C1
:1008100088859985988F8F8B4F89588D2D893E8932
:100820008A859B854217530718F491958195910904
:100830009A8F898F8C8561E070E090E00E94B3010F
:10084000CE010E94FA02198B81E090E09D8F8C8F7F
:10085000DF91CF911F9108950F931F93CF93DF9353
:10086000EC012A81222309F130E0F901EE5CFE4F10
:100870008491F901EB5FFE4F0491F901EA51FF4FBA
:100880001491112379F081110E94390DE12FF0E0CC
:10089000EE0FFF1FE653FF4FA591B491EC91E023BB
:1008A00081E009F480E081708E836E818F8168170A
:1008B00041F08B819C810E94AE0F8E818F8381E0FD
:1008C00001C080E0DF91CF911F910F9108950F93A8
:1008D0001F93CF93DF93EC018B0180E090E00E94A7
:1008E0004E17282F30E0F8013183208381E197E211
:1008F000998388838FE7DF91CF911F910F9108959E
:10090000CF93DF932091E601222381F0813197423A
:1009100069F4EB0180E090E00E944E1790E0C81768
:10092000D90721F41092E6010C940000DF91CF91D9
:1009300008950F931F93CF93DF938C01EB0180E019
:1009400090E00E944E17282F30E0F80180819181BD
:100950008131974279F4888199818217930721F434
:1009600081E08093E60104C0019621F43983288355
:100970008FE703C01092E6018FEFDF91CF911F91B7
:100980000F910895CF92DF92EF92FF920F931F93F2
:10099000CF93DF937C01D62EC42EC9E1D2E000E0D4
:1009A00010E0A881B98113968D919C9114978E15B2
:1009B0009F0541F5ED91FC91119741E0D11001C0E7
:1009C00040E061E0C11001C060E00084F185E02DED
:1009D000CD01099588819981DC01ED91FC91048814
:1009E000F589E02D0995BC01C801855D9F4F0E94E6
:1009F0006A1788819981DC01ED91FC910684F78565
:100A0000E02D099522960C5E1F4F003EB1E01B07BA
:100A100041F6DF91CF911F910F91FF90EF90DF9002
:100A2000CF9008950F931F93CF93DF932091E6010A
:100A30002223C1F181319742A9F5603481E0780722
:100A400098F5052F142FEB016032710578F1CB0179
:100A50000E941601612F702F805090400E946A17EB
:100A6000A097CE016AE070E00E94EC157727FB01A9
:100A7000EE0FFF1FE75EFD4F80819181DC01ED915C
:100A8000FC9146EF46039001479F300D1124B901B8
:100A90006C0F7D1F0484F585E02D412F502F0995A3
:100AA0008FE70DC08FEF0BC081E009C0CB010E9422
:100AB0001601612F805090400E945C17D1CFDF91CA
:100AC000CF911F910F9108950F931F93CF93DF93B1
:100AD00000D0CDB7DEB7F9012091E601222309F459
:100AE00081C08131974209F07DC06530710519F4EC
:100AF00088E190E011C0603441E0740788F48F0110
:100B0000CB016032710508F471C00E94160180505B
:100B100090400E945617F801918380838FE76EC042
:100B20006F3F23E0720719F488ED97E2F5CF611566
:100B300044E0740781F48091570390915803009723
:100B400011F48BE593E09E012F5F3F4FA901481BF5
:100B5000590BCA01E1CF613054E0750729F4809147
:100B6000E6019091E701D8CF623084E0780729F45C
:100B700080915B0390915C03CFCF633024E07207D8
:100B800019F48DB79EB7C8CFCB0184509440059718
:100B900058F5663044E07407B1F020F465307440D5
:100BA00069F007C0673024E0720791F06830744044
:100BB000A1F08091E9029091EA02AECF8091EB0220
:100BC0009091EC02A9CF8091ED029091EE02A4CF1A
:100BD0008091EF029091F0029FCF8091F10290916D
:100BE000F2029ACF8FEF0AC081E008C00E9416017E
:100BF000805090400E944E1790E08DCF0F900F9044
:100C0000DF91CF911F910F9108953FB7F894809194
:100C1000ED019091EE01A091EF01B091F00126B5A8
:100C2000A89B05C02F3F19F00196A11DB11D3FBF24
:100C3000BA2FA92F982F8827820F911DA11DB11DB2
:100C4000BC01CD0142E0660F771F881F991F4A95AE
:100C5000D1F708951F920F920FB60F9211242F9380
:100C60003F938F939F93AF93BF938091E9019091AE
:100C7000EA01A091EB01B091EC013091E80123E091
:100C8000230F2D3720F40196A11DB11D05C026E8C4
:100C9000230F0296A11DB11D2093E8018093E90165
:100CA0009093EA01A093EB01B093EC018091ED01E8
:100CB0009091EE01A091EF01B091F0010196A11D7C
:100CC000B11D8093ED019093EE01A093EF01B093DD
:100CD000F001BF91AF919F918F913F912F910F9014
:100CE0000FBE0F901F9018951F920F920FB60F9284
:100CF00011242F933F934F935F936F937F938F9321
:100D00009F93AF93BF93CF93DF93EF93FF93809124
:100D10005B0290915C0280549C4F90935C028093A4
:100D20005B0280915B0290915C02909389008093BA
:100D30008800809160028F5F8093600280916102E1
:100D40008430E1F580916002893078F48091570217
:100D500090E095958795809357024C9B3EC180917A
:100D6000570280688093570238C1B59A80916F000E
:100D7000806280936F0080915502909156024C9949
:100D800009C0FC01E957FF4F808191810196918351
:100D900080830FC040915702FC01E058FF4F308123
:100DA00021E0230F2083DC01A30FB11D4C9327FD0D
:100DB00010821092600281E0809361028091610252
:100DC000833009F0B4C0E0915E02F0915F0240818F
:100DD00020915D0299B150E0022E02C055954795D1
:100DE0000A94E2F7892F90E034E0959587953A953B
:100DF000E1F78427952780FD04C01092600282E00D
:100E000094C0809160028930F0F480915702308163
:100E100080FF09C081E090E001C0880F2A95EAF7C1
:100E20008095832307C081E090E001C0880F2A9558
:100E3000EAF7832B80838091570290E09595879500
:100E40008093570274C080916002893059F43081D8
:100E500081E090E001C0880F2A95EAF7809583230E
:100E6000808365C0809162028F5F8093620290915F
:100E70006302891748F510926002A0915902B0915F
:100E80005A0280916202A80FB11D8C918093570283
:100E9000308181E090E001C0880F2A95EAF7832B2A
:100EA000808380918400909185008A5A9C4F909312
:100EB0005C0280935B0280915B0290915C02909354
:100EC00089008093880033C081E080935802E091CC
:100ED0005902F0915A024091550250915602808178
:100EE0008076803611F4818105C08081807682957C
:100EF0008F708E5F20E030E0DA01A058BF4F2817D6
:100F000088F4EF01C20FD31F78816C9191E0960FA6
:100F10009C93EA01C60FD11D788397FD1C922F5F29
:100F20003F4FEDCF1092600281E08093610280918B
:100F300061028230D1F580916002811111C0E0918F
:100F40005E02F0915F02208181E090E000905D02FE
:100F500002C0880F991F0A94E2F7822B808325C074
:100F6000809160028F3008F1E0915E02F0915F02A3
:100F7000208181E090E000905D0202C0880F991FFF
:100F80000A94E2F78095822380831092600281E0C8
:100F900080936102E0915502F0915602E357FF4FB2
:100FA000808191810196918380838091610281305B
:100FB000A1F480916002811105C0B59A80916F0003
:100FC000806209C080916002883338F0109261021B
:100FD00080916F008D7F80936F00FF91EF91DF9183
:100FE000CF91BF91AF919F918F917F916F915F91C1
:100FF0004F913F912F910F900FBE0F901F9018951A
:101000001F920F920FB60F9211248F939F93EF931D
:10101000FF93EFE6F0E080818F7D808380918600F2
:101020009091870080569A4F90935C0280935B0268
:1010300080915B0290915C0290938900809388007C
:10104000B19A80818260808384E0809361021092F3
:101050006002FF91EF919F918F910F900FBE0F90C3
:101060001F90189508950895DC015296EC91F0E0D8
:10107000CF01880F991FE80FF91FEC50FE4F8081B8
:101080008F7B80830895CF93DF93EC010E94340817
:10109000CE01DF91CF910C94B616089508951F925A
:1010A0000F920FB60F9211242F933F934F935F939C
:1010B0006F937F938F939F93AF93BF93EF93FF9320
:1010C0008091E70187FF05C010929500109294006F
:1010D0001BC02091E701022E000C330B80911802F7
:1010E00090E02817390784F48091E701082E000C5E
:1010F000990BFC01EE0FFF1F8E0F9F1FFC01EC50A0
:10110000FE4F808186FD15C08091E7018F5F80933F
:10111000E7012091E701022E000C330B80911802A9
:1011200090E028173907C4F48091E7018C3064F10E
:1011300013C08091E701082E000C990BFC01EE0F03
:10114000FF1F8E0F9F1FFC01EC50FE4F808160E05F
:101150008F730E94760DD8CF809194009091950066
:10116000049680349C4918F480E49CE905C0809181
:101170009400909195000496909399008093980024
:101180008FEF8093E7013BC0209194003091950050
:101190008091E701082E000C990BFC01EE0FFF1F58
:1011A0008E0F9F1FFC01EC50FE4F81819281820FB8
:1011B000931F90939900809398008091E701082EE7
:1011C000000C990BFC01EE0FFF1F8E0F9F1FFC01FF
:1011D000EC50FE4F808186FF12C08091E701082EFF
:1011E000000C990BFC01EE0FFF1F8E0F9F1FFC01DF
:1011F000EC50FE4F808161E08F730E94760DFF916D
:10120000EF91BF91AF919F918F917F916F915F917E
:101210004F913F912F910F900FBE0F901F901895F7
:101220000895409150025091510220914E02309108
:101230004F0242175307B4F49091E8009570E1F320
:101240009091E80092FD19C08093F10080915002C6
:101250009091510201968F739927892B19F48EEF83
:101260008093E800809150029091510201969093F2
:1012700051028093500281E0089580E00895CF925A
:10128000DF92EF92FF920F931F93CF93DF931F9202
:10129000CDB7DEB7182F062FE42E862F880F8E5F6E
:1012A00099830E94110983E00E941109F12EC12E39
:1012B0009981D92E8C2D8F19801798F4F601E7FEAD
:1012C00002C0849101C080810E941109182F80E022
:1012D0000E9411098123FFEFCF1ADF0A8111EACFA3
:1012E00001C081E00F90DF91CF911F910F91FF908E
:1012F000EF90DF90CF900895DF92EF92FF920F93DF
:101300001F93CF93DF93D82E8A017B01E40EF51E45
:10131000EB01CE15DF0571F0D7FE03C0FE0184910D
:1013200001C088810E94110921968111F2CF8FEFAF
:101330009FEF01C0C801DF91CF911F910F91FF90E6
:10134000EF90DF900895615030F02091F100FC01A2
:1013500020830196F8CF289884E68093530208955D
:10136000CF92DF92EF92FF920F931F93CF93DF9371
:101370006C017A018B01C0E0D0E0CE15DF0589F069
:10138000D8016D918D01D601ED91FC910190F08114
:10139000E02DC6010995892B11F47E0102C021962A
:1013A000ECCFC701DF91CF911F910F91FF90EF908C
:1013B000DF90CF900895CF93DF931F92CDB7DEB724
:1013C0006983DC01ED91FC910280F381E02D41E025
:1013D00050E0BE016F5F7F4F09950F90DF91CF9175
:1013E000089583E08093E9008091F200882319F04A
:1013F0008AE38093E8000895FC018485958597FD34
:101400000BC09FB7F89482E08093E9008091F200CE
:101410009FBF90E0019608959FB7F89482E0809373
:10142000E9008091F2009FBF90E008950F931F9311
:10143000CF93DF931F92CDB7DEB782E0898342E47A
:1014400050E060E571E080E80E947C090E94031092
:10145000DC0112960D911C9113970115110569F08D
:10146000D801ED91FC910280F381E02DBE016F5F08
:101470007F4FC801099597FF07C089810F90DF91C1
:10148000CF911F910F910895F80100851185E5CF47
:10149000CF93DF931F92CDB7DEB7FC01848595858E
:1014A00097FD05C02FEF3FEF358724870BC0CE0196
:1014B00001960E94D90F019719F4898190E002C02A
:1014C0008FEF9FEF0F90DF91CF9108950F931F93B0
:1014D000CF93DF931F92CDB7DEB78C01FC018485DB
:1014E000958597FF0EC0CE0101960E94D90F0197F6
:1014F00019F4298130E002C02FEF3FEFF801358762
:101500002487F801848595850F90DF91CF911F91F5
:101510000F9108951F920F920FB60F9211248F937F
:101520009F938091E1009091E100937F9093E1007F
:1015300083FF0FC01092E90091E09093EB001092AE
:10154000EC0092E39093ED001092540298E0909397
:10155000F00082FF20C093E09093E9009091F200A8
:10156000992319F09AE39093E800909152029923FD
:1015700039F090915202915090935202992389F13F
:1015800090915302992339F0909153029150909386
:101590005302992341F184FF10C08091E2008E7EB6
:1015A00081608093E2008091E1008F7E8093E10072
:1015B0008091F2018E7E806111C080FF16C0809103
:1015C000E2008E7E80618093E2008091E1008E7E59
:1015D0008093E1008091F2018E7E81608093F20120
:1015E00004C05D9ACDCF289AD6CF9F918F910F904E
:1015F0000FBE0F901F9018951F920F920FB60F926B
:101600001124CF92DF92EF92FF920F931F932F93AB
:101610003F934F935F936F937F938F939F93AF937A
:10162000BF93EF93FF93CF93DF93CDB7DEB76C9764
:10163000DEBFCDBF1092E9008091E80083FFFAC1C0
:1016400068E0CE0145960E94A30982EF8093E800EE
:101650008D8987FF05C09091E80090FFFCCF03C003
:101660009EEF9093E800982F907609F0C6C09E896F
:101670002F89188D91110CC0803829F48091F301C5
:101680008093F10002C01092F1001092F10047C166
:10169000422F50E0512B913051F4811140C1413023
:1016A000510509F03CC18091F3018D7F0BC093304F
:1016B00061F4811134C14130510509F030C180918C
:1016C000F30182608093F3012AC1953041F4809147
:1016D000E80080FFFCCF20682093E30020C1963013
:1016E00009F05FC0EB8CFC8C1092E9001092510263
:1016F00010925002123091F510924F0210924E0249
:101700000E94160A99E0BE016F5F7F4FDB01E92F4F
:101710001D92EA95E9F799831A8391E09E8390EAF6
:1017200098879AEF99872091500230915102275F54
:101730003F4F3C832B838D831092E900109251021E
:1017400010925002F0924F02E0924E0249E050E0B7
:1017500080E00E947C090E94160AE1C0F0924F02CC
:10176000E0924E020E940310DC011296ED90FC9074
:101770001397E114F10409F4C0C0D701ED91FC9175
:101780000480F581E02DBE016B5E7F4FC701099596
:10179000009719F00CF0C3C0C6C0F701E084F184D3
:1017A000E8CF973009F4BFC0983021F481E08093EE
:1017B000F100B5C0993009F0B2C0837009F0B3C030
:1017C000E3EBF1E081E021E036E39081992361F0E1
:1017D0008093E9002093EB0091919093EC0030937B
:1017E000ED008F5F873089F78EE78093EA001092D3
:1017F000EA008F898093540292C08B8D9C8D109249
:10180000E900109251021092500290934F0280937F
:101810004E02898D811156C08E899D89913A59F465
:10182000813209F080C047E050E064E071E080E080
:101830000E947C0974C0913209F075C0833289F42A
:10184000888D90E0982F88272F89822BA0E0B0E028
:101850008093000190930101A0930201B0930301D2
:101860005EC0803269F48091E80082FFFCCF67E0BF
:1018700084E091E00E94A3098BEF8093E80006C00A
:10188000823209F04CC08F8980930B018091F10165
:10189000882319F0EEEFFAE002C0E0E0F8E0809172
:1018A000040190910501A0910601B0910701803BD0
:1018B0009440A105B10509F088C080910B0180FF1B
:1018C000A0C083C00E940310DC0112960D911C91F0
:1018D00013970115110539F1D801ED91FC91019093
:1018E000F081E02DBE016B5E7F4FC801099581112B
:1018F00016C0F80100851185ECCF1130C1F013300E
:1019000091F48F89882309F455C08230E9F440E8C6
:1019100062E18FE991E00E943F09882321F08EEF78
:101920008093E80087C081E28093EB0083C08B8DB9
:101930009C8D089711F410934D0280914D028111F6
:1019400036C062EB71E038C0813029F440E868E0CD
:1019500086E991E0E0CF833031F70E940310DC018B
:101960001296ED90FC9013978E010F5F1F4F680148
:10197000E114F10479F0D701ED91FC910680F78133
:10198000E02DB801C7010995080F111DF701E0848A
:10199000F184EECFD8011C92F60101900020E9F706
:1019A0003197BF016C197D0940E0C601B4CF64ECEA
:1019B00071E002C062E971E06115710509F4B3CF0D
:1019C000FB01449150E080E833CF0FB6F894A8951E
:1019D00080916000886180936000109260000FBE6B
:1019E000A895EE3F2AE0F20739F08091FE0A909127
:1019F000FF0A9183808393CF1092FF0A1092FE0A10
:101A00008ECFEE3F8AE0F80731F08081918190938C
:101A1000FF0A8093FE0A87E797E7918380839BE024
:101A200088E10FB6F894A895809360000FBE90935C
:101A3000600075CF6C960FB6F894DEBF0FBECDBFB9
:101A4000DF91CF91FF91EF91BF91AF919F918F91D6
:101A50007F916F915F914F913F912F911F910F91C6
:101A6000FF90EF90DF90CF900F900FBE0F901F90E0
:101A7000189590E0FC013197EF30F105B0F5EA5A86
:101A8000FF4F0C940016809180008F7703C08091E7
:101A900080008F7D80938000089580918000877FF3
:101AA000F9CF84B58F7702C084B58F7D84BD08954A
:101AB000809190008F7707C0809190008F7D03C048
:101AC00080919000877F8093900008958091C0005E
:101AD0008F7703C08091C0008F7D8093C0000895F0
:101AE0008091C200877F8093C20008951F93CF9397
:101AF000DF93282F30E0F901EE5CFE4F8491F9016D
:101B0000EB5FFE4FD491F901EA51FF4FC491CC2312
:101B1000C9F0162F81110E94390DEC2FF0E0EE0F65
:101B2000FF1FE852FF4FA591B4918FB7F8941111A0
:101B300005C09C91ED2FE095E92302C0EC91ED2BBF
:101B4000EC938FBFDF91CF911F910895CF93DF93D7
:101B500090E0FC01EB5FFE4F2491FC01EA51FF4F46
:101B60008491882361F190E0880F991FFC01EC5D5E
:101B7000FE4FC591D491FC01E852FF4FA591B4915D
:101B8000611109C09FB7F8948881209582238883CA
:101B9000EC912E230BC0623061F49FB7F89438812A
:101BA000822F809583238883EC912E2B2C939FBFCB
:101BB00006C08FB7F894E8812E2B28838FBFDF9162
:101BC000CF9108958F929F92AF92BF92CF92DF9262
:101BD000EF92FF926B017C010E9405064B015C01B4
:101BE000C114D104E104F104F1F00E940506DC0106
:101BF000CB0188199909AA09BB09883E9340A10520
:101C0000B10570F321E0C21AD108E108F10888EEAD
:101C1000880E83E0981EA11CB11CC114D104E104FC
:101C2000F10419F7DDCFFF90EF90DF90CF90BF90D8
:101C3000AF909F908F9008958F929F92AF92BF9296
:101C4000CF92DF92EF92FF920F931F93CF93DF9388
:101C50005C016B018A0180910B01882309F45EC04D
:101C600080915402882309F459C08091F20180FFC9
:101C700005C08091E00082608093E000E8018AEF77
:101C8000F82E93E0E92E2FE3822E3AE3932E20974D
:101C900009F43DC08FB7F894E092E9009091E80014
:101CA00095FF06C09091F200282D291B922F01C0AC
:101CB00090E08FBF91110AC0FA94FF2079F161E0A2
:101CC00070E080E090E00E94E20DE1CF292F30E04B
:101CD000C217D3070CF49C2F8FB7F894E092E90059
:101CE0002091E80025FF11C0292F30E0C21BD30B43
:101CF000F601915020F041914093F100FACFC20ECD
:101D0000D31E9091E80095FF13C08FBFC0CF5D98A0
:101D100084E6809352021016110644F081E090E0B0
:101D2000F5019383828380E090E005C0C80103C081
:101D30009092E800EACFDF91CF911F910F91FF9031
:101D4000EF90DF90CF90BF90AF909F908F900895CD
:101D5000EF920F931F93FC0185EE80838FE08183C8
:101D600085E08283613029F489E483838BE4848372
:101D700002C0638314828FE1858316825087478374
:101D80003287218714870387E586DF011796AF0125
:101D9000425F5F4F91E08C9187FF05C02681292B20
:101DA00026838F778C93990F1196A417B50799F70F
:101DB0001F910F91EF900895CF93DF93FC0149E1BC
:101DC0008EE261E070E0A3E051E090819076903681
:101DD00011F4918105C09081907692959F709E5FDD
:101DE00090936302909163029150109262022FEFE0
:101DF00030916202391768F430916202EF01C30F2B
:101E0000D11D38812327309162023F5F30936202F7
:101E1000EFCFEF01C90FD11D2883F8949091610293
:101E2000913059F490916002981738F01092610245
:101E300090916F009D7F90936F00789490916102D4
:101E4000913039F490916002943108F4BECF50E0A3
:101E5000BCCF90916102911163C0F89490916F0092
:101E60009F7D90936F00B59B07C090916F0090622B
:101E700090936F00789454C0C0915E02D0915F023D
:101E800098819B0100905D0202C0220F331F0A94CB
:101E9000E2F7292B288320918400309185002A5A6B
:101EA0003C4F30935C0220935B0220915B023091A7
:101EB0005C0230938900209388007894F0935A0252
:101EC000E09359021092620210925802908190930E
:101ED0005702A093610210926002B19A90916F0034
:101EE000926090936F00909161029330E1F3909132
:101EF0005802992371F0E0915502F0915602E7578C
:101F0000FF4F8081918101969183808383E090E0EF
:101F100022C090916102923031F025E030E005C09E
:101F200022E030E002C024E030E02230310511F43C
:101F300051114ACF8B3108F08150415009F044CF04
:101F40008091EF029091F00201969093F0028093BD
:101F5000EF0286E090E0DF91CF910895CF93DF9379
:101F6000CDB7DEB760970FB6F894DEBF0FBECDBF1A
:101F7000AC0141505109852F8F709A0136952795F4
:101F80002F7740FD02C0806401C0806661118061CE
:101F900092EB99832A838B83CE0101960E94DC0EFB
:101FA00060960FB6F894DEBF0FBECDBFDF91CF9124
:101FB0000895FC0180915402811103C08FEF9FEFBF
:101FC00008959FB7F89482E08093E9002091F20091
:101FD00030E01216130614F421E030E0211531052B
:101FE00059F0289884E6809353028091F100808311
:101FF0008091F200882319F09FBFC90108958BE6F4
:102000008093E800F9CF80914F0381110DC082E0E9
:1020100080934B0384E080934C0310924E03109204
:102020004D0381E080934F038BE493E00895CF93B9
:10203000DF93CDB7DEB768970FB6F894DEBF0FBE5B
:10204000CDBF789484B5826084BD84B5816084BD41
:1020500085B5826085BD85B5816085BD80916E0046
:10206000816080936E001092810080918100826077
:1020700080938100809181008160809381008091B4
:1020800080008160809380008091910082608093C5
:1020900091008091910081608093910080919000E7
:1020A0008160809390008091C10084608093C10022
:1020B0008091C10082608093C1008091C1008160E5
:1020C0008093C1008091C30081608093C3008091A0
:1020D000C00082608093C0008091C20081608093C4
:1020E000C20080917A00846080937A0080917A00A7
:1020F000826080937A0080917A00816080937A0078
:1021000080917A00806880937A0010925402109235
:10211000F3011092F2018091D70081608093D70083
:1021200080EA8093D80089B5806189BD89B58260D5
:1021300089BD09B400FEFDCF61E070E080E090E071
:102140000E94E20D8091D8008F7C80618093D8003E
:102150008091E000807F8093E0008091E1008E7E9E
:102160008093E1008DE08093E200559A209AEEEF93
:10217000FFE7859194918B3F9C4D19F481E080930A
:10218000F1018FE8E4E6F2E0DF011D928A95E9F7BC
:1021900061E085E00E94A60DEAE0F1E02491EBEE1B
:1021A000F0E0E491F0E0EE0FFF1FE852FF4F4591A1
:1021B000549180E091E031E0291741F08F5F932F37
:1021C000082E01C0990F0A94EAF7F6CF50935F02E8
:1021D00040935E0280935D0284E692E09093560203
:1021E000809355025498E0915E02F0915F02208145
:1021F00081E090E000905D0202C0880F991F0A9470
:10220000E2F78095822380831092800081E08093A2
:10221000810010926102B59A80916F008062809374
:102220006F0080918100887F81608093810085E0CC
:1022300090E00E944E1780934B02F12C18E6412E3D
:1022400011E0512E80914B02F81608F0A5C16F2CB9
:10225000712CC301885F9F4F0E944E17282FB4E155
:10226000B69D8001B79D100D1124C801815E9F4F5E
:10227000288F0E945617E82EC8018F5D9F4F0E943D
:1022800056174C015301AA0CBB1C288D233009F4AE
:102290000DC138F4213009F4E3C0223009F446C0FE
:1022A0005BC1243009F432C1253609F055C1C8019B
:1022B0008D5D9F4F0E945617D82E8EE090E00E94B1
:1022C00021168C01DC011596FC9215971296EC9262
:1022D000129714969C928E9213974D925C9261E0A5
:1022E0008E2D0E94A60DF801168260E0C8010E94A2
:1022F0005F028D2D8170D80117968C9317971896D1
:102300001C921897E2E8F1E01196FC93EE9324E416
:1023100033E01A963C932E93199788EE93E01C961F
:102320009C938E931B971D96EC92EAC0C8018D5D1D
:102330009F4F0E9456171C01C8018B5D9F4F0E9442
:102340005617BC01C801895D9F4F6E8B7F8B0E9421
:1023500056179C01C801835D9F4F288F3D8B0E94BB
:102360005617AC01C801815D9F4F4B8B5C8B0E945F
:1023700056179A8B898BC8018F5C9F4F0E94561706
:10238000182F8EE190E00E9421166C01FC01F5826D
:10239000E282948283828AE191E0918380838091BA
:1023A0001802288D3D894B895C896E897F898C3024
:1023B00098F491E0980F90931802828B90E0FC01C2
:1023C000EE0FFF1F8E0F9F1FFC01EC50FE4FA8EB7E
:1023D000BBE0B283A18303C08FEFF601828BD601ED
:1023E00019963C922E92189717967C936E93169797
:1023F0001B963C932E931A971C961C931C975696EB
:102400003C922E92559758963C922E9257971E9634
:102410005C934E931D9729893A8950963C932E934D
:102420001F975A961C921E9259975B961C925B9727
:102430005D961C921E925C97F501E75EFD4FD1827E
:10244000C08234E1369DC001379D900D1124855D19
:102450009F4F0E945617BC01C6010E947E018EC08C
:1024600088E090E00E9421168C01DC011596FC9218
:1024700015971296EC92129714969C928E9213973F
:10248000E4E3F1E01196FC93EE93FFE0FE1518F4FF
:102490002FE012962C9362E0D80112968C910E9444
:1024A000A60DF801168281E087832AC0C8018D5DE0
:1024B0009F4F0E945617D82E89E090E00E94211667
:1024C0008C01DC011596FC9215971296EC921297EE
:1024D00014969C928E9213974D925C9261E08E2D91
:1024E0000E94A60DF801168260E0C8010E945F02FA
:1024F0008D2D8170D80117968C93179718961C9282
:10250000F501E75EFD4F1183008338C0C8018D5D82
:102510009F4F0E945617C82EC8018B5D9F4F0E9487
:102520005617D82EC801895D9F4F0E9456178C01FF
:1025300083E190E00E942116FC01F582E282948200
:1025400083822EE431E031832083C782D0861287D4
:102550000187108A17860DC086E090E00E94211640
:10256000FC01ACE9B1E0B183A083F582E282948200
:102570008382D501A75EBD4FED93FC93F501E75E25
:10258000FD4F80819181DC01ED91FC910480F5810A
:10259000E02D0995F39456CE809144039091450324
:1025A000892BA1F061E0809148030E94A60D61E0B3
:1025B000809149030E94A60D61E080914A030E9428
:1025C000A60D60E080914A030E94760D70E0A72E70
:1025D00070E0B72EE0E08E2EE0E09E2EF0E06F2E51
:1025E000F0E07F2EFF24FA9451E1252E57E2352E9C
:1025F00060E0462E60E0562E10924C0210E0809172
:102600004B02181708F04AC0E12FF0E0EE0FFF1F51
:10261000E75EFD4F80819181DC01ED91FC910088A6
:10262000F189E02D09951F5FEACFE82FF0E0EC5922
:10263000FD4F108117FF3BC09091E602981751F0B3
:102640002091EB023091EC022F5F3F4F3093EC0270
:102650002093EB028093E602F092E702812F8076CE
:10266000803619F182958F708E5F8093E802811118
:1026700066C18091E5028F5F8093E502C090E6021B
:10268000282F2C1987FD1092E5029091E802809185
:10269000E702291799F018271093E7028091E502C5
:1026A0009091E4028913C1CF2FC080E0DECF8091EA
:1026B000E8028111DECF1093E80241C1811310C0FE
:1026C0002C2D30E0A9014C595D4F2091E902309149
:1026D000EA022F5F3F4F3093EA022093E9020CC0D9
:1026E0002091EB023091EC022F5F3F4F3093EC02D0
:1026F0002093EB0240E050E09091E5029093E602D7
:102700004115510541F203C0C12CD12C01C06A0111
:10271000D0924A02C0924902C114D10409F407C1FF
:10272000F60121816281962F9F7030E8939FF0011E
:102730001124E22BD6013C91323BE1F03196313B42
:1027400009F442C040F4333841F1303BB1F1323842
:1027500009F0C9C029C03C3B09F44EC020F4343B09
:1027600009F4E5C0C0C03D3B09F4E1C0303D09F4C7
:102770004EC0B9C065FD03C081E090E002C082E0B8
:1027800090E0A114B10409F4D2C0EE0FFF1F6071F4
:102790008E0F9F1F0E940000CAC080E090E0892B2E
:1027A00009F4C5C081E006C080E090E0892B09F4FF
:1027B000BEC080E00E940000BAC0462F4072607127
:1027C000CF010E94C204B3C066FF0BC06114710444
:1027D00009F4ADC0462F40726071CF010E94000025
:1027E000A6C08114910409F4A2C0462F4071607202
:1027F000CF010E9400009BC04114510409F497C00E
:10280000462F40726071CF010E94000090C0822F5D
:102810008076803221F1803619F0811188C01FC086
:1028200080E090E0892B09F482C0F601E3808E2DD0
:10283000807D803109F07BC0D48011E001E041E06F
:10284000802F8E2109F040E0202F2D21000F612FD5
:1028500080E80E9400001F5F153089F768C040E0E3
:1028600050E0452B09F463C0E22FEF7130E8E39F9D
:10287000F0011124E60FF11D25FB222720F93196E6
:10288000D60113968C91139714964C9150E08D3786
:1028900029F0B0E88B9F400D511D1124992381F040
:1028A000923081F0943081F0963081F0983081F050
:1028B0009A3081F09C3081F09E3081F0692F0FC0FA
:1028C00061E40DC062E40BC063E409C064E407C0C6
:1028D00065E405C066E403C067E401C068E4CF01B5
:1028E0000E94000024C0353E09F036C1E091F40298
:1028F000F091F5020280F381E02D48E150E069ECAF
:1029000071E084EF92E00995E091F402F091F50214
:102910000280F381E02D42E050E062EE71E084EF4E
:1029200092E00995F60181818F3009F451C080E071
:1029300090E0892B09F460CE0E94000053CE2091D4
:10294000E6028091E80290E0820F911D81389105A6
:102950000CF48FCE30E8C32EC21AF8944091E402F2
:102960008091E502841730F48091E602B42FB81B01
:102970008B2F02C08C2D840F8093E4027894809179
:10298000E502481780F4D12C50E064E672E0C601FD
:102990008C599D4F0E9406166091E60270E06C59BA
:1029A0007D4FA60107C06091E602461B50E070E033
:1029B0006C597D4F84E692E00E9406168091E502F4
:1029C0009091E602891B8093E5021092E60251CEB7
:1029D0008381853009F0ABCF84818111A8CF6681D6
:1029E0003796C6010E9621E05E2F4F2F322F3623E9
:1029F00019F0308130683083220F3196E817F907DB
:102A0000A9F7D60116961C92169715962C91159734
:102A1000203209F484C0213209F089CF17968D91B4
:102A20009C9118978F3FBFEF9B07F9F4F601218522
:102A30003285232BD1F4238534852F3F3F4FA9F4D2
:102A400080E090E00E944E17082F10E0D6011C96FF
:102A50001C930E931B9718963C922E921797E12C7D
:102A600020E030E041E157E21EC0F601258521114A
:102A700021C043855485618572859601255F3F4F4E
:102A80000E9464058F3709F059C0D6011B960D913D
:102A90001C911C9719962D913C911A9717964D9160
:102AA0005C911897E12C12966C91CE0101960E94D0
:102AB000A80E4DC027FF28C026FD26C0B601655FC1
:102AC0007F4F852F942F0E9499048F37E9F4D60108
:102AD0001B960D911C911C9717964D915C91189720
:102AE00080E8E82E20E030E012966C91CE0101964D
:102AF0000E94A80E6AE070E080E090E00E94E20D83
:102B0000CE0101960E94DC0EF601858586FF0FCF6F
:102B100063857485878190850E94800408CFD601E3
:102B20001B964D915C911C9719966D917C911A970B
:102B300017968D919C9118970E94120587FDF7CEEC
:102B4000F60190819F7724EB29839A838B83CE01B2
:102B500001960E94DC0EEBCE3D3E09F4C7CEE7CED7
:102B6000CF93DF93E4EFF2E01382128288EE93E0DA
:102B7000A0E0B0E084839583A683B7838DEB91E0DA
:102B8000918380838FEF9FEF95878487C4E4D3E0A0
:102B900081E090E09B838A8380E18C838AE08D834F
:102BA0008EE08E8380E390E00E94211699838883D3
:102BB00020E3FC0111922A95E9F7DF91CF91089566
:102BC000991B79E004C0991F961708F0961B881F7F
:102BD0007A95C9F780950895AA1BBB1B51E107C0E0
:102BE000AA1FBB1FA617B70710F0A61BB70B881F9D
:102BF000991F5A95A9F780959095BC01CD0108952C
:102C0000EE0FFF1F0590F491E02D099468177907E6
:102C100068F4FB01DC01E40FF51FA40FB51F02C02F
:102C200002900E9241505040D8F708950C94181617
:102C3000FB01DC0102C001900D9241505040D8F7D9
:102C40000895CF93DF938230910510F482E090E0F5
:102C5000E0915903F0915A0320E030E0C0E0D0E069
:102C6000309711F14081518148175907C0F048173A
:102C7000590761F482819381209719F09B838A839D
:102C80002BC090935A038093590326C02115310518
:102C900019F04217530718F49A01BE01DF01EF0142
:102CA0000280F381E02DDCCF2115310509F1281BCD
:102CB000390B2430310590F412968D919C91139725
:102CC0006115710521F0FB019383828304C0909309
:102CD0005A0380935903FD01329644C0FD01E20F6F
:102CE000F31F81939193225031092D933C933AC065
:102CF0002091570330915803232B41F420910E016A
:102D000030910F01309358032093570320910C0109
:102D100030910D012115310541F42DB73EB7409199
:102D2000100150911101241B350BE0915703F091D4
:102D30005803E217F307A0F42E1B3F0B281739079F
:102D400078F0AC014E5F5F4F2417350748F04E0F07
:102D50005F1F50935803409357038193919302C090
:102D6000E0E0F0E0CF01DF91CF9108950F931F9342
:102D7000CF93DF93009709F48CC0FC013297138244
:102D800012820091590310915A030115110581F423
:102D900020813181820F931F209157033091580376
:102DA0002817390779F5F0935803E093570371C05A
:102DB000D80140E050E0AE17BF0750F412962D91B5
:102DC0003C911397AD012115310509F1D901F3CFDC
:102DD0009D01DA013383228360817181860F971F01
:102DE0008217930769F4EC0128813981260F371F78
:102DF0002E5F3F4F318320838A819B81938382831F
:102E0000452B29F4F0935A03E093590342C01396DB
:102E1000FC93EE931297ED01499159919E01240F75
:102E2000351FE217F30771F480819181840F951F9C
:102E3000029611969C938E938281938113969C9314
:102E40008E931297E0E0F0E0D80112968D919C915C
:102E50001397009719F0F8018C01F6CF8D919C9192
:102E600098012E5F3F4F820F931F2091570330919F
:102E700058032817390769F4309729F410925A0338
:102E80001092590302C013821282109358030093C8
:102E90005703DF91CF911F910F910895F999FECFBC
:102EA00092BD81BDF89A992780B50895A8E1B0E058
:102EB00042E050E00C947117262FF999FECF1FBA0B
:102EC00092BD81BD20BD0FB6F894FA9AF99A0FBE53
:102ED000019608950E945C17272F0C945D17DC0162
:102EE000CB01FC01F999FECF06C0F2BDE1BDF89A15
:102EF000319600B40D9241505040B8F70895F894BF
:022F0000FFCF01
:102F0200FFFFFFFF00E100000000000000005B0384
:102F120080000100000000000000340843089B010B
:102F22009C01FE03510250029A011D037E0196018B
:102F32000000000032085502B1015302A9015102FA
:102F420050024F022C044C024902000000003308D8
:102F52005702460135010802510250024F02CB01CD
:102F62004C024902000000004E085B027D0147014D
:102F720054015F0250024F027B014C0249020000E1
:102F820000004D085902B201470154016302500288
:102F92004F027B014C0249020000000010095D0251
:102FA200540253025202510250024F024D024C028D
:102FB200490200C1808100000000000000DB091C02
:102FC2000EFC09480A660AF109506F737369626C54
:102FD200792061204C4E4356206D6573736167659D
:062FE2002E000D0A0000A4
:00000001FF
