:100000000C9404010C942C010C942C010C942C01E4
:100010000C942C010C942C010C942C010C942C01AC
:100020000C942C010C942C010C9408160C9477164B
:100030000C942C010C942C010C942C010C942C018C
:100040000C942E1A0C94A9180C942C010C942C01CD
:100050000C942C010C942C010C942C010C94BE15C6
:100060000C942C010C942C010C942C010C942C015C
:100070000C942C010C942C010C942C010C942C014C
:100080000C942C010C942C010C942C010C942C013C
:100090000C949F140C942C010C942C010C942C01A6
:1000A0000C942C010C942C010C942C01437572724D
:1000B000656E74205F73756261646472657373004A
:1000C0004D756C7469506F72742040206261736565
:1000D000616464726573732000080B000202020001
:1000E00000090400000102020000052400100105BF
:1000F00024010101042402060524060001070581EC
:100100000310004009040100020A00000007050274
:1001100002400000070583024000000403090412A6
:10012000010002EF02014041233680000101020379
:100130000141726475696E6F204C4C4300417264DA
:1001400075696E6F204C656F6E6172646F00506FE1
:1001500077657220766F6C7461676520696E206DBB
:10016000563A20003A2000577269746520435620A1
:100170000000000000240027002A002D00300000AD
:10018000000000250028002B002E00310000000098
:100190000200090F0000030401000C000000000031
:1001A0000000000000000000000000000706050439
:1001B0000100080A0B0C0D090000000023002600B6
:1001C00029002C002F000404040404030405020287
:1001D00002020403020202020606060606060404E0
:1001E0000202020404040802011040804010204072
:1001F000804080080204018040201002011080101D
:1002000020404020601A8C2211241FBECFEFDAE07C
:10021000DEBFCDBF12E0A0E0B1E0ECE5FDE402C03E
:1002200005900D92A435B107D9F724E0A4E5B2E01A
:1002300001C01D92A639B207E1F711E0C3E0D1E099
:1002400004C02197FE010E946D25C230D107C9F775
:100250000E94D91A0C94A1260C940000CF93DF932E
:10026000FC0129E18EE241E050E033E071E0908151
:1002700090769036D1F4918190938403A091840379
:10028000A150109283039FEF609183036A1790F44B
:10029000C0918303CE0FDF2FD11D68819627609117
:1002A00083036F5F60938303EFCF90819295967085
:1002B0009E5FE2CFAE0FBF2FB11D9C93F89490913B
:1002C0008203913059F490918103981738F010927D
:1002D000820390916F009D7F90936F00789490912E
:1002E0008203913039F490918103943108F4BFCFA7
:1002F00070E0BDCF9091820391110EC0F89490915F
:100300006F009F7D90936F00B59B09C090916F0027
:10031000906290936F0078947111A9CF51C0A09111
:100320007F03B09180039C9160917E03EA0102C03B
:10033000CC0FDD1F6A95E2F79C2B9C9360918400A3
:10034000709185006A5A7C4F70937D0360937C03A3
:1003500060917C0370917D037093890060938800A5
:100360007894F0937B03E0937A03109283031092C6
:1003700079039081909378033093820310928103E4
:10038000B19A90916F00926090936F009091820368
:100390009330E1F390917903992381F0E091760312
:1003A000F0917703E757FF4F808191810196918308
:1003B000808383E090E0DF91CF9108959091820354
:1003C0008B3108F08150215009F050CF80911004FA
:1003D000909111040196909311048093100486E08B
:1003E00090E0E9CFCF93DF93CDB7DEB760970FB63C
:1003F000F894DEBF0FBECDBFAC0141505109852F2F
:100400008F709A01369527952F7740FD14C0806430
:100410006111806192EB99832A838B83CE010196CF
:100420000E942E0160960FB6F894DEBF0FBECDBFBE
:10043000DF91CF9108958066EBCF80917004E091B9
:100440007104F0917204F8949181982B9183228128
:10045000382F309523232283A7E0B0E01197F1F7DE
:10046000918193239183A3E2B0E01197F1F79081FA
:100470007894EFECF0E03197F1F7982381E009F4FC
:1004800080E0089590917004E0917104F0917204FD
:10049000292F209580FF14C0F894828182238283C3
:1004A0008181892B8183A3E2B0E01197F1F78281EA
:1004B000982B9283789487ED90E00197F1F7089557
:1004C000F8948281822382838181892B8183AFEF9B
:1004D000B0E01197F1F78281982B928378948FE0A6
:1004E00090E0EBCFFF920F931F93CF93DF93F82E03
:1004F000062FC8E0D0E011E081E09F2D912309F4A0
:1005000080E00E944202110F2197B1F7011113C040
:10051000F894E0917104F0917204918180917004DB
:10052000809598239183E0917104F09172049281F7
:10053000892382837894DF91CF911F910F91FF904F
:100540000895CF93DF9360E085E50E947202CEE6C6
:10055000D3E060E089910E94720283E0C637D80739
:10056000C1F7DF91CF91089580917004E0917104FB
:10057000F0917204F8949181282F20959223918311
:1005800078943DE743E050E0315029F1DA011197CA
:10059000F1F790819823C1F3F8949281922392838A
:1005A0009181982B91837894ABE7B7E01197F1F79D
:1005B000F894918192239183A3E1B1E01197F1F72F
:1005C0009081982381E009F080E07894E3E6F6E0FA
:1005D0003197F1F7089580E00895EEEAF1E0E491B3
:1005E00090917B008E2F880F880F80729F7D892BC2
:1005F00080937B00E770E064E0937C0080917A0058
:10060000806480937A0080917A0086FDFCCF80918F
:100610007800909179000895EF920F931F93CF93F4
:10062000DF93FC0185EE80838FE0818385E0828308
:10063000613041F589E483838BE484838FE1858392
:100640001682508747833287218714870387E58680
:10065000DF011796AF01425F5F4F91E08D9187FFF9
:1006600007C02681292B2683ED0121978F77888368
:10067000990FA417B50791F7DF91CF911F910F91B3
:10068000EF90089563831482D9CFFC0180916D03AC
:10069000882311F13FB7F89482E08093E90020911C
:1006A000F200822F90E01816190614F481E090E011
:1006B000882339F0289844E640936C034091F10078
:1006C0004083222339F02091F200211103C02BE650
:1006D0002093E8003FBF08958FEF9FEF08952FB755
:1006E000F89483E08093E9009091E800892F80726C
:1006F00095FF04C09091F20080E4891B2FBF0895FC
:100700002091F502260F3327331F21323105ECF4F7
:1007100020914003FC0190E080E0243069F082E009
:100720000895A091F5022191AC014D525D4FA40FA7
:10073000B52FB11D2C930196861798F38091F50281
:10074000680F6093F50280E0089581E008950895B0
:1007500008950895E091470380914603E81730F427
:10076000F0E0E85BFC4F808190E008958FEF9FEF11
:10077000089590914703809146032FEF3FEF98171C
:1007800048F4E92FF0E0E85BFC4F208130E09F5F08
:1007900090934703C90108958091460390914703C0
:1007A000891B990B0895CF92DF92EF92FF920F93DE
:1007B0001F93CF93DF937C01CB018A0120916B03C0
:1007C000222389F0EB016B01C40ED51ECC15DD058B
:1007D00069F06991D701ED91FC910190F081E02DD4
:1007E000C7010995F3CF642F0E948003C801DF91F0
:1007F000CF911F910F91FF90EF90DF90CF900895D0
:10080000CF93DF931F92CDB7DEB7698320916B033F
:100810002223F9F020916803203258F021E030E0E3
:10082000FC013383228390E080E00F90DF91CF9131
:10083000089580916903E82FF0E0EE54FD4F99810F
:1008400090838F5F809369038093680381E090E0D9
:10085000ECCF61E0CE0101960E948003F7CF80913A
:10086000AA0281110DC082E08093A60284E08093E9
:10087000A7021092A9021092A80281E08093AA0216
:1008800086EA92E0089581508F3008F047C0E82F43
:10089000F0E0E35BFB4F0C946D256A046E045C048E
:1008A000620466048E048E048E04710477047B0453
:1008B0007F0485048E048904809180008F77809363
:1008C00080000895809180008F7DF9CF8091800015
:1008D000877FF5CF84B58F7784BD089584B58F7DEC
:1008E000FBCF809190008F77809390000895809146
:1008F00090008F7DF9CF80919000877FF5CF809118
:10090000C0008F778093C00008958091C0008F7DD4
:10091000F9CF8091C200877F8093C20008951F9312
:10092000CF93DF93282F30E0F901E357FE4F8491F6
:10093000F901EB51FE4FD491F901EA53FE4FC491F6
:10094000CC23A9F0162F81110E944304EC2FF0E074
:10095000EE0FFF1FE158FE4FA591B4918FB7F894A9
:10096000EC91111108C0D095DE23DC938FBFDF918D
:10097000CF911F910895DE2BF8CF1092400381E0B4
:1009800080933F0310923A0361E082E00E948F045B
:1009900061E083E00E948F04E9EBF0E080818E7FCC
:1009A000808380818D7F808388E48093B80085E494
:1009B0008093BC000895CF93DF9391E09093D2028F
:1009C0008823B9F0C091B800D091BA008091BC00E2
:1009D0008A7B8093BC0060E082E00E948F0460E02C
:1009E00083E00E948F040E94BD04D093BA00C0939C
:1009F000B800DF91CF910895CF93DF9390E0FC0191
:100A0000EB51FE4F24918A539E4FFC018491882321
:100A1000C9F090E0880F991FFC01EF58FE4FA59197
:100A2000B491FC01E158FE4FC591D49161110DC004
:100A30009FB7F8948C91209582238C9388812823EA
:100A400028839FBFDF91CF910895623051F49FB703
:100A5000F8943C91822F809583238C93E8812E2BF0
:100A6000EFCF8FB7F894EC912E2B2C938FBFEACF5A
:100A70003FB7F8948091A2029091A302A091A402A2
:100A8000B091A50226B5A89B05C02F3F19F001968D
:100A9000A11DB11D3FBFBA2FA92F982F8827BC01D8
:100AA000CD01620F711D811D911D42E0660F771F00
:100AB000881F991F4A95D1F70895CF92DF92EF9240
:100AC000FF920F931F93CF93DF93D091680381E040
:100AD000D13208F09CC0C0916A030E9438056B01B6
:100AE0007C018091400381116CC082E080934003BF
:100AF00081E080933F038FEF80933E0310923D038C
:100B0000D0933C03A2EBB2E0EAE1F3E080E0D8133B
:100B10008DC010923B0380913B03CC0FC82BC09338
:100B20003B0380913A03813009F084C010923A036C
:100B30000E9438056B017C0180913B038093BB00D0
:100B40008091420390914303A0914403B0914503E7
:100B5000892B8A2B8B2BA1F00E9438050091420330
:100B60001091430320914403309145036C197D0992
:100B70008E099F09061717072807390708F442C08E
:100B80008091BC0083FDD8CF85EC8093BC000E948F
:100B900038056B017C0180914003823009F44CC020
:100BA00080913E038F3F09F469C080913E038032FB
:100BB00009F466C080913E03803309F463C084E089
:100BC00026C08091420390914303A0914403B091C9
:100BD0004503892B8A2B8B2B09F483CF0E94380580
:100BE0000091420310914303209144033091450347
:100BF0006C197D098E099F09061717072807390701
:100C000008F06FCF809141030E94DB0485E01092D1
:100C100069031092680310926B03DF91CF911F91CB
:100C20000F91FF90EF90DF90CF9008959D91919359
:100C30008F5F6DCF85EEA9CF8091420390914303E2
:100C4000A0914403B0914503892B8A2B8B2B09F487
:100C5000A2CF0E94380500914203109143032091D6
:100C60004403309145036C197D098E099F090617CD
:100C700017072807390708F08ECFC4CF80E0C7CF09
:100C800082E0C5CF83E0C3CF1F93CF93DF93162FAE
:100C9000CBE8D4E0A981BA81988121E020936B034D
:100CA00090936A031092690310926803ED91FC918E
:100CB00011970190F081E02D682FCD010995898170
:100CC0009A81DC01ED91FC910190F081E02D612F82
:100CD000099589819A81DF91CF911F910C945D05CF
:100CE0008F929F92AF92BF92CF92DF92EF92FF923C
:100CF0004B015C010E9438056B017C010E943805A4
:100D00006C197D098E099F09683E73408105910524
:100D1000A8F321E0821A9108A108B10888EEC80E54
:100D200083E0D81EE11CF11C81149104A104B104DC
:100D300029F7FF90EF90DF90CF90BF90AF909F90FA
:100D40008F9008952FB7F89460919E0270919F0242
:100D50008091A0029091A1022FBF0895409160025E
:100D60005091610220915E0230915F024217530759
:100D7000B4F49091E8009570E1F39091E80092FD51
:100D800019C08093F10080916002909161020196F8
:100D90008F739927892B19F48EEF8093E800809147
:100DA00060029091610201969093610280936002CB
:100DB00081E0089580E00895EF92FF920F931F93D2
:100DC000CF93DF93F82E192FE62E042F81E0860FA4
:100DD000880F0E94AE0683E00E94AE06CF2DD12F71
:100DE000EC0EFD2EF11CCE15DF05B9F007FF13C088
:100DF000FE0184910E94AE06182F80E00E94AE068C
:100E0000812321968111EFCFDF91CF911F910F9117
:100E1000FF90EF9008958881EDCF81E0F5CFDF92CC
:100E2000EF92FF920F931F93CF93DF93D82E8A01F7
:100E3000EB017B01E40EF51ECE15DF0559F0D7FE60
:100E400012C0FE0184910E94AE0621968111F4CF5A
:100E50000FEF1FEFC801DF91CF911F910F91FF900E
:100E6000EF90DF9008958881EECF0F931F93CF937B
:100E7000DF931F92CDB7DEB782E0898342E450E072
:100E800069ED70E080E80E940F070E942F04DC01EA
:100E900012960D911C910115110589F0D801ED9163
:100EA000FC910280F381E02DBE016F5F7F4FC8018E
:100EB000099597FD04C0F80100851185ECCF898163
:100EC0000F90DF91CF911F910F910895615030F0F5
:100ED0002091F100FC0120830196F8CF289884E648
:100EE00080936C03089590E080E008958F929F9224
:100EF000AF92BF92CF92DF92EF92FF920F931F9328
:100F0000CF93DF936C017B018A0180910B018823D1
:100F100009F45CC080916D03882309F457C0809167
:100F2000640280FF05C08091E00082608093E00051
:100F3000E801B12C8AEFA82E93E0892E2AE3922EA5
:100F4000209711F4BB20D9F10E946F0381110AC0D0
:100F5000AA94AA20D9F161E070E080E090E00E94BC
:100F60007006EECF8C171D0611F00CF08C2F9FB77A
:100F7000F8948092E9002091E80025FD02C09FBF0F
:100F8000DFCF282F30E0C21BD30BF701815020F0B8
:100F900041914093F100FACFE20EF31EBB2021F005
:100FA0009092E800B12CEBCF8091E80085FDE7CF6F
:100FB0009092E800BB24B394209709F3F3CF5D9897
:100FC00084E680936302101611063CF081E090E005
:100FD000F6019383828310E000E0C801DF91CF9196
:100FE0001F910F91FF90EF90DF90CF90BF90AF9047
:100FF0009F908F900895CF93DF931F92CDB7DEB768
:101000006983DC01ED91FC910280F381E02D41E0E8
:1010100050E0BE016F5F7F4F09950F90DF91CF9138
:1010200008950F931F93CF93DF938C01D0E0C0E01E
:10103000F801EC0FFD1F6491662341F084E194E018
:101040000E94FB07892B11F02196F2CFCE01DF9190
:10105000CF911F910F91089583E08093E9008091D3
:10106000F200882319F08AE38093E80008950E9433
:101070006F0390E00895CF93DF931F92CDB7DEB753
:10108000FC018485958597FD08C02FEF3FEF3587DC
:1010900024870F90DF91CF910895CE0101960E9491
:1010A0004503019719F4898190E0F3CF8FEF9FEF0B
:1010B000F0CF0F931F93CF93DF931F92CDB7DEB77F
:1010C0008C01FC018485958597FF0BC0CE010196AC
:1010D0000E944503019771F4898190E0F80195879A
:1010E0008487F801848595850F90DF91CF911F91BA
:1010F0000F9108958FEF9FEFF1CF0F931F930E94F1
:10110000A20660931C0470931D0480931E049093A8
:101110001F0484E194E00E94590897FF1DC00E94BB
:10112000A20600911C0410911D0420911E04309110
:101130001F04601B710B820B930B0091180410911C
:10114000190420911A0430911B046017710782075B
:101150009307F8F28FEF9FEF1F910F910895CF92B1
:10116000DF92EF92FF92CF930E947D08FC0197FDE2
:101170004EC08D32910521F0C0970A9708F040C00B
:10118000C12CD12C7601C0E0E130F105D1F0ED3277
:10119000F105D9F1CF01C0970A9798F4AAE0B0E021
:1011A000A70196010E941D256F01FF0FEE08FF08A1
:1011B000C60ED71EE81EF91E80E3C81AD108E10842
:1011C000F10884E194E00E943B080E947D08FC0144
:1011D000C0970A97C8F2E130F105B1F2CC2341F093
:1011E000F094E094D094C094C11CD11CE11CF11C7B
:1011F000C701B601CF91FF90EF90DF90CF90089597
:1012000084E194E00E943B08AFCFC1E0DACFC12C6B
:10121000D12C7601EDCFFC018485958597FD0BC01F
:101220009FB7F89482E08093E9008091F2009FBF1D
:1012300090E0019608959FB7F89482E08093E900CA
:101240008091F2009FBF90E008958032910510F4E4
:1012500001970895880F991F81970895089508951B
:1012600008950895FC01878190E00895FC01238191
:1012700034816217730750F0A901485F5F4F64170C
:10128000750720F4621B608781E0089580E008956F
:1012900061E0DC011F962D913C91232B09F060E069
:1012A000DC01ED91FC910284F385E02D41E009948D
:1012B000DC0116966C91169721E06227ED91FC9166
:1012C0000284F385E02D41E00994FC012085211181
:1012D000622FFC0182810C948F04DC0117969C9193
:1012E0001797992399F019968C9119974423B9F07F
:1012F0008F5F19968C93199719968C911997492F8E
:10130000181624F019961C92199740E0ED91FC9163
:1013100011970484F585E02D642FCD010994815047
:10132000E8CF80E008950895FC0181E06115710522
:1013300009F480E0818B672B69F086819781958B1A
:10134000848B84899589938B828B178A168A128E57
:10135000118E089580859185F2CFFC01818990E0FE
:101360000895DC0151966C91519721E06227ED912F
:10137000FC910284F385E02D40E00994DC016230A9
:101380007105C1F038F46115710559F061307105CE
:1013900059F0089563307105E9F06430710549F141
:1013A000089512964C93089513964C9313971496A0
:1013B0005C93089518964C93189719965C93199717
:1013C000ED91FC9111970284F385E02D40E060E0FF
:1013D000CD01099416964C93169717965C93179720
:1013E000ED91FC9111970284F385E02D40E061E0DE
:1013F000EFCF1A964C931A971B965C930895089515
:10140000FC01662319F091E09427978346830895A1
:101410000F931F93CF93DF93EC012A81222309F1CD
:1014200030E0F901E357FE4F8491F901EB51FE4F93
:101430000491F901EA53FE4F1491112379F08111BF
:101440000E944304E12FF0E0EE0FFF1FE854FE4F2F
:10145000A591B491EC910E2381E009F480E08170B4
:101460008E836E818F81681781F08B819C810E94B1
:10147000F2018A85882339F06E8181E068278885AA
:1014800099850E94F2018E818F838B85DF91CF91A8
:101490001F910F9108950895CF93DF93EC0162306F
:1014A0007105C1F048F46115710579F0613071057D
:1014B00071F0DF91CF9108956330710529F16430A7
:1014C0007105B9F75B874A87F4CF4A83F2CF5C8313
:1014D0004B83EFCFBA0190E080E00E94CD232FE351
:1014E00035E342E850E40E94E0250E9452267987C5
:1014F0006887E881F9810284F385E02D40E060E0AF
:10150000CE01DF91CF910994BA0190E080E00E9472
:10151000CD232FE335E342E850E40E94E0250E940A
:1015200052267F836E83E881F9810284F385E02D62
:1015300040E061E0E5CFDC01ED91FC910190F081AC
:10154000E02D09940F931F93CF93DF938B01EC0150
:1015500069817A816115710551F0CE01F801099513
:101560001816190624F00980DA81C02DF1CFCE01BA
:10157000DF91CF911F910F9108954F925F926F92DB
:101580007F928F929F92AF92BF92CF92DF92EF9213
:10159000FF920F931F93CF93DF93FC01228133813E
:1015A00022303105F4F05B016C012C01F4E04F0EA8
:1015B000511C7201F701C081D1812097D1F3B5018F
:1015C000CE010E94A20A4C01FC0101811281011589
:1015D0001105C1F4E414F50461F7F60197838683DD
:1015E0001486DF91CF911F910F91FF90EF90DF90C4
:1015F000CF90BF90AF909F908F907F906F905F90B3
:101600004F900895B501C8010E94A20AFC016180B3
:101610007280F40112821182FC0112821182B801DF
:10162000CE01F5010995F701181619066CF0D18362
:10163000C0837E01FFEFEF1AFF0A89819A8100972C
:1016400081F41A8309831CC0118300837801FFEFA2
:10165000EF1AFF0AF801818192810097D1F08C0185
:10166000CE01EC01DCCFEC0189819A810097D9F79A
:101670007A8269827E01FFEFEF1AFF0A9BCF8C010D
:10168000F801818192810097D1F77282618278019D
:10169000F2CFD283C183E8CFCF93DF93EC01E8810F
:1016A000F9810190F081E02DCE01099518161906F7
:1016B00044F4E881F9810684F785E02DCE0109958F
:1016C000EECFDF91CF910895DC011496ED91FC915E
:1016D00015971C968C911C978823B1F01A962D9122
:1016E0003C911B97621773077CF01896ED91FC9163
:1016F0001997261737075CF43097C1F00180F28103
:10170000E02D2F5F3F4FF5CF30E020E0F2CF2617DE
:10171000370771F481E01C968C931C971B963C93C1
:101720002E931A971996FC93EE931897CF0108956C
:10173000F0E0E0E0FBCFCF9377FD0EC0FC0122810B
:1017400033816217730744F4C42F0E94640BFC01B9
:10175000C08381E0CF91089580E0FCCF0E94640BAC
:10176000009719F0FC018081089580E00895FC0144
:101770008281938108950097B1F020916702281724
:10178000190689F080F0880F991FFC01E659FD4F7A
:10179000808191816170DC01ED91FC910284F3857F
:1017A000E02D40E0099408950F931F93CF93DF93AA
:1017B000EC010E94A2060C851D852E853F85601BCD
:1017C000710B820B930B693C71058105910570F0DB
:1017D0008B85882359F089859F8170E060E0890FAF
:1017E0009927991F0E94BB0B1F821B868B85DF9157
:1017F000CF911F910F9108951F93CF93DF93EC0129
:10180000162F0E94A2066C877D878E879F8781E0B6
:101810008B871F83898561E070E0212F280F332794
:10182000331FC901DF91CF911F910C94BB0BCF9354
:10183000DF93EC012885263039F461111AC041117B
:101840001F82DF91CF9108956623D9F38FEF9FEF29
:10185000DC018C879D87AE87BF8781E090E0AC017B
:1018600002C0440F551F2A95E2F78F81842B8F8386
:10187000E8CF442331F32F818985820F9927991F5F
:101880003D8138171906E1F28A852817C8F60E94AB
:10189000A2066C877D878E879F8781E08B878985ED
:1018A0009F8161E070E0890F9927991FDF91CF91A7
:1018B0000C94BB0B0F931F93CF93DF93FC012785F1
:1018C0003089232B59F1EC010E94A2060B851C855F
:1018D0002D853E85AB01BC01401B510B620B730B88
:1018E00089859A85B0E0A0E084179507A607B70719
:1018F00078F48A89882371F08F859889019751F44B
:10190000888561E070E090E00E94BB0B188A1F861A
:1019100081E005C08F8170E060E0F5CF80E0DF916D
:10192000CF911F910F9108950F931F93CF93DF9342
:10193000EC0199899617F9F02F853889232BD9F472
:1019400081E0961708F080E0042F162F8A8B9617F7
:10195000B8F481E090E0988B8F878F8161E070E030
:1019600090E00E94BB0B0111198B0E94A2066B87AD
:101970007C878D879E87DF91CF911F910F9108956E
:1019800081E090E0988B8F87888570E060E0E8CFF9
:10199000009761F0880F991FFC01E659FD4F0190F7
:1019A000F081E02D838194810C94F20108950F93CE
:1019B0001F93CF93DF93EC0188859985892B09F4D8
:1019C0004AC08E859F85A889B989892B8A2B8B2B44
:1019D00009F441C00E94A2060E851F852889398915
:1019E000AB01BC01401B510B620B730B88859985C1
:1019F000B0E0A0E011E084179507A607B707D8F478
:101A00001E861F86188A198A60E08A810E948F04C8
:101A100060E08E810E948F041A898A859B8511114E
:101A200010C061E070E00E94C80C70E060E08C853E
:101A30009D850E94C80C812FDF91CF911F910F913E
:101A4000089570E060E00E94C80C61E070E08C8551
:101A50009D850E94C80C10E0EECF0F931F93CF938B
:101A6000DF93EC01062F142F8A859B852A8921118B
:101A70001BC061E070E00E94C80C70E060E08C85E3
:101A80009D850E94C80C0A8B0E94A2066E877F87E4
:101A9000888B998B612F002371F08A81DF91CF9120
:101AA0001F910F910C948F0470E060E00E94C80CAD
:101AB00061E070E0E4CF8E81F1CFCF93DF93EC0152
:101AC0008D859E85298D3A8D70E060E0213031054D
:101AD00029F0298921110CC061E070E00E94C80C36
:101AE00070E060E08F859889DF91CF910C94C80CED
:101AF00070E060E00E94C80C61E070E0F3CF1F93DB
:101B0000CF93DF93EC01162F662321F18E819F8105
:101B10009D8B8C8B8A859B854C895D892A893B8925
:101B20004217530718F49195819591099F8B8E8BDD
:101B30008C8561E070E090E00E94BB0BCE010E94BA
:101B40005D0D198B81E090E09A8F898FDF91CF91A5
:101B50001F91089588859985DBCFCF92DF92EF9210
:101B6000FF920F931F93CF93DF93EC01C98CDA8C14
:101B700022E0C216D10451F480E0DF91CF911F9191
:101B80000F91FF90EF90DF90CF9008952A893B89C5
:101B90008C899D8928173907F1F0A901481B590B39
:101BA000CA010E891F89A80117FF04C044275527C1
:101BB000401B510B8417950788F482E090E09A8FC0
:101BC000898F8C8570E060E090E00E94BB0BCE01B5
:101BD0000E945D0DD1CF90E080E0E3CF888D8F5FD4
:101BE000888F51E0C516D10409F054C0020F131FAD
:101BF0001B8B0A8BEB8CFC8C6A81D70111968D9123
:101C00009C9112972C9131E030936B0320936A03DF
:101C10001092690310926803B4E06B9FB001112425
:101C20006A5F7F4FDC01ED91FC910190F081E02D26
:101C3000099570E060E0F701818192810E949B0A22
:101C400070E060E0D70111968D919C910E949B0AF3
:101C5000B801F701818192810E949B0A612F70E097
:101C6000D70111968D919C910E949B0AF701818169
:101C700092810E945D058E899F89892B49F42C8968
:101C80003D898A899B892817390711F4DF8ACE8A12
:101C900081E073CFCD2809F06FCF8B3F08F46CCF74
:101CA00081E090E09A8F898F68CF90E080E008957E
:101CB000089580E00895089508950895089521E015
:101CC000FC01838194818617970709F020E0822F19
:101CD000089508958F929F92AF92BF92CF92DF9214
:101CE000EF92FF920F931F93CF936B017C0120E043
:101CF00030E040E85FE30E94C82387FDE1C020E0B8
:101D000030EC4AE555E4C701B6010E948126181659
:101D10003CF4C12C30ECD32E3AE5E32E35E4F32E1F
:101D200060918E0470918F04809190049091910441
:101D30000E94CD234B015C0120E030E040E855E4F7
:101D4000C701B6010E942E249B01AC01C501B4015C
:101D50000E94E02520E030E040E05FE30E9474252F
:101D600020E030E040E85FE30E9473256B017C01D6
:101D700020E030E040E450E40E94C82387FDA7C083
:101D800020E030E04FE753E4C701B6010E9481260E
:101D9000181634F4C12CD12C9FE7E92E93E4F92EC8
:101DA000C701B6010E945226F62E80918C049091B4
:101DB0008D0420918B0431E030936B0320936A03F0
:101DC0001092690310926803DC01ED91FC9101907F
:101DD000F081E02D60E0099580918C0490918D0454
:101DE0000E945D05C0918B040E9438054B015C0187
:101DF00080914003811171C081E080934003809302
:101E00003F039FEF90933E0310923D0310923C03DB
:101E100080933B0380913B03CC0FC82BC0933B03C3
:101E200080913A03813009F0B2C010923A030E94C7
:101E300038054B015C0180913B038093BB0080918E
:101E4000420390914303A0914403B0914503892B31
:101E50008A2B8B2BA1F00E94380500914203109130
:101E600043032091440330914503681979098A0995
:101E70009B09061717072807390708F44FC08091F8
:101E8000BC0083FDD8CF85EC8093BC000E94380550
:101E90004B015C0180914003813009F47AC080914C
:101EA0003D03811198C080913D03EAE1F3E0A8E48D
:101EB000B3E090E09817B9F121912D939F5FFACF8D
:101EC000C12CD12C20E8E22E2FE3F22E29CFC12CF9
:101ED000D12C80E4E82EFE2C63CF809142039091B8
:101EE0004303A0914403B0914503892B8A2B8B2B8C
:101EF00009F47ECF0E9438050091420310914303FC
:101F00002091440330914503681979098A099B0996
:101F1000061717072807390708F06ACF8091410391
:101F20000E94DB0480E01092470380934603809177
:101F30008C0490918D04DC01ED91FC910284F38579
:101F4000E02D0995C82F682F6F76606180E00E94B0
:101F500044066F2D8EEF0E9444066C2F80E00E9495
:101F6000440665E070E080E090E00E9470066C2F0F
:101F7000606A80E0CF911F910F91FF90EF90DF900A
:101F8000CF90BF90AF909F908F900C94440685EEB9
:101F90007BCF8091420390914303A0914403B09181
:101FA0004503892B8A2B8B2B09F474CF0E943805AB
:101FB0000091420310914303209144033091450363
:101FC000681979098A099B0906171707280739072D
:101FD00008F060CFA3CF81E068CF0F931F93CF931A
:101FE000DF938C01EB010E942509805090406C2FFB
:101FF0000032110530F4DF91CF911F910F910C94B5
:10200000FA247D2FDF91CF911F910F910C94082519
:10201000FC0101900020E9F73197AF01481B590BF3
:10202000BC0184E194E00C9476078F929F92AF926A
:10203000BF920F931F93CF93DF93CDB7DEB7A197D6
:102040000FB6F894DEBF0FBECDBF19A2423008F420
:102050004AE08E010F5D1F4F842E912CB12CA12CD4
:10206000A50194010E944B25E62FB901CA01EA306F
:10207000F4F4E05DD801EE938D01232B242B252B66
:1020800079F790E080E0109719F0CD010E940810D8
:10209000A1960FB6F894DEBF0FBECDBFDF91CF91F2
:1020A0001F910F91BF90AF909F908F900895E95C22
:1020B000E1CFCF93DF93BC0190E080E04AE00E9443
:1020C0001510EC0187E392E00E9408108C0F9D1F11
:1020D000DF91CF910895CF93DF93EC0180EC90E0F6
:1020E0000E9411088B819C810E9459108CEA90E01B
:1020F0000E941108688570E090E080E04AE00E944C
:10210000151087E392E0DF91CF910C94081085EDD4
:102110008093BC008091420390914303A0914403BB
:10212000B09145030796A11DB11D23E0B695A79573
:10213000979587952A95D1F72091BC0024FD03C07F
:1021400010924003089540914203509143036091DF
:10215000440370914503452B462B472B69F30097A9
:10216000A105B10541F025E32A95F1F7000001979B
:10217000A109B109E1CF809141030C94DB040F93D5
:102180001F93CF93DF938C01EB0180E090E00E94DE
:10219000EC2490E0F8012081318121313742A1F413
:1021A000288139812817390749F481E080935D023D
:1021B0008FE7DF91CF911F910F9108952F3F3F4FF0
:1021C00019F499838883F4CF10925D028FEFF1CFD9
:1021D000CF93DF9320915D02222379F081319742E2
:1021E00061F4EB0180E090E00E94EC248C171D0666
:1021F00021F410925D020C940000DF91CF910895BC
:102200008F929F92AF92BF92CF92DF92EF92FF9206
:102210000F931F93CF93DF9300D0CDB7DEB74091DC
:102220005D02442309F442C18131974209F03EC165
:1022300089E190E0F90165307105B1F089017B0118
:102240006034F1E07F0710F5CB010E942509805032
:10225000904020E2E216F10420F40E94EC2490E089
:1022600002C00E94F424F801918380838FE70F90CD
:102270000F90DF91CF911F910F91FF90EF90DF9022
:10228000CF90BF90AF909F908F9008956A3FF3E0FA
:102290007F0709F046C00E94B4020E94A10261E0DB
:1022A00084E40E94720268EE73E080E090E00E9495
:1022B00070060E94B4020E94A10260E08EEB0E94B0
:1022C000720274E5E72E72E0F72EEDE58E2EE2E065
:1022D0009E2E68E0A62EB12CD12CCC24C3940E9453
:1022E0001D028111DC28CC0C21E0A21AB108B9F73B
:1022F000F701D1927F018E169F0659F78091540203
:102300009091550220915802207611F4887FABCF2E
:10231000203211F48C7FA7CF203409F0A4CF8E7F18
:10232000A2CF6B3FF3E07F0761F480916E0390E0F2
:10233000982F8827F9019183808320916F03822B46
:1023400093CF6C3FF3E07F0759F48091700390E0E6
:10235000982F8827F9019183808320917103EFCF13
:102360006D3FF3E07F0759F48091720390E0982F5E
:102370008827F8019183808320917303E0CF6E3F1B
:10238000F3E07F0759F48091740390E0982F882739
:10239000F8019183808320917503D1CF8EE699E275
:1023A0006F3FF3E07F0709F45ECF6115F4E07F072C
:1023B00089F48091920490919304009711F486E936
:1023C00094E09E012F5F3F4F281B390BF8013183AA
:1023D00020834CCF80915402909155026130F4E0FB
:1023E0007F0709F440CF8091960490919704623062
:1023F000F4E07F0709F437CF6330F4E07F0719F486
:102400008DB79EB730CFCB0184509440059748F5E7
:1024100080910E0490910F046630F4E07F0709F478
:1024200022CF68F480910C0490910D0465307440C3
:1024300009F419CF80910A0490910B0414CF6730EE
:1024400084E0780749F08091120490911304683079
:10245000744009F408CFEECF8091100490911104DC
:1024600002CF6A30F4E07F07C9F40E94ED02BC019C
:1024700090E080E00E94CD232AE137E64CE950E469
:102480000E942E2420E030E040E551E40E942E24FA
:102490000E945226F80171836083E8CE81E06B30A0
:1024A000744009F0E4CE80916602D9CE8FEFDFCE82
:1024B000FF920F931F93CF93DF93DC0112960D9140
:1024C0001C9113970115110559F4ED91FC910480AD
:1024D000F581E02DDF91CF911F910F91FF9009942D
:1024E000F62EEC0183E090E00E94A3222C813D8136
:1024F000FC0132832183F0829D838C830F5F1F4F09
:102500001B830A831C8681E0DF91CF911F910F917D
:10251000FF900895DF92EF92FF920F931F93CF9356
:10252000DF93EB01642FDC0112964D915C911397C0
:10253000C417D5076CF0ED91FC910480F581E02D76
:10254000DF91CF911F910F91FF90EF90DF90099451
:10255000209731F4ED91FC910680F781E02DF0CFCA
:10256000D62E8C0183E090E00E94A3227C01FC0126
:10257000108212821182BE0161507109C8010E944D
:10258000640BD701DC92FC012181328112963C93CD
:102590002E931197F282E182D80112968D919C912F
:1025A0001397019613969C938E9312971C961C92E8
:1025B00081E0DF91CF911F910F91FF90EF90DF901D
:1025C00008951F93CF93DF93EC01162F83E090E0E3
:1025D0000E94A322FC011282118210832C813D8172
:1025E000232B89F0EE81FF81928381839F838E83E9
:1025F0008A819B8101969B838A831C8681E0DF917F
:10260000CF911F9108959D838C83F0CFAF92BF929D
:10261000CF92DF92EF92FF920F931F93CF93DF93AE
:102620007C01062FD42E10E094E1C92E8091670220
:10263000181708F054C0C12FD0E0CC0FDD1FCE0119
:1026400086599D4F5C01DC018D919C91DC01ED91DF
:10265000FC910480F581E02DB70109958823E9F10B
:10266000F5018081918141E0011101C040E061E00C
:10267000D11001C060E0DC01ED91FC910284F38592
:10268000E02D0995612F8EE794E00E94E112C65972
:10269000DD4F88819981DC01ED91FC910288F389FD
:1026A000E02D099588819981DC01ED91FC910688E6
:1026B000F789E02D09951C9D90011124BC01C901E9
:1026C000855D9F4F0E94082588819981DC01ED91ED
:1026D000FC910088F189E02D09951F5FA7CFDF915C
:1026E000CF911F910F91FF90EF90DF90CF90BF900F
:1026F000AF900895DF92EF92FF920F931F93CF93C5
:10270000DF9320915D02222309F449C08131974271
:1027100009F045C0603481E0780708F049C07A01CB
:10272000EB01BA01CE010E94ED0FC032D105A8F134
:10273000A097CE016AE070E00E943725D62E8091E6
:102740006702681750F5262F372F8901000F111FD8
:1027500006591D4FD8018D919C916AE0629FA0019E
:10276000639F500D1124BE01641B750BDC01ED91BC
:10277000FC910684F785E02DA7010995F801808179
:102780009181DC01ED91FC910680F781E02D0995A6
:102790006D2D8EE794E00E94E1128FE701C08FEF6C
:1027A000DF91CF911F910F91FF90EF90DF900895EF
:1027B00081E0F6CF0C943F230C943F230C943F23ED
:1027C0000C943F230C943F230C943F230C943F2301
:1027D000EF92FF921F93CF93DF93FC01628173818D
:1027E00010E016161706DCF4EC0114866130710552
:1027F000E9F0625071090E94640B7C01FC01818147
:102800009281FC0110810E943F23F7011282118204
:10281000FF82EE828A819B8101979B838A83812F2D
:10282000DF91CF911F91FF90EF9008958481958162
:10283000FC0110810E943F231D821C821F821E8288
:102840001B821A82ECCFEF92FF921F93CF93DF93FC
:10285000DC0112962D913C9113971216130634F554
:1028600021303105C1F0EC018C819D81FC01E180BA
:10287000F28010810E943F23FD82EC828A819B813D
:1028800001979B838A831C86812FDF91CF911F91B3
:10289000FF90EF900895ED91FC910484F585E02D73
:1028A000DF91CF911F91FF90EF90099410E0ECCF52
:1028B0001F93CF93DF9377FD3EC0DC0112962D91DD
:1028C0003C91139762177307B4F56115710549F4CC
:1028D000ED91FC910684F785E02DDF91CF911F915A
:1028E0000994215031092617370731F4ED91FC91F5
:1028F0000484F585E02DF1CFEC01615071090E944F
:10290000640BDC011196ED91FC91129710812181ED
:10291000328112963C932E931197CF010E943F2350
:102920008A819B8101979B838A831C86812FDF91FB
:10293000CF911F91089510E0F9CF0C943F231F927F
:102940000F920FB60F9211242F933F934F935F93E3
:102950006F937F938F939F93AF93BF93EF93FF9367
:102960008091B900887F803609F44AC0F0F588323A
:1029700009F4A7C018F5803109F49BC0B8F4882386
:1029800009F4F9C0883009F494C0FF91EF91BF9128
:10299000AF919F918F917F916F915F914F913F91F7
:1029A0002F910F900FBE0F901F901895883109F44A
:1029B00088C0803251F780933E0314C0803409F4FC
:1029C0009DC040F48033B9F38833F9F680933E0319
:1029D00085ECB0C0803509F485C0883509F496C00F
:1029E000883499F60E948710D0CF883909F48CC0BA
:1029F00038F5883729F050F4883611F0803729F6F9
:102A000083E0809340031092190357C0883809F47B
:102A10007BC0803919F0803809F0B7CF8091190355
:102A2000803208F071C0E091190381E08E0F80932D
:102A300019038091BB00F0E0E750FD4F80833DC05B
:102A4000803B39F0E0F4803A09F479C0883A09F023
:102A50009CCF84E0809340031092F6021092F5021E
:102A6000E091F302F091F40209958091F502811151
:102A70000FC081E08093F5021092D30209C0803C20
:102A800009F4A6CF883C09F4A3CF883B09F07DCF99
:102A9000E091F60281E08E0F8093F602F0E0ED52B5
:102AA000FD4F80818093BB009091F6028091F502EA
:102AB00029C080913B038093BB0085EC8093BC00D0
:102AC00064CF90913D0380913C03981758F5E091B5
:102AD0003D0381E08E0F80933D03F0E0E65EFC4F06
:102AE0008081E9CFE0913D0381E08E0F80933D032B
:102AF0008091BB00F0E0E65EFC4F808390913D0347
:102B000080913C039817C8F285E8D8CFE0913D0347
:102B100081E08E0F80933D038091BB00F0E0E65E84
:102B2000FC4F808380913F0381115CCF81E08093D3
:102B30003A0384EA8093BC001092400326CF85ECD0
:102B40008093BC001092400380911903803230F4CE
:102B5000E0911903F0E0E750FD4F108260911903F6
:102B600070E0E091F702F091F80289EF92E00995A8
:102B7000109219030ACF10923E0334CF1F920F9286
:102B80000FB60F9211242F933F938F939F93AF9380
:102B9000BF9380919E0290919F02A091A002B0915C
:102BA000A10230919D0223E0230F2D3758F50196A5
:102BB000A11DB11D20939D0280939E0290939F02C0
:102BC000A093A002B093A1028091A2029091A302CF
:102BD000A091A402B091A5020196A11DB11D809300
:102BE000A2029093A302A093A402B093A502BF9166
:102BF000AF919F918F913F912F910F900FBE0F90AA
:102C00001F90189526E8230F0296A11DB11DD2CF63
:102C10001F920F920FB60F9211248F939F93809162
:102C2000E1009091E100937F9093E10083FF0FC05A
:102C30001092E90091E09093EB001092EC0092E387
:102C40009093ED0010926D0398E09093F00082FF56
:102C500022C093E09093E9009091F200992319F03B
:102C60009AE39093E80090916302992341F0909148
:102C70006302915090936302911101C05D9A90910B
:102C80006C03992341F090916C03915090936C03E5
:102C9000911101C0289A84FF18C08091E2008E7EB5
:102CA00081608093E2008091E1008F7E8093E1005B
:102CB000809164028E7E8061809364029F918F91E7
:102CC0000F900FBE0F901F90189580FFF7CF809147
:102CD000E2008E7E80618093E2008091E1008E7E32
:102CE0008093E100809164028E7E8160E5CF1F9227
:102CF0000F920FB60F921124CF92DF92EF92FF92B4
:102D00000F931F932F933F934F935F936F937F93F3
:102D10008F939F93AF93BF93EF93FF93CF93DF93E3
:102D2000CDB7DEB76C97DEBFCDBF1092E9008091C2
:102D3000E80083FF25C068E0CE0145960E94660743
:102D400082EF8093E8008D8987FF39C09091E80079
:102D500090FFFCCF982F907609F034C19E894F895F
:102D6000588D2F89F88C911131C0803861F5809190
:102D700065028093F1001092F1008EEF8093E800DD
:102D80006C960FB6F894DEBF0FBECDBFDF91CF912A
:102D9000FF91EF91BF91AF919F918F917F916F9133
:102DA0005F914F913F912F911F910F91FF90EF9065
:102DB000DF90CF900F900FBE0F901F9018959EEF51
:102DC0009093E800C7CF1092F100D5CF913059F41D
:102DD0008111D3CF4130510581F6809165028D7FFD
:102DE00080936502CACF933049F48111C6CF413038
:102DF000510519F6809165028260F2CF953041F459
:102E00008091E80080FFFCCF20682093E300B5CFDD
:102E1000963009F0A9C00B8D1C8D22E01092E900BC
:102E20001092610210926002F2122EC010925F02A4
:102E300010925E020E9435071F8299E09983FA8200
:102E400091E09E8390EA98879AEF9987209160029B
:102E500030916102275F3F4F3C832B838D8310921B
:102E6000E900109261021092600210935F020093D9
:102E70005E0249E050E0BE016F5F7F4F80E00E943C
:102E80000F070E94350779CF10935F0200935E020F
:102E90000E942F04DC0112960D911C910115110561
:102EA00009F451C1D801ED91FC910480F581E02D28
:102EB000BE016B5E7F4FC8010995009709F03EC1C6
:102EC000F80100851185EACFF3E0FF120EC08F896B
:102ED000882309F440C0823061F440E860E18DE36A
:102EE00091E00E94DC06811148CF81E28093EB00E3
:102EF00047CF813029F440E86BE081E391E0F1CFE6
:102F0000833099F70E942F04DC011296ED90FC901B
:102F10008E010F5F1F4F6801E114F10479F0D701B2
:102F2000ED91FC910680F781E02DB801C70109956C
:102F3000080F111DF701E084F184EECFD8011C9237
:102F4000F60101900020E9F73197BF016C197D0966
:102F500040E0C601C6CF6BE171E0FB01449150E057
:102F600080E80E940F0709CF973009F4BECF983050
:102F700021F481E08093F10000CF993009F0FDCE7B
:102F8000837009F0B2CFE3E1F1E081E031E096E354
:102F90002191222371F08093E9003093EB00DF014F
:102FA00011972C912093EC009093ED008F5F873068
:102FB00079F78EE78093EA001092EA008F89809378
:102FC0006D03DBCE8B8D9C8D1092E9001092610217
:102FD0001092600290935F0280935E02898D81114E
:102FE00092C08E899D89913A49F4813209F07DCF52
:102FF00047E050E064E071E080E0B3CF913209F047
:1030000074CF833269F48F89988DB0E0A0E080930B
:10301000000190930101A0930201B0930301ADCE92
:10302000803269F48091E80082FFFCCF67E084E0A1
:1030300091E00E9466078BEF8093E8009ECE82327B
:1030400009F09BCE8F8980930B01EEEFFFE785910E
:1030500094918B3F9C4D51F1E0E0F8E080910401A8
:1030600090910501A0910601B0910701803B944029
:10307000A105B105F1F480910B0180FD1AC0EE3F6E
:103080008AE0F80789F587E797E791838083809145
:1030900060008093620288E19BE00FB6F894A895E7
:1030A000809360000FBE9093600067CEEEEFFAE071
:1030B000D5CF808191818737974709F05ECEA8955B
:1030C00080916000886180936000809162028093AB
:1030D0006000EE3F2AE0F20789F08091FE0A9091AD
:1030E000FF0A9183808349CE808191818737980739
:1030F00051F29093FF0A8093FE0AC5CF1092FF0A07
:103100001092FE0A3ACE0E942F04DC0112960D9115
:103110001C910115110509F4E8CED801ED91FC913F
:103120000190F081E02DBE016B5E7F4FC8010995D3
:10313000811123CEF80100851185EBCF18161906F1
:103140000CF41BCED2CEF1E0FF12BECE6FE171E0E7
:1031500004CF1F920F920FB60F9211242F933F931B
:103160004F935F936F938F939F93AF93BF93CF933F
:10317000DF93EF93FF9380917C0390917D038054C4
:103180009C4F90937D0380937C0380917C0390916E
:103190007D039093890080938800809181038F5FE5
:1031A00080938103809182038430E9F580918103CB
:1031B000893000F58091780390E09595879580930C
:1031C00078034C9B05C080917803806880937803D6
:1031D000FF91EF91DF91CF91BF91AF919F918F912F
:1031E0006F915F914F913F912F910F900FBE0F9074
:1031F0001F901895B59A80916F00806280936F0040
:1032000080917603909177034C9930C0FC01E95787
:10321000FF4F808191810196918380831092810379
:1032200081E08093820380918203833009F049C05A
:10323000E0917F03F0918003808140917E0329B16A
:1032400090E0042E02C0959587950A94E2F730E04D
:1032500054E0359527955A95E1F7822780FD17C0F0
:103260001092810382E0809382032BC04091780307
:10327000FC01E058FF4F208131E0320F3083820F94
:10328000911DDC014C9337FFC9CF1082C7CF8091CD
:103290008103893008F03EC02091780381E090E0FE
:1032A00001C0880F4A95EAF7908120FF31C08095D0
:1032B000892380838091780390E09595879580930A
:1032C000780380918203823099F480918103811187
:1032D00094C0E0917F03F0918003808190917E0300
:1032E00021E030E001C0220F9A95EAF7822B80831B
:1032F00080918203813009F06BCF8091810381112D
:10330000A2C0B59A80916F00806280936F0060CFF9
:10331000892BCFCF80918103893059F4208181E0BE
:1033200090E001C0880F4A95EAF780958223808358
:10333000C8CF809183038F5F809383039091840330
:10334000891750F51092810380917A0390917B0345
:10335000A0918303A80FB92FB11D8C91809378039E
:10336000808121E030E001C0220F4A95EAF7822BEC
:10337000808380918400909185008A5A9C4F90931D
:103380007D0380937C0380917C0390917D039093D7
:1033900089008093880095CF81E080937903E09144
:1033A0007A03F0917B0340917603509177038081FB
:1033B00080768036C9F4818130E020E0EA01C0588F
:1033C000DF4F2817B0F4DF01A20FB31F6C91A88163
:1033D00091E09A0F9883A40FB52FB11D6C9397FDC0
:1033E00018822F5F3F4FEDCF8081829586708E5F70
:1033F000E3CF1092810381E036CF809181038F303B
:1034000008F476CFE0917F03F09180032081309122
:103410007E0381E090E001C0880F3A95EAF780953D
:10342000822380831092810381E080938203E09164
:103430007603F0917703E357FF4F808191810196E6
:103440009183808355CF80918103883308F4C0CE67
:103450001092820380916F008D7F57CF1F920F9241
:103460000FB60F9211248F939F93EF93FF93EFE684
:10347000F0E080818F7D808380918600909187002D
:1034800080569A4F90937D0380937C0380917C03B8
:1034900090917D039093890080938800B19A8081F8
:1034A0008260808384E08093820310928103FF9185
:1034B000EF919F918F910F900FBE0F901F901895D5
:1034C000E4E6F4E01382128248EE53E060E070E03C
:1034D00044835583668377838DEF91E09183808366
:1034E000A4E1B4E013961C921E92129714964D9389
:1034F0005D936D937C9317978FE092E011969C9368
:103500008E938FEF9FEF1D969C938E931C97ABE845
:10351000B4E080E48C931296FC93EE931197EEE75F
:10352000F4E081E292E09183808315821482178215
:1035300016821382128211861086138612861486D2
:1035400060E085E10E94FC04EAEFF1E0E491A0E78D
:10355000B4E0EC93EBEDF1E0E491F0E0EE0FFF1F4F
:10356000E854FE4F8591949112969C938E931197F7
:103570001B961C921B971D961C921D971C961C92C5
:103580001C971A961C921A9719961C9219971896BE
:103590001C92189717961C92179716961C921697BE
:1035A00015961C92159714961C92149713961C92BC
:1035B0000895CF93DF93CDB7DEB767970FB6F89432
:1035C000DEBF0FBECDBF789484B5826084BD84B564
:1035D000816084BD85B5826085BD85B5816085BD0E
:1035E00080916E00816080936E00109281008091C6
:1035F000810082608093810080918100816080934E
:103600008100809180008160809380008091910092
:1036100082608093910080919100816080939100FD
:10362000809190008160809390008091C1008460BF
:103630008093C1008091C10082608093C10080911D
:10364000C10081608093C1008091C300816080933C
:10365000C3008091C00082608093C0008091C2004E
:1036600081608093C20080917A00846080937A00A8
:1036700080917A00826080937A0080917A008160E4
:1036800080937A0080917A00806880937A0010920B
:103690006D0310926502109264028091D7008160E0
:1036A0008093D70080EA8093D80089B5806189BD76
:1036B00089B5826089BD89B5282F21702B8B80FF49
:1036C000FACF61E070E080E090E00E9470068091A7
:1036D000D8008F7C80618093D8008091E000807F4B
:1036E0008093E0008091E1008E7E8093E1008DE088
:1036F0008093E200559A209AE5E8F3E08FE8DF0135
:103700001D928A95E9F761E085E00E94FC04EAEEEB
:10371000F1E02491EBECF1E0E491F0E0EE0FFF1F1B
:10372000E158FE4F4591549180E091E031E0291736
:1037300041F08F5F932F082E01C0990F0A94EAF78A
:10374000F6CF5093800340937F0380937E0385E8F8
:1037500093E090937703809376035498E0917F03EE
:10376000F0918003208130917E0381E090E001C0E0
:10377000880F3A95EAF78095822380831092800023
:1037800081E08093810010928203B59A80916F004E
:10379000806280936F0080918100887F8160809338
:1037A000810085E090E00E94EC24809367028931DB
:1037B00018F088E180936702412C809167024816D7
:1037C00008F099C2E42CF12CC701885F9F4F0E943A
:1037D000EC24182FB4E14B9E30011124C301815E0B
:1037E0009F4F0E94F4241C0181E0E2E02E16310478
:1037F00008F080E091E0F5E02F16310409F090E048
:10380000892B21F428E02216310419F422242A9469
:10381000312CC3018F5D9F4F0E94F4245C01522C18
:10382000C701880F991F9A8B898B143009F4A5C1A1
:10383000B0F4123009F4A6C008F06BC1113009F4DD
:103840001AC186E090E00E94A322FC0121EE31E043
:103850003183208345825282B482A382B3C1163061
:1038600009F414C208F4B5C1163659F7C3018D5DC9
:103870009F4F0E94F4247C01C3018B5D9F4F0E94E7
:10388000F4249D8B8C8BC301895D9F4F0E94F4248F
:103890004C01C301835D9F4F0E94F4249F8B8E8B4C
:1038A000C301815D9F4F0E94F4246C01C3018F5CB2
:1038B0009F4F0E94F424582E8DE190E00E94A32295
:1038C0008C01DC0115964C92159712962C9212974A
:1038D0001496BC92AE9213971B969C928E921A9756
:1038E0001C965C921C975396FC92EE9252975596BA
:1038F000FC92EE925497EE89FF891E96FC93EE930C
:103900001D975096DC92CE921F9757961C921E924E
:10391000569758961C9258975A961C921E925997F1
:1039200025EC31E011963C932E938BE894E05C9665
:103930009C938E935B97B70190E080E00E94CD232B
:103940002FE335E342E850E40E94E0250E9452262E
:10395000D80119967C936E931897EC89FD89BF0165
:1039600090E080E00E94CD232FE335E342E850E46D
:103970000E94E0250E945226D80117967C936E93F0
:10398000169769C0C3018D5D9F4F0E94F4247C018E
:10399000C3018B5D9F4F0E94F4249D8B8C8BC301D0
:1039A000895D9F4F0E94F4249F8B8E8BC301835DA2
:1039B0009F4F0E94F4244C01C301815D9F4F0E94E0
:1039C000F4246C01C3018F5C9F4F0E94F424382EB5
:1039D0008BE190E00E94A3228C01DC0115964C92B1
:1039E000159712962C9212971496BC92AE9213973A
:1039F000E9EAF1E01196FC93EE931996FC92EE92AF
:103A000018972C893D8917963C932E9316978E898B
:103A10009F891B969C938E931A971C963C921C9799
:103A20005396FC92EE9252975596FC92EE925497D2
:103A30001E969C928E921D975096DC92CE921F9766
:103A400057961C921E92569758961C9258975A96C3
:103A50001C921E925997E989FA89E659FD4F118304
:103A60000083C301855D9F4F0E94F424BC01C801FF
:103A70000E9494093AC0C3018D5D9F4F0E94F424B7
:103A8000A82FA170CA2E96958795B82FB170DB2EFE
:103A9000C3018B5D9F4F0E94F4247C018CE090E079
:103AA0000E94A3228C01FC0145822282B482A3825F
:103AB0002DE131E0318320833FEF231202C08EEFEE
:103AC000828362E0D80112968C910E94FC04F80176
:103AD000168221E02783C286F186E086D386E989B3
:103AE000FA89E659FD4F11830083E989FA89E6597D
:103AF000FD4F80819181DC01ED91FC910680F78181
:103B0000E02D0995642D8EE794E00E94E112439424
:103B100054CEC3018D5D9F4F0E94F424382F317025
:103B2000E32E96958795482F4170F42E8AE090E019
:103B30000E94A3228C01DC0115964C9215971296D7
:103B40002C9212971496BC92AE921397E9E3F1E08F
:103B5000ED93FC93F4E02F1621F061E0822D0E949A
:103B6000FC04D80116961C9260E0C8010E94650909
:103B7000F801E7821186F086B2CFC3018D5D9F4FB9
:103B80000E94F424E82EC3018B5D9F4F0E94F42411
:103B9000F82EC301895D9F4F0E94F4248C0183E1BC
:103BA00090E00E94A322FC0145822282B482A3827B
:103BB00025E531E031832083E782F0861287018793
:103BC000108A1786A989BA89A659BD4FED93FC932F
:103BD0008CCFC3018D5D9F4F0E94F4247C01C301F3
:103BE0008B5D9F4F0E94F4244C01C301875D9F4F62
:103BF0000E94F4246C01C301855D9F4F0E94F42450
:103C00003C0181E032E0E316F10408F080E091E04D
:103C100045E0E416F10409F090E0892B21F488E0F6
:103C2000E816F10419F4EE24EA94F12C83E190E013
:103C30000E94A3228C01DC0115964C9215971296D6
:103C40005C9212971496BC92AE921397E1E7F1E062
:103C50001196FC93EE931796FC92EE921697199696
:103C60009C928E9218971B96DC92CE921A971D9674
:103C70007C926E921C9761E0852D0E94FC0461E0AD
:103C8000D80116968C910E94FC0429CFC3018D5D4A
:103C90009F4F0E94F424E82EC3018B5D9F4F0E942A
:103CA000F424F82E80E190E00E94A3228C01FC0114
:103CB00045822282B482A3822DE831E031832083C1
:103CC000E1861086F2868FEF9FEFDC01848795876F
:103CD000A687B7871386E989FA89E659FD4F1183CC
:103CE0000083C301855D9F4F0E94F424BC01C8017D
:103CF0000E94FC0BFACE809166028260809366027D
:103D000010927B0410927D0410927C0410927A042D
:103D1000109279041092780410927704109276042D
:103D200010927504109274041092730481E592E06D
:103D30000E9408106AEF70E080E090E00E94700638
:103D400080917D04811104C00E94B40281112BC1B5
:103D500010927B0410927D0410927C0481E592E025
:103D60000E94081010927B0410927D0410927C0433
:103D700010927A04109279041092780410927704C9
:103D800010927604109275041092740410927304C9
:103D900010926E0310926F031092700310927103D1
:103DA00010927203109273031092740310924703DF
:103DB0001092460310926903109268030E94BD049A
:103DC00087EA93E09093F4028093F30288EA93E009
:103DD0009093F8028093F70260E880E00E94440626
:103DE0006AE070E080E090E00E94700660E070E0C1
:103DF0008AE794E40E946A0E80E498E7ADE7B1E0B8
:103E000080938E0490938F04A0939004B0939104B8
:103E100060E070E08CE892E40E946A0E60E084E169
:103E20000E94FC048EE491E00E9411080E94ED02C1
:103E3000BC0190E080E00E94CD232AE137E64CE906
:103E400050E40E942E2420E030E040E551E40E943E
:103E50002E240E945226CB010E94591020E0A22E4F
:103E600020E0B22E81E1882E87E2982E90E0692E24
:103E700090E0792E20918004309181042115310544
:103E800041F180919C028F5F821713060CF0EBC00A
:103E900080939C0260919C0270E08EE794E00E9407
:103EA000AE0BE82FF0E0EE0FFF1FE659FD4F8081CB
:103EB0009181DC01ED91FC910288F389E02D099557
:103EC000811107C060919C0270E08EE794E00E942F
:103ED000581484E194E00E940B091816190624F581
:103EE00084E194E00E943B0887379105E9F40E9441
:103EF000AF086B017C010E94AF081B0187E691E0CF
:103F00000E941108C701B601882799274AE00E943C
:103F1000151084E691E00E941108C1010E94591019
:103F2000B101C6010E94ED0F809106049091050435
:103F3000891709F447C1E82FF0E0EB57FC4FF080F8
:103F4000F7FED5C090910704891751F020910C0419
:103F500030910D042F5F3F4F30930D0420930C04DC
:103F600080930704BFEFB09308048F2D80768036CE
:103F700009F07CC010920904809106048F5F809341
:103F80000604C0900704282F2C1987FD1092060400
:103F90008091080490910904291709F4B8C0F82603
:103FA000F0920804C1CF60E080EF0E9472020B899A
:103FB000E12CD12C11E00E941D02F82E0E941D025E
:103FC000B1E0FB121CC08130C9F5113408F4C0CE39
:103FD000D0927B04D11003C081E080937D04809156
:103FE0007304882309F4B4CEA3E7B4E0EEE6F3E06B
:103FF0008D91819323E0E637F207D1F7D7CEEE2DEE
:10400000F0E0F81211C080917B041817A8F4DF01CA
:10401000A059BB4F13968C91802381F4F12C193059
:1040200010F410937C04D12EE059FB4F8381902F24
:104030009095892383830AC08113F0CFEE2DF0E0A1
:10404000E059FB4F8381802B8383FB888F2D0E9457
:1040500042021F5F000F11F4E3940B89E7E0EE15B5
:1040600008F0A9CFB2CF10929C0214CF8F2D829569
:1040700086708E5F80930904209107048091090463
:10408000820F9927991F813891050CF475CF00E8AC
:10409000021BF8944091050480910704841770F581
:1040A000E42FE81B8E2F8093050478946091070419
:1040B000461738F510E050E065E873E0C8018B570B
:1040C0009C4F0E9486266091070470E06B577C4FDE
:1040D000A80185E893E00E948626809106049091CD
:1040E0000704891B809306041092070445CF809132
:1040F0000904811141CFF0920904BECF802F840FB3
:10410000D2CF461B50E070E06B577C4FE2CFF812E5
:104110004CC0D12C96012B573C4F690120910A04C9
:1041200030910B042F5F3F4F30930B0420930A0410
:104130009091060490930704C114D10409F42FCF81
:10414000D0926902C0926802C114D10409F409C175
:10415000D60111967C911197272F30E012966C9121
:104160001297462F50E0FA01F695FE2FEE27F795AD
:10417000E795E078F770E72BF32B9C91923B09F4DD
:10418000DFC03196913B09F402C1F8F4933809F489
:10419000F0C0903B09F4F5C09238F9F480E090E06B
:1041A000892B09F4DEC080E0E9C020910C04309135
:1041B0000D042F5F3F4F30930D0420930C04D12C3E
:1041C000C12CB6CFD12CC12CBBCF9C3B09F4F4C081
:1041D00008F068C0943B09F428C1953E19F09D3E53
:1041E00009F0BFC08AE392E00E94081087E392E0E2
:1041F0000E940810F60181818F3009F0B2C08381DE
:10420000853009F0AEC084818111ABC04681960132
:10421000295F3F4F81E0942F982319F09781906890
:104220009783880F3196E217F307A9F7D601169600
:104230001C92169715968C911597803209F45AC1E5
:10424000813209F08EC01796ED91FC91EF3FFE0789
:1042500009F0F7C0D60119968D919C911A97892B78
:1042600009F0EFC01B968D919C91019609F0E9C071
:1042700080E090E00E94EC24082F10E0F601148703
:10428000038790868782E12C30E020E041E157E20D
:104290006281CE0101960E940C03CE0101960E941C
:1042A0002E015FC09D3B09F45CC0903D09F095CFA5
:1042B0007076703229F0703609F487C0711151C0E0
:1042C00080E090E0892B09F44CC0C9019695982FA5
:1042D00088279795879580789F70840F951FE5E0D4
:1042E00035952795EA95E1F721700196D601139649
:1042F000EC91139714964C9150E0ED3731F0B0E803
:10430000EB9FF00111244E0F5F1F6F7009F47DC009
:10431000623009F47CC0643009F47BC0663009F473
:104320007AC0683009F479C06A3009F478C06C301A
:1043300009F477C06E3009F476C00E94000011C005
:1043400082E090E065FD02C081E090E020E030E096
:10435000232B39F0EE0FFF1F60718E0F9F1F0E94FD
:10436000000080E090E0892B09F484CD0E940000D9
:1043700079CD80E090E0892BA1F381E00E940000DC
:10438000F0CF40726071CF010E940613EACF66FF42
:1043900009C0A114B10429F340726071CF010E94D9
:1043A0000000DFCF80E090E0892BD9F2407160728D
:1043B000CF010E940000D5CF6114710491F24072C8
:1043C0006071CF010E940000CCCF80E090E0892B8B
:1043D00041F213960C911397802F807D803109F65E
:1043E0001496EC90FF24F39411E041E0802F8F218C
:1043F00009F040E02E2D2F21FF0C612F80E80E9454
:1044000000001F5F153089F7ACCF61E496CF62E4FE
:1044100094CF63E492CF64E490CF65E48ECF66E4FA
:104420008CCF67E48ACF68E488CF7C3309F099CFDA
:1044300080E090E0892B09F494CF8CE30E94000087
:1044400090CFD6011D969C911D97911122C01B966D
:104450004D915C911C9719966D917C919601255F09
:104460003F4FCF010E9400118F3749F4F6010385B9
:1044700014852185328547815085E12C09CF87FD40
:1044800070CFD6019C919F7724EB29839A838B83ED
:1044900004CF97FF22C096FD25C0B601655F7F4F10
:1044A000C9010E94BF108F37C1F4F601038514853E
:1044B0004781508580E8E82E30E020E06281CE011F
:1044C00001960E940C036AE070E080E090E00E9498
:1044D0007006CE0101960E942E01D6011D968C9188
:1044E00086FF3FCFF60163857485878190850E94A2
:1044F000E81037CF1B964D915C911C9719966D91E2
:104500007C911A9717968D919C910E947A1387FD42
:1045100028CFF6019081B7CF81E292E090937F049B
:1045200080937E048091820490918304009751F0DF
:10453000FC012181328130938304209382040E9404
:104540003F23F0CF08950F931F93CF93DF938230D3
:10455000910510F482E090E0E0919404F0919504CC
:1045600030E020E0B0E0A0E0309799F4211531056B
:1045700009F44AC0281B390B24303105D8F58A814B
:104580009B816115710589F1FB0193838283FE0193
:1045900011C0408151810281138148175907E0F011
:1045A0004817590799F4109761F012960C931297D7
:1045B00013961C933296CF01DF91CF911F910F91EB
:1045C00008950093940410939504F4CF21153105B8
:1045D00051F04217530738F0A901DB019A01BD01E0
:1045E000DF01F801C1CFEF01F9CF909395048093DB
:1045F0009404CDCFFE01E20FF31F819391932250DB
:10460000310939832883D7CF2091920430919304C4
:10461000232B41F420910E0130910F01309393042C
:104620002093920420910C0130910D012115310548
:1046300041F42DB73EB74091100150911101241B58
:10464000350BE0919204F0919304E217F307A0F484
:104650002E1B3F0B2817390778F0AC014E5F5F4FD8
:104660002417350748F04E0F5F1F50939304409373
:104670009204819391939FCFF0E0E0E09CCFCF93A1
:10468000DF930097E9F0FC01329713821282A09128
:104690009404B0919504ED0130E020E01097A1F46E
:1046A00020813181820F931F2091920430919304D5
:1046B0002817390709F061C0F0939304E09392043E
:1046C000DF91CF910895EA01CE17DF07E8F54A811F
:1046D0005B819E0141155105B1F7E901FB83EA8336
:1046E00049915991C40FD51FEC17FD0761F48081E2
:1046F00091810296840F951FE901998388838281B5
:1047000093819B838A83F0E0E0E012968D919C91E7
:1047100013970097B9F52D913C911197CD01029611
:10472000820F931F20919204309193042817390728
:1047300039F6309751F51092950410929404B09385
:104740009304A0939204BCCFD383C2834081518150
:10475000840F951FC817D90761F44E5F5F4F88819A
:104760009981480F591F518340838A819B8193838C
:1047700082832115310509F0B0CFF0939504E093C1
:1047800094049ECFFD01DC01C0CF13821282D7CFEB
:104790000E940A2408F481E00895E89409C097FB78
:1047A0003EF490958095709561957F4F8F4F9F4F08
:1047B0009923A9F0F92F96E9BB279395F69587954C
:1047C00077956795B795F111F8CFFAF4BB0F11F40F
:1047D00060FF1BC06F5F7F4F8F4F9F4F16C08823B6
:1047E00011F096E911C0772321F09EE8872F762FEC
:1047F00005C0662371F096E8862F70E060E02AF02D
:104800009A95660F771F881FDAF7880F9695879518
:1048100097F90895990F0008550FAA0BE0E8FEEFED
:1048200016161706E807F907C0F012161306E40774
:10483000F50798F0621B730B840B950B39F40A266D
:1048400061F0232B242B252B21F408950A2609F44B
:10485000A140A6958FEF811D811D08950E944124DE
:104860000C94B2240E94A42438F00E94AB2420F0BF
:10487000952311F00C949B240C94A12411240C94E6
:10488000E6240E94C32470F3959FC1F3950F50E076
:10489000551F629FF001729FBB27F00DB11D639FF2
:1048A000AA27F00DB11DAA1F649F6627B00DA11D98
:1048B000661F829F2227B00DA11D621F739FB00D3E
:1048C000A11D621F839FA00D611D221F749F3327AE
:1048D000A00D611D231F849F600D211D822F762F47
:1048E0006A2F11249F5750409AF0F1F088234AF024
:1048F000EE0FFF1FBB1F661F771F881F9150504090
:10490000A9F79E3F510580F00C949B240C94E6245B
:104910005F3FE4F3983ED4F3869577956795B79516
:10492000F795E7959F5FC1F7FE2B880F911D969530
:10493000879597F9089597F99F6780E870E060E0A0
:1049400008959FEF80EC089500240A941616170628
:1049500018060906089500240A9412161306140670
:1049600005060895092E0394000C11F4882352F0D3
:10497000BB0F40F4BF2B11F460FF04C06F5F7F4F8B
:104980008F4F9F4F089557FD9058440F551F59F072
:104990005F3F71F04795880F97FB991F61F09F3F2C
:1049A00079F087950895121613061406551FF2CF55
:1049B0004695F1DF08C0161617061806991FF1CFA5
:1049C00086957105610508940895E894BB276627CC
:1049D0007727CB0197F90895F999FECF92BD81BD54
:1049E000F89A992780B50895A8E1B0E042E050E038
:1049F0000C940F25262FF999FECF1FBA92BD81BDC9
:104A000020BD0FB6F894FA9AF99A0FBE0196089550
:104A10000E94FA24272F0C94FB24DC01CB01FC011B
:104A2000F999FECF06C0F2BDE1BDF89A319600B407
:104A30000D9241505040B8F708950E942825A59F37
:104A4000900DB49F900DA49F800D911D1124089589
:104A5000A29FB001B39FC001A39F700D811D1124BF
:104A6000911DB29F700D811D1124911D0895AA1BE7
:104A7000BB1B51E107C0AA1FBB1FA617B70710F049
:104A8000A61BB70B881F991F5A95A9F7809590957B
:104A9000BC01CD010895A1E21A2EAA1BBB1BFD018A
:104AA0000DC0AA1FBB1FEE1FFF1FA217B307E4070D
:104AB000F50720F0A21BB30BE40BF50B661F771F65
:104AC000881F991F1A9469F7609570958095909545
:104AD0009B01AC01BD01CF010895EE0FFF1F0590B2
:104AE000F491E02D09945058BB27AA270E948B25EA
:104AF0000C94B2240E94A42438F00E94AB2420F02D
:104B000039F49F3F19F426F40C94A1240EF4E09597
:104B1000E7FB0C949B24E92F0E94C32458F3BA1797
:104B2000620773078407950720F079F4A6F50C94C3
:104B3000E5240EF4E0950B2EBA2FA02D0B01B90140
:104B400090010C01CA01A0011124FF27591B99F003
:104B5000593F50F4503E68F11A16F040A22F232F0F
:104B6000342F4427585FF3CF469537952795A7955F
:104B7000F0405395C9F77EF41F16BA0B620B730B06
:104B8000840BBAF09150A1F0FF0FBB1F661F771F77
:104B9000881FC2F70EC0BA0F621F731F841F48F42C
:104BA000879577956795B795F7959E3F08F0B0CFB5
:104BB0009395880F08F09927EE0F9795879508959C
:104BC0000E94F4250C94B2240E94AB2458F00E9459
:104BD000A42440F029F45F3F29F00C949B24511148
:104BE0000C94E6240C94A1240E94C32468F3992316
:104BF000B1F3552391F3951B550BBB27AA276217D9
:104C00007307840738F09F5F5F4F220F331F441FE5
:104C1000AA1FA9F335D00E2E3AF0E0E832D0915019
:104C20005040E695001CCAF72BD0FE2F29D0660F06
:104C3000771F881FBB1F261737074807AB07B0E849
:104C400009F0BB0B802DBF01FF2793585F4F3AF04F
:104C50009E3F510578F00C949B240C94E6245F3F12
:104C6000E4F3983ED4F3869577956795B795F795D5
:104C70009F5FC9F7880F911D9695879597F90895BD
:104C8000E1E0660F771F881FBB1F62177307840759
:104C9000BA0720F0621B730B840BBA0BEE1F88F768
:104CA000E09508950E94CB2488F09F5798F0B92F83
:104CB0009927B751B0F0E1F0660F771F881F991F51
:104CC0001AF0BA95C9F714C0B13091F00E94E524EA
:104CD000B1E008950C94E524672F782F8827B85FFA
:104CE00039F0B93FCCF3869577956795B395D9F7A9
:104CF0003EF490958095709561957F4F8F4F9F4FB3
:104D000008950E940A2408F48FEF08956817790720
:104D100068F4FB01DC01E40FF51FA40FB51F02C00E
:104D200002900E9241505040D8F708950C94982666
:104D3000FB01DC0102C001900D9241505040D8F7B8
:104D4000089511E0C3E0D1E004C0FE010E946D258A
:0C4D50002196C430D107C9F7F894FFCFBA
:104D5C00FFFFFFFF00E100000000000000009604D0
:104D6C00800000C18081000000000000002E09DAE4
:104D7C00135F0EA9035B0E000A5D0E5C0E5B0E0842
:104D8C000A580E550E000000002F09DC135F0EA907
:104D9C000358096D0965095C0E5B0E9109580E5597
:104DAC000E000000003009DE135F0EA903480994C1
:104DBC000C5D0E5C0E5B0E5A0C580E550E0000006E
:104DCC0000FF09E4135F0EA9035B0E2D0D5D0E5C55
:104DDC000EA903D70C580E550E000000003109E047
:104DEC001336096B105B0E170C5D0E5C0E5B0ED44C
:104DFC000BFC0B3209000000009309E2135F0EA9B3
:104E0C0003B1097F0D5D0EBE09A90391099409AD8B
:104E1C0009000000004B0AE6135F0EA903B1097FDD
:104E2C000D5D0E4C0AA903AD0D9409AD09000000EF
:104E3C0000690E9D145F0E5B0E5B0E5E0E5D0E5CCC
:104E4C000E5B0E590E580E550E000000000004D3D8
:104E5C00037307A903CC03B903AA0300000000FBEA
:104E6C0007760737082C080B093B08590800000087
:104E7C0000B70B8A12E11258129B0B5814E813233B
:104E8C0014AE0B4C0BBD0A0D0A00506F73736962A4
:104E9C006C792061204C4E4356206D6573736167AD
:044EAC00652E00006F
:00000001FF
