:100000000C94E0030C9408040C9408040C94080469
:100010000C9408040C9408040C9408040C94080430
:100020000C9408040C9408040C94F31C0C94621DAA
:100030000C9408040C9408040C9408040C94080410
:100040000C9419210C94941F0C9408040C9408042B
:100050000C9408040C9408040C9408040C94A91C37
:100060000C9408040C9408040C9408040C940804E0
:100070000C9408040C9408040C9408040C940804D0
:100080000C9408040C9408040C9408040C940804C0
:100090000C948A1B0C9408040C9408040C94080417
:1000A0000C9408040C9408040C9408042053746104
:1000B00074653A200020416464726573733A2000CD
:1000C0005265706F7274696E6720736C6F74200074
:1000D00020746F203A005468726F776E20737769CE
:1000E0007463683A200053776974636820526571BD
:1000F000756573743A200049676E6F72696E672088
:10010000526571756573742E0A004172744E7220C7
:10011000696E76616C69642E0A00204C4E4356204D
:1001200056616C75653A20000A456570726F6D20E6
:10013000616464726573733A2000456E7465722061
:100140006E6F746966794C4E43567265616428001F
:1001500050726F6772616D6D696E67207374617242
:10016000746564004172746E7220496E76616C69C8
:10017000642E0A0020536C6F7443563A2000536C6F
:100180006F743A2000456E746572206E6F746966F4
:10019000794C4E435677726974652800456E642029
:1001A00050726F6772616D696E67204D6F64652E66
:1001B0000A0049676E6F72696E67205265717565D6
:1001C00073742E0A0057726F6E67204D6F64756CE2
:1001D0006520416464726573732E0A0057726F6EF6
:1001E00067204172746E722E0A006E6F74696679B0
:1001F0004C4E435670726F6772616D6D696E6753D6
:10020000746F702000446973636F7665723A2000E2
:100210005374726169676874206973206E6F773AEE
:100220002000417474616368656420210A004D6F89
:1002300076696E6720746F2000456E6420706F735E
:100240006974696F6E2072656163686564002F0070
:1002500075706461746520000A0020506F776572C4
:1002600020736C6F743A2000204665656462616398
:100270006B20736C6F7420323A20002046656564F1
:100280006261636B20736C6F7420313A20002053DD
:10029000706565643A200020416464726573733A46
:1002A0002000205475726E6F75743A2000205374CC
:1002B0007261696768743A200050434139363835B5
:1002C0002050696E3A2000206B656570207570645F
:1002D0006174696E673A2000206F6E20002072659D
:1002E000706F7274696E6720696E766572736520CF
:1002F00000206F6E2000496E7075742070696E204A
:1003000000206368616E67656420746F2000537419
:100310006174652070696E200020466565646261C5
:10032000636B20736C6F7420323A20002046656541
:10033000646261636B20736C6F7420313A2000201B
:100340004475726174696F6E3A2000204164647272
:100350006573733A2000205475726E6F7574205067
:10036000696E3A200053747261696768742050693D
:100370006E3A200053747261696768740054687241
:100380006F776E002C207374617465203D200045EA
:100390006E657267697A652C20646972203D200061
:1003A0004465656E657267697A65004D61676E6563
:1003B00074207377697463682064657374727563FD
:1003C000746F720020506F77657220736C6F743A8F
:1003D000200020466565646261636B20736C6F74F6
:1003E00020323A200020466565646261636B2073A9
:1003F0006C6F7420313A20002053706565643A2098
:100400000020416464726573733A20002054757251
:100410006E6F75743A200020537472616967687456
:100420003A200041726475696E6F2050696E3A20FF
:10043000005374726169676874005468726F776EF4
:100440000044657374727563746F72210020666F67
:100450007263655F6F6E3A20004F7574707574201B
:1004600070696E20004163633A200020746F20732E
:10047000746174653A20004F7574707574207069EA
:100480006E200054726967676572696E6720736CCD
:100490006F7473004475616C20616374696F6E20C2
:1004A000736C6F742C20616464726573732C20000C
:1004B00020213C200062656361757365205F706F69
:1004C000727420004D756C7469506F72743A204ECE
:1004D0004F542061636974697661746520736C6F31
:1004E000742023004D756C7469506F72743A20410A
:1004F0006374697661746520736C6F742023004D9A
:10050000756C7469506F72743A205265736574200B
:10051000706F7274004D756C7469506F72743A200C
:10052000557064617465205F706F72743A20004D7D
:10053000756C7469506F72743A207375626164648B
:10054000726573733A200043757272656E74205F32
:10055000737562616464726573732000206E736CDE
:100560006F74733A20002062617365736C6F743A24
:1005700020004D756C7469506F7274204020626168
:100580007365616464726573732000080B00020276
:10059000020000090400000102020000052400100E
:1005A00001052401010104240206052406000107B7
:1005B00005810310004009040100020A0000000741
:1005C0000502024000000705830240000004030901
:1005D0000412010002EF02014041233680000101B4
:1005E00002030141726475696E6F204C4C430041F7
:1005F000726475696E6F204C656F6E6172646F0016
:10060000536B697070696E672070696E2034002CBE
:10061000200053657474696E672070696E4D6F6455
:100620006573206F663A200050696E20747970659A
:100630003A0050696E202300506F77657220766F04
:100640006C7461676520696E206D563A20002E003B
:100650005549443A20004E6F20647331387332306C
:1006600020666F756E6420666F72205549440020C5
:1006700062797465732052414D2066726565002071
:100680002F20004D61782023206F662070696E73E3
:100690003A20004D6F64756C652061646472657307
:1006A000733A2000556E6976657273616C206465DB
:1006B000636F64657220760020504B543A2000200E
:1006C0006163746976652070696E73206C65667409
:1006D00020696E2074686520717565756500456ECA
:1006E00064204C6F6F700A004C6F6F7020003A20CE
:1006F0000057726974652043562000206163746955
:1007000076652070696E73206C65667420696E2052
:1007100074686520717565756500446F6E65207538
:1007200070646174696E6720000000000024002777
:10073000002A002D00300000000000250028002BBA
:10074000002E0031000000000200090F0000030429
:1007500001000C000000000000000000000000008C
:1007600000000000070605040100080A0B0C0D0933
:10077000000000002300260029002C002F000404A4
:10078000040404030405020202020403020202023A
:100790000606060606060404020202040404080211
:1007A00001104080401020408040800802040180F9
:1007B0004020100201108010204040204B21A82A28
:1007C00011241FBECFEFDAE0DEBFCDBF12E0A0E004
:1007D000B1E0E4E9FDE502C005900D92AE37B10746
:1007E000D9F724E0AEE7B2E001C01D92A03CB20709
:1007F000E1F713E0CFEDD3E004C02197FE010E94A2
:10080000892DCE3DD107C9F70E94C4210C94BD2E7D
:100810000C940000CF93DF93FC0129E18EE241E0CC
:1008200050E033E071E0908190769036D1F4918180
:100830009093AE03A091AE03A1501092AD039FEF31
:100840006091AD036A1790F4C091AD03CE0FDF2F16
:10085000D11D688196276091AD036F5F6093AD03F2
:10086000EFCF9081929596709E5FE2CFAE0FBF2F33
:10087000B11D9C93F8949091AC03913059F49091F0
:10088000AB03981738F01092AC0390916F009D7FE6
:1008900090936F0078949091AC03913039F49091DB
:1008A000AB03943108F4BFCF70E0BDCF9091AC039F
:1008B00091110EC0F89490916F009F7D90936F00FE
:1008C000B59B09C090916F00906290936F007894EF
:1008D0007111A9CF51C0A091A903B091AA039C9115
:1008E0006091A803EA0102C0CC0FDD1F6A95E2F710
:1008F0009C2B9C9360918400709185006A5A7C4F78
:100900007093A7036093A6036091A6037091A70359
:1009100070938900609388007894F093A503E09326
:10092000A4031092AD031092A30390819093A203AD
:100930003093AC031092AB03B19A90916F00926028
:1009400090936F009091AC039330E1F39091A303E7
:10095000992381F0E091A003F091A103E757FF4FA5
:100960008081918101969183808383E090E0DF9183
:10097000CF9108959091AC038B3108F081502150B4
:1009800009F050CF80913A0490913B0401969093E6
:100990003B0480933A0486E090E0E9CFCF93DF9365
:1009A000CDB7DEB760970FB6F894DEBF0FBECDBFF0
:1009B000AC0141505109852F8F709A0136952795CA
:1009C0002F7740FD14C080646111806192EB9983A0
:1009D0002A838B83CE0101960E940A0460960FB68B
:1009E000F894DEBF0FBECDBFDF91CF910895806632
:1009F000EBCF80919A04E0919B04F0919C04F894D1
:100A00009181982B91832281382F30952323228343
:100A1000A7E0B0E01197F1F7918193239183A3E2CE
:100A2000B0E01197F1F790817894EFECF0E0319716
:100A3000F1F7982381E009F480E0089590919A04F9
:100A4000E0919B04F0919C04292F209580FF14C015
:100A5000F8948281822382838181892B8183A3E21E
:100A6000B0E01197F1F78281982B9283789487ED0B
:100A700090E00197F1F70895F894828182238283B0
:100A80008181892B8183AFEFB0E01197F1F78281EB
:100A9000982B928378948FE090E0EBCFFF920F93A6
:100AA0001F93CF93DF93F82E062FC8E0D0E011E01C
:100AB00081E09F2D912309F480E00E941E05110F13
:100AC0002197B1F7011113C0F894E0919B04F091C4
:100AD0009C04918180919A04809598239183E09160
:100AE0009B04F0919C049281892382837894DF9106
:100AF000CF911F910F91FF900895CF93DF9360E006
:100B000085E50E944E05C8E9D3E060E089910E9426
:100B10004E0583E0C03AD807C1F7DF91CF91089521
:100B200080919A04E0919B04F0919C04F894918147
:100B3000282F20959223918378943DE743E050E05D
:100B4000315029F1DA011197F1F790819823C1F31F
:100B5000F8949281922392839181982B9183789437
:100B6000ABE7B7E01197F1F7F89491819223918365
:100B7000A3E1B1E01197F1F79081982381E009F0AA
:100B800080E07894E3E6F6E03197F1F7089580E0AD
:100B90000895E6E6F7E0E49190917B008E2F880FB0
:100BA000880F80729F7D892B80937B00E770E064C3
:100BB000E0937C0080917A00806480937A00809139
:100BC0007A0086FDFCCF809178009091790008959D
:100BD000EF920F931F93CF93DF93FC0185EE8083F9
:100BE0008FE0818385E08283613041F589E48383EE
:100BF0008BE484838FE18583168250874783328715
:100C0000218714870387E586DF011796AF01425FCE
:100C10005F4F91E08D9187FF07C02681292B2683A6
:100C2000ED0121978F778883990FA417B50791F766
:100C3000DF91CF911F910F91EF90089563831482FC
:100C4000D9CFFC0180919703882311F13FB7F89425
:100C500082E08093E9002091F200822F90E0181644
:100C6000190614F481E090E0882339F0289844E6CE
:100C7000409396034091F1004083222339F0209164
:100C8000F200211103C02BE62093E8003FBF089536
:100C90008FEF9FEF08952FB7F89483E08093E900DA
:100CA0009091E800892F807295FF04C09091F20026
:100CB00080E4891B2FBF089520911F03260F33273F
:100CC000331F21323105ECF420916A03FC0190E0DE
:100CD00080E0243069F082E00895A0911F03219103
:100CE000AC0143505D4FA40FB52FB11D2C9301965D
:100CF000861798F380911F03680F60931F0380E0AD
:100D0000089581E00895089508950895E09171038C
:100D100080917003E81730F4F0E0EE58FC4F8081CA
:100D200090E008958FEF9FEF089590917103809167
:100D300070032FEF3FEF981748F4E92FF0E0EE58DB
:100D4000FC4F208130E09F5F90937103C9010895AB
:100D50008091700390917103891B990B0895CF9234
:100D6000DF92EF92FF920F931F93CF93DF937C015B
:100D7000CB018A0120919503222389F0EB016B01BD
:100D8000C40ED51ECC15DD0569F06991D701ED9132
:100D9000FC910190F081E02DC7010995F3CF642FFC
:100DA0000E945C06C801DF91CF911F910F91FF90C7
:100DB000EF90DF90CF900895CF93DF931F92CDB740
:100DC000DEB76983209195032223F9F020919203E5
:100DD000203258F021E030E0FC013383228390E0A0
:100DE00080E00F90DF91CF91089580919303E82FD9
:100DF000F0E0E452FD4F998190838F5F80939303DD
:100E00008093920381E090E0ECCF61E0CE01019607
:100E10000E945C06F7CF8091D40281110DC082E060
:100E20008093D00284E08093D1021092D30210927A
:100E3000D20281E08093D40280ED92E00895815047
:100E40008F3008F047C0E82FF0E0E75DF84F0C94D2
:100E5000892D46074A0738073E0742076A076A078F
:100E60006A074D07530757075B0761076A0765075E
:100E7000809180008F77809380000895809180001A
:100E80008F7DF9CF80918000877FF5CF84B58F77F4
:100E900084BD089584B58F7DFBCF809190008F77BE
:100EA000809390000895809190008F7DF9CF80917C
:100EB0009000877FF5CF8091C0008F778093C0002E
:100EC00008958091C0008F7DF9CF8091C200877F07
:100ED0008093C20008951F93CF93DF93282F30E0B3
:100EE000F901EB5BF84F8491F901E356F84FD49187
:100EF000F901E258F84FC491CC23A9F0162F8111C3
:100F00000E941F07EC2FF0E0EE0FFF1FE95CF84F87
:100F1000A591B4918FB7F894EC91111108C0D095B8
:100F2000DE23DC938FBFDF91CF911F910895DE2BDD
:100F3000F8CF10926A0381E08093690310926403F2
:100F400061E082E00E946B0761E083E00E946B0732
:100F5000E9EBF0E080818E7F808380818D7F8083CC
:100F600088E48093B80085E48093BC000895CF9313
:100F7000DF9391E09093FC028823B9F0C091B80010
:100F8000D091BA008091BC008A7B8093BC0060E065
:100F900082E00E946B0760E083E00E946B070E9482
:100FA0009907D093BA00C093B800DF91CF9108950C
:100FB000CF93DF9390E0FC01E356F84F24918258E1
:100FC000984FFC0184918823C9F090E0880F991F05
:100FD000FC01E75DF84FA591B491FC01E95CF84F85
:100FE000C591D49161110DC09FB7F8948C91209553
:100FF00082238C938881282328839FBFDF91CF9100
:101000000895623051F49FB7F8943C91822F8095F7
:1010100083238C93E8812E2BEFCF8FB7F894EC913C
:101020002E2B2C938FBFEACF3FB7F8948091CC0240
:101030009091CD02A091CE02B091CF0226B5A89B8F
:1010400005C02F3F19F00196A11DB11D3FBFBA2F5A
:10105000A92F982F8827BC01CD01620F711D811D1A
:10106000911D42E0660F771F881F991F4A95D1F79F
:101070000895CF92DF92EF92FF920F931F93CF9339
:10108000DF93D091920381E0D13208F09CC0C091EF
:1010900094030E9414086B017C0180916A03811102
:1010A0006CC082E080936A0381E0809369038FEFD4
:1010B0008093680310926703D0936603ACEDB2E0AF
:1010C000E4E4F3E080E0D8138DC0109265038091D2
:1010D0006503CC0FC82BC0936503809164038130F6
:1010E00009F084C0109264030E9414086B017C0113
:1010F000809165038093BB0080916C0390916D0398
:10110000A0916E03B0916F03892B8A2B8B2BA1F0DA
:101110000E94140800916C0310916D0320916E03DE
:1011200030916F036C197D098E099F090617170707
:101130002807390708F442C08091BC0083FDD8CF4E
:1011400085EC8093BC000E9414086B017C018091A7
:101150006A03823009F44CC0809168038F3F09F420
:1011600069C080916803803209F466C08091680389
:10117000803309F463C084E026C080916C039091B1
:101180006D03A0916E03B0916F03892B8A2B8B2B7B
:1011900009F483CF0E94140800916C0310916D0331
:1011A00020916E0330916F036C197D098E099F09A0
:1011B000061717072807390708F06FCF80916B03D0
:1011C0000E94B70785E01092930310929203109249
:1011D0009503DF91CF911F910F91FF90EF90DF90DA
:1011E000CF9008959D9191938F5F6DCF85EEA9CF9C
:1011F00080916C0390916D03A0916E03B0916F0389
:10120000892B8A2B8B2B09F4A2CF0E941408009102
:101210006C0310916D0320916E0330916F036C1974
:101220007D098E099F09061717072807390708F057
:101230008ECFC4CF80E0C7CF82E0C5CF83E0C3CFDD
:101240001F93CF93DF93162FC5EBD4E0A981BA810A
:10125000988121E020939503909394031092930337
:1012600010929203ED91FC9111970190F081E02D85
:10127000682FCD01099589819A81DC01ED91FC915E
:101280000190F081E02D612F099589819A81DF918C
:10129000CF911F910C9439088F929F92AF92BF9279
:1012A000CF92DF92EF92FF924B015C010E941408F3
:1012B0006B017C010E9414086C197D098E099F093D
:1012C000683E734081059105A8F321E0821A9108D8
:1012D000A108B10888EEC80E83E0D81EE11CF11CFD
:1012E00081149104A104B10429F7FF90EF90DF90DD
:1012F000CF90BF90AF909F908F9008952FB7F894A4
:101300006091C8027091C9028091CA029091CB028B
:101310002FBF089540918A0250918B02209188023C
:101320003091890242175307B4F49091E800957008
:10133000E1F39091E80092FD19C08093F100809153
:101340008A0290918B0201968F739927892B19F449
:101350008EEF8093E80080918A0290918B02019633
:1013600090938B0280938A0281E0089580E0089533
:10137000EF92FF920F931F93CF93DF93F82E192FC5
:10138000E62E042F81E0860F880F0E948A0983E0F1
:101390000E948A09CF2DD12FEC0EFD2EF11CCE1507
:1013A000DF05B9F007FF13C0FE0184910E948A098E
:1013B000182F80E00E948A09812321968111EFCFA6
:1013C000DF91CF911F910F91FF90EF900895888149
:1013D000EDCF81E0F5CFDF92EF92FF920F931F9355
:1013E000CF93DF93D82E8A01EB017B01E40EF51E2B
:1013F000CE15DF0559F0D7FE12C0FE0184910E9480
:101400008A0921968111F4CF0FEF1FEFC801DF91F8
:10141000CF911F910F91FF90EF90DF9008958881F9
:10142000EECF0F931F93CF93DF931F92CDB7DEB70D
:1014300082E0898342E450E06BE875E080E80E9436
:10144000EB090E940B07DC0112960D911C9101150E
:10145000110589F0D801ED91FC910280F381E02D16
:10146000BE016F5F7F4FC801099597FD04C0F80169
:1014700000851185ECCF89810F90DF91CF911F916D
:101480000F910895615030F02091F100FC0120830C
:101490000196F8CF289884E680939603089590E00B
:1014A00080E008958F929F92AF92BF92CF92DF9289
:1014B000EF92FF920F931F93CF93DF936C017B0109
:1014C0008A0180910B01882309F45CC08091970305
:1014D000882309F457C080918E0280FF05C0809157
:1014E000E00082608093E000E801B12C8AEFA82E32
:1014F00093E0892E2AE3922E209711F4BB20D9F194
:101500000E944B0681110AC0AA94AA20D9F161E079
:1015100070E080E090E00E944C09EECF8C171D0631
:1015200011F00CF08C2F9FB7F8948092E900209175
:10153000E80025FD02C09FBFDFCF282F30E0C21B8F
:10154000D30BF701815020F041914093F100FACF85
:10155000E20EF31EBB2021F09092E800B12CEBCFFD
:101560008091E80085FDE7CF9092E800BB24B3941A
:10157000209709F3F3CF5D9884E680938D021016CF
:1015800011063CF081E090E0F6019383828310E045
:1015900000E0C801DF91CF911F910F91FF90EF9074
:1015A000DF90CF90BF90AF909F908F900895CF9392
:1015B000DF931F92CDB7DEB76983DC01ED91FC911B
:1015C0000280F381E02D41E050E0BE016F5F7F4F6C
:1015D00009950F90DF91CF9108950F931F93CF93AB
:1015E000DF938C01D0E0C0E0F801EC0FFD1F6491A7
:1015F000662341F08EE394E00E94D70A892B11F014
:101600002196F2CFCE01DF91CF911F910F910895D6
:1016100083E08093E9008091F200882319F08AE347
:101620008093E80008950E944B0690E00895CF93C0
:10163000DF931F92CDB7DEB7FC018485958597FDBA
:1016400008C02FEF3FEF358724870F90DF91CF91B0
:101650000895CE0101960E942106019719F489810F
:1016600090E0F3CF8FEF9FEFF0CF0F931F93CF93C7
:10167000DF931F92CDB7DEB78C01FC018485958581
:1016800097FF0BC0CE0101960E942106019771F4CD
:10169000898190E0F80195878487F8018485958594
:1016A0000F90DF91CF911F910F9108958FEF9FEFD2
:1016B000F1CF0F931F930E947E09609346047093AD
:1016C000470480934804909349048EE394E00E9479
:1016D000350B97FF1DC00E947E09009146041091B2
:1016E00047042091480430914904601B710B820B20
:1016F000930B0091420410914304209144043091D3
:1017000045046017710782079307F8F28FEF9FEF88
:101710001F910F910895CF92DF92EF92FF92CF9396
:101720000E94590BFC0197FD4EC08D32910521F0AE
:10173000C0970A9708F040C0C12CD12C7601C0E0B8
:10174000E130F105D1F0ED32F105D9F1CF01C097CB
:101750000A9798F4AAE0B0E0A70196010E94392DFB
:101760006F01FF0FEE08FF08C60ED71EE81EF91E18
:1017700080E3C81AD108E108F1088EE394E00E94E2
:10178000170B0E94590BFC01C0970A97C8F2E13071
:10179000F105B1F2CC2341F0F094E094D094C094E0
:1017A000C11CD11CE11CF11CC701B601CF91FF90F7
:1017B000EF90DF90CF9008958EE394E00E94170B96
:1017C000AFCFC1E0DACFC12CD12C7601EDCFFC0137
:1017D0008485958597FD0BC09FB7F89482E0809330
:1017E000E9008091F2009FBF90E0019608959FB7B5
:1017F000F89482E08093E9008091F2009FBF90E02E
:1018000008958032910510F401970895880F991F6B
:10181000819708950895089508950895FC0187819A
:1018200090E00895FC01238134816217730750F022
:10183000A901485F5F4F6417750720F4621B60873A
:1018400081E0089580E0089561E0DC011F962D910C
:101850003C91232B09F060E0DC01ED91FC910284C6
:10186000F385E02D41E00994DC0116966C91169702
:1018700021E06227ED91FC910284F385E02D41E0A7
:10188000099480E0089529EA31E0FC013183208346
:1018900081E494E00C94ED0AFC0181E0611571058E
:1018A00009F480E0818B672B69F086819781958BA5
:1018B000848B84899589938B828B178A168A128EE2
:1018C000118E089580859185F2CFFC01818990E089
:1018D0000895FC018189882321F081E394E00C9430
:1018E000ED0A8AE394E0FBCFDC0151966C915197AD
:1018F00021E06227ED91FC910284F385E02D40E028
:101900000994DC0162307105C1F038F4611571058C
:1019100059F06130710559F0089563307105E9F0AF
:101920006430710549F1089512964C930895139609
:101930004C93139714965C93089518964C931897AC
:1019400019965C931997ED91FC9111970284F38598
:10195000E02D40E060E0CD01099416964C93169777
:1019600017965C931797ED91FC9111970284F3857C
:10197000E02D40E061E0EFCF1A964C931A971B964A
:101980005C93089521E731E0FC01318320838BEAE9
:1019900093E00C94ED0AFC018289882321F084E70E
:1019A00093E00C94ED0A8DE793E0FBCFFC016623F6
:1019B00019F091E0942797834683089525EC31E050
:1019C000FC01318320830C94430CDC01ED91FC91EC
:1019D0000190F081E02D09940F931F93CF93DF9333
:1019E0008B01EC0169817A816115710551F0CE019D
:1019F000F80109951816190624F00980DA81C02D1E
:101A0000F1CFCE01DF91CF911F910F9108954F92A9
:101A10005F926F927F928F929F92AF92BF92CF927E
:101A2000DF92EF92FF920F931F93CF93DF93FC010E
:101A30002281338122303105F4F05B016C012C01ED
:101A4000F4E04F0E511C7201F701C081D181209743
:101A5000D1F3B501CE010E94EC0C4C01FC010181D7
:101A6000128101151105C1F4E414F50461F7F601C2
:101A7000978386831486DF91CF911F910F91FF90FA
:101A8000EF90DF90CF90BF90AF909F908F907F901E
:101A90006F905F904F900895B501C8010E94EC0CC3
:101AA000FC0161807280F40112821182FC011282B9
:101AB0001182B801CE01F5010995F7011816190632
:101AC0006CF0D183C0837E01FFEFEF1AFF0A89819A
:101AD0009A81009781F41A8309831CC011830083C3
:101AE0007801FFEFEF1AFF0AF801818192810097D8
:101AF000D1F08C01CE01EC01DCCFEC0189819A811F
:101B00000097D9F77A8269827E01FFEFEF1AFF0A08
:101B10009BCF8C01F801818192810097D1F772826D
:101B200061827801F2CFD283C183E8CFCF93DF9374
:101B3000EC01E881F9810190F081E02DCE01099559
:101B40001816190644F4E881F9810684F785E02D1A
:101B5000CE010995EECFDF91CF910895DC01149667
:101B6000ED91FC9115971C968C911C978823B1F0F0
:101B70001A962D913C911B97621773077CF018966B
:101B8000ED91FC911997261737075CF43097C1F057
:101B90000180F281E02D2F5F3F4FF5CF30E020E054
:101BA000F2CF2617370771F481E01C968C931C97AF
:101BB0001B963C932E931A971996FC93EE931897C5
:101BC000CF010895F0E0E0E0FBCFCF9377FD0EC0AA
:101BD000FC01228133816217730744F4C42F0E94F1
:101BE000AE0DFC01C08381E0CF91089580E0FCCF71
:101BF0000E94AE0D009719F0FC018081089580E0ED
:101C00000895FC018281938108950097B1F020919D
:101C100091022817190689F080F0880F991FFC019E
:101C2000EC56FD4F808191816170DC01ED91FC915A
:101C30000284F385E02D40E0099408950F931F93EB
:101C4000CF93DF93EC010E947E090C851D852E85C4
:101C50003F85601B710B820B930B693C71058105FD
:101C6000910570F08B85882359F089859F8170E0FC
:101C700060E0890F9927991F0E94050E1F821B861D
:101C80008B85DF91CF911F910F9108951F93CF9373
:101C9000DF93EC01162F0E947E096C877D878E876B
:101CA0009F8781E08B871F83898561E070E0212F0A
:101CB000280F3327331FC901DF91CF911F910C9457
:101CC000050E0F931F93CF93DF93FC012785308977
:101CD000232B59F1EC010E947E090B851C852D8573
:101CE0003E85AB01BC01401B510B620B730B898518
:101CF0009A85B0E0A0E084179507A607B70778F4A7
:101D00008A89882371F08F859889019751F4888595
:101D100061E070E090E00E94050E188A1F8681E065
:101D200005C08F8170E060E0F5CF80E0DF91CF915A
:101D30001F910F9108950F931F93CF93DF93EC01A1
:101D400099899617F9F02F853889232BD9F481E0EA
:101D5000961708F080E0042F162F8A8B9617B8F498
:101D600081E090E0988B8F878F8161E070E090E058
:101D70000E94050E0111198B0E947E096B877C87DA
:101D80008D879E87DF91CF911F910F91089581E0FC
:101D900090E0988B8F87888570E060E0E8CFCF93E4
:101DA000DF9300D0CDB7DEB72091BC043091BD04E5
:101DB0002115310511F420EC34E0CE010196821B8F
:101DC000930B0F900F90DF91CF91089590E080E0FA
:101DD0000895089580E00895089508950895089558
:101DE00021E0FC01838194818617970709F020E0A8
:101DF000822F089508958F929F92AF92BF92CF92B3
:101E0000DF92EF92FF920F931F93CF936B017C01B0
:101E100020E030E040E85FE30E94E42B87FDE1C072
:101E200020E030EC4AE555E4C701B6010E949D2E42
:101E300018163CF4C12C30ECD32E3AE5E32E35E4F1
:101E4000F32E6091B8047091B9048091BA04909116
:101E5000BB040E94E92B4B015C0120E030E040E82C
:101E600055E4C701B6010E944A2C9B01AC01C50193
:101E7000B4010E94FC2D20E030E040E05FE30E94CE
:101E8000902D20E030E040E85FE30E948F2D6B0151
:101E90007C0120E030E040E450E40E94E42B87FD28
:101EA000A7C020E030E04FE753E4C701B6010E942D
:101EB0009D2E181634F4C12CD12C9FE7E92E93E403
:101EC000F92EC701B6010E946E2EF62E8091B6043F
:101ED0009091B7042091B50431E03093950320939D
:101EE00094031092930310929203DC01ED91FC9104
:101EF0000190F081E02D60E009958091B604909109
:101F0000B7040E943908C091B5040E9414084B011F
:101F10005C0180916A03811171C081E080936A0342
:101F2000809369039FEF9093680310926703109268
:101F300066038093650380916503CC0FC82BC09323
:101F4000650380916403813009F0B2C0109264038C
:101F50000E9414084B015C01809165038093BB00D3
:101F600080916C0390916D03A0916E03B0916F030B
:101F7000892B8A2B8B2BA1F00E94140800916C03F3
:101F800010916D0320916E0330916F0368197909E8
:101F90008A099B09061717072807390708F44FC055
:101FA0008091BC0083FDD8CF85EC8093BC000E945B
:101FB00014084B015C0180916A03813009F47AC0F6
:101FC00080916703811198C080916703E4E4F3E096
:101FD000A2E7B3E090E09817B9F121912D939F5FAC
:101FE000FACFC12CD12C20E8E22E2FE3F22E29CFFC
:101FF000C12CD12C80E4E82EFE2C63CF80916C03A1
:1020000090916D03A0916E03B0916F03892B8A2B81
:102010008B2B09F47ECF0E94140800916C03109161
:102020006D0320916E0330916F03681979098A0955
:102030009B09061717072807390708F06ACF809110
:102040006B030E94B70780E01092710380937003C6
:102050008091B6049091B704DC01ED91FC9102846B
:10206000F385E02D0995C82F682F6F76606180E0B9
:102070000E9420096F2D8EEF0E9420096C2F80E0B6
:102080000E94200965E070E080E090E00E944C0929
:102090006C2F606A80E0CF911F910F91FF90EF90BD
:1020A000DF90CF90BF90AF909F908F900C942009BD
:1020B00085EE7BCF80916C0390916D03A0916E03B0
:1020C000B0916F03892B8A2B8B2B09F474CF0E945C
:1020D000140800916C0310916D0320916E033091F0
:1020E0006F03681979098A099B09061717072807DA
:1020F000390708F060CFA3CF81E068CFFC010190E1
:102100000020E9F73197AF01481B590BBC018EE362
:1021100094E00C94520A8F929F92AF92BF920F93C9
:102120001F93CF93DF93CDB7DEB7A1970FB6F89487
:10213000DEBF0FBECDBF19A2423008F44AE08E01C7
:102140000F5D1F4F842E912CB12CA12CA501940161
:102150000E94672DE62FB901CA01EA30F4F4E05D70
:10216000D801EE938D01232B242B252B79F790E0BA
:1021700080E0109719F0CD010E947E10A1960FB655
:10218000F894DEBF0FBECDBFDF91CF911F910F91AD
:10219000BF90AF909F908F900895E95CE1CF462F5C
:1021A000682F70E090E080E00C948B10BC0190E010
:1021B00080E04AE00C948B10CF93DF93EC0185E62E
:1021C00093E00E94ED0A6AE070E08A810E94CF10DD
:1021D00086E593E00E94ED0A8E819F810E94D610D1
:1021E0008BE493E00E94ED0A8B819C810E94D610C3
:1021F0008FE393E00E94ED0A888599850E94D610AE
:102200008CE293E00E94ED0A8A859B850E94D6109D
:1022100089E193E00E94ED0A8C859D85DF91CF9145
:102220000C94D610CF93DF93EC0189EB92E00E94DF
:10223000ED0A6AE070E08A810E94CF108DEA92E098
:102240000E94ED0A888599850E94D61082EA92E064
:102250000E94ED0A8E819F810E94D61087E992E04C
:102260000E94ED0A8B819C810E94D6108EE892E03C
:102270000E94ED0A8A859B850E94D6108BE792E02A
:102280000E94ED0A8D859E850E94D61088E692E018
:102290000E94ED0A8F8598890E94D6108AE592E007
:1022A0000E94ED0A6AE070E08C850E94CF1088E5FC
:1022B00092E0DF91CF910C94ED0ACF92DF92EF92F2
:1022C000FF92CF93DF936C01990FEE08FF08F7FEA2
:1022D00019C06DE28EE394E00E94D70AEC016627F4
:1022E0007727CB016C197D098E099F094AE00E946E
:1022F0008B108C0F9D1FDF91CF91FF90EF90DF909F
:10230000CF9008954AE0C701B601DF91CF91FF90C9
:10231000EF90DF90CF900C948B101F93CF93DF93AF
:10232000EC01142F9F81992359F089854423E9F00A
:102330008F5F89878985192F181614F0198610E088
:1023400085E694E00E94ED0A8985082E000C990B21
:102350000E945D11E881F9810484F585E02D612FEB
:10236000CE01DF91CF911F9109948150E2CF0F935D
:102370001F93CF93DF93EC012A81222309F130E0F0
:10238000F901EB5BF84F8491F901E356F84F0491A2
:10239000F901E258F84F1491112379F081110E944C
:1023A0001F07E12FF0E0EE0FFF1FE059F84FA59156
:1023B000B491EC910E2381E009F480E081708E836A
:1023C0006E818F81681709F18B819C810E94CE04F8
:1023D0008A85882339F06E8181E068278885998510
:1023E0000E94CE048EE093E00E94ED0A6AE070E065
:1023F0008A810E94CF1081E093E00E94ED0A8E81D5
:1024000090E00E945D118E818F838B85DF91CF914B
:102410001F910F910895CF93DF936AE070E00E94BF
:10242000CF10EC0187E392E00E947E108C0F9D1F7D
:10243000DF91CF910895CF93DF93EC0182E795E090
:102440000E94ED0A8B819C810E94D61086E695E061
:102450000E94ED0A6AE070E089850E94CF108CE549
:1024600095E00E94ED0A8A850E940B1287E495E0B0
:102470000E94ED0A8885DF91CF910C940B12CF93C7
:10248000DF93EC0183E294E00E94ED0A6AE070E0E1
:102490008A810E94CF1087E194E00E94ED0A88852E
:1024A00099850E94D6108CE094E00E94ED0A8E81FE
:1024B0009F810E94D61081E094E00E94ED0A8B81FA
:1024C0009C810E94D61088EF93E00E94ED0A8A85D5
:1024D0009B850E94D61085EE93E00E94ED0A8D85C3
:1024E0009E850E94D61082ED93E00E94ED0A8F85B2
:1024F00098890E94D61084EC93E00E94ED0A8C85A6
:10250000DF91CF910C940B12CF93DF930E94D610E2
:10251000EC0187E392E00E947E108C0F9D1FDF91FB
:10252000CF910895CF93DF93EC0162307105C1F034
:1025300048F46115710579F06130710571F0DF9132
:10254000CF9108956330710569F164307105B9F771
:102550005B874A87F4CF4A83F2CF5C834B83EFCF0C
:10256000BA0190E080E00E94E92B2FE335E342E8D6
:1025700050E40E94FC2D0E946E2E7987688780E1CE
:1025800092E00E94ED0A888599850E948412E88174
:10259000F9810284F385E02D40E060E0CE01DF9117
:1025A000CF910994BA0190E080E00E94E92B2FE3DB
:1025B00035E342E850E40E94FC2D0E946E2E7F839A
:1025C0006E83E881F9810284F385E02D40E061E0CB
:1025D000E5CFEF92FF920F931F93CF93DF938C0180
:1025E000F62EE72E80EC90E00E94ED0AC8010E94D2
:1025F000D61085EB90E00E94ED0AE801CC0FDD1FBC
:10260000CC56DD4FE881F981838194810E94D610F8
:102610008CEA90E00E94ED0A8F2D9E2D0E9484127C
:10262000012B69F0E881F9816F2D83819481DF911D
:10263000CF911F910F91FF90EF900C94CE04DF91FA
:10264000CF911F910F91FF90EF900895CF93DF935B
:10265000EC018D859E85298D3A8D70E060E02130FA
:10266000310529F0298921110CC061E070E00E9438
:10267000E91270E060E08F859889DF91CF910C942A
:10268000E91270E060E00E94E91261E070E0F3CFCF
:102690001F93CF93DF93EC01162F662321F18E81D8
:1026A0009F819D8B8C8B8A859B854C895D892A892E
:1026B0003B894217530718F49195819591099F8B97
:1026C0008E8B8C8561E070E090E00E94050ECE015B
:1026D0000E942613198B81E090E09A8F898FDF91F9
:1026E000CF911F91089588859985DBCFCF92DF9296
:1026F000EF92FF920F931F93CF93DF93DC015996D4
:102700002D913C912230310551F480E0DF91CF9141
:102710001F910F91FF90EF90DF90CF900895EC0103
:1027200080E592E00E94ED0A8A899B890E94D6107A
:102730008EE492E00E94ED0A8C899D890E948412A9
:102740008A899B892C893D8982179307F1F0821B26
:10275000930B2E893F8937FF03C0319521953109AD
:1027600082179307A8F489E392E00E94ED0A82E0C1
:1027700090E09A8F898F8C8570E060E090E00E94F5
:10278000050ECE010E942613C0CF90E080E0E1CF7D
:10279000888D8F5F888FC98CDA8CB1E0CB16D1041D
:1027A00009F05EC08EE292E00E94ED0AEA88FB88A2
:1027B0008E899F89E80EF91EFB8AEA8A0B8D1C8D93
:1027C0006A81F80181819281208131E03093950303
:1027D000209394031092930310929203F4E06F9F5E
:1027E000B00111246A5F7F4FDC01ED91FC910190F3
:1027F000F081E02D099570E060E0F801818192811F
:102800000E94E50C70E060E0D80111968D919C91DA
:102810000E94E50CB701F801818192810E94E50CCC
:102820006F2D70E0D80111968D919C910E94E50C5E
:10283000F801818192810E9439088A899B890E94CE
:1028400084128E899F89892B49F42C893D898A8934
:102850009B892817390711F4DF8ACE8A81E056CF89
:10286000CD2809F052CF8B3F08F44FCF82E292E09F
:102870000E94ED0A81E090E09A8F898F47CF0C94F7
:102880007E10CF93DF93EC0184E994E00E94ED0A7F
:102890008B819C810E94841283E894E00E94ED0A5F
:1028A0006AE070E08F810E94CF108BE392E00E947B
:1028B0003F148885DF91CF910C940B12CF93DF9357
:1028C0000E947E10EC0187E392E00E947E108C0F44
:1028D0009D1FDF91CF910895CF93DF930E945D11EB
:1028E000EC0187E392E00E947E108C0F9D1FDF9128
:1028F000CF9108951F93CF93DF93EC01162F888516
:102900008111182F87E794E00E94ED0A6AE070E0D9
:102910008A810E94CF108BE694E00E94ED0A812FFD
:1029200090E00E946C14612F8A81DF91CF911F91FA
:102930000C946B07CF93DF93EC0189E594E00E9440
:10294000ED0A6AE070E08A810E94CF108DE494E085
:102950000E94ED0A888590E0DF91CF910C946C1471
:102960000F931F93CF93DF93EC01062F142F8A85CB
:102970009B852A8921112EC061E070E00E94E91236
:1029800070E060E08C859D850E94E9120A8B0E94B0
:102990007E096E877F87888B998B8FE893E00E94F2
:1029A000ED0A802F90E00E945D1184E893E00E9480
:1029B000ED0A812F90E00E946C14612F002389F0B2
:1029C0008A810E946B078A81DF91CF911F910F91BD
:1029D0000C940B1270E060E00E94E91261E070E07C
:1029E000D1CF8E810E946B078E819F81DF91CF9125
:1029F0001F910F910C948412CF93DF93EC0186EF1B
:102A000092E00E94ED0A6AE070E08A810E94CF1095
:102A100081EF92E00E94ED0A8B819C810E94D6108A
:102A20008DED92E00E94ED0A8A8590E00E945D1192
:102A300088ED92E00E94ED0A888599850E94D61063
:102A400087EC92E00E94ED0A8B8590E0DF91CF91B8
:102A50000C946C14CF93DF930E94ED0AEC0187E392
:102A600092E00E947E108C0F9D1FDF91CF91089500
:102A70000F931F93CF93DF93EC01062F142F8FE258
:102A800095E00E94ED0A88850E940B122885263069
:102A900071F501114BC0112329F11F828FEF94E0D2
:102AA000DF91CF911F910F910C942A1584EC94E043
:102AB0000E94ED0A89859F81890F9927991F0E949D
:102AC0006C1485EB94E00E94ED0A6AE070E08F815F
:102AD0000E94CF1080EB94E00E94ED0A8A850E944C
:102AE0000B121F82DF91CF911F910F910895002348
:102AF00091F08FEF9FEFDC018C879D87AE87BF87BA
:102B000081E090E0AC0102C0440F551F2A95E2F726
:102B10008F81842B8F8385E195E00E94ED0A8F8160
:102B2000DF91CF911F910F910C940B121123D1F2D1
:102B30002F818985820F9927991F3D8138171906A2
:102B400009F4B4CF8A85281708F0B0CF0E947E0917
:102B50006C877D878E879F8781E08B8784EE94E0EA
:102B60000E94ED0A89859F81890F9927991F0E94EC
:102B70006C1489859F81890F9927991F009709F403
:102B8000B1CF209191022817190609F008F4AACFB5
:102B9000880F991FFC01EC56FD4F80819181DC016B
:102BA000ED91FC910284F385E02D41E061E0DF913D
:102BB000CF911F910F9109940F931F93CF93DF93A0
:102BC000EC0188859985892B09F44EC08E859F85F7
:102BD000A889B989892B8A2B8B2B09F445C00E94BF
:102BE0007E090E851F8528893989AB01BC01401BF0
:102BF000510B620B730B88859985B0E0A0E011E062
:102C000084179507A607B707F8F480EA93E00E94B7
:102C10002A151E861F86188A198A60E08A810E94FA
:102C20006B0760E08E810E946B071A898A859B85FD
:102C3000111110C061E070E00E94E91270E060E0E4
:102C40008C859D850E94E912812FDF91CF911F9184
:102C50000F91089570E060E00E94E91261E070E079
:102C60008C859D850E94E91210E0EECF0F931F9393
:102C7000CF93DF938C01EB0185E092E00E94ED0A97
:102C8000F801808191810E94D61081E197E20E9433
:102C90005D1180E090E00E94082D90E09983888388
:102CA00081E197E2F80191838083888199810E9474
:102CB000D6108FE7DF91CF911F910F910895EF927A
:102CC000FF920F931F93CF93DF937C018B0180E0E2
:102CD00090E00E94082DC82FD0E0F70180819181FB
:102CE0000E94D610F801808191810E94D610CE01F9
:102CF0000E94D610F701808191818131974201F5C0
:102D0000F801808191818C179D0779F481E080938F
:102D1000870280E591E00E94ED0A8FE7DF91CF9175
:102D20001F910F91FF90EF900895019649F480E074
:102D300090E00E94082D90E0F80191838083EDCF10
:102D4000109287028FEFEACF0F931F93CF93DF93F9
:102D50008C01EB018AEE91E00E94ED0A80918702DE
:102D6000882311F101311742A1F480E090E00E9424
:102D7000082D8C171D06A9F4109287028CE991E0AA
:102D80000E94ED0A0C940000DF91CF911F910F91EA
:102D900008958CED91E0DF91CF911F910F910C94EC
:102DA000ED0A85EC91E0F7CF82EB91E0F4CFCF9381
:102DB000DF93EC010E94010C80509040A09734F406
:102DC0000E94082D90E0DF91CF910895DF91CF917F
:102DD0000C94102DCF92DF92EF92FF920F931F93DE
:102DE000CF93DF937C018B01E9018AE391E00E949C
:102DF000ED0AC7010E94D6108AE392E00E943F14B8
:102E0000C8010E94D6108AE392E00E943F148AE330
:102E100092E00E943F14888199810E94D6108DE330
:102E200092E00E943F1480918702882309F430C108
:102E300081E1E81687E2F80609F024C189E190E013
:102E40000530110509F462C00034E1E01E0710F5F9
:102E5000C8010E94D7169983888388E291E00E9476
:102E6000ED0AC8010E94010C805090400E94D610CB
:102E70008AE191E00E94ED0A888199810E94841282
:102E80008FE7DF91CF911F910F91FF90EF90DF902F
:102E9000CF9008950A3FF3E01F0709F042C00E9457
:102EA00090050E947D0561E084E40E944E0568EE75
:102EB00073E080E090E00E944C090E9490050E941F
:102EC0007D0560E08EEB0E944E050EE712E068E0A3
:102ED000C62ED12CF12CEE24E3940E94F90481112A
:102EE000FE28EE0C81E0C81AD108B9F7F801F1927A
:102EF0008F01F2E007381F0751F780917E02909111
:102F00007F0220918202207621F4887F9983888332
:102F1000B7CF203211F48C7FF9CF2034B9F78E7FF0
:102F2000F5CF0B3F83E0180759F48091980390E0A8
:102F3000982F88279983888320919903822BE6CF45
:102F40000C3FE3E01E0751F480919A0390E0982F24
:102F500088279983888320919B03F0CF0D3FF3E06E
:102F60001F0751F480919C0390E0982F8827998344
:102F7000888320919D03E2CF0E3F83E0180751F430
:102F800080919E0390E0982F8827998388832091D1
:102F90009F03D4CF80E799E20F3FE3E01E0709F4D7
:102FA000B5CF0115F4E01F0719F40E94CF0EAECF84
:102FB000013084E0180729F480917E0290917F020D
:102FC000A5CF8091C0049091C1040230E4E01E07B7
:102FD00009F49CCF0330F4E01F0719F48DB79EB7B6
:102FE00095CFC80184509440059748F5063084E099
:102FF0001807D9F068F480913604909137040530B1
:10300000144009F483CF80913404909135047ECF2D
:10301000073084E0180771F080913C0490913D04E2
:103020000830144009F472CFEECF809138049091AB
:1030300039046CCF80913A0490913B0467CF0A30F9
:10304000F4E01F07C1F40E94C905BC0190E080E0D4
:103050000E94E92B2AE137E64CE950E40E944A2C11
:1030600020E030E040E551E40E944A2C0E946E2EA0
:103070007983688305CF0B30144069F48091900206
:1030800090E044CF8AE091E00E94ED0A8FEFF9CE04
:1030900087EF90E0F9CF81E0F4CE0F931F93CF93A9
:1030A000DF938C01EB010E94010C805090406C2F4B
:1030B0000032110530F4DF91CF911F910F910C94E4
:1030C000162D7D2FDF91CF911F910F910C94242D00
:1030D00085ED8093BC0080916C0390916D03A0916D
:1030E0006E03B0916F030796A11DB11D23E0B69545
:1030F000A795979587952A95D1F72091BC0024FD37
:1031000003C010926A03089540916C0350916D03BF
:1031100060916E0370916F03452B462B472B69F32B
:103120000097A105B10541F025E32A95F1F70000CC
:103130000197A109B109E1CF80916B030C94B70706
:10314000FF920F931F93CF93DF93DC0112960D91A3
:103150001C9113970115110559F4ED91FC91048010
:10316000F581E02DDF91CF911F910F91FF90099490
:10317000F62EEC0183E090E00E94BF2A2C813D8175
:10318000FC0132832183F0829D838C830F5F1F4F6C
:103190001B830A831C8681E0DF91CF911F910F91E1
:1031A000FF900895DF92EF92FF920F931F93CF93BA
:1031B000DF93EB01642FDC0112964D915C91139724
:1031C000C417D5076CF0ED91FC910480F581E02DDA
:1031D000DF91CF911F910F91FF90EF90DF900994B5
:1031E000209731F4ED91FC910680F781E02DF0CF2E
:1031F000D62E8C0183E090E00E94BF2A7C01FC0166
:10320000108212821182BE0161507109C8010E94B0
:10321000AE0DD701DC92FC012181328112963C93E4
:103220002E931197F282E182D80112968D919C9192
:103230001397019613969C938E9312971C961C924B
:1032400081E0DF91CF911F910F91FF90EF90DF9080
:1032500008951F93CF93DF93EC01162F83E090E046
:103260000E94BF2AFC011282118210832C813D81B1
:10327000232B89F0EE81FF81928381839F838E834C
:103280008A819B8101969B838A831C8681E0DF91E2
:10329000CF911F9108959D838C83F0CFBF92CF92E1
:1032A000DF92EF92FF920F931F93CF93DF932091C2
:1032B0008702222309F4A9C0E52EF42EEB018C012C
:1032C00085E891E00E94ED0AC8010E94D6108AE3C9
:1032D00092E00E943F14CE010E94D6108AE392E051
:1032E0000E943F148AE392E00E943F148F2D9E2D8E
:1032F0000E94D6108DE392E00E943F1401311742E4
:1033000009F07FC081E0C034A1E0DA0708F5CE0102
:103310000E94010C0E94D61081E0C032D10508F055
:1033200082E06AE070E00E94CF106AE070E08F2DCA
:103330000E94CF106F2D7E2DCE010E944D18CE0120
:103340000E94D7160E94D610C032D10558F48FE7DC
:10335000DF91CF911F910F91FF90EF90DF90CF9071
:10336000BF900895A097CE016AE070E00E94532DAF
:10337000D62EB72E88E392E00E943F148EE791E0AC
:103380000E94ED0A6AE070E08D2D0E94CF1084E764
:1033900091E00E94ED0A0D2D1B2D2AE0209FC00117
:1033A000219F900D1124C81BD90BCE010E94D6106D
:1033B00088E392E00E943F1480919102D81638F67B
:1033C000000F111F0C561D4FF80180819181DC0107
:1033D000ED91FC910684F785E02D4F2D5E2DBE0109
:1033E0000995F80180819181DC01ED91FC910680C5
:1033F000F781E02D09956D2D88EA94E00E94291946
:10340000A6CF84E691E00E94ED0A8FEFA1CFAF92A4
:10341000BF92CF92DF92EF92FF920F931F93CF93C1
:10342000DF937C01062FD42E86EE90E00E94ED0AF9
:10343000C7010E94D6106AE38EE394E00E94D70A87
:1034400087E492E0DD2011F080E492E00E943F14D6
:1034500085E592E00E943F1481E592E0002311F09F
:103460008EE492E00E945E1410E094E1C92E8091F7
:103470009102181708F066C0C12FD0E0CC0FDD1FF5
:10348000CE018C569D4F5C01DC018D919C91DC013D
:10349000ED91FC910480F581E02DB7010995882319
:1034A00009F44EC0F5018081918141E0011101C014
:1034B00040E061E0D11001C060E0DC01ED91FC91E1
:1034C0000284F385E02D0995612F88EA94E00E943B
:1034D0002919CC56DD4F88819981DC01ED91FC9151
:1034E0000288F389E02D099588819981DC01ED91AD
:1034F000FC910688F789E02D09951C9D9001112407
:10350000BC01C901855D9F4F0E94242D86ED90E08E
:103510000E94ED0A6AE070E0812F0E94CF1080EDDA
:1035200090E00E94ED0A88819981DC01ED91FC9187
:103530000088F189E02D099588E392E00E943F140C
:103540001F5F95CFDF91CF911F910F91FF90EF906B
:10355000DF90CF90BF90AF900895CF93DF93EC01B1
:103560000E94430CCE01DF91CF910C945B2B0C9405
:103570005B2B0C945B2B0C945B2B0C945B2BCF93F1
:10358000DF93EC010E94C20CCE01DF91CF910C942D
:103590005B2BCF93DF93EC010E94DE0CCE01DF9119
:1035A000CF910C945B2BEF92FF921F93CF93DF93FD
:1035B000FC016281738110E016161706DCF4EC0141
:1035C000148661307105E9F0625071090E94AE0DF8
:1035D0007C01FC0181819281FC0110810E945B2BA6
:1035E000F70112821182FF82EE828A819B8101970C
:1035F0009B838A83812FDF91CF911F91FF90EF9062
:10360000089584819581FC0110810E945B2B1D82AD
:103610001C821F821E821B821A82ECCFEF92FF92C5
:103620001F93CF93DF93DC0112962D913C9113975A
:103630001216130634F521303105C1F0EC018C81EE
:103640009D81FC01E180F28010810E945B2BFD8254
:10365000EC828A819B8101979B838A831C86812FC0
:10366000DF91CF911F91FF90EF900895ED91FC9124
:103670000484F585E02DDF91CF911F91FF90EF90AD
:10368000099410E0ECCF1F93CF93DF9377FD3EC0FA
:10369000DC0112962D913C91139762177307B4F5D4
:1036A0006115710549F4ED91FC910684F785E02DD3
:1036B000DF91CF911F9109942150310926173707C7
:1036C00031F4ED91FC910484F585E02DF1CFEC010E
:1036D000615071090E94AE0DDC011196ED91FC91D3
:1036E000129710812181328112963C932E9311976B
:1036F000CF010E945B2B8A819B8101979B838A83E8
:103700001C86812FDF91CF911F91089510E0F9CF92
:103710000C945B2B1F920F920FB60F9211242F93D4
:103720003F934F935F936F937F938F939F93AF9349
:10373000BF93EF93FF938091B900887F803609F49F
:103740004AC0F0F5883209F4A7C018F5803109F4B1
:103750009BC0B8F4882309F4F9C0883009F494C0F8
:10376000FF91EF91BF91AF919F918F917F916F9159
:103770005F914F913F912F910F900FBE0F901F902F
:103780001895883109F488C0803251F78093680316
:1037900014C0803409F49DC040F48033B9F38833F9
:1037A000F9F68093680385ECB0C0803509F485C0D4
:1037B000883509F496C0883499F60E946818D0CFED
:1037C000883909F48CC038F5883729F050F48836E8
:1037D00011F0803729F683E080936A031092430347
:1037E00057C0883809F47BC0803919F0803809F057
:1037F000B7CF80914303803208F071C0E09143035A
:1038000081E08E0F809343038091BB00F0E0ED5D7B
:10381000FC4F80833DC0803B39F0E0F4803A09F4EE
:1038200079C0883A09F09CCF84E080936A031092B3
:10383000200310921F03E0911D03F0911E030995D0
:1038400080911F0381110FC081E080931F031092AC
:10385000FD0209C0803C09F4A6CF883C09F4A3CF3F
:10386000883B09F07DCFE091200381E08E0F8093AB
:103870002003F0E0E350FD4F80818093BB009091E6
:10388000200380911F0329C0809165038093BB00B2
:1038900085EC8093BC0064CF9091670380916603B0
:1038A000981758F5E091670381E08E0F80936703C6
:1038B000F0E0EC5BFC4F8081E9CFE091670381E0B1
:1038C0008E0F809367038091BB00F0E0EC5BFC4FB0
:1038D000808390916703809166039817C8F285E80A
:1038E000D8CFE091670381E08E0F809367038091CA
:1038F000BB00F0E0EC5BFC4F808380916903811199
:103900005CCF81E08093640384EA8093BC001092D2
:103910006A0326CF85EC8093BC0010926A038091E5
:103920004303803230F4E0914303F0E0ED5DFC4F5F
:1039300010826091430370E0E0912103F091220333
:1039400083E293E00995109243030ACF1092680333
:1039500034CF1F920F920FB60F9211242F933F93E3
:103960008F939F93AF93BF938091C8029091C902A8
:10397000A091CA02B091CB023091C70223E0230F7D
:103980002D3758F50196A11DB11D2093C7028093D4
:10399000C8029093C902A093CA02B093CB0280914F
:1039A000CC029091CD02A091CE02B091CF020196AF
:1039B000A11DB11D8093CC029093CD02A093CE02A5
:1039C000B093CF02BF91AF919F918F913F912F9173
:1039D0000F900FBE0F901F90189526E8230F0296A8
:1039E000A11DB11DD2CF1F920F920FB60F921124BD
:1039F0008F939F938091E1009091E100937F90934A
:103A0000E10083FF0FC01092E90091E09093EB007A
:103A10001092EC0092E39093ED001092970398E0DF
:103A20009093F00082FF22C093E09093E900909180
:103A3000F200992319F09AE39093E80090918D0297
:103A4000992341F090918D02915090938D029111A4
:103A500001C05D9A90919603992341F0909196034D
:103A6000915090939603911101C0289A84FF18C039
:103A70008091E2008E7E81608093E2008091E1007F
:103A80008F7E8093E10080918E028E7E8061809394
:103A90008E029F918F910F900FBE0F901F901895DF
:103AA00080FFF7CF8091E2008E7E80618093E200FC
:103AB0008091E1008E7E8093E10080918E028E7E67
:103AC0008160E5CF1F920F920FB60F921124CF9213
:103AD000DF92EF92FF920F931F932F933F934F9399
:103AE0005F936F937F938F939F93AF93BF93EF9366
:103AF000FF93CF93DF93CDB7DEB76C97DEBFCDBF1B
:103B00001092E9008091E80083FF25C068E0CE01B3
:103B100045960E94420A82EF8093E8008D8987FFD4
:103B200039C09091E80090FFFCCF982F907609F073
:103B300034C19E894F89588D2F89F88C911131C0DD
:103B4000803861F580918F028093F1001092F1002E
:103B50008EEF8093E8006C960FB6F894DEBF0FBE30
:103B6000CDBFDF91CF91FF91EF91BF91AF919F9129
:103B70008F917F916F915F914F913F912F911F9105
:103B80000F91FF90EF90DF90CF900F900FBE0F90AE
:103B90001F9018959EEF9093E800C7CF1092F10008
:103BA000D5CF913059F48111D3CF4130510581F6F1
:103BB00080918F028D7F80938F02CACF933049F41A
:103BC0008111C6CF4130510519F680918F02826074
:103BD000F2CF953041F48091E80080FFFCCF20685F
:103BE0002093E300B5CF963009F0A9C00B8D1C8D52
:103BF00022E01092E90010928B0210928A02F212D7
:103C00002EC010928902109288020E94110A1F820F
:103C100099E09983FA8291E09E8390EA98879AEFDF
:103C2000998720918A0230918B02275F3F4F3C8316
:103C30002B838D831092E90010928B0210928A02DE
:103C4000109389020093880249E050E0BE016F5F43
:103C50007F4F80E00E94EB090E94110A79CF1093F8
:103C60008902009388020E940B07DC0112960D91D5
:103C70001C910115110509F451C1D801ED91FC9178
:103C80000480F581E02DBE016B5E7F4FC801099570
:103C9000009709F03EC1F80100851185EACFF3E0F5
:103CA000FF120EC08F89882309F440C0823061F46E
:103CB00040E860E18FEE95E00E94B809811148CF9D
:103CC00081E28093EB0047CF813029F440E86BE03C
:103CD00083EE95E0F1CF833099F70E940B07DC016A
:103CE0001296ED90FC908E010F5F1F4F6801E1145A
:103CF000F10479F0D701ED91FC910680F781E02D78
:103D0000B801C7010995080F111DF701E084F1847E
:103D1000EECFD8011C92F60101900020E9F731970F
:103D2000BF016C197D0940E0C601C6CF6DEC75E09E
:103D3000FB01449150E080E80E94EB0909CF9730E5
:103D400009F4BECF983021F481E08093F10000CFD8
:103D5000993009F0FDCE837009F0B2CFE3E1F1E0D4
:103D600081E031E096E32191222371F08093E90014
:103D70003093EB00DF0111972C912093EC0090938E
:103D8000ED008F5F873079F78EE78093EA0010921D
:103D9000EA008F8980939703DBCE8B8D9C8D1092E8
:103DA000E90010928B0210928A029093890280930C
:103DB0008802898D811192C08E899D89913A49F43A
:103DC000813209F07DCF47E050E064E071E080E0AF
:103DD000B3CF913209F074CF833269F48F89988D13
:103DE000B0E0A0E08093000190930101A093020154
:103DF000B0930301ADCE803269F48091E80082FF78
:103E0000FCCF67E084E091E00E94420A8BEF809350
:103E1000E8009ECE823209F09BCE8F8980930B0101
:103E2000EEEFFFE7859194918B3F9C4D51F1E0E0DF
:103E3000F8E08091040190910501A0910601B091F4
:103E40000701803B9440A105B105F1F480910B017D
:103E500080FD1AC0EE3F8AE0F80789F587E797E70B
:103E6000918380838091600080938C0288E19BE045
:103E70000FB6F894A895809360000FBE90936000F1
:103E800067CEEEEFFAE0D5CF8081918187379747F3
:103E900009F05ECEA89580916000886180936000F3
:103EA00080918C0280936000EE3F2AE0F20789F057
:103EB0008091FE0A9091FF0A9183808349CE808190
:103EC00091818737980751F29093FF0A8093FE0AF9
:103ED000C5CF1092FF0A1092FE0A3ACE0E940B073D
:103EE000DC0112960D911C910115110509F4E8CE23
:103EF000D801ED91FC910190F081E02DBE016B5E47
:103F00007F4FC8010995811123CEF80100851185E5
:103F1000EBCF181619060CF41BCED2CEF1E0FF122F
:103F2000BECE61ED75E004CF1F920F920FB60F92D7
:103F300011242F933F934F935F936F938F939F938E
:103F4000AF93BF93CF93DF93EF93FF938091A6033B
:103F50009091A70380549C4F9093A7038093A6034E
:103F60008091A6039091A703909389008093880085
:103F70008091AB038F5F8093AB038091AC0384305F
:103F8000E9F58091AB03893000F58091A20390E0C0
:103F9000959587958093A2034C9B05C08091A203C1
:103FA00080688093A203FF91EF91DF91CF91BF9141
:103FB000AF919F918F916F915F914F913F912F9111
:103FC0000F900FBE0F901F901895B59A80916F00BB
:103FD000806280936F008091A0039091A1034C991F
:103FE00030C0FC01E957FF4F808191810196918398
:103FF00080831092AB0381E08093AC038091AC038B
:10400000833009F049C0E091A903F091AA038081AF
:104010004091A80329B190E0042E02C095958795A0
:104020000A94E2F730E054E0359527955A95E1F788
:10403000822780FD17C01092AB0382E08093AC030F
:104040002BC04091A203FC01E058FF4F208131E0DA
:10405000320F3083820F911DDC014C9337FFC9CFA3
:104060001082C7CF8091AB03893008F03EC0209109
:10407000A20381E090E001C0880F4A95EAF79081A1
:1040800020FF31C08095892380838091A20390E036
:10409000959587958093A2038091AC03823099F423
:1040A0008091AB03811194C0E091A903F091AA0320
:1040B00080819091A80321E030E001C0220F9A9501
:1040C000EAF7822B80838091AC03813009F06BCFBB
:1040D0008091AB038111A2C0B59A80916F0080627C
:1040E00080936F0060CF892BCFCF8091AB03893055
:1040F00059F4208181E090E001C0880F4A95EAF7E9
:10410000809582238083C8CF8091AD038F5F809399
:10411000AD039091AE03891750F51092AB038091D7
:10412000A4039091A503A091AD03A80FB92FB11DD1
:104130008C918093A203808121E030E001C0220FA6
:104140004A95EAF7822B80838091840090918500C4
:104150008A5A9C4F9093A7038093A6038091A6034D
:104160009091A703909389008093880095CF81E078
:104170008093A303E091A403F091A5034091A003D1
:104180005091A103808180768036C9F4818130E02E
:1041900020E0EA01C058DF4F2817B0F4DF01A20F7A
:1041A000B31F6C91A88191E09A0F9883A40FB52F4B
:1041B000B11D6C9397FD18822F5F3F4FEDCF80812B
:1041C000829586708E5FE3CF1092AB0381E036CF8D
:1041D0008091AB038F3008F476CFE091A903F09182
:1041E000AA0320813091A80381E090E001C0880FEC
:1041F0003A95EAF78095822380831092AB0381E0A1
:104200008093AC03E091A003F091A103E357FF4F2B
:104210008081918101969183808355CF8091AB03FA
:10422000883308F4C0CE1092AC0380916F008D7F6C
:1042300057CF1F920F920FB60F9211248F939F9317
:10424000EF93FF93EFE6F0E080818F7D8083809194
:1042500086009091870080569A4F9093A703809391
:10426000A6038091A6039091A70390938900809361
:104270008800B19A80818260808384E08093AC035F
:104280001092AB03FF91EF919F918F910F900FBE12
:104290000F901F901895EEE8F4E01382128248EE1A
:1042A00053E060E070E044835583668377838DEF4D
:1042B00091E091838083AEE3B4E013961C921E924A
:1042C000129714964D935D936D937C9317978FE09F
:1042D00092E011969C938E938FEF9FEF1D969C9387
:1042E0008E931C97A5EBB4E080E48C931296FC931C
:1042F000EE931197E8EAF4E081E292E09183808303
:1043000015821482178216821382128211861086F9
:1043100013861286148660E085E10E94D807E2EBDE
:10432000F7E0E491AAE9B4E0EC93E3E9F7E0E49183
:10433000F0E0EE0FFF1FE059F84F8591949112962F
:104340009C938E9311971B961C921B971D961C9203
:104350001D971C961C921C971A961C921A971996D8
:104360001C92199718961C92189717961C921797DB
:1043700016961C92169715961C92159714961C92D9
:10438000149713961C920895CF93DF93CDB7DEB7A1
:1043900068970FB6F894DEBF0FBECDBF789484B592
:1043A000826084BD84B5816084BD85B5826085BD31
:1043B00085B5816085BD80916E00816080936E00BF
:1043C00010928100809181008260809381008091B1
:1043D0008100816080938100809180008160809362
:1043E0008000809191008260809391008091910083
:1043F0008160809391008091900081608093900013
:104400008091C10084608093C1008091C10082606E
:104410008093C1008091C10081608093C100809130
:10442000C30081608093C3008091C000826080934C
:10443000C0008091C20081608093C20080917A00A8
:10444000846080937A0080917A00826080937A0001
:1044500080917A00816080937A0080917A008068F0
:1044600080937A001092970310928F0210928E021E
:104470008091D70081608093D70080EA8093D80034
:1044800089B5806189BD89B5826089BD89B5282FCC
:1044900021702C8B80FFFACF61E070E080E090E02B
:1044A0000E944C098091D8008F7C80618093D80055
:1044B0008091E000807F8093E0008091E1008E7E1B
:1044C0008093E1008DE08093E200559A209A8FEF6F
:1044D0009FEF90934B0480934A0410910B016AE084
:1044E00070E080E090E00E944C091123B1F384EA6F
:1044F00096E00E94ED0A80E799E20E946C1483E93D
:1045000096E00E94ED0A80E090E00E94082D0E9453
:104510000B12EFEAF3E08FE8DF011D928A95E9F7CD
:1045200061E085E00E94D807E2EAF7E02491E3E841
:10453000F7E0E491F0E0EE0FFF1FE95CF84F4591E2
:10454000549180E091E031E0291741F08F5F932F83
:10455000082E01C0990F0A94EAF7F6CF5093AA03E8
:104560004093A9038093A8038FEA93E09093A1035B
:104570008093A0035498E091A903F091AA032081AD
:104580003091A80381E090E001C0880F3A95EAF7E6
:104590008095822380831092800081E08093810047
:1045A0001092AC03B59A80916F00806280936F0087
:1045B00080918100887F81608093810085E090E018
:1045C0000E94082D80939102893118F088E1809330
:1045D000910283E896E00E94ED0A6AE070E0809123
:1045E00091020E94CF108FE796E00E94ED0A89E1C8
:1045F00090E00E946C140E94CF0E0E946C14812CDB
:1046000080919102881608F0DFC2082D10E0C801E1
:10461000885F9F4F0E94082D898BB4E18B9E3001EB
:104620001124C301815E9F4F0E94102D1C0181E067
:10463000E2E02E16310408F080E091E0F5E02F165C
:10464000310409F090E0892B21F428E0221631048E
:1046500019F422242A94312CC3018F5D9F4F0E94AC
:10466000102D2C01922CA801440F551F5B8B4A8BF7
:104670005989543009F4D4C1B0F4523009F4A7C0B8
:1046800008F08AC1513009F41BC186E090E00E9415
:10469000BF2AFC0121EE31E03183208385829282A2
:1046A00054824382E4C17989763009F458C208F40F
:1046B000E5C1763651F7C3018D5D9F4F0E94102DE5
:1046C0007C01C3018B5D9F4F0E94102D9E8B8D8BB3
:1046D000C301895D9F4F0E94102D988F8F8BC3015E
:1046E000835D9F4F0E94102D5C01C301815D9F4F30
:1046F0000E94102D6C01C3018F5C9F4F0E94102DF2
:10470000982E8DE190E00E94BF2A8C01DC01159665
:104710008C92159712962C92129714965C924E9248
:104720001397EF89F88D1B96FC93EE931A971C96BE
:104730009C921C975396FC92EE9252975596FC923F
:10474000EE9254971E96BC92AE921D975096DC92B4
:10475000CE921F9757961C921E92569758961C926F
:1047600058975A961C921E92599725EC31E0119653
:104770003C932E9345EB54E05C965C934E935B9791
:10478000B70190E080E00E94E92B2FE335E342E897
:1047900050E40E94FC2D0E946E2ED80119967C9345
:1047A0006E931897ED89FE89BF0190E080E00E942A
:1047B000E92B2FE335E342E850E40E94FC2D0E94F0
:1047C0006E2ED80117967C936E93169769C0C3011D
:1047D0008D5D9F4F0E94102D7C01C3018B5D9F4F0B
:1047E0000E94102D9E8B8D8BC301895D9F4F0E946F
:1047F000102D5C01C301835D9F4F0E94102D988F87
:104800008F8BC301815D9F4F0E94102D6C01C301EE
:104810008F5C9F4F0E94102D382E8BE190E00E94FC
:10482000BF2A8C01DC0115968C92159712962C925A
:10483000129714965C924E921397E9EAF1E0119662
:10484000FC93EE931996FC92EE9218972D893E896F
:1048500017963C932E9316971B96BC92AE921A977E
:104860001C963C921C975396FC92EE92529755964A
:10487000FC92EE9254974F89588D1E965C934E93FE
:104880001D975096DC92CE921F9757961C921E92BF
:10489000569758961C9258975A961C921E92599762
:1048A000EA89FB89EC56FD4F11830083C301855DC6
:1048B0009F4F0E94102DBC01C8010E944C0C42C0A9
:1048C000C3018D5D9F4F0E94102D582F5170C52E32
:1048D00096958795782F7170D72EC3018B5D9F4F6A
:1048E0000E94102D8C018CE090E00E94BF2A7C0178
:1048F000DC0115968C92159712962C9212971496AD
:104900005C924E921397EDE1F1E01196FC93EE93D9
:10491000FFEF2F1203C08EEF12968C9362E0D70147
:1049200012968C910E94D807F701168221E0278306
:10493000C28611870087D386EA89FB89EC56FD4F32
:10494000F182E08282E396E00E94ED0A882D0E94C7
:104950000B1288E296E00E94ED0A89890E940B12F0
:10496000EA89FB89EC56FD4F80819181DC01ED9154
:10497000FC910680F781E02D0995682D88EA94E086
:104980000E9429190E94CF0E0E945D118FE696E0C9
:104990000E942A15839434CEC3018D5D9F4F0E94DF
:1049A000102D382F3170E32E96958795482F417042
:1049B000F42E8AE090E00E94BF2A8C01DC0115965B
:1049C0008C92159712962C92129714965C924E9296
:1049D0001397E9E3F1E0ED93FC93F4E02F1651F027
:1049E00080E096E00E942A1561E0D80112968C9131
:1049F0000E94D807F801168260E0C8010E947A146C
:104A0000D8011796EC92179719961C921997189639
:104A1000FC92EA89FB89EC56FD4F1183008392CF0B
:104A2000C3018D5D9F4F0E94102DE82EC3018B5D49
:104A30009F4F0E94102DF82EC301895D9F4F0E9449
:104A4000102D8C01E98A83E190E00E94BF2AFC01CD
:104A5000858222825482438225E531E0318320839E
:104A600039893783F08612870187108A1786AA89C9
:104A7000BB89AC56BD4FED93FC9364CFC3018D5DF4
:104A80009F4F0E94102D7C01C3018B5D9F4F0E94A0
:104A9000102D1C01C301875D9F4F0E94102D6C01DA
:104AA000C301855D9F4F0E94102D5C0181E042E0B3
:104AB000E416F10408F080E091E055E0E516F10419
:104AC00009F090E0892B21F478E0E716F10419F45D
:104AD000EE24EA94F12C83E190E00E94BF2A8C013D
:104AE000DC0115968C92159712969C92129714964B
:104AF0005C924E921397E1E7F1E01196FC93EE93EE
:104B00001796FC92EE92169719963C922E92189751
:104B10001B96DC92CE921A971D96BC92AE921C9771
:104B200061E0892D0E94D80761E0D80116968C912A
:104B30000E94D80782E196E00E94ED0A6AE070E0E8
:104B4000F80182810E94CF108FE096E00E94ED0A6A
:104B5000D80116968D919C910E9484125ACFC30160
:104B60008D5D9F4F0E94102DE82EC3018B5D9F4FDE
:104B70000E94102DF82E80E190E00E94BF2A8C0147
:104B8000FC0185822282548243822DE831E0318308
:104B90002083E1861086F2868FEF9FEFDC01848709
:104BA0009587A687B7871386EA89FB89EC56FD4F60
:104BB00011830083C301855D9F4F0E94102DBC01AE
:104BC000C8010E94460EBECE809190028260809302
:104BD00090021092A5041092A7041092A6041092BD
:104BE000A4041092A3041092A2041092A1041092A3
:104BF000A00410929F0410929E0410929D048BE7D3
:104C000092E00E943F146AEF70E080E090E00E9422
:104C10004C098091A704811104C00E949005811164
:104C200046C11092A5041092A7041092A6048BE727
:104C300092E00E943F141092A5041092A7041092D3
:104C4000A6041092A4041092A3041092A20410923D
:104C5000A1041092A00410929F0410929E0410923E
:104C60009D04109298031092990310929A03109247
:104C70009B0310929C0310929D0310929E0386E565
:104C800096E00E942A151092710310927003109200
:104C90009303109292030E94990783E896E0909301
:104CA0001E0380931D0384E896E090932203809373
:104CB000210360E880E00E9420096AE070E080E063
:104CC00090E00E944C0960E070E08AE794E40E9462
:104CD000FB0E80E498E7ADE7B1E08093B8049093D1
:104CE000B904A093BA04B093BB0460E070E08CE810
:104CF00092E40E94FB0E60E084E10E94D80788E302
:104D000096E00E94ED0A0E94C905BC0190E080E097
:104D10000E94E92B2AE137E64CE950E40E944A2C34
:104D200020E030E040E551E40E944A2C0E946E2EC3
:104D3000CB010E94841289E592E00E945E1420E07B
:104D4000222E20E0322E80E0A82E80E0B82E90E0C7
:104D5000892E90E0992E2091AA043091AB04211560
:104D6000310509F43FC08091C6028F5F8217130698
:104D70000CF017C18093C6026091C60270E088EA09
:104D800094E00E94F80DE82FF0E0EE0FFF1FEC56C4
:104D9000FD4F80819181DC01ED91FC910288F389C6
:104DA000E02D099581111EC08AE197E00E94ED0A6D
:104DB0006091C60270E088EA94E00E94F80D0E94BB
:104DC0000B126091C60270E088EA94E00E94431BD7
:104DD0008091AA049091AB040E945D118BEF96E044
:104DE0000E942A158EE394E00E94E70B181619061C
:104DF000FCF48EE394E00E94170B87379105C1F411
:104E00000E948B0B6B010E948B0B2B0181EF96E0B4
:104E10000E94ED0AC6010E94D6108EEE96E00E9416
:104E2000ED0AC2010E948412B201C6010E944D180F
:104E30008091300490912F04891709F458C1E82F0C
:104E4000F0E0E155FC4FF080F7FEEFC090913104A7
:104E5000891751F020913604309137042F5F3F4F6E
:104E6000309337042093360480933104BFEFB0931E
:104E700032048F2D8076803609F096C0109233046C
:104E8000809130048F5F80933004E0913104282FAB
:104E90002E1B87FD109230048091320490913304D0
:104EA000291709F4D2C0F826F0923204C1CF60E08D
:104EB00080EF0E944E050C89E12CD12C11E00E945C
:104EC000F904F82E0E94F904B1E0FB1236C08130DB
:104ED00009F052C0113408F4A4CED092A504D11028
:104EE00003C081E08093A70480919D04882309F486
:104EF00098CEADE9B4E038E9E32E33E0F32EF701C4
:104F00008D91819323E0E03AF207D1F780E596E0B6
:104F10000E94ED0A10E06AE070E0812F0E94CF103D
:104F200060E170E0D7018D917D010E94CF101F5F7D
:104F3000173089F78EE496E0A4CEEE2DF0E0F8125B
:104F400011C08091A5041817A8F4DF01A656BB4F25
:104F500013968C91802381F4F12C193010F4109366
:104F6000A604D12EE656FB4F8381902F909589237E
:104F700083830AC08113F0CFEE2DF0E0E656FB4F9D
:104F80008381802B8383FC888F2D0E941E051F5FE9
:104F9000000F11F4E3940C89E7E0EE1508F08FCFD1
:104FA00099CF1092C602E8CE8F2D829586708E5FC3
:104FB000809333042091310480913304820F992728
:104FC000991F813891050CF45BCF00E8021BF8941F
:104FD00040912F0480913104841770F5E42FE81B71
:104FE0008E2F80932F04789460913104461738F502
:104FF00010E050E06FEA73E0C80181559C4F0E94B9
:10500000A22E6091310470E061557C4FA8018FEAB7
:1050100093E00E94A22E8091300490913104891B6C
:1050200080933004109231042BCF8091330481118E
:1050300027CFF0923304BECF802F840FD2CF461BF0
:1050400050E070E061557C4FE2CFF81243C0F0E0D1
:10505000E155FC4F20913404309135042F5F3F4FD0
:1050600030933504209334049091300490933104AC
:10507000309709F418CFF0939302E093920230979F
:1050800009F48CC17181272F30E06281462F50E0F6
:10509000CA019695982F882797958795807897705D
:1050A000872B932BA081A23B09F459C10196A13B08
:1050B00009F489C1F8F4A33809F478C1A03B09F4D4
:1050C0007DC1A238F9F480E090E0892B09F458C141
:1050D00080E071C120913604309137042F5F3F4F3B
:1050E0003093370420933604F0E0E0E0BDCFF0E0E9
:1050F000E0E0C1CFAC3B09F479C108F0E7C0A43BC4
:1051000009F4ABC188EE96E00E94ED0A809192020C
:10511000909193020E945D11E0909202F0909302B0
:1051200088EB96E00E94ED0A6AE070E0F70180816A
:105130000E94CF108BE392E00E943F1460E170E088
:10514000D70111968C910E94CF108BE392E00E94C0
:105150003F1460E170E0F70182810E94CF108BE381
:1051600092E00E943F1460E170E0D70113968C91A9
:105170000E94CF108BE392E00E943F1460E170E048
:10518000F70184810E94CF108BE392E00E943F14CC
:1051900060E170E0D70115968C910E94CF108BE3EF
:1051A00092E00E943F1460E170E0F70186810E9466
:1051B000CF108BE392E00E943F146701F7E0CF0E1F
:1051C000D11C2FE0E20EF11C60E170E0D6018D9160
:1051D0006D010E94CF108BE392E00E943F14CE1429
:1051E000DF0491F788E392E00E947E10C090920263
:1051F000D0909302F6018081853E19F08D3E09F032
:1052000090C184E692E00E945E14D60111968C91C2
:1052100011978F3009F085C113968C9113978530C3
:1052200009F07FC114968C91149781117AC116965A
:105230004C91F6019601295F3F4F81E0942F98230E
:1052400019F0978190689783880F3196E217F307DA
:10525000A9F7D60116961C92169715968C9115975C
:10526000803209F463C1813209F05BC117960D9158
:105270001C910F3F100709F0FCC0D60119968D91C3
:105280009C911A97892B09F0F4C01B968D919C91E3
:10529000019609F0EEC0B601655F7F4FCF010E9415
:1052A00036168F3709F03DC1F60103851485478115
:1052B0005085E12C30E020E06281CE0101960E9411
:1052C000E805CE0101960E940A042BC1AD3B09F40A
:1052D00057C0A03D09F016CF7076703229F07036B5
:1052E00009F48CC071114CC08114910409F448C0B8
:1052F000C9019695982F88279795879580789F70F4
:10530000840F951FA5E035952795AA95E1F72170A3
:1053100001963381448150E03D3731F0B0E83B9F46
:10532000F00111244E0F5F1F6F7009F486C06230C8
:1053300009F485C0643009F484C0663009F483C080
:10534000683009F482C06A3009F481C06C3009F415
:1053500080C06E3009F47FC00E94000011C022E0BE
:1053600030E065FD02C021E030E040E050E0452B38
:1053700039F0880F991F6071820F931F0E940000FF
:105380008091AA049091AB040E945D118FEB96E08E
:105390000E942A150E94CF0E0E946C1480E090E0BB
:1053A000892B09F4D8CC0E940000CDCC80E090E09D
:1053B000892B31F381E00E940000E2CF40726071DE
:1053C0000E94071ADDCF66FF08C021143104C1F224
:1053D000407260710E940000D3CFA0E0B0E0AB2B20
:1053E00079F2407160720E940000CACFA114B1042A
:1053F00039F2407260710E940000C2CF80E090E0FC
:10540000892B09F4BDCF0381802F807D803109F085
:10541000B7CFE480FF24F39411E041E0802F8F2187
:1054200009F040E02E2D2F21FF0C612F80E80E9413
:1054300000001F5F153089F7A3CF61E48DCF62E4D0
:105440008BCF63E489CF64E487CF65E485CF66E4DE
:1054500083CF67E481CF68E47FCF7C3309F052CEFD
:1054600080E090E0892B09F48BCF8CE30E94000050
:1054700087CFD6011D969C911D97911122C01B9636
:105480004D915C911C9719966D917C919601255FC9
:105490003F4FC8010E94EA168F3749F4F601038591
:1054A00014852185328547815085E12C05CF87FD04
:1054B00038C0D6019C919F7724EB29839A838B83F4
:1054C00000CF97FF22C096FD25C0B601655F7F4FD4
:1054D000C9010E945F168F37C1F4F6010385148558
:1054E0004781508580E8E82E30E020E06281CE01DF
:1054F00001960E94E8056AE070E080E090E00E947A
:105500004C09CE0101960E940A04D6011D968C9189
:1055100086FF07C0F60163857485878190850E94A8
:10552000A4168EED96E00E94ED0A2ACF1B964D91AF
:105530005C911C9719966D917C911A9717968D9195
:105540009C910E944E1987FDECCFF6019081B3CF5C
:1055500081E292E09093A9048093A8048091AC0426
:105560009091AD04009751F0FC012181328130937C
:10557000AD042093AC040E945B2BF0CF08950F93F1
:105580001F93CF93DF938230910510F482E090E077
:10559000E091BE04F091BF0430E020E0B0E0A0E074
:1055A000309799F42115310509F44AC0281B390BAD
:1055B00024303105D8F58A819B816115710589F107
:1055C000FB0193838283FE0111C0408151810281DE
:1055D000138148175907E0F04817590799F41097B5
:1055E00061F012960C93129713961C933296CF018A
:1055F000DF91CF911F910F9108950093BE041093F6
:10560000BF04F4CF2115310551F04217530738F08C
:10561000A901DB019A01BD01DF01F801C1CFEF0152
:10562000F9CF9093BF048093BE04CDCFFE01E20F6B
:10563000F31F819391932250310939832883D7CF67
:105640002091BC043091BD04232B41F420910E0124
:1056500030910F013093BD042093BC0420910C01C4
:1056600030910D012115310541F42DB73EB7409120
:10567000100150911101241B350BE091BC04F091F5
:10568000BD04E217F307A0F42E1B3F0B28173907C0
:1056900078F0AC014E5F5F4F2417350748F04E0F8E
:1056A0005F1F5093BD044093BC04819391939FCF9F
:1056B000F0E0E0E09CCFCF93DF930097E9F0FC01AE
:1056C000329713821282A091BE04B091BF04ED0103
:1056D00030E020E01097A1F420813181820F931FE8
:1056E0002091BC043091BD042817390709F061C02E
:1056F000F093BD04E093BC04DF91CF910895EA01DB
:10570000CE17DF07E8F54A815B819E0141155105FF
:10571000B1F7E901FB83EA8349915991C40FD51F81
:10572000EC17FD0761F4808191810296840F951F2B
:10573000E90199838883828193819B838A83F0E046
:10574000E0E012968D919C9113970097B9F52D91F9
:105750003C911197CD010296820F931F2091BC04BA
:105760003091BD042817390739F6309751F510925A
:10577000BF041092BE04B093BD04A093BC04BCCF80
:10578000D383C28340815181840F951FC817D907E5
:1057900061F44E5F5F4F88819981480F591F518393
:1057A00040838A819B81938382832115310509F08F
:1057B000B0CFF093BF04E093BE049ECFFD01DC01A7
:1057C000C0CF13821282D7CF0E94262C08F481E02A
:1057D0000895E89409C097FB3EF4909580957095E4
:1057E00061957F4F8F4F9F4F9923A9F0F92F96E92D
:1057F000BB279395F695879577956795B795F111A2
:10580000F8CFFAF4BB0F11F460FF1BC06F5F7F4F3E
:105810008F4F9F4F16C0882311F096E911C0772350
:1058200021F09EE8872F762F05C0662371F096E859
:10583000862F70E060E02AF09A95660F771F881F28
:10584000DAF7880F9695879597F90895990F0008CC
:10585000550FAA0BE0E8FEEF16161706E807F90742
:10586000C0F012161306E407F50798F0621B730BDD
:10587000840B950B39F40A2661F0232B242B252B5E
:1058800021F408950A2609F4A140A6958FEF811D01
:10589000811D08950E945D2C0C94CE2C0E94C02C7A
:1058A00038F00E94C72C20F0952311F00C94B72CEF
:1058B0000C94BD2C11240C94022D0E94DF2C70F34B
:1058C000959FC1F3950F50E0551F629FF001729FA5
:1058D000BB27F00DB11D639FAA27F00DB11DAA1FB4
:1058E000649F6627B00DA11D661F829F2227B00D01
:1058F000A11D621F739FB00DA11D621F839FA00D8C
:10590000611D221F749F3327A00D611D231F849FDB
:10591000600D211D822F762F6A2F11249F57504032
:105920009AF0F1F088234AF0EE0FFF1FBB1F661FAD
:10593000771F881F91505040A9F79E3F510580F076
:105940000C94B72C0C94022D5F3FE4F3983ED4F3F3
:10595000869577956795B795F795E7959F5FC1F71A
:10596000FE2B880F911D9695879597F9089597F9C5
:105970009F6780E870E060E008959FEF80EC0895F5
:1059800000240A941616170618060906089500241E
:105990000A9412161306140605060895092E039498
:1059A000000C11F4882352F0BB0F40F4BF2B11F40C
:1059B00060FF04C06F5F7F4F8F4F9F4F089557FD6B
:1059C0009058440F551F59F05F3F71F04795880F6D
:1059D00097FB991F61F09F3F79F087950895121604
:1059E00013061406551FF2CF4695F1DF08C01616B0
:1059F00017061806991FF1CF869571056105089461
:105A00000895E894BB2766277727CB0197F9089577
:105A1000F999FECF92BD81BDF89A992780B5089576
:105A2000A8E1B0E042E050E00C942B2D262FF9992C
:105A3000FECF1FBA92BD81BD20BD0FB6F894FA9A71
:105A4000F99A0FBE019608950E94162D272F0C94E7
:105A5000172DDC01CB01FC01F999FECF06C0F2BD88
:105A6000E1BDF89A319600B40D9241505040B8F71C
:105A700008950E94442DA59F900DB49F900DA49F62
:105A8000800D911D11240895A29FB001B39FC00104
:105A9000A39F700D811D1124911DB29F700D811D5A
:105AA0001124911D0895AA1BBB1B51E107C0AA1F19
:105AB000BB1FA617B70710F0A61BB70B881F991FAF
:105AC0005A95A9F780959095BC01CD010895A1E262
:105AD0001A2EAA1BBB1BFD010DC0AA1FBB1FEE1F68
