:100000000C9426020C944E020C944E020C944E0258
:100010000C944E020C944E020C944E020C944E0220
:100020000C944E020C944E020C9407190C94761901
:100030000C944E020C944E020C944E020C944E0200
:100040000C942D1D0C94A81B0C944E020C944E0283
:100050000C944E020C944E020C944E020C94BD185B
:100060000C944E020C944E020C944E020C944E02D0
:100070000C944E020C944E020C944E020C944E02C0
:100080000C944E020C944E020C944E020C944E02B0
:100090000C949E170C944E020C944E020C944E023B
:1000A0000C944E020C944E020C944E02070605046A
:1000B0000100080A0B0C0D092053746174653A2085
:1000C0000020416464726573733A20005265706F5A
:1000D0007274696E6720736C6F74200020746F20D7
:1000E0003A005468726F776E207377697463683A68
:1000F0002000537769746368205265717565737465
:100100003A200049676E6F72696E6720526571759B
:100110006573742E0A004172744E7220696E7661A6
:100120006C69642E0A00204C4E43562056616C7553
:10013000653A20000A456570726F6D2061646472D3
:100140006573733A2000456E746572206E6F746932
:1001500066794C4E435672656164280050726F6731
:1001600072616D6D696E672073746172746564008D
:100170004172746E7220496E76616C69642E0A0059
:1001800020536C6F7443563A2000536C6F743A20BE
:1001900000456E746572206E6F746966794C4E43CB
:1001A0005677726974652800456E642050726F67D7
:1001B00072616D696E67204D6F64652E0A00496734
:1001C0006E6F72696E6720526571756573742E0A61
:1001D0000057726F6E67204D6F64756C65204164C7
:1001E00064726573732E0A0057726F6E67204172D6
:1001F000746E722E0A006E6F746966794C4E4356A7
:1002000070726F6772616D6D696E6753746F702085
:1002100000446973636F7665723A200043757272A9
:10022000656E74205F7375626164647265737320B8
:10023000004D756C7469506F727420402062617358
:1002400065616464726573732000080B000202022A
:100250000000090400000102020000052400100152
:1002600005240101010424020605240600010705F6
:10027000810310004009040100020A000000070584
:100280000202400000070583024000000403090445
:1002900012010002EF0201404123368000010102F9
:1002A000030141726475696E6F204C4C43004172CA
:1002B0006475696E6F204C656F6E6172646F00507B
:1002C000696E20747970653A0050696E2023005081
:1002D0006F77657220766F6C7461676520696E2038
:1002E0006D563A20002E005549443A20004E6F20AA
:1002F0006473313873323020666F756E6420666FB8
:100300007220554944002062797465732052414D32
:10031000206672656500202F20004D617820232023
:100320006F662070696E733A20004D6F64756C655E
:1003300020616464726573733A2000556E69766556
:100340007273616C206465636F646572207600204F
:10035000504B543A200020616374697665207069BF
:100360006E73206C65667420696E207468652071F8
:100370007565756500456E64204C6F6F700A004CA2
:100380006F6F7020003A20005772697465204356E1
:100390002000206163746976652070696E73206C3B
:1003A00065667420696E2074686520717565756571
:1003B00000446F6E65207570646174696E6720001B
:1003C00000000000240027002A002D00300000005B
:1003D0000000250028002B002E0031000000000244
:1003E00000090F0000030401000C000000000000E1
:1003F00000000000000000000000000000000023DA
:1004000000260029002C002F000404040404030427
:1004100005020202020403020202020606060606A2
:100420000604040202020404040802011040804091
:10043000102040804080080204018040201002010A
:1004400010801020404020005F1DC12611241FBED7
:10045000CFEFDAE0DEBFCDBF12E0A0E0B1E0E6EF23
:10046000F5E502C005900D92AE37B107D9F724E04B
:10047000AEE7B2E001C01D92A13CB207E1F712E085
:10048000C5E2D2E004C02197FE010E94BA29C4321D
:10049000D107C9F70E94D81D0C94EE2A0C940000D5
:1004A000CF93DF93FC0129E18EE241E050E033E09D
:1004B00071E0908190769036D1F491819093AF0362
:1004C000A091AF03A1501092AE039FEF6091AE03D5
:1004D0006A1790F4C091AE03CE0FDF2FD11D688153
:1004E00096276091AE036F5F6093AE03EFCF90816C
:1004F000929596709E5FE2CFAE0FBF2FB11D9C9379
:10050000F8949091AD03913059F49091AC03981701
:1005100038F01092AD0390916F009D7F90936F0023
:1005200078949091AD03913039F49091AC0394316B
:1005300008F4BFCF70E0BDCF9091AD0391110EC014
:10054000F89490916F009F7D90936F00B59B09C0C8
:1005500090916F00906290936F0078947111A9CF81
:1005600051C0A091AA03B091AB039C916091A903E3
:10057000EA0102C0CC0FDD1F6A95E2F79C2B9C9329
:1005800060918400709185006A5A7C4F7093A80333
:100590006093A7036091A7037091A80370938900EB
:1005A000609388007894F093A603E093A5031092DB
:1005B000AE031092A40390819093A3033093AD03F4
:1005C0001092AC03B19A90916F00926090936F007B
:1005D0009091AD039330E1F39091A403992381F0BE
:1005E000E091A103F091A203E757FF4F8081918131
:1005F00001969183808383E090E0DF91CF9108950D
:100600009091AD038B3108F08150215009F050CF0B
:1006100080913B0490913C04019690933C0480931C
:100620003B0486E090E0E9CFCF93DF93CDB7DEB710
:1006300060970FB6F894DEBF0FBECDBFAC0141503E
:100640005109852F8F709A01369527952F7740FD98
:1006500014C080646111806192EB99832A838B833B
:10066000CE0101960E94500260960FB6F894DEBF4C
:100670000FBECDBFDF91CF9108958066EBCF809103
:100680009B04E0919C04F0919D04F8949181982B37
:1006900091832281382F309523232283A7E0B0E075
:1006A0001197F1F7918193239183A3E2B0E0119721
:1006B000F1F790817894EFECF0E03197F1F798231F
:1006C00081E009F480E0089590919B04E0919C04FE
:1006D000F0919D04292F209580FF14C0F894828109
:1006E000822382838181892B8183A3E2B0E01197E9
:1006F000F1F78281982B9283789487ED90E00197AF
:10070000F1F70895F8948281822382838181892B75
:100710008183AFEFB0E01197F1F78281982B92833C
:1007200078948FE090E0EBCFFF920F931F93CF93DD
:10073000DF93F82E062FC8E0D0E011E081E09F2D76
:10074000912309F480E00E946403110F2197B1F70F
:10075000011113C0F894E0919C04F0919D049181E3
:1007600080919B04809598239183E0919C04F09163
:100770009D049281892382837894DF91CF911F9188
:100780000F91FF900895CF93DF9360E085E50E947D
:100790009403C9E9D3E060E089910E94940383E067
:1007A000C13AD807C1F7DF91CF91089580919B049A
:1007B000E0919C04F0919D04F8949181282F20955C
:1007C0009223918378943DE743E050E0315029F142
:1007D000DA011197F1F790819823C1F3F89492818F
:1007E000922392839181982B91837894ABE7B7E021
:1007F0001197F1F7F894918192239183A3E1B1E0ED
:100800001197F1F79081982381E009F080E07894C6
:10081000E3E6F6E03197F1F7089580E00895EF926E
:100820000F931F93CF93DF93FC0185EE80838FE0BE
:10083000818385E08283613041F589E483838BE4A1
:1008400084838FE18583168250874783328721878F
:1008500014870387E586DF011796AF01425F5F4F7C
:1008600091E08D9187FF07C02681292B2683ED011A
:1008700021978F778883990FA417B50791F7DF9198
:10088000CF911F910F91EF90089563831482D9CF78
:10089000FC0180919803882311F13FB7F89482E01E
:1008A0008093E9002091F200822F90E0181619063B
:1008B00014F481E090E0882339F0289844E64093CE
:1008C00097034091F1004083222339F02091F200F8
:1008D000211103C02BE62093E8003FBF08958FEF5E
:1008E0009FEF08952FB7F89483E08093E9009091EB
:1008F000E800892F807295FF04C09091F20080E497
:10090000891B2FBF089520912003260F3327331F03
:1009100021323105ECF420916B03FC0190E080E082
:10092000243069F082E00895A09120032191AC0168
:1009300042505D4FA40FB52FB11D2C930196861721
:1009400098F380912003680F6093200380E008955E
:1009500081E00895089508950895E09172038091CB
:100960007103E81730F4F0E0ED58FC4F808190E01F
:1009700008958FEF9FEF0895909172038091710316
:100980002FEF3FEF981748F4E92FF0E0ED58FC4FB8
:10099000208130E09F5F90937203C9010895809198
:1009A000710390917203891B990B0895CF92DF9286
:1009B000EF92FF920F931F93CF93DF937C01CB01B4
:1009C0008A0120919603222389F0EB016B01C40E6A
:1009D000D51ECC15DD0569F06991D701ED91FC912B
:1009E0000190F081E02DC7010995F3CF642F0E949B
:1009F0008304C801DF91CF911F910F91FF90EF9079
:100A0000DF90CF900895CF93DF931F92CDB7DEB7DD
:100A10006983209196032223F9F0209193032032D9
:100A200058F021E030E0FC013383228390E080E045
:100A30000F90DF91CF91089580919403E82FF0E01B
:100A4000E352FD4F998190838F5F8093940380934D
:100A5000930381E090E0ECCF61E0CE0101960E942B
:100A60008304F7CF8091D50281110DC082E080937D
:100A7000D10284E08093D2021092D4021092D30269
:100A800081E08093D50281ED92E0089581508F300E
:100A900008F047C0E82FF0E0E05BFA4F0C94BA2969
:100AA0006D0571055F056505690591059105910560
:100AB00074057A057E058205880591058C0580916F
:100AC00080008F77809380000895809180008F7DD3
:100AD000F9CF80918000877FF5CF84B58F7784BD73
:100AE000089584B58F7DFBCF809190008F778093A0
:100AF00090000895809190008F7DF9CF80919000B3
:100B0000877FF5CF8091C0008F778093C0000895D4
:100B10008091C0008F7DF9CF8091C200877F809344
:100B2000C20008951F93CF93DF93282F30E0F9017F
:100B3000E452FC4F8491F901E85DFB4FD491F90137
:100B4000E75FFB4FC491CC23A9F0162F81110E94BF
:100B50004605EC2FF0E0EE0FFF1FE253FC4FA5918E
:100B6000B4918FB7F894EC91111108C0D095DE23A1
:100B7000DC938FBFDF91CF911F910895DE2BF8CFCB
:100B800010926B0381E080936A031092650361E029
:100B900082E00E94920561E083E00E949205E9EB09
:100BA000F0E080818E7F808380818D7F808388E4E8
:100BB0008093B80085E48093BC000895CF93DF93C1
:100BC00091E09093FD028823B9F0C091B800D091D4
:100BD000BA008091BC008A7B8093BC0060E082E018
:100BE0000E94920560E083E00E9492050E94C00589
:100BF000D093BA00C093B800DF91CF910895CF93FE
:100C0000DF9390E0FC01E85DFB4F2491875F9B4FF1
:100C1000FC0184918823C9F090E0880F991FFC01A2
:100C2000E054FC4FA591B491FC01E253FC4FC591F7
:100C3000D49161110DC09FB7F8948C9120958223B7
:100C40008C938881282328839FBFDF91CF910895BB
:100C5000623051F49FB7F8943C91822F80958323A2
:100C60008C93E8812E2BEFCF8FB7F894EC912E2B3D
:100C70002C938FBFEACF3FB7F8948091CD0290912B
:100C8000CE02A091CF02B091D00226B5A89B05C09C
:100C90002F3F19F00196A11DB11D3FBFBA2FA92FFB
:100CA000982F8827BC01CD01620F711D811D911DF8
:100CB00042E0660F771F881F991F4A95D1F7089564
:100CC000CF92DF92EF92FF920F931F93CF93DF9318
:100CD000D091930381E0D13208F09CC0C09195037C
:100CE0000E943B066B017C0180916B0381116CC0FB
:100CF00082E080936B0381E080936A038FEF80939F
:100D0000690310926803D0936703ADEDB2E0E5E4A8
:100D1000F3E080E0D8138DC01092660380916603E3
:100D2000CC0FC82BC093660380916503813009F016
:100D300084C0109265030E943B066B017C01809188
:100D400066038093BB0080916D0390916E03A09128
:100D50006F03B0917003892B8A2B8B2BA1F00E941B
:100D60003B0600916D0310916E0320916F0330914B
:100D700070036C197D098E099F090617170728074C
:100D8000390708F442C08091BC0083FDD8CF85ECC0
:100D90008093BC000E943B066B017C0180916B0339
:100DA000823009F44CC0809169038F3F09F469C017
:100DB00080916903803209F466C0809169038033B1
:100DC00009F463C084E026C080916D0390916E03A6
:100DD000A0916F03B0917003892B8A2B8B2B09F4A0
:100DE00083CF0E943B0600916D0310916E0320910A
:100DF0006F03309170036C197D098E099F090617E6
:100E000017072807390708F06FCF80916C030E94FD
:100E1000DE0585E0109294031092930310929603DE
:100E2000DF91CF911F910F91FF90EF90DF90CF90C6
:100E300008959D9191938F5F6DCF85EEA9CF80919D
:100E40006D0390916E03A0916F03B0917003892B95
:100E50008A2B8B2B09F4A2CF0E943B0600916D03D5
:100E600010916E0320916F03309170036C197D090E
:100E70008E099F09061717072807390708F08ECF34
:100E8000C4CF80E0C7CF82E0C5CF83E0C3CF1F933C
:100E9000CF93DF93162FC6EBD4E0A981BA81988156
:100EA00021E020939603909395031092940310925F
:100EB0009303ED91FC9111970190F081E02D682F43
:100EC000CD01099589819A81DC01ED91FC91019018
:100ED000F081E02D612F099589819A81DF91CF9171
:100EE0001F910C9460068F929F92AF92BF92CF9207
:100EF000DF92EF92FF924B015C010E943B066B0177
:100F00007C010E943B066C197D098E099F09683E91
:100F1000734081059105A8F321E0821A9108A10888
:100F2000B10888EEC80E83E0D81EE11CF11C8114C4
:100F30009104A104B10429F7FF90EF90DF90CF90C6
:100F4000BF90AF909F908F9008952FB7F8946091C5
:100F5000C9027091CA028091CB029091CC022FBF3E
:100F6000089540918A0250918B022091880230911D
:100F7000890242175307B4F49091E8009570E1F3A9
:100F80009091E80092FD19C08093F10080918A024F
:100F900090918B0201968F739927892B19F48EEF0C
:100FA0008093E80080918A0290918B020196909341
:100FB0008B0280938A0281E0089580E00895EF9289
:100FC000FF920F931F93CF93DF93F82E192FE62EE6
:100FD000042F81E0860F880F0E94B10783E00E94F2
:100FE000B107CF2DD12FEC0EFD2EF11CCE15DF0554
:100FF000B9F007FF13C0FE0184910E94B107182FBA
:1010000080E00E94B107812321968111EFCFDF910B
:10101000CF911F910F91FF90EF9008958881EDCFB0
:1010200081E0F5CFDF92EF92FF920F931F93CF9362
:10103000DF93D82E8A01EB017B01E40EF51ECE155D
:10104000DF0559F0D7FE12C0FE0184910E94B1075E
:1010500021968111F4CF0FEF1FEFC801DF91CF91DF
:101060001F910F91FF90EF90DF9008958881EECF50
:101070000F931F93CF93DF931F92CDB7DEB782E01C
:10108000898342E450E06AE472E080E80E9412083A
:101090000E943205DC0112960D911C91011511057B
:1010A00089F0D801ED91FC910280F381E02DBE0121
:1010B0006F5F7F4FC801099597FD04C0F801008557
:1010C0001185ECCF89810F90DF91CF911F910F9106
:1010D0000895615030F02091F100FC0120830196C9
:1010E000F8CF289884E680939703089590E080E0F5
:1010F00008958F929F92AF92BF92CF92DF92EF921C
:10110000FF920F931F93CF93DF936C017B018A01B2
:1011100080910B01882309F45CC080919803882397
:1011200009F457C080918E0280FF05C08091E000D5
:1011300082608093E000E801B12C8AEFA82E93E052
:10114000892E2AE3922E209711F4BB20D9F10E9418
:10115000720481110AC0AA94AA20D9F161E070E05A
:1011600080E090E00E947307EECF8C171D0611F00F
:101170000CF08C2F9FB7F8948092E9002091E80042
:1011800025FD02C09FBFDFCF282F30E0C21BD30B4D
:10119000F701815020F041914093F100FACFE20E27
:1011A000F31EBB2021F09092E800B12CEBCF809190
:1011B000E80085FDE7CF9092E800BB24B394209728
:1011C00009F3F3CF5D9884E680938D021016110623
:1011D0003CF081E090E0F6019383828310E000E030
:1011E000C801DF91CF911F910F91FF90EF90DF9099
:1011F000CF90BF90AF909F908F900895CF93DF9343
:101200001F92CDB7DEB76983DC01ED91FC910280BE
:10121000F381E02D41E050E0BE016F5F7F4F099503
:101220000F90DF91CF9108950F931F93CF93DF938A
:101230008C01D0E0C0E0F801EC0FFD1F6491662343
:1012400041F08FE394E00E94FE08892B11F0219673
:10125000F2CFCE01DF91CF911F910F91089583E0DE
:101260008093E9008091F200882319F08AE380934B
:10127000E80008950E94720490E00895CF93DF93F0
:101280001F92CDB7DEB7FC018485958597FD08C018
:101290002FEF3FEF358724870F90DF91CF9108958F
:1012A000CE0101960E944804019719F4898190E0CB
:1012B000F3CF8FEF9FEFF0CF0F931F93CF93DF9379
:1012C0001F92CDB7DEB78C01FC018485958597FF11
:1012D0000BC0CE0101960E944804019771F48981E8
:1012E00090E0F80195878487F801848595850F90B3
:1012F000DF91CF911F910F9108958FEF9FEFF1CF65
:101300000F931F930E94A5076093470470934804AE
:101310008093490490934A048FE394E00E945C090F
:1013200097FF1DC00E94A507009147041091480433
:101330002091490430914A04601B710B820B930B7E
:1013400000914304109144042091450430914604D7
:101350006017710782079307F8F28FEF9FEF1F91D5
:101360000F910895CF92DF92EF92FF92CF930E9458
:101370008009FC0197FD4EC08D32910521F0C09788
:101380000A9708F040C0C12CD12C7601C0E0E130B2
:10139000F105D1F0ED32F105D9F1CF01C0970A97EF
:1013A00098F4AAE0B0E0A70196010E946A296F01B3
:1013B000FF0FEE08FF08C60ED71EE81EF91E80E3D9
:1013C000C81AD108E108F1088FE394E00E943E09B1
:1013D0000E948009FC01C0970A97C8F2E130F1052C
:1013E000B1F2CC2341F0F094E094D094C094C11CAD
:1013F000D11CE11CF11CC701B601CF91FF90EF9009
:10140000DF90CF9008958FE394E00E943E09AFCF24
:10141000C1E0DACFC12CD12C7601EDCFFC0184855F
:10142000958597FD0BC09FB7F89482E08093E90003
:101430008091F2009FBF90E0019608959FB7F894C5
:1014400082E08093E9008091F2009FBF90E00895D0
:101450008032910510F401970895880F991F8197A4
:1014600008950895089508950895FC01878190E0F6
:101470000895CF93DF93EC012885263039F461116C
:101480001AC041111F82DF91CF9108956623D9F3CD
:101490008FEF9FEFDC018C879D87AE87BF8781E050
:1014A00090E0AC0102C0440F551F2A95E2F78F81EE
:1014B000842B8F83E8CF442331F32F818985820FDA
:1014C0009927991F3D8138171906E1F28A85281757
:1014D000C8F60E94A5076C877D878E879F8781E06D
:1014E0008B8789859F81890F9927991F009759F2CA
:1014F000209192022817190631F228F2880F991FBD
:10150000FC01EB56FD4F80819181DC01ED91FC9156
:101510000284F385E02D41E061E0DF91CF910994F1
:10152000FC01238134816217730750F0A901485FE1
:101530005F4F6417750720F4621B608781E0089590
:1015400080E0089561E0DC011F962D913C91232BF2
:1015500009F060E0DC01ED91FC910284F385E02D5F
:1015600041E00994DC0116966C91169721E0622700
:10157000ED91FC910284F385E02D41E00994FC019A
:1015800020852111622FFC0182810C949205DC01DF
:1015900017969C911797992399F019968C91199702
:1015A0004423B9F08F5F19968C93199719968C91F3
:1015B0001997492F181624F019961C92199740E094
:1015C000ED91FC9111970484F585E02D642FCD01F8
:1015D00009948150E8CF80E008950895FC0181E0EE
:1015E0006115710509F480E0818B672B69F08681B4
:1015F0009781958B848B84899589938B828B178AAD
:10160000168A138E128E089580859185F2CFFC0183
:10161000818990E00895DC0151966C91519721E009
:101620006227ED91FC910284F385E02D40E009945E
:10163000DC0162307105C1F038F46115710559F0B3
:101640006130710559F0089563307105E9F0643037
:10165000710549F1089512964C93089513964C9391
:10166000139714965C93089518964C9318971996AF
:101670005C931997ED91FC9111970284F385E02D0D
:1016800040E060E0CD01099416964C9316971796AA
:101690005C931797ED91FC9111970284F385E02DEF
:1016A00040E061E0EFCF1A964C931A971B965C933B
:1016B00008950895FC01662319F091E0942797831B
:1016C000468308950F931F93CF93DF93EC012A81F4
:1016D000222309F130E0F901E452FC4F8491F90131
:1016E000E85DFB4F0491F901E75FFB4F1491112373
:1016F00079F081110E944605E12FF0E0EE0FFF1F07
:10170000E550FC4FA591B491EC910E2381E009F4D2
:1017100080E081708E836E818F81681781F08B816C
:101720009C810E9414038A85882339F06E8181E0B0
:101730006827888599850E9414038E818F838B8505
:10174000DF91CF911F910F9108950895CF93DF936B
:10175000EC0162307105C1F048F46115710579F052
:101760006130710571F0DF91CF910895633071059B
:1017700029F164307105B9F75B874A87F4CF4A8352
:10178000F2CF5C834B83EFCFBA0190E080E00E9400
:1017900002282FE335E342E850E40E942D2A0E94FC
:1017A0009F2A79876887E881F9810284F385E02D93
:1017B00040E060E0CE01DF91CF910994BA0190E062
:1017C00080E00E9402282FE335E342E850E40E94C3
:1017D0002D2A0E949F2A7F836E83E881F9810284EB
:1017E000F385E02D40E061E0E5CFDC01ED91FC9177
:1017F0000190F081E02D09940F931F93CF93DF9315
:101800008B01EC0169817A816115710551F0CE017E
:10181000F80109951816190624F00980DA81C02DFF
:10182000F1CFCE01DF91CF911F910F9108954F928B
:101830005F926F927F928F929F92AF92BF92CF9260
:10184000DF92EF92FF920F931F93CF93DF93FC01F0
:101850002281338122303105F4F05B016C012C01CF
:10186000F4E04F0E511C7201F701C081D181209725
:10187000D1F3B501CE010E94FC0B4C01FC010181AA
:10188000128101151105C1F4E414F50461F7F601A4
:10189000978386831486DF91CF911F910F91FF90DC
:1018A000EF90DF90CF90BF90AF909F908F907F9000
:1018B0006F905F904F900895B501C8010E94FC0B96
:1018C000FC0161807280F40112821182FC0112829B
:1018D0001182B801CE01F5010995F7011816190614
:1018E0006CF0D183C0837E01FFEFEF1AFF0A89817C
:1018F0009A81009781F41A8309831CC011830083A5
:101900007801FFEFEF1AFF0AF801818192810097B9
:10191000D1F08C01CE01EC01DCCFEC0189819A8100
:101920000097D9F77A8269827E01FFEFEF1AFF0AEA
:101930009BCF8C01F801818192810097D1F772824F
:1019400061827801F2CFD283C183E8CFCF93DF9356
:10195000EC01E881F9810190F081E02DCE0109953B
:101960001816190644F4E881F9810684F785E02DFC
:10197000CE010995EECFDF91CF910895DC01149649
:10198000ED91FC9115971C968C911C978823B1F0D2
:101990001A962D913C911B97621773077CF018964D
:1019A000ED91FC911997261737075CF43097C1F039
:1019B0000180F281E02D2F5F3F4FF5CF30E020E036
:1019C000F2CF2617370771F481E01C968C931C9791
:1019D0001B963C932E931A971996FC93EE931897A7
:1019E000CF010895F0E0E0E0FBCFCF9377FD0EC08C
:1019F000FC01228133816217730744F4C42F0E94D3
:101A0000BE0CFC01C08381E0CF91089580E0FCCF43
:101A10000E94BE0C009719F0FC018081089580E0BF
:101A20000895FC018281938108950097B1F020917F
:101A300092022817190689F080F0880F991FFC017F
:101A4000EB56FD4F808191816170DC01ED91FC913D
:101A50000284F385E02D40E0099408950F931F93CD
:101A6000CF93DF93EC010E94A5070C851D852E8581
:101A70003F85601B710B820B930B693C71058105DF
:101A8000910570F08B85882359F089859F8170E0DE
:101A900060E0890F9927991F0E94150D1F821B86F0
:101AA0008B85DF91CF911F910F9108951F93CF9355
:101AB000DF93EC01162F0E94A5076C877D878E8728
:101AC0009F8781E08B871F83898561E070E0212FEC
:101AD000280F3327331FC901DF91CF911F910C9439
:101AE000150D0F931F93CF93DF93FC01278530894A
:101AF000232B59F1EC010E94A5070B851C852D8530
:101B00003E85AB01BC01401B510B620B730B8985F9
:101B10009A85B0E0A0E084179507A607B70778F488
:101B20008A89882371F08F859889019751F4888577
:101B300061E070E090E00E94150D188A1F8681E038
:101B400005C08F8170E060E0F5CF80E0DF91CF913C
:101B50001F910F9108950F931F93CF93DF93EC0183
:101B600099899617F9F02F853889232BD9F481E0CC
:101B7000961708F080E0042F162F8A8B9617B8F47A
:101B800081E090E0988B8F878F8161E070E090E03A
:101B90000E94150D0111198B0E94A5076B877C8788
:101BA0008D879E87DF91CF911F910F91089581E0DE
:101BB00090E0988B8F87888570E060E0E8CFEEEA50
:101BC000F0E0E49190917B008E2F880F880F807257
:101BD0009F7D892B80937B00E770E064E0937C001D
:101BE00080917A00806480937A0080917A0086FDEB
:101BF000FCCF8091780060917900762F682F90E07B
:101C000080E00E9402282AE137E64CE950E40E9475
:101C1000632820E030E040E551E40E9463280E9400
:101C20009F2ACB010895CF93DF9300D0CDB7DEB7C5
:101C30002091BD043091BE042115310511F421EC31
:101C400034E0CE010196821B930B0F900F90DF9131
:101C5000CF91089590E080E00895089580E0089580
:101C6000089508950895089521E0FC0183819481E9
:101C70008617970709F020E0822F089508958F9224
:101C80009F92AF92BF92CF92DF92EF92FF920F930B
:101C90001F93CF936B017C0120E030E040E85FE3CD
:101CA0000E94FD2787FDE1C020E030EC4AE555E4C5
:101CB000C701B6010E94CE2A18163CF4C12C30ECA4
:101CC000D32E3AE5E32E35E4F32E6091B9047091FA
:101CD000BA048091BB049091BC040E9402284B017D
:101CE0005C0120E030E040E855E4C701B6010E9405
:101CF00063289B01AC01C501B4010E942D2A20E09C
:101D000030E040E05FE30E94C12920E030E040E89D
:101D10005FE30E94C0296B017C0120E030E040E4D9
:101D200050E40E94FD2787FDA7C020E030E04FE788
:101D300053E4C701B6010E94CE2A181634F4C12C10
:101D4000D12C9FE7E92E93E4F92EC701B6010E943A
:101D50009F2AF62E8091B7049091B8042091B60482
:101D600031E03093960320939503109294031092E0
:101D70009303DC01ED91FC910190F081E02D60E096
:101D800009958091B7049091B8040E946006C091B3
:101D9000B6040E943B064B015C0180916B038111EC
:101DA00071C081E080936B0380936A039FEF9093EF
:101DB0006903109268031092670380936603809111
:101DC0006603CC0FC82BC0936603809165038130F6
:101DD00009F0B2C0109265030E943B064B015C0102
:101DE000809166038093BB0080916D0390916E0398
:101DF000A0916F03B0917003892B8A2B8B2BA1F0DC
:101E00000E943B0600916D0310916E0320916F03B9
:101E100030917003681979098A099B090617170719
:101E20002807390708F44FC08091BC0083FDD8CF44
:101E300085EC8093BC000E943B064B015C018091C5
:101E40006B03813009F47AC080916803811198C0D6
:101E500080916803E5E4F3E0A3E7B3E090E098172E
:101E6000B9F121912D939F5FFACFC12CD12C20E89D
:101E7000E22E2FE3F22E29CFC12CD12C80E4E82EC4
:101E8000FE2C63CF80916D0390916E03A0916F0340
:101E9000B0917003892B8A2B8B2B09F47ECF0E9483
:101EA0003B0600916D0310916E0320916F033091FA
:101EB0007003681979098A099B090617170728070B
:101EC000390708F06ACF80916C030E94DE0580E03C
:101ED00010927203809371038091B7049091B804BB
:101EE000DC01ED91FC910284F385E02D0995C82F6A
:101EF000682F6F76606180E00E9447076F2D8EEF3C
:101F00000E9447076C2F80E00E94470765E070E061
:101F100080E090E00E9473076C2F606A80E0CF91B0
:101F20001F910F91FF90EF90DF90CF90BF90AF90F7
:101F30009F908F900C94470785EE7BCF80916D0327
:101F400090916E03A0916F03B0917003892B8A2B3F
:101F50008B2B09F474CF0E943B0600916D03109106
:101F60006E0320916F0330917003681979098A0913
:101F70009B09061717072807390708F060CFA3CF7A
:101F800081E068CFFC0101900020E9F73197AF01B3
:101F9000481B590BBC018FE394E00C9479088F9295
:101FA0009F92AF92BF920F931F93CF93DF93CDB7C2
:101FB000DEB7A1970FB6F894DEBF0FBECDBF19A252
:101FC000423008F44AE08E010F5D1F4F842E912CA1
:101FD000B12CA12CA50194010E949829E62FB901EA
:101FE000CA01EA30F4F4E05DD801EE938D01232BB1
:101FF000242B252B79F790E080E0109719F0CD0184
:102000000E94C20FA1960FB6F894DEBF0FBECDBFDF
:10201000DF91CF911F910F91BF90AF909F908F90C4
:102020000895E95CE1CF462F682F70E090E080E0F2
:102030000C94CF0FBC0190E080E04AE00C94CF0FED
:10204000CF92DF92EF92FF92CF93DF936C01990FC3
:10205000EE08FF08F7FE19C06DE28FE394E00E94DE
:10206000FE08EC0166277727CB016C197D098E09E4
:102070009F094AE00E94CF0F8C0F9D1FDF91CF91E7
:10208000FF90EF90DF90CF9008954AE0C701B6012E
:10209000DF91CF91FF90EF90DF90CF900C94CF0F16
:1020A000CF93DF930E941A10EC0187E392E00E9425
:1020B000C20F8C0F9D1FDF91CF910895EF92FF9279
:1020C0000F931F93CF93DF938C01F62EE72E8CECAA
:1020D00090E00E941409C8010E941A1081EC90E05F
:1020E0000E941409E801CC0FDD1FCB56DD4FE881BB
:1020F000F981838194810E941A1088EB90E00E94FC
:1021000014098F2D9E2D0E945010012B69F0E8813B
:10211000F9816F2D83819481DF91CF911F910F9170
:10212000FF90EF900C941403DF91CF911F910F91CA
:10213000FF90EF9008950F931F93CF93DF93EC01DF
:1021400088859985892B09F44AC08E859F85A88941
:10215000B989892B8A2B8B2B09F441C00E94A507D2
:102160000E851F8528893989AB01BC01401B510BA5
:10217000620B730B88859985B0E0A0E011E08417AD
:102180009507A607B707D8F41E861F86188A198AEE
:1021900060E08A810E94920560E08E810E94920533
:1021A0001A898A859B85111110C061E070E00E9438
:1021B0005E1070E060E08C859D850E945E10812F2E
:1021C000DF91CF911F910F91089570E060E00E9420
:1021D0005E1061E070E08C859D850E945E1010E0CD
:1021E000EECF0F931F93CF93DF93EC01062F142FA5
:1021F0008A859B852A8921111BC061E070E00E94BD
:102200005E1070E060E08C859D850E945E100A8BF8
:102210000E94A5076E877F87888B998B612F00238B
:1022200071F08A81DF91CF911F910F910C949205EB
:1022300070E060E00E945E1061E070E0E4CF8E81AB
:10224000F1CFCF93DF93EC018D859E852A8D3B8D59
:1022500070E060E02130310529F0298921110CC09E
:1022600061E070E00E945E1070E060E08F85988908
:10227000DF91CF910C945E1070E060E00E945E10E0
:1022800061E070E0F3CF1F93CF93DF93EC01162F43
:10229000662321F18E819F819D8B8C8B8A859B8506
:1022A0004C895D892A893B894217530718F4919517
:1022B000819591099F8B8E8B8C8561E070E090E019
:1022C0000E94150DCE010E942111198B81E090E032
:1022D0009B8F8A8FDF91CF911F9108958885998573
:1022E000DBCFCF92DF92EF92FF920F931F93CF93AA
:1022F000DF93EC01CA8CDB8C22E0C216D10451F4CE
:1023000080E0DF91CF911F910F91FF90EF90DF90D0
:10231000CF9008952A893B898C899D892817390790
:10232000F1F0A901481B590BCA010E891F89A801A8
:1023300017FF04C044275527401B510B84179507EE
:1023400088F482E090E09B8F8A8F8C8570E060E05B
:1023500090E00E94150DCE010E942111D1CF90E096
:1023600080E0E3CF888D998D0196998F888F51E019
:10237000C516D10409F058C0893E934008F452C0F4
:10238000020F131F1B8B0A8BEC8CFD8C6A81F701EB
:1023900081819281208131E03093960320939503CF
:1023A0001092940310929303F4E06F9FB0011124F4
:1023B0006A5F7F4FDC01ED91FC910190F081E02D8F
:1023C000099570E060E0F701818192810E94F50B30
:1023D00070E060E0D70111968D919C910E94F50B01
:1023E000B801F701818192810E94F50B612F70E0A5
:1023F000D70111968D919C910E94F50BF701818177
:1024000092810E9460068E899F89892B49F42C89CC
:102410003D898A899B892817390711F4DF8ACE8A7A
:10242000198E188E81E06DCFCD2809F069CF8B3FD2
:10243000910508F465CF81E090E09B8F8A8F61CF92
:102440000C94C20FCF93DF930E94C20FEC0187E37D
:1024500092E00E94C20F8C0F9D1FDF91CF910895D3
:10246000CF93DF930E942010EC0187E392E00E945B
:10247000C20F8C0F9D1FDF91CF910895CF93DF93F3
:102480000E941409EC0187E392E00E94C20F8C0FB6
:102490009D1FDF91CF910895CF93DF936AE070E0A5
:1024A0000E941310EC0187E392E00E94C20F8C0F90
:1024B0009D1FDF91CF910895CF93DF93EC0181E3CE
:1024C00092E00E9414098B819C810E941A108CE179
:1024D00092E00E9414098885DF91CF910C944C12F0
:1024E0000F931F93CF93DF938C01EB0181E192E077
:1024F0000E941409F801808191810E941A1081E1E3
:1025000097E20E94201080E090E00E94212990E054
:102510009983888381E197E2F801918380838881A0
:1025200099810E941A108FE7DF91CF911F910F912F
:102530000895EF92FF920F931F93CF93DF937C0147
:102540008B0180E090E00E942129C82FD0E0F701A4
:10255000808191810E941A10F801808191810E94EE
:102560001A10CE010E941A10F701808191818131E9
:10257000974201F5F801808191818C179D0779F4CC
:1025800081E0809387028CE591E00E9414098FE737
:10259000DF91CF911F910F91FF90EF9008950196D9
:1025A00049F480E090E00E94212990E0F8019183B5
:1025B0008083EDCF109287028FEFEACF0F931F93A6
:1025C000CF93DF938C01EB0186EF91E00E94140919
:1025D00080918702882311F101311742A1F480E034
:1025E00090E00E9421298C171D06A9F41092870201
:1025F00088EA91E00E9414090C940000DF91CF91C9
:102600001F910F91089588EE91E0DF91CF911F9176
:102610000F910C94140981ED91E0F7CF8EEB91E0CE
:10262000F4CFCF93DF93EC010E94280A80509040B2
:10263000A09734F40E94212990E0DF91CF91089572
:10264000DF91CF910C942929CF92DF92EF92FF92E4
:102650000F931F93CF93DF937C018B01E90186E4F5
:1026600091E00E941409C7010E941A108AE392E0C7
:102670000E942012C8010E941A108AE392E00E9470
:1026800020128AE392E00E942012888199810E94A0
:102690001A108DE392E00E94201280918702882315
:1026A00009F41CC181E1E81687E2F80609F010C1BF
:1026B00089E190E00530110509F462C00034E1E0E1
:1026C0001E0710F5C8010E9411139983888384E3C3
:1026D00091E00E941409C8010E94280A805090408D
:1026E0000E941A1086E291E00E9414098881998163
:1026F0000E9450108FE7DF91CF911F910F91FF90B3
:10270000EF90DF90CF9008950A3FF3E01F0709F0A4
:1027100042C00E94D6030E94C30361E084E40E9489
:10272000940368EE73E080E090E00E9473070E94DB
:10273000D6030E94C30360E08EEB0E9494030EE771
:1027400012E068E0C62ED12CF12CEE24E3940E9416
:102750003F038111FE28EE0C81E0C81AD108B9F7B9
:10276000F801F1928F01F2E007381F0751F78091CD
:102770007E0290917F0220918202207621F4887F50
:1027800099838883B7CF203211F48C7FF9CF20341E
:10279000B9F78E7FF5CF0B3F83E0180759F480918E
:1027A000990390E0982F88279983888320919A0332
:1027B000822BE6CF0C3FE3E01E0751F480919B0390
:1027C00090E0982F88279983888320919C03F0CFED
:1027D0000D3FF3E01F0751F480919D0390E0982F87
:1027E00088279983888320919E03E2CF0E3F83E060
:1027F000180751F480919F0390E0982F88279983C0
:1028000088832091A003D4CF88EF91EA0F3FE3E0C3
:102810001E0709F4B5CF0115F4E01F0719F40E9453
:10282000130EAECF013084E0180729F480917E02A8
:1028300090917F02A5CF8091C1049091C204023093
:10284000E4E01E0709F49CCF0330F4E01F0719F4FD
:102850008DB79EB795CFC80184509440059748F531
:10286000063084E01807D9F068F48091370490911D
:1028700038040530144009F483CF809135049091D9
:1028800036047ECF073084E0180771F080913D0454
:1028900090913E040830144009F472CFEECF80913D
:1028A000390490913A046CCF80913B0490913C04A0
:1028B00067CF0A30F4E01F0719F40E94DF0D60CFE4
:1028C0000B30144071F4809190029091910258CF96
:1028D00086E191E00E9414098FEF0DCF83E091E033
:1028E000F9CF81E008CF0F931F93CF93DF938C0133
:1028F000EB010E94280A805090406C2F0032110595
:1029000030F4DF91CF911F910F910C942F297D2FDF
:10291000DF91CF911F910F910C94412985ED809308
:10292000BC0080916D0390916E03A0916F03B091F4
:1029300070030796A11DB11D23E0B695A795979545
:1029400087952A95D1F72091BC0024FD03C01092F1
:102950006B03089540916D0350916E0360916F0376
:1029600070917003452B462B472B69F30097A10507
:10297000B10541F025E32A95F1F700000197A1097F
:10298000B109E1CF80916C030C94DE05FF920F93A7
:102990001F93CF93DF93DC0112960D911C91139737
:1029A0000115110559F4ED91FC910480F581E02D9C
:1029B000DF91CF911F910F91FF900994F62EEC01BA
:1029C00083E090E00E94D8262C813D81FC01328377
:1029D0002183F0829D838C830F5F1F4F1B830A83AB
:1029E0001C8681E0DF91CF911F910F91FF90089598
:1029F000DF92EF92FF920F931F93CF93DF93EB0140
:102A0000642FDC0112964D915C911397C417D50782
:102A10006CF0ED91FC910480F581E02DDF91CF9178
:102A20001F910F91FF90EF90DF900994209731F460
:102A3000ED91FC910680F781E02DF0CFD62E8C0130
:102A400083E090E00E94D8267C01FC011082128273
:102A50001182BE0161507109C8010E94BE0CD701EC
:102A6000DC92FC012181328112963C932E931197C6
:102A7000F282E182D80112968D919C911397019672
:102A800013969C938E9312971C961C9281E0DF9173
:102A9000CF911F910F91FF90EF90DF9008951F93BA
:102AA000CF93DF93EC01162F83E090E00E94D826AD
:102AB000FC011282118210832C813D81232B89F02D
:102AC000EE81FF81928381839F838E838A819B81A4
:102AD00001969B838A831C8681E0DF91CF911F91B1
:102AE00008959D838C83F0CFBF92CF92DF92EF92B7
:102AF000FF920F931F93CF93DF932091870222239E
:102B000009F4AFC0E52EF42EEB018C0181E991E0D0
:102B10000E941409C8010E941A108AE392E00E94E0
:102B20002012CE010E941A108AE392E00E94201225
:102B30008AE392E00E9420128F2D9E2D0E941A108F
:102B40008DE392E00E9420120131174209F085C006
:102B500081E0C034A1E0DA0738F5CE010E94280AEE
:102B60000E941A1081E0C032D10508F082E06AE0CC
:102B700070E00E9413106AE070E08F2D0E94131025
:102B80006F2D7E2DCE010E9473146FEE70E082E0F7
:102B900090E00E947314CE010E9411130E941A103B
:102BA000C032D10558F48FE7DF91CF911F910F917B
:102BB000FF90EF90DF90CF90BF900895A097CE0147
:102BC0006AE070E00E948429D62EB72E88E392E056
:102BD0000E9420128AE891E00E9414096AE070E0E5
:102BE0008D2D0E94131080E891E00E9414090D2D94
:102BF0001B2D2AE0209FC001219F900D1124C81B8E
:102C0000D90BCE010E941A1088E392E00E94201294
:102C100080919202D81638F6000F111F0B561D4FE7
:102C2000F80180819181DC01ED91FC910684F785AA
:102C3000E02D4F2D5E2DBE010995F8018081918117
:102C4000DC01ED91FC910680F781E02D09956D2D59
:102C500089EA94E00E944F15A6CF80E791E00E9498
:102C600014098FEFA1CFAF92BF92CF92DF92EF9274
:102C7000FF920F931F93CF93DF937C01062FD42EE7
:102C800082EF90E00E941409C7010E941A106AE3C3
:102C90008FE394E00E94FE0887E492E0DD2011F0CB
:102CA00080E492E00E94201285E592E00E942012CA
:102CB00081E592E0002311F08EE492E00E9422125E
:102CC00010E094E1C92E80919202181708F066C0B6
:102CD000C12FD0E0CC0FDD1FCE018B569D4F5C0184
:102CE000DC018D919C91DC01ED91FC910480F581DA
:102CF000E02DB7010995882309F44EC0F5018081C4
:102D0000918141E0011101C040E061E0D11001C0BA
:102D100060E0DC01ED91FC910284F385E02D0995E2
:102D2000612F89EA94E00E944F15CB56DD4F8881D0
:102D30009981DC01ED91FC910288F389E02D0995E0
:102D400088819981DC01ED91FC910688F789E02D5D
:102D500009951C9D90011124BC01C901855D9F4FFF
:102D60000E94552982EE90E00E9414096AE070E00A
:102D7000812F0E9413108CED90E00E94140988812D
:102D80009981DC01ED91FC910088F189E02D099594
:102D900088E392E00E9420121F5F95CFDF91CF91D0
:102DA0001F910F91FF90EF90DF90CF90BF90AF9069
:102DB00008950C9474270C9474270C9474270C9425
:102DC00074270C9474270C9474270C947427EF9236
:102DD000FF921F93CF93DF93FC016281738110E018
:102DE00016161706DCF4EC01148661307105E9F063
:102DF000625071090E94BE0C7C01FC0181819281AC
:102E0000FC0110810E947427F70112821182FF8257
:102E1000EE828A819B8101979B838A83812FDF9138
:102E2000CF911F91FF90EF90089584819581FC01CF
:102E300010810E9474271D821C821F821E821B82A9
:102E40001A82ECCFEF92FF921F93CF93DF93DC01B6
:102E500012962D913C9113971216130634F52130DA
:102E60003105C1F0EC018C819D81FC01E180F28093
:102E700010810E947427FD82EC828A819B810197D8
:102E80009B838A831C86812FDF91CF911F91FF90B6
:102E9000EF900895ED91FC910484F585E02DDF918C
:102EA000CF911F91FF90EF90099410E0ECCF1F930A
:102EB000CF93DF9377FD3EC0DC0112962D913C91BC
:102EC000139762177307B4F56115710549F4ED9115
:102ED000FC910684F785E02DDF91CF911F91099435
:102EE000215031092617370731F4ED91FC91048404
:102EF000F585E02DF1CFEC01615071090E94BE0C07
:102F0000DC011196ED91FC911297108121813281A3
:102F100012963C932E931197CF010E9474278A81B9
:102F20009B8101979B838A831C86812FDF91CF91A0
:102F30001F91089510E0F9CF0C9474271F920F92FF
:102F40000FB60F9211242F933F934F935F936F937C
:102F50007F938F939F93AF93BF93EF93FF93809152
:102F6000B900887F803609F44AC0F0F5883209F448
:102F7000A7C018F5803109F49BC0B8F4882309F480
:102F8000F9C0883009F494C0FF91EF91BF91AF91DF
:102F90009F918F917F916F915F914F913F912F9171
:102FA0000F900FBE0F901F901895883109F488C0BC
:102FB000803251F78093690314C0803409F49DC0B6
:102FC00040F48033B9F38833F9F68093690385ECD4
:102FD000B0C0803509F485C0883509F496C08834BE
:102FE00099F60E948E14D0CF883909F48CC038F538
:102FF000883729F050F4883611F0803729F683E0BD
:1030000080936B031092440357C0883809F47BC047
:10301000803919F0803809F0B7CF809144038032AD
:1030200008F071C0E091440381E08E0F8093440367
:103030008091BB00F0E0EC5DFC4F80833DC0803BA5
:1030400039F0E0F4803A09F479C0883A09F09CCF6D
:1030500084E080936B031092210310922003E0918F
:103060001E03F0911F0309958091200381110FC069
:1030700081E0809320031092FE0209C0803C09F495
:10308000A6CF883C09F4A3CF883B09F07DCFE0911F
:10309000210381E08E0F80932103F0E0E250FD4F89
:1030A00080818093BB00909121038091200329C0EF
:1030B000809166038093BB0085EC8093BC0064CF55
:1030C0009091680380916703981758F5E091680321
:1030D00081E08E0F80936803F0E0EB5BFC4F808112
:1030E000E9CFE091680381E08E0F809368038091BF
:1030F000BB00F0E0EB5BFC4F808390916803809114
:1031000067039817C8F285E8D8CFE091680381E09B
:103110008E0F809368038091BB00F0E0EB5BFC4F67
:10312000808380916A0381115CCF81E08093650385
:1031300084EA8093BC0010926B0326CF85EC8093C9
:10314000BC0010926B0380914403803230F4E09114
:103150004403F0E0EC5DFC4F10826091440370E0AA
:10316000E0912203F091230384E293E00995109209
:1031700044030ACF1092690334CF1F920F920FB607
:103180000F9211242F933F938F939F93AF93BF93ED
:103190008091C9029091CA02A091CB02B091CC0259
:1031A0003091C80223E0230F2D3758F50196A11D59
:1031B000B11D2093C8028093C9029093CA02A093C4
:1031C000CB02B093CC028091CD029091CE02A0911F
:1031D000CF02B091D0020196A11DB11D8093CD0206
:1031E0009093CE02A093CF02B093D002BF91AF9143
:1031F0009F918F913F912F910F900FBE0F901F9035
:10320000189526E8230F0296A11DB11DD2CF1F925B
:103210000F920FB60F9211248F939F938091E1002C
:103220009091E100937F9093E10083FF0FC0109293
:10323000E90091E09093EB001092EC0092E3909300
:10324000ED001092980398E09093F00082FF22C066
:1032500093E09093E9009091F200992319F09AE39A
:103260009093E80090918D02992341F090918D0206
:10327000915090938D02911101C05D9A90919703A6
:10328000992341F090919703915090939703911156
:1032900001C0289A84FF18C08091E2008E7E816070
:1032A0008093E2008091E1008F7E8093E100809125
:1032B0008E028E7E806180938E029F918F910F90FF
:1032C0000FBE0F901F90189580FFF7CF8091E200FE
:1032D0008E7E80618093E2008091E1008E7E8093FB
:1032E000E10080918E028E7E8160E5CF1F920F9269
:1032F0000FB60F921124CF92DF92EF92FF920F93AD
:103300001F932F933F934F935F936F937F938F936D
:103310009F93AF93BF93EF93FF93CF93DF93CDB77B
:10332000DEB76C97DEBFCDBF1092E9008091E80058
:1033300083FF25C068E0CE0145960E94690882EFB0
:103340008093E8008D8987FF39C09091E80090FF55
:10335000FCCF982F907609F034C19E894F89588D03
:103360002F89F88C911131C0803861F580918F02DE
:103370008093F1001092F1008EEF8093E8006C963C
:103380000FB6F894DEBF0FBECDBFDF91CF91FF9196
:10339000EF91BF91AF919F918F917F916F915F91CD
:1033A0004F913F912F911F910F91FF90EF90DF90E0
:1033B000CF900F900FBE0F901F9018959EEF909397
:1033C000E800C7CF1092F100D5CF913059F48111A8
:1033D000D3CF4130510581F680918F028D7F80934C
:1033E0008F02CACF933049F48111C6CF41305105C5
:1033F00019F680918F028260F2CF953041F480916E
:10340000E80080FFFCCF20682093E300B5CF963022
:1034100009F0A9C00B8D1C8D22E01092E9001092DA
:103420008B0210928A02F2122EC010928902109220
:1034300088020E9438081F8299E09983FA8291E0FD
:103440009E8390EA98879AEF998720918A0230911B
:103450008B02275F3F4F3C832B838D831092E900C3
:1034600010928B0210928A021093890200938802B4
:1034700049E050E0BE016F5F7F4F80E00E9412087C
:103480000E94380879CF10938902009388020E9425
:103490003205DC0112960D911C910115110509F4FC
:1034A00051C1D801ED91FC910480F581E02DBE0160
:1034B0006B5E7F4FC8010995009709F03EC1F80186
:1034C00000851185EACFF3E0FF120EC08F898823B3
:1034D00009F440C0823061F440E860E18EEA92E095
:1034E0000E94DF07811148CF81E28093EB0047CF34
:1034F000813029F440E86BE082EA92E0F1CF83303A
:1035000099F70E943205DC011296ED90FC908E0135
:103510000F5F1F4F6801E114F10479F0D701ED91BD
:10352000FC910680F781E02DB801C7010995080FCD
:10353000111DF701E084F184EECFD8011C92F60151
:1035400001900020E9F73197BF016C197D0940E037
:10355000C601C6CF6CE872E0FB01449150E080E800
:103560000E94120809CF973009F4BECF983021F499
:1035700081E08093F10000CF993009F0FDCE837097
:1035800009F0B2CFE3E1F1E081E031E096E321918F
:10359000222371F08093E9003093EB00DF01119753
:1035A0002C912093EC009093ED008F5F873079F79A
:1035B0008EE78093EA001092EA008F898093980347
:1035C000DBCE8B8D9C8D1092E90010928B021092B5
:1035D0008A029093890280938802898D811192C01A
:1035E0008E899D89913A49F4813209F07DCF47E077
:1035F00050E064E071E080E0B3CF913209F074CF25
:10360000833269F48F89988DB0E0A0E08093000147
:1036100090930101A0930201B0930301ADCE8032DB
:1036200069F48091E80082FFFCCF67E084E091E0DC
:103630000E9469088BEF8093E8009ECE823209F0E9
:103640009BCE8F8980930B01EEEFFFE785919491DC
:103650008B3F9C4D51F1E0E0F8E0809104019091A6
:103660000501A0910601B0910701803B9440A1059E
:10367000B105F1F480910B0180FD1AC0EE3F8AE0A4
:10368000F80789F587E797E7918380838091600049
:1036900080938C0288E19BE00FB6F894A895809304
:1036A00060000FBE9093600067CEEEEFFAE0D5CFDA
:1036B000808191818737974709F05ECEA8958091E8
:1036C000600088618093600080918C02809360002C
:1036D000EE3F2AE0F20789F08091FE0A9091FF0AFE
:1036E0009183808349CE808191818737980751F2F9
:1036F0009093FF0A8093FE0AC5CF1092FF0A1092A2
:10370000FE0A3ACE0E943205DC0112960D911C9100
:103710000115110509F4E8CED801ED91FC91019055
:10372000F081E02DBE016B5E7F4FC80109958111CC
:1037300023CEF80100851185EBCF181619060CF47D
:103740001BCED2CEF1E0FF12BECE60E972E004CF14
:103750001F920F920FB60F9211242F933F934F9306
:103760005F936F938F939F93AF93BF93CF93DF93A9
:10377000EF93FF938091A7039091A80380549C4FEF
:103780009093A8038093A7038091A7039091A80327
:1037900090938900809388008091AC038F5F809321
:1037A000AC038091AD038430E9F58091AC0389309E
:1037B00000F58091A30390E0959587958093A303EE
:1037C0004C9B05C08091A30380688093A303FF9165
:1037D000EF91DF91CF91BF91AF919F918F916F91B9
:1037E0005F914F913F912F910F900FBE0F901F90BF
:1037F0001895B59A80916F00806280936F008091D8
:10380000A1039091A2034C9930C0FC01E957FF4FEE
:10381000808191810196918380831092AC0381E035
:103820008093AD038091AD03833009F049C0E091EE
:10383000AA03F091AB0380814091A90329B190E0E4
:10384000042E02C0959587950A94E2F730E054E083
:10385000359527955A95E1F7822780FD17C010927C
:10386000AC0382E08093AD032BC04091A303FC0125
:10387000E058FF4F208131E0320F3083820F911DDD
:10388000DC014C9337FFC9CF1082C7CF8091AC03C6
:10389000893008F03EC02091A30381E090E001C090
:1038A000880F4A95EAF7908120FF31C080958923DF
:1038B00080838091A30390E0959587958093A303DF
:1038C0008091AD03823099F48091AC03811194C052
:1038D000E091AA03F091AB0380819091A90321E0CC
:1038E00030E001C0220F9A95EAF7822B8083809105
:1038F000AD03813009F06BCF8091AC038111A2C080
:10390000B59A80916F00806280936F0060CF892BA1
:10391000CFCF8091AC03893059F4208181E090E0D1
:1039200001C0880F4A95EAF7809582238083C8CF2B
:103930008091AE038F5F8093AE039091AF038917A0
:1039400050F51092AC038091A5039091A603A0912D
:10395000AE03A80FB92FB11D8C918093A303808172
:1039600021E030E001C0220F4A95EAF7822B8083E4
:1039700080918400909185008A5A9C4F9093A8036F
:103980008093A7038091A7039091A8039093890047
:103990008093880095CF81E08093A403E091A503F4
:1039A000F091A6034091A1035091A20380818076FB
:1039B0008036C9F4818130E020E0EA01C058DF4F51
:1039C0002817B0F4DF01A20FB31F6C91A88191E01A
:1039D0009A0F9883A40FB52FB11D6C9397FD188291
:1039E0002F5F3F4FEDCF8081829586708E5FE3CF52
:1039F0001092AC0381E036CF8091AC038F3008F495
:103A000076CFE091AA03F091AB0320813091A90316
:103A100081E090E001C0880F3A95EAF78095822313
:103A200080831092AC0381E08093AD03E091A10309
:103A3000F091A203E357FF4F80819181019691831A
:103A4000808355CF8091AC03883308F4C0CE1092A8
:103A5000AD0380916F008D7F57CF1F920F920FB6ED
:103A60000F9211248F939F93EF93FF93EFE6F0E073
:103A700080818F7D80838091860090918700805621
:103A80009A4F9093A8038093A7038091A7039091E6
:103A9000A8039093890080938800B19A8081826006
:103AA000808384E08093AD031092AC03FF91EF918B
:103AB0009F918F910F900FBE0F901F901895EFE878
:103AC000F4E01382128248EE53E060E070E0448339
:103AD0005583668377838DEF91E091838083AFE395
:103AE000B4E013961C921E92129714964D935D9318
:103AF0006D937C9317978FE092E011969C938E9331
:103B00008FEF9FEF1D969C938E931C97A6EBB4E0CE
:103B100080E48C931296FC93EE931197E9EAF4E01B
:103B200081E292E09183808315821482178216824B
:103B3000138212821186108613861286148660E024
:103B400085E10E94FF05EDE3F4E0E491ABE9B4E028
:103B5000EC93EEE1F4E0E491F0E0EE0FFF1FE550AE
:103B6000FC4F8591949112969C938E9311971B967E
:103B70001C921B971D961C921D971C961C921C97BD
:103B80001A961C921A9719961C92199718961C92BD
:103B9000189717961C92179716961C9216971596BB
:103BA0001C92159714961C92149713961C920895C4
:103BB000CF93DF93CDB7DEB768970FB6F894DEBF2B
:103BC0000FBECDBF789484B5826084BD84B581601A
:103BD00084BD85B5826085BD85B5816085BD8091D8
:103BE0006E00816080936E00109281008091810050
:103BF0008260809381008091810081608093810048
:103C0000809180008160809380008091910082602B
:103C100080939100809191008160809391008091C8
:103C200090008160809390008091C10084608093B7
:103C3000C1008091C10082608093C1008091C10069
:103C400081608093C1008091C30081608093C30034
:103C50008091C00082608093C0008091C20081602A
:103C60008093C20080917A00846080937A00809172
:103C70007A00826080937A0080917A0081608093DC
:103C80007A0080917A00806880937A00109298037D
:103C900010928F0210928E028091D70081608093E3
:103CA000D70080EA8093D80089B5806189BD89B545
:103CB000826089BD89B5282F21702C8B80FFFACFB7
:103CC00061E070E080E090E00E9473078091D8008E
:103CD0008F7C80618093D8008091E000807F80930A
:103CE000E0008091E1008E7E8093E1008DE0809382
:103CF000E200559A209A8FEF9FEF90934C048093A7
:103D00004B0410910B016AE070E080E090E00E94AB
:103D100073071123B1F38BE393E00E9414094AE087
:103D200068EF71EA81E090E00E94CF0F87E392E0B4
:103D30000E94C20F8AE293E00E94140980E090E0A2
:103D40000E9421290E944C12E0EBF3E08FE8DF0192
:103D50001D928A95E9F761E085E00E94FF05EDE29A
:103D6000F4E02491EEE0F4E0E491F0E0EE0FFF1FC8
:103D7000E253FC4F4591549180E091E031E02917E6
:103D800041F08F5F932F082E01C0990F0A94EAF734
:103D9000F6CF5093AB034093AA038093A90380EB23
:103DA00093E09093A2038093A1035498E091AA0317
:103DB000F091AB0320813091A90381E090E001C034
:103DC000880F3A95EAF780958223808310928000CD
:103DD00081E0809381001092AD03B59A80916F00CD
:103DE000806280936F0080918100887F81608093E2
:103DF000810085E090E00E94212980939202893120
:103E000018F088E1809392028AE193E00E941409FD
:103E10006AE070E0809192020E94131086E193E0C4
:103E20000E94140989E190E00E9430128091900272
:103E300090919102886090939102809390020E94E9
:103E4000130E0E94301282E090E00E9411138E3E09
:103E5000910509F0BAC01092920220E0222E20E0D3
:103E6000322E80E0A82E80E0B82E90E0892E90E0DF
:103E7000992E2091AB043091AC042115310509F441
:103E80003FC08091C7028F5F821713060CF0A2C457
:103E90008093C7026091C70270E089EA94E00E94B3
:103EA000080DE82FF0E0EE0FFF1FEB56FD4F80816D
:103EB0009181DC01ED91FC910288F389E02D099557
:103EC00081111EC081EB93E00E9414096091C7022A
:103ED00070E089EA94E00E94080D0E944C12609103
:103EE000C70270E089EA94E00E9457178091AB0402
:103EF0009091AC040E94201082E993E00E943E124F
:103F00008FE394E00E940E0A18161906FCF48FE362
:103F100094E00E943E0987379105C1F40E94B209DE
:103F20006B010E94B2092B0188E893E00E941409FA
:103F3000C6010E941A1085E893E00E941409C2018C
:103F40000E945010B201C6010E9473148091310486
:103F500090913004891709F4E3C4E82FF0E0E055AC
:103F6000FC4FF080F7FE7AC490913204891751F02B
:103F700020913704309138042F5F3F4F309338043D
:103F80002093370480933204BFEFB09333048F2D16
:103F90008076803609F021C4109234048091310477
:103FA0008F5F80933104E0913204282F2E1B87FD10
:103FB000109231048091330490913404291709F44C
:103FC0005DC4F826F0923304C1CF8F3E910531F4E1
:103FD0006EEE70E082E090E00E947314812C80917C
:103FE0009202881608F0C3C2082D10E0C801885F4D
:103FF0009F4F0E942129898BB4E18B9E30011124AF
:10400000C301815E9F4F0E9429291C0181E0E2E0EB
:104010002E16310408F080E091E0F5E02F1631040F
:1040200009F090E0892B21F428E02216310419F4DC
:1040300022242A94312CC3018F5D9F4F0E9429298D
:104040002C01922CA801440F551F5B8B4A8B598978
:10405000543009F4CCC1B0F4523009F4A8C008F0CF
:104060008CC1513009F41DC186E090E00E94D82631
:10407000FC0121EE31E031832083858292825482DB
:104080004382DCC17989763009F43CC208F4DDC191
:10409000763651F7C3018D5D9F4F0E9429297C011F
:1040A000C3018B5D9F4F0E9429299E8B8D8BC3017D
:1040B000895D9F4F0E942929988F8F8BC301835D53
:1040C0009F4F0E9429295C01C301815D9F4F0E947F
:1040D00029296C01C3018F5C9F4F0E942929982ECA
:1040E0008EE190E00E94D8268C01DC0115968C921E
:1040F000159712962C92129714965C924E921397E3
:10410000EF89F88D1B96FC93EE931A971C969C9260
:104110001C975396FC92EE9252975596FC92EE9213
:1041200054971E96BC92AE921D975096DC92CE92FA
:104130001F9757961C921E92569759961C921E9244
:1041400058975B961C921E925A9725EC31E0119677
:104150003C932E9346EB54E05D965C934E935C97B4
:10416000B70190E080E00E9402282FE335E342E8A7
:1041700050E40E942D2A0E949F2AD80119967C9310
:104180006E931897ED89FE89BF0190E080E00E9450
:1041900002282FE335E342E850E40E942D2A0E94D2
:1041A0009F2AD80117967C936E9316976AC0C30115
:1041B0008D5D9F4F0E9429297C01C3018B5D9F4F1C
:1041C0000E9429299E8B8D8BC301895D9F4F0E9480
:1041D00029295C01C301835D9F4F0E942929988F83
:1041E0008F8BC301815D9F4F0E9429296C01C30100
:1041F0008F5C9F4F0E942929382E8CE190E00E940D
:10420000D8268C01DC0115968C92159712962C926B
:10421000129714965C924E921397E9EAF1E0119688
:10422000FC93EE931996FC92EE9218972D893E8995
:1042300017963C932E9316971B96BC92AE921A97A4
:104240001C963C921C975396FC92EE925297559670
:10425000FC92EE9254974F89588D1E965C934E9324
:104260001D975096DC92CE921F9757961C921E92E5
:10427000569759961C921E9258975B961C921E92C6
:104280005A97EA89FB89EB56FD4F11830083C301DE
:10429000855D9F4F0E942929BC01C8010E94EE0A3A
:1042A00042C0C3018D5D9F4F0E942929582F517034
:1042B000C52E96958795782F7170D72EC3018B5D8B
:1042C0009F4F0E9429298C018CE090E00E94D82603
:1042D0007C01DC0115968C92159712962C92129700
:1042E00014965C924E921397EDE1F1E01196FC93D7
:1042F000EE93FFEF2F1203C08EEF12968C9362E0C5
:10430000D70112968C910E94FF05F701168221E0D9
:104310002783C28611870087D386EA89FB89EB56FB
:10432000FD4FF182E08289EC92E00E941409882D11
:104330000E944C128FEB92E00E94140989890E941E
:104340004C12EA89FB89EB56FD4F80819181DC019B
:10435000ED91FC910680F781E02D0995682D89EAA1
:1043600094E00E944F150E94130E0E94201086E0D8
:1043700093E00E943E12839432CEC3018D5D9F4F25
:104380000E942929382F3170E32E96958795482F62
:104390004170F42E8AE090E00E94D8268C01DC0166
:1043A00015968C92159712962C92129714965C92F1
:1043B0004E921397E9E3F1E0ED93FC93F4E02F16AE
:1043C00021F061E0822D0E94FF05D80116961C9213
:1043D00060E0C8010E94BF0AF801E7821186F086FA
:1043E000EA89FB89EB56FD4F118300839CCFC30103
:1043F0008D5D9F4F0E942929E82EC3018B5D9F4F41
:104400000E942929F82EC301895D9F4F0E94292906
:104410008C01E98A83E190E00E94D826FC01858224
:1044200022825482438225E531E031832083398919
:104430003783F08612870187108A1786AA89BB897D
:10444000AB56BD4FED93FC936ECFC3018D5D9F4F77
:104450000E9429297C01C3018B5D9F4F0E9429295D
:104460001C01C301875D9F4F0E9429296C01C30174
:10447000855D9F4F0E9429295C0181E042E0E4169E
:10448000F10408F080E091E055E0E516F10409F050
:1044900090E0892B21F478E0E716F10419F4EE247A
:1044A000EA94F12C83E190E00E94D8268C01DC0193
:1044B00015968C92159712969C92129714965C9270
:1044C0004E921397E1E7F1E01196FC93EE93179665
:1044D000FC92EE92169719963C922E9218971B9684
:1044E000DC92CE921A971D96BC92AE921C9761E018
:1044F000892D0E94FF0561E0D80116968C910E94DB
:10450000FF056ECFC3018D5D9F4F0E942929E82EC4
:10451000C3018B5D9F4F0E942929F82E80E190E016
:104520000E94D8268C01FC0185822282548243821B
:104530002DE831E031832083E1861086F2868FEF0B
:104540009FEFDC0184879587A687B7871386EA8962
:10455000FB89EB56FD4F11830083C301855D9F4F9F
:104560000E942929BC01C8010E94560DDCCE809111
:1045700090029091910282609093910280939002B8
:104580001092A6041092A8041092A7041092A504F9
:104590001092A4041092A3041092A2041092A104F9
:1045A0001092A00410929F0410929E048BE792E058
:1045B0000E9420126AEF70E080E090E00E94730792
:1045C0008091A804811104C00E94D603811188C083
:1045D0001092A6041092A8041092A7048BE792E010
:1045E0000E9420121092A6041092A8041092A70410
:1045F0001092A5041092A4041092A3041092A20495
:104600001092A1041092A00410929F0410929E0494
:104610001092990310929A0310929B0310929C039C
:1046200010929D0310929E0310929F038DEE92E0D4
:104630000E943E1210927203109271031092940322
:10464000109293030E94C0058AEA94E090931F039E
:1046500080931E038BEA94E09093230380932203BC
:1046600060E880E00E9447076AE070E080E090E048
:104670000E94730760E070E08AE794E40E943F0EB6
:1046800080E498E7ADE7B1E08093B9049093BA0471
:10469000A093BB04B093BC0460E070E08CE892E4AB
:1046A0000E943F0E60E084E10E94FF058FEC92E0E3
:1046B0000E9414090E94DF0D0E94501082E090E0D9
:1046C0000E9411138E3E910531F460EF70E082E09C
:1046D00090E00E94731489E592E00E942212BDCB03
:1046E00060E080EF0E9494030C89E12CD12C11E052
:1046F0000E943F03F82E0E943F03B1E0FB1236C038
:10470000813009F052C0113408F462CFD092A6046F
:10471000D11003C081E08093A80480919E04882377
:1047200009F456CFAEE9B4E039E9E32E33E0F32ED5
:10473000F7018D91819323E0E13AF207D1F787EEFB
:1047400092E00E94140910E06AE070E0812F0E945C
:10475000131060E170E0D7018D917D010E9413106C
:104760001F5F173089F785EE92E062CFEE2DF0E003
:10477000F81211C08091A6041817A8F4DF01A556FD
:10478000BB4F13968C91802381F4F12C193010F4D7
:104790001093A704D12EE556FB4F8381902F90955F
:1047A000892383830AC08113F0CFEE2DF0E0E55614
:1047B000FB4F8381802B8383FC888F2D0E946403B1
:1047C0001F5F000F11F4E3940C89E7E0EE1508F089
:1047D0008FCF99CF1092C7025DCB8F2D82958670B7
:1047E0008E5F809334042091320480913404820FD0
:1047F0009927991F813891050CF4D0CB00E8021B52
:10480000F8944091300480913204841770F5E42FBD
:10481000E81B8E2F80933004789460913204461701
:1048200038F510E050E060EB73E0C80180559C4F14
:104830000E94D32A6091320470E060557C4FA80139
:1048400080EB93E00E94D32A80913104909132044E
:10485000891B8093310410923204A0CB80913404E0
:1048600081119CCBF0923404BECF802F840FD2CF25
:10487000461B50E070E060557C4FE2CFF81243C019
:10488000F0E0E055FC4F20913504309136042F5F65
:104890003F4F309336042093350490913104909328
:1048A0003204309709F48DCBF0939402E093930295
:1048B000309709F48CC17181272F30E06281462F37
:1048C00050E0CA019695982F88279795879580780C
:1048D0009770872B932BA081A23B09F459C10196B5
:1048E000A13B09F489C1F8F4A33809F478C1A03BCD
:1048F00009F47DC1A238F9F480E090E0892B09F435
:1049000058C180E071C120913704309138042F5F85
:104910003F4F3093380420933704F0E0E0E0BDCF00
:10492000F0E0E0E0C1CFAC3B09F479C108F0E7C0AA
:10493000A43B09F4ABC18FE793E00E941409809176
:104940009302909194020E942010E0909302F090C4
:1049500094028FE493E00E9414096AE070E0F7018A
:1049600080810E9413108BE392E00E94201260E18C
:1049700070E0D70111968C910E9413108BE392E0A6
:104980000E94201260E170E0F70182810E94131002
:104990008BE392E00E94201260E170E0D701139651
:1049A0008C910E9413108BE392E00E94201260E130
:1049B00070E0F70184810E9413108BE392E00E9463
:1049C000201260E170E0D70115968C910E941310BF
:1049D0008BE392E00E94201260E170E0F701868193
:1049E0000E9413108BE392E00E9420126701F7E00F
:1049F000CF0ED11C2FE0E20EF11C60E170E0D60179
:104A00008D916D010E9413108BE392E00E942012A1
:104A1000CE14DF0491F788E392E00E94C20FC090A9
:104A20009302D0909402F6018081853E19F08D3E6C
:104A300009F090C184E692E00E942212D6011196FC
:104A40008C9111978F3009F085C113968C91139733
:104A5000853009F07FC114968C91149781117AC129
:104A600016964C91F6019601295F3F4F81E0942FF5
:104A7000982319F0978190689783880F3196E217F1
:104A8000F307A9F7D60116961C92169715968C91E6
:104A90001597803209F463C1813209F05BC1179622
:104AA0000D911C910F3F100709F0FCC0D60119961B
:104AB0008D919C911A97892B09F0F4C01B968D91CA
:104AC0009C91019609F0EEC0B601655F7F4FCF0162
:104AD0000E9470128F3709F03DC1F60103851485DD
:104AE00047815085E12C30E020E06281CE010196C3
:104AF0000E940F04CE0101960E9450022BC1AD3BD3
:104B000009F457C0A03D09F016CF7076703229F035
:104B1000703609F48CC071114CC08114910409F4F1
:104B200048C0C9019695982F8827979587958078D2
:104B30009F70840F951FA5E035952795AA95E1F7FD
:104B4000217001963381448150E03D3731F0B0E867
:104B50003B9FF00111244E0F5F1F6F7009F486C058
:104B6000623009F485C0643009F484C0663009F409
:104B700083C0683009F482C06A3009F481C06C30A7
:104B800009F480C06E3009F47FC00E94000011C09B
:104B900022E030E065FD02C021E030E040E050E07E
:104BA000452B39F0880F991F6071820F931F0E9467
:104BB00000008091AB049091AC040E94201086E527
:104BC00093E00E943E120E94130E0E94301280E079
:104BD00090E0892B09F44DC90E94000042C980E091
:104BE00090E0892B31F381E00E940000E2CF407217
:104BF00060710E943316DDCF66FF08C021143104B6
:104C0000C1F2407260710E940000D3CFA0E0B0E01A
:104C1000AB2B79F2407160720E940000CACFA114E0
:104C2000B10439F2407260710E940000C2CF80E08E
:104C300090E0892B09F4BDCF0381802F807D8031E6
:104C400009F0B7CFE480FF24F39411E041E0802F16
:104C50008F2109F040E02E2D2F21FF0C612F80E8DD
:104C60000E9400001F5F153089F7A3CF61E48DCF4C
:104C700062E48BCF63E489CF64E487CF65E485CFBA
:104C800066E483CF67E481CF68E47FCF7C3309F0AB
:104C900052CE80E090E0892B09F48BCF8CE30E9408
:104CA000000087CFD6011D969C911D97911122C0BF
:104CB0001B964D915C911C9719966D917C91960174
:104CC000255F3F4FC8010E9424138F3749F4F60136
:104CD000038514852185328547815085E12C05CFD8
:104CE00087FD38C0D6019C919F7724EB29839A8356
:104CF0008B8300CF97FF22C096FD25C0B601655F6C
:104D00007F4FC9010E9499128F37C1F4F6010385C4
:104D100014854781508580E8E82E30E020E06281EC
:104D2000CE0101960E940F046AE070E080E090E0FE
:104D30000E947307CE0101960E945002D6011D9673
:104D40008C9186FF07C0F601638574858781908505
:104D50000E94DE1285E793E00E9414092ACF1B9679
:104D60004D915C911C9719966D917C911A971796AD
:104D70008D919C910E94741587FDECCFF601908176
:104D8000B3CF81E292E09093AA048093A90480912A
:104D9000AD049091AE04009751F0FC012181328165
:104DA0003093AE042093AD040E947427F0CF089591
:104DB0000F931F93CF93DF938230910510F482E01D
:104DC00090E0E091BF04F091C00430E020E0B0E05A
:104DD000A0E0309799F42115310509F44AC0281B49
:104DE000390B24303105D8F58A819B816115710515
:104DF00089F1FB0193838283FE0111C040815181BF
:104E00000281138148175907E0F04817590799F4B0
:104E1000109761F012960C93129713961C9332968A
:104E2000CF01DF91CF911F910F9108950093BF049F
:104E30001093C004F4CF2115310551F042175307E8
:104E400038F0A901DB019A01BD01DF01F801C1CFF2
:104E5000EF01F9CF9093C0048093BF04CDCFFE0142
:104E6000E20FF31F819391932250310939832883F4
:104E7000D7CF2091BD043091BE04232B41F4209163
:104E80000E0130910F013093BE042093BD04209198
:104E90000C0130910D012115310541F42DB73EB7BC
:104EA0004091100150911101241B350BE091BD047C
:104EB000F091BE04E217F307A0F42E1B3F0B281756
:104EC000390778F0AC014E5F5F4F2417350748F083
:104ED0004E0F5F1F5093BE044093BD048193919386
:104EE0009FCFF0E0E0E09CCFCF93DF930097E9F015
:104EF000FC01329713821282A091BF04B091C004CA
:104F0000ED0130E020E01097A1F420813181820F83
:104F1000931F2091BD043091BE042817390709F072
:104F200061C0F093BE04E093BD04DF91CF9108957A
:104F3000EA01CE17DF07E8F54A815B819E01411542
:104F40005105B1F7E901FB83EA8349915991C40FF7
:104F5000D51FEC17FD0761F4808191810296840FC3
:104F6000951FE90199838883828193819B838A833A
:104F7000F0E0E0E012968D919C9113970097B9F5BF
:104F80002D913C911197CD010296820F931F209194
:104F9000BD043091BE042817390739F6309751F512
:104FA0001092C0041092BF04B093BE04A093BD043D
:104FB000BCCFD383C28340815181840F951FC81712
:104FC000D90761F44E5F5F4F88819981480F591F5F
:104FD000518340838A819B8193838283211531058C
:104FE00009F0B0CFF093C004E093BF049ECFFD0161
:104FF000DC01C0CF13821282D7CF0E943F2808F471
:1050000081E00895E89409C097FB3EF4909580955F
:10501000709561957F4F8F4F9F4F9923A9F0F92F7E
:1050200096E9BB279395F695879577956795B795FC
:10503000F111F8CFFAF4BB0F11F460FF1BC06F5FE2
:105040007F4F8F4F9F4F16C0882311F096E911C0F4
:10505000772321F09EE8872F762F05C0662371F015
:1050600096E8862F70E060E02AF09A95660F771F29
:10507000881FDAF7880F9695879597F90895990F05
:105080000008550FAA0BE0E8FEEF16161706E80712
:10509000F907C0F012161306E407F50798F0621B33
:1050A000730B840B950B39F40A2661F0232B242B08
:1050B000252B21F408950A2609F4A140A6958FEF27
:1050C000811D811D08950E9476280C94E7280E9476
:1050D000D92838F00E94E02820F0952311F00C9494
:1050E000D0280C94D62811240C941B290E94F8284F
:1050F00070F3959FC1F3950F50E0551F629FF0012B
:10510000729FBB27F00DB11D639FAA27F00DB11D43
:10511000AA1F649F6627B00DA11D661F829F2227CC
:10512000B00DA11D621F739FB00DA11D621F839F53
:10513000A00D611D221F749F3327A00D611D231F29
:10514000849F600D211D822F762F6A2F11249F5777
:1051500050409AF0F1F088234AF0EE0FFF1FBB1F7A
:10516000661F771F881F91505040A9F79E3F510539
:1051700080F00C94D0280C941B295F3FE4F3983EF8
:10518000D4F3869577956795B795F795E7959F5FE3
:10519000C1F7FE2B880F911D9695879597F9089575
:1051A00097F99F6780E870E060E008959FEF80ECDA
:1051B000089500240A94161617061806090608957D
:1051C00000240A9412161306140605060895092EE3
:1051D0000394000C11F4882352F0BB0F40F4BF2B52
:1051E00011F460FF04C06F5F7F4F8F4F9F4F089592
:1051F00057FD9058440F551F59F05F3F71F0479588
:10520000880F97FB991F61F09F3F79F0879508956C
:10521000121613061406551FF2CF4695F1DF08C08B
:10522000161617061806991FF1CF869571056105A8
:1052300008940895E894BB2766277727CB0197F950
:105240000895F999FECF92BD81BDF89A992780B54E
:105250000895A8E1B0E042E050E00C945C29262FCC
:10526000F999FECF92BD81BDF89A019700B402165C
:1052700039F01FBA20BD0FB6F894FA9AF99A0FBE0A
:1052800008950196272F0E9430290C942F29262F4C
:10529000F999FECF1FBA92BD81BD20BD0FB6F8941B
:1052A000FA9AF99A0FBE019608950E944729272F6E
:1052B0000C944829DC01CB01FC01F999FECF06C012
:1052C000F2BDE1BDF89A319600B40D9241505040C4
:1052D000B8F708950E947529A59F900DB49F900D71
:1052E000A49F800D911D11240895A29FB001B39F2A
:1052F000C001A39F700D811D1124911DB29F700DDF
:10530000811D1124911D0895AA1BBB1B51E107C0EB
:10531000AA1FBB1FA617B70710F0A61BB70B881F45
:10532000991F5A95A9F780959095BC01CD010895D4
:10533000A1E21A2EAA1BBB1BFD010DC0AA1FBB1F99
:10534000EE1FFF1FA217B307E407F50720F0A21B0B
:10535000B30BE40BF50B661F771F881F991F1A9478
:1053600069F760957095809590959B01AC01BD01A2
:10537000CF010895EE0FFF1F0590F491E02D0994E1
:105380005058BB27AA270E94D8290C94E7280E94CE
:10539000D92838F00E94E02820F039F49F3F19F412
:1053A00026F40C94D6280EF4E095E7FB0C94D02854
:1053B000E92F0E94F82858F3BA1762077307840789
:1053C000950720F079F4A6F50C941A290EF4E095CF
:1053D0000B2EBA2FA02D0B01B90190010C01CA01AF
:1053E000A0011124FF27591B99F0593F50F4503E5A
:1053F00068F11A16F040A22F232F342F4427585F4C
:10540000F3CF469537952795A795F0405395C9F763
:105410007EF41F16BA0B620B730B840BBAF091501B
:10542000A1F0FF0FBB1F661F771F881FC2F70EC0BA
:10543000BA0F621F731F841F48F48795779567958D
:10544000B795F7959E3F08F0B0CF9395880F08F079
:105450009927EE0F9795879508950E94412A0C94FD
:10546000E7280E94E02858F00E94D92840F029F44B
:105470005F3F29F00C94D02851110C941B290C94F7
:10548000D6280E94F82868F39923B1F3552391F3A5
:10549000951B550BBB27AA2762177307840738F0A3
:1054A0009F5F5F4F220F331F441FAA1FA9F335D000
:1054B0000E2E3AF0E0E832D091505040E695001CB4
:1054C000CAF72BD0FE2F29D0660F771F881FBB1F6E
:1054D000261737074807AB07B0E809F0BB0B802D4C
:1054E000BF01FF2793585F4F3AF09E3F510578F078
:1054F0000C94D0280C941B295F3FE4F3983ED4F31E
:10550000869577956795B795F7959F5FC9F7880F4B
:10551000911D9695879597F90895E1E0660F771F9D
:10552000881FBB1F621773078407BA0720F0621B2E
:10553000730B840BBA0BEE1F88F7E09508950E9459
:10554000002988F09F5798F0B92F9927B751B0F0EC
:10555000E1F0660F771F881F991F1AF0BA95C9F7F7
:1055600014C0B13091F00E941A29B1E008950C9452
:105570001A29672F782F8827B85F39F0B93FCCF305
:10558000869577956795B395D9F73EF49095809574
:10559000709561957F4F8F4F9F4F08950E943F28D0
:1055A00008F48FEF08956817790768F4FB01DC01B0
:1055B000E40FF51FA40FB51F02C002900E924150D8
:1055C0005040D8F708950C94E52AFB01DC0102C095
:1055D00001900D9241505040D8F7089512E0C5E275
:1055E000D2E004C0FE010E94BA292196C632D1073A
:0655F000C9F7F894FFCF9B
:1055F600FFFFFFFF00E10000000000000000C10403
:10560600800000C1808100000000000000310AD93E
:1056160016340EAC04300E5A0B320E310E300E62BA
:105626000B2D0E2A0E00000000320ADB16340EACDB
:1056360004B20AC70ABF0A310E300EEB0A2D0E2A33
:105646000E00000000330ADD16340EAC04A20AABCD
:105656000D320E310E300E710D2D0E2A0E00000089
:1056660000590BE316340EAC04300EF110320E3135
:105676000EAC049B102D0E2A0E00000000340ADF2B
:1056860016900A5C12300E390A320E310E300E2E8A
:105696000D560D350A00000000ED0AE116340EAC79
:1056A600040B0B4311320E180BAC04EB0AEE0A077F
:1056B6000B00000000A50BE516340EAC040B0B43E3
:1056C60011320EA60BAC047111EE0A070B00000096
:1056D600003E0E9C17340E300E300E330E320E3155
:1056E6000E300E2E0E2D0E2A0E000000000305D6DB
:1056F600047608AC04CF04BC04AD0400000000FE30
:105706000879083A092F090E0A3E095C09000000CB
:1057160000110DF8144F15C614F50C5717E716228D
:1057260017080DA60C170C0D0A002C2000290A00DC
:10573600436C6F736564005468726F776E004F6ECA
:10574600004F666600202D20007365747570206416
:105756006F6E6500506F737369626C792061204CBF
:0E5766004E4356206D6573736167652E00001B
:00000001FF
