:100000000C949B030C94C3030C94C3030C94C30380
:100010000C94C3030C94C3030C94C3030C94C30348
:100020000C94C3030C94C3030C94E31C0C94641B46
:100030000C94C3030C94C3030C94C3030C94C30328
:100040000C94C21A0C94C3030C94321B0C940C1B1A
:100050000C94C3030C94C3030C94C3030C94C30308
:100060000C94A2190C94C3030C94C3030C94C30303
:100070000C94C3030C94C3030C94C3030C94C303E8
:100080000C94C3030C94C3030C94C3030C94C303D8
:100090000C94C3030C94C3030C94C3030C94C303C8
:1000A0000C94C3030C94C3030C94C3030C94C303B8
:1000B0000C94C3032053746174653A20002041649A
:1000C00064726573733A20005265706F7274696E62
:1000D0006720736C6F74200020746F203A0054689E
:1000E000726F776E207377697463683A2000537774
:1000F0006974636820526571756573743A200049AC
:10010000676E6F72696E6720526571756573742EC4
:100110000A004172744E7220696E76616C69642EB9
:100120000A00204C4E43562056616C75653A2000FB
:100130000A456570726F6D20616464726573733A0D
:100140002000456E746572206E6F746966794C4E3E
:10015000435672656164280050726F6772616D6DFD
:10016000696E672073746172746564004172746EA5
:100170007220496E76616C69642E0A0020536C6FA0
:100180007443563A2000536C6F743A2000456E74E5
:100190006572206E6F746966794C4E43567772694A
:1001A00074652800456E642050726F6772616D69D6
:1001B0006E67204D6F64652E0A0049676E6F726925
:1001C0006E6720526571756573742E0A0057726FE1
:1001D0006E67204D6F64756C652041646472657351
:1001E000732E0A0057726F6E67204172746E722E02
:1001F0000A006E6F746966794C4E435670726F6771
:1002000072616D6D696E6753746F7020004469731D
:10021000636F7665723A200053747261696768741F
:10022000206973206E6F773A2000417474616368AF
:10023000656420210A004D6F76696E6720746F2017
:1002400000456E6420706F736974696F6E2072650B
:100250006163686564002F007570646174652000D7
:100260000A0020506F77657220736C6F743A20001B
:1002700020466565646261636B20736C6F74203225
:100280003A200020466565646261636B20736C6F81
:100290007420313A20002053706565643A200020B4
:1002A000416464726573733A2000205475726E6FF6
:1002B00075743A20002053747261696768743A203B
:1002C00000504341393638352050696E3A200020BD
:1002D0006B656570207570646174696E673A2000A3
:1002E000206F6E2000207265706F7274696E6720D7
:1002F000696E76657273652000206F6E2000496E0E
:100300007075742070696E2000206368616E676587
:100310006420746F200053746174652070696E20CE
:100320000020466565646261636B20736C6F7420A6
:10033000323A200020466565646261636B20736C0D
:100340006F7420313A2000204475726174696F6EB9
:100350003A200020416464726573733A200020548F
:1003600075726E6F75742050696E3A200053747206
:1003700061696768742050696E3A20005374726135
:1003800069676874005468726F776E002C2073740C
:10039000617465203D2000456E657267697A652C41
:1003A00020646972203D20004465656E657267694E
:1003B0007A65004D61676E65742073776974636850
:1003C0002064657374727563746F720020506F7768
:1003D000657220736C6F743A200020466565646214
:1003E00061636B20736C6F7420323A200020466585
:1003F00065646261636B20736C6F7420313A200016
:100400002053706565643A2000204164647265730E
:10041000733A2000205475726E6F75743A20002074
:1004200053747261696768743A2000417264756937
:100430006E6F2050696E3A2000537472616967686C
:1004400074005468726F776E0044657374727563DC
:10045000746F72210020666F7263655F6F6E3A2061
:10046000004F75747075742070696E20004163636D
:100470003A200020746F2073746174653A20004F35
:1004800075747075742070696E20005472696767A6
:100490006572696E6720736C6F7473004475616C6C
:1004A00020616374696F6E20736C6F742C206164BB
:1004B00064726573732C200020213C200062656308
:1004C00061757365205F706F727420004D756C7478
:1004D00069506F72743A204E4F5420616369746999
:1004E0007661746520736C6F742023004D756C7495
:1004F00069506F72743A2041637469766174652043
:10050000736C6F742023004D756C7469506F727436
:100510003A20526573657420706F7274004D756C6B
:100520007469506F72743A20557064617465205F0D
:10053000706F72743A20004D756C7469506F7274EC
:100540003A20737562616464726573733A20004384
:10055000757272656E74205F737562616464726532
:1005600073732000206E736C6F74733A20002062E6
:10057000617365736C6F743A20004D756C746950CB
:100580006F72742040206261736561646472657388
:100590007320002C200053657474696E67207069A5
:1005A0006E4D6F646573206F663A200050696E204F
:1005B000747970653A0050696E202300536B69703E
:1005C00070696E672070696E203400506F776572B5
:1005D00020766F6C7461676520696E206D563A20D5
:1005E000002E005549443A20004E6F206473313884
:1005F00073323020666F756E6420666F72205549C5
:1006000044002062797465732052414D2066726502
:100610006500202F20004D61782023206F66207018
:10062000696E733A20004D6F64756C652061646477
:10063000726573733A2000556E6976657273616CEA
:10064000206465636F64657220760020504B543AD5
:100650002000206163746976652070696E73206C78
:1006600065667420696E20746865207175657565AE
:1006700000456E64204C6F6F700A004C6F6F7020E5
:10068000003A2000577269746520435620002061AB
:1006900063746976652070696E73206C656674207A
:1006A000696E2074686520717565756500446F6EAC
:1006B00065207570646174696E6720000000000039
:1006C000240027002A002D0000000000250028003B
:1006D0002B002E000A0D0E0900030200000405087D
:1006E000000000000000000000000000000000000A
:1006F0000000002300260029002C00040404040448
:1007000004040402020202020203030303030302BD
:1007100002030505050501020408102040800102BE
:100720000408102001020408102040804001020447
:100730000800371D151D11241FBECFEFD8E0DEBF06
:10074000CDBF12E0A0E0B1E0E0E7F6E502C0059021
:100750000D92A637B107D9F724E0A6E7B2E001C0B1
:100760001D92A83CB207E1F713E0CAE9D3E004C048
:100770002197FE010E94F729C939D107C9F70E94C4
:10078000151E0C942B2B0C940000880F8093BA003C
:1007900008959B01AC0160E074E284EF90E00E9458
:1007A000D529205131094109510956954795379569
:1007B00027952093B8000895882321F085EC809335
:1007C000BC00089585E8FBCF85ED8093BC00809147
:1007D000BC0084FDFCCF10920503089585EC809346
:1007E000BC00109205030895CF93DF93FC0129E12B
:1007F0008EE241E050E033E071E0908190769036F7
:10080000D1F4918190934103A0914103A1501092A2
:1008100040039FEF609140036A1790F4C09140033A
:10082000CE0FDF2FD11D68819627609140036F5F47
:1008300060934003EFCF9081929596709E5FE2CFD8
:10084000AE0FBF2FB11D9C93F89490913F03913050
:1008500059F490913E03981738F010923F0390910D
:100860006F009D7F90936F00789490913F0391303B
:1008700039F490913E03943108F4BFCF70E0BDCFBE
:1008800090913F0391110EC0F89490916F009F7D5D
:1008900090936F00B59B09C090916F009062909308
:1008A0006F0078947111A9CF51C0A0913C03B09111
:1008B0003D039C9160913B03EA0102C0CC0FDD1F18
:1008C0006A95E2F79C2B9C9360918400709185005F
:1008D0006A5A7C4F70933A036093390360913903ED
:1008E00070913A0370938900609388007894F09334
:1008F0003803E0933703109240031092360390813F
:100900009093350330933F0310923E03B19A909138
:100910006F00926090936F0090913F039330E1F3EA
:1009200090913603992381F0E0913303F0913403E1
:10093000E757FF4F8081918101969183808383E007
:1009400090E0DF91CF91089590913F038B3108F0B3
:100950008150215009F050CF8091CD039091CE036A
:1009600001969093CE038093CD0386E090E0E9CF8B
:10097000CF93DF93CDB7DEB760970FB6F894DEBFA5
:100980000FBECDBFAC0141505109852F8F709A0128
:10099000369527952F7740FD14C0806461118061E2
:1009A00092EB99832A838B83CE0101960E94F403F4
:1009B00060960FB6F894DEBF0FBECDBFDF91CF912A
:1009C00008958066EBCFEF920F931F93CF93DF9341
:1009D000FC0185EE80838FE0818385E08283613036
:1009E00041F589E483838BE484838FE185831682D8
:1009F000508747833287218714870387E586DF0185
:100A00001796AF01425F5F4F91E08D9187FF07C05E
:100A10002681292B2683ED0121978F778883990FD3
:100A2000A417B50791F7DF91CF911F910F91EF9028
:100A3000089563831482D9CF2091E102260F3327D2
:100A4000331F21323105ECF420910503FC0190E0C5
:100A500080E0243069F082E00895A091E1022191C4
:100A6000AC014F535D4FA40FB52FB11D2C930196D0
:100A7000861798F38091E102680F6093E10280E0AD
:100A8000089581E008950F93413208F04BC0909192
:100A900005039111FCCF92E09093050300930703A7
:100AA0009FEF909304031092290340932803362F5D
:100AB000A8E0B3E0FB019E2F931B941770F11092F6
:100AC0002A0390912A03880F892B80932A0380910F
:100AD0000603813029F51092060380912A03809342
:100AE000BB008091BC0083FDF8CF85EC8093BC00F7
:100AF000222321F0809105038230D1F380910403F9
:100B00008F3F91F080910403803281F08091040343
:100B1000803371F084E00F91089591919D93CBCF34
:100B200085EEE4CF81E0F7CF80E0F5CF82E0F3CF30
:100B300083E0F1CF413208F043C090910503911159
:100B4000FCCF91E090930503209307032FEF2093B0
:100B5000040310922903240F2093280390932A035F
:100B600090912A03880F892B80932A038091060392
:100B7000813009F51092060380912A038093BB000F
:100B80008091BC0083FDF8CF85EC8093BC00809100
:100B900005038130E1F380912903841710F440911B
:100BA0002903A8E0B3E0962FFB018E2F891B841741
:100BB00020F0842F089585EEE8CF8D918193F5CFB5
:100BC00040E0F7CFE091AC04F091AD04309729F00C
:100BD0001092A9041092AA0409940895DC0180914E
:100BE000AE049091AF04892B19F19091A4048091E7
:100BF000A5049817E8F090E0292F30E02617370772
:100C00006CF4FD01E20FF31F4081E091A204F0912A
:100C1000A304E20FF31F40839F5FEECF1092A40462
:100C20006093A504E091AE04F091AF04CB01099468
:100C300008950895DC015096EC91509751968C914F
:100C40005197E81748F41E968D919C91E80FF92F63
:100C5000F11D808190E008958FEF9FEF0895FC01D2
:100C6000908981892FEF3FEF981740F4A685B785CB
:100C7000A90FB11D2C9130E09F5F908BC9010895A1
:100C8000FC0181899089891B990B0895CF92DF928D
:100C9000EF92FF920F931F93CF93DF938C01CB01C1
:100CA0007A01D80157962C915797222389F0EB01AE
:100CB0006B01C40ED51ECC15DD0579F06991D80104
:100CC000ED91FC910190F081E02DC8010995F3CFE1
:100CD0009896ED91FC91642F0995C701DF91CF9112
:100CE0001F910F91FF90EF90DF90CF900895CF93D9
:100CF000DF931F92CDB7DEB7FC0169838789882314
:100D0000F9F02689848595852817190654F081E025
:100D100090E09383828390E080E00F90DF91CF9109
:100D200008958981A58923893489A20FB32FB11D24
:100D30008C9385898F5F858B868B81E090E0EDCFEA
:100D400000A4F1A5E02D61E0CE0101960995F5CF53
:100D50000F93CF93DF93EC016B897C89EEA1FFA108
:100D600001E021E04E898A8909951D8A1E8A1F8A21
:100D7000DF91CF910F9108951F93CF93DF93162F9B
:100D8000C0E8D4E0A981BA81988121E057962C93DC
:100D9000579752969C93529755961C9255975696F4
:100DA0001C925697ED91FC9111970190F081E02DE6
:100DB000682FCD01099589819A81DC01ED91FC9123
:100DC0000190F081E02D612F099589819A81DF9151
:100DD000CF911F910C94A80682508D3008F03EC030
:100DE000E82FF0E0EA50F94F0C94F7292B072F0772
:100DF000030709072E072E070D07130717071D07FF
:100E00002E0721072707809180008F77809380002D
:100E10000895809180008F7DF9CF8091B0008F7709
:100E20008093B00008958091B0008F7DF9CF8091BC
:100E300090008F77809390000895809190008F7D2F
:100E4000F9CF8091A0008F778093A00008958091C2
:100E5000A0008F7DF9CF84B58F7784BD089584B5C8
:100E60008F7DFBCF1F93CF93DF93282F30E0F901C5
:100E7000EC52F94F8491F901EA5EF84FD491F901EF
:100E8000E550F94FC491CC23A9F0162F81110E948F
:100E9000EC06EC2FF0E0EE0FFF1FE853F94FA591A1
:100EA000B4918FB7F894EC91111108C0D095DE235E
:100EB000DC938FBFDF91CF911F910895DE2BF8CF88
:100EC0001092050381E0809307031092060361E00E
:100ED00082E10E94320761E083E10E943207E9EB80
:100EE000F0E080818E7F808380818D7F808388E4A5
:100EF0008093B80085E48093BC000895ECEBF0E0AB
:100F000080818A7B808360E082E10E94320760E01A
:100F100083E10C943207CF93DF9390E0FC01EA5E0B
:100F2000F84F24918550994FFC0184918823C9F092
:100F300090E0880F991FFC01E454F94FA591B491FA
:100F4000FC01E853F94FC591D49161110DC09FB7D1
:100F5000F8948C91209582238C9388812823288370
:100F60009FBFDF91CF910895623051F49FB7F894FD
:100F70003C91822F809583238C93E8812E2BEFCF99
:100F80008FB7F894EC912E2B2C938FBFEACF880F5C
:100F9000991F880F991F05970197F1F708950F93EF
:100FA0001F93CF93DF9310917204C0917304D0917B
:100FB0007404F8948981812B89838A81012F00959B
:100FC00080238A8383E090E00E94C7078981802381
:100FD00089838AE090E00E94C707C881789485E3FE
:100FE00090E00E94C7071C2381E009F480E0DF91B4
:100FF000CF911F910F9108951F93CF93DF9310917D
:101000007204C0917304D0917404912F909580FF65
:1010100016C0F8948A8189238A838981812B8983E8
:101020008AE090E00E94C7078A81182B1A8378947F
:1010300087E390E0DF91CF911F910C94C707F8945C
:101040008A8189238A838981812B898381E490E045
:101050000E94C7078A81182B1A83789485E090E054
:10106000E9CFFF920F931F93CF93DF93F82E062FB4
:10107000C8E0D0E011E081E09F2D912309F480E0E9
:101080000E94FC07110F2197B1F7011113C0F894CA
:10109000E0917304F09174049181809172048095C1
:1010A00098239183E0917304F091740492818923D1
:1010B00082837894DF91CF911F910F91FF900895D3
:1010C000CF93DF9360E085E50E943108CBE2D3E067
:1010D00060E089910E94310883E0C333D807C1F7EB
:1010E000DF91CF910895FF920F931F93CF93DF93DA
:1010F00010917204C0917304D0917404F8948981A2
:10110000012F00958023898378948DE7F82EFA9437
:10111000FF2061F182E090E00E94C707888181236F
:10112000B1F3F8948A8180238A838981812B898312
:10113000789480EE91E00E94C707F894898180231B
:10114000898386E490E00E94C70788811823C1E064
:1011500009F0C0E078948AE991E00E94C7078C2FDB
:10116000DF91CF911F910F91FF900895C0E0F7CFCD
:101170003FB7F8948091BD029091BE02A091BF024A
:10118000B091C00226B5A89B05C02F3F19F001966B
:10119000A11DB11D3FBFBA2FA92F982F8827BC01D1
:1011A000CD01620F711D811D911D42E0660F771FF9
:1011B000881F991F4A95D1F708958F929F92AF92F9
:1011C000BF92CF92DF92EF92FF924B015C010E949F
:1011D000B8086B017C010E94B8086C197D098E0962
:1011E0009F09683E734081059105A8F321E0821AAA
:1011F0009108A108B10888EEC80E83E0D81EE11C52
:10120000F11C81149104A104B10429F7FF90EF901F
:10121000DF90CF90BF90AF909F908F9008952FB7A1
:10122000F8946091B9027091BA028091BB029091DA
:10123000BC022FBF0895AF92BF92CF92DF92EF9280
:10124000FF920F931F93CF93DF936C017B018B0170
:10125000040F151FEB015E01AE18BF08C017D107C0
:1012600059F06991D601ED91FC910190F081E02D4A
:10127000C6010995892B79F7C501DF91CF911F919F
:101280000F91FF90EF90DF90CF90BF90AF900895B7
:1012900090E080E00895FC01538D448D252F30E0CF
:1012A000842F90E0821B930B541710F0CF96089573
:1012B00001970895FC01918D828D981761F0A28DA0
:1012C000AE0FBF2FB11D5D968C91928D9F5F9F7366
:1012D000928F90E008958FEF9FEF0895FC01918D1C
:1012E000828D981731F0828DE80FF11D858D90E089
:1012F00008958FEF9FEF08950F931F930E940F099A
:101300006093DD037093DE038093DF039093E0032B
:1013100085ED93E00E946E0997FF1DC00E940F09A2
:101320000091DD031091DE032091DF033091E00393
:10133000601B710B820B930B0091D9031091DA03A0
:101340002091DB033091DC0360177107820793075C
:10135000F8F28FEF9FEF1F910F910895CF92DF92D8
:10136000EF92FF92CF930E947C09FC0197FD4EC043
:101370008D32910521F0C0970A9708F040C0C12C2A
:10138000D12C7601C0E0E130F105D1F0ED32F1056C
:10139000D9F1CF01C0970A9798F4AAE0B0E0A7016D
:1013A00096010E94A7296F01FF0FEE08FF08C60EE5
:1013B000D71EE81EF91E80E3C81AD108E108F1081B
:1013C00085ED93E00E945A090E947C09FC01C097B8
:1013D0000A97C8F2E130F105B1F2CC2341F0F09464
:1013E000E094D094C094C11CD11CE11CF11CC70135
:1013F000B601CF91FF90EF90DF90CF90089585EDEB
:1014000093E00E945A09AFCFC1E0DACFC12CD12CB2
:101410007601EDCFFC01918D228D892F90E0805CCB
:101420009F4F821B91098F739927089585ED93E053
:101430000E940A0A21E0892B09F420E0822F0895F6
:10144000FC01A48DA80FB92FB11DA35ABF4F2C9139
:10145000848D90E001968F739927848FA689B78930
:101460002C93A089B1898C9180648C93938D848D09
:10147000981306C00288F389E02D80818F7D8083D8
:101480000895EF92FF920F931F93CF93DF93EC0198
:1014900081E0888F9B8D8C8D981316C0E889F9891F
:1014A000808185FF11C0EE89FF896083E889F98911
:1014B00080818064808381E090E0DF91CF911F91F3
:1014C0000F91FF90EF900895F62E0B8D10E00F5FB7
:1014D0001F4F0F731127E02E8C8D8E110CC00FB68D
:1014E00007FCFACFE889F989808185FFF5CFCE0125
:1014F0000E94200AF1CFEB8DEC0FFD2FF11DE35A76
:10150000FF4FF0820B8FEA89FB8980818062D2CF06
:101510000F931F93CF93DF938C01D0E0C0E0F801CD
:10152000EC0FFD1F6491662341F085ED93E00E946E
:10153000410A892B11F02196F2CFCE01DF91CF9194
:101540001F910F910895CF93DF93EC01888D88232D
:10155000B9F0AA89BB89E889F9898C9185FD03C016
:10156000808186FD0DC00FB607FCF7CF8C9185FFFB
:10157000F2CF808185FFEDCFCE010E94200AE9CF16
:10158000DF91CF91089580E090E0892B29F00E94AF
:10159000160A81110E94000080E090E0892B49F03A
:1015A00080E090E0892B29F00E94000081110C94CA
:1015B000000008958032910510F401970895880F76
:1015C000991F819708950895089508950895FC013D
:1015D000878190E00895FC012381348162177307AD
:1015E00050F0A901485F5F4F6417750720F4621B34
:1015F000608781E0089580E0089561E0DC011F9636
:101600002D913C91232B09F060E0DC01ED91FC91E0
:101610000284F385E02D41E00994DC0116966C917B
:10162000169721E06227ED91FC910284F385E02D6D
:1016300041E0099480E008952AE731E0FC0131831C
:10164000208389E494E00C94880AFC0181E0611510
:10165000710509F480E0818B672B69F086819781A1
:10166000958B848B84899589938B828B178A168AB4
:10167000138E128E089580859185F2CFFC018189A9
:1016800090E00895FC018189882321F089E394E0AA
:101690000C94880A82E494E0FBCFDC0151966C91B3
:1016A000519721E06227ED91FC910284F385E02DB2
:1016B00040E00994DC0162307105C1F038F4611535
:1016C000710559F06130710559F008956330710565
:1016D000E9F06430710549F1089512964C9308952C
:1016E00013964C93139714965C93089518964C9305
:1016F000189719965C931997ED91FC9111970284B4
:10170000F385E02D40E060E0CD01099416964C93FE
:10171000169717965C931797ED91FC911197028499
:10172000F385E02D40E061E0EFCF1A964C931A97D5
:101730001B965C93089522E431E0FC013183208301
:1017400083EB93E00C94880AFC018289882321F0C2
:101750008CE793E00C94880A85E893E0FBCFFC01CA
:10176000662319F091E0942797834683089526E92C
:1017700031E0FC01318320830C941C0BDC01ED91E2
:10178000FC910190F081E02D09940F931F93CF936A
:10179000DF938B01EC0169817A816115710551F04C
:1017A000CE01F80109951816190624F00980DA818E
:1017B000C02DF1CFCE01DF91CF911F910F910895F0
:1017C0004F925F926F927F928F929F92AF92BF9251
:1017D000CF92DF92EF92FF920F931F93CF93DF93FD
:1017E000FC012281338122303105F4F05B016C0170
:1017F0002C01F4E04F0E511C7201F701C081D18120
:101800002097D1F3B501CE010E94C50B4C01FC011C
:101810000181128101151105C1F4E414F50461F789
:10182000F601978386831486DF91CF911F910F91E4
:10183000FF90EF90DF90CF90BF90AF909F908F90F0
:101840007F906F905F904F900895B501C8010E94FE
:10185000C50BFC0161807280F40112821182FC01CF
:1018600012821182B801CE01F5010995F70118160F
:1018700019066CF0D183C0837E01FFEFEF1AFF0AD7
:1018800089819A81009781F41A8309831CC011838E
:1018900000837801FFEFEF1AFF0AF801818192813E
:1018A0000097D1F08C01CE01EC01DCCFEC018981F5
:1018B0009A810097D9F77A8269827E01FFEFEF1A49
:1018C000FF0A9BCF8C01F801818192810097D1F7AB
:1018D000728261827801F2CFD283C183E8CFCF9345
:1018E000DF93EC01E881F9810190F081E02DCE01D8
:1018F00009951816190644F4E881F9810684F785DC
:10190000E02DCE010995EECFDF91CF910895DC0156
:101910001496ED91FC9115971C968C911C97882339
:10192000B1F01A962D913C911B97621773077CF0CA
:101930001896ED91FC911997261737075CF43097AC
:10194000C1F00180F281E02D2F5F3F4FF5CF30E0F5
:1019500020E0F2CF2617370771F481E01C968C93B4
:101960001C971B963C932E931A971996FC93EE9313
:101970001897CF010895F0E0E0E0FBCFCF9377FD1B
:101980000EC0FC01228133816217730744F4C42F17
:101990000E94870CFC01C08381E0CF91089580E014
:1019A000FCCF0E94870C009719F0FC0180810895FC
:1019B00080E00895FC018281938108950097B1F041
:1019C000209181022817190689F080F0880F991F4D
:1019D000FC01EB57FD4F808191816170DC01ED913D
:1019E000FC910284F385E02D40E0099408950F9363
:1019F0001F93CF93DF93EC010E940F090C851D8587
:101A00002E853F85601B710B820B930B693C710522
:101A10008105910570F08B85882359F089859F8118
:101A200070E060E0890F9927991F0E94DE0C1F82E9
:101A30001B868B85DF91CF911F910F9108951F9386
:101A4000CF93DF93EC01162F0E940F096C877D87DF
:101A50008E879F8781E08B871F83898561E070E097
:101A6000212F280F3327331FC901DF91CF911F91F9
:101A70000C94DE0C0F931F93CF93DF93FC0127850B
:101A80003089232B59F1EC010E940F090B851C852D
:101A90002D853E85AB01BC01401B510B620B730BC6
:101AA00089859A85B0E0A0E084179507A607B70757
:101AB00078F48A89882371F08F859889019751F489
:101AC000888561E070E090E00E94DE0C188A1F8635
:101AD00081E005C08F8170E060E0F5CF80E0DF91AC
:101AE000CF911F910F9108950F931F93CF93DF9381
:101AF000EC0199899617F9F02F853889232BD9F4B1
:101B000081E0961708F080E0042F162F8A8B961735
:101B1000B8F481E090E0988B8F878F8161E070E06E
:101B200090E00E94DE0C0111198B0E940F096B8757
:101B30007C878D879E87DF91CF911F910F910895AC
:101B400081E090E0988B8F87888570E060E0E8CF37
:101B500082E480937C0080917A00806480937A0094
:101B600080917A0086FDFCCF8091780060917900A9
:101B7000762F682F90E080E00E943F282AE137E628
:101B80004CE950E40E94A02820E030E040E551E418
:101B90000E94A0280E94DC2ACB010895CF93DF93F6
:101BA00000D0CDB7DEB72091C4043091C504211513
:101BB000310511F428EC34E0CE010196821B930B21
:101BC0000F900F90DF91CF91089590E080E00895FD
:101BD000089580E00895089508950895089521E0F6
:101BE000FC01838194818617970709F020E0822FFA
:101BF000089508950C94B1270C94B1270C94B12743
:101C00000C94B127CF93DF93EC010E941C0BCE0103
:101C1000DF91CF910C94B127CF93DF93EC010E9419
:101C20009B0BCE01DF91CF910C94B127CF93DF9323
:101C3000EC010E94B70BCE01DF91CF910C94B1273C
:101C4000EF92FF921F93CF93DF93FC016281738128
:101C500010E016161706DCF4EC01148661307105ED
:101C6000E9F0625071090E94870C7C01FC018181BE
:101C70009281FC0110810E94B127F701128211822A
:101C8000FF82EE828A819B8101979B838A83812FC9
:101C9000DF91CF911F91FF90EF90089584819581FE
:101CA000FC0110810E94B1271D821C821F821E82AE
:101CB0001B821A82ECCFEF92FF921F93CF93DF9398
:101CC000DC0112962D913C9113971216130634F5F0
:101CD00021303105C1F0EC018C819D81FC01E18056
:101CE000F28010810E94B127FD82EC828A819B8163
:101CF00001979B838A831C86812FDF91CF911F914F
:101D0000FF90EF900895ED91FC910484F585E02D0E
:101D1000DF91CF911F91FF90EF90099410E0ECCFED
:101D20001F93CF93DF9377FD3EC0DC0112962D9178
:101D30003C91139762177307B4F56115710549F467
:101D4000ED91FC910684F785E02DDF91CF911F91F5
:101D50000994215031092617370731F4ED91FC9190
:101D60000484F585E02DF1CFEC01615071090E94EA
:101D7000870CDC011196ED91FC9112971081218165
:101D8000328112963C932E931197CF010E94B12776
:101D90008A819B8101979B838A831C86812FDF9197
:101DA000CF911F91089510E0F9CF0C94B1278F9235
:101DB0009F92AF92BF92CF92DF92EF92FF92CF931A
:101DC000DF936B017C0120E030E040E85FE30E949C
:101DD0003A2887FDBCC020E030EC4AE555E4C70155
:101DE000B6010E940B2B18163CF4C12C30ECD32EFC
:101DF0003AE5E32E35E4F32E609183047091840478
:101E000080918504909186040E943F284B015C01DB
:101E100020E030E040E855E4C701B6010E94A02868
:101E20009B01AC01C501B4010E946A2A20E030E0A8
:101E300040E05FE30E94FE2920E030E040E85FE3FD
:101E40000E94FD296B017C0120E030E040E450E479
:101E50000E943A2887FD82C020E030E04FE753E43B
:101E6000C701B6010E940B2B181634F4C12CD12CDB
:101E70009FE7E92E93E4F92EC701B6010E94DC2A00
:101E8000F62EA0918104B09182048091800491E0AB
:101E900057969C93579752968C93529755961C92AF
:101EA000559756961C925697ED91FC91119701907B
:101EB000F081E02D60E0CD01099580918104909141
:101EC00082040E94A806C0918104D091820480916E
:101ED00080044C855D851416150614F441E050E02D
:101EE0006E857F85ECA1FDA121E00995188A898B7B
:101EF0008091810490918204DC01ED91FC91028437
:101F0000F385E02D0995C82F682F6F76606180E01A
:101F10000E94BC066F2D8EEF0E94BC066C2F80E0E5
:101F20000E94BC0665E070E080E090E00E94DD0861
:101F30006C2F606A80E0DF91CF91FF90EF90DF908F
:101F4000CF90BF90AF909F908F900C94BC06C12C07
:101F5000D12C20E8E22E2FE3F22E4ECFC12CD12C33
:101F600080E4E82EFE2C88CFFF920F931F93CF932F
:101F7000DF93DC0112960D911C9113970115110549
:101F800059F4ED91FC910480F581E02DDF91CF9122
:101F90001F910F91FF900994F62EEC0183E090E0E1
:101FA0000E9415272C813D81FC0132832183F08220
:101FB0009D838C830F5F1F4F1B830A831C8681E0E8
:101FC000DF91CF911F910F91FF900895DF92EF92D3
:101FD000FF920F931F93CF93DF93EB01642FDC01EC
:101FE00012964D915C911397C417D5076CF0ED9143
:101FF000FC910480F581E02DDF91CF911F910F912D
:10200000FF90EF90DF900994209731F4ED91FC91CF
:102010000680F781E02DF0CFD62E8C0183E090E092
:102020000E9415277C01FC01108212821182BE01E0
:1020300061507109C8010E94870CD701DC92FC0134
:102040002181328112963C932E931197F282E18284
:10205000D80112968D919C911397019613969C939B
:102060008E9312971C961C9281E0DF91CF911F9165
:102070000F91FF90EF90DF9008951F93CF93DF9320
:10208000EC01162F83E090E00E941527FC011282DC
:10209000118210832C813D81232B89F0EE81FF81F9
:1020A000928381839F838E838A819B8101969B8308
:1020B0008A831C8681E0DF91CF911F9108959D83D3
:1020C0008C83F0CFFC0101900020E9F73197AF013C
:1020D000481B590BBC0185ED93E00C941B098F92B2
:1020E0009F92AF92BF920F931F93CF93DF93CDB781
:1020F000DEB7A1970FB6F894DEBF0FBECDBF19A211
:10210000423008F44AE08E010F5D1F4F842E912C5F
:10211000B12CA12CA50194010E94D529E62FB9016B
:10212000CA01EA30F4F4E05DD801EE938D01232B6F
:10213000242B252B79F790E080E0109719F0CD0142
:102140000E946210A1960FB6F894DEBF0FBECDBFFD
:10215000DF91CF911F910F91BF90AF909F908F9083
:102160000895E95CE1CF462F682F70E090E080E0B1
:102170000C946F10BC0190E080E04AE00C946F106A
:10218000CF93DF93EC018DE693E00E94880A6AE02A
:1021900070E08A810E94B3108EE593E00E94880A65
:1021A0008E819F810E94BA1083E593E00E94880A85
:1021B0008B819C810E94BA1087E493E00E94880A78
:1021C000888599850E94BA1084E393E00E94880A6A
:1021D0008A859B850E94BA1081E293E00E94880A5A
:1021E0008C859D85DF91CF910C94BA10CF93DF93AE
:1021F000EC0181EC92E00E94880A6AE070E08A813A
:102200000E94B31085EB92E00E94880A8885998528
:102210000E94BA108AEA92E00E94880A8E819F8109
:102220000E94BA108FE992E00E94880A8B819C81FB
:102230000E94BA1086E992E00E94880A8A859B85EE
:102240000E94BA1083E892E00E94880A8D859E85DC
:102250000E94BA1080E792E00E94880A8F859889D0
:102260000E94BA1082E692E00E94880A6AE070E05A
:102270008C850E94B31080E692E0DF91CF910C94A0
:10228000880ACF92DF92EF92FF92CF93DF936C0197
:10229000990FEE08FF08F7FE19C06DE285ED93E097
:1022A0000E94410AEC0166277727CB016C197D0952
:1022B0008E099F094AE00E946F108C0F9D1FDF91CD
:1022C000CF91FF90EF90DF90CF9008954AE0C70143
:1022D000B601DF91CF91FF90EF90DF90CF900C94FB
:1022E0006F101F93CF93DF93EC01142F9F819923DD
:1022F00059F089854423E9F08F5F89878985192FF3
:10230000181614F0198610E08DE694E00E94880AF1
:102310008985082E000C990B0E944111E881F981F2
:102320000484F585E02D612FCE01DF91CF911F91BF
:1023300009948150E2CF0F931F93CF93DF93EC0169
:102340002A81222309F130E0F901EC52F94F8491FE
:10235000F901EA5EF84F0491F901E550F94F149143
:10236000112379F081110E94EC06E12FF0E0EE0FCD
:10237000FF1FE151F94FA591B491EC910E2381E03B
:1023800009F480E081708E836E818F81681709F176
:102390008B819C810E94B8048A85882339F06E81E4
:1023A00081E06827888599850E94B80486E193E0DA
:1023B0000E94880A6AE070E08A810E94B31089E076
:1023C00093E00E94880A8E8190E00E9441118E81E4
:1023D0008F838B85DF91CF911F910F910895CF93BC
:1023E000DF930E94BA10EC0184E292E00E94621036
:1023F0008C0F9D1FDF91CF910895CF93DF93EC0158
:1024000062307105C1F048F46115710579F06130F1
:10241000710571F0DF91CF9108956330710569F115
:1024200064307105B9F75B874A87F4CF4A83F2CFEE
:102430005C834B83EFCFBA0190E080E00E943F289D
:102440002FE335E342E850E40E946A2A0E94DC2A26
:102450007987688788E192E00E94880A8885998553
:102460000E94EF11E881F9810284F385E02D40E0BC
:1024700060E0CE01DF91CF910994BA0190E080E055
:102480000E943F282FE335E342E850E40E946A2A85
:102490000E94DC2A7F836E83E881F9810284F385C0
:1024A000E02D40E061E0E5CFEF92FF920F931F93A4
:1024B000CF93DF938C01F62EE72E88EC90E00E94FC
:1024C000880AC8010E94BA108DEB90E00E94880A29
:1024D000E801CC0FDD1FCB57DD4FE881F981838107
:1024E00094810E94BA1084EB90E00E94880A8F2D9C
:1024F0009E2D0E94EF11012B69F0E881F9816F2D6B
:1025000083819481DF91CF911F910F91FF90EF9084
:102510000C94B804DF91CF911F910F91FF90EF9031
:102520000895CF93DF93EC018D859E852A8D3B8D99
:1025300070E060E02130310529F0298921110CC0BB
:1025400061E070E00E94541270E060E08F8598892D
:10255000DF91CF910C94541270E060E00E9454120D
:1025600061E070E0F3CF1F93CF93DF93EC01162F60
:10257000662321F18E819F819D8B8C8B8A859B8523
:102580004C895D892A893B894217530718F4919534
:10259000819591099F8B8E8B8C8561E070E090E036
:1025A0000E94DE0CCE010E949112198B81E090E016
:1025B0009B8F8A8FDF91CF911F9108958885998590
:1025C000DBCFCF92DF92EF92FF920F931F93CF93C7
:1025D000DF93FC01228D338D2230310551F480E0F0
:1025E000DF91CF911F910F91FF90EF90DF90CF90EF
:1025F0000895EC0188E592E00E94880A8A899B8907
:102600000E94BA1086E592E00E94880A8C899D8912
:102610000E94EF112A893B898C899D89281B390BDF
:102620008E899F8997FF03C09195819591092817FD
:10263000390790F481E492E00E94880A82E090E0F9
:102640009B8F8A8F8C8570E060E090E00E94DE0CAA
:10265000CE010E949112C3CF888D998D0196998FDA
:10266000888FCA8CDB8CF1E0CF16D10409F067C0EB
:10267000893E934008F461C086E392E00E94880A94
:10268000EA88FB888E899F89E80EF91EFB8AEA8A10
:102690000C8D1D8D6A81F801A181B281808191E04C
:1026A00057969C93579752968C93529755961C9297
:1026B000559756961C925697F4E06F9FB0011124DF
:1026C0006A5F7F4FED91FC9111970190F081E02DB1
:1026D000CD01099570E060E0F801818192810E944E
:1026E000BE0B70E060E0F801818192810E94BE0B18
:1026F000B701F801818192810E94BE0B6F2D70E0BD
:10270000F801818192810E94BE0BF8018181928142
:102710000E94A8068A899B890E94EF118E899F8951
:10272000892B49F42C893D898A899B892817390787
:1027300011F4DF8ACE8A198E188E81E051CFCD2810
:1027400009F04DCF8B3F910508F449CF8AE292E022
:102750000E94880A81E090E09B8F8A8F41CF0C9481
:102760006210CF93DF930E946210EC0184E292E04A
:102770000E9462108C0F9D1FDF91CF910895CF931F
:10278000DF930E944111EC0184E292E00E9462100A
:102790008C0F9D1FDF91CF9108951F93CF93DF93EF
:1027A000EC01162F88858111182F8FE794E00E9485
:1027B000880A6AE070E08A810E94B31083E794E09F
:1027C0000E94880A812F90E00E94BF13612F8A81A6
:1027D000DF91CF911F910C943207CF93DF93EC01DF
:1027E00081E694E00E94880A6AE070E08A810E9493
:1027F000B31085E594E00E94880A888590E0DF9117
:10280000CF910C94BF13CF93DF93EC018EEF92E046
:102810000E94880A6AE070E08A810E94B31089EF02
:1028200092E00E94880A8B819C810E94BA1085EEFA
:1028300092E00E94880A8A8590E00E94411180EE11
:1028400092E00E94880A888599850E94BA108FECD0
:1028500092E00E94880A8B8590E0DF91CF910C94E2
:10286000BF13CF93DF930E94880AEC0184E292E0C9
:102870000E9462108C0F9D1FDF91CF9108950F93DE
:102880001F93CF93DF93EC0188859985892B09F4F9
:102890004EC08E859F85A889B989892B8A2B8B2B61
:1028A00009F445C00E940F090E851F8528893989C2
:1028B000AB01BC01401B510B620B730B88859985E2
:1028C000B0E0A0E011E084179507A607B707F8F479
:1028D00088EA93E00E9431141E861F86188A198A9E
:1028E00060E08A810E94320760E08E810E94320798
:1028F0001A898A859B85111110C061E070E00E94E1
:10290000541270E060E08C859D850E945412812FE6
:10291000DF91CF911F910F91089570E060E00E94C8
:10292000541261E070E08C859D850E94541210E085
:10293000EECFCF93DF936AE070E00E94B310EC011A
:1029400084E292E00E9462108C0F9D1FDF91CF9174
:102950000895CF93DF93EC018AE795E00E94880AFF
:102960008B819C810E94BA108EE695E00E94880AB5
:102970006AE070E089850E94B31084E695E00E94C9
:10298000880A8A850E9499148FE495E00E94880A3B
:102990008885DF91CF910C9499140F931F93CF9357
:1029A000DF93EC01062F142F87E395E00E94880A3D
:1029B00088850E9499142885263071F501114BC035
:1029C000112329F11F8287E095E0DF91CF911F91BC
:1029D0000F910C9431148CEC94E00E94880A898544
:1029E0009F81890F9927991F0E94BF138DEB94E057
:1029F0000E94880A6AE070E08F810E94B31088EB21
:102A000094E00E94880A8A850E9499141F82DF91AF
:102A1000CF911F910F910895002391F08FEF9FEFB9
:102A2000DC018C879D87AE87BF8781E090E0AC0199
:102A300002C0440F551F2A95E2F78F81842B8F83A4
:102A40008DE195E00E94880A8F81DF91CF911F91DF
:102A50000F910C9499141123D1F22F818985820F43
:102A60009927991F3D813817190609F4B4CF8A8533
:102A7000281708F0B0CF0E940F096C877D878E87DA
:102A80009F8781E08B878CEE94E00E94880A89857D
:102A90009F81890F9927991F0E94BF1389859F8164
:102AA000890F9927991F009709F4B1CF20918102CE
:102AB0002817190609F008F4AACF880F991FFC01FE
:102AC000EB57FD4F80819181DC01ED91FC910284F7
:102AD000F385E02D41E061E0DF91CF911F910F91EF
:102AE0000994CF93DF93EC018CE994E00E94880A6B
:102AF0008B819C810E94EF118BE894E00E94880AF0
:102B00006AE070E08F810E94B31088E292E00E9438
:102B1000AF138885DF91CF910C949914CF93DF93F5
:102B2000EC018BE294E00E94880A6AE070E08A81FE
:102B30000E94B3108FE194E00E94880A88859985ED
:102B40000E94BA1084E194E00E94880A8E819F81DD
:102B50000E94BA1089E094E00E94880A8B819C81CF
:102B60000E94BA1080E094E00E94880A8A859B85C2
:102B70000E94BA108DEE93E00E94880A8D859E8592
:102B80000E94BA108AED93E00E94880A8F85988986
:102B90000E94BA108CEC93E00E94880A8C85DF9129
:102BA000CF910C9499140F931F93CF93DF93EC0163
:102BB000062F142F8A859B852A8921112EC061E05A
:102BC00070E00E94541270E060E08C859D850E9448
:102BD00054120A8B0E940F096E877F87888B998B0E
:102BE00087E993E00E94880A802F90E00E944111BB
:102BF0008CE893E00E94880A812F90E00E94BF1326
:102C0000612F002389F08A810E9432078A81DF9137
:102C1000CF911F910F910C94991470E060E00E9485
:102C2000541261E070E0D1CF8E810E9432078E8114
:102C30009F81DF91CF911F910F910C94EF110F9312
:102C40001F93CF93DF938C01EB018DE092E00E9404
:102C5000880AF801808191810E94BA1081E197E28F
:102C60000E94411180E090E00E945E2990E09983EB
:102C7000888381E197E2F80191838083888199813B
:102C80000E94BA108FE7DF91CF911F910F910895A5
:102C9000EF92FF920F931F93CF93DF937C018B01F1
:102CA00080E090E00E945E29C82FD0E0F70180818B
:102CB00091810E94BA10F801808191810E94BA101E
:102CC000CE010E94BA10F701808191818131974233
:102CD00001F5F801808191818C179D0779F481E0DD
:102CE0008093820288E591E00E94880A8FE7DF9155
:102CF000CF911F910F91FF90EF900895019649F4A5
:102D000080E090E00E945E2990E0F801918380834A
:102D1000EDCF109282028FEFEACF0F931F93CF93E4
:102D2000DF938C01EB0182EF91E00E94880A809191
:102D30008202882311F101311742A1F480E090E072
:102D40000E945E298C171D06A9F41092820284EA63
:102D500091E00E94880A0C940000DF91CF911F91AE
:102D60000F91089584EE91E0DF91CF911F910F9123
:102D70000C94880A8DEC91E0F7CF8AEB91E0F4CFC8
:102D8000CF93DF93EC010E94DA0A80509040A09725
:102D900034F40E945E2990E0DF91CF910895DF9195
:102DA000CF910C946629CF92DF92EF92FF920F930E
:102DB0001F93CF93DF937C018B01E90182E491E0C3
:102DC0000E94880AC7010E94BA1087E292E00E941E
:102DD000AF13C8010E94BA1087E292E00E94AF13BD
:102DE00087E292E00E94AF13888199810E94BA1015
:102DF0008AE292E00E94AF1380918202882309F454
:102E00001CC181E1E81687E2F80609F010C189E1EA
:102E100090E00530110509F462C00034E1E01E07BE
:102E200010F5C8010E94C0169983888380E391E061
:102E30000E94880AC8010E94DA0A805090400E94CD
:102E4000BA1082E291E00E94880A888199810E94EA
:102E5000EF118FE7DF91CF911F910F91FF90EF90CE
:102E6000DF90CF9008950A3FF3E01F0709F042C0BA
:102E70000E9473080E94600861E084E40E943108A7
:102E800068EE73E080E090E00E94DD080E94730825
:102E90000E94600860E08EEB0E94310806E712E0B5
:102EA00068E0C62ED12CF12CEE24E3940E94CF07CB
:102EB0008111FE28EE0C81E0C81AD108B9F7F8019B
:102EC000F1928F01F2E00F371F0751F780917602E0
:102ED0009091770220917A02207621F4887F99835D
:102EE0008883B7CF203211F48C7FF9CF2034B9F723
:102EF0008E7FF5CF0B3F83E0180759F480912B03A9
:102F000090E0982F88279983888320912C03822B27
:102F1000E6CF0C3FE3E01E0751F480912D0390E0D3
:102F2000982F88279983888320912E03F0CF0D3F17
:102F3000F3E01F0751F480912F0390E0982F88272A
:102F40009983888320913003E2CF0E3F83E01807F6
:102F500051F48091310390E0982F882799838883DA
:102F600020913203D4CF88EF91EA0F3FE3E01E07B0
:102F700009F4B5CF0115F4E01F0719F40E94CE0D36
:102F8000AECF013084E0180729F480917602909149
:102F90007702A5CF8091C8049091C9040230E4E083
:102FA0001E0709F49CCF0330F4E01F0719F48DB716
:102FB0009EB795CFC80184509440059748F50630D8
:102FC00084E01807D9F068F48091C9039091CA038E
:102FD0000530144009F483CF8091C7039091C80352
:102FE0007ECF073084E0180771F08091CF03909175
:102FF000D0030830144009F472CFEECF8091CB0398
:103000009091CC036CCF8091CD039091CE0367CF8C
:103010000A30F4E01F0719F40E94A80D60CF0B30AE
:10302000144071F480917F029091800258CF82E128
:1030300091E00E94880A8FEF0DCF8FEF90E0F9CFDB
:1030400081E008CF0F931F93CF93DF938C01EB01A7
:103050000E94DA0A805090406C2F0032110530F443
:10306000DF91CF911F910F910C946C297D2FDF91EF
:10307000CF911F910F910C947E29BF92CF92DF9236
:10308000EF92FF920F931F93CF93DF9320918202D1
:10309000222309F4AFC0E52EF42EEB018C018DE85C
:1030A00091E00E94880AC8010E94BA1087E292E06B
:1030B0000E94AF13CE010E94BA1087E292E00E94F4
:1030C000AF1387E292E00E94AF138F2D9E2D0E94D6
:1030D000BA108AE292E00E94AF130131174209F060
:1030E00085C081E0C034A1E0DA0738F5CE010E9446
:1030F000DA0A0E94BA1081E0C032D10508F082E0FD
:103100006AE070E00E94B3106AE070E08F2D0E94C8
:10311000B3106F2D7E2DCE010E9422186FEE70E04D
:1031200082E090E00E942218CE010E94C0160E9408
:10313000BA10C032D10558F48FE7DF91CF911F91BB
:103140000F91FF90EF90DF90CF90BF900895A097E0
:10315000CE016AE070E00E94C129D62EB72E85E22A
:1031600092E00E94AF1386E891E00E94880A6AE02C
:1031700070E08D2D0E94B3108CE791E00E94880AC8
:103180000D2D1B2D2AE0209FC001219F900D1124A1
:10319000C81BD90BCE010E94BA1085E292E00E94B2
:1031A000AF1380918102D81638F6000F111F0B570C
:1031B0001D4FF80180819181DC01ED91FC91068425
:1031C000F785E02D4F2D5E2DBE010995F801808118
:1031D0009181DC01ED91FC910680F781E02D09954C
:1031E0006D2D87E894E00E943D10A6CF8CE691E01B
:1031F0000E94880A8FEFA1CFAF92BF92CF92DF9249
:10320000EF92FF920F931F93CF93DF937C01062FD2
:10321000D42E8EEE90E00E94880AC7010E94BA1058
:103220006AE385ED93E00E94410A84E392E0DD20A9
:1032300011F08DE292E00E94AF1382E492E00E94CE
:10324000AF138EE392E0002311F08BE392E00E9433
:10325000B11310E094E1C92E80918102181708F093
:1032600066C0C12FD0E0CC0FDD1FCE018B579D4F24
:103270005C01DC018D919C91DC01ED91FC9104805D
:10328000F581E02DB7010995882309F44EC0F501B9
:103290008081918141E0011101C040E061E0D110E5
:1032A00001C060E0DC01ED91FC910284F385E02D2A
:1032B0000995612F87E894E00E943D10CB57DD4FC0
:1032C00088819981DC01ED91FC910288F389E02DE0
:1032D000099588819981DC01ED91FC910688F78937
:1032E000E02D09951C9D90011124BC01C901855D4B
:1032F0009F4F0E9492298EED90E00E94880A6AE01A
:1033000070E0812F0E94B31088ED90E00E94880A3F
:1033100088819981DC01ED91FC910088F189E02D93
:10332000099585E292E00E94AF131F5F95CFDF9170
:10333000CF911F910F91FF90EF90DF90CF90BF90B2
:10334000AF9008951F920F920FB60F9211242F93F2
:103350003F934F935F936F937F938F939F93AF931D
:10336000BF93EF93FF938091B900887F803609F473
:103370004CC008F03FC0883209F4A8C018F580316D
:1033800009F49CC0B8F4882309F4F9C0883009F422
:1033900095C0FF91EF91BF91AF919F918F917F91D8
:1033A0006F915F914F913F912F910F900FBE0F90B2
:1033B0001F901895883109F489C0803251F78093A5
:1033C000040315C0803409F49EC048F48033B9F377
:1033D0008833F9F6809304030E94EE03DACF803538
:1033E00009F485C0883509F496C0883491F60E94A6
:1033F000E403CFCF883909F48CC038F5883729F039
:1034000050F4883611F0803721F683E0809305036D
:103410001092030357C0883809F47BC0803919F033
:10342000803809F0B6CF80910303803208F071C074
:10343000E091030381E08E0F809303038091BB0032
:10344000F0E0ED51FD4F80833DC0803B39F0E0F46A
:10345000803A09F479C0883A09F09BCF84E08093E0
:1034600005031092E2021092E102E091D303F09181
:10347000D40309958091E10281110FC081E080930E
:10348000E1021092C10209C0803C09F476C0883C78
:1034900009F473C0883B09F07CCFE091E20281E03F
:1034A0008E0F8093E202F0E0EF53FD4F8081809316
:1034B000BB009091E2028091E10229C080912A0331
:1034C0008093BB0085EC8093BC0063CF909129036F
:1034D00080912803981758F5E091290381E08E0F19
:1034E00080932903F0E0E85FFC4F8081E9CFE09111
:1034F000290381E08E0F809329038091BB00F0E0C7
:10350000E85FFC4F808390912903809128039817EE
:10351000C8F285E8D8CFE091290381E08E0F80932F
:1035200029038091BB00F0E0E85FFC4F808380912D
:10353000070381115CCF81E08093060384EA8093C6
:10354000BC001092050325CF0E94EE038091030377
:10355000803230F4E0910303F0E0ED51FD4F108232
:103560006091030370E0E091D103F091D20383EE08
:1035700092E00995109203030CCF85ECE0CF1092F6
:10358000040335CF1F920F920FB60F9211242F9381
:103590003F938F939F93AF93BF938091B902909184
:1035A000BA02A091BB02B091BC023091B80223E0F4
:1035B000230F2D3768F126E8230F0296A11DB11DB8
:1035C0002093B8028093B9029093BA02A093BB02F1
:1035D000B093BC028091BD029091BE02A091BF0247
:1035E000B091C0020196A11DB11D8093BD029093C0
:1035F000BE02A093BF02B093C002BF91AF919F9152
:103600008F913F912F910F900FBE0F901F901895A3
:103610000196A11DB11DD4CF1F920F920FB60F922C
:1036200011242F933F934F935F936F937F938F93C7
:103630009F93AF93BF93EF93FF9385ED93E00E9429
:10364000200AFF91EF91BF91AF919F918F917F9150
:103650006F915F914F913F912F910F900FBE0F90FF
:103660001F9018951F920F920FB60F9211242F934F
:103670008F939F93EF93FF93E091E503F091E6031F
:103680008081E091EB03F091EC0382FD1BC09081FF
:103690008091EE038F5F8F732091EF03821741F0CB
:1036A000E091EE03F0E0EB52FC4F958F8093EE0338
:1036B000FF91EF919F918F912F910F900FBE0F90DF
:1036C0001F9018958081F4CF1F920F920FB60F9222
:1036D00011242F933F934F935F936F938F939F93F7
:1036E000AF93BF93CF93DF93EF93FF938091390311
:1036F00090913A0380549C4F90933A0380933903FE
:103700008091390390913A039093890080938800C7
:1037100080913E038F5F80933E0380913F0384300E
:10372000E9F580913E03893000F58091350390E002
:103730009595879580933503189B05C08091350337
:10374000806880933503FF91EF91DF91CF91BF9116
:10375000AF919F918F916F915F914F913F912F9179
:103760000F900FBE0F901F901895B59A80916F0023
:10377000806280936F008091330390913403189995
:103780002AC0FC01E957FF4F808191810196918306
:10379000808310923E0381E080933F0380913F033A
:1037A000833009F043C0E0913C03F0913D038081F8
:1037B00020913B0333B190E0022E02C0959587958E
:1037C0000A94E2F7832780FD17C010923E0382E03F
:1037D00080933F032BC040913503FC01E058FF4F1D
:1037E000208131E0320F3083820F911DDC014C9338
:1037F00037FFCFCF1082CDCF80913E03893008F0C4
:103800003EC03091350381E090E001C0880F2A95D9
:10381000EAF7908130FF31C08095892380838091C1
:10382000350390E0959587958093350380913F030C
:10383000823099F480913E03811194C0E0913C0361
:10384000F0913D03808190913B0321E030E001C085
:10385000220F9A95EAF7822B808380913F03813073
:1038600009F071CF80913E038111A2C0B59A809179
:103870006F00806280936F0066CF892BCFCF8091DD
:103880003E03893059F4308181E090E001C0880F17
:103890002A95EAF7809583238083C8CF80914003DF
:1038A0008F5F8093400390914103891750F51092E8
:1038B0003E038091370390913803A0914003A80FF5
:1038C000B92FB11D8C9180933503808141E050E088
:1038D00001C0440F2A95EAF7842B808380918400ED
:1038E000909185008A5A9C4F90933A0380933903B4
:1038F0008091390390913A039093890080938800D6
:1039000095CF81E080933603E0913703F09138033F
:103910004091330350913403808180768036C9F41E
:10392000818130E020E0EA01C058DF4F2817B0F471
:10393000DF01A20FB31F6C91A88191E09A0F9883C9
:10394000A40FB52FB11D6C9397FD18822F5F3F4FC9
:10395000EDCF8081829586708E5FE3CF10923E031B
:1039600081E036CF80913E038F3008F476CFE0912E
:103970003C03F0913D03208130913B0381E090E0D6
:1039800001C0880F3A95EAF78095822380831092D0
:103990003E0381E080933F03E0913303F0913403D1
:1039A000E357FF4F8081918101969183808355CFAA
:1039B00080913E03883308F4C6CE10923F03809175
:1039C0006F008D7F57CF1F920F920FB60F92112469
:1039D0008F939F93EF93FF93EFE6F0E080818F7DCD
:1039E0008083809186009091870080569A4F9093B3
:1039F0003A03809339038091390390913A0390936D
:103A0000890080938800B19A80818260808384E0FD
:103A100080933F0310923E03FF91EF919F918F910E
:103A20000F900FBE0F901F9018958CEF91E0909320
:103A300088048093870480918B0490918C04009774
:103A400051F0FC012181328130938C0420938B044E
:103A50000E94B127F0CF8091A2049091A3040E940C
:103A6000B1278091A7049091A8040C94B127CF921C
:103A7000DF92EF92FF92CF93DF93C4E9D4E01B82F1
:103A80001A8288EEC82E83E0D82EE12CF12CCC824D
:103A9000DD82EE82FF8286E192E09983888380E274
:103AA00090E09D878C870E9415279F878E87188AB4
:103AB000198A1A8A80E290E00E9415279C8B8B8BD2
:103AC0001D8A1E8A1F8A80E697E09D8F8C8F8EE765
:103AD00097E09F8F8E8F85EC93E099A388A389EC64
:103AE00093E09BA38AA38AE995E09DA38CA383E43A
:103AF00095E09FA38EA38CE195E099A788A78CED14
:103B000093E09BA78AA784EE93E09DA78CA78EEEF7
:103B100093E09FA78EA78EEE95E09093D2038093BB
:103B2000D10382EE95E09093D4038093D303E5ED27
:103B3000F3E013821282C482D582E682F7828AEE93
:103B400091E09183808385EC90E09587848784EC75
:103B500090E09787868780EC90E0918B808B81EC5A
:103B600090E0938B828B82EC90E0958B848B86EC3B
:103B700090E0978B868B118E128E138E148EE0E858
:103B8000F4E080E48083D283C183E7E8F4E08CEF43
:103B900091E09183808315821482178216821382AA
:103BA00012821186108613861286148660E081E1E7
:103BB0000E948B07E7E2F7E0E491A2E7B4E0EC9320
:103BC000ECE0F7E0E491F0E0EE0FFF1FE151F94F78
:103BD0008591949112969C938E9311971B961C92AB
:103BE0001B971D961C921D971C961C921C971A964B
:103BF0001C921A9719961C92199718961C9218974E
:103C000017961C92179716961C92169715961C924B
:103C1000159714961C92149713961C92DF91CF91CE
:103C2000FF90EF90DF90CF900895CF93DF93CDB7C3
:103C3000DEB766970FB6F894DEBF0FBECDBF78949F
:103C400084B5836084BD85B5836085BD80916E0039
:103C5000816080936E0092E090938100809181005A
:103C600081608093810080918000816080938000DA
:103C70008091B10084608093B1008091B000816038
:103C80008093B00080919100836080939100809137
:103C900090008160809390008091A1008360809368
:103CA000A1008091A00081608093A00087E88093AC
:103CB0007A001092C100E091E503F091E603908351
:103CC000E091E103F091E2031082E091E303F091CF
:103CD000E4038FEC80831092ED03E091E903F0910F
:103CE000EA0386E08083E091E703F091E8038081B6
:103CF00088698083E091E703F091E80380818F7DFC
:103D0000808387E396E00E94880A4AE068EF71EAC0
:103D100081E090E00E946F1084E292E00E946210C5
:103D200086E296E00E94880A80E090E00E945E2988
:103D30000E949914689A13E0709A6DE770E080E031
:103D400090E00E94DD0870986DE770E080E090E000
:103D50000E94DD08115081F7E2E4F3E08FE8DF0113
:103D60001D928A95E9F761E085E00E948B07EBE1FF
:103D7000F7E02491E0E0F7E0E491F0E0EE0FFF1FC0
:103D8000E853F94F4591549180E091E031E02917D3
:103D900041F08F5F932F082E01C0990F0A94EAF724
:103DA000F6CF50933D0340933C0380933B0382E462
:103DB00093E090933403809333032098E0913C0385
:103DC000F0913D03208130913B0381E090E001C000
:103DD000880F3A95EAF780958223808310928000BD
:103DE00081E08093810010923F03B59A80916F002B
:103DF000806280936F0080918100887F81608093D2
:103E0000810085E090E00E945E29809381028931E3
:103E100018F088E18093810286E196E00E94880A8A
:103E20006AE070E0809181020E94B31082E196E026
:103E30000E94880A89E190E00E94BF1380917F026E
:103E40009091800288609093800280937F020E940C
:103E5000CE0D0E94BF1382E090E00E94C0168E3EFD
:103E6000910509F0BAC010928102B0E02B2EB0E0AB
:103E70003B2E10E0A12E10E0B12E00E0802E00E0DD
:103E8000902E2091890430918A042115310509F47E
:103E90003FC08091B7028F5F821713060CF0E7C412
:103EA0008093B7026091B70270E087E894E00E94C7
:103EB000D10CE82FF0E0EE0FFF1FEB57FD4F808194
:103EC0009181DC01ED91FC910288F389E02D099547
:103ED00081111EC08DEA96E00E94880A6091B702A7
:103EE00070E087E894E00E94D10C0E9499146091E0
:103EF000B70270E087E894E00E94900E80918904F8
:103F000090918A040E9441118EE896E00E9431143B
:103F100085ED93E00E940A0A18161906FCF485ED57
:103F200093E00E945A0987379105C1F40E94AE09B7
:103F30006B010E94AE092B0184E896E00E94880A7A
:103F4000C6010E94BA1081E896E00E94880AC20168
:103F50000E94EF11B201C6010E9422188091C30392
:103F60009091C203891709F42FC5E82FF0E0EE5BAA
:103F7000FC4FF080F7FEBFC49091C403891751F045
:103F80002091C9033091CA032F5F3F4F3093CA037A
:103F90002093C9038093C403BFEFB093C5038F2D53
:103FA0008076803609F066C41092C6038091C30300
:103FB0008F5F8093C3030091C403282F201B87FDCC
:103FC0001092C3038091C5039091C603291709F489
:103FD000A2C4F826F092C503C1CF8F3E910531F4FB
:103FE0006EEE70E082E090E00E942218412C109169
:103FF0008102411608F0C0C2E42CF12CC701885F91
:104000009F4F0E945E29582EB4E14B9E80011124DF
:10401000C801815E9F4F0E9466291C0181E0E2E099
:104020002E16310408F080E091E0F5E02F163104FF
:1040300009F090E0892B21F428E02216310419F4CC
:1040400022242A94312CC8018F5D9F4F0E9466293B
:104050005C01922CA701440F551F5A8B498B54E0E9
:10406000551609F4B7C15515C8F082E0581609F481
:10407000ACC0851508F46AC191E0591609F402C173
:1040800086E090E00E941527FC0122EB31E03183AD
:10409000208345829282B482A382C1C1A6E05A16CF
:1040A00009F435C25A1608F4C1C1B6E65B12E8CF6E
:1040B000C8018D5D9F4F0E9466296C01C8018B5D10
:1040C0009F4F0E9466299C8B8B8BC801895D9F4FF7
:1040D0000E9466294C01C801835D9F4F0E9466299A
:1040E0003C01C801815D9F4F0E9466299E8B8D8B8C
:1040F000C8018F5C9F4F0E946629382E8EE190E0A8
:104100000E9415277C01DC0115964C92159712969A
:104110002C9212971496BC92AE9213971B969C9277
:104120008E921A971C963C921C975396DC92CE92D4
:1041300052975596DC92CE9254971E967C926E9230
:104140001D97ED89FE895096FC93EE931F97579625
:104150001C921E92569759961C921E9258975B96E7
:104160001C921E925A9726E931E011963C932E93A9
:1041700040E854E05D965C934E935C97B60190E006
:1041800080E00E943F282FE335E342E850E40E949C
:104190006A2A0E94DC2AD70119967C936E9318979D
:1041A000EB89FC89BF0190E080E00E943F282FE36B
:1041B00035E342E850E40E946A2A0E94DC2AD701D3
:1041C00017967C936E9316974DC0C8018D5D9F4FD7
:1041D0000E9466296C01C8018B5D9F4F0E94662971
:1041E0009C8B8B8BC801895D9F4F0E9466294C0177
:1041F000C801835D9F4F0E9466293C01C801815D13
:104200009F4F0E9466299E8B8D8BC8018F5C9F4FAC
:104210000E946629382E8CE190E00E9415277C01CF
:10422000FC0145822282B482A3822AE731E03183F5
:104230002083D186C0864B895C89578346839386C9
:1042400082863486D38AC28AD58AC48A768665866F
:104250008D899E89908B8787178A168A118E108E7A
:10426000138E128EE989FA89EB57FD4FF182E082B5
:10427000C801855D9F4F0E946629BC01C7010E944D
:10428000250B3AC0C8018D5D9F4F0E946629A82F5B
:10429000A170CA2E96958795B82FB170DB2EC801F4
:1042A0008B5D9F4F0E9466298C018CE090E00E94FC
:1042B00015277C01FC0145822282B482A3822AE078
:1042C00031E0318320833FEF231202C08EEF8283DF
:1042D00062E0D70112968C910E948B07F70116823B
:1042E00021E02783C28611870087D386E989FA896E
:1042F000EB57FD4FF182E08286EB95E00E94880A41
:10430000842D0E9499148CEA95E00E94880A852DDC
:104310000E949914E989FA89EB57FD4F80819181B8
:10432000DC01ED91FC910680F781E02D0995642D6B
:1043300087E894E00E943D100E94CE0D0E9441113A
:1043400082E096E00E943114439451CEC8018D5D05
:104350009F4F0E946629382F3170E32E96958795DE
:10436000482F4170F42E8AE090E00E9415278C01BE
:10437000DC0115964C92159712962C921297149672
:10438000BC92AE921397EEECF1E0ED93FC93F4E067
:104390002F1651F08CEB95E00E94311461E0D801AA
:1043A00012968C910E948B07F801168260E0C8017A
:1043B0000E94CD13D8011796EC92179719961C926C
:1043C00019971896FC92E989FA89EB57FD4F1183EA
:1043D000008392CFC8018D5D9F4F0E946629582EA1
:1043E000C8018B5D9F4F0E946629F82EC801895D28
:1043F0009F4F0E9466298C0183E190E00E9415275F
:10440000FC0145822282B482A38226E231E031831C
:1044100020835782F08612870187108A1786A98920
:10442000BA89AB57BD4FED93FC9366CFC8018D5D44
:104430009F4F0E9466297C01C8018B5D9F4F0E949F
:1044400066293C01C801875D9F4F0E9466296C0167
:10445000C801855D9F4F0E9466291C0181E032E002
:10446000E316F10408F080E091E045E0E416F10481
:1044700009F090E0892B21F458E0E516F10419F4D5
:10448000EE24EA94F12C83E190E00E9415278C0140
:10449000DC0115964C92159712969C9212971496E1
:1044A000BC92AE921397E2E4F1E01196FC93EE9386
:1044B0001796FC92EE92169719967C926E92189728
:1044C0001B96DC92CE921A971D963C922E921C97C8
:1044D00061E0892D0E948B0761E0D80116968C91CE
:1044E0000E948B0786E995E00E94880A6AE070E0E6
:1044F000F80182810E94B31083E995E00E94880A46
:10450000D80116968D919C910E94EF115CCFC80145
:104510008D5D9F4F0E946629C82EC8018B5D9F4FFD
:104520000E946629D82E80E190E00E9415277C0128
:10453000FC0145822282B482A3822EE531E03183E0
:104540002083C1861086D2868FEF9FEFDC0184879F
:104550009587A687B7871386E989FA89EB57FD4FB8
:10456000F182E082C801855D9F4F0E946629BC01EF
:10457000C7010E941F0DC0CE8AE090E00E9415275F
:104580007C01FC0115838AE18283148213828EEC04
:1045900091E0918380838CEB95E00E94311461E07F
:1045A000D70112968C910E948B07F701168260E06A
:1045B000C7010E94CD13D70117961C921797199621
:1045C0001C92199718961C9280918102E82FF0E0B6
:1045D000EE0FFF1FEB57FD4FF182E0828F5F80935C
:1045E000810280917F02909180028260909380028C
:1045F00080937F0210927D0410927F0410927E04BB
:1046000010927C0410927B0410927A041092790428
:104610001092780410927704109276041092750428
:1046200084E792E00E94AF136AEF70E080E090E0D0
:104630000E94DD0880917F04811104C00E947308EC
:10464000811199C010927D0410927F0410927E0413
:1046500084E792E00E94AF1310927D0410927F04D1
:1046600010927E0410927C0410927B0410927A04C3
:1046700010927904109278041092770410927604C4
:104680001092750410922B0310922C0310922D039C
:1046900010922E0310922F031092300310923103C8
:1046A00089EE95E00E94311486E492E00E94AF13F7
:1046B0008BE2E82E83E0F82E0EE010E0F801819105
:1046C0008F01D7018D937D0160E170E00E94B310EE
:1046D0000531110599F784E792E00E94B113E0914A
:1046E0008104F0918204108A118A158A168A048C3A
:1046F000F58DE02D099560E880E00E94BC066AE037
:1047000070E080E090E00E94DD0860E070E08AE701
:1047100094E40E94D70E80E498E7ADE7B1E080937F
:10472000830490938404A0938504B093860460E08E
:1047300070E08CE892E40E94D70E60E080E10E9475
:104740008B078BEC95E00E94880A0E94A80D0E94BE
:10475000EF1182E090E00E94C0168E3E910531F488
:1047600060EF70E082E090E00E94221882E592E023
:104770000E94B1137ACB60E080EF0E94310801E023
:10478000E12CD12C11E00E94CF07F82E0E94CF0718
:10479000B1E0FB1237C0813009F053C0113408F486
:1047A00051CFD0927D04D11003C081E080937F046B
:1047B00080917504882309F445CFA5E7B4E09BE216
:1047C000E92E93E0F92E83E393E0F7012D912193F5
:1047D0008E179F07D9F783EE95E00E94880A10E0B4
:1047E0006AE070E0812F0E94B31060E170E0D701B1
:1047F0008D917D010E94B3101F5F173089F781EE04
:1048000095E050CFEE2DF0E0F81211C080917D04BC
:104810001817A8F4DF01AE58BB4F13968C91802374
:1048200081F4F12C193010F410937E04D12EEE583F
:10483000FB4F8381902F9095892383830BC0811335
:10484000F0CFEE2DF0E0EE58FB4F8381802B838379
:10485000FF24F3948F2D0E94FC071F5F000F11F4BB
:10486000E39401E0E7E0EE1508F08DCF97CF1092CA
:10487000B70218CB8F2D829586708E5F8093C6030A
:104880002091C4038091C603820F9927991F813814
:1048900091050CF48BCB00E8021BF8944091C20305
:1048A0008091C403841770F5E42FE81B8E2F80934A
:1048B000C20378946091C403461738F510E050E0C5
:1048C00062E473E0C8018E5B9C4F0E94102B6091E4
:1048D000C40370E06E5B7C4FA80182E493E00E9409
:1048E000102B8091C3039091C403891B8093C30351
:1048F0001092C4035BCB8091C603811157CBF09219
:10490000C603BECF802F840FD2CF461B50E070E08D
:104910006E5B7C4FE2CFF8124AC010E00E5B1C4F7A
:104920002091C7033091C8032F5F3F4F3093C803D6
:104930002093C7039091C3039093C40301151105FD
:1049400009F447CB109384020093830201151105EB
:1049500009F48EC1D80111962C911197422F50E085
:1049600012966C911297E62FF0E0CF019695982F52
:1049700088279795879580789770822B952B3C9107
:10498000323B09F456C10196313B09F48AC1F8F46F
:10499000333809F478C1303B09F47DC13238F9F479
:1049A00080E090E0892B09F455C180E071C120912D
:1049B000C9033091CA032F5F3F4F3093CA0320933E
:1049C000C90310E000E0B6CF10E000E0BBCF3C3BF5
:1049D00009F47CC108F0DFC0343B09F4B1C18BE7B6
:1049E00096E00E94880AC8010E944111E09083026B
:1049F000F09084028BE496E00E94880A6AE070E0FE
:104A0000F70180810E94B31088E292E00E94AF1308
:104A100060E170E0D70111968C910E94B31088E29A
:104A200092E00E94AF1360E170E0F70182810E9482
:104A3000B31088E292E00E94AF1360E170E0D7010A
:104A400013968C910E94B31088E292E00E94AF13FB
:104A500060E170E0F70184810E94B31088E292E087
:104A60000E94AF1360E170E0D70115968C910E940F
:104A7000B31088E292E00E94AF1360E170E0F701AA
:104A800086810E94B31088E292E00E94AF13670112
:104A9000F7E0CF0ED11C2FE0E20EF11C60E170E0D8
:104AA000D6018D916D010E94B31088E292E00E94C0
:104AB000AF13CE14DF0491F785E292E00E946210FA
:104AC000C0908302D0908402F6018081853E19F067
:104AD0008D3E09F098C18DE592E00E94B113D60198
:104AE00011968C9111978F3009F08DC113968C918E
:104AF0001397853009F087C114968C911497811112
:104B000082C116964C91F601C601079621E0342F1A
:104B1000322319F0378130683783220F31968E1790
:104B20009F07A9F7F60116822581203209F470C18A
:104B3000213209F068C10780F085E02DEF3FFE07C4
:104B400009F00AC1D60119962D913C911A97232B91
:104B500009F002C11B962D913C912F3F3F4F09F068
:104B6000FBC0B601655F7F4F0E941F168F3709F0AB
:104B70004AC1F6010385148547815085E12C30E058
:104B800020E06281CE0101960E94E304CE010196ED
:104B90000E94F40338C13D3B09F45CC0303D09F08C
:104BA0001ECF2076203229F0203609F498C021113A
:104BB00051C08114910409F44DC0CA019695982FF3
:104BC00088279795879580789F708E0F9F1F35E077
:104BD000559547953A95E1F7242F21700196D80114
:104BE0001396EC91139714964C9150E0ED3731F0F9
:104BF000B0E8EB9FF00111244E0F5F1F6F7009F4B6
:104C00008FC0623009F48EC0643009F48DC0663004
:104C100009F48CC0683009F48BC06A3009F48AC08A
:104C20006C3009F489C06E3009F488C00E9400001D
:104C300011C022E030E065FD02C021E030E0E0E09C
:104C4000F0E0EF2B39F0880F991F6071820F931FEE
:104C50000E9400008091890490918A040E94411171
:104C600082E596E00E9431140E94CE0D0E94BF138F
:104C700080918202882321F08EB191E089278EB93C
:104C80000E94C30AFEC880E090E0892B19F381E0FE
:104C90000E940000DFCF462F407260710E94FC1816
:104CA000D9CF66FF09C021143104A1F2462F40720A
:104CB00060710E940000CECF20E030E0232B51F243
:104CC000462F407160720E940000C4CFA114B1044D
:104CD00009F2462F407260710E940000BBCF80E055
:104CE00090E0892B09F4B6CF1396FC9013978F2D83
:104CF000807D803109F0AECF1496EC9001E011E098
:104D000041E08F2D802309F040E02E2D2023000F5D
:104D1000612F80E80E9400001F5F153089F79ACF4D
:104D200061E484CF62E482CF63E480CF64E47ECF29
:104D300065E47CCF66E47ACF67E478CF68E476CF29
:104D40002C3309F04CCE80E090E0892B09F482CF1F
:104D50008CE30E9400007ECFD6011D962C911D97FA
:104D6000211122C01B964D915C911C9719966D9153
:104D70007C919601255F3F4FCF010E94D3168F375C
:104D800049F4F601038514852185328547815085D4
:104D9000E12CF7CE87FD37C0D6019C919F7724EB9D
:104DA00029839A838B83F2CE27FF21C026FD24C05E
:104DB000B601655F7F4F0E9448168F37C1F4F60138
:104DC000038514854781508580E8E82E30E020E097
:104DD0006281CE0101960E94E3046AE070E080E007
:104DE00090E00E94DD08CE0101960E94F403D601F6
:104DF0001D968C9186FF07C0F601638574858781B7
:104E000090850E948D1681E796E00E94880A22CF45
:104E10004385548561857285878190850E943D1800
:104E200087FDF1CFF6019081B9CF0F931F93CF93F8
:104E3000DF938230910510F482E090E0E091C604A7
:104E4000F091C70430E020E0B0E0A0E0309799F4A2
:104E50002115310509F44AC0281B390B24303105CE
:104E6000D8F58A819B816115710589F1FB019383D6
:104E70008283FE0111C04081518102811381481754
:104E80005907E0F04817590799F4109761F0129606
:104E90000C93129713961C933296CF01DF91CF910A
:104EA0001F910F9108950093C6041093C704F4CF87
:104EB0002115310551F04217530738F0A901DB01E4
:104EC0009A01BD01DF01F801C1CFEF01F9CF909345
:104ED000C7048093C604CDCFFE01E20FF31F819378
:104EE00091932250310939832883D7CF2091C4046C
:104EF0003091C504232B41F420910201309103012C
:104F00003093C5042093C404209100013091010125
:104F10002115310541F42DB73EB740910401509160
:104F20000501241B350BE091C404F091C504E21780
:104F3000F307A0F42E1B3F0B2817390778F0AC01BC
:104F40004E5F5F4F2417350748F04E0F5F1F509399
:104F5000C5044093C404819391939FCFF0E0E0E0B7
:104F60009CCFCF93DF930097E9F0FC013297138237
:104F70001282A091C604B091C704ED0130E020E098
:104F80001097A1F420813181820F931F2091C404D6
:104F90003091C5042817390709F061C0F093C504A2
:104FA000E093C404DF91CF910895EA01CE17DF07A3
:104FB000E8F54A815B819E0141155105B1F7E90190
:104FC000FB83EA8349915991C40FD51FEC17FD0764
:104FD00061F4808191810296840F951FE901998384
:104FE0008883828193819B838A83F0E0E0E012963C
:104FF0008D919C9113970097B9F52D913C91119744
:10500000CD010296820F931F2091C4043091C504F4
:105010002817390739F6309751F51092C7041092C6
:10502000C604B093C504A093C404BCCFD383C28389
:1050300040815181840F951FC817D90761F44E5FD5
:105040005F4F88819981480F591F518340838A811E
:105050009B81938382832115310509F0B0CFF093B2
:10506000C704E093C6049ECFFD01DC01C0CF1382CC
:105070001282D7CF0E947C2808F481E00895E8943A
:1050800009C097FB3EF490958095709561957F4F90
:105090008F4F9F4F9923A9F0F92F96E9BB2793953E
:1050A000F695879577956795B795F111F8CFFAF44E
:1050B000BB0F11F460FF1BC06F5F7F4F8F4F9F4F7F
:1050C00016C0882311F096E911C0772321F09EE8DD
:1050D000872F762F05C0662371F096E8862F70E043
:1050E00060E02AF09A95660F771F881FDAF7880F1D
:1050F0009695879597F90895990F0008550FAA0B73
:10510000E0E8FEEF16161706E807F907C0F01216DA
:105110001306E407F50798F0621B730B840B950BDD
:1051200039F40A2661F0232B242B252B21F4089532
:105130000A2609F4A140A6958FEF811D811D0895CF
:105140000E94B3280C9424290E94162938F00E944A
:105150001D2920F0952311F00C940D290C9413298E
:1051600011240C9458290E94352970F3959FC1F39E
:10517000950F50E0551F629FF001729FBB27F00D05
:10518000B11D639FAA27F00DB11DAA1F649F66275A
:10519000B00DA11D661F829F2227B00DA11D621FA9
:1051A000739FB00DA11D621F839FA00D611D221F63
:1051B000749F3327A00D611D231F849F600D211D47
:1051C000822F762F6A2F11249F5750409AF0F1F0CA
:1051D00088234AF0EE0FFF1FBB1F661F771F881F33
:1051E00091505040A9F79E3F510580F00C940D2935
:1051F0000C9458295F3FE4F3983ED4F38695779555
:105200006795B795F795E7959F5FC1F7FE2B880FD8
:10521000911D9695879597F9089597F99F6780E86E
:1052200070E060E008959FEF80EC089500240A94F8
:105230001616170618060906089500240A94121671
:105240001306140605060895092E0394000C11F4A4
:10525000882352F0BB0F40F4BF2B11F460FF04C051
:105260006F5F7F4F8F4F9F4F089557FD9058440FAA
:10527000551F59F05F3F71F04795880F97FB991FB5
:1052800061F09F3F79F08795089512161306140672
:10529000551FF2CF4695F1DF08C0161617061806FF
:1052A000991FF1CF86957105610508940895E894DA
:1052B000BB2766277727CB0197F90895F999FECF89
:1052C00092BD81BDF89A992780B50895A8E1B0E014
:1052D00042E050E00C949929262FF999FECF92BD17
:1052E00081BDF89A019700B4021639F01FBA20BDAB
:1052F0000FB6F894FA9AF99A0FBE08950196272FDF
:105300000E946D290C946C29262FF999FECF1FBAA3
:1053100092BD81BD20BD0FB6F894FA9AF99A0FBEDE
:10532000019608950E948429272F0C948529DC0179
:10533000CB01FC01F999FECF06C0F2BDE1BDF89AA0
:10534000319600B40D9241505040B8F708950E9434
:10535000B229A59F900DB49F900DA49F800D911D23
:1053600011240895A29FB001B39FC001A39F700DA7
:10537000811D1124911DB29F700D811D1124911D5D
:105380000895AA1BBB1B51E107C0AA1FBB1FA6178C
:10539000B70710F0A61BB70B881F991F5A95A9F7DE
:1053A00080959095BC01CD010895A1E21A2EAA1B0B
:1053B000BB1BFD010DC0AA1FBB1FEE1FFF1FA217C5
:1053C000B307E407F50720F0A21BB30BE40BF50BC2
:1053D000661F771F881F991F1A9469F7609570954B
:1053E000809590959B01AC01BD01CF010895EE0F12
:1053F000FF1F0590F491E02D09945058BB27AA2770
:105400000E94152A0C9424290E94162938F00E9423
:105410001D2920F039F49F3F19F426F40C94132928
:105420000EF4E095E7FB0C940D29E92F0E94352935
:1054300058F3BA17620773078407950720F079F4C9
:10544000A6F50C9457290EF4E0950B2EBA2FA02D3B
:105450000B01B90190010C01CA01A0011124FF2721
:10546000591B99F0593F50F4503E68F11A16F0401C
:10547000A22F232F342F4427585FF3CF469537951B
:105480002795A795F0405395C9F77EF41F16BA0BE0
:10549000620B730B840BBAF09150A1F0FF0FBB1F8E
:1054A000661F771F881FC2F70EC0BA0F621F731FD7
:1054B000841F48F4879577956795B795F7959E3F34
:1054C00008F0B0CF9395880F08F09927EE0F9795C5
:1054D000879508950E947E2A0C9424290E941D29F4
:1054E00058F00E94162940F029F45F3F29F00C94EF
:1054F0000D2951110C9458290C9413290E94352917
:1055000068F39923B1F3552391F3951B550BBB27F2
:10551000AA2762177307840738F09F5F5F4F220F37
:10552000331F441FAA1FA9F335D00E2E3AF0E0E82E
:1055300032D091505040E695001CCAF72BD0FE2F78
:1055400029D0660F771F881FBB1F2617370748070C
:10555000AB07B0E809F0BB0B802DBF01FF279358C4
:105560005F4F3AF09E3F510578F00C940D290C9452
:1055700058295F3FE4F3983ED4F386957795679575
:10558000B795F7959F5FC9F7880F911D96958795F9
:1055900097F90895E1E0660F771F881FBB1F621718
:1055A00073078407BA0720F0621B730B840BBA0BD6
:1055B000EE1F88F7E09508950E943D2988F09F57D7
:1055C00098F0B92F9927B751B0F0E1F0660F771F27
:1055D000881F991F1AF0BA95C9F714C0B13091F01D
:1055E0000E945729B1E008950C945729672F782F0E
:1055F0008827B85F39F0B93FCCF3869577956795E2
:10560000B395D9F73EF490958095709561957F4F4D
:105610008F4F9F4F08950E947C2808F48FEF0895C4
:105620006817790768F4FB01DC01E40FF51FA40F8C
:10563000B51F02C002900E9241505040D8F7089515
:105640000C94222BFB01DC0102C001900D92415011
:105650005040D8F7089513E0CAE9D3E004C0FE0132
:105660000E94F7292196CB39D107C9F7F894FFCFCB
:105670000000C804800000000000E30AFA0DEF0DEE
:105680000314EB0DAF0BED0DEC0DEB0D9B11E80DC5
:10569000E50D00000000E50AFE0DEF0D7115FD0A95
:1056A000740DED0DEC0DEB0D3A0DE80DE50D000060
:1056B00000009B0B0C0EEF0DC010EB0DD315ED0D84
:1056C000EC0DA40B3F14E80DE50D00000000E60A08
:1056D000000EEB0AA914EB0DCD14ED0DEC0DEB0D46
:1056E000F70C1F0DE70A000000001C0B020EEF0D67
:1056F0008E154D0BB312ED0D5A0B420B1A0B250BE9
:105700003E0B00000000B70B160EEF0DF6104D0B10
:10571000B312ED0DFD11420BE112250B3E0B000003
:105720000000F90DD50EEF0DEB0DEB0DEE0DED0DAF
:10573000EC0DEB0DE90DE80DE50D00000000E40AAD
:10574000FC0DEF0DED130D0B7111CD13EC0DEB0DE9
:105750001A0BE80DE50D00000000410A1B094B097A
:10576000A30A0A0A5A096E0900000000DA0CE60FC3
:105770003D10B40FBE0C900E200E5B0ED10C6F0CC2
:10578000E00B0000000077064606480919064006AF
:105790002F061A060D0A002C2000290A00436C6F00
:1057A000736564005468726F776E004F6E004F66C9
:1057B0006600202D20003332387062207569643A0B
:1057C0002000736574757020646F6E6500506F7390
:1057D0007369626C792061204C4E4356206D65736D
:0657E000736167652E00F5
:00000001FF
