:100000000C94E9000C9411010C9411010C94110151
:100010000C9411010C9411010C9411010C94110118
:100020000C9411010C9411010C940C040C947E049A
:100030000C9411010C9411010C9411010C941101F8
:100040000C94C90B0C943D0A0C9411010C941101F1
:100050000C9411010C9411010C9411010C940B14CB
:100060000C9411010C9411010C9411010C941101C8
:100070000C9411010C9411010C9411010C941101B8
:100080000C9411010C9411010C9411010C941101A8
:100090000C94C20D0C9411010C9411010C941101DB
:1000A0000C9411010C9411010C9411011D0F200FDF
:1000B0000F0F130F190F410F410F410F240F280F7E
:1000C0002C0F320F360F410F3C0F080B00020202BB
:1000D00001000904000001020200000524001001D3
:1000E0000524010101042402060524060001070578
:1000F000810310004009040100020A000000070506
:1001000002024000000705830240000004030904C6
:1001100012010002EF0201404F1B06920001010292
:100120000301537061726B46756E00537061726BA0
:1001300046756E2050726F204D6963726F0000002B
:100140000000240027002A002D00300000000000DD
:10015000250028002B002E003100000000020009BD
:100160000F0000030401000C00000000000000006C
:100170000000000000000000070605040100080A56
:100180000B0C0D09000000002300260029002C00A4
:100190002F00040404040403040502020202040301
:1001A0000202020206060606060604040202020411
:1001B0000404080201104080401020408040800864
:1001C00002040180402010020110801020404020D5
:1001D000A21B11241FBECFEFDAE0DEBFCDBF12E0BD
:1001E000A0E0B1E0E4EEFFE302C005900D92A6327C
:1001F000B107D9F724E0A6E2B2E001C01D92A03712
:10020000B207E1F710E0C9EED0E004C02197FE018B
:100210000E94931DC83ED107C9F70E9455140C9443
:10022000F01F0C94000040915E0250915F022091FB
:100230005C0230915D0242175307B4F49091E800DC
:100240009570E1F39091E80092FD19C08093F10060
:1002500080915E0290915F0201968F739927892B9E
:1002600019F48EEF8093E80080915E0290915F0216
:10027000019690935F0280935E0281E0089580E092
:100280000895DF92EF92FF920F931F93CF93DF9326
:10029000D82E8A017B01E40EF51EEB01CE15DF0599
:1002A00071F0D7FE03C0FE01849101C088810E94D5
:1002B000130121968111F2CF8FEF9FEF01C0C8018A
:1002C000DF91CF911F910F91FF90EF90DF900895F4
:1002D000615030F02091F100FC0120830196F8CFAD
:1002E000289884E6809370020895CF92DF92EF926F
:1002F000FF920F931F93CF93DF936C017A018B01D1
:10030000C0E0D0E0CE15DF0581F0D8016D918D0100
:10031000D601ED91FC910190F081E02DC601099587
:10032000892B11F02196EECF7E01C701DF91CF918D
:100330001F910F91FF90EF90DF90CF900895CF9392
:10034000DF931F92CDB7DEB76983DC01ED91FC919D
:100350000280F381E02D41E050E0BE016F5F7F4FEE
:1003600009950F90DF91CF91089583E08093E90084
:100370008091F200882319F08AE38093E8000895C1
:10038000FC018485958597FD0BC09FB7F89482E0AA
:100390008093E9008091F2009FBF90E0019608955C
:1003A0009FB7F89482E08093E9008091F2009FBFAC
:1003B00090E00895089580E090E0089561E0DC0108
:1003C0001F962D913C915097232B09F060E0DC01A2
:1003D000ED91FC910084F185E02D41E00994DC0170
:1003E00016966C91169721E06227ED91FC9100849E
:1003F000F185E02D41E00994DC0117968C91179767
:100400008823B1F019968C911997662311F08F5FAC
:1004100001C0815019968C93199719968C91199750
:1004200018162CF019961C92199760E001C061E033
:1004300016966C931697ED91FC9111970284F385B3
:10044000E02DCD01099480E00895FC0181E0611563
:10045000710509F480E0818B672B19F08681978103
:1004600002C080859185958B848B84899589938B37
:10047000828B178A168A128E118E0895FC0181894B
:1004800090E00895DC0151966C91519721E062272C
:10049000ED91FC910084F185E02D40E009940E94EB
:1004A000D01F0F931F93CF93DF931F92CDB7DEB76B
:1004B00082E0898342E450E06AEC70E080E80E94C8
:1004C00041010E94F10EDC0112960D911C911397CF
:1004D0000115110589F0D801ED91FC910280F3819D
:1004E000E02DBE016F5F7F4FC801099597FD04C0E5
:1004F000F80100851185ECCF89810F90DF91CF91B4
:100500001F910F9108958F929F92AF92BF92CF92B9
:10051000DF92EF92FF920F931F93CF93DF936C01C3
:100520007B018A0180910B01882309F45CC08091D2
:100530007102882309F457C08091260280FF05C00C
:100540008091E00082608093E000E801B12C8AEFA6
:10055000A82E93E0892E2AE3922E209711F4BB2037
:10056000D9F10E94B10D81110AC0AA94AA20D9F133
:1005700061E070E080E090E00E94AD0FEECF282FA8
:1005800030E0C217D3070CF48C2F9FB7F8948092F9
:10059000E9002091E80025FF1DC0282F30E0C21B94
:1005A000D30BF701815020F041914093F100FACF35
:1005B000E20EF31EBB2019F09092E8000AC0809171
:1005C000E80085FD07C09092E800BB24B394209713
:1005D00009F0B12C9FBFC1CF5D9884E68093610282
:1005E0001016110644F081E090E0F60193838283B7
:1005F00080E090E001C0C801DF91CF911F910F9181
:10060000FF90EF90DF90CF90BF90AF909F908F9032
:1006100008950E94B10D90E008950F931F93CF931A
:10062000DF931F92CDB7DEB78C01FC0184859585E1
:1006300097FF0EC0CE0101960E94830D019719F419
:10064000898190E002C08FEF9FEFF8019587848742
:10065000F801848595850F90DF91CF911F910F91BF
:100660000895CF93DF931F92CDB7DEB7FC01848549
:10067000958597FD05C02FEF3FEF358724870BC089
:10068000CE0101960E94830D019719F4898190E0B3
:1006900002C08FEF9FEF0F90DF91CF9108950C94E0
:1006A000A31C0C94A31C0C94A31C0C94A31CCF930C
:1006B000DF93EC018F859889892B81F18FB7F894AE
:1006C00040916304509164046091650470916604E4
:1006D0008FBF8B859C85AD85BE85481B590B6A0BEA
:1006E0007B0B89859A85A0E0B0E084179507A60763
:1006F000B707B0F48A89882341F08F8598890197DC
:1007000021F4888561E070E003C08F8160E070E0D3
:1007100090E00E94FB0B188A1F8602C080E001C097
:1007200081E0DF91CF9108950F931F93CF93DF93D3
:10073000EC0129892617A9F18F859889892B89F5DC
:10074000862F90E030E051E0281739070CF050E098
:10075000042F162F5A8B2817390744F481E090E0B4
:10076000988B8F878F8161E070E007C081E090E017
:10077000988B8F87888560E070E090E00E94FB0B8B
:100780000111198B2FB7F894809163049091640440
:10079000A0916504B09166042FBF8B879C87AD87BD
:1007A000BE87DF91CF911F910F910895FC012085A5
:1007B000211161E0FC0182810C94420F1F93CF93C1
:1007C000DF93EC01162F662319F08E819F8102C002
:1007D000888599859D8B8C8B4C895D892A893B897D
:1007E0008A859B854217530718F491958195910945
:1007F0009F8B8E8B8C8561E070E090E00E94FB0BFC
:10080000CE010E94180A198B81E090E09A8F898F9F
:10081000DF91CF911F9108951F920F920FB60F9203
:1008200011248F939F938091E1009091E100937F39
:100830009093E10083FF0FC01092E90091E0909344
:10084000EB001092EC0092E39093ED001092710295
:1008500098E09093F00082FF20C093E09093E9002D
:100860009091F200992319F09AE39093E800909107
:100870006102992339F09091610291509093610245
:10088000992389F190917002992339F09091700227
:10089000915090937002992341F184FF10C0809190
:1008A000E2008E7E81608093E2008091E1008F7E85
:1008B0008093E100809126028E7E806111C080FFCE
:1008C00016C08091E2008E7E80618093E20080916C
:1008D000E1008E7E8093E100809126028E7E816011
:1008E0008093260204C05D9ACDCF289AD6CF9F91DF
:1008F0008F910F900FBE0F901F9018951F920F921F
:100900000FB60F921124CF92DF92EF92FF920F93C6
:100910001F932F933F934F935F936F937F938F9387
:100920009F93AF93BF93EF93FF93CF93DF93CDB795
:10093000DEB76C97DEBFCDBF1092E9008091E80072
:1009400083FFFBC168E0CE0145960E94680182EFFB
:100950008093E8008D8987FF05C09091E80090FFA3
:10096000FCCF03C09EEF9093E800982F907609F09B
:10097000C6C09E894F89588D2F89F88C91110CC063
:10098000803829F4809127028093F10002C01092F0
:10099000F1001092F10045C1913051F4811141C133
:1009A0004130510509F03DC1809127028D7F0BC078
:1009B000933061F4811135C14130510509F031C1E5
:1009C000809127028260809327022BC1953049F4E1
:1009D0008091E80080FFFCCF822F80688093E30045
:1009E00020C1963009F05EC00B8D1C8D22E0109264
:1009F000E90010925F0210925E02F21232C0109271
:100A00005D0210925C020E94510299E0BE016F5F8C
:100A10007F4FDB01E92F1D92EA95E9F79983FA826E
:100A200091E09E8390EA98879AEF998720915E02E1
:100A300030915F02275F3F4F3C832B838D83109261
:100A4000E90010925F0210925E0210935D02009323
:100A50005C0249E050E080E00E9441010E945102A6
:100A6000E0C010935D0200935C020E94F10EDC0175
:100A700012960D911C9113970115110509F4BBC035
:100A8000D801ED91FC910480F581E02DBE016B5EF3
:100A90007F4FC8010995009709F0C7C0F80100858C
:100AA0001185EACF973009F445C1983021F481E0EF
:100AB0008093F100B6C0993009F0B3C0837009F09B
:100AC00039C1E9ECF1E081E031E096E320812111C8
:100AD00009C08EE78093EA001092EA008F89809324
:100AE00071029FC08093E9003093EB002191209325
:100AF000EC009093ED008F5F873041F7EACF8B8D4C
:100B00009C8D1092E90010925F0210925E02909309
:100B10005D0280935C02898D811153C08E899D890D
:100B2000913A49F4813209F005C147E050E064E0B0
:100B300071E080E0BBC0913209F0FCC0833269F4FF
:100B40008F89988DA0E0B0E080930001909301011F
:100B5000A0930201B093030164C0803269F48091D4
:100B6000E80082FFFCCF67E084E091E00E9468012A
:100B70008BEF8093E80055C0823209F052C08F8914
:100B800080930B01EEEFFFE7859194918B3F9C4D95
:100B900019F0E0E0F8E002C0EEEFFAE08091040125
:100BA00090910501A0910601B0910701803B94400E
:100BB000A105B10509F09EC080910B0180FF79C0AD
:100BC00099C00E94F10EFC010281138101151105EB
:100BD00009F4B0C0D801ED91FC910190F081E02DB5
:100BE000BE016B5E7F4FC801099581111AC0F801E3
:100BF00000851185EBCFF1E0FF1609F44EC0F3E05C
:100C0000FF1298C08F89882309F44AC0823089F482
:100C100040E862E18BE291E00E946D1B882309F4B9
:100C200089C08EEF8093E80088C018161906CCF3AF
:100C300081C0813029F440E868E082E291E0ECCFA5
:100C4000833009F077C00E94F10EDC011296ED901E
:100C5000FC9013978E010F5F1F4F6801E114F104A0
:100C600079F0D701ED91FC910680F781E02DB80174
:100C7000C7010995080F111DF701E084F184EECF3B
:100C8000D8011C92F60101900020E9F73197BF01CD
:100C90006C197D0940E0C601BFCF60E171E002C080
:100CA0006CE071E0FB01449150E080E80E9441015A
:100CB000B8CFEE3F2AE0F20751F08081918187376B
:100CC000A7E79A0721F09093FF0A8093FE0A87E72F
:100CD00097E79183808380916000809360029BE01E
:100CE00088E10FB6F894A895809360000FBE9093AA
:100CF000600097CF808191818737974709F091CF26
:100D0000A895809160008861809360008091600266
:100D100080936000EE3FBAE0FB0739F08091FE0A55
:100D20009091FF0A918380837CCF1092FF0A1092EA
:100D3000FE0A77CF81E28093EB006C960FB6F894B1
:100D4000DEBF0FBECDBFDF91CF91FF91EF91BF917D
:100D5000AF919F918F917F916F915F914F913F9153
:100D60002F911F910F91FF90EF90DF90CF900F90F8
:100D70000FBE0F901F9018958032910510F40197C7
:100D800008959C0120523109C9016AE070E00E9477
:100D90005D1DAB015527C901EAE06E9F80199109DD
:100DA00011249C01220F331F64E1649FC001659FE1
:100DB000900D11244F96820F931F08950895089562
:100DC00008950895FC01662319F091E09427978314
:100DD0004683089580E090E00895089580E00895A6
:100DE000089508950895009761F0880F991FFC01F8
:100DF000E75DFD4F0190F081E02D838194810C949B
:100E0000B41108951F93CF93DF93EC018E859F85D6
:100E1000A889B989892B8A2B8B2B09F442C08FB7FB
:100E2000F89440916304509164046091650470915A
:100E300066048FBF8E859F85A889B989481B590B89
:100E40006A0B7B0B88859985A0E0B0E08417950735
:100E5000A607B70740F51E861F86188A198A60E024
:100E60008A810E94420F60E08E810E94420F1A899F
:100E70008A859B8511110BC061E070E00E94F3062A
:100E800060E070E08C859D850E94F3060DC060E0F7
:100E900070E00E94F30661E070E08C859D850E9401
:100EA000F30610E001C011E0812FDF91CF911F9177
:100EB00008951F93CF93DF93EC01162F2A898A851B
:100EC0009B85211107C061E070E00E94F30660E09D
:100ED00070E006C060E070E00E94F30661E070E040
:100EE0008C859D850E94F3061A8B2FB7F89480910C
:100EF000630490916404A0916504B09166042FBFCF
:100F00008E879F87A88BB98B61E08A810E94710FC1
:100F100061E08E810E94710F60E0112331F08E81BB
:100F20000E94420F61E08A8105C08A810E94420FBF
:100F300061E08E81DF91CF911F910C94420F0F934E
:100F40001F93CF93DF93EC012A81222309F130E034
:100F5000F901E65AFE4F8491F901EF54FE4F0491D6
:100F6000F901EE56FE4F1491112379F081110E9480
:100F7000050FE12FF0E0EE0FFF1FEC57FE4FA5919C
:100F8000B491EC91E02381E009F480E081708E83DC
:100F90006E818F81681781F08B819C810E94B411D2
:100FA0008A85882339F06E8181E068278885998554
:100FB0000E94B4118E818F8381E0DF91CF911F91C8
:100FC0000F9108950C94A31C0C94A31C0C94A31CC7
:100FD0000F931F93CF93DF93EC018B0180E090E0A0
:100FE0000E942C1D90E0F8019183808381E197E2BB
:100FF000998388838FE7DF91CF911F910F91089597
:10100000CF93DF9320916B02222381F081319742AD
:1010100069F4EB0180E090E00E942C1D90E0C8177D
:10102000D90721F410926B020C940000DF91CF914C
:1010300008950F931F93CF93DF938C01EB0180E012
:1010400090E00E942C1D90E0F80120813181213137
:10105000374281F4288139818217930721F481E096
:1010600080936B0205C02F3F3F4F21F49983888303
:101070008FE703C010926B028FEFDF91CF911F912A
:101080000F910895CF93DF9320916B022223A1F05B
:101090008131974289F4603481E0780778F4EA017D
:1010A000CB016032710560F00E94BC06BE01805029
:1010B00090400E94481D0BC08FEF0AC081E008C01D
:1010C0000E94BC066C2F805090400E943A1D8FE712
:1010D000DF91CF910895AF92BF92CF92DF92EF92BE
:1010E000FF920F931F93CF93DF9300D0CDB7DEB75E
:1010F00040916B02442309F42CC18131974209F0DD
:1011000028C16530710521F488E190E0F90111C032
:101110008901CB016034F1E07F0778F4603271051A
:1011200008F41BC10E94BC06805090400E94341DF0
:10113000F801918380838FE718C16A3FF3E07F074E
:1011400009F044C00E94D4120E94C11261E084E4FC
:101150000E94921268EE73E080E090E00E94AD0F72
:101160000E94D4120E94C11260E08EEB0E94921283
:1011700072E6E72E72E0F72E68E0A62EB12CD12C95
:10118000CC24C3940E943D128111DC28CC0C21E0B8
:10119000A21AB108B9F7F701D1927F01FBE6EF1669
:1011A000F2E0FF0649F7809162029091630220917C
:1011B0006602207611F4887FBBCF203211F48C7F39
:1011C000B7CF203409F0B4CF8E7FB2CF6B3FF3E0BE
:1011D0007F0759F480912E0390E0982F8827F9011A
:1011E0009183808320912F032CC06C3FF3E07F0715
:1011F00059F48091300390E0982F8827F90191836A
:101200008083209131031DC06D3FF3E07F0759F4C7
:101210008091320390E0982F8827F8019183808392
:10122000209133030EC06E3FF3E07F0761F480919D
:10123000340390E0982F8827F801918380832091D0
:101240003503822B76CF6F3FF3E07F0719F484E0FC
:1012500099E26ECF6115F4E07F0781F480916C0410
:1012600090916D04009711F480E794E09E012F5F48
:101270003F4FA901481B590BCA015ACF6130F4E016
:101280007F0729F4809126029091270251CF623086
:10129000F4E07F0729F4809170049091710448CFA5
:1012A0006330F4E07F0719F48DB79EB741CF9B01FF
:1012B000245034402530310548F56630F4E07F078E
:1012C000B1F020F46530744069F007C0673054E035
:1012D000750791F068307440A1F08091CB03909134
:1012E000CC0326CF8091CD039091CE0321CF809166
:1012F000CF039091D0031CCF8091D1039091D20362
:1013000017CF8091D3039091D40312CF6A30F4E0C9
:101310007F07C9F40E941612BC0180E090E00E9491
:10132000AC1E2AE137E64CE950E40E94631F20E03E
:1013300030E040E551E40E94631F0E947D1EF801E9
:1013400071836083F8CE6B30744029F48091280259
:101350000AC08FEF0AC081E008C00E94BC0680501E
:1013600090400E942C1D90E0E3CE0F900F90DF91F3
:10137000CF911F910F91FF90EF90DF90CF90BF9092
:10138000AF900895BF92CF92DF92EF92FF920F93AA
:101390001F93CF93DF936C01062FB42EC9E2D2E0E6
:1013A0008BE2E82E80E0F82E10E088819981DC0144
:1013B00013962D913C9114972C153D0541F541E074
:1013C000011101C040E061E0B11001C060E0DC014A
:1013D000ED91FC910084F185E02D0995812F0E940B
:1013E0001D1388819981DC01ED91FC910488F589B8
:1013F000E02D0995BC01C7010E94481D8881998193
:10140000DC01ED91FC910684F785E02D09951F5FC5
:101410002296B4E1EB0EF11C183139F6DF91CF9131
:101420001F910F91FF90EF90DF90CF90BF900895A4
:10143000CF93DF93EC01298D3A8D8D859E852130E8
:10144000310519F460E070E005C02989211107C059
:1014500061E070E00E94F30660E070E006C060E0CA
:1014600070E00E94F30661E070E08F859889DF915B
:10147000CF910C94F306089508951F920F920FB622
:101480000F9211242F933F934F935F936F937F930A
:101490008F939F93AF93BF93CF93DF93EF93FF937C
:1014A00080913D0390913E0380549C4F90933E0366
:1014B00080933D0380913D0390913E03909389007A
:1014C00080938800809142038F5F809342038091D4
:1014D00043038430E1F580914203893078F48091B0
:1014E000390390E095958795809339034C9B3EC1D5
:1014F0008091390380688093390338C1B59A80910F
:101500006F00806280936F00809137039091380361
:101510004C9909C0FC01E957FF4F808191810196E8
:10152000918380830FC040913903FC01E058FF4F45
:10153000308121E0230F2083DC01A30FB11D4C93E8
:1015400027FD10821092420381E080934303809133
:101550004303833009F0B4C0E0914003F0914103AC
:10156000408120913F0399B150E0022E02C0559571
:1015700047950A94E2F7892F90E034E09595879596
:101580003A95E1F78427952780FD04C01092420325
:1015900082E094C0809142038930F0F48091390355
:1015A000308180FF09C081E090E001C0880F2A955A
:1015B000EAF78095832307C081E090E001C0880F9F
:1015C0002A95EAF7832B80838091390390E09595E3
:1015D00087958093390374C080914203893059F410
:1015E000308181E090E001C0880F2A95EAF780956C
:1015F0008323808365C0809144038F5F809344037D
:1016000090914503891748F510924203A0913B033E
:10161000B0913C0380914403A80FB11D8C9180933D
:101620003903308181E090E001C0880F2A95EAF704
:10163000832B808380918400909185008A5A9C4FEF
:1016400090933E0380933D0380913D0390913E0330
:10165000909389008093880033C081E080933A039F
:10166000E0913B03F0913C034091370350913803E4
:1016700080818076803611F4818105C080818076FA
:1016800082958F708E5F20E030E0DA01A058BF4F66
:10169000281788F4EF01C20FD31F78816C9191E075
:1016A000960F9C93EA01C60FD11D788397FD1C927B
:1016B0002F5F3F4FEDCF1092420381E080934303B1
:1016C000809143038230D1F580914203811111C092
:1016D000E0914003F0914103208181E090E000908F
:1016E0003F0302C0880F991F0A94E2F7822B808380
:1016F00025C0809142038F3008F1E0914003F091C2
:101700004103208181E090E000903F0302C0880FF8
:10171000991F0A94E2F780958223808310924203F6
:1017200081E080934303E0913703F0913803E3575E
:10173000FF4F808191810196918380838091430343
:101740008130A1F480914203811105C0B59A809146
:101750006F00806209C080914203883338F0109294
:10176000430380916F008D7F80936F00FF91EF9115
:10177000DF91CF91BF91AF919F918F917F916F91A9
:101780005F914F913F912F910F900FBE0F901F903F
:1017900018951F920F920FB60F9211248F939F935B
:1017A000EF93FF93EFE6F0E080818F7D808380915F
:1017B00086009091870080569A4F90933E038093C5
:1017C0003D0380913D0390913E0390938900809367
:1017D0008800B19A80818260808384E08093430393
:1017E00010924203FF91EF919F918F910F900FBE46
:1017F0000F901F9018959C01215031092731310518
:10180000A0F4880F991FFC01E75DFD4F8081918155
:1018100021E0672B09F420E0DC01ED91FC910084CC
:10182000F185E02D40E0622F09940895CF92DF9278
:10183000EF92FF920F931F93CF93DF93EC01C98C2C
:10184000DA8C22E0C216D10431F10A891B898C8915
:101850009D890817190721F0A801481B590B02C0E0
:1018600040E050E02E893F89C90137FF04C0882736
:101870009927821B930B4817590778F482E090E070
:101880009A8F898F8C8560E070E090E00E94FB0B5E
:10189000CE010E94180A80E06AC0888D8F5F888F11
:1018A00091E0C916D10409F058C08B3F08F453C029
:1018B000020F131F1B8B0A8B6A81EB8CFC8CD701E8
:1018C0008C9191E090930A0380932C0310920B0368
:1018D00010922D0311968D919C911297B4E06B9FFD
:1018E000B00111246A5F7F4FDC01ED91FC91019002
:1018F000F081E02D099560E070E0F701818192812F
:101900000E947C0D60E070E0D70111968D919C9152
:1019100012970E947C0DB801F701818192810E948B
:101920007C0D612F70E0D70111968D919C911297DB
:101930000E947C0D81E00E945F13188E8E899F8922
:10194000892B49F42C893D898A899B892817390775
:1019500011F4DF8ACE8A81E00AC0CD2809F09BCF3E
:101960008B3F08F498CF81E090E09A8F898FDF91C8
:10197000CF911F910F91FF90EF90DF90CF9008953E
:10198000089585ED8093BC008091BC0084FDFCCF60
:101990001092090308954091A002262F30E0240FF1
:1019A000311D21323105DCF4209109032430C9F4C2
:1019B000FC0180E090E0861758F43091A00221915C
:1019C000DC01A058BD4FA30FB11D2C930196F3CF9E
:1019D0008091A002680F6093A00280E0089581E0EA
:1019E000089582E0089508950895E091730280912A
:1019F0007202E81730F4F0E0ED53FD4F808190E083
:101A000008958FEF9FEF0895909173028091720275
:101A1000981750F4E92FF0E0ED53FD4F208130E0AE
:101A20009F5F9093730202C02FEF3FEFC9010895AB
:101A30008091720290E020917302821B91090895B7
:101A4000CF92DF92EF92FF920F931F93CF93DF938A
:101A50007C01CB018A0120910A03222389F0EB014A
:101A60006B01C40ED51ECC15DD0569F06991D70157
:101A7000ED91FC910190F081E02DC7010995F3CF24
:101A8000642F0E94CB0CC801DF91CF911F910F9161
:101A9000FF90EF90DF90CF900895CF93DF931F9248
:101AA000CDB7DEB7698320910A032223D1F02091BC
:101AB0002D03203240F021E030E0FC01338322830B
:101AC00080E090E015C080910B03E82FF0E0E45F28
:101AD000FC4F998190838F5F80930B0380932D033C
:101AE00005C061E0CE0101960E94CB0C81E090E040
:101AF0000F90DF91CF910895DC01ED91FC91019061
:101B0000F081E02D099420917102211103C08FEF23
:101B10009FEF08955FB7F89422E02093E9002091A9
:101B2000F20030E01216130614F421E030E0422FE8
:101B3000FC0184E6415038F028988093700290911F
:101B4000F1009193F7CF2115310521F08091F2003A
:101B5000882319F05FBFC90108958BE68093E800E0
:101B6000F9CF2FB7F89483E08093E9009091E800D3
:101B7000892F807295FF04C09091F20080E4891B48
:101B80002FBF08951F920F920FB60F9211242F931B
:101B90003F934F935F936F937F938F939F93AF93F5
:101BA000BF93EF93FF938091B900887F803609F44B
:101BB0009CC068F5883209F45BC090F4803109F468
:101BC00054C038F4882309F4F6C0883009F44DC0B5
:101BD000F6C0883109F44CC0803209F45DC0EFC012
:101BE000803409F468C048F4803309F455C0883360
:101BF00009F0E5C080930703D8C0803509F44FC0D1
:101C0000883509F45DC0883409F0D9C0D6C0883958
:101C100009F4C7C0A8F4883709F467C038F48836D7
:101C200009F463C0803709F460C0C9C0883809F47A
:101C3000B8C0803909F45FC0803809F0C0C05BC00B
:101C4000803B09F486C038F4803A09F466C0883ACB
:101C500009F47FC0B4C0803C09F4A7C0883C09F4F3
:101C6000A4C0883B09F48AC0AAC08091E40210C0D5
:101C70009091060380910503981770F5E091060393
:101C800081E08E0F80930603F0E0EB51FD4F8081E1
:101C90008093BB0085EC86C0809307038EC0E091E3
:101CA000060381E08E0F809306038091BB00F0E075
:101CB000EB51FD4F808390910603809105036EC028
:101CC000E091060381E08E0F809306038091BB00B4
:101CD000F0E0EB51FD4F80838091080381116DC0CE
:101CE00081E08093E30284EA61C083E0809309038A
:101CF0001092C202CFCF8091C202803208F051C050
:101D0000E091C20281E08E0F8093C2028091BB00FD
:101D1000F0E0EE55FD4F8083BDCF85EC8093BC0095
:101D2000109209038091C202803230F4E091C20225
:101D3000F0E0EE55FD4F10826091C20270E0E0913C
:101D40006E02F0916F0282EA92E009951092C2024F
:101D500036C084E0809309031092A1021092A00281
:101D6000E0916C02F0916D0209958091A0028111C1
:101D700005C081E08093A00210928002E091A10250
:101D800081E08E0F8093A102F0E0E058FD4F80814A
:101D90008093BB009091A1028091A002981708F453
:101DA00079CF85E88093BC000AC085EC8093BC00A5
:101DB0001092090304C0109207030E94C10CFF9106
:101DC000EF91BF91AF919F918F917F916F915F91B3
:101DD0004F913F912F910F900FBE0F901F9018952C
:101DE00008958091780281110DC082E08093740281
:101DF00084E080937502109277021092760281E05F
:101E00008093780284E792E0089590E0FC01319796
:101E1000EF30F105B0F5EA5AFF4F0C94931D809115
:101E200080008F7703C0809180008F7D8093800039
:101E3000089580918000877FF9CF84B58F7702C0A5
:101E400084B58F7D84BD0895809190008F7707C001
:101E5000809190008F7D03C080919000877F809358
:101E6000900008958091C0008F7703C08091C000DA
:101E70008F7D8093C00008958091C200877F8093FA
:101E8000C20008951F93CF93DF93282F30E0F9010C
:101E9000E65AFE4F8491F901EF54FE4FD491F901B7
:101EA000EE56FE4FC491CC23C1F0162F81110E9433
:101EB000050FEC2FF0E0EE0FFF1FE45BFE4FA59146
:101EC000B4919FB7F894111104C08C91D095D82388
:101ED00002C0EC91DE2BDC939FBFDF91CF911F916D
:101EE0000895CF93DF9390E0FC01EF54FE4F2491CF
:101EF000FC01EE56FE4F8491882361F190E0880F3B
:101F0000991FFC01E25CFE4FC591D491FC01E45B9A
:101F1000FE4FA591B491611109C09FB7F8948881D3
:101F2000209582238883EC912E230BC0623061F4CC
:101F30009FB7F8948881322F309583238883EC9162
:101F40002E2B2C939FBF06C08FB7F894E8812E2BC1
:101F500028838FBFDF91CF9108958F929F92AF9288
:101F6000BF92CF92DF92EF92FF926B017C010E94B1
:101F7000E6134B015C01C114D104E104F104F1F05A
:101F80000E94E613DC01CB0188199909AA09BB0953
:101F9000883E9340A105B10570F321E0C21AD10833
:101FA000E108F10888EE880E83E0981EA11CB11CA0
:101FB000C114D104E104F10419F7DDCFFF90EF90D3
:101FC000DF90CF90BF90AF909F908F9008958F92A9
:101FD0009F92AF92BF92CF92DF92EF92FF92CF93F8
:101FE0006B017C0120E030E040E85FE30E94061EC8
:101FF00087FD12C020E030EC4AE555E4C701B60188
:102000000E945E1F181674F4C12C30ECD32E3AE5F2
:10201000E32E35E4F32E06C0C12CD12C20E8E22EAD
:102020002FE3F22E60915304709154048091550473
:10203000909156040E94AC1E4B015C0120E030E000
:1020400040E855E4C701B6010E94631F9B01AC0143
:10205000C501B4010E940B1E20E030E040E05FE3C8
:102060000E949A1D20E030E040E85FE30E94991D45
:102070006B017C0120E030E040E450E40E94061E49
:1020800087FD11C020E030E04FE753E4C701B601FF
:102090000E945E1F181664F4C12CD12C9FE7E92E14
:1020A00093E4F92E05C0C12CD12C80E4E82EFE2C3F
:1020B000C701B6010E947D1EF62E8091500491E06A
:1020C00090930A0380932C0310920B0310922D031C
:1020D0008091510490915204DC01ED91FC910190AA
:1020E000F081E02D60E0099581E00E945F1380910E
:1020F0005004909109039111FCCF91E09093090352
:10210000909308032FEF2093070310920603109279
:1021100005039093E4029091E402880F892B809349
:10212000E4028091E302813061F41092E302809135
:10213000E4028093BB008091BC0083FDF8CF85EC66
:1021400001C085EE8093BC00809109038130E1F3EA
:1021500080910603811103C09091060301C091E0B4
:10216000A5EEB2E0E3ECF2E080E0891721F02D91DA
:1021700021938F5FFACF1092730280937202809145
:10218000510490915204DC01ED91FC910284F3859D
:10219000E02D0995C82F682F6F76606180E00E945E
:1021A000BB136F2D8EEF0E94BB136C2F80E00E943B
:1021B000BB1365E070E080E090E00E94AD0F6C2FF3
:1021C000606A80E0CF91FF90EF90DF90CF90BF905A
:1021D000AF909F908F900C94BB13CF93DF93FC0133
:1021E00039E18EE261E070E0A3E021E09081907639
:1021F000903611F4918105C09081907692959F70F0
:102200009E5F909345039091450391501092440333
:102210004FEF50914403591768F450914403EF0174
:10222000C50FD11D58814527509144035F5F5093DE
:102230004403EFCFEF01C90FD11D4883F89490916B
:102240004303913059F490914203981738F010925B
:10225000430390916F009D7F90936F0078949091CD
:102260004303913039F490914203943108F4BECF86
:1022700020E0BCCF90914303911170C0F8949091ED
:102280006F009F7D90936F00B59B07C090916F008A
:10229000906290936F00789461C0C0914003D09198
:1022A00041039881AB0100903F0302C0440F551FCA
:1022B0000A94E2F7492B48834091840050918500AD
:1022C0004A5A5C4F50933E0340933D0340913D0377
:1022D00050913E0350938900409388007894F09386
:1022E0003C03E0933B031092440310923A03908125
:1022F00090933903A093430310924203B19A9091B3
:102300006F00926090936F00909143039330E1F3DC
:1023100090913A03992371F0E0913703F0913803DB
:10232000E757FF4F8081918101969183808383E0FD
:1023300090E017C0909143038B3108F081503150E9
:1023400009F053CF8091D1039091D20301969093DD
:10235000D2038093D10386E090E003C0211145CFE2
:10236000EBCFDF91CF910895CF93DF93CDB7DEB759
:1023700060970FB6F894DEBF0FBECDBFAC014150E1
:102380005109852F8F709A01369527952F7740FD3B
:1023900002C0806401C080666111806192EB998304
:1023A0002A838B83CE0101960E94ED1060960FB6B2
:1023B000F894DEBF0FBECDBFDF91CF910895EF92AD
:1023C0000F931F93FC0185EE80838FE0818385E06E
:1023D0008283613029F489E483838BE4848302C09F
:1023E000638314828FE18583168250874783328707
:1023F000218714870387E586DF01AF01495F5F4FBF
:1024000091E017968C91179787FF07C02681292B9B
:1024100026838F7717968C931797990F1196A41789
:10242000B50779F71F910F91EF900895EAE7F1E072
:10243000E49120917B00E3FB882780F990E035E070
:10244000880F991F3A95E1F7922F9F7D892B8093F2
:102450007B00E770E064E0937C0080917A00806408
:1024600080937A0080917A0086FDFCCF809178007D
:102470002091790090E0922B089590912504E091AD
:102480002604F0912704F8948181892B818322818D
:10249000892F809528232283A7E0B0E01197F1F7D8
:1024A000218182238183A3E2B0E01197F1F780813B
:1024B0007894EFECF0E03197F1F7982381E009F49C
:1024C00080E0089590912504E0912604F09127047E
:1024D000292F209580FF12C0F89482818223828365
:1024E0008181892B8183A3E2B0E01197F1F782818A
:1024F000982B9283789487ED90E011C0F8948281B4
:10250000822382838181892B8183AFEFB0E0119791
:10251000F1F78281982B928378948FE090E0019775
:10252000F1F70895FF920F931F93CF93DF93F82E47
:10253000062FC8E0D0E011E081E09F2D912309F43F
:1025400080E00E946212110F2197B1F7011113C0B0
:10255000F894E0912604F09127049181809125045C
:10256000809598239183E0912604F091270492812D
:10257000892382837894DF91CF911F910F91FF90EF
:102580000895CF93DF9360E085E50E949212CEE23A
:10259000D3E060E089910E94921283E0C633D807AD
:1025A000C1F7DF91CF91089520912504E091260491
:1025B000F0912704F8948181922F9095892381834B
:1025C00078948DE743E050E0815021F1DA011197D2
:1025D000F1F730813223C1F3F89482818923828319
:1025E0008181822B81837894ABE7B7E01197F1F773
:1025F000F89481819823918383E191E00197F1F729
:102600008081282381E009F080E07894E3E6F6E019
:102610003197F1F70895009769F0FC0101900020CF
:10262000E9F73197AF01481B590BBC0185ED93E0E9
:102630000C94830280E090E0089520914D04309145
:102640004E042F5F3F4F30934E0420934D042B5484
:10265000344031F423E334E030934E0420934D04AE
:10266000E0914D04F0914E04808380914F048831B5
:1026700099F480914B0490914C04019690934C04F2
:1026800080934B048B549440B1F483E394E0909393
:102690004C0480934B040FC091E0980F90934F042B
:1026A00081110BC080914D0490914E0490934C0485
:1026B00080934B0402C080E0089581E00895282FA4
:1026C00030912D03313208F04AC080910903811105
:1026D000FCCF90912C0342E0409309032093080320
:1026E0002FEF209307031092060330930503ECE0CD
:1026F000F3E0A5EEB2E020E0321721F041914D93D6
:102700002F5FFACF1092E4022091E402990F922BEE
:102710009093E4029091E302913061F41092E3020D
:102720009091E4029093BB009091BC0093FDF8CF90
:1027300095EC01C095EE9093BC0090910903923006
:10274000E1F3909107039F3F79F080910703803276
:1027500041F080910703803331F084E005C081E0CF
:1027600003C082E001C083E010920B0310922D039E
:1027700010920A0308951F93CF93DF93162FC0E59D
:10278000D4E0988121E020930A0390932C031092C7
:102790000B0310922D03A981BA81ED91FC91119741
:1027A0000190F081E02D682FCD01099589819A81F2
:1027B000DC01ED91FC910190F081E02D612F0995F4
:1027C00081E0DF91CF911F910C945F133FB7F89494
:1027D0008091680490916904A0916A04B0916B049F
:1027E00026B5A89B05C02F3F19F00196A11DB11D6C
:1027F0003FBFBA2FA92F982F8827820F911DA11DA7
:10280000B11DBC01CD0142E0660F771F881F991FE3
:102810004A95D1F708951F920F920FB60F92112487
:102820002F933F938F939F93AF93BF9380916304B4
:1028300090916404A0916504B0916604309167049E
:1028400023E0230F2D3720F40196A11DB11D05C0F3
:1028500026E8230F0296A11DB11D209367048093E3
:10286000630490936404A0936504B093660480911C
:10287000680490916904A0916A04B0916B04019678
:10288000A11DB11D8093680490936904A0936A040C
:10289000B0936B04BF91AF919F918F913F912F9116
:1028A0000F900FBE0F901F901895CF93DF93CDB769
:1028B000DEB7A6970FB6F894DEBF0FBECDBF7894F3
:1028C00084B5826084BD84B5816084BD85B5826035
:1028D00085BD85B5816085BD80916E0081608093E6
:1028E0006E0010928100809181008260809381004F
:1028F000809181008160809381008091800081605F
:1029000080938000809191008260809391008091FB
:10291000910081608093910080919000816080930C
:1029200090008091C10084608093C1008091C100BB
:1029300082608093C1008091C10081608093C1005A
:102940008091C30081608093C3008091C000826049
:102950008093C0008091C20081608093C20080910A
:102960007A00846080937A0080917A0082608093FC
:102970007A0080917A00816080937A0080917A0059
:10298000806880937A001092710210922702109250
:1029900026028091D70081608093D70080EA8093DF
:1029A000D80089B5806189BD89B5826089BD09B4C7
:1029B00000FEFDCF61E070E080E090E00E94AD0F8E
:1029C0008091D8008F7C80618093D8008091E00056
:1029D000807F8093E0008091E1008E7E8093E10013
:1029E0008DE08093E200559A209A8FE8E6E4F3E0C8
:1029F000DF011D928A95E9F761E085E00E94710F81
:102A0000E6EBF1E02491E7E9F1E0E491F0E0EE0F8C
:102A1000FF1FE45BFE4F4591549180E091E031E06F
:102A2000291741F08F5F932F082E01C0990F0A9448
:102A3000EAF7F6CF509341034093400380933F035E
:102A400086E493E090933803809337035498E091A1
:102A50004003F0914103208181E090E000903F032A
:102A600002C0880F991F0A94E2F780958223808321
:102A70001092800081E08093810010924303B59A08
:102A800080916F00806280936F0080918100887FC9
:102A900081608093810085E090E00E942C1D8093EE
:102AA0005902893118F088E180935902F12C809104
:102AB0005902F81608F022C2CF2CD12CC601885F2B
:102AC0009F4F0E942C1DB82EB4E1BC9D8001BD9D7E
:102AD000100D1124C801815E9F4F0E94341DE82E05
:102AE000C8018F5D9F4F0E94341D1C012601440CBC
:102AF000551CE3E0BE1609F425C1EB1508F472C0BD
:102B0000F1E0BF1609F4E8C022E0B212D4C1C80156
:102B10008D5D9F4F0E94341D5C01C8018B5D9F4FEE
:102B20000E94341D9BA38AA3C801895D9F4F0E9408
:102B3000341D3C01C801835D9F4F0E94341D9DA33D
:102B40008CA3C801815D9F4F0E94341D4C01C801B8
:102B50008F5C9F4F0E94341D8EA38BE190E00E94FA
:102B60000B1C6C01DC011596FC9215971296EC92E9
:102B7000129714963C922E921397EEE7F1E011967D
:102B8000FC93EE931996BC92AE9218972AA13BA1A2
:102B900017963C932E9316971B967C926E921A97DB
:102BA0003EA11C963C931C975396BC92AE925297B2
:102BB0005596BC92AE9254974CA15DA11E965C9323
:102BC0004E931D9750969C928E921F9757961C92EB
:102BD0001E92569758961C9258975A961C921E927F
:102BE00059975AC135E0B31609F406C1B31608F473
:102BF000DDC046E6B4125FC1C8018D5D9F4F0E94E3
:102C0000341D5C01C8018B5D9F4F0E94341D9BA346
:102C10008AA3C801895D9F4F0E94341D3C01C801F1
:102C2000835D9F4F0E94341D9DA38CA3C801815DCD
:102C30009F4F0E94341D4C01C8018F5C9F4F0E9422
:102C4000341D8EA38DE190E00E940B1C6C01FC01F1
:102C5000F582E28234822382738662862EA12487E3
:102C6000B38AA28AB58AA48A4CA15DA156874587FA
:102C7000908A8786178A168A108E128E118E88E99E
:102C800091E091838083A0E5B4E0B48FA38FB50178
:102C900080E090E00E94AC1E2FE335E342E850E470
:102CA0000E940B1E0E947D1EF601718760872AA17B
:102CB0003BA1B90180E090E00E94AC1E2FE335E318
:102CC00042E850E40E940B1E0E947D1ED60117961A
:102CD0007C936E931697E0C0C8018D5D9F4F0E9454
:102CE000341D8170B82EC8018B5D9F4F0E94341D2A
:102CF0006C018BE090E00E940B1C8C01DC011596AE
:102D0000FC9215971296EC92129714963C922E9282
:102D10001397E6E1F1E01196FC93EE93FFEFEF12CB
:102D200003C02EEF12962C9362E0D80112968C917C
:102D30000E94710FF801168281E08783B286D186E6
:102D4000C0862EC0C8018D5D9F4F0E94341DD82EB5
:102D50008AE090E00E940B1C8C01DC011596FC922D
:102D600015971296EC92129714963C922E92139706
:102D7000E0E3F1E0ED93FC9361E08E2D0E94710F92
:102D8000D80116961C9260E0C8010E94D6038D2DD2
:102D90008170F80187831186D1FADD24D0F8D086BE
:102DA000F201E75DFD4F1183008397C0C8018D5D7F
:102DB0009F4F0E94341DC82EC8018B5D9F4F0E94FB
:102DC000341DD82EC801895D9F4F0E94341D8C018F
:102DD00083E190E00E940B1CFC01F582E2823482C8
:102DE00023822AE431E031832083C782D086128790
:102DF0000187108A17866CC0C8018D5D9F4F0E94A5
:102E0000341D9BA38AA3C8018B5D9F4F0E94341D74
:102E10003C01C801875D9F4F0E94341D4C01C801D1
:102E2000855D9F4F0E94341D5C0183E190E00E940C
:102E30000B1C6C01DC011596FC9215971296EC9216
:102E4000129714963C922E921397E4E6F1E01196B5
:102E5000FC93EE932AA13BA117963C932E931697D1
:102E600019967C926E9218971B969C928E921A9746
:102E70001D96BC92AE921C9761E08E2D0E94710F40
:102E800061E0D60116968C910E94710FF201E75D08
:102E9000FD4FD182C08221C0F201E75DFD4FD1829A
:102EA000C082C801855D9F4F0E94341DBC01C601D0
:102EB0000E94250212C086E090E00E940B1CFC01DB
:102EC00022EB31E031832083F582E2823482238257
:102ED000D201A75DBD4FED93FC93F201E75DFD4F7D
:102EE00080819181DC01ED91FC910480F581E02DE0
:102EF00009958F2D0E941D13F394D9CD809128023E
:102F00008260809328021092300410923204109252
:102F10003104A0E3AA2EA4E0BA2EB8E2CB2EB4E08E
:102F2000DB2EF5011292CE16DF06E1F76AEF70E0B4
:102F300080E090E00E94AD0F80913204811158C072
:102F40000E94D412882309F453C060E080EF0E94ED
:102F50009212FF24F394E12C912C01E00E943D1287
:102F6000182F0E943D12113019F48130C1F436C07F
:102F70002E2D30E018131DC080913004081738F44E
:102F8000F901EB5DFB4F83818F2149F402C080176B
:102F900031F010E0093060F40093310409C0EE2DE7
:102FA000F0E0EB5DFB4F83818F29838311E009C043
:102FB000902EF901EB5DFB4F93818F2D8095892336
:102FC0008383812F0E9462120F5FFF0C19F4E39438
:102FD000FF24F394B7E0BE1508F0C0CF013440F0F1
:102FE0009092300491109BC281E08093320497C28A
:102FF000109230041092320410923104F5011292B2
:103000005F01CE16DF06D1F7EEE2F3E085E393E051
:1030100011928E179F07E1F71092730210927202BD
:1030200010920B0310922D031092090381E08093FC
:1030300008031092E30261E082E00E94420F61E027
:1030400083E00E94420F8091B9008E7F8093B90087
:103050008091B9008D7F8093B90088E48093B80097
:1030600085E48093BC0083EF9CE090936D02809395
:103070006C0284EF9CE090936F0280936E0260E894
:1030800080E00E94BB136AE070E080E090E00E9464
:10309000AD0F60E070E08AE794E40E94E70F80E4FF
:1030A00098E7ADE7B1E08093530490935404A09364
:1030B0005504B093560460E070E08CE892E40E94FE
:1030C000E70F60E084E10E94710F83EF91E00E94BE
:1030D0000B130E941612BC0180E090E00E94AC1E0F
:1030E0002AE137E64CE950E40E94631F20E030E01B
:1030F00040E551E40E94631F0E947D1E9B0140E059
:1031000050E019A28E010F5D1F4FFAE0CF2ED12C97
:10311000E12CF12CCA01B901A70196010E94711D91
:10312000605DD8016E938D01211531054105510572
:1031300089F7CD010E940B1389E092E00E940B13E6
:10314000E0E06E2EE0E07E2EFF24FA9440E0242E94
:1031500040E0342E50E0452E50E0552E61E1A62E81
:1031600067E2B62E70E0872E70E0972E80914F04B4
:103170008823E1F0E0914B04F0914C04E081F0E011
:10318000EE0FFF1FE75DFD4F80819181DC01ED9126
:10319000FC910088F189E02D0995882339F0E091B0
:1031A0004B04F0914C0480810E941D138091C70351
:1031B0009091C603891709F4A4C0E82FF0E0EA5BF8
:1031C000FC4FE080E7FE20C09091C803891751F0C2
:1031D0002091CD033091CE032F5F3F4F3093CE032C
:1031E0002093CD038093C803F092C9038E2D80767F
:1031F000803621F082958F708E5F01C080E08093D1
:10320000CA03811107C042C08091CA0381113EC028
:10321000E092CA032091C8033091CA03822F90E044
:10322000830F911D813891058CF100E8021BF89401
:103230004091C6038091C803841708F081C1B42F60
:10324000B81B8B2F8093C60378946091C8034617F0
:1032500008F079C110E050E066E473E0C8018A5BD1
:103260009C4F0E94D51F6091C80370E06A5B7C4F41
:10327000A80186E493E00E94D51F8091C703909136
:10328000C803891B8093C7031092C8038091C703AA
:103290008F5F8093C703C090C803982F9C1987FD48
:1032A0001092C7038091CA032091C903981721F097
:1032B000E226E092C9037ACFE2120FC08C2D90E093
:1032C000AC014A5B5C4F8091CB039091CC0301969B
:1032D0009093CC038093CB030BC08091CD0390914E
:1032E000CE0301969093CE038093CD0340E050E04F
:1032F0008091C7038093C80341155105C9F26A0143
:1033000002C0C12CD12CD0925B02C0925A02C114CF
:10331000D10409F4FCC0F60121816281362F3F708F
:1033200040E8349FF0011124E22BD6019C91923B9E
:10333000E1F03196913B09F442C040F4933841F1F9
:10334000903BB1F1923809F0D3C029C09C3B09F4FD
:103350004EC020F4943B09F4C1C0CAC09D3B09F49F
:10336000D6C0903D09F44EC0C3C065FD03C081E0E6
:1033700090E002C082E090E06114710409F4C7C0DB
:10338000EE0FFF1F60718E0F9F1F0E940000BFC0D5
:1033900080E090E0892B09F4BAC081E006C080E0AB
:1033A00090E0892B09F4B3C080E00E940000AFC018
:1033B000462F40726071CF010E94C209A8C066FF0B
:1033C0000BC04114510409F4A2C0462F4072607131
:1033D000CF010E9400009BC02114310409F497C062
:1033E000462F40716072CF010E94000090C081148E
:1033F000910409F48CC0462F40726071CF010E9485
:10340000000085C0822F8076803221F1803619F04D
:1034100081117DC01FC080E090E0892B09F477C046
:10342000F601E3808E2D807D803109F070C0D4805C
:1034300001E011E041E08E2D802309F040E02D2DC8
:103440002023000F612F80E80E9400001F5F1530CD
:1034500089F75DC080E090E0892B09F458C0422FC5
:103460004F71862F90E0F0E84F9F800D911D112441
:1034700025FB222720F90196D60113966C9113970C
:1034800014964C9150E06D3729F0B0E86B9F400DD9
:10349000511D1124332381F0323081F0343081F01A
:1034A000363081F0383081F03A3081F03C3081F0B4
:1034B0003E3081F0632F0FC061E40DC062E40BC0A9
:1034C00063E409C064E407C065E405C066E403C0C2
:1034D00067E401C068E40E94000019C02C33B9F40D
:1034E00080E090E0892B99F08CE30E9400000FC0EF
:1034F000953E09F0EEC08CE092E00E940B1389E04B
:1035000092E00E940B13F60181818F3011F180E06F
:1035100090E0892B09F42ACE0E94000017CE8091FA
:103520002804882309F464CDEEE2F3E086E393E017
:10353000D6012D916D0121938E179F07C9F76CCD90
:10354000802F840F7FCE461B50E070E06A5B7C4F7B
:1035500090CE83818530D9F684818111D8CF468180
:103560009601295F3F4F91E0842F892319F08781CD
:1035700080688783990F31962E173F07A9F7D601E8
:1035800016961C92169715968C911597803209F411
:1035900083C0813209F0BBCF1796ED91FC9118974B
:1035A000EF3FBFEFFB07F1F4D60119968D919C9187
:1035B0001A97892BB9F41B968D919C911C970196B3
:1035C00089F480E090E00E942C1D082F10E0F601A5
:1035D00014870387B086A782E12C20E030E041E128
:1035E00057E21EC0D6011D969C911D97911123C0D4
:1035F0001B964D915C911C9719966D917C911A9731
:103600009601255F3F4FCF010E946B088F3771F401
:10361000F601038514852185328547815085E12C8B
:103620006281CE0101960E94DF114EC087FD6FCFEF
:10363000D6019C9144C097FF22C096FD25C0B601DB
:10364000655F7F4FC9010E9419088F37C1F4F601E9
:10365000038514854781508580E8E82E20E030E01E
:103660006281CE0101960E94DF116AE070E080E085
:1036700090E00E94AD0FCE0101960E94ED10D601A0
:103680001D968C9186FF43CFF601638574858781F3
:1036900090850E9400083BCFD6011B964D915C910E
:1036A0001C9719966D917C911A9717968D919C9104
:1036B00018970E94420887FD2ACFF60190819F77D4
:1036C00024EB29839A838B83CE0101960E94ED100F
:1036D0001ECF9D3E09F01BCF0ECFDF92EF92FF92DF
:1036E0000F931F93CF93DF93D82EF92EE42E062F3E
:1036F00010E0C8010196880F0E94130183E00E9428
:103700001301CD2DDF2D0C0F1D1FC017D10789F020
:10371000E7FE03C0FE01849101C088810E9413016D
:10372000F82E80E00E9413018F2121968111EDCFA8
:1037300001C081E0DF91CF911F910F91FF90EF9039
:10374000DF90089510925A041092590488EE93E085
:10375000A0E0B0E080935B0490935C04A0935D04D0
:10376000B0935E0423ED31E0309358042093570466
:103770001092D8031092D7038093D9039093DA0361
:10378000A093DB03B093DC0385EE91E09093D60326
:103790008093D5038FEF9FEF9093E2038093E10333
:1037A00080E48093500487E594E0909352048093E2
:1037B000510483E394E090934C0480934B049093E2
:1037C0004E0480934D0410924F0460E085E10E9406
:1037D000710FE6ECF1E0E491E0932504E7EAF1E013
:1037E000E491F0E0EE0FFF1FEC57FE4F85919491AE
:1037F0009093270480932604109230041092320490
:1038000010923104E0E3F4E088E294E012928E1723
:103810009F07E1F708950F931F93CF93DF938230B3
:10382000910510F482E090E0E0916E04F0916F0455
:1038300020E030E0A0E0B0E0309719F14081518104
:103840000281138148175907C8F08417950769F456
:10385000109731F012960C93129713961C9327C071
:1038600000936E0410936F0422C02115310519F0E6
:103870004217530718F49A01BD01EF01DF01F80167
:10388000DBCF21153105F9F0281B390B2430310528
:1038900080F48A819B816115710521F0FB0193837E
:1038A000828304C090936F0480936E04FE0132966D
:1038B00044C0FE01E20FF31F81939193225031091E
:1038C000398328833AC020916C0430916D04232BF6
:1038D00041F420910E0130910F0130936D0420933B
:1038E0006C0420910C0130910D012115310541F43A
:1038F0002DB73EB74091100150911101241B350B9B
:10390000E0916C04F0916D04E217F307A0F42E1B14
:103910003F0B2817390778F0AC014E5F5F4F241733
:10392000350748F04E0F5F1F50936D0440936C04B1
:103930008193919302C0E0E0F0E0CF01DF91CF915D
:103940001F910F910895CF93DF93009709F481C0E1
:10395000FC01329713821282A0916E04B0916F0421
:10396000109781F420813181820F931F20916C0484
:1039700030916D042817390751F5F0936D04E093E9
:103980006C0467C0ED0120E030E0CE17DF0740F4A3
:103990004A815B819E0141155105F1F0EA01F5CFA5
:1039A000D383C28340815181840F951FC817D907E3
:1039B00059F488819981840F951F029691838083A1
:1039C0008A819B81938382832115310529F4F093A9
:1039D0006F04E0936E043DC0E901FB83EA834991E3
:1039E0005991C40FD51FEC17FD0761F480819181B7
:1039F000840F951F0296E9019983888382819381C0
:103A00009B838A83E0E0F0E012968D919C9113975E
:103A1000009719F0FD01DC01F7CF8D919C91119772
:103A20009D012E5F3F4F820F931F20916C043091B8
:103A30006D042817390769F4309729F410926F0440
:103A400010926E0402C013821282B0936D04A09390
:103A50006C04DF91CF910895F999FECF92BD81BD9D
:103A6000F89A992780B50895A8E1B0E042E050E0C7
:103A70000C944F1D262FF999FECF1FBA92BD81BD20
:103A800020BD0FB6F894FA9AF99A0FBE01960895E0
:103A90000E943A1D272F0C943B1DDC01CB01FC0139
:103AA000F999FECF06C0F2BDE1BDF89A319600B497
:103AB0000D9241505040B8F70895AA1BBB1B51E12D
:103AC00007C0AA1FBB1FA617B70710F0A61BB70B8E
:103AD000881F991F5A95A9F780959095BC01CD0133
:103AE0000895A1E21A2EAA1BBB1BFD010DC0AA1F3F
:103AF000BB1FEE1FFF1FA217B307E407F50720F057
:103B0000A21BB30BE40BF50B661F771F881F991FD1
:103B10001A9469F760957095809590959B01AC011A
:103B2000BD01CF010895EE0FFF1F0590F491E02D28
:103B300009945058BB27AA270E94B11D0C94241F3A
:103B40000E94161F38F00E941D1F20F039F49F3F7D
:103B500019F426F40C94131F0EF4E095E7FB0C9473
:103B60000D1FE92F0E94351F58F3BA17620773071C
:103B70008407950720F079F4A6F50C94571F0EF4EE
:103B8000E0950B2EBA2FA02D0B01B90190010C016D
:103B9000CA01A0011124FF27591B99F0593F50F485
:103BA000503E68F11A16F040A22F232F342F4427DD
:103BB000585FF3CF469537952795A795F0405395D5
:103BC000C9F77EF41F16BA0B620B730B840BBAF0A5
:103BD0009150A1F0FF0FBB1F661F771F881FC2F710
:103BE0000EC0BA0F621F731F841F48F48795779524
:103BF0006795B795F7959E3F08F0B0CF9395880FDE
:103C000008F09927EE0F9795879508950E94E91E71
:103C100008F481E008950E941F1E0C94241F0E9446
:103C20001D1F58F00E94161F40F029F45F3F29F035
:103C30000C940D1F51110C94581F0C94131F0E94CB
:103C4000351F68F39923B1F3552391F3951B550B59
:103C5000BB27AA2762177307840738F09F5F5F4F5F
:103C6000220F331F441FAA1FA9F335D00E2E3AF09E
:103C7000E0E832D091505040E695001CCAF72BD0B6
:103C8000FE2F29D0660F771F881FBB1F2617370707
:103C90004807AB07B0E809F0BB0B802DBF01FF2739
:103CA00093585F4F3AF09E3F510578F00C940D1FEA
:103CB0000C94581F5F3FE4F3983ED4F386957795B4
:103CC0006795B795F7959F5FC9F7880F911D9695F2
:103CD000879597F90895E1E0660F771F881FBB1F4E
:103CE000621773078407BA0720F0621B730B840BFB
:103CF000BA0BEE1F88F7E09508950E943D1F88F0EB
:103D00009F5798F0B92F9927B751B0F0E1F0660F9F
:103D1000771F881F991F1AF0BA95C9F714C0B130E0
:103D200091F00E94571FB1E008950C94571F672F20
:103D3000782F8827B85F39F0B93FCCF3869577950F
:103D40006795B395D9F73EF49095809570956195F8
:103D50007F4F8F4F9F4F0895E89409C097FB3EF423
:103D600090958095709561957F4F8F4F9F4F9923C8
:103D7000A9F0F92F96E9BB279395F6958795779546
:103D80006795B795F111F8CFFAF4BB0F11F460FF06
:103D90001BC06F5F7F4F8F4F9F4F16C0882311F05E
:103DA00096E911C0772321F09EE8872F762F05C072
:103DB000662371F096E8862F70E060E02AF09A950D
:103DC000660F771F881FDAF7880F9695879597F902
:103DD0000895990F0008550FAA0BE0E8FEEF16169C
:103DE0001706E807F907C0F012161306E407F507EF
:103DF00098F0621B730B840B950B39F40A2661F063
:103E0000232B242B252B21F408950A2609F4A14005
:103E1000A6958FEF811D811D089597F99F6780E812
:103E200070E060E008959FEF80EC089500240A940C
:103E30001616170618060906089500240A94121685
:103E40001306140605060895092E0394000C11F4B8
:103E5000882352F0BB0F40F4BF2B11F460FF04C065
:103E60006F5F7F4F8F4F9F4F089557FD9058440FBE
:103E7000551F59F05F3F71F04795880F97FB991FC9
:103E800061F09F3F79F08795089512161306140686
:103E9000551FF2CF4695F1DF08C016161706180613
:103EA000991FF1CF86957105610508940895E894EE
:103EB000BB2766277727CB0197F908950E94E91E53
:103EC00008F48FEF08950E94761F0C94241F0E941F
:103ED000161F38F00E941D1F20F0952311F00C943E
:103EE0000D1F0C94131F11240C94581F0E94351F92
:103EF00070F3959FC1F3950F50E0551F629FF0013D
:103F0000729FBB27F00DB11D639FAA27F00DB11D55
:103F1000AA1F649F6627B00DA11D661F829F2227DE
:103F2000B00DA11D621F739FB00DA11D621F839F65
:103F3000A00D611D221F749F3327A00D611D231F3B
:103F4000849F600D211D822F762F6A2F11249F5789
:103F500050409AF0F1F088234AF0EE0FFF1FBB1F8C
:103F6000661F771F881F91505040A9F79E3F51054B
:103F700080F00C940D1F0C94581F5F3FE4F3983EA3
:103F8000D4F3869577956795B795F795E7959F5FF5
:103F9000C1F7FE2B880F911D9695879597F9089587
:103FA00081E090E0F8940C94F01F6817790768F4AA
:103FB000FB01DC01E40FF51FA40FB51F02C0029046
:103FC0000E9241505040D8F708950C94E71FFB0122
:103FD000DC0102C001900D9241505040D8F7089585
:043FE000F894FFCF83
:103FE400FFFFFFFF00E1000000000000000070047C
:103FF400200000000000DE064F03F00EDA01E206A6
:10400400F106F006DA019F07ED06EA06000000005B
:104014003C0AE207F00EEF01FC01D603F006DA01D8
:104024002302ED06EA0600000000DF065103F00E4D
:10403400DE019403F106F006DA015703ED06EA0601
:1040440000000000E1065503F00EDA015907F106FD
:10405400F006F00E0207ED06EA0600000000E00696
:104064005303F00E4202DE03F106F006F00E2302C3
:1040740025023E02000000003B0AE407F00E420263
:10408400DE03F106F006F00E160C25023E020000D7
:104094000000C00CE607DA01DA01F206F106F006C8
:1040A400DA01EE06ED06EA0600C180810000000098
:1040B4000000004D0D200DDB01F00E180D040DF570
:1040C4000C000000009F0183020903B501C0013107
:1040D400030D03506F77657220766F6C74616765AA
:1040E40020696E206D563A20000D0A00506F7373DC
:1040F40069626C792061204C4E4356206D65737360
:064104006167652E00005A
:00000001FF
