:100000000C943E030C9466030C9466030C946603F4
:100010000C9466030C9466030C9466030C946603BC
:100020000C9466030C9466030C94051C0C94861ABD
:100030000C9466030C9466030C9466030C9466039C
:100040000C94E4190C9466030C94541A0C942E1A14
:100050000C9466030C9466030C9466030C9466037C
:100060000C94C4180C9466030C9466030C946603F9
:100070000C9466030C9466030C9466030C9466035C
:100080000C9466030C9466030C9466030C9466034C
:100090000C9466030C9466030C9466030C9466033C
:1000A0000C9466030C9466030C9466030C9466032C
:1000B0000C9466032053746174653A2000204164F7
:1000C00064726573733A20005265706F7274696E62
:1000D0006720736C6F74200020746F203A0054689E
:1000E000726F776E207377697463683A2000537774
:1000F0006974636820526571756573743A200049AC
:10010000676E6F72696E6720526571756573742EC4
:100110000A004172744E7220696E76616C69642EB9
:100120000A00204C4E43562056616C75653A2000FB
:100130000A456570726F6D20616464726573733A0D
:100140002000456E746572206E6F746966794C4E3E
:10015000435672656164280050726F6772616D6DFD
:10016000696E672073746172746564004172746EA5
:100170007220496E76616C69642E0A0020536C6FA0
:100180007443563A2000536C6F743A2000456E74E5
:100190006572206E6F746966794C4E43567772694A
:1001A00074652800456E642050726F6772616D69D6
:1001B0006E67204D6F64652E0A0049676E6F726925
:1001C0006E6720526571756573742E0A0057726FE1
:1001D0006E67204D6F64756C652041646472657351
:1001E000732E0A0057726F6E67204172746E722E02
:1001F0000A006E6F746966794C4E435670726F6771
:1002000072616D6D696E6753746F7020004469731D
:10021000636F7665723A200053747261696768741F
:10022000206973206E6F773A2000417474616368AF
:10023000656420210A004D6F76696E6720746F2017
:1002400000456E6420706F736974696F6E2072650B
:100250006163686564002F007570646174652000D7
:100260000A0020506F77657220736C6F743A20001B
:1002700020466565646261636B20736C6F74203225
:100280003A200020466565646261636B20736C6F81
:100290007420313A20002053706565643A200020B4
:1002A000416464726573733A2000205475726E6FF6
:1002B00075743A20002053747261696768743A203B
:1002C00000504341393638352050696E3A200020BD
:1002D0006B656570207570646174696E673A2000A3
:1002E000206F6E2000207265706F7274696E6720D7
:1002F000696E76657273652000206F6E2000496E0E
:100300007075742070696E2000206368616E676587
:100310006420746F200053746174652070696E20CE
:100320000020466565646261636B20736C6F7420A6
:10033000323A200020466565646261636B20736C0D
:100340006F7420313A2000204475726174696F6EB9
:100350003A200020416464726573733A200020548F
:1003600075726E6F75742050696E3A200053747206
:1003700061696768742050696E3A20005374726135
:1003800069676874005468726F776E002C2073740C
:10039000617465203D2000456E657267697A652C41
:1003A00020646972203D20004465656E657267694E
:1003B0007A65004D61676E65742073776974636850
:1003C0002064657374727563746F720020506F7768
:1003D000657220736C6F743A200020466565646214
:1003E00061636B20736C6F7420323A200020466585
:1003F00065646261636B20736C6F7420313A200016
:100400002053706565643A2000204164647265730E
:10041000733A2000205475726E6F75743A20002074
:1004200053747261696768743A2000417264756937
:100430006E6F2050696E3A2000537472616967686C
:1004400074005468726F776E0044657374727563DC
:10045000746F72210020666F7263655F6F6E3A2061
:10046000004F75747075742070696E20004163636D
:100470003A200020746F2073746174653A20004F35
:1004800075747075742070696E20005472696767A6
:100490006572696E6720736C6F7473004475616C6C
:1004A00020616374696F6E20736C6F742C206164BB
:1004B00064726573732C200043757272656E7420CC
:1004C0005F73756261646472657373004D756C74FB
:1004D00069506F7274204020626173656164647258
:1004E00065737320002C200053657474696E672057
:1004F00070696E4D6F646573206F663A20005069B5
:100500006E202300536B697070696E672070696E8E
:10051000203400506F77657220766F6C7461676568
:1005200020696E206D563A20002E005549443A202D
:10053000004E6F206473313873323020666F756EF1
:100540006420666F722055494400202F20004D61C1
:10055000782023206F662070696E733A20004D6FFB
:1005600064756C6520616464726573733A2000552C
:100570006E6976657273616C206465636F64657221
:1005800020760020504B543A200020616374697635
:10059000652070696E73206C65667420696E2074C6
:1005A000686520717565756500456E64204C6F6FD8
:1005B000700A004C6F6F7020003A20005772697407
:1005C0006520435620002061637469766520706958
:1005D0006E73206C65667420696E20746865207186
:1005E0007565756500446F6E65207570646174692A
:1005F0006E6720005570646174696E672070696E63
:10060000200000000000240027002A002D00000028
:100610000000250028002B002E000A0D0E09000303
:1006200002000004050800000000000000000000B7
:100630000000000000000000002300260029002C1C
:10064000000404040404040404020202020202037B
:100650000303030303020203050505050102040861
:10066000102040800102040810200102040810201C
:100670004080400102040800591C371C11241FBE91
:10068000CFEFD8E0DEBFCDBF12E0A0E0B1E0E6E3FF
:10069000F4E502C005900D92A637B107D9F724E022
:1006A000A6E7B2E001C01D92A73CB207E1F713E054
:1006B000CDE3D3E004C02197FE010E94DA28CC33B9
:1006C000D107C9F70E94371D0C940E2A0C94000024
:1006D000880F8093BA0008959B01AC0160E074E23A
:1006E00084EF90E00E94B828205131094109510956
:1006F00056954795379527952093B80008958823F8
:1007000021F085EC8093BC00089585E8FBCF85ED52
:100710008093BC008091BC0084FDFCCF1092040348
:10072000089585EC8093BC00109204030895CF9344
:10073000DF93FC0129E18EE241E050E033E071E01B
:10074000908190769036D1F4918190934003A0915E
:100750004003A15010923F039FEF60913F036A173F
:1007600090F4C0913F03CE0FDF2FD11D68819627F3
:1007700060913F036F5F60933F03EFCF908192954D
:1007800096709E5FE2CFAE0FBF2FB11D9C93F89481
:1007900090913E03913059F490913D03981738F0B1
:1007A00010923E0390916F009D7F90936F0078941C
:1007B00090913E03913039F490913D03943108F4C7
:1007C000BFCF70E0BDCF90913E0391110EC0F89461
:1007D00090916F009F7D90936F00B59B09C09091A1
:1007E0006F00906290936F0078947111A9CF51C0FF
:1007F000A0913B03B0913C039C9160913A03EA01C4
:1008000002C0CC0FDD1F6A95E2F79C2B9C93609190
:100810008400709185006A5A7C4F7093390360930D
:1008200038036091380370913903709389006093A5
:1008300088007894F0933703E093360310923F03D7
:100840001092350390819093340330933E031092BD
:100850003D03B19A90916F00926090936F009091D8
:100860003E039330E1F390913503992381F0E091B9
:100870003203F0913303E757FF4F80819181019656
:100880009183808383E090E0DF91CF9108959091F0
:100890003E038B3108F08150215009F050CF8091F8
:1008A000CC039091CD0301969093CD038093CC031C
:1008B00086E090E0E9CFCF93DF93CDB7DEB76097C6
:1008C0000FB6F894DEBF0FBECDBFAC014150510949
:1008D000852F8F709A01369527952F7740FD14C08C
:1008E00080646111806192EB99832A838B83CE01AE
:1008F00001960E94970360960FB6F894DEBF0FBE74
:10090000CDBFDF91CF9108958066EBCFEF920F932B
:100910001F93CF93DF93FC0185EE80838FE081836B
:1009200085E08283613041F589E483838BE48483AD
:100930008FE185831682508747833287218714870A
:100940000387E586DF011796AF01425F5F4F91E0B5
:100950008D9187FF07C02681292B2683ED012197E2
:100960008F778883990FA417B50791F7DF91CF91FF
:100970001F910F91EF90089563831482D9CF209136
:10098000E002260F3327331F21323105ECF420918A
:100990000403FC0190E080E0243069F082E00895D7
:1009A000A091E0022191AC0140545D4FA40FB52FFE
:1009B000B11D2C930196861798F38091E002680F81
:1009C0006093E00280E0089581E008950F93413242
:1009D00008F04BC0909104039111FCCF92E09093EA
:1009E0000403009306039FEF9093030310922803E0
:1009F00040932703362FA7E0B3E0FB019E2F931B04
:100A0000941770F11092290390912903880F892B74
:100A10008093290380910503813029F51092050305
:100A2000809129038093BB008091BC0083FDF8CFA7
:100A300085EC8093BC00222321F080910403823056
:100A4000D1F3809103038F3F91F0809103038032B3
:100A500081F080910303803371F084E00F91089559
:100A600091919D93CBCF85EEE4CF81E0F7CF80E0ED
:100A7000F5CF82E0F3CF83E0F1CF413208F043C0FD
:100A8000909104039111FCCF91E090930403209383
:100A900006032FEF2093030310922803240F2093C3
:100AA00027039093290390912903880F892B809322
:100AB000290380910503813009F510920503809187
:100AC00029038093BB008091BC0083FDF8CF85ECA7
:100AD0008093BC00809104038130E1F3809128036E
:100AE000841710F440912803A7E0B3E0962FFB0190
:100AF0008E2F891B841720F0842F089585EEE8CF70
:100B00008D918193F5CF40E0F7CFE091AB04F09168
:100B1000AC04309729F01092A8041092A90409940B
:100B20000895DC018091AD049091AE04892B19F1F8
:100B30009091A3048091A4049817E8F090E0292FE5
:100B400030E0261737076CF4FD01E20FF31F4081F8
:100B5000E091A104F091A204E20FF31F40839F5F94
:100B6000EECF1092A3046093A404E091AD04F09141
:100B7000AE04CB01099408950895DC015096EC91E0
:100B8000509751968C915197E81748F41E968D9185
:100B90009C91E80FF92FF11D808190E008958FEF6F
:100BA0009FEF0895FC01908981892FEF3FEF9817FF
:100BB00040F4A685B785A90FB11D2C9130E09F5F49
:100BC000908BC9010895FC0181899089891B990B3B
:100BD0000895CF92DF92EF92FF920F931F93CF93DE
:100BE000DF938C01CB017A01D80157962C9157974E
:100BF000222389F0EB016B01C40ED51ECC15DD0557
:100C000079F06991D801ED91FC910190F081E02D8E
:100C1000C8010995F3CF9896ED91FC91642F099541
:100C2000C701DF91CF911F910F91FF90EF90DF905F
:100C3000CF900895CF93DF931F92CDB7DEB7FC011D
:100C4000698387898823F9F0268984859585281703
:100C5000190654F081E090E09383828390E080E075
:100C60000F90DF91CF9108958981A58923893489D7
:100C7000A20FB32FB11D8C9385898F5F858B868BD7
:100C800081E090E0EDCF00A4F1A5E02D61E0CE0180
:100C900001960995F5CF0F93CF93DF93EC016B8904
:100CA0007C89EEA1FFA101E021E04E898A890995A6
:100CB0001D8A1E8A1F8ADF91CF910F9108951F937D
:100CC000CF93DF93162FCFE7D4E0A981BA81988123
:100CD00021E057962C93579752969C93529755968E
:100CE0001C92559756961C925697ED91FC91119730
:100CF0000190F081E02D682FCD01099589819A81BD
:100D0000DC01ED91FC910190F081E02D612F0995BE
:100D100089819A81DF91CF911F910C944B0682506B
:100D20008D3008F03EC0E82FF0E0E756F94F0C9404
:100D3000DA28CE06D206A606AC06D106D106B00643
:100D4000B606BA06C006D106C406CA06809180005F
:100D50008F77809380000895809180008F7DF9CFF8
:100D60008091B0008F778093B00008958091B0009B
:100D70008F7DF9CF809190008F77809390000895B8
:100D8000809190008F7DF9CF8091A0008F77809324
:100D9000A00008958091A0008F7DF9CF84B58F7752
:100DA00084BD089584B58F7DFBCF1F93CF93DF93D0
:100DB000282F30E0F901E65EF94F8491F901E45AF9
:100DC000F94FD491F901EF5BF94FC491CC23A9F00D
:100DD000162F81110E948F06EC2FF0E0EE0FFF1FFF
:100DE000E25FF94FA591B4918FB7F894EC9111118E
:100DF00008C0D095DE23DC938FBFDF91CF911F9188
:100E00000895DE2BF8CF1092040381E0809306034F
:100E10001092050361E082E10E94D50661E083E162
:100E20000E94D506E9EBF0E080818E7F808380818F
:100E30008D7F808388E48093B80085E48093BC0034
:100E40000895ECEBF0E080818A7B808360E082E1B2
:100E50000E94D50660E083E10C94D506CF93DF9322
:100E600090E0FC01E45AF94F24918F5B994FFC010B
:100E700084918823C9F090E0880F991FFC01EE5FF0
:100E8000F94FA591B491FC01E25FF94FC591D4915E
:100E900061110DC09FB7F8948C91209582238C939B
:100EA0008881282328839FBFDF91CF9108956230E6
:100EB00051F49FB7F8943C91822F809583238C93B3
:100EC000E8812E2BEFCF8FB7F894EC912E2B2C933B
:100ED0008FBFEACF880F991F880F991F0597019739
:100EE000F1F708950F931F93CF93DF93109171043F
:100EF000C0917204D0917304F8948981812B898305
:100F00008A81012F009580238A8383E090E00E94EC
:100F10006A078981802389838AE090E00E946A07BA
:100F2000C881789485E390E00E946A071C2381E0E1
:100F300009F480E0DF91CF911F910F9108951F93E5
:100F4000CF93DF9310917104C0917204D091730418
:100F5000912F909580FF16C0F8948A8189238A8307
:100F60008981812B89838AE090E00E946A078A81C7
:100F7000182B1A83789487E390E0DF91CF911F912B
:100F80000C946A07F8948A8189238A838981812B4A
:100F9000898381E490E00E946A078A81182B1A8372
:100FA000789485E090E0E9CFFF920F931F93CF9361
:100FB000DF93F82E062FC8E0D0E011E081E09F2DEE
:100FC000912309F480E00E949F07110F2197B1F748
:100FD000011113C0F894E0917204F09173049181AF
:100FE00080917104809598239183E0917204F0912F
:100FF00073049281892382837894DF91CF911F912A
:101000000F91FF900895CF93DF9360E085E50E94F4
:10101000D407CAE2D3E060E089910E94D40783E05C
:10102000C233D807C1F7DF91CF910895FF920F9394
:101030001F93CF93DF9310917104C0917204D091EC
:101040007304F8948981012F009580238983789413
:101050008DE7F82EFA94FF2061F182E090E00E9483
:101060006A0788818123B1F3F8948A8180238A8377
:101070008981812B8983789480EE91E00E946A07B0
:10108000F89489818023898386E490E00E946A072E
:1010900088811823C1E009F0C0E078948AE991E0E2
:1010A0000E946A078C2FDF91CF911F910F91FF90C3
:1010B0000895C0E0F7CF3FB7F8948091BC029091BB
:1010C000BD02A091BE02B091BF0226B5A89B05C08B
:1010D0002F3F19F00196A11DB11D3FBFBA2FA92FB7
:1010E000982F8827BC01CD01620F711D811D911DB4
:1010F00042E0660F771F881F991F4A95D1F7089520
:101100008F929F92AF92BF92CF92DF92EF92FF9217
:101110004B015C010E945B086B017C010E945B0833
:101120006C197D098E099F09683E73408105910500
:10113000A8F321E0821A9108A108B10888EEC80E30
:1011400083E0D81EE11CF11C81149104A104B104B8
:1011500029F7FF90EF90DF90CF90BF90AF909F90D6
:101160008F9008952FB7F8946091B8027091B902EA
:101170008091BA029091BB022FBF0895AF92BF92A7
:10118000CF92DF92EF92FF920F931F93CF93DF9353
:101190006C017B018B01040F151FEB015E01AE1882
:1011A000BF08C017D10759F06991D601ED91FC91A4
:1011B0000190F081E02DC6010995892B79F7C501D1
:1011C000DF91CF911F910F91FF90EF90DF90CF9023
:1011D000BF90AF90089590E080E00895FC01538D9A
:1011E000448D252F30E0842F90E0821B930B541701
:1011F00010F0CF96089501970895FC01918D828D8E
:10120000981761F0A28DAE0FBF2FB11D5D968C9126
:10121000928D9F5F9F73928F90E008958FEF9FEF65
:101220000895FC01918D828D981731F0828DE80F21
:10123000F11D858D90E008958FEF9FEF08950F9336
:101240001F930E94B2086093DC037093DD038093C8
:10125000DE039093DF0384ED93E00E94110997FF72
:101260001DC00E94B2080091DC031091DD032091A3
:10127000DE033091DF03601B710B820B930B009137
:10128000D8031091D9032091DA033091DB03601762
:10129000710782079307F8F28FEF9FEF1F910F916D
:1012A0000895CF92DF92EF92FF92CF930E941F0991
:1012B000FC0197FD4EC08D32910521F0C0970A9731
:1012C00008F040C0C12CD12C7601C0E0E130F1051E
:1012D000D1F0ED32F105D9F1CF01C0970A9798F41A
:1012E000AAE0B0E0A70196010E948A286F01FF0FD3
:1012F000EE08FF08C60ED71EE81EF91E80E3C81AC6
:10130000D108E108F10884ED93E00E94FD080E94F5
:101310001F09FC01C0970A97C8F2E130F105B1F24C
:10132000CC2341F0F094E094D094C094C11CD11C23
:10133000E11CF11CC701B601CF91FF90EF90DF9047
:10134000CF90089584ED93E00E94FD08AFCFC1E0F7
:10135000DACFC12CD12C7601EDCFFC01918D228DFD
:10136000892F90E0805C9F4F821B91098F73992792
:10137000089584ED93E00E94AD0921E0892B09F4E2
:1013800020E0822F0895FC01A48DA80FB92FB11D74
:10139000A35ABF4F2C91848D90E001968F739927AB
:1013A000848FA689B7892C93A089B1898C91806498
:1013B0008C93938D848D981306C00288F389E02D59
:1013C00080818F7D80830895EF92FF920F931F930A
:1013D000CF93DF93EC0181E0888F9B8D8C8D9813E8
:1013E00016C0E889F989808185FF11C0EE89FF89DF
:1013F0006083E889F98980818064808381E090E05E
:10140000DF91CF911F910F91FF90EF900895F62EED
:101410000B8D10E00F5F1F4F0F731127E02E8C8D87
:101420008E110CC00FB607FCFACFE889F9898081CC
:1014300085FFF5CFCE010E94C309F1CFEB8DEC0FF4
:10144000FD2FF11DE35AFF4FF0820B8FEA89FB89D4
:1014500080818062D2CF0F931F93CF93DF938C0153
:10146000D0E0C0E0F801EC0FFD1F6491662341F06D
:1014700084ED93E00E94E409892B11F02196F2CFCC
:10148000CE01DF91CF911F910F910895CF93DF93FC
:10149000EC01888D8823B9F0AA89BB89E889F9898C
:1014A0008C9185FD03C0808186FD0DC00FB607FCC1
:1014B000F7CF8C9185FFF2CF808185FFEDCFCE01F4
:1014C0000E94C309E9CFDF91CF91089580E090E0B9
:1014D000892B29F00E94B90981110E94000080E047
:1014E00090E0892B49F080E090E0892B29F00E9460
:1014F000000081110C94000008958032910510F4D1
:1015000001970895880F991F819708950895089568
:1015100008950895FC01878190E00895FC012381DE
:1015200034816217730750F0A901485F5F4F641759
:10153000750720F4621B608781E0089580E00895BC
:1015400061E0DC011F962D913C91232B09F060E0B6
:10155000DC01ED91FC910284F385E02D41E00994DA
:10156000DC0116966C91169721E06227ED91FC91B3
:101570000284F385E02D41E0099480E008952AE794
:1015800031E0FC013183208389E494E00C942B0A40
:10159000FC0181E06115710509F480E0818B672B06
:1015A00069F086819781958B848B84899589938B4B
:1015B000828B178A168A128E118E089580859185E6
:1015C000F2CFFC01818990E00895FC018189882394
:1015D00021F089E394E00C942B0A82E494E0FBCFA1
:1015E000DC0151966C91519721E06227ED91FC91BD
:1015F0000284F385E02D40E00994DC01623071053E
:10160000C1F038F46115710559F06130710559F078
:10161000089563307105E9F06430710549F108956A
:1016200012964C93089513964C93139714965C93CB
:10163000089518964C93189719965C931997ED9105
:10164000FC9111970284F385E02D40E060E0CD012C
:10165000099416964C93169717965C931797ED91ED
:10166000FC9111970284F385E02D40E061E0EFCF1B
:101670001A964C931A971B965C93089522E431E0D6
:10168000FC013183208383EB93E00C942B0AFC0153
:101690008289882321F08CE793E00C942B0A85E85B
:1016A00093E0FBCFFC01662319F091E09427978328
:1016B0004683089526E931E0FC01318320830C94B0
:1016C000BF0ADC01ED91FC910190F081E02D0994BD
:1016D0000F931F93CF93DF938B01EC0169817A8184
:1016E0006115710551F0CE01F8010995181619061A
:1016F00024F00980DA81C02DF1CFCE01DF91CF91A6
:101700001F910F9108954F925F926F927F928F92E7
:101710009F92AF92BF92CF92DF92EF92FF920F9380
:101720001F93CF93DF93FC01228133812230310557
:10173000F4F05B016C012C01F4E04F0E511C7201BE
:10174000F701C081D1812097D1F3B501CE010E946C
:10175000680B4C01FC010181128101151105C1F4D6
:10176000E414F50461F7F601978386831486DF910C
:10177000CF911F910F91FF90EF90DF90CF90BF908E
:10178000AF909F908F907F906F905F904F90089553
:10179000B501C8010E94680BFC0161807280F401F0
:1017A00012821182FC0112821182B801CE01F50170
:1017B0000995F701181619066CF0D183C0837E01D4
:1017C000FFEFEF1AFF0A89819A81009781F41A834B
:1017D00009831CC0118300837801FFEFEF1AFF0A11
:1017E000F801818192810097D1F08C01CE01EC014A
:1017F000DCCFEC0189819A810097D9F77A826982DE
:101800007E01FFEFEF1AFF0A9BCF8C01F801818167
:1018100092810097D1F7728261827801F2CFD283F0
:10182000C183E8CFCF93DF93EC01E881F981019088
:10183000F081E02DCE0109951816190644F4E881CF
:10184000F9810684F785E02DCE010995EECFDF9171
:10185000CF910895DC011496ED91FC9115971C969B
:101860008C911C978823B1F01A962D913C911B976F
:10187000621773077CF01896ED91FC911997261763
:1018800037075CF43097C1F00180F281E02D2F5FC3
:101890003F4FF5CF30E020E0F2CF2617370771F445
:1018A00081E01C968C931C971B963C932E931A9761
:1018B0001996FC93EE931897CF010895F0E0E0E0BD
:1018C000FBCFCF9377FD0EC0FC01228133816217DD
:1018D000730744F4C42F0E942A0CFC01C08381E0EA
:1018E000CF91089580E0FCCF0E942A0C009719F058
:1018F000FC018081089580E00895FC01828193813C
:1019000008950097B1F0209180022817190689F0F8
:1019100080F0880F991FFC01EC57FD4F8081918169
:101920006170DC01ED91FC910284F385E02D40E0D3
:10193000099408950F931F93CF93DF93EC010E94B6
:10194000B2080C851D852E853F85601B710B820BAF
:10195000930B693C71058105910570F08B85882397
:1019600059F089859F8170E060E0890F9927991F60
:101970000E94810C1F821B868B85DF91CF911F9166
:101980000F9108951F93CF93DF93EC01162F0E94C0
:10199000B2086C877D878E879F8781E08B871F8346
:1019A000898561E070E0212F280F3327331FC9019B
:1019B000DF91CF911F910C94810CCF93DF93EC01B9
:1019C0002885263039F461111AC041111F82DF9138
:1019D000CF9108956623D9F38FEF9FEFDC018C87B9
:1019E0009D87AE87BF8781E090E0AC0102C0440FC5
:1019F000551F2A95E2F78F81842B8F83E8CF4423EC
:101A000031F32F818985820F9927991F3D813817DE
:101A10001906E1F28A852817C8F60E94B2086C8779
:101A20007D878E879F8781E08B8789859F8161E095
:101A300070E0890F9927991FDF91CF910C94810C49
:101A40000F931F93CF93DF93FC0127853089232BBE
:101A500059F1EC010E94B2080B851C852D853E854D
:101A6000AB01BC01401B510B620B730B89859A853E
:101A7000B0E0A0E084179507A607B70778F48A8935
:101A8000882371F08F859889019751F4888561E0EA
:101A900070E090E00E94810C188A1F8681E005C0EA
:101AA0008F8170E060E0F5CF80E0DF91CF911F91F2
:101AB0000F9108950F931F93CF93DF93EC019989B2
:101AC0009617F9F02F853889232BD9F481E09617E2
:101AD00008F080E0042F162F8A8B9617B8F481E067
:101AE00090E0988B8F878F8161E070E090E00E949A
:101AF000810C0111198B0E94B2086B877C878D873E
:101B00009E87DF91CF911F910F91089581E090E022
:101B1000988B8F87888570E060E0E8CF82E48093BF
:101B20007C0080917A00806480937A0080917A00B2
:101B300086FDFCCF8091780060917900762F682F28
:101B400090E080E00E943A272AE137E64CE950E431
:101B50000E949B2720E030E040E551E40E949B2753
:101B60000E94BF29CB010895CF93DF9300D0CDB75A
:101B7000DEB72091C3043091C4042115310511F45E
:101B800027EC34E0CE010196821B930B0F900F904F
:101B9000DF91CF91089590E080E00895089580E06E
:101BA0000895089508950895089521E0FC01838122
:101BB00094818617970709F020E0822F08950895F1
:101BC0000C94AC260C94AC260C94AC260C94AC264D
:101BD000CF93DF93EC010E94BF0ACE01DF91CF913A
:101BE0000C94AC26CF93DF93EC010E943E0BCE0108
:101BF000DF91CF910C94AC26CF93DF93EC010E9440
:101C00005A0BCE01DF91CF910C94AC26EF92FF924C
:101C10001F93CF93DF93FC016281738110E016164E
:101C20001706DCF4EC01148661307105E9F06250AE
:101C300071090E942A0C7C01FC0181819281FC01C6
:101C400010810E94AC26F70112821182FF82EE827F
:101C50008A819B8101979B838A83812FDF91CF911A
:101C60001F91FF90EF90089584819581FC01108170
:101C70000E94AC261D821C821F821E821B821A8239
:101C8000ECCFEF92FF921F93CF93DF93DC0112967C
:101C90002D913C9113971216130634F5213031051E
:101CA000C1F0EC018C819D81FC01E180F28010810A
:101CB0000E94AC26FD82EC828A819B8101979B83E6
:101CC0008A831C86812FDF91CF911F91FF90EF9027
:101CD0000895ED91FC910484F585E02DDF91CF917D
:101CE0001F91FF90EF90099410E0ECCF1F93CF93DA
:101CF000DF9377FD3EC0DC0112962D913C91139746
:101D000062177307B4F56115710549F4ED91FC9103
:101D10000684F785E02DDF91CF911F910994215022
:101D200031092617370731F4ED91FC910484F585CC
:101D3000E02DF1CFEC01615071090E942A0CDC0109
:101D40001196ED91FC9112971081218132811296AA
:101D50003C932E931197CF010E94AC268A819B81E0
:101D600001979B838A831C86812FDF91CF911F91DE
:101D7000089510E0F9CF0C94AC268F929F92AF9209
:101D8000BF92CF92DF92EF92FF92CF93DF936B01DE
:101D90007C0120E030E040E85FE30E94352787FDCA
:101DA000BCC020E030EC4AE555E4C701B6010E9412
:101DB000EE2918163CF4C12C30ECD32E3AE5E32E74
:101DC00035E4F32E60918204709183048091840441
:101DD000909185040E943A274B015C0120E030E09D
:101DE00040E855E4C701B6010E949B279B01AC0166
:101DF000C501B4010E944D2920E030E040E05FE3DE
:101E00000E94E12820E030E040E85FE30E94E02803
:101E10006B017C0120E030E040E450E40E94352773
:101E200087FD82C020E030E04FE753E4C701B601F0
:101E30000E94EE29181634F4C12CD12C9FE7E92E0C
:101E400093E4F92EC701B6010E94BF29F62EA09196
:101E50008004B091810480917F0491E057969C9317
:101E6000579752968C93529755961C925597569623
:101E70001C925697ED91FC9111970190F081E02D05
:101E800060E0CD01099580918004909181040E94C9
:101E90004B06C0918004D091810480917F044C85D1
:101EA0005D851416150614F441E050E06E857F85BB
:101EB000ECA1FDA121E00995188A898B809180040D
:101EC00090918104DC01ED91FC910284F385E02D79
:101ED0000995C82F682F6F76606180E00E945F06C9
:101EE0006F2D8EEF0E945F066C2F80E00E945F06D0
:101EF00065E070E080E090E00E9480086C2F606AEE
:101F000080E0DF91CF91FF90EF90DF90CF90BF9076
:101F1000AF909F908F900C945F06C12CD12C20E83D
:101F2000E22E2FE3F22E4ECFC12CD12C80E4E82EEE
:101F3000FE2C88CFFF920F931F93CF93DF93DC018A
:101F400012960D911C9113970115110559F4ED91FD
:101F5000FC910480F581E02DDF91CF911F910F91CD
:101F6000FF900994F62EEC0183E090E00E94102689
:101F70002C813D81FC0132832183F0829D838C83FF
:101F80000F5F1F4F1B830A831C8681E0DF91CF9177
:101F90001F910F91FF900895DF92EF92FF920F93A0
:101FA0001F93CF93DF93EB01642FDC0112964D91C9
:101FB0005C911397C417D5076CF0ED91FC910480E8
:101FC000F581E02DDF91CF911F910F91FF90EF9060
:101FD000DF900994209731F4ED91FC910680F78110
:101FE000E02DF0CFD62E8C0183E090E00E941026E9
:101FF0007C01FC01108212821182BE0161507109C4
:10200000C8010E942A0CD701DC92FC012181328197
:1020100012963C932E931197F282E182D801129688
:102020008D919C911397019613969C938E93129782
:102030001C961C9281E0DF91CF911F910F91FF9030
:10204000EF90DF9008951F93CF93DF93EC01162F4D
:1020500083E090E00E941026FC011282118210831E
:102060002C813D81232B89F0EE81FF819283818336
:102070009F838E838A819B8101969B838A831C86A2
:1020800081E0DF91CF911F9108959D838C83F0CFE4
:10209000FC0101900020E9F73197AF01481B590B73
:1020A000BC0184ED93E00C94BE088F929F92AF9296
:1020B000BF920F931F93CF93DF93CDB7DEB7A19756
:1020C0000FB6F894DEBF0FBECDBF19A2423008F4A0
:1020D0004AE08E010F5D1F4F842E912CB12CA12C54
:1020E000A50194010E94B828E62FB901CA01EA307F
:1020F000F4F4E05DD801EE938D01232B242B252BE6
:1021000079F790E080E0109719F0CD010E94481017
:10211000A1960FB6F894DEBF0FBECDBFDF91CF9171
:102120001F910F91BF90AF909F908F900895E95CA1
:10213000E1CF462F682F70E090E080E00C945510BE
:10214000BC0190E080E04AE00C945510CF93DF93FF
:10215000EC018DE693E00E942B0A6AE070E08A8130
:102160000E9499108EE593E00E942B0A8E819F8138
:102170000E94A01083E593E00E942B0A8B819C8132
:102180000E94A01087E493E00E942B0A888599851D
:102190000E94A01084E393E00E942B0A8A859B850D
:1021A0000E94A01081E293E00E942B0A8C859D85FD
:1021B000DF91CF910C94A010CF93DF93EC0181ECD1
:1021C00092E00E942B0A6AE070E08A810E949910D6
:1021D00085EB92E00E942B0A888599850E94A010C9
:1021E0008AEA92E00E942B0A8E819F810E94A010B1
:1021F0008FE992E00E942B0A8B819C810E94A010A3
:1022000086E992E00E942B0A8A859B850E94A01095
:1022100083E892E00E942B0A8D859E850E94A01083
:1022200080E792E00E942B0A8F8598890E94A01077
:1022300082E692E00E942B0A6AE070E08C850E94A0
:10224000991080E692E0DF91CF910C942B0ACF9207
:10225000DF92EF92FF92CF93DF936C01990FEE081C
:10226000FF08F7FE19C06DE284ED93E00E94E409D7
:10227000EC0166277727CB016C197D098E099F0930
:102280004AE00E9455108C0F9D1FDF91CF91FF9067
:10229000EF90DF90CF9008954AE0C701B601DF913B
:1022A000CF91FF90EF90DF90CF900C9455101F933B
:1022B000CF93DF93EC01142F9F81992359F08985E7
:1022C0004423E9F08F5F89878985192F181614F048
:1022D000198610E08DE694E00E942B0A8985082E6D
:1022E000000C990B0E942711E881F9810484F5857F
:1022F000E02D612FCE01DF91CF911F910994815084
:10230000E2CF0F931F93CF93DF93EC012A81222317
:1023100009F130E0F901E65EF94F8491F901E45AE0
:10232000F94F0491F901EF5BF94F1491112379F002
:1023300081110E948F06E12FF0E0EE0FFF1FEB5C92
:10234000F94FA591B491EC910E2381E009F480E05E
:1023500081708E836E818F81681709F18B819C81DA
:102360000E945B048A85882339F06E8181E06827AA
:10237000888599850E945B0486E193E00E942B0A80
:102380006AE070E08A810E94991089E093E00E94DF
:102390002B0A8E8190E00E9427118E818F838B857E
:1023A000DF91CF911F910F910895CF93DF936AE052
:1023B00070E00E949910EC0184E292E00E944810C3
:1023C0008C0F9D1FDF91CF910895CF93DF93EC0188
:1023D0008BE294E00E942B0A6AE070E08A810E94FE
:1023E00099108FE194E00E942B0A888599850E94BC
:1023F000A01084E194E00E942B0A8E819F810E94AC
:10240000A01089E094E00E942B0A8B819C810E949D
:10241000A01080E094E00E942B0A8A859B850E9490
:10242000A0108DEE93E00E942B0A8D859E850E9460
:10243000A0108AED93E00E942B0A8F8598890E9454
:10244000A0108CEC93E00E942B0A8C85DF91CF9139
:102450000C94D511CF93DF930E94A010EC0184E27D
:1024600092E00E9448108C0F9D1FDF91CF9108953C
:10247000CF93DF93EC018CEC94E00E942B0A8B81CC
:102480009C810E942A1288EB94E00E942B0A888586
:10249000DF91CF910C94D511CF93DF93EC01623093
:1024A0007105C1F048F46115710579F0613071056D
:1024B00071F0DF91CF9108956330710569F1643057
:1024C0007105B9F75B874A87F4CF4A83F2CF5C8303
:1024D0004B83EFCFBA0190E080E00E943A272FE3D0
:1024E00035E342E850E40E944D290E94BF297987D4
:1024F000688788E192E00E942B0A888599850E946E
:102500002A12E881F9810284F385E02D40E060E041
:10251000CE01DF91CF910994BA0190E080E00E9452
:102520003A272FE335E342E850E40E944D290E9408
:10253000BF297F836E83E881F9810284F385E02DD2
:1025400040E061E0E5CFEF92FF920F931F93CF93AE
:10255000DF938C01F62EE72E88EC90E00E942B0A88
:10256000C8010E94A0108DEB90E00E942B0AE801A8
:10257000CC0FDD1FCC57DD4FE881F9818381948139
:102580000E94A01084EB90E00E942B0A8F2D9E2DBC
:102590000E942A12012B69F0E881F9816F2D838155
:1025A0009481DF91CF911F910F91FF90EF900C9448
:1025B0005B04DF91CF911F910F91FF90EF900895F1
:1025C000CF93DF93EC018D859E85298D3A8D70E048
:1025D00060E02130310529F0298921110CC061E02A
:1025E00070E00E94A31270E060E08F859889DF910F
:1025F000CF910C94A31270E060E00E94A31261E0FE
:1026000070E0F3CF1F93CF93DF93EC01162F662377
:1026100021F18E819F819D8B8C8B8A859B854C8936
:102620005D892A893B894217530718F49195819552
:1026300091099F8B8E8B8C8561E070E090E00E9409
:10264000810CCE010E94E012198B81E090E09A8FFC
:10265000898FDF91CF911F91089588859985DBCF70
:10266000CF92DF92EF92FF920F931F93CF93DF935E
:10267000FC01218D328D2230310551F480E0DF9153
:10268000CF911F910F91FF90EF90DF90CF90089521
:10269000EC0188E592E00E942B0A8A899B890E94BE
:1026A000A01086E592E00E942B0A8C899D890E94E9
:1026B0002A122A893B898C899D89281B390B8E898E
:1026C0009F8997FF03C09195819591092817390734
:1026D00090F481E492E00E942B0A82E090E09A8FCD
:1026E000898F8C8570E060E090E00E94810CCE01C3
:1026F0000E94E012C3CF888D8F5F888FC98CDA8CDF
:10270000F1E0CF16D10409F061C086E392E00E94A7
:102710002B0AEA88FB888E899F89E80EF91EFB8ABE
:10272000EA8A0B8D1C8D6A81F801A181B2818081BA
:1027300091E057969C93579752968C935297559643
:102740001C92559756961C925697F4E06F9FB001D5
:1027500011246A5F7F4FED91FC9111970190F081F8
:10276000E02DCD01099570E060E0F8018181928152
:102770000E94610B70E060E0F801818192810E940B
:10278000610BB701F801818192810E94610B6F2D6D
:1027900070E0F801818192810E94610BF8018181D2
:1027A00092810E944B068A899B890E942A128E89F7
:1027B0009F89892B49F42C893D898A899B8928170F
:1027C000390711F4DF8ACE8A81E059CFCD2809F08C
:1027D00055CF8B3F08F452CF8AE292E00E942B0A39
:1027E00081E090E09A8F898F4ACF0C944810CF9364
:1027F000DF93EC018CE994E00E942B0A8B819C8191
:102800000E942A128BE894E00E942B0A6AE070E092
:102810008F810E94991088E292E00E94F5138885CA
:10282000DF91CF910C94D511CF93DF930E94481084
:10283000EC0184E292E00E9448108C0F9D1FDF9112
:10284000CF910895CF93DF930E942711EC0184E28A
:1028500092E00E9448108C0F9D1FDF91CF91089548
:102860001F93CF93DF93EC01162F88858111182FCA
:102870008FE794E00E942B0A6AE070E08A810E9450
:10288000991083E794E00E942B0A812F90E00E9428
:102890002214612F8A81DF91CF911F910C94D5066C
:1028A000CF93DF93EC0181E694E00E942B0A6AE06B
:1028B00070E08A810E94991085E594E00E942B0ABD
:1028C000888590E0DF91CF910C9422140F931F9391
:1028D000CF93DF93EC01062F142F8A859B852A89DD
:1028E00021112EC061E070E00E94A31270E060E050
:1028F0008C859D850E94A3120A8B0E94B2086E8768
:102900007F87888B998B87E993E00E942B0A802F21
:1029100090E00E9427118CE893E00E942B0A812FFF
:1029200090E00E942214612F002389F08A810E9486
:10293000D5068A81DF91CF911F910F910C94D5110B
:1029400070E060E00E94A31261E070E0D1CF8E8160
:102950000E94D5068E819F81DF91CF911F910F91AB
:102960000C942A12CF93DF93EC018EEF92E00E9439
:102970002B0A6AE070E08A810E94991089EF92E048
:102980000E942B0A8B819C810E94A01085EE92E010
:102990000E942B0A8A8590E00E94271180EE92E027
:1029A0000E942B0A888599850E94A0108FEC92E0E6
:1029B0000E942B0A8B8590E0DF91CF910C9422141A
:1029C000CF93DF930E942B0AEC0184E292E00E94F5
:1029D00048108C0F9D1FDF91CF9108950F931F9387
:1029E000CF93DF93EC0188859985892B09F44EC03C
:1029F0008E859F85A889B989892B8A2B8B2B09F411
:102A000045C00E94B2080E851F8528893989AB010F
:102A1000BC01401B510B620B730B88859985B0E09C
:102A2000A0E011E084179507A607B707F8F488EA35
:102A300093E00E94E0141E861F86188A198A60E0BF
:102A40008A810E94D50660E08E810E94D5061A898F
:102A50008A859B85111110C061E070E00E94A3126D
:102A600070E060E08C859D850E94A312812FDF912C
:102A7000CF911F910F91089570E060E00E94A31222
:102A800061E070E08C859D850E94A31210E0EECF7E
:102A90000F931F93CF93DF938C01EB018DE092E0B6
:102AA0000E942B0AF801808191810E94A01081E18F
:102AB00097E20E94271180E090E00E94592890E060
:102AC0009983888381E197E2F801918380838881EB
:102AD00099810E94A0108FE7DF91CF911F910F91F4
:102AE0000895EF92FF920F931F93CF93DF937C0192
:102AF0008B0180E090E00E945928C82FD0E0F701B8
:102B0000808191810E94A010F801808191810E94B2
:102B1000A010CE010E94A010F70180819181813127
:102B2000974201F5F801808191818C179D0779F416
:102B300081E08093810288E591E00E942B0A8FE773
:102B4000DF91CF911F910F91FF90EF900895019623
:102B500049F480E090E00E94592890E0F8019183C8
:102B60008083EDCF109281028FEFEACF0F931F93F6
:102B7000CF93DF938C01EB0182EF91E00E942B0A4F
:102B800080918102882311F101311742A1F480E084
:102B900090E00E9459288C171D06A9F4109281021A
:102BA00084EA91E00E942B0A0C940000DF91CF91FF
:102BB0001F910F91089584EE91E0DF91CF911F91C5
:102BC0000F910C942B0A8DEC91E0F7CF8AEB91E0FA
:102BD000F4CFCF93DF93EC010E947D0A80509040A8
:102BE000A09734F40E94592890E0DF91CF91089586
:102BF000DF91CF910C946128CF92DF92EF92FF92F8
:102C00000F931F93CF93DF937C018B01E90182E443
:102C100091E00E942B0AC7010E94A01087E292E077
:102C20000E94F513C8010E94A01087E292E00E9462
:102C3000F51387E292E00E94F513888199810E9442
:102C4000A0108AE292E00E94F5138091810288230D
:102C500009F41BC181E1E81687E2F80609F00FC10B
:102C600089E190E00530110509F462C00034E1E02B
:102C70001E0710F5C8010E94E9159983888380E337
:102C800091E00E942B0AC8010E947D0A805090406A
:102C90000E94A01082E291E00E942B0A8881998113
:102CA0000E942A128FE7DF91CF911F910F91FF9021
:102CB000EF90DF90CF9008950A3FF3E01F0709F0EF
:102CC00042C00E9416080E94030861E084E40E944A
:102CD000D40768EE73E080E090E00E9480080E94D4
:102CE00016080E94030860E08EEB0E94D40706E7F6
:102CF00012E068E0C62ED12CF12CEE24E3940E9461
:102D000072078111FE28EE0C81E0C81AD108B9F7CC
:102D1000F801F1928F01F2E00F371F0751F7809110
:102D200076029091770220917A02207621F4887FB2
:102D300099838883B7CF203211F48C7FF9CF203468
:102D4000B9F78E7FF5CF0B3F83E0180759F48091D8
:102D50002A0390E0982F88279983888320912B035A
:102D6000822BE6CF0C3FE3E01E0751F480912C0349
:102D700090E0982F88279983888320912D03F0CFA6
:102D80000D3FF3E01F0751F480912E0390E0982F40
:102D900088279983888320912F03E2CF0E3F83E019
:102DA000180751F48091300390E0982F8827998379
:102DB000888320913103D4CF8FE699E20F3FE3E07F
:102DC0001E0709F4B5CF0115F4E01F0719F40E949E
:102DD000B40DAECF013084E0180729F4809176025B
:102DE00090917702A5CF8091C7049091C8040230DA
:102DF000E4E01E0709F49CCF0330F4E01F0719F448
:102E00008DB79EB795CFC80184509440059748F57B
:102E1000063084E01807D9F068F48091C8039091D7
:102E2000C9030530144009F483CF8091C603909103
:102E3000C7037ECF073084E0180771F08091CE037E
:102E40009091CF030830144009F472CFEECF8091F7
:102E5000CA039091CB036CCF8091CC039091CD03AA
:102E600067CF0A30F4E01F0719F40E948E0D60CF7F
:102E70000B30144069F480917F0290E059CF82E1D9
:102E800091E00E942B0A8FEF0ECF8FEF90E0F9CFE9
:102E900081E009CF0F931F93CF93DF938C01EB0158
:102EA0000E947D0A805090406C2F0032110530F452
:102EB000DF91CF911F910F910C9467287D2FDF91A7
:102EC000CF911F910F910C947528BF92CF92DF92F2
:102ED000EF92FF920F931F93CF93DF932091810284
:102EE000222309F4A9C0E52EF42EEB018C018DE814
:102EF00091E00E942B0AC8010E94A01087E292E094
:102F00000E94F513CE010E94A01087E292E00E9479
:102F1000F51387E292E00E94F5138F2D9E2D0E94FB
:102F2000A0108AE292E00E94F5130131174209F0E5
:102F30007FC081E0C034A1E0DA0708F5CE010E942D
:102F40007D0A0E94A01081E0C032D10508F082E025
:102F50006AE070E00E9499106AE070E08F2D0E9494
:102F600099106F2D7E2DCE010E944A17CE010E942E
:102F7000E9150E94A010C032D10558F48FE7DF9107
:102F8000CF911F910F91FF90EF90DF90CF90BF9066
:102F90000895A097CE016AE070E00E94A428D62E82
:102FA000B72E85E292E00E94F51386E891E00E9438
:102FB0002B0A6AE070E08D2D0E9499108CE791E059
:102FC0000E942B0A0D2D1B2D2AE0209FC001219F5E
:102FD000900D1124C81BD90BCE010E94A01085E2D0
:102FE00092E00E94F51380918002D81638F6000F07
:102FF000111F0C571D4FF80180819181DC01ED916B
:10300000FC910684F785E02D4F2D5E2DBE010995BC
:10301000F80180819181DC01ED91FC910680F781BE
:10302000E02D09956D2D86E894E00E942310A6CF2F
:103030008CE691E00E942B0A8FEFA1CFAF92BF9256
:10304000CF92DF92EF92FF920F931F93CF93DF9374
:103050007C01062FD42E8EEE90E00E942B0AC70131
:103060000E94A0106AE384ED93E00E94E40984E3E7
:1030700092E0DD2011F08DE292E00E94F51382E4EF
:1030800092E00E94F5138EE392E0002311F08BE3AF
:1030900092E00E94141410E094E1C92E8091800205
:1030A000181708F066C0C12FD0E0CC0FDD1FCE018D
:1030B0008C579D4F5C01DC018D919C91DC01ED9161
:1030C000FC910480F581E02DB7010995882309F46E
:1030D0004EC0F5018081918141E0011101C040E0C5
:1030E00061E0D11001C060E0DC01ED91FC9102844F
:1030F000F385E02D0995612F86E894E00E94231066
:10310000CC57DD4F88819981DC01ED91FC910288DB
:10311000F389E02D099588819981DC01ED91FC917D
:103120000688F789E02D09951C9D90011124BC01AA
:10313000C901855D9F4F0E9475288EED90E00E9429
:103140002B0A6AE070E0812F0E94991088ED90E0D0
:103150000E942B0A88819981DC01ED91FC91008805
:10316000F189E02D099585E292E00E94F5131F5F39
:1031700095CFDF91CF911F910F91FF90EF90DF904E
:10318000CF90BF90AF9008951F920F920FB60F92FD
:1031900011242F933F934F935F936F937F938F935C
:1031A0009F93AF93BF93EF93FF938091B900887F74
:1031B000803609F44CC008F03FC0883209F4A8C03A
:1031C00018F5803109F49CC0B8F4882309F4F9C0DB
:1031D000883009F495C0FF91EF91BF91AF919F9115
:1031E0008F917F916F915F914F913F912F910F90B0
:1031F0000FBE0F901F901895883109F489C0803256
:1032000051F78093030315C0803409F49EC048F43D
:103210008033B9F38833F9F6809303030E94910356
:10322000DACF803509F485C0883509F496C0883432
:1032300091F60E948703CFCF883909F48CC038F506
:10324000883729F050F4883611F0803721F683E072
:10325000809304031092020357C0883809F47BC09E
:10326000803919F0803809F0B6CF8091020380329E
:1032700008F071C0E091020381E08E0F8093020399
:103280008091BB00F0E0EE51FD4F80833DC0803B5C
:1032900039F0E0F4803A09F479C0883A09F09BCF1C
:1032A00084E0809304031092E1021092E002E09126
:1032B000D203F091D30309958091E00281110FC0F0
:1032C00081E08093E0021092C00209C0803C09F4C2
:1032D00076C0883C09F473C0883B09F07CCFE0914C
:1032E000E10281E08E0F8093E102F0E0E054FD4FB7
:1032F00080818093BB009091E1028091E00229C01F
:10330000809129038093BB0085EC8093BC0063CF40
:103310009091280380912703981758F5E09128038E
:1033200081E08E0F80932803F0E0E95FFC4F8081FD
:10333000E9CFE091280381E08E0F809328038091EC
:10334000BB00F0E0E95FFC4F8083909128038091FF
:1033500027039817C8F285E8D8CFE091280381E0C9
:103360008E0F809328038091BB00F0E0E95FFC4F53
:1033700080838091060381115CCF81E080930503F7
:1033800084EA8093BC001092040325CF0E9491032D
:1033900080910203803230F4E0910203F0E0EE51BC
:1033A000FD4F10826091020370E0E091D003F09134
:1033B000D10382EE92E00995109202030CCF85ECC6
:1033C000E0CF1092030335CF1F920F920FB60F92EA
:1033D00011242F933F938F939F93AF93BF9380912B
:1033E000B8029091B902A091BA02B091BB0230919B
:1033F000B70223E0230F2D3768F126E8230F02964A
:10340000A11DB11D2093B7028093B8029093B90219
:10341000A093BA02B093BB028091BC029091BD020E
:10342000A091BE02B091BF020196A11DB11D809373
:10343000BC029093BD02A093BE02B093BF02BF91A5
:10344000AF919F918F913F912F910F900FBE0F9051
:103450001F9018950196A11DB11DD4CF1F920F92F8
:103460000FB60F9211242F933F934F935F936F9357
:103470007F938F939F93AF93BF93EF93FF9384EDCD
:1034800093E00E94C309FF91EF91BF91AF919F918B
:103490008F917F916F915F914F913F912F910F90FD
:1034A0000FBE0F901F9018951F920F920FB60F929C
:1034B00011242F938F939F93EF93FF93E091E40355
:1034C000F091E5038081E091EA03F091EB0382FD46
:1034D0001BC090818091ED038F5F8F732091EE036D
:1034E000821741F0E091ED03F0E0EC52FC4F958F34
:1034F0008093ED03FF91EF919F918F912F910F900A
:103500000FBE0F901F9018958081F4CF1F920F92DD
:103510000FB60F9211242F933F934F935F936F93A6
:103520008F939F93AF93BF93CF93DF93EF93FF93CB
:10353000809138039091390380549C4F90933903C4
:1035400080933803809138039091390390938900D8
:103550008093880080913D038F5F80933D0380912D
:103560003E038430E9F580913D03893000F5809178
:10357000340390E09595879580933403189B05C09C
:1035800080913403806880933403FF91EF91DF9141
:10359000CF91BF91AF919F918F916F915F914F911B
:1035A0003F912F910F900FBE0F901F901895B59AD5
:1035B00080916F00806280936F00809132039091C0
:1035C000330318992AC0FC01E957FF4F808191818C
:1035D00001969183808310923D0381E080933E03A6
:1035E00080913E03833009F043C0E0913B03F091AA
:1035F0003C03808120913A0333B190E0022E02C057
:10360000959587950A94E2F7832780FD17C010925D
:103610003D0382E080933E032BC040913403FC01C4
:10362000E058FF4F208131E0320F3083820F911D2F
:10363000DC014C9337FFCFCF1082CDCF80913D037B
:10364000893008F03EC03091340381E090E001C041
:10365000880F2A95EAF7908130FF31C08095892341
:1036600080838091340390E095958795809334030F
:1036700080913E03823099F480913D03811194C082
:10368000E0913B03F0913C03808190913A0321E06B
:1036900030E001C0220F9A95EAF7822B8083809157
:1036A0003E03813009F071CF80913D038111A2C0AA
:1036B000B59A80916F00806280936F0066CF892BEE
:1036C000CFCF80913D03893059F4308181E090E083
:1036D00001C0880F2A95EAF7809583238083C8CF9D
:1036E00080913F038F5F80933F0390914003891740
:1036F00050F510923D038091360390913703A091CD
:103700003F03A80FB92FB11D8C91809334038081A2
:1037100041E050E001C0440F2A95EAF7842B8083F2
:1037200080918400909185008A5A9C4F9093390330
:1037300080933803809138039091390390938900E6
:103740008093880095CF81E080933503E091360324
:10375000F09137034091320350913303808180769A
:103760008036C9F4818130E020E0EA01C058DF4FA3
:103770002817B0F4DF01A20FB31F6C91A88191E06C
:103780009A0F9883A40FB52FB11D6C9397FD1882E3
:103790002F5F3F4FEDCF8081829586708E5FE3CFA4
:1037A00010923D0381E036CF80913D038F3008F4C5
:1037B00076CFE0913B03F0913C03208130913A03B6
:1037C00081E090E001C0880F3A95EAF78095822366
:1037D000808310923D0381E080933E03E0913203A9
:1037E000F0913303E357FF4F8081918101969183DC
:1037F000808355CF80913D03883308F4C6CE109264
:103800003E0380916F008D7F57CF1F920F920FB6AE
:103810000F9211248F939F93EF93FF93EFE6F0E0C5
:1038200080818F7D80838091860090918700805673
:103830009A4F909339038093380380913803909185
:1038400039039093890080938800B19A80818260C7
:10385000808384E080933E0310923D03FF91EF91BB
:103860009F918F910F900FBE0F901F9018958CEF26
:1038700091E0909387048093860480918A049091CC
:103880008B04009751F0FC012181328130938B042D
:1038900020938A040E94AC26F0CF8091A1049091DD
:1038A000A2040E94AC268091A6049091A7040C94D7
:1038B000AC26CF92DF92EF92FF92CF93DF93C3E9D2
:1038C000D4E01B821A8288EEC82E83E0D82EE12C29
:1038D000F12CCC82DD82EE82FF8286E192E0998338
:1038E000888380E290E09D878C870E9410269F87C6
:1038F0008E87188A198A1A8A80E290E00E94102620
:103900009C8B8B8B1D8A1E8A1F8A83E097E09D8F7C
:103910008C8F81E297E09F8F8E8F88E693E099A34A
:1039200088A38CE693E09BA38AA38DE395E09DA3F7
:103930008CA386EE94E09FA38EA38FEB94E099A7CF
:1039400088A78FE793E09BA78AA787E893E09DA7C6
:103950008CA781E993E09FA78EA781E995E09093DA
:10396000D1038093D00385E895E09093D3038093AF
:10397000D203E4EDF3E013821282C482D582E682A0
:10398000F7828AEE91E09183808385EC90E09587C1
:10399000848784EC90E09787868780EC90E0918B19
:1039A000808B81EC90E0938B828B82EC90E0958B06
:1039B000848B86EC90E0978B868B118E128E138E03
:1039C000148EEFE7F4E080E48083D283C183E6E8DD
:1039D000F4E08CEF91E0918380831582148217824A
:1039E000168213821282118610861386128614861E
:1039F00060E081E10E942E07EDE6F6E0E491A1E7A8
:103A0000B4E0EC93E2E5F6E0E491F0E0EE0FFF1FA6
:103A1000EB5CF94F8591949112969C938E9311973C
:103A20001B961C921B971D961C921D971C961C9210
:103A30001C971A961C921A9719961C921997189609
:103A40001C92189717961C92179716961C92169709
:103A500015961C92159714961C92149713961C9207
:103A6000DF91CF91FF90EF90DF90CF900895CF93AB
:103A7000DF93CDB7DEB766970FB6F894DEBF0FBE03
:103A8000CDBF789484B5836084BD85B5836085BDE2
:103A900080916E00816080936E0092E0909381002F
:103AA000809181008160809381008091800081609D
:103AB000809380008091B10084608093B1008091F8
:103AC000B00081608093B00080919100836080930A
:103AD0009100809190008160809390008091A1007E
:103AE00083608093A1008091A00081608093A000FA
:103AF00087E880937A001092C100E091E403F0918E
:103B0000E5039083E091E003F091E1031082E091FE
:103B1000E203F091E3038FEC80831092EC03E091D9
:103B2000E803F091E90386E08083E091E603F091F9
:103B3000E703808188698083E091E603F091E703E1
:103B400080818F7D80838FE695E00E942B0A8FE62F
:103B500099E20E9422148EE595E00E942B0A80E0F3
:103B600090E00E9459280E94D511689A13E0709A3B
:103B70006DE770E080E090E00E94800870986DE74B
:103B800070E080E090E00E948008115081F7E1E44D
:103B9000F3E08FE8DF011D928A95E9F761E085E0A7
:103BA0000E942E07E1E6F6E02491E6E4F6E0E491D7
:103BB000F0E0EE0FFF1FE25FF94F4591549180E076
:103BC00091E031E0291741F08F5F932F082E01C05B
:103BD000990F0A94EAF7F6CF50933C0340933B03C6
:103BE00080933A0381E493E090933303809332030C
:103BF0002098E0913B03F0913C03208130913A03FF
:103C000081E090E001C0880F3A95EAF78095822321
:103C100080831092800081E08093810010923E03A7
:103C2000B59A80916F00806280936F0080918100CF
:103C3000887F81608093810085E090E00E94592810
:103C400080938002893118F088E1809380028EE4AD
:103C500095E00E942B0A6AE070E0809180020E9449
:103C600099108AE495E00E942B0A89E190E00E9475
:103C700022140E94B40D0E942214412C1091800243
:103C8000411608F0C5C2E42CF12CC701885F9F4F94
:103C90000E945928182FB4E14B9E30011124C30112
:103CA000815E9F4F0E9461281C0181E0E2E02E1698
:103CB000310408F080E091E0F5E02F16310409F0BE
:103CC00090E0892B21F428E02216310419F42224F3
:103CD0002A94312CC3018F5D9F4F0E9461285C01A3
:103CE000812F0E94D511522CA701440F551F5A8BCA
:103CF000498B143009F4BAC1B0F4123009F4A6C0EB
:103D000008F076C1113009F41AC186E090E00E94F3
:103D10001026FC0122EB31E0318320834582528260
:103D2000B482A382C8C1163009F43DC208F4CAC1E6
:103D3000163659F7C3018D5D9F4F0E9461287C01A3
:103D4000C3018B5D9F4F0E9461289C8B8B8BC301AD
:103D5000895D9F4F0E9461284C01C301835D9F4F85
:103D60000E9461289E8B8D8BC301815D9F4F0E94B5
:103D700061286C01C3018F5C9F4F0E946128582EFF
:103D80008DE190E00E9410268C01DC0115964C928A
:103D9000159712962C9212971496BC92AE92139786
:103DA0001B969C928E921A971C965C921C97539627
:103DB000FC92EE9252975596FC92EE925497ED89B2
:103DC000FE891E96FC93EE931D975096DC92CE9240
:103DD0001F9757961C921E92569758961C9258976A
:103DE0005A961C921E92599726E931E011963C93FF
:103DF0002E934FE754E05C965C934E935B97B7012C
:103E000090E080E00E943A272FE335E342E850E457
:103E10000E944D290E94BF29D80119967C936E9368
:103E20001897EB89FC89BF0190E080E00E943A2757
:103E30002FE335E342E850E40E944D290E94BF2958
:103E4000D80117967C936E93169769C0C3018D5D58
:103E50009F4F0E9461287C01C3018B5D9F4F0E9490
:103E600061289C8B8B8BC301895D9F4F0E946128C9
:103E70009E8B8D8BC301835D9F4F0E9461284C01F7
:103E8000C301815D9F4F0E9461286C01C3018F5C5B
:103E90009F4F0E946128382E8BE190E00E941026EF
:103EA0008C01DC0115964C92159712962C92129764
:103EB0001496BC92AE921397EAE7F1E01196FC9348
:103EC000EE931996FC92EE9218972B893C891796DF
:103ED0003C932E9316974D895E891B965C934E9367
:103EE0001A971C963C921C975396FC92EE9252970E
:103EF0005596FC92EE9254971E969C928E921D9728
:103F00005096DC92CE921F9757961C921E9256970F
:103F100058961C9258975A961C921E925997E98966
:103F2000FA89EC57FD4F11830083C301855D9F4FD4
:103F30000E946128BC01C8010E94C80A3AC0C3019E
:103F40008D5D9F4F0E946128582F5170C52E969508
:103F50008795A82FA170DA2EC3018B5D9F4F0E9419
:103F600061287C018CE090E00E9410268C01FC010D
:103F700045822282B482A3822AE031E03183208309
:103F80003FEF231202C08EEF828362E0D8011296C7
:103F90008C910E942E07F801168221E02783C286A9
:103FA000F186E086D386E989FA89EC57FD4F1183C3
:103FB00000838EEF94E00E942B0A842D0E94D5117D
:103FC000E989FA89EC57FD4F80819181DC01ED91FF
:103FD000FC910680F781E02D0995642D86E894E038
:103FE0000E9423100E94B40D0E942214439446CED6
:103FF000C3018D5D9F4F0E946128382F3170E32EE1
:1040000096958795482F4170F42E8AE090E00E94A3
:1040100010268C01DC0115964C92159712962C9265
:1040200012971496BC92AE921397EEECF1E0ED93DA
:10403000FC93F4E02F1651F084E095E00E94E01428
:1040400061E0D80112968C910E942E07F801168229
:1040500060E0C8010E943014D8011796EC921797BF
:1040600019961C9219971896FC929DCFC3018D5DED
:104070009F4F0E946128E82EC3018B5D9F4F0E94D5
:104080006128F82EC301895D9F4F0E9461288C0131
:1040900083E190E00E941026FC0145822282B482D6
:1040A000A38226E231E031832083E782F086128703
:1040B0000187108A1786A989BA89AC57BD4FED933D
:1040C000FC9377CFC3018D5D9F4F0E9461287C01D7
:1040D000C3018B5D9F4F0E9461284C01C301875D26
:1040E0009F4F0E9461286C01C301855D9F4F0E9414
:1040F00061283C0181E032E0E316F10408F080E041
:1041000091E045E0E416F10409F090E0892B21F4F8
:1041100058E0E516F10419F4EE24EA94F12C83E159
:1041200090E00E9410268C01DC0115964C921597A8
:1041300012965C9212971496BC92AE921397E2E498
:10414000F1E01196FC93EE931796FC92EE9216977F
:1041500019969C928E9218971B96DC92CE921A9783
:104160001D967C926E921C9761E0852D0E942E0711
:1041700061E0D80116968C910E942E0788EE94E09B
:104180000E942B0A6AE070E0F80182810E94991077
:1041900085EE94E00E942B0AD80116968D919C9191
:1041A0000E942A1200CFC3018D5D9F4F0E9461289B
:1041B000E82EC3018B5D9F4F0E946128F82E80E19D
:1041C00090E00E9410268C01FC0145822282B4827C
:1041D000A3822EE531E031832083E1861086F286CA
:1041E0008FEF9FEFDC0184879587A687B7871386BB
:1041F000E989FA89EC57FD4F11830083C301855D7E
:104200009F4F0E946128BC01C8010E94C20CD1CE00
:104210008AE090E00E9410267C01FC0115838AE16F
:104220008283148213828EEC91E09183808384E0F8
:1042300095E00E94E01461E0D70112968C910E94F3
:104240002E07F701168260E0C7010E943014D701E3
:1042500017961C92179719961C92199718961C92EC
:1042600080918002E82FF0E0EE0FFF1FEC57FD4F2A
:10427000F182E0828F5F8093800280917F02826072
:1042800080937F0210927C0410927E0410927D0431
:1042900010927B0410927A041092790410927804A0
:1042A00010927704109276041092750410927404A0
:1042B00084E792E00E94F5136AEF70E080E090E0FE
:1042C0000E94800880917E04811104C00E9416081B
:1042D000811147C110927C0410927E0410927D04DB
:1042E00084E792E00E94F51310927C0410927E0401
:1042F00010927D0410927B0410927A04109279043B
:10430000109278041092770410927604109275043B
:104310001092740410922A0310922B0310922C0313
:1043200010922D0310922E0310922F03109230033F
:1043300081E395E00E94E01486E492E00E94F51388
:104340008AE2E82E83E0F82E0EE010E0F801819179
:104350008F01D7018D937D0160E170E00E9499107B
:104360000531110599F784E792E00E941414E09159
:104370008004F0918104108A118A158A168A048CAF
:10438000F58DE02D099560E880E00E945F066AE007
:1043900070E080E090E00E94800860E070E08AE7D2
:1043A00094E40E94BD0E80E498E7ADE7B1E080930D
:1043B000820490938304A0938404B093850460E006
:1043C00070E08CE892E40E94BD0E60E080E10E9403
:1043D0002E0783E195E00E942B0A0E948E0D0E9419
:1043E0002A1282E592E00E941414B0E02B2EB0E075
:1043F0003B2E10E0A12E10E0B12E00E0802E00E058
:10440000902E20918804309189042115310509F4FA
:1044100043C08091B6028F5F821713060CF01CC157
:104420008093B60284EF95E00E942B0A6091B60259
:1044300070E086E894E00E94740CE82FF0E0EE0F44
:10444000FF1FEC57FD4F80819181DC01ED91FC91C4
:104450000288F389E02D099581111EC085EE95E053
:104460000E942B0A6091B60270E086E894E00E94F8
:10447000740C0E94D5116091B60270E086E894E059
:104480000E94760E80918804909189040E942711E1
:1044900086EC95E00E94E01484ED93E00E94AD0963
:1044A00018161906FCF484ED93E00E94FD08873786
:1044B0009105C1F40E9451096B010E9451092B0121
:1044C0008CEB95E00E942B0AC6010E94A01089EB9C
:1044D00095E00E942B0AC2010E942A12B201C60175
:1044E0000E944A178091C2039091C103891709F471
:1044F00065C1E82FF0E0EF5BFC4FF080F7FEF0C005
:104500009091C303891751F02091C8033091C903DA
:104510002F5F3F4F3093C9032093C8038093C30399
:10452000BFEFB093C4038F2D8076803609F097C01B
:104530001092C5039091C2039F5F9093C203809134
:10454000C303392F381B97FD1092C2032091C40377
:104550009091C503391709F4D3C0F226F092C40331
:10456000C1CF60E080EF0E94D40701E0E12CD12CA4
:1045700011E00E947207F82E0E947207B1E0FB1250
:1045800036C0813009F052C0113408F4A3CED09265
:104590007C04D11003C081E080937E048091740478
:1045A000882309F497CEA4E7B4E09AE2E92E93E0D9
:1045B000F92EF7018D91819323E0E233F207D1F7D1
:1045C0008BE295E00E942B0A10E06AE070E0812FF8
:1045D0000E94991060E170E0D7018D917D010E94E9
:1045E00099101F5F173089F789E295E0A3CEEE2D71
:1045F000F0E0F81211C080917C041817A8F4DF01D4
:10460000AF58BB4F13968C91802381F4F12C193055
:1046100010F410937D04D12EEF58FB4F8381902F1F
:104620009095892383830BC08113F0CFEE2DF0E0AA
:10463000EF58FB4F8381802B8383FF24F3948F2DCE
:104640000E949F071F5F000F11F4E39401E0E7E071
:10465000EE1508F08ECF98CF1092B602E3CE8F2DD4
:10466000829586708E5F8093C5032091C3038091ED
:10467000C503820F9927991F813891050CF45ACFF1
:1046800000E8021BF8944091C1038091C303841792
:1046900070F5E42FE81B8E2F8093C103789460910E
:1046A000C303461738F510E050E061E473E0C80139
:1046B0008F5B9C4F0E94F3296091C30370E06F5B96
:1046C0007C4FA80181E493E00E94F3298091C2030A
:1046D0009091C303891B8093C2031092C3032ACF16
:1046E0008091C503811126CFF092C503BECF802FE4
:1046F000840FD2CF461B50E070E06F5B7C4FE2CF5F
:10470000F21250C090E08F5B9C4F4091C6035091D5
:10471000C7034F5F5F4F5093C7034093C603309169
:10472000C2033093C303009709F417CF9093830219
:1047300080938202892B09F495C184E792E00E945C
:10474000F513E0908202F0908302D70111962C912C
:104750001197422F50E012966C911297E62FF0E0DD
:10476000CF019695982F8827979587958078977091
:10477000822B952B3C91323B09F455C10196313B7C
:1047800009F489C1F0F4333809F477C1303B09F4F6
:104790007CC13238F1F480E090E0892B09F454C1F7
:1047A00080E070C18091C8039091C90301969093F5
:1047B000C9038093C80390E080E0B1CF90E080E02F
:1047C000B5CF3C3B09F47CC108F0DFC0343B09F4B1
:1047D000B2C183EB95E00E942B0AC7010E9427110A
:1047E000E0908202F090830283E895E00E942B0A19
:1047F0006AE070E0F70180810E94991088E292E0FF
:104800000E94F51360E170E0D70111968C910E942F
:10481000991088E292E00E94F51360E170E0F701E0
:1048200082810E94991088E292E00E94F51360E173
:1048300070E0D70113968C910E94991088E292E063
:104840000E94F51360E170E0F70184810E949910E5
:1048500088E292E00E94F51360E170E0D7011596BE
:104860008C910E94991088E292E00E94F51360E119
:1048700070E0F70186810E94991088E292E00E9420
:10488000F5136701F7E0CF0ED11C2FE0E20EF11C0B
:1048900060E170E0D6018D916D010E94991088E26F
:1048A00092E00E94F513EC14FD0491F785E292E08A
:1048B0000E944810C0908202D0908302F60180814D
:1048C000853E19F08D3E09F099C18DE592E00E9478
:1048D0001414D60111968C9111978F3009F08EC166
:1048E00013968C911397853009F088C114968C919A
:1048F0001497811183C116964C91F601C601079653
:1049000021E0342F322319F0378130683783220FAA
:1049100031968E179F07A9F7F6011682258120325E
:1049200009F471C1213209F069C10780F085E02DD9
:10493000EF3FFE0709F00BC1D60119962D913C916E
:104940001A97232B09F003C11B962D913C912F3F01
:104950003F4F09F0FCC0B601655F7F4F0E944815CC
:104960008F3709F04BC1F6010385148547815085C7
:10497000E12C30E020E06281CE0101960E948604A5
:10498000CE0101960E94970339C13D3B09F45CC0FA
:10499000303D09F01ECF2076203229F0203609F470
:1049A00098C0211151C08114910409F44DC0CA016D
:1049B0009695982F88279795879580789F708E0F6A
:1049C0009F1F35E0559547953A95E1F7242F2170C3
:1049D0000196D7011396EC91139714964C9150E0E1
:1049E000ED3731F0B0E8EB9FF00111244E0F5F1F5F
:1049F0006F7009F490C0623009F48FC0643009F41C
:104A00008EC0663009F48DC0683009F48CC06A30FD
:104A100009F48BC06C3009F48AC06E3009F489C087
:104A20000E94000011C022E030E065FD02C021E0DC
:104A300030E0E0E0F0E0EF2B39F0880F991F607173
:104A4000820F931F0E940000809188049091890436
:104A50000E9427118AE895E00E94E0140E94B40D9C
:104A60000E94221480918102882321F08EB191E06E
:104A700089278EB90E94660AC4CC80E090E0892B19
:104A800019F381E00E940000DFCF462F4072607171
:104A90000E941E18D9CF66FF09C021143104A1F26B
:104AA000462F407260710E940000CECF20E030E0BF
:104AB000232B51F2462F407160720E940000C4CF38
:104AC000A114B10409F2462F407260710E940000E7
:104AD000BBCF80E090E0892B09F4B6CF13960C9100
:104AE0001397802F807D803109F0AECF1496EC9023
:104AF000FF24F39411E041E0802F8F2109F040E082
:104B00002E2D2F21FF0C612F80E80E9400001F5FD7
:104B1000153089F799CF61E483CF62E481CF63E4F4
:104B20007FCF64E47DCF65E47BCF66E479CF67E433
:104B300077CF68E475CF2C3309F04BCE80E090E05E
:104B4000892B09F481CF8CE30E9400007DCFD60130
:104B50001D962C911D97211122C01B964D915C91A1
:104B60001C9719966D917C919601255F3F4FCF015F
:104B70000E94FC158F3749F4F601038514852185C1
:104B8000328547815085E12CF6CE87FD37C0D601AE
:104B90009C919F7724EB29839A838B83F1CE27FF07
:104BA00021C026FD24C0B601655F7F4F0E947115AC
:104BB0008F37C1F4F601038514854781508580E85D
:104BC000E82E30E020E06281CE0101960E9486044A
:104BD0006AE070E080E090E00E948008CE010196DB
:104BE0000E949703D6011D968C9186FF07C0F6019F
:104BF00063857485878190850E94B61589EA95E062
:104C00000E942B0A21CF4385548561857285878157
:104C100090850E94651787FDF1CFF6019081B9CF8D
:104C20000F931F93CF93DF938230910510F482E0AE
:104C300090E0E091C504F091C60430E020E0B0E0DF
:104C4000A0E0309799F42115310509F44AC0281BDA
:104C5000390B24303105D8F58A819B8161157105A6
:104C600089F1FB0193838283FE0111C04081518150
:104C70000281138148175907E0F04817590799F442
:104C8000109761F012960C93129713961C9332961C
:104C9000CF01DF91CF911F910F9108950093C5042B
:104CA0001093C604F4CF2115310551F04217530774
:104CB00038F0A901DB019A01BD01DF01F801C1CF84
:104CC000EF01F9CF9093C6048093C504CDCFFE01C8
:104CD000E20FF31F81939193225031093983288386
:104CE000D7CF2091C3043091C404232B41F42091E9
:104CF0000201309103013093C4042093C304209136
:104D00000001309101012115310541F42DB73EB765
:104D10004091040150910501241B350BE091C3041F
:104D2000F091C404E217F307A0F42E1B3F0B2817E1
:104D3000390778F0AC014E5F5F4F2417350748F014
:104D40004E0F5F1F5093C4044093C304819391930B
:104D50009FCFF0E0E0E09CCFCF93DF930097E9F0A6
:104D6000FC01329713821282A091C504B091C6044F
:104D7000ED0130E020E01097A1F420813181820F15
:104D8000931F2091C3043091C4042817390709F0F8
:104D900061C0F093C404E093C304DF91CF91089500
:104DA000EA01CE17DF07E8F54A815B819E014115D4
:104DB0005105B1F7E901FB83EA8349915991C40F89
:104DC000D51FEC17FD0761F4808191810296840F55
:104DD000951FE90199838883828193819B838A83CC
:104DE000F0E0E0E012968D919C9113970097B9F551
:104DF0002D913C911197CD010296820F931F209126
:104E0000C3043091C4042817390739F6309751F597
:104E10001092C6041092C504B093C404A093C304B6
:104E2000BCCFD383C28340815181840F951FC817A3
:104E3000D90761F44E5F5F4F88819981480F591FF0
:104E4000518340838A819B8193838283211531051D
:104E500009F0B0CFF093C604E093C5049ECFFD01E6
:104E6000DC01C0CF13821282D7CF0E94772708F4CB
:104E700081E00895E89409C097FB3EF490958095F1
:104E8000709561957F4F8F4F9F4F9923A9F0F92F10
:104E900096E9BB279395F695879577956795B7958E
:104EA000F111F8CFFAF4BB0F11F460FF1BC06F5F74
:104EB0007F4F8F4F9F4F16C0882311F096E911C086
:104EC000772321F09EE8872F762F05C0662371F0A7
:104ED00096E8862F70E060E02AF09A95660F771FBB
:104EE000881FDAF7880F9695879597F90895990F97
:104EF0000008550FAA0BE0E8FEEF16161706E807A4
:104F0000F907C0F012161306E407F50798F0621BC4
:104F1000730B840B950B39F40A2661F0232B242B99
:104F2000252B21F408950A2609F4A140A6958FEFB8
:104F3000811D811D08950E94AE270C941F280E9498
:104F4000112838F00E94182820F0952311F00C94B5
:104F500008280C940E2811240C9453280E94302801
:104F600070F3959FC1F3950F50E0551F629FF001BC
:104F7000729FBB27F00DB11D639FAA27F00DB11DD5
:104F8000AA1F649F6627B00DA11D661F829F22275E
:104F9000B00DA11D621F739FB00DA11D621F839FE5
:104FA000A00D611D221F749F3327A00D611D231FBB
:104FB000849F600D211D822F762F6A2F11249F5709
:104FC00050409AF0F1F088234AF0EE0FFF1FBB1F0C
:104FD000661F771F881F91505040A9F79E3F5105CB
:104FE00080F00C9408280C9453285F3FE4F3983E1B
:104FF000D4F3869577956795B795F795E7959F5F75
:10500000C1F7FE2B880F911D9695879597F9089506
:1050100097F99F6780E870E060E008959FEF80EC6B
:10502000089500240A94161617061806090608950E
:1050300000240A9412161306140605060895092E74
:105040000394000C11F4882352F0BB0F40F4BF2BE3
:1050500011F460FF04C06F5F7F4F8F4F9F4F089523
:1050600057FD9058440F551F59F05F3F71F0479519
:10507000880F97FB991F61F09F3F79F087950895FE
:10508000121613061406551FF2CF4695F1DF08C01D
:10509000161617061806991FF1CF8695710561053A
:1050A00008940895E894BB2766277727CB0197F9E2
:1050B0000895F999FECF92BD81BDF89A992780B5E0
:1050C0000895A8E1B0E042E050E00C947C28262F3F
:1050D000F999FECF1FBA92BD81BD20BD0FB6F894DD
:1050E000FA9AF99A0FBE019608950E946728272F11
:1050F0000C946828DC01CB01FC01F999FECF06C0B5
:10510000F2BDE1BDF89A319600B40D924150504085
:10511000B8F708950E949528A59F900DB49F900D13
:10512000A49F800D911D11240895A29FB001B39FEB
:10513000C001A39F700D811D1124911DB29F700DA0
:10514000811D1124911D0895AA1BBB1B51E107C0AD
:10515000AA1FBB1FA617B70710F0A61BB70B881F07
:10516000991F5A95A9F780959095BC01CD01089596
:10517000A1E21A2EAA1BBB1BFD010DC0AA1FBB1F5B
:10518000EE1FFF1FA217B307E407F50720F0A21BCD
:10519000B30BE40BF50B661F771F881F991F1A943A
:1051A00069F760957095809590959B01AC01BD0164
:1051B000CF010895EE0FFF1F0590F491E02D0994A3
:1051C0005058BB27AA270E94F8280C941F280E9439
:1051D000112838F00E94182820F039F49F3F19F464
:1051E00026F40C940E280EF4E095E7FB0C940828A6
:1051F000E92F0E94302858F3BA1762077307840713
:10520000950720F079F4A6F50C9452280EF4E09559
:105210000B2EBA2FA02D0B01B90190010C01CA0170
:10522000A0011124FF27591B99F0593F50F4503E1B
:1052300068F11A16F040A22F232F342F4427585F0D
:10524000F3CF469537952795A795F0405395C9F725
:105250007EF41F16BA0B620B730B840BBAF09150DD
:10526000A1F0FF0FBB1F661F771F881FC2F70EC07C
:10527000BA0F621F731F841F48F48795779567954F
:10528000B795F7959E3F08F0B0CF9395880F08F03B
:105290009927EE0F9795879508950E9461290C94A0
:1052A0001F280E94182858F00E94112840F029F465
:1052B0005F3F29F00C94082851110C9453280C944A
:1052C0000E280E94302868F39923B1F3552391F3F7
:1052D000951B550BBB27AA2762177307840738F065
:1052E0009F5F5F4F220F331F441FAA1FA9F335D0C2
:1052F0000E2E3AF0E0E832D091505040E695001C76
:10530000CAF72BD0FE2F29D0660F771F881FBB1F2F
:10531000261737074807AB07B0E809F0BB0B802D0D
:10532000BF01FF2793585F4F3AF09E3F510578F039
:105330000C9408280C9453285F3FE4F3983ED4F370
:10534000869577956795B795F7959F5FC9F7880F0D
:10535000911D9695879597F90895E1E0660F771F5F
:10536000881FBB1F621773078407BA0720F0621BF0
:10537000730B840BBA0BEE1F88F7E09508950E941B
:10538000382888F09F5798F0B92F9927B751B0F077
:10539000E1F0660F771F881F991F1AF0BA95C9F7B9
:1053A00014C0B13091F00E945228B1E008950C94DD
:1053B0005228672F782F8827B85F39F0B93FCCF390
:1053C000869577956795B395D9F73EF49095809536
:1053D000709561957F4F8F4F9F4F08950E9477275B
:1053E00008F48FEF08956817790768F4FB01DC0172
:1053F000E40FF51FA40FB51F02C002900E9241509A
:105400005040D8F708950C94052AFB01DC0102C036
:1054100001900D9241505040D8F7089513E0CDE32C
:10542000D3E004C0FE010E94DA282196CE33D107D2
:06543000C9F7F894FFCF5C
:105436000000C704800000000000860AE00DD50DBC
:10544600B214D10D520BD30DD20DD10D8111CE0D4B
:10545600CB0D00000000880AE40DD50DF713A00A55
:105466005A0DD30DD20DD10D200DCE0DCB0D000052
:1054760000003E0BF20DD50DA610D10D6614D30D0E
:10548600D20D470BEE14CE0DCB0D00000000890A9D
:10549600E60D8E0A3812D10DDD0CD30DD20DD10DCD
:1054A6009A0CC20C8A0A00000000BF0AE80DD50D4E
:1054B600E511F00A0213D30DFD0AE50ABD0AC80A72
:1054C600E10A000000005A0BFC0DD50DDC10F00AB5
:1054D6000213D30D4C12E50A3013C80AE10A000084
:1054E6000000DF0DBB0ED50DD10DD10DD40DD30DA2
:1054F600D20DD10DCF0DCE0DCB0D00000000870AC9
:10550600E20DD50D5014B00A57113014D20DD10D3D
:10551600BD0ACE0DCB0D00000000E409BE08EE0862
:10552600460AAD09FD081109000000007D0CCC0FEC
:1055360023109A0F610C760E060E410E740C120C97
:10554600830B000000001A06E905EB08BC05E3051D
:10555600D205BD050D0A002C2000290A00436C6FF8
:10556600736564005468726F776E004F6E004F6605
:105576006600202D20003332387062207569643A47
:105586002000736574757020646F6E6500506F73CC
:105596007369626C792061204C4E4356206D6573A9
:0655A600736167652E0031
:00000001FF
