:100000000C94B4000C94DC000C94DC000C94DC0028
:100010000C94DC000C94DC000C94DC000C94DC00F0
:100020000C94DC000C94DC000C94CE150C944F1452
:100030000C94DC000C94DC000C94DC000C94DC00D0
:100040000C94AD130C94DC000C941D140C94F71359
:100050000C94DC000C94DC000C94DC000C94DC00B0
:100060000C948D120C94DC000C94DC000C94DC00DD
:100070000C94DC000C94DC000C94DC000C94DC0090
:100080000C94DC000C94DC000C94DC000C94DC0080
:100090000C94DC000C94DC000C94DC000C94DC0070
:1000A0000C94DC000C94DC000C94DC000C94DC0060
:1000B0000C94DC0043757272656E74205F73756218
:1000C00061646472657373004D756C7469506F720E
:1000D000742040206261736561646472657373208B
:1000E000003A2000577269746520435620000000D2
:1000F0000000240027002A002D0000000000250039
:1001000028002B002E000A0D0E0900030200000437
:1001100005080000000000000000000000000000D2
:1001200000000000002300260029002C0004040425
:100130000404040404020202020202030303030390
:100140000302020305050505010204081020408092
:100150000102040810200102040810204080400120
:10016000020408002216001611241FBECFEFD8E0AB
:10017000DEBFCDBF12E0A0E0B1E0EAE5F5E402C0E9
:1001800005900D92A034B107D9F724E0A0E4B2E0C5
:1001900001C01D92A139B207E1F710E0C3EBD0E036
:1001A00004C02197FE010E946C21C23BD107C9F710
:1001B0000E9400170C94A0220C940000880F8093DA
:1001C000BA0008959B01AC0160E074E284EF90E016
:1001D0000E944A21205131094109510956954795FC
:1001E000379527952093B8000895882321F085EC52
:1001F0008093BC00089585E8FBCF85ED8093BC001B
:100200008091BC0084FDFCCF1092CE02089585EC55
:100210008093BC001092CE020895CF93DF93FC012F
:1002200029E18EE241E050E033E071E09081907688
:100230009036D1F4918190930A03A0910A03A150C2
:10024000109209039FEF609109036A1790F4C0911F
:100250000903CE0FDF2FD11D688196276091090316
:100260006F5F60930903EFCF9081929596709E5FC8
:10027000E2CFAE0FBF2FB11D9C93F894909108036D
:10028000913059F490910703981738F010920803B1
:1002900090916F009D7F90936F00789490910803E8
:1002A000913039F490910703943108F4BFCF70E096
:1002B000BDCF9091080391110EC0F89490916F00FA
:1002C0009F7D90936F00B59B09C090916F009062E5
:1002D00090936F0078947111A9CF51C0A09105033C
:1002E000B09106039C9160910403EA0102C0CC0F17
:1002F000DD1F6A95E2F79C2B9C93609184007091BE
:1003000085006A5A7C4F70930303609302036091E7
:1003100002037091030370938900609388007894BE
:10032000F0930103E0930003109209031092FF027F
:1003300090819093FE023093080310920703B19AC4
:1003400090916F00926090936F00909108039330AA
:10035000E1F39091FF02992381F0E091FC02F0918A
:10036000FD02E757FF4F8081918101969183808341
:1003700083E090E0DF91CF910895909108038B3155
:1003800008F08150215009F050CF80919603909150
:1003900097030196909397038093960386E090E0ED
:1003A000E9CFCF93DF93CDB7DEB760970FB6F89460
:1003B000DEBF0FBECDBFAC0141505109852F8F70FC
:1003C0009A01369527952F7740FD14C080646111FE
:1003D000806192EB99832A838B83CE0101960E94E0
:1003E0000D0160960FB6F894DEBF0FBECDBFDF9152
:1003F000CF9108958066EBCFEF920F931F93CF9329
:10040000DF93FC0185EE80838FE0818385E082832A
:10041000613041F589E483838BE484838FE18583B4
:100420001682508747833287218714870387E586A2
:10043000DF011796AF01425F5F4F91E08D9187FF1B
:1004400007C02681292B2683ED0121978F7788838A
:10045000990FA417B50791F7DF91CF911F910F91D5
:10046000EF90089563831482D9CF2091AA02260FBA
:100470003327331F21323105ECF42091CE02FC01E9
:1004800090E080E0243069F082E00895A091AA0213
:100490002191AC0146575D4FA40FB52FB11D2C9390
:1004A0000196861798F38091AA02680F6093AA02BA
:1004B00080E0089581E008950F93413208F04BC029
:1004C0009091CE029111FCCF92E09093CE020093D6
:1004D000D0029FEF9093CD021092F2024093F1026E
:1004E000362FA1EDB2E0FB019E2F931B941770F104
:1004F0001092F3029091F302880F892B8093F302FC
:100500008091CF02813029F51092CF028091F302C1
:100510008093BB008091BC0083FDF8CF85EC809375
:10052000BC00222321F08091CE028230D1F3809151
:10053000CD028F3F91F08091CD02803281F0809189
:10054000CD02803371F084E00F91089591919D93D5
:10055000CBCF85EEE4CF81E0F7CF80E0F5CF82E02E
:10056000F3CF83E0F1CF413208F043C09091CE0247
:100570009111FCCF91E09093CE022093D0022FEF07
:100580002093CD021092F202240F2093F102909357
:10059000F3029091F302880F892B8093F3028091EC
:1005A000CF02813009F51092CF028091F30280933F
:1005B000BB008091BC0083FDF8CF85EC8093BC002C
:1005C0008091CE028130E1F38091F202841710F421
:1005D0004091F202A1EDB2E0962FFB018E2F891B14
:1005E000841720F0842F089585EEE8CF8D918193B4
:1005F000F5CF40E0F7CFE0917504F09176043097A5
:1006000029F0109272041092730409940895DC0189
:100610008091770490917804892B19F190916D0461
:1006200080916E049817E8F090E0292F30E02617AB
:1006300037076CF4FD01E20FF31F4081E0916B047A
:10064000F0916C04E20FF31F40839F5FEECF109296
:100650006D0460936E04E0917704F0917804CB010F
:10066000099408950895DC015096EC9150975196A5
:100670008C915197E81748F41E968D919C91E80F44
:10068000F92FF11D808190E008958FEF9FEF08957D
:10069000FC01908981892FEF3FEF981740F4A685E0
:1006A000B785A90FB11D2C9130E09F5F908BC901D8
:1006B0000895FC0181899089891B990B0895CF9237
:1006C000DF92EF92FF920F931F93CF93DF938C01F2
:1006D000CB017A01D80157962C915797222389F0A4
:1006E000EB016B01C40ED51ECC15DD0579F06991C7
:1006F000D801ED91FC910190F081E02DC8010995A0
:10070000F3CF9896ED91FC91642F0995C701DF9185
:10071000CF911F910F91FF90EF90DF90CF900895B0
:10072000CF93DF931F92CDB7DEB7FC016983878932
:100730008823F9F02689848595852817190654F0B1
:1007400081E090E09383828390E080E00F90DF91DE
:10075000CF9108958981A58923893489A20FB32F68
:10076000B11D8C9385898F5F858B868B81E090E0AE
:10077000EDCF00A4F1A5E02D61E0CE010196099531
:10078000F5CF0F93CF93DF93EC016B897C89EEA1BA
:10079000FFA101E021E04E898A8909951D8A1E8A00
:1007A0001F8ADF91CF910F9108951F93CF93DF930D
:1007B000162FC9E4D4E0A981BA81988121E0579627
:1007C0002C93579752969C93529755961C925597F7
:1007D00056961C925697ED91FC9111970190F081DD
:1007E000E02D682FCD01099589819A81DC01ED9179
:1007F000FC910190F081E02D612F099589819A810A
:10080000DF91CF911F910C94C10382508D3008F07D
:100810003EC0E82FF0E0E15FFB4F0C946C214404F4
:1008200048041C0422044704470426042C04300412
:10083000360447043A044004809180008F77809307
:1008400080000895809180008F7DF9CF8091B00065
:100850008F778093B00008958091B0008F7DF9CF9D
:10086000809190008F778093900008958091900000
:100870008F7DF9CF8091A0008F778093A00008959D
:100880008091A0008F7DF9CF84B58F7784BD0895C6
:1008900084B58F7DFBCF1F93CF93DF93282F30E05C
:1008A000F901EA5FFE4F8491F901E85BFE4FD491B4
:1008B000F901E35DFE4FC491CC23A9F0162F8111FD
:1008C0000E940504EC2FF0E0EE0FFF1FE650FF4FF3
:1008D000A591B4918FB7F894EC91111108C0D095FF
:1008E000DE23DC938FBFDF91CF911F910895DE2B24
:1008F000F8CF1092CE0281E08093D0021092CF0206
:1009000061E082E10E944B0461E083E10E944B04BC
:10091000E9EBF0E080818E7F808380818D7F808312
:1009200088E48093B80085E48093BC000895ECEBE4
:10093000F0E080818A7B808360E082E10E944B044A
:1009400060E083E10C944B04CF93DF9390E0FC01D3
:10095000E85BFE4F2491835D9E4FFC0184918823C8
:10096000C9F090E0880F991FFC01E251FF4FA5915B
:10097000B491FC01E650FF4FC591D49161110DC0B7
:100980009FB7F8948C91209582238C93888128239B
:1009900028839FBFDF91CF910895623051F49FB7B4
:1009A000F8943C91822F809583238C93E8812E2BA1
:1009B000EFCF8FB7F894EC912E2B2C938FBFEACF0B
:1009C000880F991F880F991F05970197F1F70895D0
:1009D0000F931F93CF93DF9310913B04C0913C047E
:1009E000D0913D04F8948981812B89838A81012FDC
:1009F000009580238A8383E090E00E94E00489814F
:100A0000802389838AE090E00E94E004C881789482
:100A100085E390E00E94E0041C2381E009F480E07B
:100A2000DF91CF911F910F9108951F93CF93DF9383
:100A300010913B04C0913C04D0913D04912F9095BE
:100A400080FF16C0F8948A8189238A838981812B4B
:100A500089838AE090E00E94E0048A81182B1A833F
:100A6000789487E390E0DF91CF911F910C94E0049C
:100A7000F8948A8189238A838981812B898381E4FF
:100A800090E00E94E0048A81182B1A83789485E014
:100A900090E0E9CFFF920F931F93CF93DF93F82E4F
:100AA000062FC8E0D0E011E081E09F2D912309F4EA
:100AB00080E00E941505110F2197B1F7011113C0B5
:100AC000F894E0913C04F0913D04918180913B04C5
:100AD000809598239183E0913C04F0913D049281AC
:100AE000892382837894DF91CF911F910F91FF909A
:100AF0000895CF93DF9360E085E50E944A05C4EF37
:100B0000D2E060E089910E944A0582E0CC3FD8079C
:100B1000C1F7DF91CF910895FF920F931F93CF9369
:100B2000DF9310913B04C0913C04D0913D04F894B4
:100B30008981012F00958023898378948DE7F82E91
:100B4000FA94FF2061F182E090E00E94E004888145
:100B50008123B1F3F8948A8180238A838981812B50
:100B60008983789480EE91E00E94E004F894898172
:100B70008023898386E490E00E94E0048881182322
:100B8000C1E009F0C0E078948AE991E00E94E004B5
:100B90008C2FDF91CF911F910F91FF900895C0E0AE
:100BA000F7CF3FB7F8948091860290918702A09189
:100BB0008802B091890226B5A89B05C02F3F19F085
:100BC0000196A11DB11D3FBFBA2FA92F982F8827CD
:100BD000BC01CD01620F711D811D911D42E0660FA8
:100BE000771F881F991F4A95D1F708958F929F927A
:100BF000AF92BF92CF92DF92EF92FF924B015C01D6
:100C00000E94D1056B017C010E94D1056C197D0900
:100C10008E099F09683E734081059105A8F321E084
:100C2000821A9108A108B10888EEC80E83E0D81E88
:100C3000E11CF11C81149104A104B10429F7FF9077
:100C4000EF90DF90CF90BF90AF909F908F900895DE
:100C50002FB7F89460918202709183028091840290
:100C6000909185022FBF0895AF92BF92CF92DF92ED
:100C7000EF92FF920F931F93CF93DF936C017B0151
:100C80008B01040F151FEB015E01AE18BF08C017E2
:100C9000D10759F06991D601ED91FC910190F08155
:100CA000E02DC6010995892B79F7C501DF91CF9118
:100CB0001F910F91FF90EF90DF90CF90BF90AF907A
:100CC000089590E080E00895FC01538D448D252F18
:100CD00030E0842F90E0821B930B541710F0CF96D6
:100CE000089501970895FC01918D828D981761F008
:100CF000A28DAE0FBF2FB11D5D968C91928D9F5F1F
:100D00009F73928F90E008958FEF9FEF0895FC01FD
:100D1000918D828D981731F0828DE80FF11D858DB0
:100D200090E008958FEF9FEF08950F931F930E9417
:100D300028066093A6037093A7038093A80390935B
:100D4000A9038EE993E00E94870697FF1DC00E94C9
:100D500028060091A6031091A7032091A8033091C3
:100D6000A903601B710B820B930B0091A2031091DE
:100D7000A3032091A4033091A50360177107820794
:100D80009307F8F28FEF9FEF1F910F910895CF9285
:100D9000DF92EF92FF92CF930E949506FC0197FDA0
:100DA0004EC08D32910521F0C0970A9708F040C0DF
:100DB000C12CD12C7601C0E0E130F105D1F0ED324B
:100DC000F105D9F1CF01C0970A9798F4AAE0B0E0F5
:100DD000A70196010E941C216F01FF0FEE08FF087A
:100DE000C60ED71EE81EF91E80E3C81AD108E10816
:100DF000F1088EE993E00E9473060E949506FC01BB
:100E0000C0970A97C8F2E130F105B1F2CC2341F066
:100E1000F094E094D094C094C11CD11CE11CF11C4E
:100E2000C701B601CF91FF90EF90DF90CF9008956A
:100E30008EE993E00E947306AFCFC1E0DACFC12CF8
:100E4000D12C7601EDCFFC01918D228D892F90E080
:100E5000805C9F4F821B91098F73992708958EE9BB
:100E600093E00E94230721E0892B09F420E0822FE0
:100E70000895FC01A48DA80FB92FB11DA35ABF4F2F
:100E80002C91848D90E001968F739927848FA68989
:100E9000B7892C93A089B1898C9180648C93938DB0
:100EA000848D981306C00288F389E02D80818F7DA0
:100EB00080830895EF92FF920F931F93CF93DF9358
:100EC000EC0181E0888F9B8D8C8D981316C0E8898A
:100ED000F989808185FF11C0EE89FF896083E889E7
:100EE000F98980818064808381E090E0DF91CF91F7
:100EF0001F910F91FF90EF900895F62E0B8D10E04B
:100F00000F5F1F4F0F731127E02E8C8D8E110CC0B9
:100F10000FB607FCFACFE889F989808185FFF5CF04
:100F2000CE010E943907F1CFEB8DEC0FFD2FF11DA3
:100F3000E35AFF4FF0820B8FEA89FB898081806240
:100F4000D2CF0F931F93CF93DF938C01D0E0C0E0FB
:100F5000F801EC0FFD1F6491662341F08EE993E0E8
:100F60000E945A07892B11F02196F2CFCE01DF9112
:100F7000CF911F910F910895CF93DF93EC01888D4E
:100F80008823B9F0AA89BB89E889F9898C9185FD04
:100F900003C0808186FD0DC00FB607FCF7CF8C9192
:100FA00085FFF2CF808185FFEDCFCE010E9439070A
:100FB000E9CFDF91CF91089580E090E0892B29F06F
:100FC0000E942F0781110E94000080E090E0892B91
:100FD00049F080E090E0892B29F00E940000811107
:100FE0000C94000008958032910510F40197089543
:100FF000880F991F81970895089508950895089579
:10100000FC01878190E00895FC01238134816217FF
:10101000730750F0A901485F5F4F6417750720F40C
:10102000621B608781E0089580E0089561E0DC0143
:101030001F962D913C91232B09F060E0DC01ED918E
:10104000FC910284F385E02D41E00994DC011696C1
:101050006C91169721E06227ED91FC910284F38553
:10106000E02D41E00994FC0120852111622FFC0153
:1010700082810C944B04DC0117969C91179799235D
:1010800099F019968C9119974423B9F08F5F1996AE
:101090008C93199719968C911997492F181624F04B
:1010A00019961C92199740E0ED91FC9111970484D8
:1010B000F585E02D642FCD0109948150E8CF80E0C3
:1010C00008950895FC0181E06115710509F480E03F
:1010D000818B672B69F086819781958B848B8489BE
:1010E0009589938B828B178A168A128E118E08959A
:1010F00080859185F2CFFC01818990E00895DC0123
:1011000051966C91519721E06227ED91FC910284F8
:10111000F385E02D40E00994DC0162307105C1F0F7
:1011200038F46115710559F06130710559F0089571
:1011300063307105E9F06430710549F10895129644
:101140004C93089513964C93139714965C930895BB
:1011500018964C93189719965C931997ED91FC91FA
:1011600011970284F385E02D40E060E0CD01099401
:1011700016964C93169717965C931797ED91FC91E2
:1011800011970284F385E02D40E061E0EFCF1A96DD
:101190004C931A971B965C9308950895FC0166235F
:1011A00019F091E094279783468308950F931F9336
:1011B000CF93DF93EC012A81222309F130E0F9017A
:1011C000EA5FFE4F8491F901E85BFE4F0491F9015B
:1011D000E35DFE4F1491112379F081110E94050403
:1011E000E12FF0E0EE0FFF1FEF5DFE4FA591B491F0
:1011F000EC910E2381E009F480E081708E836E8192
:101200008F81681781F08B819C810E94D1018A8532
:10121000882339F06E8181E06827888599850E944E
:10122000D1018E818F838B85DF91CF911F910F919B
:1012300008950895CF93DF93EC0162307105C1F0FA
:1012400048F46115710579F06130710571F0DF9135
:10125000CF9108956330710529F164307105B9F7B4
:101260005B874A87F4CF4A83F2CF5C834B83EFCF0F
:10127000BA0190E080E00E94CC1F2FE335E342E802
:1012800050E40E94DF210E94512279876887E8811B
:10129000F9810284F385E02D40E060E0CE01DF912A
:1012A000CF910994BA0190E080E00E94CC1F2FE317
:1012B00035E342E850E40E94DF210E9451227F83FF
:1012C0006E83E881F9810284F385E02D40E061E0DE
:1012D000E5CFDC01ED91FC910190F081E02D0994C6
:1012E0000F931F93CF93DF938B01EC0169817A8178
:1012F0006115710551F0CE01F8010995181619060E
:1013000024F00980DA81C02DF1CFCE01DF91CF9199
:101310001F910F9108954F925F926F927F928F92DB
:101320009F92AF92BF92CF92DF92EF92FF920F9374
:101330001F93CF93DF93FC0122813381223031054B
:10134000F4F05B016C012C01F4E04F0E511C7201B2
:10135000F701C081D1812097D1F3B501CE010E9460
:1013600070094C01FC010181128101151105C1F4C4
:10137000E414F50461F7F601978386831486DF9100
:10138000CF911F910F91FF90EF90DF90CF90BF9082
:10139000AF909F908F907F906F905F904F90089547
:1013A000B501C8010E947009FC0161807280F401DE
:1013B00012821182FC0112821182B801CE01F50164
:1013C0000995F701181619066CF0D183C0837E01C8
:1013D000FFEFEF1AFF0A89819A81009781F41A833F
:1013E00009831CC0118300837801FFEFEF1AFF0A05
:1013F000F801818192810097D1F08C01CE01EC013E
:10140000DCCFEC0189819A810097D9F77A826982D1
:101410007E01FFEFEF1AFF0A9BCF8C01F80181815B
:1014200092810097D1F7728261827801F2CFD283E4
:10143000C183E8CFCF93DF93EC01E881F98101907C
:10144000F081E02DCE0109951816190644F4E881C3
:10145000F9810684F785E02DCE010995EECFDF9165
:10146000CF910895DC011496ED91FC9115971C968F
:101470008C911C978823B1F01A962D913C911B9763
:10148000621773077CF01896ED91FC911997261757
:1014900037075CF43097C1F00180F281E02D2F5FB7
:1014A0003F4FF5CF30E020E0F2CF2617370771F439
:1014B00081E01C968C931C971B963C932E931A9755
:1014C0001996FC93EE931897CF010895F0E0E0E0B1
:1014D000FBCFCF9377FD0EC0FC01228133816217D1
:1014E000730744F4C42F0E94320AFC01C08381E0D8
:1014F000CF91089580E0FCCF0E94320A009719F046
:10150000FC018081089580E00895FC01828193812F
:1015100008950097B1F020914A022817190689F022
:1015200080F0880F991FFC01E25BFD4F8081918163
:101530006170DC01ED91FC910284F385E02D40E0C7
:10154000099408950F931F93CF93DF93EC010E94AA
:1015500028060C851D852E853F85601B710B820B2F
:10156000930B693C71058105910570F08B8588238B
:1015700059F089859F8170E060E0890F9927991F54
:101580000E94890A1F821B868B85DF91CF911F9154
:101590000F9108951F93CF93DF93EC01162F0E94B4
:1015A00028066C877D878E879F8781E08B871F83C6
:1015B000898561E070E0212F280F3327331FC9018F
:1015C000DF91CF911F910C94890ACF93DF93EC01A7
:1015D0002885263039F461111AC041111F82DF912C
:1015E000CF9108956623D9F38FEF9FEFDC018C87AD
:1015F0009D87AE87BF8781E090E0AC0102C0440FB9
:10160000551F2A95E2F78F81842B8F83E8CF4423DF
:1016100031F32F818985820F9927991F3D813817D2
:101620001906E1F28A852817C8F60E9428066C87F9
:101630007D878E879F8781E08B8789859F8161E089
:1016400070E0890F9927991FDF91CF910C94890A37
:101650000F931F93CF93DF93FC0127853089232BB2
:1016600059F1EC010E9428060B851C852D853E85CD
:10167000AB01BC01401B510B620B730B89859A8532
:10168000B0E0A0E084179507A607B70778F48A8929
:10169000882371F08F859889019751F4888561E0DE
:1016A00070E090E00E94890A188A1F8681E005C0D8
:1016B0008F8170E060E0F5CF80E0DF91CF911F91E6
:1016C0000F9108950F931F93CF93DF93EC019989A6
:1016D0009617F9F02F853889232BD9F481E09617D6
:1016E00008F080E0042F162F8A8B9617B8F481E05B
:1016F00090E0988B8F878F8161E070E090E00E948E
:10170000890A0111198B0E9428066B877C878D87B7
:101710009E87DF91CF911F910F91089581E090E016
:10172000988B8F87888570E060E0E8CF009761F044
:10173000880F991FFC01E25BFD4F0190F081E02DC5
:10174000838194810C94D10108950F931F93CF93BB
:10175000DF93EC0188859985892B09F44AC08E8531
:101760009F85A889B989892B8A2B8B2B09F441C0C5
:101770000E9428060E851F8528893989AB01BC0186
:10178000401B510B620B730B88859985B0E0A0E07C
:1017900011E084179507A607B707D8F41E861F86A1
:1017A000188A198A60E08A810E944B0460E08E8169
:1017B0000E944B041A898A859B85111110C061E033
:1017C00070E00E94960B70E060E08C859D850E9421
:1017D000960B812FDF91CF911F910F91089570E0AB
:1017E00060E00E94960B61E070E08C859D850E9410
:1017F000960B10E0EECF0F931F93CF93DF93EC0186
:10180000062F142F8A859B852A8921111BC061E030
:1018100070E00E94960B70E060E08C859D850E94D0
:10182000960B0A8B0E9428066E877F87888B998B80
:10183000612F002371F08A81DF91CF911F910F9169
:101840000C944B0470E060E00E94960B61E070E045
:10185000E4CF8E81F1CFCF93DF93EC018D859E8510
:10186000298D3A8D70E060E02130310529F0298919
:1018700021110CC061E070E00E94960B70E060E006
:101880008F859889DF91CF910C94960B70E060E082
:101890000E94960B61E070E0F3CF1F93CF93DF932C
:1018A000EC01162F662321F18E819F819D8B8C8BFD
:1018B0008A859B854C895D892A893B894217530714
:1018C00018F49195819591099F8B8E8B8C8561E0A1
:1018D00070E090E00E94890ACE010E942B0C198BC7
:1018E00081E090E09A8F898FDF91CF911F910895C9
:1018F00088859985DBCFCF92DF92EF92FF920F938D
:101900001F93CF93DF93EC01C98CDA8C62E0C6168B
:10191000D10451F480E0DF91CF911F910F91FF909E
:10192000EF90DF90CF9008952A893B890E891F8917
:10193000C80117FF04C088279927801B910B4C8989
:101940005D89F901E41BF50BE817F90770F482E0F3
:1019500090E09A8F898F8C8570E060E090E00E9423
:10196000890ACE010E942B0CD5CF888D8F5F888F7E
:10197000F1E0CF16D10409F055C0020F131F1B8BE5
:101980000A8BEB8CFC8C6A81F701A181B28180818A
:1019900091E057969C93579752968C9352975596F1
:1019A0001C92559756961C925697F4E06F9FB00183
:1019B00011246A5F7F4FED91FC9111970190F081A6
:1019C000E02DCD01099570E060E0F7018181928101
:1019D0000E94690970E060E0F701818192810E94B4
:1019E0006909B801F701818192810E946909612F1B
:1019F00070E0F701818192810E946909F70181817C
:101A000092810E94C1038E899F89892B49F42C8978
:101A10003D898A899B892817390711F4DF8ACE8A84
:101A200081E079CFCD2809F075CF8B3F08F472CFD4
:101A300081E090E09A8F898F6ECF90E080E00895EA
:101A4000089580E00895089508950895089521E087
:101A5000FC01838194818617970709F020E0822F8B
:101A6000089508950C943E1F0C943E1F0C943E1F45
:101A70000C943E1F0C943E1F0C943E1F0C943E1F72
:101A8000EF92FF921F93CF93DF93FC0162817381EA
:101A900010E016161706DCF4EC01148661307105AF
:101AA000E9F0625071090E94320A7C01FC018181D7
:101AB0009281FC0110810E943E1FF7011282118267
:101AC000FF82EE828A819B8101979B838A83812F8B
:101AD000DF91CF911F91FF90EF90089584819581C0
:101AE000FC0110810E943E1F1D821C821F821E82EB
:101AF0001B821A82ECCFEF92FF921F93CF93DF935A
:101B0000DC0112962D913C9113971216130634F5B1
:101B100021303105C1F0EC018C819D81FC01E18017
:101B2000F28010810E943E1FFD82EC828A819B819F
:101B300001979B838A831C86812FDF91CF911F9110
:101B4000FF90EF900895ED91FC910484F585E02DD0
:101B5000DF91CF911F91FF90EF90099410E0ECCFAF
:101B60001F93CF93DF9377FD3EC0DC0112962D913A
:101B70003C91139762177307B4F56115710549F429
:101B8000ED91FC910684F785E02DDF91CF911F91B7
:101B90000994215031092617370731F4ED91FC9152
:101BA0000484F585E02DF1CFEC01615071090E94AC
:101BB000320ADC011196ED91FC911297108121817E
:101BC000328112963C932E931197CF010E943E1FB3
:101BD0008A819B8101979B838A831C86812FDF9159
:101BE000CF911F91089510E0F9CF0C943E1F8F9272
:101BF0009F92AF92BF92CF92DF92EF92FF92CF93DC
:101C0000DF936B017C0120E030E040E85FE30E945D
:101C1000C71F87FDBCC020E030EC4AE555E4C70192
:101C2000B6010E94802218163CF4C12C30ECD32E51
:101C30003AE5E32E35E4F32E60914C0470914D04A7
:101C400080914E0490914F040E94CC1F4B015C0187
:101C500020E030E040E855E4C701B6010E942D20A5
:101C60009B01AC01C501B4010E94DF2120E030E0FE
:101C700040E05FE30E94732120E030E040E85FE352
:101C80000E9472216B017C0120E030E040E450E4CE
:101C90000E94C71F87FD82C020E030E04FE753E479
:101CA000C701B6010E948022181634F4C12CD12C31
:101CB0009FE7E92E93E4F92EC701B6010E94512255
:101CC000F62EA0914A04B0914B048091490491E012
:101CD00057969C93579752968C93529755961C9271
:101CE000559756961C925697ED91FC91119701903D
:101CF000F081E02D60E0CD01099580914A0490913A
:101D00004B040E94C103C0914A04D0914B048091BE
:101D100049044C855D851416150614F441E050E025
:101D20006E857F85ECA1FDA121E00995188A898B3C
:101D300080914A0490914B04DC01ED91FC91028466
:101D4000F385E02D0995C82F682F6F76606180E0DC
:101D50000E94D5036F2D8EEF0E94D5036C2F80E07B
:101D60000E94D50365E070E080E090E00E94F605F7
:101D70006C2F606A80E0DF91CF91FF90EF90DF9051
:101D8000CF90BF90AF909F908F900C94D503C12CB3
:101D9000D12C20E8E22E2FE3F22E4ECFC12CD12CF5
:101DA00080E4E82EFE2C88CFFF920F931F93CF93F1
:101DB000DF93DC0112960D911C911397011511050B
:101DC00059F4ED91FC910480F581E02DDF91CF91E4
:101DD0001F910F91FF900994F62EEC0183E090E0A3
:101DE0000E94A21E2C813D81FC0132832183F0825E
:101DF0009D838C830F5F1F4F1B830A831C8681E0AA
:101E0000DF91CF911F910F91FF900895DF92EF9294
:101E1000FF920F931F93CF93DF93EB01642FDC01AD
:101E200012964D915C911397C417D5076CF0ED9104
:101E3000FC910480F581E02DDF91CF911F910F91EE
:101E4000FF90EF90DF900994209731F4ED91FC9191
:101E50000680F781E02DF0CFD62E8C0183E090E054
:101E60000E94A21E7C01FC01108212821182BE011E
:101E700061507109C8010E94320AD701DC92FC014D
:101E80002181328112963C932E931197F282E18246
:101E9000D80112968D919C911397019613969C935D
:101EA0008E9312971C961C9281E0DF91CF911F9127
:101EB0000F91FF90EF90DF9008951F93CF93DF93E2
:101EC000EC01162F83E090E00E94A21EFC0112821A
:101ED000118210832C813D81232B89F0EE81FF81BB
:101EE000928381839F838E838A819B8101969B83CA
:101EF0008A831C8681E0DF91CF911F9108959D8395
:101F00008C83F0CF0F931F93CF93DF938C01EB0162
:101F10000E94F307805090406C2F0032110530F47E
:101F2000DF91CF911F910F910C94F9207D2FDF91BC
:101F3000CF911F910F910C940721DF92EF92FF92A6
:101F40000F931F93CF93DF9320914B02222309F429
:101F500049C08131974209F045C0603481E078077B
:101F600008F049C07A01EB01BA01CE010E94820F4C
:101F7000C032D105A8F1A097CE016AE070E00E94BE
:101F80003621D62E80914A02681750F5262F372F1A
:101F90008901000F111F025B1D4FD8018D919C918B
:101FA0006AE0629FA001639F500D1124BE01641B73
:101FB000750BDC01ED91FC910684F785E02DA701FE
:101FC0000995F80180819181DC01ED91FC910680F9
:101FD000F781E02D09956D2D80E594E00E945D0F5D
:101FE0008FE701C08FEFDF91CF911F910F91FF908D
:101FF000EF90DF90089581E0F6CFAF92BF92CF923D
:10200000DF92EF92FF920F931F93CF93DF937C01A8
:10201000062FD42E10E094E1C92E80914A021817A1
:1020200008F054C0C12FD0E0CC0FDD1FCE01825B81
:102030009D4F5C01DC018D919C91DC01ED91FC9147
:102040000480F581E02DB70109958823E9F1F501B8
:102050008081918141E0011101C040E061E0D11037
:1020600001C060E0DC01ED91FC910284F385E02D7C
:102070000995612F80E594E00E945D0FC25BDD4F02
:1020800088819981DC01ED91FC910288F389E02D32
:10209000099588819981DC01ED91FC910688F78989
:1020A000E02D09951C9D90011124BC01C901855D9D
:1020B0009F4F0E94072188819981DC01ED91FC915D
:1020C0000088F189E02D09951F5FA7CFDF91CF919F
:1020D0001F910F91FF90EF90DF90CF90BF90AF9046
:1020E0000895FC0101900020E9F73197AF01481BEA
:1020F000590BBC018EE993E00C9434068F929F92A9
:10210000AF92BF920F931F93CF93DF93CDB7DEB7FC
:10211000A1970FB6F894DEBF0FBECDBF19A2423013
:1021200008F44AE08E010F5D1F4F842E912CB12CD4
:10213000A12CA50194010E944A21E62FB901CA01F0
:10214000EA30F4F4E05DD801EE938D01232B242BCB
:10215000252B79F790E080E0109719F0CD010E94CF
:102160007110A1960FB6F894DEBF0FBECDBFDF9100
:10217000CF911F910F91BF90AF909F908F90089536
:10218000E95CE1CFCF93DF93EC0188EC90E00E9413
:10219000A1076B817C8190E080E04AE00E947E1084
:1021A00084E292E00E94711084EB90E00E94A1070B
:1021B000688570E090E080E04AE00E947E1084E252
:1021C00092E0DF91CF910C9471100F931F93CF93F6
:1021D000DF938C01EB0180E090E00E94EB2090E027
:1021E000F8012081318121313742A1F428813981E0
:1021F0002817390749F481E080934B028FE7DF917C
:10220000CF911F910F9108952F3F3F4F19F499835C
:102210008883F4CF10924B028FEFF1CFCF93DF93EF
:1022200020914B02222379F08131974261F4EB0136
:1022300080E090E00E94EB208C171D0621F41092A4
:102240004B020C940000DF91CF9108958F929F92E2
:10225000AF92BF92CF92DF92EF92FF920F931F93B4
:10226000CF93DF9300D0CDB7DEB740914B0244232C
:1022700009F451C18131974209F04DC189E190E0E3
:10228000F90165307105B1F089017B016034F1E03D
:102290007F0710F5CB010E94F3078050904020E2A9
:1022A000E216F10420F40E94EB2090E002C00E94AC
:1022B000F320F801918380838FE70F900F90DF91D7
:1022C000CF911F910F91FF90EF90DF90CF90BF9033
:1022D000AF909F908F9008956A3FF3E07F0709F0D9
:1022E00046C00E948C050E94790561E084E40E944A
:1022F0004A0568EE73E080E090E00E94F6050E94D7
:102300008C050E94790560E08EEB0E944A0570E41E
:10231000E72E72E0F72EE9E48E2EE2E09E2E68E0D2
:10232000A62EB12CD12CCC24C3940E94E804811198
:10233000DC28CC0C21E0A21AB108B9F7F701D19240
:102340007F018E169F0659F78091400290914102BD
:1023500020914402207611F4887FABCF203211F413
:102360008C7FA7CF203409F0A4CF8E7FA2CF6B3F04
:10237000F3E07F0761F48091F40290E0982F8827C2
:10238000F901918380832091F502822B93CF6C3FDA
:10239000F3E07F0759F48091F60290E0982F8827A8
:1023A000F901918380832091F702EFCF6D3FF3E035
:1023B0007F0759F48091F80290E0982F8827F80160
:1023C000918380832091F902E0CF6E3FF3E07F0795
:1023D00059F48091FA0290E0982F8827F8019183B0
:1023E00080832091FB02D1CF8FE699E26F3FF3E02B
:1023F0007F0709F45ECF6115F4E07F0789F48091CF
:102400008D0490918E04009711F481E994E09E016F
:102410002F5F3F4F281B390BF801318320834CCFAE
:1024200080914002909141026130F4E07F0709F40D
:1024300040CF80919104909192046230F4E07F0744
:1024400009F437CF6330F4E07F0719F48DB79EB7F6
:1024500030CFCB0184509440059748F58091940388
:10246000909195036630F4E07F0709F422CF68F479
:1024700080919203909193036530744009F419CFD1
:10248000809190039091910314CF673084E0780796
:1024900049F080919803909199036830744009F451
:1024A00008CFEECF809196039091970302CF6A30C8
:1024B000F4E07F0741F582E480937C0080917A000C
:1024C000806480937A0080917A0086FDFCCF8091B1
:1024D000780060917900762F682F90E080E00E946C
:1024E000CC1F2AE137E64CE950E40E942D2020E081
:1024F00030E040E551E40E942D200E945122F80175
:1025000071836083D9CE81E06B30744009F0D5CE01
:1025100080914902CACE8FEFD0CE1F920F920FB694
:102520000F9211242F933F934F935F936F937F9359
:102530008F939F93AF93BF93EF93FF938091B900D5
:10254000887F803609F44CC008F03FC0883209F417
:10255000A8C018F5803109F49CC0B8F4882309F4A8
:10256000F9C0883009F495C0FF91EF91BF91AF9108
:102570009F918F917F916F915F914F913F912F919B
:102580000F900FBE0F901F901895883109F489C0E5
:10259000803251F78093CD0215C0803409F49EC07B
:1025A00048F48033B9F38833F9F68093CD020E9462
:1025B0000701DACF803509F485C0883509F496C063
:1025C000883491F60E94FD00CFCF883909F48CC081
:1025D00038F5883729F050F4883611F0803721F625
:1025E00083E08093CE021092CC0257C0883809F461
:1025F0007BC0803919F0803809F0B6CF8091CC02C9
:10260000803208F071C0E091CC0281E08E0F80939F
:10261000CC028091BB00F0E0E455FD4F80833DC0CB
:10262000803B39F0E0F4803A09F479C0883A09F047
:102630009BCF84E08093CE021092AB021092AA024C
:10264000E0919C03F0919D0309958091AA0281116C
:102650000FC081E08093AA0210928A0209C0803CD8
:1026600009F476C0883C09F473C0883B09F07CCF3C
:10267000E091AB0281E08E0F8093AB02F0E0E65771
:10268000FD4F80818093BB009091AB028091AA02A4
:1026900029C08091F3028093BB0085EC8093BC003D
:1026A00063CF9091F2028091F102981758F5E09172
:1026B000F20281E08E0F8093F202F0E0EF52FD4FC4
:1026C0008081E9CFE091F20281E08E0F8093F202E7
:1026D0008091BB00F0E0EF52FD4F80839091F202B9
:1026E0008091F1029817C8F285E8D8CFE091F20204
:1026F00081E08E0F8093F2028091BB00F0E0EF52F8
:10270000FD4F80838091D00281115CCF81E0809366
:10271000CF0284EA8093BC001092CE0225CF0E94A3
:1027200007018091CC02803230F4E091CC02F0E0DD
:10273000E455FD4F10826091CC0270E0E0919A0365
:10274000F0919B038CEA92E009951092CC020CCF99
:1027500085ECE0CF1092CD0235CF1F920F920FB6CD
:102760000F9211242F933F938F939F93AF93BF9317
:102770008091820290918302A0918402B09185029F
:102780003091810223E0230F2D3768F126E8230FD3
:102790000296A11DB11D2093810280938202909325
:1027A0008302A0938402B093850280918602909167
:1027B0008702A0918802B09189020196A11DB11DE6
:1027C0008093860290938702A0938802B093890237
:1027D000BF91AF919F918F913F912F910F900FBE1D
:1027E0000F901F9018950196A11DB11DD4CF1F9277
:1027F0000F920FB60F9211242F933F934F935F9335
:102800006F937F938F939F93AF93BF93EF93FF93B8
:102810008EE993E00E943907FF91EF91BF91AF914C
:102820009F918F917F916F915F914F913F912F91E8
:102830000F900FBE0F901F9018951F920F920FB61A
:102840000F9211242F938F939F93EF93FF93E09117
:10285000AE03F091AF038081E091B403F091B50332
:1028600082FD1BC090818091B7038F5F8F73209191
:10287000B803821741F0E091B703F0E0E256FC4F55
:10288000958F8093B703FF91EF919F918F912F9137
:102890000F900FBE0F901F9018958081F4CF1F925C
:1028A0000F920FB60F9211242F933F934F935F9384
:1028B0006F938F939F93AF93BF93CF93DF93EF93D8
:1028C000FF93809102039091030380549C4F909357
:1028D000030380930203809102039091030390937A
:1028E000890080938800809107038F5F809307039E
:1028F000809108038430E9F580910703893000F561
:102900008091FE0290E0959587958093FE02189B3A
:1029100005C08091FE0280688093FE02FF91EF91D6
:10292000DF91CF91BF91AF919F918F916F915F9107
:102930004F913F912F910F900FBE0F901F901895C0
:10294000B59A80916F00806280936F008091FC0245
:102950009091FD0218992AC0FC01E957FF4F808130
:1029600091810196918380831092070381E0809387
:10297000080380910803833009F043C0E091050308
:10298000F091060380812091040333B190E0022E80
:1029900002C0959587950A94E2F7832780FD17C0BA
:1029A0001092070382E0809308032BC04091FE023F
:1029B000FC01E058FF4F208131E0320F3083820F5D
:1029C000911DDC014C9337FFCFCF1082CDCF80918A
:1029D0000703893008F03EC03091FE0281E090E0AC
:1029E00001C0880F2A95EAF7908130FF31C08095A9
:1029F000892380838091FE0290E09595879580934E
:102A0000FE0280910803823099F4809107038111BE
:102A100094C0E0910503F091060380819091040336
:102A200021E030E001C0220F9A95EAF7822B8083E3
:102A300080910803813009F071CF809107038111E3
:102A4000A2C0B59A80916F00806280936F0066CFBC
:102A5000892BCFCF80910703893059F4308181E0F1
:102A600090E001C0880F2A95EAF780958323808340
:102A7000C8CF809109038F5F8093090390910A0367
:102A8000891750F51092070380910003909101037C
:102A9000A0910903A80FB92FB11D8C918093FE025C
:102AA000808141E050E001C0440F2A95EAF7842B71
:102AB000808380918400909185008A5A9C4F9093E6
:102AC0000303809302038091020390910303909388
:102AD00089008093880095CF81E08093FF02E09188
:102AE0000003F09101034091FC025091FD028081AE
:102AF00080768036C9F4818130E020E0EA01C05858
:102B0000DF4F2817B0F4DF01A20FB31F6C91A8812B
:102B100091E09A0F9883A40FB52FB11D6C9397FD88
:102B200018822F5F3F4FEDCF8081829586708E5F38
:102B3000E3CF1092070381E036CF809107038F30F7
:102B400008F476CFE0910503F091060320813091DF
:102B5000040381E090E001C0880F3A95EAF7809580
:102B6000822380831092070381E080930803E09121
:102B7000FC02F091FD02E357FF4F808191810196A5
:102B80009183808355CF80910703883308F4C6CEA4
:102B90001092080380916F008D7F57CF1F920F9284
:102BA0000FB60F9211248F939F93EF93FF93EFE64D
:102BB000F0E080818F7D80838091860090918700F6
:102BC00080569A4F909303038093020380910203EF
:102BD000909103039093890080938800B19A80813B
:102BE0008260808384E08093080310920703FF9142
:102BF000EF919F918F910F900FBE0F901F9018959E
:102C00008CEF91E090935104809350048091540490
:102C100090915504009751F0FC012181328130934D
:102C20005504209354040E943E1FF0CF80916B0402
:102C300090916C040E943E1F8091700490917104E9
:102C40000C943E1FCF92DF92EF92FF92CF93DF93CF
:102C5000CDE5D4E01B821A8288EEC82E83E0D82E00
:102C6000E12CF12CCC82DD82EE82FF8286E192E0C3
:102C70009983888380E290E09D878C870E94A21EC2
:102C80009F878E87188A198A1A8A80E290E00E94AC
:102C9000A21E9C8B8B8B1D8A1E8A1F8A89E794E05B
:102CA0009D8F8C8F87E994E09F8F8E8F8EED90E0C3
:102CB00099A388A382EE90E09BA38AA383EB92E082
:102CC0009DA38CA38CE592E09FA38EA385E392E065
:102CD00099A788A785EF90E09BA78AA78DEF90E042
:102CE0009DA78CA787E091E09FA78EA787E093E040
:102CF00090939B0380939A038BEF92E090939D03B4
:102D000080939C03EEE9F3E013821282C482D582A1
:102D1000E682F7828AEE91E09183808385EC90E0F1
:102D20009587848784EC90E09787868780EC90E095
:102D3000918B808B81EC90E0938B828B82EC90E086
:102D4000958B848B86EC90E0978B868B118E128E00
:102D5000138E148EE9E4F4E080E48083D283C1838F
:102D6000E0E5F4E08CEF91E091838083158214829A
:102D7000178216821382128211861086138612869B
:102D8000148660E081E10E94A404E9E5F1E0E491A9
:102D9000ABE3B4E0EC93EEE3F1E0E491F0E0EE0FAE
:102DA000FF1FEF5DFE4F8591949112969C938E9339
:102DB00011971B961C921B971D961C921D971C9693
:102DC0001C921C971A961C921A9719961C92199786
:102DD00018961C92189717961C92179716961C9285
:102DE000169715961C92159714961C921497139685
:102DF0001C92DF91CF91FF90EF90DF90CF900895DC
:102E0000CF93DF93CDB7DEB766970FB6F894DEBFEA
:102E10000FBECDBF789484B5836084BD85B58360D3
:102E200085BD80916E00816080936E0092E09093EA
:102E30008100809181008160809381008091800079
:102E40008160809380008091B10084608093B100A4
:102E50008091B00081608093B00080919100836088
:102E60008093910080919000816080939000809188
:102E7000A10083608093A1008091A0008160809375
:102E8000A00087E880937A001092C100E091AE0321
:102E9000F091AF039083E091AA03F091AB0310820D
:102EA000E091AC03F091AD038FEC80831092B603F8
:102EB000E091B203F091B30386E08083E091B00328
:102EC000F091B103808188698083E091B003F09133
:102ED000B10380818F7D8083689A13E0709A6DE7DB
:102EE00070E080E090E00E94F60570986DE770E079
:102EF00080E090E00E94F605115081F7EBE0F3E0EE
:102F00008FE8DF011D928A95E9F761E085E00E9474
:102F1000A404EDE4F1E02491E2E3F1E0E491F0E0D7
:102F2000EE0FFF1FE650FF4F4591549180E091E076
:102F300031E0291741F08F5F932F082E01C0990FC0
:102F40000A94EAF7F6CF5093060340930503809363
:102F500004038BE093E09093FD028093FC022098A1
:102F6000E0910503F091060320813091040381E094
:102F700090E001C0880F3A95EAF78095822380831C
:102F80001092800081E08093810010920803B59A2E
:102F900080916F00806280936F0080918100887FB4
:102FA00081608093810085E090E00E94EB20809317
:102FB0004A02893118F088E180934A02412C10912D
:102FC0004A02411608F0A1C2E42CF12CC701885F27
:102FD0009F4F0E94EB20D82EB4E14B9E800111241C
:102FE000C801815E9F4F0E94F3201C0181E0E2E056
:102FF0002E16310408F080E091E0F5E02F16310440
:1030000009F090E0892B21F428E02216310419F40C
:1030100022242A94312CC8018F5D9F4F0E94F320F7
:103020005C01722CC701880F991F9A8B898B94E0E1
:10303000D91609F4ACC19D15C8F0A2E0DA1609F45E
:10304000ABC0AD1508F46FC1B1E0DB1609F41DC1CA
:1030500086E090E00E94A21EFC0122EB31E0318369
:10306000208345827282B482A382B6C1E6E0DE1676
:1030700009F416C2DE1608F4B6C1F6E6DF12E8CF90
:10308000C8018D5D9F4F0E94F3206C01C8018B5DCC
:103090009F4F0E94F3209C8B8B8BC801895D9F4FB3
:1030A0000E94F3204C01C801835D9F4F0E94F320D2
:1030B0003C01C801815D9F4F0E94F3209E8B8D8B48
:1030C000C8018F5C9F4F0E94F320582E8DE190E045
:1030D0000E94A21E7C01DC0115964C921597129657
:1030E0002C9212971496BC92AE9213971B969C92B8
:1030F0008E921A971C965C921C975396DC92CE92F5
:1031000052975596DC92CE9254971E967C926E9270
:103110001D97ED89FE895096FC93EE931F97579665
:103120001C921E92569758961C9258975A961C922B
:103130001E92599726E931E011963C932E9389E42B
:1031400094E05C969C938E935B97B60190E080E050
:103150000E94CC1F2FE335E342E850E40E94DF21B8
:103160000E945122D70119967C936E931897EB8990
:10317000FC89BF0190E080E00E94CC1F2FE335E383
:1031800042E850E40E94DF210E945122D7011796A5
:103190007C936E93169769C0C8018D5D9F4F0E9406
:1031A000F3206C01C8018B5D9F4F0E94F3209C8B24
:1031B0008B8BC801895D9F4F0E94F3204C01C80191
:1031C000835D9F4F0E94F3203C01C801815D9F4FAA
:1031D0000E94F3209E8B8D8BC8018F5C9F4F0E94B5
:1031E000F320382E8BE190E00E94A21E7C01DC01CE
:1031F00015964C92159712962C9212971496BC9293
:10320000AE921397EAE7F1E01196FC93EE931996CC
:10321000DC92CE9218972B893C8917963C932E937B
:1032200016971B969C928E921A971C963C921C970E
:103230005396DC92CE9252975596DC92CE9254974A
:103240001E967C926E921D978D899E8950969C93B6
:103250008E931F9757961C921E92569758961C92C3
:1032600058975A961C921E925997E989FA89E25BFF
:10327000FD4FF182E082C801855D9F4F0E94F320DF
:10328000BC01C7010E9462083AC0C8018D5D9F4F12
:103290000E94F320A82FA170CA2E96958795B82F6B
:1032A000B170DB2EC8018B5D9F4F0E94F3207C0123
:1032B0008CE090E00E94A21E8C01FC0145822282DB
:1032C000B482A3822AE031E0318320833FEF2312CE
:1032D00002C08EEF828362E0D80112968C910E9428
:1032E000A404F801168221E02783C286F186E086D5
:1032F000D386E989FA89E25BFD4F11830083E9896E
:10330000FA89E25BFD4F80819181DC01ED91FC91B6
:103310000680F781E02D0995642D80E594E00E94F8
:103320005D0F43944CCEC8018D5D9F4F0E94F320EA
:10333000382F3170E32E96958795482F4170F42EE3
:103340008AE090E00E94A21E8C01DC0115964C924E
:10335000159712962C9212971496BC92AE921397D0
:10336000EEECF1E0ED93FC93F4E02F1621F061E038
:10337000822D0E94A404D80116961C9260E0C80118
:103380000E943308F801E7821186F086B2CFC801A7
:103390008D5D9F4F0E94F320E82EC8018B5D9F4FEB
:1033A0000E94F320F82EC801895D9F4F0E94F320F0
:1033B0008C0183E190E00E94A21EFC0145822282E2
:1033C000B482A38226E231E031832083E782F08653
:1033D00012870187108A1786A989BA89A25BBD4F17
:1033E000ED93FC938CCFC8018D5D9F4F0E94F3201D
:1033F0007C01C8018B5D9F4F0E94F3204C01C801E6
:10340000875D9F4F0E94F3206C01C801855D9F4F2F
:103410000E94F3201C0181E032E0E316F10408F081
:1034200080E091E045E0E416F10409F090E0892B9A
:1034300021F488E0E816F10419F4EE24EA94F12C62
:1034400083E190E00E94A21E8C01DC0115964C9253
:10345000159712967C9212971496BC92AE9213977F
:10346000E2E4F1E01196FC93EE931796FC92EE9253
:10347000169719969C928E9218971B96DC92CE9274
:103480001A971D963C922E921C9761E0872D0E9400
:10349000A40461E0D80116968C910E94A40429CF5F
:1034A000C8018D5D9F4F0E94F320C82EC8018B5D1F
:1034B0009F4F0E94F320D82E80E190E00E94A21E30
:1034C0007C01FC0145822282B482A3822EE531E098
:1034D00031832083C1861086D2868FEF9FEFDC0177
:1034E00084879587A687B7871386E989FA89E25B7F
:1034F000FD4FF182E082C801855D9F4F0E94F3205D
:10350000BC01C7010E94CA0AFACE8AE090E00E947C
:10351000A21E7C01FC0115838AE18283148213823E
:103520008EEC91E09183808361E08AE10E94A404A3
:10353000D70116961C9260E0C7010E943308F7017C
:10354000178211861086E12FF0E0EE0FFF1FE25B7D
:10355000FD4FF182E0821F5F10934A028091490281
:10356000826080934902109246041092480410929F
:1035700047041092450410924404109243041092A0
:103580004204109241041092400410923F041092A1
:103590003E046AEF70E080E090E00E94F6058091C2
:1035A0004804811124C00E948C05882301F160E049
:1035B00080EF0E944A0501E0E12CD12C11E00E942D
:1035C000E804F82E0E94E804F1E0FF121DC18130EA
:1035D00009F039C1113458F0D0924604D11003C01B
:1035E00081E08093480480913E04811142C1109291
:1035F0004604109248041092470410924504109219
:103600004404109243041092420410924104109218
:10361000400410923F0410923E041092F402109263
:10362000F5021092F6021092F7021092F802109230
:10363000F9021092FA02A4EFB2E0EEE0F0E081911C
:103640008D93E531F105D9F7E0914A04F0914B04EF
:10365000108A118A158A168A048CF58DE02D099539
:1036600060E880E00E94D5036AE070E080E090E0CE
:103670000E94F60560E070E08AE794E40E94F70D8E
:1036800080E498E7ADE7B1E080934C0490934D045B
:10369000A0934E04B0934F0460E070E08CE892E495
:1036A0000E94F70D60E080E10E94A40480E0A82E53
:1036B00080E0B82E91E1892E97E2992E20E0622ECB
:1036C00020E0722E209152043091530421153105CF
:1036D00041F1809180028F5F821713060CF0D5C0F4
:1036E000809380026091800270E080E594E00E9407
:1036F0007C0AE82FF0E0EE0FFF1FE25BFD4F8081B8
:103700009181DC01ED91FC910288F389E02D09950E
:10371000811107C06091800270E080E594E00E9412
:10372000B00D8EE993E00E942307181619066CF578
:103730008EE993E00E9473068737910531F50E9468
:10374000C7066B017C010E94C7061B012C0184EE99
:1037500090E00E94A107C701B601882799274AE097
:103760000E947E1081EE90E00E94A107C201B1018B
:10377000882799274AE00E947E1084E292E00E9406
:103780007110B101C6010E94820F80918C0390914B
:103790008B03891709F428C1E82FF0E0E55FFC4F9F
:1037A000F080F7FEB6C090918D03891751F02091FB
:1037B0009203309193032F5F3F4F309393032093F5
:1037C000920380938D03BFEFB0938E038F2D80768D
:1037D000803609F05DC010928F0380918C038F5F5B
:1037E00080938C03C0908D03282F2C1987FD109295
:1037F0008C0380918E0390918F03291709F499C04F
:10380000F826F0928E03C1CFEE2DF0E0F81211C031
:10381000809146041817A8F4DF01A55CBB4F1396EE
:103820008C91802381F4F12C193010F4109347040B
:10383000D12EE55CFB4F8381902F90958923838364
:103840000BC08113F0CFEE2DF0E0E55CFB4F8381E0
:10385000802B8383FF24F3948F2D0E9415051F5F17
:10386000000F11F4E39401E027E02E1508F0A7CE35
:10387000B1CEAEE3B4E0E4EFF2E08CEF92E02D9154
:1038800021938E179F07D9F7D6CE109280022ACFA8
:103890008F2D829586708E5F80938F0320918D038C
:1038A00080918F03820F9927991F813891050CF41D
:1038B00094CF00E8021BF89440918B0380918D0314
:1038C000841770F5E42FE81B8E2F80938B03789478
:1038D00060918D03461738F510E050E06BE073E01F
:1038E000C801855F9C4F0E94852260918D0370E026
:1038F000655F7C4FA8018BE093E00E948522809158
:103900008C0390918D03891B80938C0310928D03FF
:1039100064CF80918F03811160CFF0928F03BECF6F
:10392000802F840FD2CF461B50E070E0655F7C4F44
:10393000E2CFF8124CC0D12C9601255F3C4F6901B3
:1039400020919003309191032F5F3F4F309391036B
:103950002093900390918C0390938D03C114D10414
:1039600009F44ECFD0924D02C0924C02C114D10442
:1039700009F409C1D60111967C911197272F30E0E7
:1039800012966C911297462F50E0FA01F695FE2F91
:10399000EE27F795E795E078F770E72BF32B9C91EE
:1039A000923B09F4DFC03196913B09F405C1F8F46C
:1039B000933809F4F3C0903B09F4F8C09238F9F455
:1039C00080E090E0892B09F4DEC080E0ECC020911B
:1039D0009203309193032F5F3F4F309393032093D3
:1039E0009203D12CC12CB6CFD12CC12CBBCF9C3B88
:1039F00009F4F7C008F068C0943B09F42CC1953E67
:103A000019F09D3E09F0BFC087E292E00E9471105C
:103A100084E292E00E947110F60181818F3009F0FA
:103A2000B2C08381853009F0AEC084818111ABC002
:103A300046819601295F3F4F81E0942F982319F02A
:103A4000978190689783880F31962E173F07A9F7C3
:103A5000D60116961C92169715968C911597803262
:103A600009F45EC1813209F08EC01796ED91FC9188
:103A7000EF3FFE0709F0FBC0D60119968D919C918E
:103A80001A97892B09F0F3C01B968D919C91019692
:103A900009F0EDC080E090E00E94EB20082F10E0DC
:103AA000F6011487038790868782E12C30E020E0BE
:103AB00041E157E26281CE0101960E94FC01CE01F4
:103AC00001960E940D015FC09D3B09F45CC0903DD2
:103AD00009F095CF7076703229F0703609F48AC0FB
:103AE000711151C080E090E0892B09F44CC0C901EC
:103AF0009695982F88279795879580789F70840F43
:103B0000951FE5E035952795EA95E1F72170019637
:103B1000D6011396EC91139714964C9150E0ED3723
:103B200031F0B0E8EB9FF00111244E0F5F1F6F7072
:103B300009F481C0623009F480C0643009F47FC0A8
:103B4000663009F47EC0683009F47DC06A3009F43B
:103B50007CC06C3009F47BC06E3009F47AC00E94DE
:103B6000000011C082E090E065FD02C081E090E0BD
:103B700020E030E0232B39F0EE0FFF1F60718E0F35
:103B80009F1F0E94000080914B02882321F08EB17C
:103B900091E089278EB90E94DC0794CD80E090E007
:103BA000892B89F381E00E940000EDCF40726071A3
:103BB000CF010E94FD0FE7CF66FF09C0A114B10439
:103BC00011F340726071CF010E940000DCCF80E0F1
:103BD00090E0892BC1F240716072CF010E94000019
:103BE000D2CF6114710479F240726071CF010E94EA
:103BF0000000C9CF80E090E0892B29F213960C9148
:103C00001397802F807D803109F0BDCF1496EC9002
:103C1000FF24F39411E041E0802F8F2109F040E070
:103C20002E2D2F21FF0C612F80E80E9400001F5FC6
:103C3000153089F7A8CF61E492CF62E490CF63E4B6
:103C40008ECF64E48CCF65E48ACF66E488CF67E4E6
:103C500086CF68E484CF7C3309F095CF80E090E094
:103C6000892B09F490CF8CE30E9400008CCFD60101
:103C70001D969C911D97911122C01B964D915C91B0
:103C80001C9719966D917C919601255F3F4FCF014E
:103C90000E9426118F3749F4F6010385148521858A
:103CA000328547815085E12C05CF87FD6CCFD60149
:103CB0009C919F7724EB29839A838B8300CF97FF76
:103CC00022C096FD25C0B601655F7F4FC9010E94E5
:103CD000E5108F37C1F4F6010385148547815085BF
:103CE00080E8E82E30E020E06281CE0101960E945B
:103CF000FC016AE070E080E090E00E94F605CE01F1
:103D000001960E940D01D6011D968C9186FF3BCF36
:103D1000F60163857485878190850E940E1133CFEB
:103D20001B964D915C911C9719966D917C911A97F9
:103D300017968D919C910E949D0F87FD24CFF601CF
:103D40009081B7CF0F931F93CF93DF93823091056C
:103D500010F482E090E0E0918F04F091900430E064
:103D600020E0B0E0A0E0309799F42115310509F486
:103D70004AC0281B390B24303105D8F58A819B8134
:103D80006115710589F1FB0193838283FE0111C0E6
:103D9000408151810281138148175907E0F048178B
:103DA000590799F4109761F012960C931297139695
:103DB0001C933296CF01DF91CF911F910F910895FF
:103DC00000938F0410939004F4CF2115310551F026
:103DD0004217530738F0A901DB019A01BD01DF0149
:103DE000F801C1CFEF01F9CF9093900480938F0435
:103DF000CDCFFE01E20FF31F819391932250310941
:103E000039832883D7CF20918D0430918E04232BC2
:103E100041F4209102013091030130938E042093EC
:103E20008D0420910001309101012115310541F4EB
:103E30002DB73EB74091040150910501241B350B6D
:103E4000E0918D04F0918E04E217F307A0F42E1B8D
:103E50003F0B2817390778F0AC014E5F5F4F2417EE
:103E6000350748F04E0F5F1F50938E0440938D042A
:103E7000819391939FCFF0E0E0E09CCFCF93DF93CD
:103E80000097E9F0FC01329713821282A0918F040F
:103E9000B0919004ED0130E020E01097A1F4208172
:103EA0003181820F931F20918D0430918E04281749
:103EB000390709F061C0F0938E04E0938D04DF911F
:103EC000CF910895EA01CE17DF07E8F54A815B81BB
:103ED0009E0141155105B1F7E901FB83EA83499140
:103EE0005991C40FD51FEC17FD0761F480819181B2
:103EF0000296840F951FE9019983888382819381BB
:103F00009B838A83F0E0E0E012968D919C91139759
:103F10000097B9F52D913C911197CD010296820F32
:103F2000931F20918D0430918E042817390739F69C
:103F3000309751F51092900410928F04B0938E0434
:103F4000A0938D04BCCFD383C28340815181840F61
:103F5000951FC817D90761F44E5F5F4F888199811B
:103F6000480F591F518340838A819B8193838283A9
:103F70002115310509F0B0CFF0939004E0938F0440
:103F80009ECFFD01DC01C0CF13821282D7CF0E94E9
:103F9000092008F481E00895E89409C097FB3EF4F5
:103FA00090958095709561957F4F8F4F9F4F992386
:103FB000A9F0F92F96E9BB279395F6958795779504
:103FC0006795B795F111F8CFFAF4BB0F11F460FFC4
:103FD0001BC06F5F7F4F8F4F9F4F16C0882311F01C
:103FE00096E911C0772321F09EE8872F762F05C030
:103FF000662371F096E8862F70E060E02AF09A95CB
:10400000660F771F881FDAF7880F9695879597F9BF
:104010000895990F0008550FAA0BE0E8FEEF161659
:104020001706E807F907C0F012161306E407F507AC
:1040300098F0621B730B840B950B39F40A2661F020
:10404000232B242B252B21F408950A2609F4A140C3
:10405000A6958FEF811D811D08950E9440200C942C
:10406000B1200E94A32038F00E94AA2020F09523BE
:1040700011F00C949A200C94A02011240C94E520AB
:104080000E94C22070F3959FC1F3950F50E0551F19
:10409000629FF001729FBB27F00DB11D639FAA279D
:1040A000F00DB11DAA1F649F6627B00DA11D661FEC
:1040B000829F2227B00DA11D621F739FB00DA11D0D
:1040C000621F839FA00D611D221F749F3327A00DC7
:1040D000611D231F849F600D211D822F762F6A2F63
:1040E00011249F5750409AF0F1F088234AF0EE0FC8
:1040F000FF1FBB1F661F771F881F91505040A9F7F5
:104100009E3F510580F00C949A200C94E5205F3F6F
:10411000E4F3983ED4F3869577956795B795F79530
:10412000E7959F5FC1F7FE2B880F911D96958795A8
:1041300097F9089597F99F6780E870E060E0089527
:104140009FEF80EC089500240A94161617061806AF
:104150000906089500240A9412161306140605068B
:104160000895092E0394000C11F4882352F0BB0F1C
:1041700040F4BF2B11F460FF04C06F5F7F4F8F4F7F
:104180009F4F089557FD9058440F551F59F05F3FBA
:1041900071F04795880F97FB991F61F09F3F79F069
:1041A00087950895121613061406551FF2CF4695EB
:1041B000F1DF08C0161617061806991FF1CF86956D
:1041C0007105610508940895E894BB276627772751
:1041D000CB0197F90895F999FECF92BD81BDF89A68
:1041E000992780B50895A8E1B0E042E050E00C9432
:1041F0000E21262FF999FECF1FBA92BD81BD20BD99
:104200000FB6F894FA9AF99A0FBE019608950E9493
:10421000F920272F0C94FA20DC01CB01FC01F9993D
:10422000FECF06C0F2BDE1BDF89A319600B40D9202
:1042300041505040B8F708950E942721A59F900D46
:10424000B49F900DA49F800D911D11240895A29FED
:10425000B001B39FC001A39F700D811D1124911D5A
:10426000B29F700D811D1124911D0895AA1BBB1BC7
:1042700051E107C0AA1FBB1FA617B70710F0A61B66
:10428000B70B881F991F5A95A9F780959095BC0187
:10429000CD010895A1E21A2EAA1BBB1BFD010DC082
:1042A000AA1FBB1FEE1FFF1FA217B307E407F507E6
:1042B00020F0A21BB30BE40BF50B661F771F881FC2
:1042C000991F1A9469F760957095809590959B0158
:1042D000AC01BD01CF010895EE0FFF1F0590F491D1
:1042E000E02D09945058BB27AA270E948A210C94DC
:1042F000B1200E94A32038F00E94AA2020F039F4B7
:104300009F3F19F426F40C94A0200EF4E095E7FBEF
:104310000C949A20E92F0E94C22058F3BA17620722
:1043200073078407950720F079F4A6F50C94E42030
:104330000EF4E0950B2EBA2FA02D0B01B9019001C0
:104340000C01CA01A0011124FF27591B99F0593F04
:1043500050F4503E68F11A16F040A22F232F342F4C
:104360004427585FF3CF469537952795A795F0409A
:104370005395C9F77EF41F16BA0B620B730B840BAF
:10438000BAF09150A1F0FF0FBB1F661F771F881F67
:10439000C2F70EC0BA0F621F731F841F48F48795BF
:1043A00077956795B795F7959E3F08F0B0CF9395B1
:1043B000880F08F09927EE0F9795879508950E942A
:1043C000F3210C94B1200E94AA2058F00E94A3204F
:1043D00040F029F45F3F29F00C949A2051110C947D
:1043E000E5200C94A0200E94C22068F39923B1F329
:1043F000552391F3951B550BBB27AA27621773070B
:10440000840738F09F5F5F4F220F331F441FAA1F9E
:10441000A9F335D00E2E3AF0E0E832D0915050405A
:10442000E695001CCAF72BD0FE2F29D0660F771F08
:10443000881FBB1F261737074807AB07B0E809F0EE
:10444000BB0B802DBF01FF2793585F4F3AF09E3F73
:10445000510578F00C949A200C94E5205F3FE4F32A
:10446000983ED4F3869577956795B795F7959F5FB6
:10447000C9F7880F911D9695879597F90895E1E002
:10448000660F771F881FBB1F621773078407BA0761
:1044900020F0621B730B840BBA0BEE1F88F7E095BC
:1044A00008950E94CA2088F09F5798F0B92F992745
:1044B000B751B0F0E1F0660F771F881F991F1AF00F
:1044C000BA95C9F714C0B13091F00E94E420B1E070
:1044D00008950C94E420672F782F8827B85F39F06F
:1044E000B93FCCF3869577956795B395D9F73EF4A8
:1044F00090958095709561957F4F8F4F9F4F089550
:104500000E94092008F48FEF08956817790768F46E
:10451000FB01DC01E40FF51FA40FB51F02C00290E0
:104520000E9241505040D8F708950C949722FB0109
:10453000DC0102C001900D9241505040D8F708951F
:1045400010E0C3EBD0E004C0FE010E946C21219674
:0A455000C43BD107C9F7F894FFCF70
:10455A0000009104800000000000FC07320D270DC6
:10456A003203230DCE08250D240D230DD608200D68
:10457A001D0D00000000FE07360D270D3203160838
:10458A00620B250D240D230D280B200D1D0D000097
:10459A000000CD083C0D270D3203230DFB0B250D22
:1045AA00240D3203A50B200D1D0D00000000FF078E
:1045BA00380D0408C210230DE50A250D240D230D1C
:1045CA00A20ACA0A00080000000061083A0D270D75
:1045DA0032037F084D0C250D8C0832035F086208F0
:1045EA007B080000000019093E0D270D32037F08E1
:1045FA004D0C250D1A0932037B0C62087B0800005A
:10460A000000310DF50D270D230D230D260D250D67
:10461A00240D230D210D200D1D0D00000000FD07A6
:10462A00340D270D320326083B083308240D230DC9
:10463A005F08200D1D0D000000005A0734066406AD
:10464A00BC0723077306870600000000850A060FC9
:10465A005D0FD40E690AB00D400D7B0D7C0A1A0A53
:10466A008B090000000090035F03610632035903BF
:10467A00480333030D0A00506F737369626C792023
:10468A0061204C4E4356206D6573736167652E0039
:00000001FF
